{
  "_format": "hh-sol-artifact-1",
  "contractName": "PlanetDAO",
  "sourceName": "contracts/PlanetDAO.sol",
  "abi": [
    {
      "inputs": [],
      "name": "_dao_ids",
      "outputs": [
        {
          "internalType": "uint256",
          "name": "",
          "type": "uint256"
        }
      ],
      "stateMutability": "view",
      "type": "function"
    },
    {
      "inputs": [
        {
          "internalType": "uint256",
          "name": "",
          "type": "uint256"
        }
      ],
      "name": "_dao_uris",
      "outputs": [
        {
          "internalType": "string",
          "name": "dao_wallet",
          "type": "string"
        },
        {
          "internalType": "string",
          "name": "dao_uri",
          "type": "string"
        },
        {
          "internalType": "string",
          "name": "finished",
          "type": "string"
        }
      ],
      "stateMutability": "view",
      "type": "function"
    },
    {
      "inputs": [
        {
          "internalType": "string",
          "name": "",
          "type": "string"
        }
      ],
      "name": "_donated",
      "outputs": [
        {
          "internalType": "uint256",
          "name": "",
          "type": "uint256"
        }
      ],
      "stateMutability": "view",
      "type": "function"
    },
    {
      "inputs": [
        {
          "internalType": "uint256",
          "name": "",
          "type": "uint256"
        }
      ],
      "name": "_donations",
      "outputs": [
        {
          "internalType": "uint256",
          "name": "ideas_id",
          "type": "uint256"
        },
        {
          "internalType": "string",
          "name": "wallet",
          "type": "string"
        },
        {
          "internalType": "uint256",
          "name": "donation",
          "type": "uint256"
        }
      ],
      "stateMutability": "view",
      "type": "function"
    },
    {
      "inputs": [],
      "name": "_donations_ids",
      "outputs": [
        {
          "internalType": "uint256",
          "name": "",
          "type": "uint256"
        }
      ],
      "stateMutability": "view",
      "type": "function"
    },
    {
      "inputs": [],
      "name": "_goal_ids",
      "outputs": [
        {
          "internalType": "uint256",
          "name": "",
          "type": "uint256"
        }
      ],
      "stateMutability": "view",
      "type": "function"
    },
    {
      "inputs": [
        {
          "internalType": "uint256",
          "name": "",
          "type": "uint256"
        }
      ],
      "name": "_goal_uris",
      "outputs": [
        {
          "internalType": "uint256",
          "name": "dao_id",
          "type": "uint256"
        },
        {
          "internalType": "string",
          "name": "goal_uri",
          "type": "string"
        }
      ],
      "stateMutability": "view",
      "type": "function"
    },
    {
      "inputs": [],
      "name": "_ideas_ids",
      "outputs": [
        {
          "internalType": "uint256",
          "name": "",
          "type": "uint256"
        }
      ],
      "stateMutability": "view",
      "type": "function"
    },
    {
      "inputs": [
        {
          "internalType": "uint256",
          "name": "",
          "type": "uint256"
        }
      ],
      "name": "_ideas_uris",
      "outputs": [
        {
          "internalType": "uint256",
          "name": "goal_id",
          "type": "uint256"
        },
        {
          "internalType": "string",
          "name": "ideas_uri",
          "type": "string"
        },
        {
          "internalType": "uint256",
          "name": "donation",
          "type": "uint256"
        }
      ],
      "stateMutability": "view",
      "type": "function"
    },
    {
      "inputs": [],
      "name": "_ideas_vote_ids",
      "outputs": [
        {
          "internalType": "uint256",
          "name": "",
          "type": "uint256"
        }
      ],
      "stateMutability": "view",
      "type": "function"
    },
    {
      "inputs": [],
      "name": "_join_ids",
      "outputs": [
        {
          "internalType": "uint256",
          "name": "",
          "type": "uint256"
        }
      ],
      "stateMutability": "view",
      "type": "function"
    },
    {
      "inputs": [
        {
          "internalType": "uint256",
          "name": "",
          "type": "uint256"
        }
      ],
      "name": "_joined_person",
      "outputs": [
        {
          "internalType": "uint256",
          "name": "daoid",
          "type": "uint256"
        },
        {
          "internalType": "string",
          "name": "wallet",
          "type": "string"
        }
      ],
      "stateMutability": "view",
      "type": "function"
    },
    {
      "inputs": [],
      "name": "_message_ids",
      "outputs": [
        {
          "internalType": "uint256",
          "name": "",
          "type": "uint256"
        }
      ],
      "stateMutability": "view",
      "type": "function"
    },
    {
      "inputs": [],
      "name": "_message_read_ids",
      "outputs": [
        {
          "internalType": "uint256",
          "name": "",
          "type": "uint256"
        }
      ],
      "stateMutability": "view",
      "type": "function"
    },
    {
      "inputs": [],
      "name": "_reply_ids",
      "outputs": [
        {
          "internalType": "uint256",
          "name": "",
          "type": "uint256"
        }
      ],
      "stateMutability": "view",
      "type": "function"
    },
    {
      "inputs": [],
      "name": "_smart_contract_ids",
      "outputs": [
        {
          "internalType": "uint256",
          "name": "",
          "type": "uint256"
        }
      ],
      "stateMutability": "view",
      "type": "function"
    },
    {
      "inputs": [
        {
          "internalType": "uint256",
          "name": "",
          "type": "uint256"
        }
      ],
      "name": "_smart_contracts_uris",
      "outputs": [
        {
          "internalType": "uint256",
          "name": "smart_contract_id",
          "type": "uint256"
        },
        {
          "internalType": "uint256",
          "name": "ideas_id",
          "type": "uint256"
        },
        {
          "internalType": "string",
          "name": "smart_contract_uri",
          "type": "string"
        }
      ],
      "stateMutability": "view",
      "type": "function"
    },
    {
      "inputs": [
        {
          "internalType": "uint256",
          "name": "",
          "type": "uint256"
        }
      ],
      "name": "_template_uris",
      "outputs": [
        {
          "internalType": "string",
          "name": "",
          "type": "string"
        }
      ],
      "stateMutability": "view",
      "type": "function"
    },
    {
      "inputs": [
        {
          "internalType": "string",
          "name": "",
          "type": "string"
        }
      ],
      "name": "_user_badges",
      "outputs": [
        {
          "internalType": "string",
          "name": "wallet",
          "type": "string"
        },
        {
          "internalType": "bool",
          "name": "dao",
          "type": "bool"
        },
        {
          "internalType": "bool",
          "name": "joined",
          "type": "bool"
        },
        {
          "internalType": "bool",
          "name": "goal",
          "type": "bool"
        },
        {
          "internalType": "bool",
          "name": "ideas",
          "type": "bool"
        },
        {
          "internalType": "bool",
          "name": "vote",
          "type": "bool"
        },
        {
          "internalType": "bool",
          "name": "donation",
          "type": "bool"
        },
        {
          "internalType": "bool",
          "name": "comment",
          "type": "bool"
        },
        {
          "internalType": "bool",
          "name": "reply",
          "type": "bool"
        }
      ],
      "stateMutability": "view",
      "type": "function"
    },
    {
      "inputs": [],
      "name": "addTempData",
      "outputs": [],
      "stateMutability": "nonpayable",
      "type": "function"
    },
    {
      "inputs": [
        {
          "internalType": "uint256",
          "name": "_ideas_id",
          "type": "uint256"
        },
        {
          "internalType": "uint256",
          "name": "_doantion",
          "type": "uint256"
        },
        {
          "internalType": "string",
          "name": "_donator",
          "type": "string"
        }
      ],
      "name": "add_donation",
      "outputs": [],
      "stateMutability": "nonpayable",
      "type": "function"
    },
    {
      "inputs": [
        {
          "internalType": "uint256",
          "name": "",
          "type": "uint256"
        }
      ],
      "name": "all_goal_ideas_votes",
      "outputs": [
        {
          "internalType": "uint256",
          "name": "goal_id",
          "type": "uint256"
        },
        {
          "internalType": "uint256",
          "name": "ideas_id",
          "type": "uint256"
        },
        {
          "internalType": "string",
          "name": "wallet",
          "type": "string"
        }
      ],
      "stateMutability": "view",
      "type": "function"
    },
    {
      "inputs": [
        {
          "internalType": "uint256",
          "name": "",
          "type": "uint256"
        }
      ],
      "name": "all_messages",
      "outputs": [
        {
          "internalType": "uint256",
          "name": "message_id",
          "type": "uint256"
        },
        {
          "internalType": "uint256",
          "name": "ideas_id",
          "type": "uint256"
        },
        {
          "internalType": "string",
          "name": "message",
          "type": "string"
        },
        {
          "internalType": "string",
          "name": "sender",
          "type": "string"
        }
      ],
      "stateMutability": "view",
      "type": "function"
    },
    {
      "inputs": [
        {
          "internalType": "uint256",
          "name": "",
          "type": "uint256"
        }
      ],
      "name": "all_read_messages",
      "outputs": [
        {
          "internalType": "uint256",
          "name": "message_id",
          "type": "uint256"
        },
        {
          "internalType": "uint256",
          "name": "ideas_id",
          "type": "uint256"
        },
        {
          "internalType": "string",
          "name": "wallet",
          "type": "string"
        },
        {
          "internalType": "string",
          "name": "msg_type",
          "type": "string"
        }
      ],
      "stateMutability": "view",
      "type": "function"
    },
    {
      "inputs": [
        {
          "internalType": "uint256",
          "name": "",
          "type": "uint256"
        }
      ],
      "name": "all_replies",
      "outputs": [
        {
          "internalType": "uint256",
          "name": "reply_id",
          "type": "uint256"
        },
        {
          "internalType": "uint256",
          "name": "message_id",
          "type": "uint256"
        },
        {
          "internalType": "uint256",
          "name": "ideas_id",
          "type": "uint256"
        },
        {
          "internalType": "string",
          "name": "message",
          "type": "string"
        }
      ],
      "stateMutability": "view",
      "type": "function"
    },
    {
      "inputs": [
        {
          "internalType": "string",
          "name": "_dao_wallet",
          "type": "string"
        },
        {
          "internalType": "string",
          "name": "_dao_uri",
          "type": "string"
        },
        {
          "internalType": "string",
          "name": "_template",
          "type": "string"
        }
      ],
      "name": "create_dao",
      "outputs": [
        {
          "internalType": "uint256",
          "name": "",
          "type": "uint256"
        }
      ],
      "stateMutability": "nonpayable",
      "type": "function"
    },
    {
      "inputs": [
        {
          "internalType": "string",
          "name": "_goal_uri",
          "type": "string"
        },
        {
          "internalType": "uint256",
          "name": "_dao_id",
          "type": "uint256"
        },
        {
          "internalType": "string",
          "name": "_wallet",
          "type": "string"
        }
      ],
      "name": "create_goal",
      "outputs": [
        {
          "internalType": "uint256",
          "name": "",
          "type": "uint256"
        }
      ],
      "stateMutability": "nonpayable",
      "type": "function"
    },
    {
      "inputs": [
        {
          "internalType": "uint256",
          "name": "_goal_id",
          "type": "uint256"
        },
        {
          "internalType": "uint256",
          "name": "_ideas_id",
          "type": "uint256"
        },
        {
          "internalType": "string",
          "name": "_wallet",
          "type": "string"
        }
      ],
      "name": "create_goal_ideas_vote",
      "outputs": [
        {
          "internalType": "uint256",
          "name": "",
          "type": "uint256"
        }
      ],
      "stateMutability": "nonpayable",
      "type": "function"
    },
    {
      "inputs": [
        {
          "internalType": "string",
          "name": "_ideas_uri",
          "type": "string"
        },
        {
          "internalType": "uint256",
          "name": "_goal_id",
          "type": "uint256"
        },
        {
          "internalType": "string[]",
          "name": "_smart_contracts",
          "type": "string[]"
        },
        {
          "internalType": "string",
          "name": "_wallet",
          "type": "string"
        }
      ],
      "name": "create_ideas",
      "outputs": [
        {
          "internalType": "uint256",
          "name": "",
          "type": "uint256"
        }
      ],
      "stateMutability": "nonpayable",
      "type": "function"
    },
    {
      "inputs": [
        {
          "internalType": "uint256",
          "name": "_dao_id",
          "type": "uint256"
        }
      ],
      "name": "dao_uri",
      "outputs": [
        {
          "internalType": "string",
          "name": "",
          "type": "string"
        }
      ],
      "stateMutability": "view",
      "type": "function"
    },
    {
      "inputs": [
        {
          "internalType": "uint256",
          "name": "ideas_id",
          "type": "uint256"
        }
      ],
      "name": "getMsgIDs",
      "outputs": [
        {
          "internalType": "uint256[]",
          "name": "",
          "type": "uint256[]"
        }
      ],
      "stateMutability": "view",
      "type": "function"
    },
    {
      "inputs": [
        {
          "internalType": "uint256",
          "name": "_message_id",
          "type": "uint256"
        },
        {
          "internalType": "string",
          "name": "msg_type",
          "type": "string"
        }
      ],
      "name": "getReadMsg",
      "outputs": [
        {
          "internalType": "bool",
          "name": "",
          "type": "bool"
        }
      ],
      "stateMutability": "view",
      "type": "function"
    },
    {
      "inputs": [
        {
          "internalType": "uint256",
          "name": "message_id",
          "type": "uint256"
        }
      ],
      "name": "getReplyIDs",
      "outputs": [
        {
          "internalType": "uint256[]",
          "name": "",
          "type": "uint256[]"
        }
      ],
      "stateMutability": "view",
      "type": "function"
    },
    {
      "inputs": [],
      "name": "get_all_daos",
      "outputs": [
        {
          "internalType": "string[]",
          "name": "",
          "type": "string[]"
        }
      ],
      "stateMutability": "view",
      "type": "function"
    },
    {
      "inputs": [],
      "name": "get_all_goals",
      "outputs": [
        {
          "internalType": "string[]",
          "name": "",
          "type": "string[]"
        }
      ],
      "stateMutability": "view",
      "type": "function"
    },
    {
      "inputs": [
        {
          "internalType": "uint256",
          "name": "_dao_id",
          "type": "uint256"
        }
      ],
      "name": "get_all_goals_by_dao_id",
      "outputs": [
        {
          "internalType": "string[]",
          "name": "",
          "type": "string[]"
        }
      ],
      "stateMutability": "view",
      "type": "function"
    },
    {
      "inputs": [],
      "name": "get_all_ideas",
      "outputs": [
        {
          "internalType": "string[]",
          "name": "",
          "type": "string[]"
        }
      ],
      "stateMutability": "view",
      "type": "function"
    },
    {
      "inputs": [
        {
          "internalType": "uint256",
          "name": "_goal_id",
          "type": "uint256"
        }
      ],
      "name": "get_all_ideas_by_goal_id",
      "outputs": [
        {
          "internalType": "string[]",
          "name": "",
          "type": "string[]"
        }
      ],
      "stateMutability": "view",
      "type": "function"
    },
    {
      "inputs": [
        {
          "internalType": "string",
          "name": "_goal_uri",
          "type": "string"
        }
      ],
      "name": "get_goal_id_by_goal_uri",
      "outputs": [
        {
          "internalType": "uint256",
          "name": "",
          "type": "uint256"
        }
      ],
      "stateMutability": "view",
      "type": "function"
    },
    {
      "inputs": [
        {
          "internalType": "string",
          "name": "_ideas_uri",
          "type": "string"
        }
      ],
      "name": "get_goal_id_from_ideas_uri",
      "outputs": [
        {
          "internalType": "uint256",
          "name": "",
          "type": "uint256"
        }
      ],
      "stateMutability": "view",
      "type": "function"
    },
    {
      "inputs": [
        {
          "internalType": "string",
          "name": "_ideas_uri",
          "type": "string"
        }
      ],
      "name": "get_ideas_id_by_ideas_uri",
      "outputs": [
        {
          "internalType": "uint256",
          "name": "",
          "type": "uint256"
        }
      ],
      "stateMutability": "view",
      "type": "function"
    },
    {
      "inputs": [
        {
          "internalType": "uint256",
          "name": "_goal_id",
          "type": "uint256"
        },
        {
          "internalType": "uint256",
          "name": "_ideas_id",
          "type": "uint256"
        }
      ],
      "name": "get_ideas_votes_from_goal",
      "outputs": [
        {
          "internalType": "string[]",
          "name": "",
          "type": "string[]"
        }
      ],
      "stateMutability": "view",
      "type": "function"
    },
    {
      "inputs": [
        {
          "internalType": "uint256",
          "name": "_goal_id",
          "type": "uint256"
        }
      ],
      "name": "goal_uri",
      "outputs": [
        {
          "internalType": "string",
          "name": "",
          "type": "string"
        }
      ],
      "stateMutability": "view",
      "type": "function"
    },
    {
      "inputs": [
        {
          "internalType": "uint256",
          "name": "_ideas_id",
          "type": "uint256"
        }
      ],
      "name": "ideas_uri",
      "outputs": [
        {
          "internalType": "string",
          "name": "",
          "type": "string"
        }
      ],
      "stateMutability": "view",
      "type": "function"
    },
    {
      "inputs": [
        {
          "internalType": "string",
          "name": "wallet",
          "type": "string"
        }
      ],
      "name": "is_person_joined",
      "outputs": [
        {
          "internalType": "bool",
          "name": "",
          "type": "bool"
        }
      ],
      "stateMutability": "view",
      "type": "function"
    },
    {
      "inputs": [
        {
          "internalType": "uint256",
          "name": "dao_id",
          "type": "uint256"
        },
        {
          "internalType": "string",
          "name": "person",
          "type": "string"
        }
      ],
      "name": "join_community",
      "outputs": [],
      "stateMutability": "nonpayable",
      "type": "function"
    },
    {
      "inputs": [],
      "name": "reset_all",
      "outputs": [],
      "stateMutability": "nonpayable",
      "type": "function"
    },
    {
      "inputs": [
        {
          "internalType": "uint256",
          "name": "_ideas_id",
          "type": "uint256"
        },
        {
          "internalType": "string",
          "name": "_message",
          "type": "string"
        },
        {
          "internalType": "string",
          "name": "_sender",
          "type": "string"
        }
      ],
      "name": "sendMsg",
      "outputs": [
        {
          "internalType": "uint256",
          "name": "",
          "type": "uint256"
        }
      ],
      "stateMutability": "nonpayable",
      "type": "function"
    },
    {
      "inputs": [
        {
          "internalType": "uint256",
          "name": "_message_id",
          "type": "uint256"
        },
        {
          "internalType": "uint256",
          "name": "_ideas_id",
          "type": "uint256"
        },
        {
          "internalType": "string",
          "name": "_wallet",
          "type": "string"
        },
        {
          "internalType": "string",
          "name": "msg_type",
          "type": "string"
        }
      ],
      "name": "sendReadMsg",
      "outputs": [
        {
          "internalType": "uint256",
          "name": "",
          "type": "uint256"
        }
      ],
      "stateMutability": "nonpayable",
      "type": "function"
    },
    {
      "inputs": [
        {
          "internalType": "uint256",
          "name": "_message_id",
          "type": "uint256"
        },
        {
          "internalType": "string",
          "name": "_reply",
          "type": "string"
        },
        {
          "internalType": "uint256",
          "name": "ideas_id",
          "type": "uint256"
        },
        {
          "internalType": "string",
          "name": "_wallet",
          "type": "string"
        }
      ],
      "name": "sendReply",
      "outputs": [
        {
          "internalType": "uint256",
          "name": "",
          "type": "uint256"
        }
      ],
      "stateMutability": "nonpayable",
      "type": "function"
    },
    {
      "inputs": [
        {
          "internalType": "uint256",
          "name": "_dao_id",
          "type": "uint256"
        },
        {
          "internalType": "string",
          "name": "_dao_wallet",
          "type": "string"
        },
        {
          "internalType": "string",
          "name": "_dao_uri",
          "type": "string"
        }
      ],
      "name": "set_dao",
      "outputs": [],
      "stateMutability": "nonpayable",
      "type": "function"
    },
    {
      "inputs": [
        {
          "internalType": "uint256",
          "name": "_goal_id",
          "type": "uint256"
        },
        {
          "internalType": "string",
          "name": "_goal_uri",
          "type": "string"
        }
      ],
      "name": "set_goal",
      "outputs": [],
      "stateMutability": "nonpayable",
      "type": "function"
    },
    {
      "inputs": [
        {
          "internalType": "uint256",
          "name": "_ideas_id",
          "type": "uint256"
        },
        {
          "internalType": "string",
          "name": "_ideas_uri",
          "type": "string"
        }
      ],
      "name": "set_ideas",
      "outputs": [],
      "stateMutability": "nonpayable",
      "type": "function"
    },
    {
      "inputs": [
        {
          "internalType": "uint256",
          "name": "_dao_id",
          "type": "uint256"
        },
        {
          "internalType": "string",
          "name": "_template",
          "type": "string"
        }
      ],
      "name": "update_template",
      "outputs": [],
      "stateMutability": "nonpayable",
      "type": "function"
    }
  ],
  "bytecode": "0x608060405234801561001057600080fd5b50615166806100206000396000f3fe608060405234801561001057600080fd5b50600436106103425760003560e01c8063812fae1f116101b8578063b527d45e11610104578063d3791b20116100a2578063ec2458021161007c578063ec24580214610b26578063ec39925514610b44578063eca7f5fe14610b74578063ff4a37ef14610ba457610342565b8063d3791b2014610abc578063e32acc1a14610ada578063e3863cef14610b0a57610342565b8063c29595c5116100de578063c29595c514610a1f578063ca013f1714610a3b578063cace8d4614610a59578063cd23080914610a8c57610342565b8063b527d45e146109b2578063c04e7430146109e5578063c04fe97814610a0157610342565b80639077007d11610171578063a1ca91781161014b578063a1ca91781461092a578063aa2bf5d31461095a578063aa4cdf2a14610978578063b16060a6146109a857610342565b80639077007d146108b657806397ee7606146108d45780639f9ff54b146108f257610342565b8063812fae1f146107be57806382fcc732146107ee57806387633eb21461081e578063881de8581461083a5780638c59143d146108565780638d3d25951461088657610342565b80633f87a2f4116102925780636ecda4ee116102305780637bbd582d1161020a5780637bbd582d1461070d5780637f2035d41461072b5780637fc543ec1461075c578063803f5b9f1461078e57610342565b80636ecda4ee1461067d57806377935be7146106ad57806377b2ec23146106dd57610342565b80634a797bd71161026c5780634a797bd7146105e35780634be7adb5146106015780635132f0c7146106315780635d907da11461064d57610342565b80633f87a2f41461054e578063468d0c8014610581578063494ce295146105b357610342565b80631b592aeb116102ff57806327a568b9116102d957806327a568b91461049d57806329b56f60146104cf578063330b8f26146104ed5780633f50602f1461051e57610342565b80631b592aeb1461041d5780631ba44c4c1461043b5780631e9ac9f51461046d57610342565b80630c90f09d14610347578063109ac970146103515780631171b62114610381578063131d44f21461039f57806313bf4cea146103cf57806318426b46146103ed575b600080fd5b61034f610bd6565b005b61036b600480360381019061036691906132ab565b610cb6565b604051610378919061342a565b60405180910390f35b610389610e25565b604051610396919061345b565b60405180910390f35b6103b960048036038101906103b491906132ab565b610e2b565b6040516103c6919061342a565b60405180910390f35b6103d7610f9a565b6040516103e4919061345b565b60405180910390f35b61040760048036038101906104029190613691565b610fa0565b604051610414919061345b565b60405180910390f35b6104256110c0565b604051610432919061345b565b60405180910390f35b610455600480360381019061045091906132ab565b6110c6565b60405161046493929190613796565b60405180910390f35b610487600480360381019061048291906137d4565b611178565b604051610494919061345b565b60405180910390f35b6104b760048036038101906104b291906132ab565b6111e9565b6040516104c69392919061381d565b60405180910390f35b6104d76113ab565b6040516104e4919061342a565b60405180910390f35b610507600480360381019061050291906132ab565b6114e6565b604051610515929190613869565b60405180910390f35b61053860048036038101906105339190613899565b611592565b604051610545919061345b565b60405180910390f35b610568600480360381019061056391906132ab565b61166d565b6040516105789493929190613924565b60405180910390f35b61059b600480360381019061059691906132ab565b611725565b6040516105aa93929190613970565b60405180910390f35b6105cd60048036038101906105c891906139ae565b6117d7565b6040516105da919061345b565b60405180910390f35b6105eb6118a7565b6040516105f8919061345b565b60405180910390f35b61061b60048036038101906106169190613a4d565b6118ad565b604051610628919061342a565b60405180910390f35b61064b60048036038101906106469190613a8d565b611a3f565b005b610667600480360381019061066291906132ab565b611ae2565b6040516106749190613ae9565b60405180910390f35b610697600480360381019061069291906132ab565b611b8a565b6040516106a49190613ae9565b60405180910390f35b6106c760048036038101906106c291906137d4565b611c2a565b6040516106d4919061345b565b60405180910390f35b6106f760048036038101906106f29190613b0b565b611c58565b604051610704919061345b565b60405180910390f35b610715611d05565b604051610722919061345b565b60405180910390f35b610745600480360381019061074091906132ab565b611d0b565b604051610753929190613869565b60405180910390f35b610776600480360381019061077191906132ab565b611db7565b60405161078593929190613970565b60405180910390f35b6107a860048036038101906107a391906132ab565b611e69565b6040516107b59190613c54565b60405180910390f35b6107d860048036038101906107d391906132ab565b611f4c565b6040516107e59190613c54565b60405180910390f35b61080860048036038101906108039190613c76565b61202f565b604051610815919061345b565b60405180910390f35b61083860048036038101906108339190613a8d565b6120ec565b005b610854600480360381019061084f9190613899565b612111565b005b610870600480360381019061086b9190613ce5565b61215e565b60405161087d919061345b565b60405180910390f35b6108a0600480360381019061089b91906132ab565b6121fe565b6040516108ad9190613ae9565b60405180910390f35b6108be6122a6565b6040516108cb919061345b565b60405180910390f35b6108dc6122ac565b6040516108e9919061342a565b60405180910390f35b61090c600480360381019061090791906137d4565b6123e7565b60405161092199989796959493929190613d9f565b60405180910390f35b610944600480360381019061093f91906137d4565b61253b565b604051610951919061345b565b60405180910390f35b6109626125ac565b60405161096f919061345b565b60405180910390f35b610992600480360381019061098d91906137d4565b6125b2565b60405161099f919061345b565b60405180910390f35b6109b0612639565b005b6109cc60048036038101906109c791906132ab565b6128eb565b6040516109dc9493929190613e33565b60405180910390f35b6109ff60048036038101906109fa9190613a8d565b612a2b565b005b610a09612a53565b604051610a16919061342a565b60405180910390f35b610a396004803603810190610a349190613a8d565b612b8d565b005b610a43612bb5565b604051610a50919061345b565b60405180910390f35b610a736004803603810190610a6e91906132ab565b612bbb565b604051610a839493929190613e33565b60405180910390f35b610aa66004803603810190610aa19190613a8d565b612cfb565b604051610ab39190613e86565b60405180910390f35b610ac4612d8c565b604051610ad1919061345b565b60405180910390f35b610af46004803603810190610aef91906132ab565b612d92565b604051610b019190613ae9565b60405180910390f35b610b246004803603810190610b1f9190613c76565b612e3a565b005b610b2e612f50565b604051610b3b919061345b565b60405180910390f35b610b5e6004803603810190610b599190613ea1565b612f56565b604051610b6b919061345b565b60405180910390f35b610b8e6004803603810190610b8991906137d4565b613080565b604051610b9b9190613e86565b60405180910390f35b610bbe6004803603810190610bb991906132ab565b6130f2565b604051610bcd93929190613796565b60405180910390f35b610c2f6040518060600160405280602a815260200161440e602a91396040518061030001604052806102c381526020016147b16102c391396040518061040001604052806103ca8152602001614a746103ca9139612f56565b50610c6f6040518061032001604052806102f38152602001614e3e6102f3913960006040518060600160405280602a815260200161440e602a9139611c58565b506060610cb2604051806103a00160405280610379815260200161443861037991396000836040518060600160405280602a815260200161440e602a9139610fa0565b5050565b6060600060025467ffffffffffffffff811115610cd657610cd5613480565b5b604051908082528060200260200182016040528015610d0957816020015b6060815260200190600190039081610cf45790505b509050600080600090505b600254811015610e1a5784600d60008381526020019081526020016000206000015403610e0757600d60008281526020019081526020016000206001018054610d5c90613f77565b80601f0160208091040260200160405190810160405280929190818152602001828054610d8890613f77565b8015610dd55780601f10610daa57610100808354040283529160200191610dd5565b820191906000526020600020905b815481529060010190602001808311610db857829003601f168201915b5050505050838381518110610ded57610dec613fa8565b5b60200260200101819052508180610e0390614006565b9250505b8080610e1290614006565b915050610d14565b508192505050919050565b60045481565b6060600060035467ffffffffffffffff811115610e4b57610e4a613480565b5b604051908082528060200260200182016040528015610e7e57816020015b6060815260200190600190039081610e695790505b509050600080600090505b600354811015610f8f5784600e60008381526020019081526020016000206000015403610f6e57600e60008281526020019081526020016000206001018054610ed190613f77565b80601f0160208091040260200160405190810160405280929190818152602001828054610efd90613f77565b8015610f4a5780601f10610f1f57610100808354040283529160200191610f4a565b820191906000526020600020905b815481529060010190602001808311610f2d57829003601f168201915b5050505050838381518110610f6257610f61613fa8565b5b60200260200101819052505b8180610f7990614006565b9250508080610f8790614006565b915050610e89565b508192505050919050565b60025481565b600060405180606001604052808581526020018681526020016000815250600e60006003548152602001908152602001600020600082015181600001556020820151816001019081610ff291906141fa565b506040820151816002015590505060016016836040516110129190614308565b908152602001604051809103902060010160036101000a81548160ff0219169083151502179055506003600081548092919061104d90614006565b919050555060005b83518110156110b25761108760035460055486848151811061107a57611079613fa8565b5b60200260200101516131a4565b6005600081548092919061109a90614006565b919050555080806110aa90614006565b915050611055565b506003549050949350505050565b60055481565b60126020528060005260406000206000915090508060000154908060010154908060020180546110f590613f77565b80601f016020809104026020016040519081016040528092919081815260200182805461112190613f77565b801561116e5780601f106111435761010080835404028352916020019161116e565b820191906000526020600020905b81548152906001019060200180831161115157829003601f168201915b5050505050905083565b600080600090505b6002548110156111de578280519060200120600d60008381526020019081526020016000206001016040516111b591906143c2565b6040518091039020036111cb57809150506111e4565b80806111d690614006565b915050611180565b50600090505b919050565b600a60205280600052604060002060009150905080600001805461120c90613f77565b80601f016020809104026020016040519081016040528092919081815260200182805461123890613f77565b80156112855780601f1061125a57610100808354040283529160200191611285565b820191906000526020600020905b81548152906001019060200180831161126857829003601f168201915b50505050509080600101805461129a90613f77565b80601f01602080910402602001604051908101604052809291908181526020018280546112c690613f77565b80156113135780601f106112e857610100808354040283529160200191611313565b820191906000526020600020905b8154815290600101906020018083116112f657829003601f168201915b50505050509080600201805461132890613f77565b80601f016020809104026020016040519081016040528092919081815260200182805461135490613f77565b80156113a15780601f10611376576101008083540402835291602001916113a1565b820191906000526020600020905b81548152906001019060200180831161138457829003601f168201915b5050505050905083565b6060600060025467ffffffffffffffff8111156113cb576113ca613480565b5b6040519080825280602002602001820160405280156113fe57816020015b60608152602001906001900390816113e95790505b50905060005b6002548110156114de57600d6000828152602001908152602001600020600101805461142f90613f77565b80601f016020809104026020016040519081016040528092919081815260200182805461145b90613f77565b80156114a85780601f1061147d576101008083540402835291602001916114a8565b820191906000526020600020905b81548152906001019060200180831161148b57829003601f168201915b50505050508282815181106114c0576114bf613fa8565b5b602002602001018190525080806114d690614006565b915050611404565b508091505090565b600c60205280600052604060002060009150905080600001549080600101805461150f90613f77565b80601f016020809104026020016040519081016040528092919081815260200182805461153b90613f77565b80156115885780601f1061155d57610100808354040283529160200191611588565b820191906000526020600020905b81548152906001019060200180831161156b57829003601f168201915b5050505050905082565b600060016016836040516115a69190614308565b908152602001604051809103902060010160066101000a81548160ff02191690831515021790555060405180608001604052806007548152602001858152602001848152602001838152506013600060075481526020019081526020016000206000820151816000015560208201518160010155604082015181600201908161162f91906141fa565b50606082015181600301908161164591906141fa565b509050506007600081548092919061165c90614006565b919050555060075490509392505050565b60156020528060005260406000206000915090508060000154908060010154908060020154908060030180546116a290613f77565b80601f01602080910402602001604051908101604052809291908181526020018280546116ce90613f77565b801561171b5780601f106116f05761010080835404028352916020019161171b565b820191906000526020600020905b8154815290600101906020018083116116fe57829003601f168201915b5050505050905084565b600e60205280600052604060002060009150905080600001549080600101805461174e90613f77565b80601f016020809104026020016040519081016040528092919081815260200182805461177a90613f77565b80156117c75780601f1061179c576101008083540402835291602001916117c7565b820191906000526020600020905b8154815290600101906020018083116117aa57829003601f168201915b5050505050908060020154905083565b600060016016836040516117eb9190614308565b908152602001604051809103902060010160076101000a81548160ff0219169083151502179055506040518060800160405280600954815260200186815260200184815260200185815250601560006009548152602001908152602001600020600082015181600001556020820151816001015560408201518160020155606082015181600301908161187e91906141fa565b509050506009600081548092919061189590614006565b91905055506009549050949350505050565b60065481565b6060600060065467ffffffffffffffff8111156118cd576118cc613480565b5b60405190808252806020026020018201604052801561190057816020015b60608152602001906001900390816118eb5790505b509050600080600090505b600654811015611a335785601260008381526020019081526020016000206000015414801561194f5750846012600083815260200190815260200160002060010154145b15611a125760126000828152602001908152602001600020600201805461197590613f77565b80601f01602080910402602001604051908101604052809291908181526020018280546119a190613f77565b80156119ee5780601f106119c3576101008083540402835291602001916119ee565b820191906000526020600020905b8154815290600101906020018083116119d157829003601f168201915b5050505050838381518110611a0657611a05613fa8565b5b60200260200101819052505b8180611a1d90614006565b9250508080611a2b90614006565b91505061190b565b50819250505092915050565b6001601682604051611a519190614308565b908152602001604051809103902060010160016101000a81548160ff021916908315150217905550604051806040016040528083815260200182815250600c60006004548152602001908152602001600020600082015181600001556020820151816001019081611ac291906141fa565b5090505060046000815480929190611ad990614006565b91905055505050565b6060600a60008381526020019081526020016000206001018054611b0590613f77565b80601f0160208091040260200160405190810160405280929190818152602001828054611b3190613f77565b8015611b7e5780601f10611b5357610100808354040283529160200191611b7e565b820191906000526020600020905b815481529060010190602001808311611b6157829003601f168201915b50505050509050919050565b600b6020528060005260406000206000915090508054611ba990613f77565b80601f0160208091040260200160405190810160405280929190818152602001828054611bd590613f77565b8015611c225780601f10611bf757610100808354040283529160200191611c22565b820191906000526020600020905b815481529060010190602001808311611c0557829003601f168201915b505050505081565b600f818051602081018201805184825260208301602085012081835280955050505050506000915090505481565b6000604051806040016040528084815260200185815250600d60006002548152602001908152602001600020600082015181600001556020820151816001019081611ca391906141fa565b509050506001601683604051611cb99190614308565b908152602001604051809103902060010160026101000a81548160ff02191690831515021790555060026000815480929190611cf490614006565b919050555060025490509392505050565b60005481565b600d602052806000526040600020600091509050806000015490806001018054611d3490613f77565b80601f0160208091040260200160405190810160405280929190818152602001828054611d6090613f77565b8015611dad5780601f10611d8257610100808354040283529160200191611dad565b820191906000526020600020905b815481529060010190602001808311611d9057829003601f168201915b5050505050905082565b6010602052806000526040600020600091509050806000015490806001018054611de090613f77565b80601f0160208091040260200160405190810160405280929190818152602001828054611e0c90613f77565b8015611e595780601f10611e2e57610100808354040283529160200191611e59565b820191906000526020600020905b815481529060010190602001808311611e3c57829003601f168201915b5050505050908060020154905083565b6060600060075467ffffffffffffffff811115611e8957611e88613480565b5b604051908082528060200260200182016040528015611eb75781602001602082028036833780820191505090505b509050600080600090505b600754811015611f415784601360008381526020019081526020016000206001015403611f2e576013600082815260200190815260200160002060000154838381518110611f1357611f12613fa8565b5b6020026020010181815250508180611f2a90614006565b9250505b8080611f3990614006565b915050611ec2565b508192505050919050565b6060600060095467ffffffffffffffff811115611f6c57611f6b613480565b5b604051908082528060200260200182016040528015611f9a5781602001602082028036833780820191505090505b509050600080600090505b6009548110156120245784601560008381526020019081526020016000206001015403612011576015600082815260200190815260200160002060000154838381518110611ff657611ff5613fa8565b5b602002602001018181525050818061200d90614006565b9250505b808061201c90614006565b915050611fa5565b508192505050919050565b600060016016836040516120439190614308565b908152602001604051809103902060010160046101000a81548160ff021916908315150217905550604051806060016040528085815260200184815260200183815250601260006006548152602001908152602001600020600082015181600001556020820151816001015560408201518160020190816120c491906141fa565b50905050600660008154809291906120db90614006565b919050555060065490509392505050565b80600b6000848152602001908152602001600020908161210c91906141fa565b505050565b81600a6000858152602001908152602001600020600001908161213491906141fa565b5080600a6000858152602001908152602001600020600101908161215891906141fa565b50505050565b6000604051806080016040528086815260200185815260200184815260200183815250601460006008548152602001908152602001600020600082015181600001556020820151816001015560408201518160020190816121bf91906141fa565b5060608201518160030190816121d591906141fa565b50905050600860008154809291906121ec90614006565b91905055506008549050949350505050565b6060600e6000838152602001908152602001600020600101805461222190613f77565b80601f016020809104026020016040519081016040528092919081815260200182805461224d90613f77565b801561229a5780601f1061226f5761010080835404028352916020019161229a565b820191906000526020600020905b81548152906001019060200180831161227d57829003601f168201915b50505050509050919050565b60075481565b6060600060035467ffffffffffffffff8111156122cc576122cb613480565b5b6040519080825280602002602001820160405280156122ff57816020015b60608152602001906001900390816122ea5790505b50905060005b6003548110156123df57600e6000828152602001908152602001600020600101805461233090613f77565b80601f016020809104026020016040519081016040528092919081815260200182805461235c90613f77565b80156123a95780601f1061237e576101008083540402835291602001916123a9565b820191906000526020600020905b81548152906001019060200180831161238c57829003601f168201915b50505050508282815181106123c1576123c0613fa8565b5b602002602001018190525080806123d790614006565b915050612305565b508091505090565b60168180516020810182018051848252602083016020850120818352809550505050505060009150905080600001805461242090613f77565b80601f016020809104026020016040519081016040528092919081815260200182805461244c90613f77565b80156124995780601f1061246e57610100808354040283529160200191612499565b820191906000526020600020905b81548152906001019060200180831161247c57829003601f168201915b5050505050908060010160009054906101000a900460ff16908060010160019054906101000a900460ff16908060010160029054906101000a900460ff16908060010160039054906101000a900460ff16908060010160049054906101000a900460ff16908060010160059054906101000a900460ff16908060010160069054906101000a900460ff16908060010160079054906101000a900460ff16905089565b600080600090505b6003548110156125a1578280519060200120600e600083815260200190815260200160002060010160405161257891906143c2565b60405180910390200361258e57809150506125a7565b808061259990614006565b915050612543565b50600090505b919050565b60095481565b600080600090505b60035481101561262e578280519060200120600e60008381526020019081526020016000206001016040516125ef91906143c2565b60405180910390200361261b57600e600082815260200190815260200160002060000154915050612634565b808061262690614006565b9150506125ba565b50600090505b919050565b60005b60005481101561269f57600a60008281526020019081526020016000206000808201600061266a9190613204565b60018201600061267a9190613204565b60028201600061268a9190613204565b5050808061269790614006565b91505061263c565b5060005b6002548110156126ee57600d60008281526020019081526020016000206000808201600090556001820160006126d99190613204565b505080806126e690614006565b9150506126a3565b5060005b60035481101561274557600e60008281526020019081526020016000206000808201600090556001820160006127289190613204565b60028201600090555050808061273d90614006565b9150506126f2565b5060005b60025481101561279c576011600082815260200190815260200160002060008082016000905560018201600090556002820160006127879190613204565b5050808061279490614006565b915050612749565b5060005b600754811015612803576013600082815260200190815260200160002060008082016000905560018201600090556002820160006127de9190613204565b6003820160006127ee9190613204565b505080806127fb90614006565b9150506127a0565b5060005b60095481101561286257601560008281526020019081526020016000206000808201600090556001820160009055600282016000905560038201600061284d9190613204565b5050808061285a90614006565b915050612807565b5060005b6006548110156128b9576012600082815260200190815260200160002060008082016000905560018201600090556002820160006128a49190613204565b505080806128b190614006565b915050612866565b506000808190555060006002819055506000600381905550600060078190555060006009819055506000600681905550565b601360205280600052604060002060009150905080600001549080600101549080600201805461291a90613f77565b80601f016020809104026020016040519081016040528092919081815260200182805461294690613f77565b80156129935780601f1061296857610100808354040283529160200191612993565b820191906000526020600020905b81548152906001019060200180831161297657829003601f168201915b5050505050908060030180546129a890613f77565b80601f01602080910402602001604051908101604052809291908181526020018280546129d490613f77565b8015612a215780601f106129f657610100808354040283529160200191612a21565b820191906000526020600020905b815481529060010190602001808311612a0457829003601f168201915b5050505050905084565b80600e60008481526020019081526020016000206001019081612a4e91906141fa565b505050565b60606000805467ffffffffffffffff811115612a7257612a71613480565b5b604051908082528060200260200182016040528015612aa557816020015b6060815260200190600190039081612a905790505b50905060005b600054811015612b8557600a60008281526020019081526020016000206001018054612ad690613f77565b80601f0160208091040260200160405190810160405280929190818152602001828054612b0290613f77565b8015612b4f5780601f10612b2457610100808354040283529160200191612b4f565b820191906000526020600020905b815481529060010190602001808311612b3257829003601f168201915b5050505050828281518110612b6757612b66613fa8565b5b60200260200101819052508080612b7d90614006565b915050612aab565b508091505090565b80600d60008481526020019081526020016000206001019081612bb091906141fa565b505050565b60085481565b6014602052806000526040600020600091509050806000015490806001015490806002018054612bea90613f77565b80601f0160208091040260200160405190810160405280929190818152602001828054612c1690613f77565b8015612c635780601f10612c3857610100808354040283529160200191612c63565b820191906000526020600020905b815481529060010190602001808311612c4657829003601f168201915b505050505090806003018054612c7890613f77565b80601f0160208091040260200160405190810160405280929190818152602001828054612ca490613f77565b8015612cf15780601f10612cc657610100808354040283529160200191612cf1565b820191906000526020600020905b815481529060010190602001808311612cd457829003601f168201915b5050505050905084565b6000806000905060005b600854811015612d8157846014600083815260200190815260200160002060000154148015612d64575060146000828152602001908152602001600020600301604051612d5291906143c2565b60405180910390208480519060200120145b15612d6e57600191505b8080612d7990614006565b915050612d05565b508091505092915050565b60035481565b6060600d60008381526020019081526020016000206001018054612db590613f77565b80601f0160208091040260200160405190810160405280929190818152602001828054612de190613f77565b8015612e2e5780601f10612e0357610100808354040283529160200191612e2e565b820191906000526020600020905b815481529060010190602001808311612e1157829003601f168201915b50505050509050919050565b6001601682604051612e4c9190614308565b908152602001604051809103902060010160056101000a81548160ff02191690831515021790555081600e60008581526020019081526020016000206002016000828254612e9a91906143d9565b9250508190555081600f82604051612eb29190614308565b90815260200160405180910390206000828254612ecf91906143d9565b92505081905550604051806060016040528084815260200182815260200183815250601060006001548152602001908152602001600020600082015181600001556020820151816001019081612f2591906141fa565b506040820151816002015590505060016000815480929190612f4690614006565b9190505550505050565b60015481565b600060405180606001604052808581526020018481526020016040518060400160405280600581526020017f46616c7365000000000000000000000000000000000000000000000000000000815250815250600a6000805481526020019081526020016000206000820151816000019081612fd191906141fa565b506020820151816001019081612fe791906141fa565b506040820151816002019081612ffd91906141fa565b5090505081600b600080548152602001908152602001600020908161302291906141fa565b5060016016856040516130359190614308565b908152602001604051809103902060010160006101000a81548160ff02191690831515021790555060008081548092919061306f90614006565b919050555060005490509392505050565b600080600090505b6004548110156130e7578280519060200120600c60008381526020019081526020016000206001016040516130bd91906143c2565b6040518091039020036130d45760019150506130ed565b80806130df90614006565b915050613088565b50600090505b919050565b601160205280600052604060002060009150905080600001549080600101549080600201805461312190613f77565b80601f016020809104026020016040519081016040528092919081815260200182805461314d90613f77565b801561319a5780601f1061316f5761010080835404028352916020019161319a565b820191906000526020600020905b81548152906001019060200180831161317d57829003601f168201915b5050505050905083565b60405180606001604052808481526020018381526020018281525060116000848152602001908152602001600020600082015181600001556020820151816001015560408201518160020190816131fb91906141fa565b50905050505050565b50805461321090613f77565b6000825580601f106132225750613241565b601f0160209004906000526020600020908101906132409190613244565b5b50565b5b8082111561325d576000816000905550600101613245565b5090565b6000604051905090565b600080fd5b600080fd5b6000819050919050565b61328881613275565b811461329357600080fd5b50565b6000813590506132a58161327f565b92915050565b6000602082840312156132c1576132c061326b565b5b60006132cf84828501613296565b91505092915050565b600081519050919050565b600082825260208201905092915050565b6000819050602082019050919050565b600081519050919050565b600082825260208201905092915050565b60005b8381101561333e578082015181840152602081019050613323565b60008484015250505050565b6000601f19601f8301169050919050565b600061336682613304565b613370818561330f565b9350613380818560208601613320565b6133898161334a565b840191505092915050565b60006133a0838361335b565b905092915050565b6000602082019050919050565b60006133c0826132d8565b6133ca81856132e3565b9350836020820285016133dc856132f4565b8060005b8581101561341857848403895281516133f98582613394565b9450613404836133a8565b925060208a019950506001810190506133e0565b50829750879550505050505092915050565b6000602082019050818103600083015261344481846133b5565b905092915050565b61345581613275565b82525050565b6000602082019050613470600083018461344c565b92915050565b600080fd5b600080fd5b7f4e487b7100000000000000000000000000000000000000000000000000000000600052604160045260246000fd5b6134b88261334a565b810181811067ffffffffffffffff821117156134d7576134d6613480565b5b80604052505050565b60006134ea613261565b90506134f682826134af565b919050565b600067ffffffffffffffff82111561351657613515613480565b5b61351f8261334a565b9050602081019050919050565b82818337600083830152505050565b600061354e613549846134fb565b6134e0565b90508281526020810184848401111561356a5761356961347b565b5b61357584828561352c565b509392505050565b600082601f83011261359257613591613476565b5b81356135a284826020860161353b565b91505092915050565b600067ffffffffffffffff8211156135c6576135c5613480565b5b602082029050602081019050919050565b600080fd5b60006135ef6135ea846135ab565b6134e0565b90508083825260208201905060208402830185811115613612576136116135d7565b5b835b8181101561365957803567ffffffffffffffff81111561363757613636613476565b5b808601613644898261357d565b85526020850194505050602081019050613614565b5050509392505050565b600082601f83011261367857613677613476565b5b81356136888482602086016135dc565b91505092915050565b600080600080608085870312156136ab576136aa61326b565b5b600085013567ffffffffffffffff8111156136c9576136c8613270565b5b6136d58782880161357d565b94505060206136e687828801613296565b935050604085013567ffffffffffffffff81111561370757613706613270565b5b61371387828801613663565b925050606085013567ffffffffffffffff81111561373457613733613270565b5b6137408782880161357d565b91505092959194509250565b600082825260208201905092915050565b600061376882613304565b613772818561374c565b9350613782818560208601613320565b61378b8161334a565b840191505092915050565b60006060820190506137ab600083018661344c565b6137b8602083018561344c565b81810360408301526137ca818461375d565b9050949350505050565b6000602082840312156137ea576137e961326b565b5b600082013567ffffffffffffffff81111561380857613807613270565b5b6138148482850161357d565b91505092915050565b60006060820190508181036000830152613837818661375d565b9050818103602083015261384b818561375d565b9050818103604083015261385f818461375d565b9050949350505050565b600060408201905061387e600083018561344c565b8181036020830152613890818461375d565b90509392505050565b6000806000606084860312156138b2576138b161326b565b5b60006138c086828701613296565b935050602084013567ffffffffffffffff8111156138e1576138e0613270565b5b6138ed8682870161357d565b925050604084013567ffffffffffffffff81111561390e5761390d613270565b5b61391a8682870161357d565b9150509250925092565b6000608082019050613939600083018761344c565b613946602083018661344c565b613953604083018561344c565b8181036060830152613965818461375d565b905095945050505050565b6000606082019050613985600083018661344c565b8181036020830152613997818561375d565b90506139a6604083018461344c565b949350505050565b600080600080608085870312156139c8576139c761326b565b5b60006139d687828801613296565b945050602085013567ffffffffffffffff8111156139f7576139f6613270565b5b613a038782880161357d565b9350506040613a1487828801613296565b925050606085013567ffffffffffffffff811115613a3557613a34613270565b5b613a418782880161357d565b91505092959194509250565b60008060408385031215613a6457613a6361326b565b5b6000613a7285828601613296565b9250506020613a8385828601613296565b9150509250929050565b60008060408385031215613aa457613aa361326b565b5b6000613ab285828601613296565b925050602083013567ffffffffffffffff811115613ad357613ad2613270565b5b613adf8582860161357d565b9150509250929050565b60006020820190508181036000830152613b03818461375d565b905092915050565b600080600060608486031215613b2457613b2361326b565b5b600084013567ffffffffffffffff811115613b4257613b41613270565b5b613b4e8682870161357d565b9350506020613b5f86828701613296565b925050604084013567ffffffffffffffff811115613b8057613b7f613270565b5b613b8c8682870161357d565b9150509250925092565b600081519050919050565b600082825260208201905092915050565b6000819050602082019050919050565b613bcb81613275565b82525050565b6000613bdd8383613bc2565b60208301905092915050565b6000602082019050919050565b6000613c0182613b96565b613c0b8185613ba1565b9350613c1683613bb2565b8060005b83811015613c47578151613c2e8882613bd1565b9750613c3983613be9565b925050600181019050613c1a565b5085935050505092915050565b60006020820190508181036000830152613c6e8184613bf6565b905092915050565b600080600060608486031215613c8f57613c8e61326b565b5b6000613c9d86828701613296565b9350506020613cae86828701613296565b925050604084013567ffffffffffffffff811115613ccf57613cce613270565b5b613cdb8682870161357d565b9150509250925092565b60008060008060808587031215613cff57613cfe61326b565b5b6000613d0d87828801613296565b9450506020613d1e87828801613296565b935050604085013567ffffffffffffffff811115613d3f57613d3e613270565b5b613d4b8782880161357d565b925050606085013567ffffffffffffffff811115613d6c57613d6b613270565b5b613d788782880161357d565b91505092959194509250565b60008115159050919050565b613d9981613d84565b82525050565b6000610120820190508181036000830152613dba818c61375d565b9050613dc9602083018b613d90565b613dd6604083018a613d90565b613de36060830189613d90565b613df06080830188613d90565b613dfd60a0830187613d90565b613e0a60c0830186613d90565b613e1760e0830185613d90565b613e25610100830184613d90565b9a9950505050505050505050565b6000608082019050613e48600083018761344c565b613e55602083018661344c565b8181036040830152613e67818561375d565b90508181036060830152613e7b818461375d565b905095945050505050565b6000602082019050613e9b6000830184613d90565b92915050565b600080600060608486031215613eba57613eb961326b565b5b600084013567ffffffffffffffff811115613ed857613ed7613270565b5b613ee48682870161357d565b935050602084013567ffffffffffffffff811115613f0557613f04613270565b5b613f118682870161357d565b925050604084013567ffffffffffffffff811115613f3257613f31613270565b5b613f3e8682870161357d565b9150509250925092565b7f4e487b7100000000000000000000000000000000000000000000000000000000600052602260045260246000fd5b60006002820490506001821680613f8f57607f821691505b602082108103613fa257613fa1613f48565b5b50919050565b7f4e487b7100000000000000000000000000000000000000000000000000000000600052603260045260246000fd5b7f4e487b7100000000000000000000000000000000000000000000000000000000600052601160045260246000fd5b600061401182613275565b91507fffffffffffffffffffffffffffffffffffffffffffffffffffffffffffffffff820361404357614042613fd7565b5b600182019050919050565b60008190508160005260206000209050919050565b60006020601f8301049050919050565b600082821b905092915050565b6000600883026140b07fffffffffffffffffffffffffffffffffffffffffffffffffffffffffffffffff82614073565b6140ba8683614073565b95508019841693508086168417925050509392505050565b6000819050919050565b60006140f76140f26140ed84613275565b6140d2565b613275565b9050919050565b6000819050919050565b614111836140dc565b61412561411d826140fe565b848454614080565b825550505050565b600090565b61413a61412d565b614145818484614108565b505050565b5b818110156141695761415e600082614132565b60018101905061414b565b5050565b601f8211156141ae5761417f8161404e565b61418884614063565b81016020851015614197578190505b6141ab6141a385614063565b83018261414a565b50505b505050565b600082821c905092915050565b60006141d1600019846008026141b3565b1980831691505092915050565b60006141ea83836141c0565b9150826002028217905092915050565b61420382613304565b67ffffffffffffffff81111561421c5761421b613480565b5b6142268254613f77565b61423182828561416d565b600060209050601f8311600181146142645760008415614252578287015190505b61425c85826141de565b8655506142c4565b601f1984166142728661404e565b60005b8281101561429a57848901518255600182019150602085019450602081019050614275565b868310156142b757848901516142b3601f8916826141c0565b8355505b6001600288020188555050505b505050505050565b600081905092915050565b60006142e282613304565b6142ec81856142cc565b93506142fc818560208601613320565b80840191505092915050565b600061431482846142d7565b915081905092915050565b600081905092915050565b60008190508160005260206000209050919050565b6000815461434c81613f77565b614356818661431f565b945060018216600081146143715760018114614386576143b9565b60ff19831686528115158202860193506143b9565b61438f8561432a565b60005b838110156143b157815481890152600182019150602081019050614392565b838801955050505b50505092915050565b60006143ce828461433f565b915081905092915050565b60006143e482613275565b91506143ef83613275565b925082820190508082111561440757614406613fd7565b5b9291505056fe3078383662623664366531386335656561636131653833633165363136326363343333646363373061347b227469746c65223a224173736574204d65746164617461222c2274797065223a226f626a656374222c2270726f70657274696573223a7b225469746c65223a7b2274797065223a22737472696e67222c226465736372697074696f6e223a22536f6c61722070616e656c73206f6e2074686520436f6e73657175656e636573204e6f6e6120636f6d6d756e6974792063656e74657220227d2c224465736372697074696f6e223a7b2274797065223a22737472696e67222c226465736372697074696f6e223a2257652063616e20696e735c6e227d2c225374727563747572654c656674223a7b2274797065223a22737472696e67222c226465736372697074696f6e223a5b22526570726573656e74617469766573204265726c696e222c22436f6d6d756e697479222c224368696c6472656e225d7d2c225374727563747572655269676874223a7b2274797065223a22737472696e67222c226465736372697074696f6e223a5b22323025222c22373025222c22313025225d7d2c22516f75746174696f6e223a7b226c696e6b223a2268747470733a2f2f75706c6f61646966792e6e65742f353237336433353064666430303164312f71756f746174696f6e5f436f6e73657175656e6365735f4e6f6e615f636f6d6d756e6974795f63656e7465722e706466222c227072697a65223a222434382c3037312e3535227d2c2277616c6c6574223a7b2274797065223a22737472696e67222c226465736372697074696f6e223a22307844363062433062303063314438613731384642366644654463343436366337413131383038363863227d2c226c6f676f223a7b2274797065223a22737472696e67222c226465736372697074696f6e223a7b2275726c223a2268747470733a2f2f626166796265696634666b367477696b6b63796f70676c687070646f376464336c3334626d367165646a65336d78667465633565376234686535342e697066732e6e667473746f726167652e6c696e6b222c2274797065223a22696d6167652f706e67227d7d2c22616c6c46696c6573223a5b7b2275726c223a2268747470733a2f2f626166796265696634666b367477696b6b63796f70676c687070646f376464336c3334626d367165646a65336d78667465633565376234686535342e697066732e6e667473746f726167652e6c696e6b222c2274797065223a22696d6167652f706e67227d5d7d7d7b227469746c65223a224173736574204d65746164617461222c2274797065223a226f626a656374222c2270726f70657274696573223a7b225469746c65223a7b2274797065223a22737472696e67222c226465736372697074696f6e223a224c616b65204e6f6e612c204f726c616e646f205553227d2c224465736372697074696f6e223a7b2274797065223a22737472696e67222c226465736372697074696f6e223a22227d2c2253746172745f44617465223a7b2274797065223a22737472696e67222c226465736372697074696f6e223a22323032332d30382d31365431313a3134227d2c226c6f676f223a7b2274797065223a22737472696e67222c226465736372697074696f6e223a7b2275726c223a2268747470733a2f2f62616679626569636235797933366f63733479756c7068367a707837676773796567696e736a776e6674376d6c3763786f6a79777062736a7571342e697066732e6e667473746f726167652e6c696e6b222c2274797065223a22696d6167652f706e67227d7d2c2277616c6c6574223a7b2274797065223a22737472696e67222c226465736372697074696f6e223a22307838366262366436653138633565656163613165383363316536313632636334333364636337306134227d2c22537562735072696365223a7b2274797065223a226e756d626572222c226465736372697074696f6e223a22302e3035227d2c2274797065696d67223a7b2274797065223a22737472696e67222c226465736372697074696f6e223a2244616f227d2c22616c6c46696c6573223a5b7b2275726c223a2268747470733a2f2f62616679626569636235797933366f63733479756c7068367a707837676773796567696e736a776e6674376d6c3763786f6a79777062736a7571342e697066732e6e667473746f726167652e6c696e6b222c2274797065223a22696d6167652f706e67227d5d7d7d3c626f64793e3c6469762069643d2264616f2d636f6e7461696e6572223e203c64697620636c6173733d22666c657820666c65782d636f6c206761702d38223e3c696d672069643d2264616f2d696d61676522207372633d2268747470733a2f2f62616679626569636235797933366f63733479756c7068367a707837676773796567696e736a776e6674376d6c3763786f6a79777062736a7571342e697066732e6e667473746f726167652e6c696e6b222f3e3c2f6469763e3c6469762069643d22676f616c2d636f6e7461696e65722220636c6173733d22666c657820666c65782d636f6c206761702d38223e0a0a20203c2f6469763e3c2f6469763e3c2f6469763e3c2f626f64793e3c7374796c653e2a207b20626f782d73697a696e673a20626f726465722d626f783b207d20626f6479207b6d617267696e3a20303b7d2364616f2d7469746c657b77696474683a3738253b7d2369716f6b6a7b666c65782d646972656374696f6e3a726f772d726576657273653b646973706c61793a666c65783b7d2e70792d322e70782d342e6761702d322e746578742d6d6f6f6e2d31342e726f756e6465642d6d6f6f6e2d692d736d2e72656c61746976652e7a2d302e666c65782e6a7573746966792d63656e7465722e6974656d732d63656e7465722e666f6e742d6d656469756d2e6e6f2d756e6465726c696e652e6f766572666c6f772d68696464656e2e73656c6563742d6e6f6e652e6f75746c696e652d6e6f6e652e7472616e736974696f6e2e6475726174696f6e2d3230302e6163746976655c3a7363616c652d39302e666f6375732d76697369626c655c3a736861646f772d666f6375732e62746e2d7072696d6172792e6372656174652d676f616c2d626c6f636b2e7b706f736974696f6e3a72656c61746976653b72696768743a3070783b7d2e70792d322e70782d342e6761702d322e746578742d6d6f6f6e2d31342e726f756e6465642d6d6f6f6e2d692d736d2e7a2d302e666c65782e6a7573746966792d63656e7465722e6974656d732d63656e7465722e666f6e742d6d656469756d2e6e6f2d756e6465726c696e652e6f766572666c6f772d68696464656e2e73656c6563742d6e6f6e652e6f75746c696e652d6e6f6e652e7472616e736974696f6e2e6475726174696f6e2d3230302e6163746976655c3a7363616c652d39302e666f6375732d76697369626c655c3a736861646f772d666f6375732e62746e2d7072696d6172792e6372656174652d676f616c2d626c6f636b2e7b72696768743a313070783b706f736974696f6e3a6162736f6c7574653b7d3c2f7374796c653e7b227469746c65223a224173736574204d65746164617461222c2274797065223a226f626a656374222c2270726f70657274696573223a7b225469746c65223a7b2274797065223a22737472696e67222c226465736372697074696f6e223a2252656e657761626c6520656e65726779227d2c224465736372697074696f6e223a7b2274797065223a22737472696e67222c226465736372697074696f6e223a224f75722044414f206973207374617274696e672069742773206f776e2072656e657761626c6520656e6572677920636f6d70616e7920746861742064656c697665727320656e6572677920666f72207468652077686f6c6520636f6d6d756e697479227d2c22427564676574223a7b2274797065223a22737472696e67222c226465736372697074696f6e223a2224312c3030302c303030227d2c22456e645f44617465223a7b2274797065223a22737472696e67222c226465736372697074696f6e223a22323032332d30382d33315432323a3430227d2c2277616c6c6574223a7b2274797065223a22737472696e67222c226465736372697074696f6e223a22307838366262366436653138633565656163613165383363316536313632636334333364636337306134227d2c226c6f676f223a7b2274797065223a22737472696e67222c226465736372697074696f6e223a7b2275726c223a2268747470733a2f2f626166796265696335673478766a376d7972676b6236326c656e6c64376f72706c32687273706d7a6c7a6364627a70796f746333337471796770652e697066732e6e667473746f726167652e6c696e6b222c2274797065223a22696d6167652f6a706567227d7d2c22616c6c46696c6573223a5b7b2275726c223a2268747470733a2f2f626166796265696335673478766a376d7972676b6236326c656e6c64376f72706c32687273706d7a6c7a6364627a70796f746333337471796770652e697066732e6e667473746f726167652e6c696e6b222c2274797065223a22696d6167652f6a706567227d5d7d7da26469706673582212208f11e91535d2313c78817d4aec718593ca7d621721adbb15eba0c1567725920864736f6c63430008110033",
  "linkReferences": {},
  "deployedLinkReferences": {}
}