{
  "contractName": "Lottery",
  "abi": [
    {
      "inputs": [],
      "stateMutability": "nonpayable",
      "type": "constructor"
    },
    {
      "anonymous": false,
      "inputs": [
        {
          "indexed": false,
          "internalType": "uint256",
          "name": "randomNumber",
          "type": "uint256"
        },
        {
          "indexed": false,
          "internalType": "address",
          "name": "winner",
          "type": "address"
        }
      ],
      "name": "LotteryClosed",
      "type": "event"
    },
    {
      "inputs": [],
      "name": "lotteryClosed",
      "outputs": [
        {
          "internalType": "bool",
          "name": "",
          "type": "bool"
        }
      ],
      "stateMutability": "view",
      "type": "function"
    },
    {
      "inputs": [],
      "name": "owner",
      "outputs": [
        {
          "internalType": "address",
          "name": "",
          "type": "address"
        }
      ],
      "stateMutability": "view",
      "type": "function"
    },
    {
      "inputs": [
        {
          "internalType": "uint256",
          "name": "",
          "type": "uint256"
        }
      ],
      "name": "participants",
      "outputs": [
        {
          "internalType": "address",
          "name": "",
          "type": "address"
        }
      ],
      "stateMutability": "view",
      "type": "function"
    },
    {
      "inputs": [],
      "name": "randomNumber",
      "outputs": [
        {
          "internalType": "uint256",
          "name": "",
          "type": "uint256"
        }
      ],
      "stateMutability": "view",
      "type": "function"
    },
    {
      "inputs": [],
      "name": "winner",
      "outputs": [
        {
          "internalType": "address",
          "name": "",
          "type": "address"
        }
      ],
      "stateMutability": "view",
      "type": "function"
    },
    {
      "inputs": [],
      "name": "enterLottery",
      "outputs": [],
      "stateMutability": "nonpayable",
      "type": "function"
    },
    {
      "inputs": [],
      "name": "closeLottery",
      "outputs": [],
      "stateMutability": "nonpayable",
      "type": "function"
    },
    {
      "inputs": [],
      "name": "getParticipants",
      "outputs": [
        {
          "internalType": "address[]",
          "name": "",
          "type": "address[]"
        }
      ],
      "stateMutability": "view",
      "type": "function"
    },
    {
      "inputs": [
        {
          "internalType": "address",
          "name": "_address",
          "type": "address"
        }
      ],
      "name": "isParticipant",
      "outputs": [
        {
          "internalType": "bool",
          "name": "",
          "type": "bool"
        }
      ],
      "stateMutability": "view",
      "type": "function"
    }
  ],
  "bytecode": "0x608060405234801561001057600080fd5b50336000806101000a81548173ffffffffffffffffffffffffffffffffffffffff021916908373ffffffffffffffffffffffffffffffffffffffff1602179055506000600260006101000a81548160ff021916908315150217905550610cb68061007b6000396000f3fe608060405234801561001057600080fd5b50600436106100b0576000357c010000000000000000000000000000000000000000000000000000000090048063929066f511610083578063929066f51461012b578063c1af57851461015b578063ccbac9f514610165578063dfbf53ae14610183578063e433a584146101a1576100b0565b806335c1d349146100b55780635aa68ac0146100e55780636fd09816146101035780638da5cb5b1461010d575b600080fd5b6100cf60048036038101906100ca9190610714565b6101bf565b6040516100dc9190610782565b60405180910390f35b6100ed6101fe565b6040516100fa919061085b565b60405180910390f35b61010b61028c565b005b610115610485565b6040516101229190610782565b60405180910390f35b610145600480360381019061014091906108a9565b6104a9565b60405161015291906108f1565b60405180910390f35b610163610557565b005b61016d61069a565b60405161017a919061091b565b60405180910390f35b61018b6106a0565b6040516101989190610782565b60405180910390f35b6101a96106c6565b6040516101b691906108f1565b60405180910390f35b600181815481106101cf57600080fd5b906000526020600020016000915054906101000a900473ffffffffffffffffffffffffffffffffffffffff1681565b6060600180548060200260200160405190810160405280929190818152602001828054801561028257602002820191906000526020600020905b8160009054906101000a900473ffffffffffffffffffffffffffffffffffffffff1673ffffffffffffffffffffffffffffffffffffffff1681526020019060010190808311610238575b5050505050905090565b60008054906101000a900473ffffffffffffffffffffffffffffffffffffffff1673ffffffffffffffffffffffffffffffffffffffff163373ffffffffffffffffffffffffffffffffffffffff161461031a576040517f08c379a0000000000000000000000000000000000000000000000000000000008152600401610311906109b9565b60405180910390fd5b600060018054905011610362576040517f08c379a000000000000000000000000000000000000000000000000000000000815260040161035990610a25565b60405180910390fd5b6001805490506001436103759190610a74565b40600190046103849190610ad7565b6003819055506001600354815481106103a05761039f610b08565b5b9060005260206000200160009054906101000a900473ffffffffffffffffffffffffffffffffffffffff16600460006101000a81548173ffffffffffffffffffffffffffffffffffffffff021916908373ffffffffffffffffffffffffffffffffffffffff1602179055506001600260006101000a81548160ff0219169083151502179055507fe983b889c5b0419f1fb6aded8b9552b95691be88059a486820b5c342ebf974f4600354600460009054906101000a900473ffffffffffffffffffffffffffffffffffffffff1660405161047b929190610b37565b60405180910390a1565b60008054906101000a900473ffffffffffffffffffffffffffffffffffffffff1681565b600080600090505b60018054905081101561054c578273ffffffffffffffffffffffffffffffffffffffff16600182815481106104e9576104e8610b08565b5b9060005260206000200160009054906101000a900473ffffffffffffffffffffffffffffffffffffffff1673ffffffffffffffffffffffffffffffffffffffff1603610539576001915050610552565b808061054490610b60565b9150506104b1565b50600090505b919050565b600260009054906101000a900460ff16156105a7576040517f08c379a000000000000000000000000000000000000000000000000000000000815260040161059e90610bf4565b60405180910390fd5b60008054906101000a900473ffffffffffffffffffffffffffffffffffffffff1673ffffffffffffffffffffffffffffffffffffffff163373ffffffffffffffffffffffffffffffffffffffff1603610635576040517f08c379a000000000000000000000000000000000000000000000000000000000815260040161062c90610c60565b60405180910390fd5b6001339080600181540180825580915050600190039060005260206000200160009091909190916101000a81548173ffffffffffffffffffffffffffffffffffffffff021916908373ffffffffffffffffffffffffffffffffffffffff160217905550565b60035481565b600460009054906101000a900473ffffffffffffffffffffffffffffffffffffffff1681565b600260009054906101000a900460ff1681565b600080fd5b6000819050919050565b6106f1816106de565b81146106fc57600080fd5b50565b60008135905061070e816106e8565b92915050565b60006020828403121561072a576107296106d9565b5b6000610738848285016106ff565b91505092915050565b600073ffffffffffffffffffffffffffffffffffffffff82169050919050565b600061076c82610741565b9050919050565b61077c81610761565b82525050565b60006020820190506107976000830184610773565b92915050565b600081519050919050565b600082825260208201905092915050565b6000819050602082019050919050565b6107d281610761565b82525050565b60006107e483836107c9565b60208301905092915050565b6000602082019050919050565b60006108088261079d565b61081281856107a8565b935061081d836107b9565b8060005b8381101561084e57815161083588826107d8565b9750610840836107f0565b925050600181019050610821565b5085935050505092915050565b6000602082019050818103600083015261087581846107fd565b905092915050565b61088681610761565b811461089157600080fd5b50565b6000813590506108a38161087d565b92915050565b6000602082840312156108bf576108be6106d9565b5b60006108cd84828501610894565b91505092915050565b60008115159050919050565b6108eb816108d6565b82525050565b600060208201905061090660008301846108e2565b92915050565b610915816106de565b82525050565b6000602082019050610930600083018461090c565b92915050565b600082825260208201905092915050565b7f4f6e6c79206f776e65722063616e2063616c6c20746869732066756e6374696f60008201527f6e00000000000000000000000000000000000000000000000000000000000000602082015250565b60006109a3602183610936565b91506109ae82610947565b604082019050919050565b600060208201905081810360008301526109d281610996565b9050919050565b7f4e6f207061727469636970616e74730000000000000000000000000000000000600082015250565b6000610a0f600f83610936565b9150610a1a826109d9565b602082019050919050565b60006020820190508181036000830152610a3e81610a02565b9050919050565b7f4e487b7100000000000000000000000000000000000000000000000000000000600052601160045260246000fd5b6000610a7f826106de565b9150610a8a836106de565b9250828203905081811115610aa257610aa1610a45565b5b92915050565b7f4e487b7100000000000000000000000000000000000000000000000000000000600052601260045260246000fd5b6000610ae2826106de565b9150610aed836106de565b925082610afd57610afc610aa8565b5b828206905092915050565b7f4e487b7100000000000000000000000000000000000000000000000000000000600052603260045260246000fd5b6000604082019050610b4c600083018561090c565b610b596020830184610773565b9392505050565b6000610b6b826106de565b91507fffffffffffffffffffffffffffffffffffffffffffffffffffffffffffffffff8203610b9d57610b9c610a45565b5b600182019050919050565b7f4c6f747465727920697320636c6f736564000000000000000000000000000000600082015250565b6000610bde601183610936565b9150610be982610ba8565b602082019050919050565b60006020820190508181036000830152610c0d81610bd1565b9050919050565b7f4f776e65722063616e6e6f742070617274696369706174650000000000000000600082015250565b6000610c4a601883610936565b9150610c5582610c14565b602082019050919050565b60006020820190508181036000830152610c7981610c3d565b905091905056fea2646970667358221220017d3b6c9d31fc95d989ed94019c22ed37b1f4a3ec29da643f6f9f8f54a8792a64736f6c63430008150033",
  "immutableReferences": {},
  "source": "// SPDX-License-Identifier: MIT\r\npragma solidity >= 0.4.15 < 0.9.0;\r\n\r\n//  SafeMath \r\n// import \"@openzeppelin/contracts/utils/math/SafeMath.sol\";\r\nimport \"./SafeMath.sol\";\r\n\r\ncontract Lottery {\r\n    using SafeMath for uint256;\r\n\r\n    address public owner;\r\n    address[] public participants;\r\n    bool public lotteryClosed;\r\n    uint256 public randomNumber;\r\n    address public winner;\r\n\r\n    event LotteryClosed(uint256 randomNumber, address winner);\r\n\r\n    modifier onlyOwner() {\r\n        require(msg.sender == owner, \"Only owner can call this function\");\r\n        _;\r\n    }\r\n\r\n    modifier lotteryOpen() {\r\n        require(!lotteryClosed, \"Lottery is closed\");\r\n        _;\r\n    }\r\n\r\n    modifier hasParticipants() {\r\n        require(participants.length > 0, \"No participants\");\r\n        _;\r\n    }\r\n\r\n    constructor() {\r\n        owner = msg.sender;\r\n        lotteryClosed = false;\r\n    }\r\n\r\n    function enterLottery() external lotteryOpen {\r\n        require(msg.sender != owner, \"Owner cannot participate\");\r\n        participants.push(msg.sender);\r\n    }\r\n\r\n    function closeLottery() external onlyOwner hasParticipants {\r\n        // \r\n        randomNumber =\r\n            uint256(blockhash(block.number - 1)) %\r\n            participants.length;\r\n        winner = participants[randomNumber];\r\n        lotteryClosed = true;\r\n        emit LotteryClosed(randomNumber, winner);\r\n    }\r\n\r\n    function getParticipants() external view returns (address[] memory) {\r\n        return participants;\r\n    }\r\n\r\n    function isParticipant(address _address) external view returns (bool) {\r\n        for (uint256 i = 0; i < participants.length; i++) {\r\n            if (participants[i] == _address) {\r\n                return true;\r\n            }\r\n        }\r\n        return false;\r\n    }\r\n}\r\n\r\n//  SafeMath \r\n// \r\n//  modifier ",
  "sourcePath": "C:\\Users\\27636\\Desktop\\2023\\NeMA\\contracts\\Lottery.sol",
  "compiler": {
    "name": "solc",
    "version": "0.8.21+commit.d9974bed.Emscripten.clang"
  },
  "schemaVersion": "3.4.16",
  "updatedAt": "2023-12-15T09:20:51.427Z",
  "devdoc": {
    "kind": "dev",
    "methods": {},
    "version": 1
  },
  "userdoc": {
    "kind": "user",
    "methods": {},
    "version": 1
  }
}