{
  "address": "0x723D816264b28c170A38E8Bce2259842C30A9377",
  "abi": [
    {
      "inputs": [],
      "name": "_dao_ids",
      "outputs": [
        {
          "internalType": "uint256",
          "name": "",
          "type": "uint256"
        }
      ],
      "stateMutability": "view",
      "type": "function"
    },
    {
      "inputs": [
        {
          "internalType": "uint256",
          "name": "",
          "type": "uint256"
        }
      ],
      "name": "_dao_uris",
      "outputs": [
        {
          "internalType": "string",
          "name": "dao_wallet",
          "type": "string"
        },
        {
          "internalType": "string",
          "name": "dao_uri",
          "type": "string"
        },
        {
          "internalType": "string",
          "name": "finished",
          "type": "string"
        }
      ],
      "stateMutability": "view",
      "type": "function"
    },
    {
      "inputs": [
        {
          "internalType": "uint256",
          "name": "",
          "type": "uint256"
        }
      ],
      "name": "_donated",
      "outputs": [
        {
          "internalType": "uint256",
          "name": "",
          "type": "uint256"
        }
      ],
      "stateMutability": "view",
      "type": "function"
    },
    {
      "inputs": [
        {
          "internalType": "uint256",
          "name": "",
          "type": "uint256"
        }
      ],
      "name": "_donations",
      "outputs": [
        {
          "internalType": "string",
          "name": "ideas_id",
          "type": "string"
        },
        {
          "internalType": "uint256",
          "name": "userid",
          "type": "uint256"
        },
        {
          "internalType": "uint256",
          "name": "donation",
          "type": "uint256"
        }
      ],
      "stateMutability": "view",
      "type": "function"
    },
    {
      "inputs": [],
      "name": "_donations_ids",
      "outputs": [
        {
          "internalType": "uint256",
          "name": "",
          "type": "uint256"
        }
      ],
      "stateMutability": "view",
      "type": "function"
    },
    {
      "inputs": [],
      "name": "_feed_ids",
      "outputs": [
        {
          "internalType": "uint256",
          "name": "",
          "type": "uint256"
        }
      ],
      "stateMutability": "view",
      "type": "function"
    },
    {
      "inputs": [
        {
          "internalType": "uint256",
          "name": "",
          "type": "uint256"
        }
      ],
      "name": "_feeds",
      "outputs": [
        {
          "internalType": "uint256",
          "name": "feed_id",
          "type": "uint256"
        },
        {
          "internalType": "uint256",
          "name": "date",
          "type": "uint256"
        },
        {
          "internalType": "string",
          "name": "Type",
          "type": "string"
        },
        {
          "internalType": "string",
          "name": "data",
          "type": "string"
        }
      ],
      "stateMutability": "view",
      "type": "function"
    },
    {
      "inputs": [],
      "name": "_goal_ids",
      "outputs": [
        {
          "internalType": "uint256",
          "name": "",
          "type": "uint256"
        }
      ],
      "stateMutability": "view",
      "type": "function"
    },
    {
      "inputs": [
        {
          "internalType": "uint256",
          "name": "",
          "type": "uint256"
        }
      ],
      "name": "_goal_uris",
      "outputs": [
        {
          "internalType": "string",
          "name": "dao_id",
          "type": "string"
        },
        {
          "internalType": "string",
          "name": "goal_uri",
          "type": "string"
        }
      ],
      "stateMutability": "view",
      "type": "function"
    },
    {
      "inputs": [],
      "name": "_ideas_ids",
      "outputs": [
        {
          "internalType": "uint256",
          "name": "",
          "type": "uint256"
        }
      ],
      "stateMutability": "view",
      "type": "function"
    },
    {
      "inputs": [
        {
          "internalType": "uint256",
          "name": "",
          "type": "uint256"
        }
      ],
      "name": "_ideas_uris",
      "outputs": [
        {
          "internalType": "string",
          "name": "goal_id",
          "type": "string"
        },
        {
          "internalType": "string",
          "name": "ideas_uri",
          "type": "string"
        },
        {
          "internalType": "uint256",
          "name": "donation",
          "type": "uint256"
        }
      ],
      "stateMutability": "view",
      "type": "function"
    },
    {
      "inputs": [],
      "name": "_ideas_vote_ids",
      "outputs": [
        {
          "internalType": "uint256",
          "name": "",
          "type": "uint256"
        }
      ],
      "stateMutability": "view",
      "type": "function"
    },
    {
      "inputs": [],
      "name": "_join_ids",
      "outputs": [
        {
          "internalType": "uint256",
          "name": "",
          "type": "uint256"
        }
      ],
      "stateMutability": "view",
      "type": "function"
    },
    {
      "inputs": [
        {
          "internalType": "uint256",
          "name": "",
          "type": "uint256"
        }
      ],
      "name": "_joined_person",
      "outputs": [
        {
          "internalType": "uint256",
          "name": "daoid",
          "type": "uint256"
        },
        {
          "internalType": "uint256",
          "name": "user_id",
          "type": "uint256"
        },
        {
          "internalType": "string",
          "name": "joined_date",
          "type": "string"
        }
      ],
      "stateMutability": "view",
      "type": "function"
    },
    {
      "inputs": [],
      "name": "_message_ids",
      "outputs": [
        {
          "internalType": "uint256",
          "name": "",
          "type": "uint256"
        }
      ],
      "stateMutability": "view",
      "type": "function"
    },
    {
      "inputs": [],
      "name": "_message_read_ids",
      "outputs": [
        {
          "internalType": "uint256",
          "name": "",
          "type": "uint256"
        }
      ],
      "stateMutability": "view",
      "type": "function"
    },
    {
      "inputs": [],
      "name": "_reply_ids",
      "outputs": [
        {
          "internalType": "uint256",
          "name": "",
          "type": "uint256"
        }
      ],
      "stateMutability": "view",
      "type": "function"
    },
    {
      "inputs": [],
      "name": "_smart_contract_ids",
      "outputs": [
        {
          "internalType": "uint256",
          "name": "",
          "type": "uint256"
        }
      ],
      "stateMutability": "view",
      "type": "function"
    },
    {
      "inputs": [
        {
          "internalType": "uint256",
          "name": "",
          "type": "uint256"
        }
      ],
      "name": "_smart_contracts_uris",
      "outputs": [
        {
          "internalType": "uint256",
          "name": "smart_contract_id",
          "type": "uint256"
        },
        {
          "internalType": "uint256",
          "name": "ideas_id",
          "type": "uint256"
        },
        {
          "internalType": "string",
          "name": "smart_contract_uri",
          "type": "string"
        }
      ],
      "stateMutability": "view",
      "type": "function"
    },
    {
      "inputs": [
        {
          "internalType": "uint256",
          "name": "",
          "type": "uint256"
        }
      ],
      "name": "_template_uris",
      "outputs": [
        {
          "internalType": "string",
          "name": "",
          "type": "string"
        }
      ],
      "stateMutability": "view",
      "type": "function"
    },
    {
      "inputs": [
        {
          "internalType": "uint256",
          "name": "",
          "type": "uint256"
        }
      ],
      "name": "_user_badges",
      "outputs": [
        {
          "internalType": "uint256",
          "name": "user_id",
          "type": "uint256"
        },
        {
          "internalType": "bool",
          "name": "dao",
          "type": "bool"
        },
        {
          "internalType": "bool",
          "name": "joined",
          "type": "bool"
        },
        {
          "internalType": "bool",
          "name": "goal",
          "type": "bool"
        },
        {
          "internalType": "bool",
          "name": "ideas",
          "type": "bool"
        },
        {
          "internalType": "bool",
          "name": "vote",
          "type": "bool"
        },
        {
          "internalType": "bool",
          "name": "donation",
          "type": "bool"
        },
        {
          "internalType": "bool",
          "name": "comment",
          "type": "bool"
        },
        {
          "internalType": "bool",
          "name": "reply",
          "type": "bool"
        }
      ],
      "stateMutability": "view",
      "type": "function"
    },
    {
      "inputs": [
        {
          "internalType": "string",
          "name": "feed_text",
          "type": "string"
        },
        {
          "internalType": "string",
          "name": "_type",
          "type": "string"
        }
      ],
      "name": "add_Feed",
      "outputs": [],
      "stateMutability": "nonpayable",
      "type": "function"
    },
    {
      "inputs": [
        {
          "internalType": "string",
          "name": "_ideas_id",
          "type": "string"
        },
        {
          "internalType": "uint256",
          "name": "_doantion",
          "type": "uint256"
        },
        {
          "internalType": "uint256",
          "name": "_userid",
          "type": "uint256"
        },
        {
          "internalType": "string",
          "name": "_feed1",
          "type": "string"
        },
        {
          "internalType": "string",
          "name": "_feed2",
          "type": "string"
        }
      ],
      "name": "add_donation",
      "outputs": [],
      "stateMutability": "nonpayable",
      "type": "function"
    },
    {
      "inputs": [
        {
          "internalType": "uint256",
          "name": "",
          "type": "uint256"
        }
      ],
      "name": "all_goal_ideas_votes",
      "outputs": [
        {
          "internalType": "string",
          "name": "goal_id",
          "type": "string"
        },
        {
          "internalType": "string",
          "name": "ideas_id",
          "type": "string"
        },
        {
          "internalType": "uint256",
          "name": "user_id",
          "type": "uint256"
        }
      ],
      "stateMutability": "view",
      "type": "function"
    },
    {
      "inputs": [
        {
          "internalType": "uint256",
          "name": "",
          "type": "uint256"
        }
      ],
      "name": "all_messages",
      "outputs": [
        {
          "internalType": "uint256",
          "name": "message_id",
          "type": "uint256"
        },
        {
          "internalType": "string",
          "name": "ideas_id",
          "type": "string"
        },
        {
          "internalType": "string",
          "name": "message",
          "type": "string"
        },
        {
          "internalType": "string",
          "name": "sender",
          "type": "string"
        }
      ],
      "stateMutability": "view",
      "type": "function"
    },
    {
      "inputs": [
        {
          "internalType": "uint256",
          "name": "",
          "type": "uint256"
        }
      ],
      "name": "all_read_messages",
      "outputs": [
        {
          "internalType": "uint256",
          "name": "message_id",
          "type": "uint256"
        },
        {
          "internalType": "uint256",
          "name": "ideas_id",
          "type": "uint256"
        },
        {
          "internalType": "uint256",
          "name": "user_id",
          "type": "uint256"
        },
        {
          "internalType": "string",
          "name": "msg_type",
          "type": "string"
        }
      ],
      "stateMutability": "view",
      "type": "function"
    },
    {
      "inputs": [
        {
          "internalType": "uint256",
          "name": "",
          "type": "uint256"
        }
      ],
      "name": "all_replies",
      "outputs": [
        {
          "internalType": "uint256",
          "name": "reply_id",
          "type": "uint256"
        },
        {
          "internalType": "uint256",
          "name": "message_id",
          "type": "uint256"
        },
        {
          "internalType": "uint256",
          "name": "ideas_id",
          "type": "uint256"
        },
        {
          "internalType": "string",
          "name": "message",
          "type": "string"
        }
      ],
      "stateMutability": "view",
      "type": "function"
    },
    {
      "inputs": [
        {
          "internalType": "string",
          "name": "_dao_wallet",
          "type": "string"
        },
        {
          "internalType": "string",
          "name": "_dao_uri",
          "type": "string"
        },
        {
          "internalType": "string",
          "name": "_template",
          "type": "string"
        },
        {
          "internalType": "uint256",
          "name": "user_id",
          "type": "uint256"
        }
      ],
      "name": "create_dao",
      "outputs": [
        {
          "internalType": "uint256",
          "name": "",
          "type": "uint256"
        }
      ],
      "stateMutability": "nonpayable",
      "type": "function"
    },
    {
      "inputs": [
        {
          "internalType": "string",
          "name": "_goal_uri",
          "type": "string"
        },
        {
          "internalType": "string",
          "name": "_dao_id",
          "type": "string"
        },
        {
          "internalType": "uint256",
          "name": "_user_id",
          "type": "uint256"
        },
        {
          "internalType": "string",
          "name": "_feed",
          "type": "string"
        }
      ],
      "name": "create_goal",
      "outputs": [
        {
          "internalType": "uint256",
          "name": "",
          "type": "uint256"
        }
      ],
      "stateMutability": "nonpayable",
      "type": "function"
    },
    {
      "inputs": [
        {
          "internalType": "string",
          "name": "_goal_id",
          "type": "string"
        },
        {
          "internalType": "string",
          "name": "_ideas_id",
          "type": "string"
        },
        {
          "internalType": "uint256",
          "name": "_user_id",
          "type": "uint256"
        },
        {
          "internalType": "string",
          "name": "_feed",
          "type": "string"
        },
        {
          "internalType": "bool",
          "name": "feed_add",
          "type": "bool"
        }
      ],
      "name": "create_goal_ideas_vote",
      "outputs": [
        {
          "internalType": "uint256",
          "name": "",
          "type": "uint256"
        }
      ],
      "stateMutability": "nonpayable",
      "type": "function"
    },
    {
      "inputs": [
        {
          "internalType": "string",
          "name": "_ideas_uri",
          "type": "string"
        },
        {
          "internalType": "string",
          "name": "_goal_id",
          "type": "string"
        },
        {
          "internalType": "string[]",
          "name": "_smart_contracts",
          "type": "string[]"
        },
        {
          "internalType": "uint256",
          "name": "_user_id",
          "type": "uint256"
        },
        {
          "internalType": "string",
          "name": "_feed",
          "type": "string"
        }
      ],
      "name": "create_ideas",
      "outputs": [
        {
          "internalType": "uint256",
          "name": "",
          "type": "uint256"
        }
      ],
      "stateMutability": "nonpayable",
      "type": "function"
    },
    {
      "inputs": [
        {
          "internalType": "uint256",
          "name": "_dao_id",
          "type": "uint256"
        }
      ],
      "name": "dao_uri",
      "outputs": [
        {
          "internalType": "string",
          "name": "",
          "type": "string"
        }
      ],
      "stateMutability": "view",
      "type": "function"
    },
    {
      "inputs": [
        {
          "internalType": "string",
          "name": "ideas_id",
          "type": "string"
        }
      ],
      "name": "getMsgIDs",
      "outputs": [
        {
          "internalType": "uint256[]",
          "name": "",
          "type": "uint256[]"
        }
      ],
      "stateMutability": "view",
      "type": "function"
    },
    {
      "inputs": [
        {
          "internalType": "uint256",
          "name": "_message_id",
          "type": "uint256"
        },
        {
          "internalType": "string",
          "name": "msg_type",
          "type": "string"
        }
      ],
      "name": "getReadMsg",
      "outputs": [
        {
          "internalType": "bool",
          "name": "",
          "type": "bool"
        }
      ],
      "stateMutability": "view",
      "type": "function"
    },
    {
      "inputs": [
        {
          "internalType": "uint256",
          "name": "message_id",
          "type": "uint256"
        }
      ],
      "name": "getReplyIDs",
      "outputs": [
        {
          "internalType": "uint256[]",
          "name": "",
          "type": "uint256[]"
        }
      ],
      "stateMutability": "view",
      "type": "function"
    },
    {
      "inputs": [],
      "name": "get_all_daos",
      "outputs": [
        {
          "internalType": "string[]",
          "name": "",
          "type": "string[]"
        }
      ],
      "stateMutability": "view",
      "type": "function"
    },
    {
      "inputs": [],
      "name": "get_all_goals",
      "outputs": [
        {
          "internalType": "string[]",
          "name": "",
          "type": "string[]"
        }
      ],
      "stateMutability": "view",
      "type": "function"
    },
    {
      "inputs": [
        {
          "internalType": "string",
          "name": "_dao_id",
          "type": "string"
        }
      ],
      "name": "get_all_goals_by_dao_id",
      "outputs": [
        {
          "internalType": "string[]",
          "name": "",
          "type": "string[]"
        }
      ],
      "stateMutability": "view",
      "type": "function"
    },
    {
      "inputs": [],
      "name": "get_all_ideas",
      "outputs": [
        {
          "internalType": "string[]",
          "name": "",
          "type": "string[]"
        }
      ],
      "stateMutability": "view",
      "type": "function"
    },
    {
      "inputs": [
        {
          "internalType": "string",
          "name": "_goal_id",
          "type": "string"
        }
      ],
      "name": "get_all_ideas_by_goal_id",
      "outputs": [
        {
          "internalType": "string[]",
          "name": "",
          "type": "string[]"
        }
      ],
      "stateMutability": "view",
      "type": "function"
    },
    {
      "inputs": [
        {
          "internalType": "string",
          "name": "_goal_uri",
          "type": "string"
        }
      ],
      "name": "get_goal_id_by_goal_uri",
      "outputs": [
        {
          "internalType": "uint256",
          "name": "",
          "type": "uint256"
        }
      ],
      "stateMutability": "view",
      "type": "function"
    },
    {
      "inputs": [
        {
          "internalType": "string",
          "name": "_ideas_uri",
          "type": "string"
        }
      ],
      "name": "get_goal_id_from_ideas_uri",
      "outputs": [
        {
          "internalType": "string",
          "name": "",
          "type": "string"
        }
      ],
      "stateMutability": "view",
      "type": "function"
    },
    {
      "inputs": [
        {
          "internalType": "string",
          "name": "_ideas_uri",
          "type": "string"
        }
      ],
      "name": "get_ideas_id_by_ideas_uri",
      "outputs": [
        {
          "internalType": "uint256",
          "name": "",
          "type": "uint256"
        }
      ],
      "stateMutability": "view",
      "type": "function"
    },
    {
      "inputs": [
        {
          "internalType": "uint256",
          "name": "dao_id",
          "type": "uint256"
        },
        {
          "internalType": "uint256",
          "name": "person",
          "type": "uint256"
        }
      ],
      "name": "get_person_joinedID",
      "outputs": [
        {
          "internalType": "uint256",
          "name": "",
          "type": "uint256"
        }
      ],
      "stateMutability": "view",
      "type": "function"
    },
    {
      "inputs": [
        {
          "internalType": "uint256",
          "name": "_goal_id",
          "type": "uint256"
        }
      ],
      "name": "goal_uri",
      "outputs": [
        {
          "internalType": "string",
          "name": "",
          "type": "string"
        }
      ],
      "stateMutability": "view",
      "type": "function"
    },
    {
      "inputs": [
        {
          "internalType": "uint256",
          "name": "_ideas_id",
          "type": "uint256"
        }
      ],
      "name": "ideas_uri",
      "outputs": [
        {
          "internalType": "string",
          "name": "",
          "type": "string"
        }
      ],
      "stateMutability": "view",
      "type": "function"
    },
    {
      "inputs": [
        {
          "internalType": "uint256",
          "name": "dao_id",
          "type": "uint256"
        },
        {
          "internalType": "uint256",
          "name": "person",
          "type": "uint256"
        }
      ],
      "name": "is_person_joined",
      "outputs": [
        {
          "internalType": "bool",
          "name": "",
          "type": "bool"
        }
      ],
      "stateMutability": "view",
      "type": "function"
    },
    {
      "inputs": [
        {
          "internalType": "uint256",
          "name": "dao_id",
          "type": "uint256"
        },
        {
          "internalType": "uint256",
          "name": "person",
          "type": "uint256"
        },
        {
          "internalType": "string",
          "name": "joined_date",
          "type": "string"
        },
        {
          "internalType": "string",
          "name": "_feed",
          "type": "string"
        }
      ],
      "name": "join_community",
      "outputs": [],
      "stateMutability": "nonpayable",
      "type": "function"
    },
    {
      "inputs": [
        {
          "internalType": "uint256",
          "name": "join_id",
          "type": "uint256"
        }
      ],
      "name": "leave_community",
      "outputs": [],
      "stateMutability": "nonpayable",
      "type": "function"
    },
    {
      "inputs": [],
      "name": "reset_all",
      "outputs": [],
      "stateMutability": "nonpayable",
      "type": "function"
    },
    {
      "inputs": [
        {
          "internalType": "string",
          "name": "_ideas_id",
          "type": "string"
        },
        {
          "internalType": "string",
          "name": "_message",
          "type": "string"
        },
        {
          "internalType": "string",
          "name": "_sender",
          "type": "string"
        },
        {
          "internalType": "uint256",
          "name": "_user_id",
          "type": "uint256"
        }
      ],
      "name": "sendMsg",
      "outputs": [
        {
          "internalType": "uint256",
          "name": "",
          "type": "uint256"
        }
      ],
      "stateMutability": "nonpayable",
      "type": "function"
    },
    {
      "inputs": [
        {
          "internalType": "uint256",
          "name": "_message_id",
          "type": "uint256"
        },
        {
          "internalType": "uint256",
          "name": "_ideas_id",
          "type": "uint256"
        },
        {
          "internalType": "uint256",
          "name": "_wallet",
          "type": "uint256"
        },
        {
          "internalType": "string",
          "name": "msg_type",
          "type": "string"
        }
      ],
      "name": "sendReadMsg",
      "outputs": [
        {
          "internalType": "uint256",
          "name": "",
          "type": "uint256"
        }
      ],
      "stateMutability": "nonpayable",
      "type": "function"
    },
    {
      "inputs": [
        {
          "internalType": "uint256",
          "name": "_message_id",
          "type": "uint256"
        },
        {
          "internalType": "string",
          "name": "_reply",
          "type": "string"
        },
        {
          "internalType": "uint256",
          "name": "ideas_id",
          "type": "uint256"
        },
        {
          "internalType": "uint256",
          "name": "_userid",
          "type": "uint256"
        }
      ],
      "name": "sendReply",
      "outputs": [
        {
          "internalType": "uint256",
          "name": "",
          "type": "uint256"
        }
      ],
      "stateMutability": "nonpayable",
      "type": "function"
    },
    {
      "inputs": [
        {
          "internalType": "uint256",
          "name": "_dao_id",
          "type": "uint256"
        },
        {
          "internalType": "string",
          "name": "_dao_wallet",
          "type": "string"
        },
        {
          "internalType": "string",
          "name": "_dao_uri",
          "type": "string"
        }
      ],
      "name": "set_dao",
      "outputs": [],
      "stateMutability": "nonpayable",
      "type": "function"
    },
    {
      "inputs": [
        {
          "internalType": "uint256",
          "name": "_goal_id",
          "type": "uint256"
        },
        {
          "internalType": "string",
          "name": "_goal_uri",
          "type": "string"
        }
      ],
      "name": "set_goal",
      "outputs": [],
      "stateMutability": "nonpayable",
      "type": "function"
    },
    {
      "inputs": [
        {
          "internalType": "uint256",
          "name": "_ideas_id",
          "type": "uint256"
        },
        {
          "internalType": "string",
          "name": "_ideas_uri",
          "type": "string"
        }
      ],
      "name": "set_ideas",
      "outputs": [],
      "stateMutability": "nonpayable",
      "type": "function"
    },
    {
      "inputs": [
        {
          "internalType": "uint256",
          "name": "_dao_id",
          "type": "uint256"
        },
        {
          "internalType": "string",
          "name": "_template",
          "type": "string"
        }
      ],
      "name": "update_template",
      "outputs": [],
      "stateMutability": "nonpayable",
      "type": "function"
    }
  ],
  "transactionHash": "0xcbfb19b2d267ec41250772bfed354732fd197ebaa5c41dd27a1744254f28d78e",
  "args": [],
  "numDeployments": 1,
  "solcInputHash": "d80e33f499c8775019fb8172da1bcb26",
  "bytecode": "0x608060405234801561001057600080fd5b50614ba9806100206000396000f3fe608060405234801561001057600080fd5b50600436106103835760003560e01c8063881de858116101de578063b604efaa1161010f578063cace8d46116100ad578063dddb6f861161007c578063dddb6f8614610be7578063e32acc1a14610c17578063ec24580214610c47578063ff4a37ef14610c6557610383565b8063cace8d4614610b36578063cd23080914610b69578063d3791b2014610b99578063d9fc52db14610bb757610383565b8063c04fe978116100e9578063c04fe97814610aae578063c29595c514610acc578063ca013f1714610ae8578063ca98210414610b0657610383565b8063b604efaa14610a46578063bda0033514610a76578063c04e743014610a9257610383565b8063a1ca91781161017c578063aa4cdf2a11610156578063aa4cdf2a146109a9578063b16060a6146109d9578063b39a38bd146109e3578063b527d45e14610a1357610383565b8063a1ca917814610923578063a428a47f14610953578063aa2bf5d31461098b57610383565b80638d3d2595116101b85780638d3d2595146108875780639077007d146108b7578063934c5f00146108d557806397ee76061461090557610383565b8063881de8581461081d57806389e93784146108395780638ac4110c1461086957610383565b80634a797bd7116102b85780637f2035d411610256578063826eeefe11610230578063826eeefe14610785578063829a5d98146107a157806386ffa45b146107d157806387633eb21461080157610383565b80637f2035d4146106f25780637fc543ec14610723578063812fae1f1461075557610383565b80635d907da1116102925780635d907da1146106445780636ecda4ee146106745780637a82b1d6146106a45780637bbd582d146106d457610383565b80634a797bd7146105d757806354a9fb18146105f55780635cd844c91461062857610383565b806320959ed011610325578063330b8f26116102ff578063330b8f26146105105780633f87a2f41461054257806342f78f4714610575578063468d0c80146105a557610383565b806320959ed01461049057806327a568b9146104c057806329b56f60146104f257610383565b80631b592aeb116103615780631b592aeb146103f45780631ba44c4c146104125780631e9ac9f5146104445780631fd4d6641461047457610383565b80630377d44a146103885780631171b621146103b857806313bf4cea146103d6575b600080fd5b6103a2600480360381019061039d9190613827565b610c97565b6040516103af91906139b1565b60405180910390f35b6103c0610e21565b6040516103cd91906139ec565b60405180910390f35b6103de610e27565b6040516103eb91906139ec565b60405180910390f35b6103fc610e2d565b60405161040991906139ec565b60405180910390f35b61042c60048036038101906104279190613a33565b610e33565b60405161043b93929190613aaa565b60405180910390f35b61045e60048036038101906104599190613827565b610f6d565b60405161046b91906139ec565b60405180910390f35b61048e60048036038101906104899190613aef565b610fde565b005b6104aa60048036038101906104a59190613a33565b611161565b6040516104b791906139ec565b60405180910390f35b6104da60048036038101906104d59190613a33565b611179565b6040516104e993929190613bbe565b60405180910390f35b6104fa61133b565b60405161050791906139b1565b60405180910390f35b61052a60048036038101906105259190613a33565b611476565b60405161053993929190613c0a565b60405180910390f35b61055c60048036038101906105579190613a33565b611528565b60405161056c9493929190613c48565b60405180910390f35b61058f600480360381019061058a9190613827565b6115e0565b60405161059c9190613d52565b60405180910390f35b6105bf60048036038101906105ba9190613a33565b6116de565b6040516105ce93929190613aaa565b60405180910390f35b6105df611818565b6040516105ec91906139ec565b60405180910390f35b61060f600480360381019061060a9190613a33565b61181e565b60405161061f9493929190613d74565b60405180910390f35b610642600480360381019061063d9190613dc7565b61195e565b005b61065e60048036038101906106599190613a33565b611a47565b60405161066b9190613e66565b60405180910390f35b61068e60048036038101906106899190613a33565b611aef565b60405161069b9190613e66565b60405180910390f35b6106be60048036038101906106b99190613e88565b611b8f565b6040516106cb9190613ee3565b60405180910390f35b6106dc611c09565b6040516106e991906139ec565b60405180910390f35b61070c60048036038101906107079190613a33565b611c0f565b60405161071a929190613efe565b60405180910390f35b61073d60048036038101906107389190613a33565b611d43565b60405161074c93929190613f35565b60405180910390f35b61076f600480360381019061076a9190613a33565b611df5565b60405161077c9190613d52565b60405180910390f35b61079f600480360381019061079a9190613a33565b611ed8565b005b6107bb60048036038101906107b69190613827565b611f49565b6040516107c891906139b1565b60405180910390f35b6107eb60048036038101906107e69190613f73565b6120d3565b6040516107f891906139ec565b60405180910390f35b61081b6004803603810190610816919061402e565b6121f3565b005b6108376004803603810190610832919061408a565b612218565b005b610853600480360381019061084e9190614141565b612265565b60405161086091906139ec565b60405180910390f35b61087161236b565b60405161087e91906139ec565b60405180910390f35b6108a1600480360381019061089c9190613a33565b612371565b6040516108ae9190613e66565b60405180910390f35b6108bf612419565b6040516108cc91906139ec565b60405180910390f35b6108ef60048036038101906108ea9190614210565b61241f565b6040516108fc91906139ec565b60405180910390f35b61090d6124b3565b60405161091a91906139b1565b60405180910390f35b61093d60048036038101906109389190613827565b6125ee565b60405161094a91906139ec565b60405180910390f35b61096d60048036038101906109689190613a33565b61265f565b60405161098299989796959493929190614293565b60405180910390f35b610993612715565b6040516109a091906139ec565b60405180910390f35b6109c360048036038101906109be9190613827565b61271b565b6040516109d09190613e66565b60405180910390f35b6109e1612835565b005b6109fd60048036038101906109f89190614320565b612b07565b604051610a0a91906139ec565b60405180910390f35b610a2d6004803603810190610a289190613a33565b612bf5565b604051610a3d94939291906143db565b60405180910390f35b610a606004803603810190610a5b9190613e88565b612dbd565b604051610a6d91906139ec565b60405180910390f35b610a906004803603810190610a8b9190614435565b612e37565b005b610aac6004803603810190610aa7919061402e565b612ece565b005b610ab6612ef6565b604051610ac391906139b1565b60405180910390f35b610ae66004803603810190610ae1919061402e565b613030565b005b610af0613058565b604051610afd91906139ec565b60405180910390f35b610b206004803603810190610b1b9190613f73565b61305e565b604051610b2d91906139ec565b60405180910390f35b610b506004803603810190610b4b9190613a33565b61313b565b604051610b609493929190613c48565b60405180910390f35b610b836004803603810190610b7e919061402e565b6131f3565b604051610b909190613ee3565b60405180910390f35b610ba1613284565b604051610bae91906139ec565b60405180910390f35b610bd16004803603810190610bcc91906144ad565b61328a565b604051610bde91906139ec565b60405180910390f35b610c016004803603810190610bfc9190614616565b61334f565b604051610c0e91906139ec565b60405180910390f35b610c316004803603810190610c2c9190613a33565b6134b0565b604051610c3e9190613e66565b60405180910390f35b610c4f613558565b604051610c5c91906139ec565b60405180910390f35b610c7f6004803603810190610c7a9190613a33565b61355e565b604051610c8e93929190613c0a565b60405180910390f35b6060600060025467ffffffffffffffff811115610cb757610cb66136fc565b5b604051908082528060200260200182016040528015610cea57816020015b6060815260200190600190039081610cd55790505b509050600080600090505b600254811015610e16578480519060200120600e6000838152602001908152602001600020600001604051610d2a9190614804565b604051809103902003610e0357600e60008281526020019081526020016000206001018054610d5890614730565b80601f0160208091040260200160405190810160405280929190818152602001828054610d8490614730565b8015610dd15780601f10610da657610100808354040283529160200191610dd1565b820191906000526020600020905b815481529060010190602001808311610db457829003601f168201915b5050505050838381518110610de957610de861481b565b5b60200260200101819052508180610dff90614879565b9250505b8080610e0e90614879565b915050610cf5565b508192505050919050565b60045481565b60025481565b60055481565b6014602052806000526040600020600091509050806000018054610e5690614730565b80601f0160208091040260200160405190810160405280929190818152602001828054610e8290614730565b8015610ecf5780601f10610ea457610100808354040283529160200191610ecf565b820191906000526020600020905b815481529060010190602001808311610eb257829003601f168201915b505050505090806001018054610ee490614730565b80601f0160208091040260200160405190810160405280929190818152602001828054610f1090614730565b8015610f5d5780601f10610f3257610100808354040283529160200191610f5d565b820191906000526020600020905b815481529060010190602001808311610f4057829003601f168201915b5050505050908060020154905083565b600080600090505b600254811015610fd3578280519060200120600e6000838152602001908152602001600020600101604051610faa9190614804565b604051809103902003610fc05780915050610fd9565b8080610fcb90614879565b915050610f75565b50600090505b919050565b600015156018600085815260200190815260200160002060010160059054906101000a900460ff1615150361104d5761104c826040518060400160405280600581526020017f6261646765000000000000000000000000000000000000000000000000000000815250612e37565b5b61108c816040518060400160405280600881526020017f646f6e6174696f6e000000000000000000000000000000000000000000000000815250612e37565b60016018600085815260200190815260200160002060010160056101000a81548160ff021916908315150217905550836010600085815260200190815260200160002060008282546110de91906148c1565b92505081905550604051806060016040528086815260200184815260200185815250601260006001548152602001908152602001600020600082015181600001908161112a9190614aa1565b5060208201518160010155604082015181600201559050506001600081548092919061115590614879565b91905055505050505050565b60106020528060005260406000206000915090505481565b600b60205280600052604060002060009150905080600001805461119c90614730565b80601f01602080910402602001604051908101604052809291908181526020018280546111c890614730565b80156112155780601f106111ea57610100808354040283529160200191611215565b820191906000526020600020905b8154815290600101906020018083116111f857829003601f168201915b50505050509080600101805461122a90614730565b80601f016020809104026020016040519081016040528092919081815260200182805461125690614730565b80156112a35780601f10611278576101008083540402835291602001916112a3565b820191906000526020600020905b81548152906001019060200180831161128657829003601f168201915b5050505050908060020180546112b890614730565b80601f01602080910402602001604051908101604052809291908181526020018280546112e490614730565b80156113315780601f1061130657610100808354040283529160200191611331565b820191906000526020600020905b81548152906001019060200180831161131457829003601f168201915b5050505050905083565b6060600060025467ffffffffffffffff81111561135b5761135a6136fc565b5b60405190808252806020026020018201604052801561138e57816020015b60608152602001906001900390816113795790505b50905060005b60025481101561146e57600e600082815260200190815260200160002060010180546113bf90614730565b80601f01602080910402602001604051908101604052809291908181526020018280546113eb90614730565b80156114385780601f1061140d57610100808354040283529160200191611438565b820191906000526020600020905b81548152906001019060200180831161141b57829003601f168201915b50505050508282815181106114505761144f61481b565b5b6020026020010181905250808061146690614879565b915050611394565b508091505090565b600d6020528060005260406000206000915090508060000154908060010154908060020180546114a590614730565b80601f01602080910402602001604051908101604052809291908181526020018280546114d190614730565b801561151e5780601f106114f35761010080835404028352916020019161151e565b820191906000526020600020905b81548152906001019060200180831161150157829003601f168201915b5050505050905083565b601760205280600052604060002060009150905080600001549080600101549080600201549080600301805461155d90614730565b80601f016020809104026020016040519081016040528092919081815260200182805461158990614730565b80156115d65780601f106115ab576101008083540402835291602001916115d6565b820191906000526020600020905b8154815290600101906020018083116115b957829003601f168201915b5050505050905084565b6060600060075467ffffffffffffffff811115611600576115ff6136fc565b5b60405190808252806020026020018201604052801561162e5781602001602082028036833780820191505090505b509050600080600090505b6007548110156116d35784805190602001206015600083815260200190815260200160002060010160405161166e9190614804565b6040518091039020036116c05760156000828152602001908152602001600020600001548383815181106116a5576116a461481b565b5b60200260200101818152505081806116bc90614879565b9250505b80806116cb90614879565b915050611639565b508192505050919050565b600f60205280600052604060002060009150905080600001805461170190614730565b80601f016020809104026020016040519081016040528092919081815260200182805461172d90614730565b801561177a5780601f1061174f5761010080835404028352916020019161177a565b820191906000526020600020905b81548152906001019060200180831161175d57829003601f168201915b50505050509080600101805461178f90614730565b80601f01602080910402602001604051908101604052809291908181526020018280546117bb90614730565b80156118085780601f106117dd57610100808354040283529160200191611808565b820191906000526020600020905b8154815290600101906020018083116117eb57829003601f168201915b5050505050908060020154905083565b60065481565b601160205280600052604060002060009150905080600001549080600101549080600201805461184d90614730565b80601f016020809104026020016040519081016040528092919081815260200182805461187990614730565b80156118c65780601f1061189b576101008083540402835291602001916118c6565b820191906000526020600020905b8154815290600101906020018083116118a957829003601f168201915b5050505050908060030180546118db90614730565b80601f016020809104026020016040519081016040528092919081815260200182805461190790614730565b80156119545780601f1061192957610100808354040283529160200191611954565b820191906000526020600020905b81548152906001019060200180831161193757829003601f168201915b5050505050905084565b60016018600085815260200190815260200160002060010160016101000a81548160ff021916908315150217905550604051806060016040528085815260200184815260200183815250600d60006004548152602001908152602001600020600082015181600001556020820151816001015560408201518160020190816119e69190614aa1565b50905050600460008154809291906119fd90614879565b9190505550611a41816040518060400160405280600481526020017f6a6f696e00000000000000000000000000000000000000000000000000000000815250612e37565b50505050565b6060600b60008381526020019081526020016000206001018054611a6a90614730565b80601f0160208091040260200160405190810160405280929190818152602001828054611a9690614730565b8015611ae35780601f10611ab857610100808354040283529160200191611ae3565b820191906000526020600020905b815481529060010190602001808311611ac657829003601f168201915b50505050509050919050565b600c6020528060005260406000206000915090508054611b0e90614730565b80601f0160208091040260200160405190810160405280929190818152602001828054611b3a90614730565b8015611b875780601f10611b5c57610100808354040283529160200191611b87565b820191906000526020600020905b815481529060010190602001808311611b6a57829003601f168201915b505050505081565b600080600090505b600454811015611bfd5782600d600083815260200190815260200160002060010154148015611bdb575083600d600083815260200190815260200160002060000154145b15611bea576001915050611c03565b8080611bf590614879565b915050611b97565b50600090505b92915050565b60005481565b600e602052806000526040600020600091509050806000018054611c3290614730565b80601f0160208091040260200160405190810160405280929190818152602001828054611c5e90614730565b8015611cab5780601f10611c8057610100808354040283529160200191611cab565b820191906000526020600020905b815481529060010190602001808311611c8e57829003601f168201915b505050505090806001018054611cc090614730565b80601f0160208091040260200160405190810160405280929190818152602001828054611cec90614730565b8015611d395780601f10611d0e57610100808354040283529160200191611d39565b820191906000526020600020905b815481529060010190602001808311611d1c57829003601f168201915b5050505050905082565b6012602052806000526040600020600091509050806000018054611d6690614730565b80601f0160208091040260200160405190810160405280929190818152602001828054611d9290614730565b8015611ddf5780601f10611db457610100808354040283529160200191611ddf565b820191906000526020600020905b815481529060010190602001808311611dc257829003601f168201915b5050505050908060010154908060020154905083565b6060600060095467ffffffffffffffff811115611e1557611e146136fc565b5b604051908082528060200260200182016040528015611e435781602001602082028036833780820191505090505b509050600080600090505b600954811015611ecd5784601760008381526020019081526020016000206001015403611eba576017600082815260200190815260200160002060000154838381518110611e9f57611e9e61481b565b5b6020026020010181815250508180611eb690614879565b9250505b8080611ec590614879565b915050611e4e565b508192505050919050565b604051806060016040528061270f815260200161270f815260200160405180602001604052806000815250815250600d600083815260200190815260200160002060008201518160000155602082015181600101556040820151816002019081611f429190614aa1565b5090505050565b6060600060035467ffffffffffffffff811115611f6957611f686136fc565b5b604051908082528060200260200182016040528015611f9c57816020015b6060815260200190600190039081611f875790505b509050600080600090505b6003548110156120c8578480519060200120600f6000838152602001908152602001600020600001604051611fdc9190614804565b6040518091039020036120a757600f6000828152602001908152602001600020600101805461200a90614730565b80601f016020809104026020016040519081016040528092919081815260200182805461203690614730565b80156120835780601f1061205857610100808354040283529160200191612083565b820191906000526020600020905b81548152906001019060200180831161206657829003601f168201915b505050505083838151811061209b5761209a61481b565b5b60200260200101819052505b81806120b290614879565b92505080806120c090614879565b915050611fa7565b508192505050919050565b600060405180606001604052808681526020018581526020016040518060400160405280600581526020017f46616c7365000000000000000000000000000000000000000000000000000000815250815250600b600080548152602001908152602001600020600082015181600001908161214e9190614aa1565b5060208201518160010190816121649190614aa1565b50604082015181600201908161217a9190614aa1565b5090505082600c600080548152602001908152602001600020908161219f9190614aa1565b5060016018600084815260200190815260200160002060010160006101000a81548160ff0219169083151502179055506000808154809291906121e190614879565b91905055506000549050949350505050565b80600c600084815260200190815260200160002090816122139190614aa1565b505050565b81600b6000858152602001908152602001600020600001908161223b9190614aa1565b5080600b6000858152602001908152602001600020600101908161225f9190614aa1565b50505050565b600060016018600086815260200190815260200160002060010160046101000a81548160ff02191690831515021790555060405180606001604052808781526020018681526020018581525060146000600654815260200190815260200160002060008201518160000190816122db9190614aa1565b5060208201518160010190816122f19190614aa1565b50604082015181600201559050506006600081548092919061231290614879565b9190505550811561235d5761235c836040518060400160405280600481526020017f766f746500000000000000000000000000000000000000000000000000000000815250612e37565b5b600654905095945050505050565b600a5481565b6060600f6000838152602001908152602001600020600101805461239490614730565b80601f01602080910402602001604051908101604052809291908181526020018280546123c090614730565b801561240d5780601f106123e25761010080835404028352916020019161240d565b820191906000526020600020905b8154815290600101906020018083116123f057829003601f168201915b50505050509050919050565b60075481565b6000604051806080016040528086815260200185815260200184815260200183815250601660006008548152602001908152602001600020600082015181600001556020820151816001015560408201518160020155606082015181600301908161248a9190614aa1565b50905050600860008154809291906124a190614879565b91905055506008549050949350505050565b6060600060035467ffffffffffffffff8111156124d3576124d26136fc565b5b60405190808252806020026020018201604052801561250657816020015b60608152602001906001900390816124f15790505b50905060005b6003548110156125e657600f6000828152602001908152602001600020600101805461253790614730565b80601f016020809104026020016040519081016040528092919081815260200182805461256390614730565b80156125b05780601f10612585576101008083540402835291602001916125b0565b820191906000526020600020905b81548152906001019060200180831161259357829003601f168201915b50505050508282815181106125c8576125c761481b565b5b602002602001018190525080806125de90614879565b91505061250c565b508091505090565b600080600090505b600354811015612654578280519060200120600f600083815260200190815260200160002060010160405161262b9190614804565b604051809103902003612641578091505061265a565b808061264c90614879565b9150506125f6565b50600090505b919050565b60186020528060005260406000206000915090508060000154908060010160009054906101000a900460ff16908060010160019054906101000a900460ff16908060010160029054906101000a900460ff16908060010160039054906101000a900460ff16908060010160049054906101000a900460ff16908060010160059054906101000a900460ff16908060010160069054906101000a900460ff16908060010160079054906101000a900460ff16905089565b60095481565b606060005b60035481101561281c578280519060200120600f60008381526020019081526020016000206001016040516127559190614804565b60405180910390200361280957600f6000828152602001908152602001600020600001805461278390614730565b80601f01602080910402602001604051908101604052809291908181526020018280546127af90614730565b80156127fc5780601f106127d1576101008083540402835291602001916127fc565b820191906000526020600020905b8154815290600101906020018083116127df57829003601f168201915b5050505050915050612830565b808061281490614879565b915050612720565b506040518060200160405280600081525090505b919050565b60005b60005481101561289b57600b6000828152602001908152602001600020600080820160006128669190613670565b6001820160006128769190613670565b6002820160006128869190613670565b5050808061289390614879565b915050612838565b5060005b6002548110156128f257600e6000828152602001908152602001600020600080820160006128cd9190613670565b6001820160006128dd9190613670565b505080806128ea90614879565b91505061289f565b5060005b60035481101561295157600f6000828152602001908152602001600020600080820160006129249190613670565b6001820160006129349190613670565b60028201600090555050808061294990614879565b9150506128f6565b5060005b6002548110156129a8576013600082815260200190815260200160002060008082016000905560018201600090556002820160006129939190613670565b505080806129a090614879565b915050612955565b5060005b600754811015612a1757601560008281526020019081526020016000206000808201600090556001820160006129e29190613670565b6002820160006129f29190613670565b600382016000612a029190613670565b50508080612a0f90614879565b9150506129ac565b5060005b600954811015612a76576017600082815260200190815260200160002060008082016000905560018201600090556002820160009055600382016000612a619190613670565b50508080612a6e90614879565b915050612a1b565b5060005b600654811015612ad5576014600082815260200190815260200160002060008082016000612aa89190613670565b600182016000612ab89190613670565b600282016000905550508080612acd90614879565b915050612a7a565b506000808190555060006002819055506000600381905550600060078190555060006009819055506000600681905550565b6000604051806040016040528085815260200186815250600e600060025481526020019081526020016000206000820151816000019081612b489190614aa1565b506020820151816001019081612b5e9190614aa1565b5090505060016018600085815260200190815260200160002060010160026101000a81548160ff02191690831515021790555060026000815480929190612ba490614879565b9190505550612be8826040518060400160405280600481526020017f676f616c00000000000000000000000000000000000000000000000000000000815250612e37565b6002549050949350505050565b6015602052806000526040600020600091509050806000015490806001018054612c1e90614730565b80601f0160208091040260200160405190810160405280929190818152602001828054612c4a90614730565b8015612c975780601f10612c6c57610100808354040283529160200191612c97565b820191906000526020600020905b815481529060010190602001808311612c7a57829003601f168201915b505050505090806002018054612cac90614730565b80601f0160208091040260200160405190810160405280929190818152602001828054612cd890614730565b8015612d255780601f10612cfa57610100808354040283529160200191612d25565b820191906000526020600020905b815481529060010190602001808311612d0857829003601f168201915b505050505090806003018054612d3a90614730565b80601f0160208091040260200160405190810160405280929190818152602001828054612d6690614730565b8015612db35780601f10612d8857610100808354040283529160200191612db3565b820191906000526020600020905b815481529060010190602001808311612d9657829003601f168201915b5050505050905084565b600080600090505b600454811015612e2a5782600d600083815260200190815260200160002060010154148015612e09575083600d600083815260200190815260200160002060000154145b15612e175780915050612e31565b8080612e2290614879565b915050612dc5565b5061270f90505b92915050565b6040518060800160405280600a5481526020014281526020018281526020018381525060116000600a54815260200190815260200160002060008201518160000155602082015181600101556040820151816002019081612e989190614aa1565b506060820151816003019081612eae9190614aa1565b50905050600a6000815480929190612ec590614879565b91905055505050565b80600f60008481526020019081526020016000206001019081612ef19190614aa1565b505050565b60606000805467ffffffffffffffff811115612f1557612f146136fc565b5b604051908082528060200260200182016040528015612f4857816020015b6060815260200190600190039081612f335790505b50905060005b60005481101561302857600b60008281526020019081526020016000206001018054612f7990614730565b80601f0160208091040260200160405190810160405280929190818152602001828054612fa590614730565b8015612ff25780601f10612fc757610100808354040283529160200191612ff2565b820191906000526020600020905b815481529060010190602001808311612fd557829003601f168201915b505050505082828151811061300a5761300961481b565b5b6020026020010181905250808061302090614879565b915050612f4e565b508091505090565b80600e600084815260200190815260200160002060010190816130539190614aa1565b505050565b60085481565b600060016018600084815260200190815260200160002060010160066101000a81548160ff02191690831515021790555060405180608001604052806007548152602001868152602001858152602001848152506015600060075481526020019081526020016000206000820151816000015560208201518160010190816130e69190614aa1565b5060408201518160020190816130fc9190614aa1565b5060608201518160030190816131129190614aa1565b509050506007600081548092919061312990614879565b91905055506007549050949350505050565b601660205280600052604060002060009150905080600001549080600101549080600201549080600301805461317090614730565b80601f016020809104026020016040519081016040528092919081815260200182805461319c90614730565b80156131e95780601f106131be576101008083540402835291602001916131e9565b820191906000526020600020905b8154815290600101906020018083116131cc57829003601f168201915b5050505050905084565b6000806000905060005b6008548110156132795784601660008381526020019081526020016000206000015414801561325c57506016600082815260200190815260200160002060030160405161324a9190614804565b60405180910390208480519060200120145b1561326657600191505b808061327190614879565b9150506131fd565b508091505092915050565b60035481565b600060016018600084815260200190815260200160002060010160076101000a81548160ff021916908315150217905550604051806080016040528060095481526020018681526020018481526020018581525060176000600954815260200190815260200160002060008201518160000155602082015181600101556040820151816002015560608201518160030190816133269190614aa1565b509050506009600081548092919061333d90614879565b91905055506009549050949350505050565b600060405180606001604052808681526020018781526020016000815250600f6000600354815260200190815260200160002060008201518160000190816133979190614aa1565b5060208201518160010190816133ad9190614aa1565b506040820151816002015590505060016018600085815260200190815260200160002060010160036101000a81548160ff021916908315150217905550600360008154809291906133fd90614879565b919050555060005b84518110156134625761343760035460055487848151811061342a5761342961481b565b5b6020026020010151613610565b6005600081548092919061344a90614879565b9190505550808061345a90614879565b915050613405565b506134a2826040518060400160405280600481526020017f6964656100000000000000000000000000000000000000000000000000000000815250612e37565b600354905095945050505050565b6060600e600083815260200190815260200160002060010180546134d390614730565b80601f01602080910402602001604051908101604052809291908181526020018280546134ff90614730565b801561354c5780601f106135215761010080835404028352916020019161354c565b820191906000526020600020905b81548152906001019060200180831161352f57829003601f168201915b50505050509050919050565b60015481565b601360205280600052604060002060009150905080600001549080600101549080600201805461358d90614730565b80601f01602080910402602001604051908101604052809291908181526020018280546135b990614730565b80156136065780601f106135db57610100808354040283529160200191613606565b820191906000526020600020905b8154815290600101906020018083116135e957829003601f168201915b5050505050905083565b60405180606001604052808481526020018381526020018281525060136000848152602001908152602001600020600082015181600001556020820151816001015560408201518160020190816136679190614aa1565b50905050505050565b50805461367c90614730565b6000825580601f1061368e57506136ad565b601f0160209004906000526020600020908101906136ac91906136b0565b5b50565b5b808211156136c95760008160009055506001016136b1565b5090565b6000604051905090565b600080fd5b600080fd5b600080fd5b600080fd5b6000601f19601f8301169050919050565b7f4e487b7100000000000000000000000000000000000000000000000000000000600052604160045260246000fd5b613734826136eb565b810181811067ffffffffffffffff82111715613753576137526136fc565b5b80604052505050565b60006137666136cd565b9050613772828261372b565b919050565b600067ffffffffffffffff821115613792576137916136fc565b5b61379b826136eb565b9050602081019050919050565b82818337600083830152505050565b60006137ca6137c584613777565b61375c565b9050828152602081018484840111156137e6576137e56136e6565b5b6137f18482856137a8565b509392505050565b600082601f83011261380e5761380d6136e1565b5b813561381e8482602086016137b7565b91505092915050565b60006020828403121561383d5761383c6136d7565b5b600082013567ffffffffffffffff81111561385b5761385a6136dc565b5b613867848285016137f9565b91505092915050565b600081519050919050565b600082825260208201905092915050565b6000819050602082019050919050565b600081519050919050565b600082825260208201905092915050565b60005b838110156138d65780820151818401526020810190506138bb565b60008484015250505050565b60006138ed8261389c565b6138f781856138a7565b93506139078185602086016138b8565b613910816136eb565b840191505092915050565b600061392783836138e2565b905092915050565b6000602082019050919050565b600061394782613870565b613951818561387b565b9350836020820285016139638561388c565b8060005b8581101561399f5784840389528151613980858261391b565b945061398b8361392f565b925060208a01995050600181019050613967565b50829750879550505050505092915050565b600060208201905081810360008301526139cb818461393c565b905092915050565b6000819050919050565b6139e6816139d3565b82525050565b6000602082019050613a0160008301846139dd565b92915050565b613a10816139d3565b8114613a1b57600080fd5b50565b600081359050613a2d81613a07565b92915050565b600060208284031215613a4957613a486136d7565b5b6000613a5784828501613a1e565b91505092915050565b600082825260208201905092915050565b6000613a7c8261389c565b613a868185613a60565b9350613a968185602086016138b8565b613a9f816136eb565b840191505092915050565b60006060820190508181036000830152613ac48186613a71565b90508181036020830152613ad88185613a71565b9050613ae760408301846139dd565b949350505050565b600080600080600060a08688031215613b0b57613b0a6136d7565b5b600086013567ffffffffffffffff811115613b2957613b286136dc565b5b613b35888289016137f9565b9550506020613b4688828901613a1e565b9450506040613b5788828901613a1e565b935050606086013567ffffffffffffffff811115613b7857613b776136dc565b5b613b84888289016137f9565b925050608086013567ffffffffffffffff811115613ba557613ba46136dc565b5b613bb1888289016137f9565b9150509295509295909350565b60006060820190508181036000830152613bd88186613a71565b90508181036020830152613bec8185613a71565b90508181036040830152613c008184613a71565b9050949350505050565b6000606082019050613c1f60008301866139dd565b613c2c60208301856139dd565b8181036040830152613c3e8184613a71565b9050949350505050565b6000608082019050613c5d60008301876139dd565b613c6a60208301866139dd565b613c7760408301856139dd565b8181036060830152613c898184613a71565b905095945050505050565b600081519050919050565b600082825260208201905092915050565b6000819050602082019050919050565b613cc9816139d3565b82525050565b6000613cdb8383613cc0565b60208301905092915050565b6000602082019050919050565b6000613cff82613c94565b613d098185613c9f565b9350613d1483613cb0565b8060005b83811015613d45578151613d2c8882613ccf565b9750613d3783613ce7565b925050600181019050613d18565b5085935050505092915050565b60006020820190508181036000830152613d6c8184613cf4565b905092915050565b6000608082019050613d8960008301876139dd565b613d9660208301866139dd565b8181036040830152613da88185613a71565b90508181036060830152613dbc8184613a71565b905095945050505050565b60008060008060808587031215613de157613de06136d7565b5b6000613def87828801613a1e565b9450506020613e0087828801613a1e565b935050604085013567ffffffffffffffff811115613e2157613e206136dc565b5b613e2d878288016137f9565b925050606085013567ffffffffffffffff811115613e4e57613e4d6136dc565b5b613e5a878288016137f9565b91505092959194509250565b60006020820190508181036000830152613e808184613a71565b905092915050565b60008060408385031215613e9f57613e9e6136d7565b5b6000613ead85828601613a1e565b9250506020613ebe85828601613a1e565b9150509250929050565b60008115159050919050565b613edd81613ec8565b82525050565b6000602082019050613ef86000830184613ed4565b92915050565b60006040820190508181036000830152613f188185613a71565b90508181036020830152613f2c8184613a71565b90509392505050565b60006060820190508181036000830152613f4f8186613a71565b9050613f5e60208301856139dd565b613f6b60408301846139dd565b949350505050565b60008060008060808587031215613f8d57613f8c6136d7565b5b600085013567ffffffffffffffff811115613fab57613faa6136dc565b5b613fb7878288016137f9565b945050602085013567ffffffffffffffff811115613fd857613fd76136dc565b5b613fe4878288016137f9565b935050604085013567ffffffffffffffff811115614005576140046136dc565b5b614011878288016137f9565b925050606061402287828801613a1e565b91505092959194509250565b60008060408385031215614045576140446136d7565b5b600061405385828601613a1e565b925050602083013567ffffffffffffffff811115614074576140736136dc565b5b614080858286016137f9565b9150509250929050565b6000806000606084860312156140a3576140a26136d7565b5b60006140b186828701613a1e565b935050602084013567ffffffffffffffff8111156140d2576140d16136dc565b5b6140de868287016137f9565b925050604084013567ffffffffffffffff8111156140ff576140fe6136dc565b5b61410b868287016137f9565b9150509250925092565b61411e81613ec8565b811461412957600080fd5b50565b60008135905061413b81614115565b92915050565b600080600080600060a0868803121561415d5761415c6136d7565b5b600086013567ffffffffffffffff81111561417b5761417a6136dc565b5b614187888289016137f9565b955050602086013567ffffffffffffffff8111156141a8576141a76136dc565b5b6141b4888289016137f9565b94505060406141c588828901613a1e565b935050606086013567ffffffffffffffff8111156141e6576141e56136dc565b5b6141f2888289016137f9565b92505060806142038882890161412c565b9150509295509295909350565b6000806000806080858703121561422a576142296136d7565b5b600061423887828801613a1e565b945050602061424987828801613a1e565b935050604061425a87828801613a1e565b925050606085013567ffffffffffffffff81111561427b5761427a6136dc565b5b614287878288016137f9565b91505092959194509250565b6000610120820190506142a9600083018c6139dd565b6142b6602083018b613ed4565b6142c3604083018a613ed4565b6142d06060830189613ed4565b6142dd6080830188613ed4565b6142ea60a0830187613ed4565b6142f760c0830186613ed4565b61430460e0830185613ed4565b614312610100830184613ed4565b9a9950505050505050505050565b6000806000806080858703121561433a576143396136d7565b5b600085013567ffffffffffffffff811115614358576143576136dc565b5b614364878288016137f9565b945050602085013567ffffffffffffffff811115614385576143846136dc565b5b614391878288016137f9565b93505060406143a287828801613a1e565b925050606085013567ffffffffffffffff8111156143c3576143c26136dc565b5b6143cf878288016137f9565b91505092959194509250565b60006080820190506143f060008301876139dd565b81810360208301526144028186613a71565b905081810360408301526144168185613a71565b9050818103606083015261442a8184613a71565b905095945050505050565b6000806040838503121561444c5761444b6136d7565b5b600083013567ffffffffffffffff81111561446a576144696136dc565b5b614476858286016137f9565b925050602083013567ffffffffffffffff811115614497576144966136dc565b5b6144a3858286016137f9565b9150509250929050565b600080600080608085870312156144c7576144c66136d7565b5b60006144d587828801613a1e565b945050602085013567ffffffffffffffff8111156144f6576144f56136dc565b5b614502878288016137f9565b935050604061451387828801613a1e565b925050606061452487828801613a1e565b91505092959194509250565b600067ffffffffffffffff82111561454b5761454a6136fc565b5b602082029050602081019050919050565b600080fd5b600061457461456f84614530565b61375c565b905080838252602082019050602084028301858111156145975761459661455c565b5b835b818110156145de57803567ffffffffffffffff8111156145bc576145bb6136e1565b5b8086016145c989826137f9565b85526020850194505050602081019050614599565b5050509392505050565b600082601f8301126145fd576145fc6136e1565b5b813561460d848260208601614561565b91505092915050565b600080600080600060a08688031215614632576146316136d7565b5b600086013567ffffffffffffffff8111156146505761464f6136dc565b5b61465c888289016137f9565b955050602086013567ffffffffffffffff81111561467d5761467c6136dc565b5b614689888289016137f9565b945050604086013567ffffffffffffffff8111156146aa576146a96136dc565b5b6146b6888289016145e8565b93505060606146c788828901613a1e565b925050608086013567ffffffffffffffff8111156146e8576146e76136dc565b5b6146f4888289016137f9565b9150509295509295909350565b7f4e487b7100000000000000000000000000000000000000000000000000000000600052602260045260246000fd5b6000600282049050600182168061474857607f821691505b60208210810361475b5761475a614701565b5b50919050565b600081905092915050565b60008190508160005260206000209050919050565b6000815461478e81614730565b6147988186614761565b945060018216600081146147b357600181146147c8576147fb565b60ff19831686528115158202860193506147fb565b6147d18561476c565b60005b838110156147f3578154818901526001820191506020810190506147d4565b838801955050505b50505092915050565b60006148108284614781565b915081905092915050565b7f4e487b7100000000000000000000000000000000000000000000000000000000600052603260045260246000fd5b7f4e487b7100000000000000000000000000000000000000000000000000000000600052601160045260246000fd5b6000614884826139d3565b91507fffffffffffffffffffffffffffffffffffffffffffffffffffffffffffffffff82036148b6576148b561484a565b5b600182019050919050565b60006148cc826139d3565b91506148d7836139d3565b92508282019050808211156148ef576148ee61484a565b5b92915050565b60008190508160005260206000209050919050565b60006020601f8301049050919050565b600082821b905092915050565b6000600883026149577fffffffffffffffffffffffffffffffffffffffffffffffffffffffffffffffff8261491a565b614961868361491a565b95508019841693508086168417925050509392505050565b6000819050919050565b600061499e614999614994846139d3565b614979565b6139d3565b9050919050565b6000819050919050565b6149b883614983565b6149cc6149c4826149a5565b848454614927565b825550505050565b600090565b6149e16149d4565b6149ec8184846149af565b505050565b5b81811015614a1057614a056000826149d9565b6001810190506149f2565b5050565b601f821115614a5557614a26816148f5565b614a2f8461490a565b81016020851015614a3e578190505b614a52614a4a8561490a565b8301826149f1565b50505b505050565b600082821c905092915050565b6000614a7860001984600802614a5a565b1980831691505092915050565b6000614a918383614a67565b9150826002028217905092915050565b614aaa8261389c565b67ffffffffffffffff811115614ac357614ac26136fc565b5b614acd8254614730565b614ad8828285614a14565b600060209050601f831160018114614b0b5760008415614af9578287015190505b614b038582614a85565b865550614b6b565b601f198416614b19866148f5565b60005b82811015614b4157848901518255600182019150602085019450602081019050614b1c565b86831015614b5e5784890151614b5a601f891682614a67565b8355505b6001600288020188555050505b50505050505056fea264697066735822122012ed48664b744aff9b2800a2a2981847b7077dc9eaade23e282ff7319ae1625064736f6c63430008110033",
  "devdoc": {
    "kind": "dev",
    "methods": {},
    "version": 1
  },
  "userdoc": {
    "kind": "user",
    "methods": {},
    "version": 1
  },
  "storageLayout": {
    "storage": [
      {
        "astId": 2433,
        "contract": "contracts/PlanetDAO.sol:PlanetDAO",
        "label": "_dao_ids",
        "offset": 0,
        "slot": "0",
        "type": "t_uint256"
      },
      {
        "astId": 2435,
        "contract": "contracts/PlanetDAO.sol:PlanetDAO",
        "label": "_donations_ids",
        "offset": 0,
        "slot": "1",
        "type": "t_uint256"
      },
      {
        "astId": 2437,
        "contract": "contracts/PlanetDAO.sol:PlanetDAO",
        "label": "_goal_ids",
        "offset": 0,
        "slot": "2",
        "type": "t_uint256"
      },
      {
        "astId": 2439,
        "contract": "contracts/PlanetDAO.sol:PlanetDAO",
        "label": "_ideas_ids",
        "offset": 0,
        "slot": "3",
        "type": "t_uint256"
      },
      {
        "astId": 2441,
        "contract": "contracts/PlanetDAO.sol:PlanetDAO",
        "label": "_join_ids",
        "offset": 0,
        "slot": "4",
        "type": "t_uint256"
      },
      {
        "astId": 2443,
        "contract": "contracts/PlanetDAO.sol:PlanetDAO",
        "label": "_smart_contract_ids",
        "offset": 0,
        "slot": "5",
        "type": "t_uint256"
      },
      {
        "astId": 2445,
        "contract": "contracts/PlanetDAO.sol:PlanetDAO",
        "label": "_ideas_vote_ids",
        "offset": 0,
        "slot": "6",
        "type": "t_uint256"
      },
      {
        "astId": 2447,
        "contract": "contracts/PlanetDAO.sol:PlanetDAO",
        "label": "_message_ids",
        "offset": 0,
        "slot": "7",
        "type": "t_uint256"
      },
      {
        "astId": 2449,
        "contract": "contracts/PlanetDAO.sol:PlanetDAO",
        "label": "_message_read_ids",
        "offset": 0,
        "slot": "8",
        "type": "t_uint256"
      },
      {
        "astId": 2451,
        "contract": "contracts/PlanetDAO.sol:PlanetDAO",
        "label": "_reply_ids",
        "offset": 0,
        "slot": "9",
        "type": "t_uint256"
      },
      {
        "astId": 2453,
        "contract": "contracts/PlanetDAO.sol:PlanetDAO",
        "label": "_feed_ids",
        "offset": 0,
        "slot": "10",
        "type": "t_uint256"
      },
      {
        "astId": 2458,
        "contract": "contracts/PlanetDAO.sol:PlanetDAO",
        "label": "_dao_uris",
        "offset": 0,
        "slot": "11",
        "type": "t_mapping(t_uint256,t_struct(dao_uri_struct)2331_storage)"
      },
      {
        "astId": 2462,
        "contract": "contracts/PlanetDAO.sol:PlanetDAO",
        "label": "_template_uris",
        "offset": 0,
        "slot": "12",
        "type": "t_mapping(t_uint256,t_string_storage)"
      },
      {
        "astId": 2467,
        "contract": "contracts/PlanetDAO.sol:PlanetDAO",
        "label": "_joined_person",
        "offset": 0,
        "slot": "13",
        "type": "t_mapping(t_uint256,t_struct(join_struct)2403_storage)"
      },
      {
        "astId": 2472,
        "contract": "contracts/PlanetDAO.sol:PlanetDAO",
        "label": "_goal_uris",
        "offset": 0,
        "slot": "14",
        "type": "t_mapping(t_uint256,t_struct(goal_uri_struct)2336_storage)"
      },
      {
        "astId": 2477,
        "contract": "contracts/PlanetDAO.sol:PlanetDAO",
        "label": "_ideas_uris",
        "offset": 0,
        "slot": "15",
        "type": "t_mapping(t_uint256,t_struct(ideas_uri_struct)2343_storage)"
      },
      {
        "astId": 2481,
        "contract": "contracts/PlanetDAO.sol:PlanetDAO",
        "label": "_donated",
        "offset": 0,
        "slot": "16",
        "type": "t_mapping(t_uint256,t_uint256)"
      },
      {
        "astId": 2486,
        "contract": "contracts/PlanetDAO.sol:PlanetDAO",
        "label": "_feeds",
        "offset": 0,
        "slot": "17",
        "type": "t_mapping(t_uint256,t_struct(feed_struct)2431_storage)"
      },
      {
        "astId": 2491,
        "contract": "contracts/PlanetDAO.sol:PlanetDAO",
        "label": "_donations",
        "offset": 0,
        "slot": "18",
        "type": "t_mapping(t_uint256,t_struct(donation_struct)2350_storage)"
      },
      {
        "astId": 2496,
        "contract": "contracts/PlanetDAO.sol:PlanetDAO",
        "label": "_smart_contracts_uris",
        "offset": 0,
        "slot": "19",
        "type": "t_mapping(t_uint256,t_struct(smart_contract_uri_struct)2357_storage)"
      },
      {
        "astId": 2501,
        "contract": "contracts/PlanetDAO.sol:PlanetDAO",
        "label": "all_goal_ideas_votes",
        "offset": 0,
        "slot": "20",
        "type": "t_mapping(t_uint256,t_struct(goal_ideas_votes_struct)2364_storage)"
      },
      {
        "astId": 2506,
        "contract": "contracts/PlanetDAO.sol:PlanetDAO",
        "label": "all_messages",
        "offset": 0,
        "slot": "21",
        "type": "t_mapping(t_uint256,t_struct(message_struct)2373_storage)"
      },
      {
        "astId": 2511,
        "contract": "contracts/PlanetDAO.sol:PlanetDAO",
        "label": "all_read_messages",
        "offset": 0,
        "slot": "22",
        "type": "t_mapping(t_uint256,t_struct(message_read_struct)2382_storage)"
      },
      {
        "astId": 2516,
        "contract": "contracts/PlanetDAO.sol:PlanetDAO",
        "label": "all_replies",
        "offset": 0,
        "slot": "23",
        "type": "t_mapping(t_uint256,t_struct(reply_struct)2391_storage)"
      },
      {
        "astId": 2521,
        "contract": "contracts/PlanetDAO.sol:PlanetDAO",
        "label": "_user_badges",
        "offset": 0,
        "slot": "24",
        "type": "t_mapping(t_uint256,t_struct(user_badge_struct)2422_storage)"
      }
    ],
    "types": {
      "t_bool": {
        "encoding": "inplace",
        "label": "bool",
        "numberOfBytes": "1"
      },
      "t_mapping(t_uint256,t_string_storage)": {
        "encoding": "mapping",
        "key": "t_uint256",
        "label": "mapping(uint256 => string)",
        "numberOfBytes": "32",
        "value": "t_string_storage"
      },
      "t_mapping(t_uint256,t_struct(dao_uri_struct)2331_storage)": {
        "encoding": "mapping",
        "key": "t_uint256",
        "label": "mapping(uint256 => struct PlanetDAO.dao_uri_struct)",
        "numberOfBytes": "32",
        "value": "t_struct(dao_uri_struct)2331_storage"
      },
      "t_mapping(t_uint256,t_struct(donation_struct)2350_storage)": {
        "encoding": "mapping",
        "key": "t_uint256",
        "label": "mapping(uint256 => struct PlanetDAO.donation_struct)",
        "numberOfBytes": "32",
        "value": "t_struct(donation_struct)2350_storage"
      },
      "t_mapping(t_uint256,t_struct(feed_struct)2431_storage)": {
        "encoding": "mapping",
        "key": "t_uint256",
        "label": "mapping(uint256 => struct PlanetDAO.feed_struct)",
        "numberOfBytes": "32",
        "value": "t_struct(feed_struct)2431_storage"
      },
      "t_mapping(t_uint256,t_struct(goal_ideas_votes_struct)2364_storage)": {
        "encoding": "mapping",
        "key": "t_uint256",
        "label": "mapping(uint256 => struct PlanetDAO.goal_ideas_votes_struct)",
        "numberOfBytes": "32",
        "value": "t_struct(goal_ideas_votes_struct)2364_storage"
      },
      "t_mapping(t_uint256,t_struct(goal_uri_struct)2336_storage)": {
        "encoding": "mapping",
        "key": "t_uint256",
        "label": "mapping(uint256 => struct PlanetDAO.goal_uri_struct)",
        "numberOfBytes": "32",
        "value": "t_struct(goal_uri_struct)2336_storage"
      },
      "t_mapping(t_uint256,t_struct(ideas_uri_struct)2343_storage)": {
        "encoding": "mapping",
        "key": "t_uint256",
        "label": "mapping(uint256 => struct PlanetDAO.ideas_uri_struct)",
        "numberOfBytes": "32",
        "value": "t_struct(ideas_uri_struct)2343_storage"
      },
      "t_mapping(t_uint256,t_struct(join_struct)2403_storage)": {
        "encoding": "mapping",
        "key": "t_uint256",
        "label": "mapping(uint256 => struct PlanetDAO.join_struct)",
        "numberOfBytes": "32",
        "value": "t_struct(join_struct)2403_storage"
      },
      "t_mapping(t_uint256,t_struct(message_read_struct)2382_storage)": {
        "encoding": "mapping",
        "key": "t_uint256",
        "label": "mapping(uint256 => struct PlanetDAO.message_read_struct)",
        "numberOfBytes": "32",
        "value": "t_struct(message_read_struct)2382_storage"
      },
      "t_mapping(t_uint256,t_struct(message_struct)2373_storage)": {
        "encoding": "mapping",
        "key": "t_uint256",
        "label": "mapping(uint256 => struct PlanetDAO.message_struct)",
        "numberOfBytes": "32",
        "value": "t_struct(message_struct)2373_storage"
      },
      "t_mapping(t_uint256,t_struct(reply_struct)2391_storage)": {
        "encoding": "mapping",
        "key": "t_uint256",
        "label": "mapping(uint256 => struct PlanetDAO.reply_struct)",
        "numberOfBytes": "32",
        "value": "t_struct(reply_struct)2391_storage"
      },
      "t_mapping(t_uint256,t_struct(smart_contract_uri_struct)2357_storage)": {
        "encoding": "mapping",
        "key": "t_uint256",
        "label": "mapping(uint256 => struct PlanetDAO.smart_contract_uri_struct)",
        "numberOfBytes": "32",
        "value": "t_struct(smart_contract_uri_struct)2357_storage"
      },
      "t_mapping(t_uint256,t_struct(user_badge_struct)2422_storage)": {
        "encoding": "mapping",
        "key": "t_uint256",
        "label": "mapping(uint256 => struct PlanetDAO.user_badge_struct)",
        "numberOfBytes": "32",
        "value": "t_struct(user_badge_struct)2422_storage"
      },
      "t_mapping(t_uint256,t_uint256)": {
        "encoding": "mapping",
        "key": "t_uint256",
        "label": "mapping(uint256 => uint256)",
        "numberOfBytes": "32",
        "value": "t_uint256"
      },
      "t_string_storage": {
        "encoding": "bytes",
        "label": "string",
        "numberOfBytes": "32"
      },
      "t_struct(dao_uri_struct)2331_storage": {
        "encoding": "inplace",
        "label": "struct PlanetDAO.dao_uri_struct",
        "members": [
          {
            "astId": 2326,
            "contract": "contracts/PlanetDAO.sol:PlanetDAO",
            "label": "dao_wallet",
            "offset": 0,
            "slot": "0",
            "type": "t_string_storage"
          },
          {
            "astId": 2328,
            "contract": "contracts/PlanetDAO.sol:PlanetDAO",
            "label": "dao_uri",
            "offset": 0,
            "slot": "1",
            "type": "t_string_storage"
          },
          {
            "astId": 2330,
            "contract": "contracts/PlanetDAO.sol:PlanetDAO",
            "label": "finished",
            "offset": 0,
            "slot": "2",
            "type": "t_string_storage"
          }
        ],
        "numberOfBytes": "96"
      },
      "t_struct(donation_struct)2350_storage": {
        "encoding": "inplace",
        "label": "struct PlanetDAO.donation_struct",
        "members": [
          {
            "astId": 2345,
            "contract": "contracts/PlanetDAO.sol:PlanetDAO",
            "label": "ideas_id",
            "offset": 0,
            "slot": "0",
            "type": "t_string_storage"
          },
          {
            "astId": 2347,
            "contract": "contracts/PlanetDAO.sol:PlanetDAO",
            "label": "userid",
            "offset": 0,
            "slot": "1",
            "type": "t_uint256"
          },
          {
            "astId": 2349,
            "contract": "contracts/PlanetDAO.sol:PlanetDAO",
            "label": "donation",
            "offset": 0,
            "slot": "2",
            "type": "t_uint256"
          }
        ],
        "numberOfBytes": "96"
      },
      "t_struct(feed_struct)2431_storage": {
        "encoding": "inplace",
        "label": "struct PlanetDAO.feed_struct",
        "members": [
          {
            "astId": 2424,
            "contract": "contracts/PlanetDAO.sol:PlanetDAO",
            "label": "feed_id",
            "offset": 0,
            "slot": "0",
            "type": "t_uint256"
          },
          {
            "astId": 2426,
            "contract": "contracts/PlanetDAO.sol:PlanetDAO",
            "label": "date",
            "offset": 0,
            "slot": "1",
            "type": "t_uint256"
          },
          {
            "astId": 2428,
            "contract": "contracts/PlanetDAO.sol:PlanetDAO",
            "label": "Type",
            "offset": 0,
            "slot": "2",
            "type": "t_string_storage"
          },
          {
            "astId": 2430,
            "contract": "contracts/PlanetDAO.sol:PlanetDAO",
            "label": "data",
            "offset": 0,
            "slot": "3",
            "type": "t_string_storage"
          }
        ],
        "numberOfBytes": "128"
      },
      "t_struct(goal_ideas_votes_struct)2364_storage": {
        "encoding": "inplace",
        "label": "struct PlanetDAO.goal_ideas_votes_struct",
        "members": [
          {
            "astId": 2359,
            "contract": "contracts/PlanetDAO.sol:PlanetDAO",
            "label": "goal_id",
            "offset": 0,
            "slot": "0",
            "type": "t_string_storage"
          },
          {
            "astId": 2361,
            "contract": "contracts/PlanetDAO.sol:PlanetDAO",
            "label": "ideas_id",
            "offset": 0,
            "slot": "1",
            "type": "t_string_storage"
          },
          {
            "astId": 2363,
            "contract": "contracts/PlanetDAO.sol:PlanetDAO",
            "label": "user_id",
            "offset": 0,
            "slot": "2",
            "type": "t_uint256"
          }
        ],
        "numberOfBytes": "96"
      },
      "t_struct(goal_uri_struct)2336_storage": {
        "encoding": "inplace",
        "label": "struct PlanetDAO.goal_uri_struct",
        "members": [
          {
            "astId": 2333,
            "contract": "contracts/PlanetDAO.sol:PlanetDAO",
            "label": "dao_id",
            "offset": 0,
            "slot": "0",
            "type": "t_string_storage"
          },
          {
            "astId": 2335,
            "contract": "contracts/PlanetDAO.sol:PlanetDAO",
            "label": "goal_uri",
            "offset": 0,
            "slot": "1",
            "type": "t_string_storage"
          }
        ],
        "numberOfBytes": "64"
      },
      "t_struct(ideas_uri_struct)2343_storage": {
        "encoding": "inplace",
        "label": "struct PlanetDAO.ideas_uri_struct",
        "members": [
          {
            "astId": 2338,
            "contract": "contracts/PlanetDAO.sol:PlanetDAO",
            "label": "goal_id",
            "offset": 0,
            "slot": "0",
            "type": "t_string_storage"
          },
          {
            "astId": 2340,
            "contract": "contracts/PlanetDAO.sol:PlanetDAO",
            "label": "ideas_uri",
            "offset": 0,
            "slot": "1",
            "type": "t_string_storage"
          },
          {
            "astId": 2342,
            "contract": "contracts/PlanetDAO.sol:PlanetDAO",
            "label": "donation",
            "offset": 0,
            "slot": "2",
            "type": "t_uint256"
          }
        ],
        "numberOfBytes": "96"
      },
      "t_struct(join_struct)2403_storage": {
        "encoding": "inplace",
        "label": "struct PlanetDAO.join_struct",
        "members": [
          {
            "astId": 2398,
            "contract": "contracts/PlanetDAO.sol:PlanetDAO",
            "label": "daoid",
            "offset": 0,
            "slot": "0",
            "type": "t_uint256"
          },
          {
            "astId": 2400,
            "contract": "contracts/PlanetDAO.sol:PlanetDAO",
            "label": "user_id",
            "offset": 0,
            "slot": "1",
            "type": "t_uint256"
          },
          {
            "astId": 2402,
            "contract": "contracts/PlanetDAO.sol:PlanetDAO",
            "label": "joined_date",
            "offset": 0,
            "slot": "2",
            "type": "t_string_storage"
          }
        ],
        "numberOfBytes": "96"
      },
      "t_struct(message_read_struct)2382_storage": {
        "encoding": "inplace",
        "label": "struct PlanetDAO.message_read_struct",
        "members": [
          {
            "astId": 2375,
            "contract": "contracts/PlanetDAO.sol:PlanetDAO",
            "label": "message_id",
            "offset": 0,
            "slot": "0",
            "type": "t_uint256"
          },
          {
            "astId": 2377,
            "contract": "contracts/PlanetDAO.sol:PlanetDAO",
            "label": "ideas_id",
            "offset": 0,
            "slot": "1",
            "type": "t_uint256"
          },
          {
            "astId": 2379,
            "contract": "contracts/PlanetDAO.sol:PlanetDAO",
            "label": "user_id",
            "offset": 0,
            "slot": "2",
            "type": "t_uint256"
          },
          {
            "astId": 2381,
            "contract": "contracts/PlanetDAO.sol:PlanetDAO",
            "label": "msg_type",
            "offset": 0,
            "slot": "3",
            "type": "t_string_storage"
          }
        ],
        "numberOfBytes": "128"
      },
      "t_struct(message_struct)2373_storage": {
        "encoding": "inplace",
        "label": "struct PlanetDAO.message_struct",
        "members": [
          {
            "astId": 2366,
            "contract": "contracts/PlanetDAO.sol:PlanetDAO",
            "label": "message_id",
            "offset": 0,
            "slot": "0",
            "type": "t_uint256"
          },
          {
            "astId": 2368,
            "contract": "contracts/PlanetDAO.sol:PlanetDAO",
            "label": "ideas_id",
            "offset": 0,
            "slot": "1",
            "type": "t_string_storage"
          },
          {
            "astId": 2370,
            "contract": "contracts/PlanetDAO.sol:PlanetDAO",
            "label": "message",
            "offset": 0,
            "slot": "2",
            "type": "t_string_storage"
          },
          {
            "astId": 2372,
            "contract": "contracts/PlanetDAO.sol:PlanetDAO",
            "label": "sender",
            "offset": 0,
            "slot": "3",
            "type": "t_string_storage"
          }
        ],
        "numberOfBytes": "128"
      },
      "t_struct(reply_struct)2391_storage": {
        "encoding": "inplace",
        "label": "struct PlanetDAO.reply_struct",
        "members": [
          {
            "astId": 2384,
            "contract": "contracts/PlanetDAO.sol:PlanetDAO",
            "label": "reply_id",
            "offset": 0,
            "slot": "0",
            "type": "t_uint256"
          },
          {
            "astId": 2386,
            "contract": "contracts/PlanetDAO.sol:PlanetDAO",
            "label": "message_id",
            "offset": 0,
            "slot": "1",
            "type": "t_uint256"
          },
          {
            "astId": 2388,
            "contract": "contracts/PlanetDAO.sol:PlanetDAO",
            "label": "ideas_id",
            "offset": 0,
            "slot": "2",
            "type": "t_uint256"
          },
          {
            "astId": 2390,
            "contract": "contracts/PlanetDAO.sol:PlanetDAO",
            "label": "message",
            "offset": 0,
            "slot": "3",
            "type": "t_string_storage"
          }
        ],
        "numberOfBytes": "128"
      },
      "t_struct(smart_contract_uri_struct)2357_storage": {
        "encoding": "inplace",
        "label": "struct PlanetDAO.smart_contract_uri_struct",
        "members": [
          {
            "astId": 2352,
            "contract": "contracts/PlanetDAO.sol:PlanetDAO",
            "label": "smart_contract_id",
            "offset": 0,
            "slot": "0",
            "type": "t_uint256"
          },
          {
            "astId": 2354,
            "contract": "contracts/PlanetDAO.sol:PlanetDAO",
            "label": "ideas_id",
            "offset": 0,
            "slot": "1",
            "type": "t_uint256"
          },
          {
            "astId": 2356,
            "contract": "contracts/PlanetDAO.sol:PlanetDAO",
            "label": "smart_contract_uri",
            "offset": 0,
            "slot": "2",
            "type": "t_string_storage"
          }
        ],
        "numberOfBytes": "96"
      },
      "t_struct(user_badge_struct)2422_storage": {
        "encoding": "inplace",
        "label": "struct PlanetDAO.user_badge_struct",
        "members": [
          {
            "astId": 2405,
            "contract": "contracts/PlanetDAO.sol:PlanetDAO",
            "label": "user_id",
            "offset": 0,
            "slot": "0",
            "type": "t_uint256"
          },
          {
            "astId": 2407,
            "contract": "contracts/PlanetDAO.sol:PlanetDAO",
            "label": "dao",
            "offset": 0,
            "slot": "1",
            "type": "t_bool"
          },
          {
            "astId": 2409,
            "contract": "contracts/PlanetDAO.sol:PlanetDAO",
            "label": "joined",
            "offset": 1,
            "slot": "1",
            "type": "t_bool"
          },
          {
            "astId": 2411,
            "contract": "contracts/PlanetDAO.sol:PlanetDAO",
            "label": "goal",
            "offset": 2,
            "slot": "1",
            "type": "t_bool"
          },
          {
            "astId": 2413,
            "contract": "contracts/PlanetDAO.sol:PlanetDAO",
            "label": "ideas",
            "offset": 3,
            "slot": "1",
            "type": "t_bool"
          },
          {
            "astId": 2415,
            "contract": "contracts/PlanetDAO.sol:PlanetDAO",
            "label": "vote",
            "offset": 4,
            "slot": "1",
            "type": "t_bool"
          },
          {
            "astId": 2417,
            "contract": "contracts/PlanetDAO.sol:PlanetDAO",
            "label": "donation",
            "offset": 5,
            "slot": "1",
            "type": "t_bool"
          },
          {
            "astId": 2419,
            "contract": "contracts/PlanetDAO.sol:PlanetDAO",
            "label": "comment",
            "offset": 6,
            "slot": "1",
            "type": "t_bool"
          },
          {
            "astId": 2421,
            "contract": "contracts/PlanetDAO.sol:PlanetDAO",
            "label": "reply",
            "offset": 7,
            "slot": "1",
            "type": "t_bool"
          }
        ],
        "numberOfBytes": "64"
      },
      "t_uint256": {
        "encoding": "inplace",
        "label": "uint256",
        "numberOfBytes": "32"
      }
    }
  }
}