{
  "address": "0x52E45837181b0B43C87d2fDb8bAC84138c7CA374",
  "abi": [
    {
      "inputs": [],
      "name": "_dao_ids",
      "outputs": [
        {
          "internalType": "uint256",
          "name": "",
          "type": "uint256"
        }
      ],
      "stateMutability": "view",
      "type": "function"
    },
    {
      "inputs": [
        {
          "internalType": "uint256",
          "name": "",
          "type": "uint256"
        }
      ],
      "name": "_dao_uris",
      "outputs": [
        {
          "internalType": "string",
          "name": "dao_wallet",
          "type": "string"
        },
        {
          "internalType": "string",
          "name": "dao_uri",
          "type": "string"
        },
        {
          "internalType": "string",
          "name": "finished",
          "type": "string"
        }
      ],
      "stateMutability": "view",
      "type": "function"
    },
    {
      "inputs": [
        {
          "internalType": "uint256",
          "name": "",
          "type": "uint256"
        }
      ],
      "name": "_donated",
      "outputs": [
        {
          "internalType": "uint256",
          "name": "",
          "type": "uint256"
        }
      ],
      "stateMutability": "view",
      "type": "function"
    },
    {
      "inputs": [
        {
          "internalType": "uint256",
          "name": "",
          "type": "uint256"
        }
      ],
      "name": "_donations",
      "outputs": [
        {
          "internalType": "uint256",
          "name": "ideas_id",
          "type": "uint256"
        },
        {
          "internalType": "uint256",
          "name": "userid",
          "type": "uint256"
        },
        {
          "internalType": "uint256",
          "name": "donation",
          "type": "uint256"
        }
      ],
      "stateMutability": "view",
      "type": "function"
    },
    {
      "inputs": [],
      "name": "_donations_ids",
      "outputs": [
        {
          "internalType": "uint256",
          "name": "",
          "type": "uint256"
        }
      ],
      "stateMutability": "view",
      "type": "function"
    },
    {
      "inputs": [],
      "name": "_feed_ids",
      "outputs": [
        {
          "internalType": "uint256",
          "name": "",
          "type": "uint256"
        }
      ],
      "stateMutability": "view",
      "type": "function"
    },
    {
      "inputs": [
        {
          "internalType": "uint256",
          "name": "",
          "type": "uint256"
        }
      ],
      "name": "_feeds",
      "outputs": [
        {
          "internalType": "uint256",
          "name": "feed_id",
          "type": "uint256"
        },
        {
          "internalType": "uint256",
          "name": "date",
          "type": "uint256"
        },
        {
          "internalType": "string",
          "name": "Type",
          "type": "string"
        },
        {
          "internalType": "string",
          "name": "data",
          "type": "string"
        }
      ],
      "stateMutability": "view",
      "type": "function"
    },
    {
      "inputs": [],
      "name": "_goal_ids",
      "outputs": [
        {
          "internalType": "uint256",
          "name": "",
          "type": "uint256"
        }
      ],
      "stateMutability": "view",
      "type": "function"
    },
    {
      "inputs": [
        {
          "internalType": "uint256",
          "name": "",
          "type": "uint256"
        }
      ],
      "name": "_goal_uris",
      "outputs": [
        {
          "internalType": "string",
          "name": "dao_id",
          "type": "string"
        },
        {
          "internalType": "string",
          "name": "goal_uri",
          "type": "string"
        }
      ],
      "stateMutability": "view",
      "type": "function"
    },
    {
      "inputs": [],
      "name": "_ideas_ids",
      "outputs": [
        {
          "internalType": "uint256",
          "name": "",
          "type": "uint256"
        }
      ],
      "stateMutability": "view",
      "type": "function"
    },
    {
      "inputs": [
        {
          "internalType": "uint256",
          "name": "",
          "type": "uint256"
        }
      ],
      "name": "_ideas_uris",
      "outputs": [
        {
          "internalType": "uint256",
          "name": "goal_id",
          "type": "uint256"
        },
        {
          "internalType": "string",
          "name": "ideas_uri",
          "type": "string"
        },
        {
          "internalType": "uint256",
          "name": "donation",
          "type": "uint256"
        }
      ],
      "stateMutability": "view",
      "type": "function"
    },
    {
      "inputs": [],
      "name": "_ideas_vote_ids",
      "outputs": [
        {
          "internalType": "uint256",
          "name": "",
          "type": "uint256"
        }
      ],
      "stateMutability": "view",
      "type": "function"
    },
    {
      "inputs": [],
      "name": "_join_ids",
      "outputs": [
        {
          "internalType": "uint256",
          "name": "",
          "type": "uint256"
        }
      ],
      "stateMutability": "view",
      "type": "function"
    },
    {
      "inputs": [
        {
          "internalType": "uint256",
          "name": "",
          "type": "uint256"
        }
      ],
      "name": "_joined_person",
      "outputs": [
        {
          "internalType": "uint256",
          "name": "daoid",
          "type": "uint256"
        },
        {
          "internalType": "uint256",
          "name": "user_id",
          "type": "uint256"
        }
      ],
      "stateMutability": "view",
      "type": "function"
    },
    {
      "inputs": [],
      "name": "_message_ids",
      "outputs": [
        {
          "internalType": "uint256",
          "name": "",
          "type": "uint256"
        }
      ],
      "stateMutability": "view",
      "type": "function"
    },
    {
      "inputs": [],
      "name": "_message_read_ids",
      "outputs": [
        {
          "internalType": "uint256",
          "name": "",
          "type": "uint256"
        }
      ],
      "stateMutability": "view",
      "type": "function"
    },
    {
      "inputs": [],
      "name": "_reply_ids",
      "outputs": [
        {
          "internalType": "uint256",
          "name": "",
          "type": "uint256"
        }
      ],
      "stateMutability": "view",
      "type": "function"
    },
    {
      "inputs": [],
      "name": "_smart_contract_ids",
      "outputs": [
        {
          "internalType": "uint256",
          "name": "",
          "type": "uint256"
        }
      ],
      "stateMutability": "view",
      "type": "function"
    },
    {
      "inputs": [
        {
          "internalType": "uint256",
          "name": "",
          "type": "uint256"
        }
      ],
      "name": "_smart_contracts_uris",
      "outputs": [
        {
          "internalType": "uint256",
          "name": "smart_contract_id",
          "type": "uint256"
        },
        {
          "internalType": "uint256",
          "name": "ideas_id",
          "type": "uint256"
        },
        {
          "internalType": "string",
          "name": "smart_contract_uri",
          "type": "string"
        }
      ],
      "stateMutability": "view",
      "type": "function"
    },
    {
      "inputs": [
        {
          "internalType": "uint256",
          "name": "",
          "type": "uint256"
        }
      ],
      "name": "_template_uris",
      "outputs": [
        {
          "internalType": "string",
          "name": "",
          "type": "string"
        }
      ],
      "stateMutability": "view",
      "type": "function"
    },
    {
      "inputs": [
        {
          "internalType": "uint256",
          "name": "",
          "type": "uint256"
        }
      ],
      "name": "_user_badges",
      "outputs": [
        {
          "internalType": "uint256",
          "name": "user_id",
          "type": "uint256"
        },
        {
          "internalType": "bool",
          "name": "dao",
          "type": "bool"
        },
        {
          "internalType": "bool",
          "name": "joined",
          "type": "bool"
        },
        {
          "internalType": "bool",
          "name": "goal",
          "type": "bool"
        },
        {
          "internalType": "bool",
          "name": "ideas",
          "type": "bool"
        },
        {
          "internalType": "bool",
          "name": "vote",
          "type": "bool"
        },
        {
          "internalType": "bool",
          "name": "donation",
          "type": "bool"
        },
        {
          "internalType": "bool",
          "name": "comment",
          "type": "bool"
        },
        {
          "internalType": "bool",
          "name": "reply",
          "type": "bool"
        }
      ],
      "stateMutability": "view",
      "type": "function"
    },
    {
      "inputs": [
        {
          "internalType": "string",
          "name": "feed_text",
          "type": "string"
        },
        {
          "internalType": "string",
          "name": "_type",
          "type": "string"
        }
      ],
      "name": "add_Feed",
      "outputs": [],
      "stateMutability": "nonpayable",
      "type": "function"
    },
    {
      "inputs": [
        {
          "internalType": "uint256",
          "name": "_ideas_id",
          "type": "uint256"
        },
        {
          "internalType": "uint256",
          "name": "_doantion",
          "type": "uint256"
        },
        {
          "internalType": "uint256",
          "name": "_userid",
          "type": "uint256"
        },
        {
          "internalType": "string",
          "name": "_feed1",
          "type": "string"
        },
        {
          "internalType": "string",
          "name": "_feed2",
          "type": "string"
        }
      ],
      "name": "add_donation",
      "outputs": [],
      "stateMutability": "nonpayable",
      "type": "function"
    },
    {
      "inputs": [
        {
          "internalType": "uint256",
          "name": "",
          "type": "uint256"
        }
      ],
      "name": "all_goal_ideas_votes",
      "outputs": [
        {
          "internalType": "uint256",
          "name": "goal_id",
          "type": "uint256"
        },
        {
          "internalType": "uint256",
          "name": "ideas_id",
          "type": "uint256"
        },
        {
          "internalType": "uint256",
          "name": "user_id",
          "type": "uint256"
        }
      ],
      "stateMutability": "view",
      "type": "function"
    },
    {
      "inputs": [
        {
          "internalType": "uint256",
          "name": "",
          "type": "uint256"
        }
      ],
      "name": "all_messages",
      "outputs": [
        {
          "internalType": "uint256",
          "name": "message_id",
          "type": "uint256"
        },
        {
          "internalType": "uint256",
          "name": "ideas_id",
          "type": "uint256"
        },
        {
          "internalType": "string",
          "name": "message",
          "type": "string"
        },
        {
          "internalType": "string",
          "name": "sender",
          "type": "string"
        }
      ],
      "stateMutability": "view",
      "type": "function"
    },
    {
      "inputs": [
        {
          "internalType": "uint256",
          "name": "",
          "type": "uint256"
        }
      ],
      "name": "all_read_messages",
      "outputs": [
        {
          "internalType": "uint256",
          "name": "message_id",
          "type": "uint256"
        },
        {
          "internalType": "uint256",
          "name": "ideas_id",
          "type": "uint256"
        },
        {
          "internalType": "uint256",
          "name": "user_id",
          "type": "uint256"
        },
        {
          "internalType": "string",
          "name": "msg_type",
          "type": "string"
        }
      ],
      "stateMutability": "view",
      "type": "function"
    },
    {
      "inputs": [
        {
          "internalType": "uint256",
          "name": "",
          "type": "uint256"
        }
      ],
      "name": "all_replies",
      "outputs": [
        {
          "internalType": "uint256",
          "name": "reply_id",
          "type": "uint256"
        },
        {
          "internalType": "uint256",
          "name": "message_id",
          "type": "uint256"
        },
        {
          "internalType": "uint256",
          "name": "ideas_id",
          "type": "uint256"
        },
        {
          "internalType": "string",
          "name": "message",
          "type": "string"
        }
      ],
      "stateMutability": "view",
      "type": "function"
    },
    {
      "inputs": [
        {
          "internalType": "string",
          "name": "_dao_wallet",
          "type": "string"
        },
        {
          "internalType": "string",
          "name": "_dao_uri",
          "type": "string"
        },
        {
          "internalType": "string",
          "name": "_template",
          "type": "string"
        },
        {
          "internalType": "uint256",
          "name": "user_id",
          "type": "uint256"
        }
      ],
      "name": "create_dao",
      "outputs": [
        {
          "internalType": "uint256",
          "name": "",
          "type": "uint256"
        }
      ],
      "stateMutability": "nonpayable",
      "type": "function"
    },
    {
      "inputs": [
        {
          "internalType": "string",
          "name": "_goal_uri",
          "type": "string"
        },
        {
          "internalType": "string",
          "name": "_dao_id",
          "type": "string"
        },
        {
          "internalType": "uint256",
          "name": "_user_id",
          "type": "uint256"
        },
        {
          "internalType": "string",
          "name": "_feed",
          "type": "string"
        }
      ],
      "name": "create_goal",
      "outputs": [
        {
          "internalType": "uint256",
          "name": "",
          "type": "uint256"
        }
      ],
      "stateMutability": "nonpayable",
      "type": "function"
    },
    {
      "inputs": [
        {
          "internalType": "uint256",
          "name": "_goal_id",
          "type": "uint256"
        },
        {
          "internalType": "uint256",
          "name": "_ideas_id",
          "type": "uint256"
        },
        {
          "internalType": "uint256",
          "name": "_user_id",
          "type": "uint256"
        },
        {
          "internalType": "string",
          "name": "_feed",
          "type": "string"
        },
        {
          "internalType": "bool",
          "name": "feed_add",
          "type": "bool"
        }
      ],
      "name": "create_goal_ideas_vote",
      "outputs": [
        {
          "internalType": "uint256",
          "name": "",
          "type": "uint256"
        }
      ],
      "stateMutability": "nonpayable",
      "type": "function"
    },
    {
      "inputs": [
        {
          "internalType": "string",
          "name": "_ideas_uri",
          "type": "string"
        },
        {
          "internalType": "uint256",
          "name": "_goal_id",
          "type": "uint256"
        },
        {
          "internalType": "string[]",
          "name": "_smart_contracts",
          "type": "string[]"
        },
        {
          "internalType": "uint256",
          "name": "_user_id",
          "type": "uint256"
        },
        {
          "internalType": "string",
          "name": "_feed",
          "type": "string"
        }
      ],
      "name": "create_ideas",
      "outputs": [
        {
          "internalType": "uint256",
          "name": "",
          "type": "uint256"
        }
      ],
      "stateMutability": "nonpayable",
      "type": "function"
    },
    {
      "inputs": [
        {
          "internalType": "uint256",
          "name": "_dao_id",
          "type": "uint256"
        }
      ],
      "name": "dao_uri",
      "outputs": [
        {
          "internalType": "string",
          "name": "",
          "type": "string"
        }
      ],
      "stateMutability": "view",
      "type": "function"
    },
    {
      "inputs": [
        {
          "internalType": "uint256",
          "name": "ideas_id",
          "type": "uint256"
        }
      ],
      "name": "getMsgIDs",
      "outputs": [
        {
          "internalType": "uint256[]",
          "name": "",
          "type": "uint256[]"
        }
      ],
      "stateMutability": "view",
      "type": "function"
    },
    {
      "inputs": [
        {
          "internalType": "uint256",
          "name": "_message_id",
          "type": "uint256"
        },
        {
          "internalType": "string",
          "name": "msg_type",
          "type": "string"
        }
      ],
      "name": "getReadMsg",
      "outputs": [
        {
          "internalType": "bool",
          "name": "",
          "type": "bool"
        }
      ],
      "stateMutability": "view",
      "type": "function"
    },
    {
      "inputs": [
        {
          "internalType": "uint256",
          "name": "message_id",
          "type": "uint256"
        }
      ],
      "name": "getReplyIDs",
      "outputs": [
        {
          "internalType": "uint256[]",
          "name": "",
          "type": "uint256[]"
        }
      ],
      "stateMutability": "view",
      "type": "function"
    },
    {
      "inputs": [],
      "name": "get_all_daos",
      "outputs": [
        {
          "internalType": "string[]",
          "name": "",
          "type": "string[]"
        }
      ],
      "stateMutability": "view",
      "type": "function"
    },
    {
      "inputs": [],
      "name": "get_all_goals",
      "outputs": [
        {
          "internalType": "string[]",
          "name": "",
          "type": "string[]"
        }
      ],
      "stateMutability": "view",
      "type": "function"
    },
    {
      "inputs": [
        {
          "internalType": "string",
          "name": "_dao_id",
          "type": "string"
        }
      ],
      "name": "get_all_goals_by_dao_id",
      "outputs": [
        {
          "internalType": "string[]",
          "name": "",
          "type": "string[]"
        }
      ],
      "stateMutability": "view",
      "type": "function"
    },
    {
      "inputs": [],
      "name": "get_all_ideas",
      "outputs": [
        {
          "internalType": "string[]",
          "name": "",
          "type": "string[]"
        }
      ],
      "stateMutability": "view",
      "type": "function"
    },
    {
      "inputs": [
        {
          "internalType": "uint256",
          "name": "_goal_id",
          "type": "uint256"
        }
      ],
      "name": "get_all_ideas_by_goal_id",
      "outputs": [
        {
          "internalType": "string[]",
          "name": "",
          "type": "string[]"
        }
      ],
      "stateMutability": "view",
      "type": "function"
    },
    {
      "inputs": [
        {
          "internalType": "uint256",
          "name": "ideas_id",
          "type": "uint256"
        }
      ],
      "name": "get_dao_id_by_ideas_id",
      "outputs": [
        {
          "internalType": "string",
          "name": "",
          "type": "string"
        }
      ],
      "stateMutability": "view",
      "type": "function"
    },
    {
      "inputs": [
        {
          "internalType": "string",
          "name": "_goal_uri",
          "type": "string"
        }
      ],
      "name": "get_goal_id_by_goal_uri",
      "outputs": [
        {
          "internalType": "uint256",
          "name": "",
          "type": "uint256"
        }
      ],
      "stateMutability": "view",
      "type": "function"
    },
    {
      "inputs": [
        {
          "internalType": "string",
          "name": "_ideas_uri",
          "type": "string"
        }
      ],
      "name": "get_goal_id_from_ideas_uri",
      "outputs": [
        {
          "internalType": "uint256",
          "name": "",
          "type": "uint256"
        }
      ],
      "stateMutability": "view",
      "type": "function"
    },
    {
      "inputs": [
        {
          "internalType": "string",
          "name": "_ideas_uri",
          "type": "string"
        }
      ],
      "name": "get_ideas_id_by_ideas_uri",
      "outputs": [
        {
          "internalType": "uint256",
          "name": "",
          "type": "uint256"
        }
      ],
      "stateMutability": "view",
      "type": "function"
    },
    {
      "inputs": [
        {
          "internalType": "uint256",
          "name": "_goal_id",
          "type": "uint256"
        },
        {
          "internalType": "uint256",
          "name": "_ideas_id",
          "type": "uint256"
        }
      ],
      "name": "get_ideas_votes_from_goal",
      "outputs": [
        {
          "internalType": "string[]",
          "name": "",
          "type": "string[]"
        }
      ],
      "stateMutability": "view",
      "type": "function"
    },
    {
      "inputs": [
        {
          "internalType": "uint256",
          "name": "dao_id",
          "type": "uint256"
        },
        {
          "internalType": "uint256",
          "name": "person",
          "type": "uint256"
        }
      ],
      "name": "get_person_joinedID",
      "outputs": [
        {
          "internalType": "uint256",
          "name": "",
          "type": "uint256"
        }
      ],
      "stateMutability": "view",
      "type": "function"
    },
    {
      "inputs": [
        {
          "internalType": "uint256",
          "name": "_goal_id",
          "type": "uint256"
        }
      ],
      "name": "goal_uri",
      "outputs": [
        {
          "internalType": "string",
          "name": "",
          "type": "string"
        }
      ],
      "stateMutability": "view",
      "type": "function"
    },
    {
      "inputs": [
        {
          "internalType": "uint256",
          "name": "_ideas_id",
          "type": "uint256"
        }
      ],
      "name": "ideas_uri",
      "outputs": [
        {
          "internalType": "string",
          "name": "",
          "type": "string"
        }
      ],
      "stateMutability": "view",
      "type": "function"
    },
    {
      "inputs": [
        {
          "internalType": "uint256",
          "name": "dao_id",
          "type": "uint256"
        },
        {
          "internalType": "uint256",
          "name": "person",
          "type": "uint256"
        }
      ],
      "name": "is_person_joined",
      "outputs": [
        {
          "internalType": "bool",
          "name": "",
          "type": "bool"
        }
      ],
      "stateMutability": "view",
      "type": "function"
    },
    {
      "inputs": [
        {
          "internalType": "uint256",
          "name": "dao_id",
          "type": "uint256"
        },
        {
          "internalType": "uint256",
          "name": "person",
          "type": "uint256"
        },
        {
          "internalType": "string",
          "name": "_feed",
          "type": "string"
        }
      ],
      "name": "join_community",
      "outputs": [],
      "stateMutability": "nonpayable",
      "type": "function"
    },
    {
      "inputs": [
        {
          "internalType": "uint256",
          "name": "join_id",
          "type": "uint256"
        }
      ],
      "name": "leave_community",
      "outputs": [],
      "stateMutability": "nonpayable",
      "type": "function"
    },
    {
      "inputs": [],
      "name": "reset_all",
      "outputs": [],
      "stateMutability": "nonpayable",
      "type": "function"
    },
    {
      "inputs": [
        {
          "internalType": "uint256",
          "name": "_ideas_id",
          "type": "uint256"
        },
        {
          "internalType": "string",
          "name": "_message",
          "type": "string"
        },
        {
          "internalType": "string",
          "name": "_sender",
          "type": "string"
        },
        {
          "internalType": "uint256",
          "name": "_user_id",
          "type": "uint256"
        }
      ],
      "name": "sendMsg",
      "outputs": [
        {
          "internalType": "uint256",
          "name": "",
          "type": "uint256"
        }
      ],
      "stateMutability": "nonpayable",
      "type": "function"
    },
    {
      "inputs": [
        {
          "internalType": "uint256",
          "name": "_message_id",
          "type": "uint256"
        },
        {
          "internalType": "uint256",
          "name": "_ideas_id",
          "type": "uint256"
        },
        {
          "internalType": "uint256",
          "name": "_wallet",
          "type": "uint256"
        },
        {
          "internalType": "string",
          "name": "msg_type",
          "type": "string"
        }
      ],
      "name": "sendReadMsg",
      "outputs": [
        {
          "internalType": "uint256",
          "name": "",
          "type": "uint256"
        }
      ],
      "stateMutability": "nonpayable",
      "type": "function"
    },
    {
      "inputs": [
        {
          "internalType": "uint256",
          "name": "_message_id",
          "type": "uint256"
        },
        {
          "internalType": "string",
          "name": "_reply",
          "type": "string"
        },
        {
          "internalType": "uint256",
          "name": "ideas_id",
          "type": "uint256"
        },
        {
          "internalType": "uint256",
          "name": "_userid",
          "type": "uint256"
        }
      ],
      "name": "sendReply",
      "outputs": [
        {
          "internalType": "uint256",
          "name": "",
          "type": "uint256"
        }
      ],
      "stateMutability": "nonpayable",
      "type": "function"
    },
    {
      "inputs": [
        {
          "internalType": "uint256",
          "name": "_dao_id",
          "type": "uint256"
        },
        {
          "internalType": "string",
          "name": "_dao_wallet",
          "type": "string"
        },
        {
          "internalType": "string",
          "name": "_dao_uri",
          "type": "string"
        }
      ],
      "name": "set_dao",
      "outputs": [],
      "stateMutability": "nonpayable",
      "type": "function"
    },
    {
      "inputs": [
        {
          "internalType": "uint256",
          "name": "_goal_id",
          "type": "uint256"
        },
        {
          "internalType": "string",
          "name": "_goal_uri",
          "type": "string"
        }
      ],
      "name": "set_goal",
      "outputs": [],
      "stateMutability": "nonpayable",
      "type": "function"
    },
    {
      "inputs": [
        {
          "internalType": "uint256",
          "name": "_ideas_id",
          "type": "uint256"
        },
        {
          "internalType": "string",
          "name": "_ideas_uri",
          "type": "string"
        }
      ],
      "name": "set_ideas",
      "outputs": [],
      "stateMutability": "nonpayable",
      "type": "function"
    },
    {
      "inputs": [
        {
          "internalType": "uint256",
          "name": "_dao_id",
          "type": "uint256"
        },
        {
          "internalType": "string",
          "name": "_template",
          "type": "string"
        }
      ],
      "name": "update_template",
      "outputs": [],
      "stateMutability": "nonpayable",
      "type": "function"
    }
  ],
  "transactionHash": "0x1f62c5c53a1408e6bd43cb719592123d5383d14cf978bb5e5316a39692a69586",
  "args": [],
  "numDeployments": 4,
  "solcInputHash": "a523ca72a2addeb0fe8cc5b47b8a4226",
  "bytecode": "0x608060405234801561001057600080fd5b50614b94806100206000396000f3fe608060405234801561001057600080fd5b50600436106103995760003560e01c806387633eb2116101e9578063b604efaa1161010f578063cd230809116100ad578063e32acc1a1161007c578063e32acc1a14610c5c578063ec24580214610c8c578063ecde324314610caa578063ff4a37ef14610cda57610399565b8063cd23080914610bae578063d3791b2014610bde578063d9fc52db14610bfc578063e1b011a014610c2c57610399565b8063c04fe978116100e9578063c04fe97814610b23578063c29595c514610b41578063ca013f1714610b5d578063cace8d4614610b7b57610399565b8063b604efaa14610abb578063bda0033514610aeb578063c04e743014610b0757610399565b806397ee760611610187578063aa4cdf2a11610156578063aa4cdf2a14610a1e578063b16060a614610a4e578063b39a38bd14610a58578063b527d45e14610a8857610399565b806397ee76061461097a578063a1ca917814610998578063a428a47f146109c8578063aa2bf5d314610a0057610399565b80638c70034a116101c35780638c70034a146108e05780638d3d2595146108fc5780639077007d1461092c578063934c5f001461094a57610399565b806387633eb21461088a578063881de858146108a65780638ac4110c146108c257610399565b80634a797bd7116102ce5780637a82b1d61161026c578063803f5b9f1161023b578063803f5b9f146107de578063812fae1f1461080e578063826eeefe1461083e57806386ffa45b1461085a57610399565b80637a82b1d61461072d5780637bbd582d1461075d5780637f2035d41461077b5780637fc543ec146107ac57610399565b80635996278f116102a85780635996278f146106815780635d907da11461069d5780636ecda4ee146106cd578063787f19c7146106fd57610399565b80634a797bd7146106005780634be7adb51461061e57806354a9fb181461064e57610399565b806320959ed01161033b578063330b8f2611610315578063330b8f261461053a57806338a512d91461056b5780633f87a2f41461059b578063468d0c80146105ce57610399565b806320959ed0146104ba57806327a568b9146104ea57806329b56f601461051c57610399565b806313bf4cea1161037757806313bf4cea1461041c5780631b592aeb1461043a5780631ba44c4c146104585780631e9ac9f51461048a57610399565b80630377d44a1461039e5780631171b621146103ce578063131d44f2146103ec575b600080fd5b6103b860048036038101906103b39190613823565b610d0c565b6040516103c591906139ad565b60405180910390f35b6103d6610e96565b6040516103e391906139e8565b60405180910390f35b61040660048036038101906104019190613a2f565b610e9c565b60405161041391906139ad565b60405180910390f35b61042461100b565b60405161043191906139e8565b60405180910390f35b610442611011565b60405161044f91906139e8565b60405180910390f35b610472600480360381019061046d9190613a2f565b611017565b60405161048193929190613a5c565b60405180910390f35b6104a4600480360381019061049f9190613823565b611041565b6040516104b191906139e8565b60405180910390f35b6104d460048036038101906104cf9190613a2f565b6110b2565b6040516104e191906139e8565b60405180910390f35b61050460048036038101906104ff9190613a2f565b6110ca565b60405161051393929190613add565b60405180910390f35b61052461128c565b60405161053191906139ad565b60405180910390f35b610554600480360381019061054f9190613a2f565b6113c7565b604051610562929190613b29565b60405180910390f35b61058560048036038101906105809190613a2f565b6113eb565b6040516105929190613b52565b60405180910390f35b6105b560048036038101906105b09190613a2f565b6114b5565b6040516105c59493929190613b74565b60405180910390f35b6105e860048036038101906105e39190613a2f565b61156d565b6040516105f793929190613bc0565b60405180910390f35b61060861161f565b60405161061591906139e8565b60405180910390f35b61063860048036038101906106339190613bfe565b611625565b60405161064591906139ad565b60405180910390f35b61066860048036038101906106639190613a2f565b611737565b6040516106789493929190613c3e565b60405180910390f35b61069b60048036038101906106969190613c91565b611877565b005b6106b760048036038101906106b29190613a2f565b611a1b565b6040516106c49190613b52565b60405180910390f35b6106e760048036038101906106e29190613a2f565b611ac3565b6040516106f49190613b52565b60405180910390f35b61071760048036038101906107129190613d44565b611b63565b60405161072491906139e8565b60405180910390f35b61074760048036038101906107429190613bfe565b611c34565b6040516107549190613dfe565b60405180910390f35b610765611cae565b60405161077291906139e8565b60405180910390f35b61079560048036038101906107909190613a2f565b611cb4565b6040516107a3929190613e19565b60405180910390f35b6107c660048036038101906107c19190613a2f565b611de8565b6040516107d593929190613a5c565b60405180910390f35b6107f860048036038101906107f39190613a2f565b611e12565b6040516108059190613f0e565b60405180910390f35b61082860048036038101906108239190613a2f565b611ef5565b6040516108359190613f0e565b60405180910390f35b61085860048036038101906108539190613a2f565b611fd8565b005b610874600480360381019061086f9190613f30565b61201e565b60405161088191906139e8565b60405180910390f35b6108a4600480360381019061089f9190613feb565b61213e565b005b6108c060048036038101906108bb9190614047565b612163565b005b6108ca6121b0565b6040516108d791906139e8565b60405180910390f35b6108fa60048036038101906108f591906140d2565b6121b6565b005b61091660048036038101906109119190613a2f565b612282565b6040516109239190613b52565b60405180910390f35b61093461232a565b60405161094191906139e8565b60405180910390f35b610964600480360381019061095f9190614141565b612330565b60405161097191906139e8565b60405180910390f35b6109826123c4565b60405161098f91906139ad565b60405180910390f35b6109b260048036038101906109ad9190613823565b6124ff565b6040516109bf91906139e8565b60405180910390f35b6109e260048036038101906109dd9190613a2f565b612570565b6040516109f7999897969594939291906141c4565b60405180910390f35b610a08612626565b604051610a1591906139e8565b60405180910390f35b610a386004803603810190610a339190613823565b61262c565b604051610a4591906139e8565b60405180910390f35b610a566126b3565b005b610a726004803603810190610a6d9190614251565b612965565b604051610a7f91906139e8565b60405180910390f35b610aa26004803603810190610a9d9190613a2f565b612a53565b604051610ab29493929190613c3e565b60405180910390f35b610ad56004803603810190610ad09190613bfe565b612b93565b604051610ae291906139e8565b60405180910390f35b610b056004803603810190610b00919061430c565b612c0d565b005b610b216004803603810190610b1c9190613feb565b612ca4565b005b610b2b612ccc565b604051610b3891906139ad565b60405180910390f35b610b5b6004803603810190610b569190613feb565b612e06565b005b610b65612e2e565b604051610b7291906139e8565b60405180910390f35b610b956004803603810190610b909190613a2f565b612e34565b604051610ba59493929190613b74565b60405180910390f35b610bc86004803603810190610bc39190613feb565b612eec565b604051610bd59190613dfe565b60405180910390f35b610be6612f7d565b604051610bf391906139e8565b60405180910390f35b610c166004803603810190610c119190614384565b612f83565b604051610c2391906139e8565b60405180910390f35b610c466004803603810190610c4191906144ed565b613048565b604051610c5391906139e8565b60405180910390f35b610c766004803603810190610c719190613a2f565b61319d565b604051610c839190613b52565b60405180910390f35b610c94613245565b604051610ca191906139e8565b60405180910390f35b610cc46004803603810190610cbf91906145e8565b61324b565b604051610cd191906139e8565b60405180910390f35b610cf46004803603810190610cef9190613a2f565b613339565b604051610d039392919061467f565b60405180910390f35b6060600060025467ffffffffffffffff811115610d2c57610d2b6136f8565b5b604051908082528060200260200182016040528015610d5f57816020015b6060815260200190600190039081610d4a5790505b509050600080600090505b600254811015610e8b578480519060200120600e6000838152602001908152602001600020600001604051610d9f91906147c0565b604051809103902003610e7857600e60008281526020019081526020016000206001018054610dcd906146ec565b80601f0160208091040260200160405190810160405280929190818152602001828054610df9906146ec565b8015610e465780601f10610e1b57610100808354040283529160200191610e46565b820191906000526020600020905b815481529060010190602001808311610e2957829003601f168201915b5050505050838381518110610e5e57610e5d6147d7565b5b60200260200101819052508180610e7490614835565b9250505b8080610e8390614835565b915050610d6a565b508192505050919050565b60045481565b6060600060035467ffffffffffffffff811115610ebc57610ebb6136f8565b5b604051908082528060200260200182016040528015610eef57816020015b6060815260200190600190039081610eda5790505b509050600080600090505b6003548110156110005784600f60008381526020019081526020016000206000015403610fdf57600f60008281526020019081526020016000206001018054610f42906146ec565b80601f0160208091040260200160405190810160405280929190818152602001828054610f6e906146ec565b8015610fbb5780601f10610f9057610100808354040283529160200191610fbb565b820191906000526020600020905b815481529060010190602001808311610f9e57829003601f168201915b5050505050838381518110610fd357610fd26147d7565b5b60200260200101819052505b8180610fea90614835565b9250508080610ff890614835565b915050610efa565b508192505050919050565b60025481565b60055481565b60146020528060005260406000206000915090508060000154908060010154908060020154905083565b600080600090505b6002548110156110a7578280519060200120600e600083815260200190815260200160002060010160405161107e91906147c0565b60405180910390200361109457809150506110ad565b808061109f90614835565b915050611049565b50600090505b919050565b60106020528060005260406000206000915090505481565b600b6020528060005260406000206000915090508060000180546110ed906146ec565b80601f0160208091040260200160405190810160405280929190818152602001828054611119906146ec565b80156111665780601f1061113b57610100808354040283529160200191611166565b820191906000526020600020905b81548152906001019060200180831161114957829003601f168201915b50505050509080600101805461117b906146ec565b80601f01602080910402602001604051908101604052809291908181526020018280546111a7906146ec565b80156111f45780601f106111c9576101008083540402835291602001916111f4565b820191906000526020600020905b8154815290600101906020018083116111d757829003601f168201915b505050505090806002018054611209906146ec565b80601f0160208091040260200160405190810160405280929190818152602001828054611235906146ec565b80156112825780601f1061125757610100808354040283529160200191611282565b820191906000526020600020905b81548152906001019060200180831161126557829003601f168201915b5050505050905083565b6060600060025467ffffffffffffffff8111156112ac576112ab6136f8565b5b6040519080825280602002602001820160405280156112df57816020015b60608152602001906001900390816112ca5790505b50905060005b6002548110156113bf57600e60008281526020019081526020016000206001018054611310906146ec565b80601f016020809104026020016040519081016040528092919081815260200182805461133c906146ec565b80156113895780601f1061135e57610100808354040283529160200191611389565b820191906000526020600020905b81548152906001019060200180831161136c57829003601f168201915b50505050508282815181106113a1576113a06147d7565b5b602002602001018190525080806113b790614835565b9150506112e5565b508091505090565b600d6020528060005260406000206000915090508060000154908060010154905082565b60606000600f60008481526020019081526020016000206000015490506000600e6000838152602001908152602001600020600001805461142b906146ec565b80601f0160208091040260200160405190810160405280929190818152602001828054611457906146ec565b80156114a45780601f10611479576101008083540402835291602001916114a4565b820191906000526020600020905b81548152906001019060200180831161148757829003601f168201915b505050505090508092505050919050565b60176020528060005260406000206000915090508060000154908060010154908060020154908060030180546114ea906146ec565b80601f0160208091040260200160405190810160405280929190818152602001828054611516906146ec565b80156115635780601f1061153857610100808354040283529160200191611563565b820191906000526020600020905b81548152906001019060200180831161154657829003601f168201915b5050505050905084565b600f602052806000526040600020600091509050806000015490806001018054611596906146ec565b80601f01602080910402602001604051908101604052809291908181526020018280546115c2906146ec565b801561160f5780601f106115e45761010080835404028352916020019161160f565b820191906000526020600020905b8154815290600101906020018083116115f257829003601f168201915b5050505050908060020154905083565b60065481565b6060600060065467ffffffffffffffff811115611645576116446136f8565b5b60405190808252806020026020018201604052801561167857816020015b60608152602001906001900390816116635790505b509050600080600090505b60065481101561172b578560146000838152602001908152602001600020600001541480156116c75750846014600083815260200190815260200160002060010154145b1561170a576116eb60146000838152602001908152602001600020600201546133eb565b8383815181106116fe576116fd6147d7565b5b60200260200101819052505b818061171590614835565b925050808061172390614835565b915050611683565b50819250505092915050565b6011602052806000526040600020600091509050806000015490806001015490806002018054611766906146ec565b80601f0160208091040260200160405190810160405280929190818152602001828054611792906146ec565b80156117df5780601f106117b4576101008083540402835291602001916117df565b820191906000526020600020905b8154815290600101906020018083116117c257829003601f168201915b5050505050908060030180546117f4906146ec565b80601f0160208091040260200160405190810160405280929190818152602001828054611820906146ec565b801561186d5780601f106118425761010080835404028352916020019161186d565b820191906000526020600020905b81548152906001019060200180831161185057829003601f168201915b5050505050905084565b600015156018600085815260200190815260200160002060010160059054906101000a900460ff161515036118e6576118e5826040518060400160405280600581526020017f6261646765000000000000000000000000000000000000000000000000000000815250612c0d565b5b611925816040518060400160405280600881526020017f646f6e6174696f6e000000000000000000000000000000000000000000000000815250612c0d565b60016018600085815260200190815260200160002060010160056101000a81548160ff02191690831515021790555083600f6000878152602001908152602001600020600201600082825461197a919061487d565b92505081905550836010600085815260200190815260200160002060008282546119a4919061487d565b9250508190555060405180606001604052808681526020018481526020018581525060126000600154815260200190815260200160002060008201518160000155602082015181600101556040820151816002015590505060016000815480929190611a0f90614835565b91905055505050505050565b6060600b60008381526020019081526020016000206001018054611a3e906146ec565b80601f0160208091040260200160405190810160405280929190818152602001828054611a6a906146ec565b8015611ab75780601f10611a8c57610100808354040283529160200191611ab7565b820191906000526020600020905b815481529060010190602001808311611a9a57829003601f168201915b50505050509050919050565b600c6020528060005260406000206000915090508054611ae2906146ec565b80601f0160208091040260200160405190810160405280929190818152602001828054611b0e906146ec565b8015611b5b5780601f10611b3057610100808354040283529160200191611b5b565b820191906000526020600020905b815481529060010190602001808311611b3e57829003601f168201915b505050505081565b600060016018600084815260200190815260200160002060010160066101000a81548160ff021916908315150217905550604051806080016040528060075481526020018681526020018581526020018481525060156000600754815260200190815260200160002060008201518160000155602082015181600101556040820151816002019081611bf59190614a5d565b506060820151816003019081611c0b9190614a5d565b5090505060076000815480929190611c2290614835565b91905055506007549050949350505050565b600080600090505b600454811015611ca25782600d600083815260200190815260200160002060010154148015611c80575083600d600083815260200190815260200160002060000154145b15611c8f576001915050611ca8565b8080611c9a90614835565b915050611c3c565b50600090505b92915050565b60005481565b600e602052806000526040600020600091509050806000018054611cd7906146ec565b80601f0160208091040260200160405190810160405280929190818152602001828054611d03906146ec565b8015611d505780601f10611d2557610100808354040283529160200191611d50565b820191906000526020600020905b815481529060010190602001808311611d3357829003601f168201915b505050505090806001018054611d65906146ec565b80601f0160208091040260200160405190810160405280929190818152602001828054611d91906146ec565b8015611dde5780601f10611db357610100808354040283529160200191611dde565b820191906000526020600020905b815481529060010190602001808311611dc157829003601f168201915b5050505050905082565b60126020528060005260406000206000915090508060000154908060010154908060020154905083565b6060600060075467ffffffffffffffff811115611e3257611e316136f8565b5b604051908082528060200260200182016040528015611e605781602001602082028036833780820191505090505b509050600080600090505b600754811015611eea5784601560008381526020019081526020016000206001015403611ed7576015600082815260200190815260200160002060000154838381518110611ebc57611ebb6147d7565b5b6020026020010181815250508180611ed390614835565b9250505b8080611ee290614835565b915050611e6b565b508192505050919050565b6060600060095467ffffffffffffffff811115611f1557611f146136f8565b5b604051908082528060200260200182016040528015611f435781602001602082028036833780820191505090505b509050600080600090505b600954811015611fcd5784601760008381526020019081526020016000206001015403611fba576017600082815260200190815260200160002060000154838381518110611f9f57611f9e6147d7565b5b6020026020010181815250508180611fb690614835565b9250505b8080611fc590614835565b915050611f4e565b508192505050919050565b604051806040016040528061270f815260200161270f815250600d6000838152602001908152602001600020600082015181600001556020820151816001015590505050565b600060405180606001604052808681526020018581526020016040518060400160405280600581526020017f46616c7365000000000000000000000000000000000000000000000000000000815250815250600b60008054815260200190815260200160002060008201518160000190816120999190614a5d565b5060208201518160010190816120af9190614a5d565b5060408201518160020190816120c59190614a5d565b5090505082600c60008054815260200190815260200160002090816120ea9190614a5d565b5060016018600084815260200190815260200160002060010160006101000a81548160ff02191690831515021790555060008081548092919061212c90614835565b91905055506000549050949350505050565b80600c6000848152602001908152602001600020908161215e9190614a5d565b505050565b81600b600085815260200190815260200160002060000190816121869190614a5d565b5080600b600085815260200190815260200160002060010190816121aa9190614a5d565b50505050565b600a5481565b60016018600084815260200190815260200160002060010160016101000a81548160ff021916908315150217905550604051806040016040528084815260200183815250600d6000600454815260200190815260200160002060008201518160000155602082015181600101559050506004600081548092919061223990614835565b919050555061227d816040518060400160405280600481526020017f6a6f696e00000000000000000000000000000000000000000000000000000000815250612c0d565b505050565b6060600f600083815260200190815260200160002060010180546122a5906146ec565b80601f01602080910402602001604051908101604052809291908181526020018280546122d1906146ec565b801561231e5780601f106122f35761010080835404028352916020019161231e565b820191906000526020600020905b81548152906001019060200180831161230157829003601f168201915b50505050509050919050565b60075481565b6000604051806080016040528086815260200185815260200184815260200183815250601660006008548152602001908152602001600020600082015181600001556020820151816001015560408201518160020155606082015181600301908161239b9190614a5d565b50905050600860008154809291906123b290614835565b91905055506008549050949350505050565b6060600060035467ffffffffffffffff8111156123e4576123e36136f8565b5b60405190808252806020026020018201604052801561241757816020015b60608152602001906001900390816124025790505b50905060005b6003548110156124f757600f60008281526020019081526020016000206001018054612448906146ec565b80601f0160208091040260200160405190810160405280929190818152602001828054612474906146ec565b80156124c15780601f10612496576101008083540402835291602001916124c1565b820191906000526020600020905b8154815290600101906020018083116124a457829003601f168201915b50505050508282815181106124d9576124d86147d7565b5b602002602001018190525080806124ef90614835565b91505061241d565b508091505090565b600080600090505b600354811015612565578280519060200120600f600083815260200190815260200160002060010160405161253c91906147c0565b604051809103902003612552578091505061256b565b808061255d90614835565b915050612507565b50600090505b919050565b60186020528060005260406000206000915090508060000154908060010160009054906101000a900460ff16908060010160019054906101000a900460ff16908060010160029054906101000a900460ff16908060010160039054906101000a900460ff16908060010160049054906101000a900460ff16908060010160059054906101000a900460ff16908060010160069054906101000a900460ff16908060010160079054906101000a900460ff16905089565b60095481565b600080600090505b6003548110156126a8578280519060200120600f600083815260200190815260200160002060010160405161266991906147c0565b60405180910390200361269557600f6000828152602001908152602001600020600001549150506126ae565b80806126a090614835565b915050612634565b50600090505b919050565b60005b60005481101561271957600b6000828152602001908152602001600020600080820160006126e4919061366c565b6001820160006126f4919061366c565b600282016000612704919061366c565b5050808061271190614835565b9150506126b6565b5060005b60025481101561277057600e60008281526020019081526020016000206000808201600061274b919061366c565b60018201600061275b919061366c565b5050808061276890614835565b91505061271d565b5060005b6003548110156127c757600f60008281526020019081526020016000206000808201600090556001820160006127aa919061366c565b6002820160009055505080806127bf90614835565b915050612774565b5060005b60025481101561281e57601360008281526020019081526020016000206000808201600090556001820160009055600282016000612809919061366c565b5050808061281690614835565b9150506127cb565b5060005b60075481101561288557601560008281526020019081526020016000206000808201600090556001820160009055600282016000612860919061366c565b600382016000612870919061366c565b5050808061287d90614835565b915050612822565b5060005b6009548110156128e45760176000828152602001908152602001600020600080820160009055600182016000905560028201600090556003820160006128cf919061366c565b505080806128dc90614835565b915050612889565b5060005b6006548110156129335760146000828152602001908152602001600020600080820160009055600182016000905560028201600090555050808061292b90614835565b9150506128e8565b506000808190555060006002819055506000600381905550600060078190555060006009819055506000600681905550565b6000604051806040016040528085815260200186815250600e6000600254815260200190815260200160002060008201518160000190816129a69190614a5d565b5060208201518160010190816129bc9190614a5d565b5090505060016018600085815260200190815260200160002060010160026101000a81548160ff02191690831515021790555060026000815480929190612a0290614835565b9190505550612a46826040518060400160405280600481526020017f676f616c00000000000000000000000000000000000000000000000000000000815250612c0d565b6002549050949350505050565b6015602052806000526040600020600091509050806000015490806001015490806002018054612a82906146ec565b80601f0160208091040260200160405190810160405280929190818152602001828054612aae906146ec565b8015612afb5780601f10612ad057610100808354040283529160200191612afb565b820191906000526020600020905b815481529060010190602001808311612ade57829003601f168201915b505050505090806003018054612b10906146ec565b80601f0160208091040260200160405190810160405280929190818152602001828054612b3c906146ec565b8015612b895780601f10612b5e57610100808354040283529160200191612b89565b820191906000526020600020905b815481529060010190602001808311612b6c57829003601f168201915b5050505050905084565b600080600090505b600454811015612c005782600d600083815260200190815260200160002060010154148015612bdf575083600d600083815260200190815260200160002060000154145b15612bed5780915050612c07565b8080612bf890614835565b915050612b9b565b5061270f90505b92915050565b6040518060800160405280600a5481526020014281526020018281526020018381525060116000600a54815260200190815260200160002060008201518160000155602082015181600101556040820151816002019081612c6e9190614a5d565b506060820151816003019081612c849190614a5d565b50905050600a6000815480929190612c9b90614835565b91905055505050565b80600f60008481526020019081526020016000206001019081612cc79190614a5d565b505050565b60606000805467ffffffffffffffff811115612ceb57612cea6136f8565b5b604051908082528060200260200182016040528015612d1e57816020015b6060815260200190600190039081612d095790505b50905060005b600054811015612dfe57600b60008281526020019081526020016000206001018054612d4f906146ec565b80601f0160208091040260200160405190810160405280929190818152602001828054612d7b906146ec565b8015612dc85780601f10612d9d57610100808354040283529160200191612dc8565b820191906000526020600020905b815481529060010190602001808311612dab57829003601f168201915b5050505050828281518110612de057612ddf6147d7565b5b60200260200101819052508080612df690614835565b915050612d24565b508091505090565b80600e60008481526020019081526020016000206001019081612e299190614a5d565b505050565b60085481565b6016602052806000526040600020600091509050806000015490806001015490806002015490806003018054612e69906146ec565b80601f0160208091040260200160405190810160405280929190818152602001828054612e95906146ec565b8015612ee25780601f10612eb757610100808354040283529160200191612ee2565b820191906000526020600020905b815481529060010190602001808311612ec557829003601f168201915b5050505050905084565b6000806000905060005b600854811015612f7257846016600083815260200190815260200160002060000154148015612f55575060166000828152602001908152602001600020600301604051612f4391906147c0565b60405180910390208480519060200120145b15612f5f57600191505b8080612f6a90614835565b915050612ef6565b508091505092915050565b60035481565b600060016018600084815260200190815260200160002060010160076101000a81548160ff0219169083151502179055506040518060800160405280600954815260200186815260200184815260200185815250601760006009548152602001908152602001600020600082015181600001556020820151816001015560408201518160020155606082015181600301908161301f9190614a5d565b509050506009600081548092919061303690614835565b91905055506009549050949350505050565b600060405180606001604052808681526020018781526020016000815250600f6000600354815260200190815260200160002060008201518160000155602082015181600101908161309a9190614a5d565b506040820151816002015590505060016018600085815260200190815260200160002060010160036101000a81548160ff021916908315150217905550600360008154809291906130ea90614835565b919050555060005b845181101561314f57613124600354600554878481518110613117576131166147d7565b5b60200260200101516134b9565b6005600081548092919061313790614835565b9190505550808061314790614835565b9150506130f2565b5061318f826040518060400160405280600481526020017f6964656100000000000000000000000000000000000000000000000000000000815250612c0d565b600354905095945050505050565b6060600e600083815260200190815260200160002060010180546131c0906146ec565b80601f01602080910402602001604051908101604052809291908181526020018280546131ec906146ec565b80156132395780601f1061320e57610100808354040283529160200191613239565b820191906000526020600020905b81548152906001019060200180831161321c57829003601f168201915b50505050509050919050565b60015481565b600060016018600086815260200190815260200160002060010160046101000a81548160ff021916908315150217905550604051806060016040528087815260200186815260200185815250601460006006548152602001908152602001600020600082015181600001556020820151816001015560408201518160020155905050600660008154809291906132e090614835565b9190505550811561332b5761332a836040518060400160405280600481526020017f766f746500000000000000000000000000000000000000000000000000000000815250612c0d565b5b600654905095945050505050565b6013602052806000526040600020600091509050806000015490806001015490806002018054613368906146ec565b80601f0160208091040260200160405190810160405280929190818152602001828054613394906146ec565b80156133e15780601f106133b6576101008083540402835291602001916133e1565b820191906000526020600020905b8154815290600101906020018083116133c457829003601f168201915b5050505050905083565b6060600060016133fa84613519565b01905060008167ffffffffffffffff811115613419576134186136f8565b5b6040519080825280601f01601f19166020018201604052801561344b5781602001600182028036833780820191505090505b509050600082602001820190505b6001156134ae578080600190039150507f3031323334353637383961626364656600000000000000000000000000000000600a86061a8153600a85816134a2576134a1614b2f565b5b04945060008503613459575b819350505050919050565b60405180606001604052808481526020018381526020018281525060136000848152602001908152602001600020600082015181600001556020820151816001015560408201518160020190816135109190614a5d565b50905050505050565b600080600090507a184f03e93ff9f4daa797ed6e38ed64bf6a1f0100000000000000008310613577577a184f03e93ff9f4daa797ed6e38ed64bf6a1f010000000000000000838161356d5761356c614b2f565b5b0492506040810190505b6d04ee2d6d415b85acef810000000083106135b4576d04ee2d6d415b85acef810000000083816135aa576135a9614b2f565b5b0492506020810190505b662386f26fc1000083106135e357662386f26fc1000083816135d9576135d8614b2f565b5b0492506010810190505b6305f5e100831061360c576305f5e100838161360257613601614b2f565b5b0492506008810190505b612710831061363157612710838161362757613626614b2f565b5b0492506004810190505b60648310613654576064838161364a57613649614b2f565b5b0492506002810190505b600a8310613663576001810190505b80915050919050565b508054613678906146ec565b6000825580601f1061368a57506136a9565b601f0160209004906000526020600020908101906136a891906136ac565b5b50565b5b808211156136c55760008160009055506001016136ad565b5090565b6000604051905090565b600080fd5b600080fd5b600080fd5b600080fd5b6000601f19601f8301169050919050565b7f4e487b7100000000000000000000000000000000000000000000000000000000600052604160045260246000fd5b613730826136e7565b810181811067ffffffffffffffff8211171561374f5761374e6136f8565b5b80604052505050565b60006137626136c9565b905061376e8282613727565b919050565b600067ffffffffffffffff82111561378e5761378d6136f8565b5b613797826136e7565b9050602081019050919050565b82818337600083830152505050565b60006137c66137c184613773565b613758565b9050828152602081018484840111156137e2576137e16136e2565b5b6137ed8482856137a4565b509392505050565b600082601f83011261380a576138096136dd565b5b813561381a8482602086016137b3565b91505092915050565b600060208284031215613839576138386136d3565b5b600082013567ffffffffffffffff811115613857576138566136d8565b5b613863848285016137f5565b91505092915050565b600081519050919050565b600082825260208201905092915050565b6000819050602082019050919050565b600081519050919050565b600082825260208201905092915050565b60005b838110156138d25780820151818401526020810190506138b7565b60008484015250505050565b60006138e982613898565b6138f381856138a3565b93506139038185602086016138b4565b61390c816136e7565b840191505092915050565b600061392383836138de565b905092915050565b6000602082019050919050565b60006139438261386c565b61394d8185613877565b93508360208202850161395f85613888565b8060005b8581101561399b578484038952815161397c8582613917565b94506139878361392b565b925060208a01995050600181019050613963565b50829750879550505050505092915050565b600060208201905081810360008301526139c78184613938565b905092915050565b6000819050919050565b6139e2816139cf565b82525050565b60006020820190506139fd60008301846139d9565b92915050565b613a0c816139cf565b8114613a1757600080fd5b50565b600081359050613a2981613a03565b92915050565b600060208284031215613a4557613a446136d3565b5b6000613a5384828501613a1a565b91505092915050565b6000606082019050613a7160008301866139d9565b613a7e60208301856139d9565b613a8b60408301846139d9565b949350505050565b600082825260208201905092915050565b6000613aaf82613898565b613ab98185613a93565b9350613ac98185602086016138b4565b613ad2816136e7565b840191505092915050565b60006060820190508181036000830152613af78186613aa4565b90508181036020830152613b0b8185613aa4565b90508181036040830152613b1f8184613aa4565b9050949350505050565b6000604082019050613b3e60008301856139d9565b613b4b60208301846139d9565b9392505050565b60006020820190508181036000830152613b6c8184613aa4565b905092915050565b6000608082019050613b8960008301876139d9565b613b9660208301866139d9565b613ba360408301856139d9565b8181036060830152613bb58184613aa4565b905095945050505050565b6000606082019050613bd560008301866139d9565b8181036020830152613be78185613aa4565b9050613bf660408301846139d9565b949350505050565b60008060408385031215613c1557613c146136d3565b5b6000613c2385828601613a1a565b9250506020613c3485828601613a1a565b9150509250929050565b6000608082019050613c5360008301876139d9565b613c6060208301866139d9565b8181036040830152613c728185613aa4565b90508181036060830152613c868184613aa4565b905095945050505050565b600080600080600060a08688031215613cad57613cac6136d3565b5b6000613cbb88828901613a1a565b9550506020613ccc88828901613a1a565b9450506040613cdd88828901613a1a565b935050606086013567ffffffffffffffff811115613cfe57613cfd6136d8565b5b613d0a888289016137f5565b925050608086013567ffffffffffffffff811115613d2b57613d2a6136d8565b5b613d37888289016137f5565b9150509295509295909350565b60008060008060808587031215613d5e57613d5d6136d3565b5b6000613d6c87828801613a1a565b945050602085013567ffffffffffffffff811115613d8d57613d8c6136d8565b5b613d99878288016137f5565b935050604085013567ffffffffffffffff811115613dba57613db96136d8565b5b613dc6878288016137f5565b9250506060613dd787828801613a1a565b91505092959194509250565b60008115159050919050565b613df881613de3565b82525050565b6000602082019050613e136000830184613def565b92915050565b60006040820190508181036000830152613e338185613aa4565b90508181036020830152613e478184613aa4565b90509392505050565b600081519050919050565b600082825260208201905092915050565b6000819050602082019050919050565b613e85816139cf565b82525050565b6000613e978383613e7c565b60208301905092915050565b6000602082019050919050565b6000613ebb82613e50565b613ec58185613e5b565b9350613ed083613e6c565b8060005b83811015613f01578151613ee88882613e8b565b9750613ef383613ea3565b925050600181019050613ed4565b5085935050505092915050565b60006020820190508181036000830152613f288184613eb0565b905092915050565b60008060008060808587031215613f4a57613f496136d3565b5b600085013567ffffffffffffffff811115613f6857613f676136d8565b5b613f74878288016137f5565b945050602085013567ffffffffffffffff811115613f9557613f946136d8565b5b613fa1878288016137f5565b935050604085013567ffffffffffffffff811115613fc257613fc16136d8565b5b613fce878288016137f5565b9250506060613fdf87828801613a1a565b91505092959194509250565b60008060408385031215614002576140016136d3565b5b600061401085828601613a1a565b925050602083013567ffffffffffffffff811115614031576140306136d8565b5b61403d858286016137f5565b9150509250929050565b6000806000606084860312156140605761405f6136d3565b5b600061406e86828701613a1a565b935050602084013567ffffffffffffffff81111561408f5761408e6136d8565b5b61409b868287016137f5565b925050604084013567ffffffffffffffff8111156140bc576140bb6136d8565b5b6140c8868287016137f5565b9150509250925092565b6000806000606084860312156140eb576140ea6136d3565b5b60006140f986828701613a1a565b935050602061410a86828701613a1a565b925050604084013567ffffffffffffffff81111561412b5761412a6136d8565b5b614137868287016137f5565b9150509250925092565b6000806000806080858703121561415b5761415a6136d3565b5b600061416987828801613a1a565b945050602061417a87828801613a1a565b935050604061418b87828801613a1a565b925050606085013567ffffffffffffffff8111156141ac576141ab6136d8565b5b6141b8878288016137f5565b91505092959194509250565b6000610120820190506141da600083018c6139d9565b6141e7602083018b613def565b6141f4604083018a613def565b6142016060830189613def565b61420e6080830188613def565b61421b60a0830187613def565b61422860c0830186613def565b61423560e0830185613def565b614243610100830184613def565b9a9950505050505050505050565b6000806000806080858703121561426b5761426a6136d3565b5b600085013567ffffffffffffffff811115614289576142886136d8565b5b614295878288016137f5565b945050602085013567ffffffffffffffff8111156142b6576142b56136d8565b5b6142c2878288016137f5565b93505060406142d387828801613a1a565b925050606085013567ffffffffffffffff8111156142f4576142f36136d8565b5b614300878288016137f5565b91505092959194509250565b60008060408385031215614323576143226136d3565b5b600083013567ffffffffffffffff811115614341576143406136d8565b5b61434d858286016137f5565b925050602083013567ffffffffffffffff81111561436e5761436d6136d8565b5b61437a858286016137f5565b9150509250929050565b6000806000806080858703121561439e5761439d6136d3565b5b60006143ac87828801613a1a565b945050602085013567ffffffffffffffff8111156143cd576143cc6136d8565b5b6143d9878288016137f5565b93505060406143ea87828801613a1a565b92505060606143fb87828801613a1a565b91505092959194509250565b600067ffffffffffffffff821115614422576144216136f8565b5b602082029050602081019050919050565b600080fd5b600061444b61444684614407565b613758565b9050808382526020820190506020840283018581111561446e5761446d614433565b5b835b818110156144b557803567ffffffffffffffff811115614493576144926136dd565b5b8086016144a089826137f5565b85526020850194505050602081019050614470565b5050509392505050565b600082601f8301126144d4576144d36136dd565b5b81356144e4848260208601614438565b91505092915050565b600080600080600060a08688031215614509576145086136d3565b5b600086013567ffffffffffffffff811115614527576145266136d8565b5b614533888289016137f5565b955050602061454488828901613a1a565b945050604086013567ffffffffffffffff811115614565576145646136d8565b5b614571888289016144bf565b935050606061458288828901613a1a565b925050608086013567ffffffffffffffff8111156145a3576145a26136d8565b5b6145af888289016137f5565b9150509295509295909350565b6145c581613de3565b81146145d057600080fd5b50565b6000813590506145e2816145bc565b92915050565b600080600080600060a08688031215614604576146036136d3565b5b600061461288828901613a1a565b955050602061462388828901613a1a565b945050604061463488828901613a1a565b935050606086013567ffffffffffffffff811115614655576146546136d8565b5b614661888289016137f5565b9250506080614672888289016145d3565b9150509295509295909350565b600060608201905061469460008301866139d9565b6146a160208301856139d9565b81810360408301526146b38184613aa4565b9050949350505050565b7f4e487b7100000000000000000000000000000000000000000000000000000000600052602260045260246000fd5b6000600282049050600182168061470457607f821691505b602082108103614717576147166146bd565b5b50919050565b600081905092915050565b60008190508160005260206000209050919050565b6000815461474a816146ec565b614754818661471d565b9450600182166000811461476f5760018114614784576147b7565b60ff19831686528115158202860193506147b7565b61478d85614728565b60005b838110156147af57815481890152600182019150602081019050614790565b838801955050505b50505092915050565b60006147cc828461473d565b915081905092915050565b7f4e487b7100000000000000000000000000000000000000000000000000000000600052603260045260246000fd5b7f4e487b7100000000000000000000000000000000000000000000000000000000600052601160045260246000fd5b6000614840826139cf565b91507fffffffffffffffffffffffffffffffffffffffffffffffffffffffffffffffff820361487257614871614806565b5b600182019050919050565b6000614888826139cf565b9150614893836139cf565b92508282019050808211156148ab576148aa614806565b5b92915050565b60008190508160005260206000209050919050565b60006020601f8301049050919050565b600082821b905092915050565b6000600883026149137fffffffffffffffffffffffffffffffffffffffffffffffffffffffffffffffff826148d6565b61491d86836148d6565b95508019841693508086168417925050509392505050565b6000819050919050565b600061495a614955614950846139cf565b614935565b6139cf565b9050919050565b6000819050919050565b6149748361493f565b61498861498082614961565b8484546148e3565b825550505050565b600090565b61499d614990565b6149a881848461496b565b505050565b5b818110156149cc576149c1600082614995565b6001810190506149ae565b5050565b601f821115614a11576149e2816148b1565b6149eb846148c6565b810160208510156149fa578190505b614a0e614a06856148c6565b8301826149ad565b50505b505050565b600082821c905092915050565b6000614a3460001984600802614a16565b1980831691505092915050565b6000614a4d8383614a23565b9150826002028217905092915050565b614a6682613898565b67ffffffffffffffff811115614a7f57614a7e6136f8565b5b614a8982546146ec565b614a948282856149d0565b600060209050601f831160018114614ac75760008415614ab5578287015190505b614abf8582614a41565b865550614b27565b601f198416614ad5866148b1565b60005b82811015614afd57848901518255600182019150602085019450602081019050614ad8565b86831015614b1a5784890151614b16601f891682614a23565b8355505b6001600288020188555050505b505050505050565b7f4e487b7100000000000000000000000000000000000000000000000000000000600052601260045260246000fdfea264697066735822122011566b5c8ef08a9838007266a3f1d7994da72aafd5764c44dd81e76377f03ccc64736f6c63430008110033",
  "devdoc": {
    "kind": "dev",
    "methods": {},
    "version": 1
  },
  "userdoc": {
    "kind": "user",
    "methods": {},
    "version": 1
  },
  "storageLayout": {
    "storage": [
      {
        "astId": 2030,
        "contract": "contracts/PlanetDAO.sol:PlanetDAO",
        "label": "_dao_ids",
        "offset": 0,
        "slot": "0",
        "type": "t_uint256"
      },
      {
        "astId": 2032,
        "contract": "contracts/PlanetDAO.sol:PlanetDAO",
        "label": "_donations_ids",
        "offset": 0,
        "slot": "1",
        "type": "t_uint256"
      },
      {
        "astId": 2034,
        "contract": "contracts/PlanetDAO.sol:PlanetDAO",
        "label": "_goal_ids",
        "offset": 0,
        "slot": "2",
        "type": "t_uint256"
      },
      {
        "astId": 2036,
        "contract": "contracts/PlanetDAO.sol:PlanetDAO",
        "label": "_ideas_ids",
        "offset": 0,
        "slot": "3",
        "type": "t_uint256"
      },
      {
        "astId": 2038,
        "contract": "contracts/PlanetDAO.sol:PlanetDAO",
        "label": "_join_ids",
        "offset": 0,
        "slot": "4",
        "type": "t_uint256"
      },
      {
        "astId": 2040,
        "contract": "contracts/PlanetDAO.sol:PlanetDAO",
        "label": "_smart_contract_ids",
        "offset": 0,
        "slot": "5",
        "type": "t_uint256"
      },
      {
        "astId": 2042,
        "contract": "contracts/PlanetDAO.sol:PlanetDAO",
        "label": "_ideas_vote_ids",
        "offset": 0,
        "slot": "6",
        "type": "t_uint256"
      },
      {
        "astId": 2044,
        "contract": "contracts/PlanetDAO.sol:PlanetDAO",
        "label": "_message_ids",
        "offset": 0,
        "slot": "7",
        "type": "t_uint256"
      },
      {
        "astId": 2046,
        "contract": "contracts/PlanetDAO.sol:PlanetDAO",
        "label": "_message_read_ids",
        "offset": 0,
        "slot": "8",
        "type": "t_uint256"
      },
      {
        "astId": 2048,
        "contract": "contracts/PlanetDAO.sol:PlanetDAO",
        "label": "_reply_ids",
        "offset": 0,
        "slot": "9",
        "type": "t_uint256"
      },
      {
        "astId": 2050,
        "contract": "contracts/PlanetDAO.sol:PlanetDAO",
        "label": "_feed_ids",
        "offset": 0,
        "slot": "10",
        "type": "t_uint256"
      },
      {
        "astId": 2055,
        "contract": "contracts/PlanetDAO.sol:PlanetDAO",
        "label": "_dao_uris",
        "offset": 0,
        "slot": "11",
        "type": "t_mapping(t_uint256,t_struct(dao_uri_struct)1930_storage)"
      },
      {
        "astId": 2059,
        "contract": "contracts/PlanetDAO.sol:PlanetDAO",
        "label": "_template_uris",
        "offset": 0,
        "slot": "12",
        "type": "t_mapping(t_uint256,t_string_storage)"
      },
      {
        "astId": 2064,
        "contract": "contracts/PlanetDAO.sol:PlanetDAO",
        "label": "_joined_person",
        "offset": 0,
        "slot": "13",
        "type": "t_mapping(t_uint256,t_struct(join_struct)2000_storage)"
      },
      {
        "astId": 2069,
        "contract": "contracts/PlanetDAO.sol:PlanetDAO",
        "label": "_goal_uris",
        "offset": 0,
        "slot": "14",
        "type": "t_mapping(t_uint256,t_struct(goal_uri_struct)1935_storage)"
      },
      {
        "astId": 2074,
        "contract": "contracts/PlanetDAO.sol:PlanetDAO",
        "label": "_ideas_uris",
        "offset": 0,
        "slot": "15",
        "type": "t_mapping(t_uint256,t_struct(ideas_uri_struct)1942_storage)"
      },
      {
        "astId": 2078,
        "contract": "contracts/PlanetDAO.sol:PlanetDAO",
        "label": "_donated",
        "offset": 0,
        "slot": "16",
        "type": "t_mapping(t_uint256,t_uint256)"
      },
      {
        "astId": 2083,
        "contract": "contracts/PlanetDAO.sol:PlanetDAO",
        "label": "_feeds",
        "offset": 0,
        "slot": "17",
        "type": "t_mapping(t_uint256,t_struct(feed_struct)2028_storage)"
      },
      {
        "astId": 2088,
        "contract": "contracts/PlanetDAO.sol:PlanetDAO",
        "label": "_donations",
        "offset": 0,
        "slot": "18",
        "type": "t_mapping(t_uint256,t_struct(donation_struct)1949_storage)"
      },
      {
        "astId": 2093,
        "contract": "contracts/PlanetDAO.sol:PlanetDAO",
        "label": "_smart_contracts_uris",
        "offset": 0,
        "slot": "19",
        "type": "t_mapping(t_uint256,t_struct(smart_contract_uri_struct)1956_storage)"
      },
      {
        "astId": 2098,
        "contract": "contracts/PlanetDAO.sol:PlanetDAO",
        "label": "all_goal_ideas_votes",
        "offset": 0,
        "slot": "20",
        "type": "t_mapping(t_uint256,t_struct(goal_ideas_votes_struct)1963_storage)"
      },
      {
        "astId": 2103,
        "contract": "contracts/PlanetDAO.sol:PlanetDAO",
        "label": "all_messages",
        "offset": 0,
        "slot": "21",
        "type": "t_mapping(t_uint256,t_struct(message_struct)1972_storage)"
      },
      {
        "astId": 2108,
        "contract": "contracts/PlanetDAO.sol:PlanetDAO",
        "label": "all_read_messages",
        "offset": 0,
        "slot": "22",
        "type": "t_mapping(t_uint256,t_struct(message_read_struct)1981_storage)"
      },
      {
        "astId": 2113,
        "contract": "contracts/PlanetDAO.sol:PlanetDAO",
        "label": "all_replies",
        "offset": 0,
        "slot": "23",
        "type": "t_mapping(t_uint256,t_struct(reply_struct)1990_storage)"
      },
      {
        "astId": 2118,
        "contract": "contracts/PlanetDAO.sol:PlanetDAO",
        "label": "_user_badges",
        "offset": 0,
        "slot": "24",
        "type": "t_mapping(t_uint256,t_struct(user_badge_struct)2019_storage)"
      }
    ],
    "types": {
      "t_bool": {
        "encoding": "inplace",
        "label": "bool",
        "numberOfBytes": "1"
      },
      "t_mapping(t_uint256,t_string_storage)": {
        "encoding": "mapping",
        "key": "t_uint256",
        "label": "mapping(uint256 => string)",
        "numberOfBytes": "32",
        "value": "t_string_storage"
      },
      "t_mapping(t_uint256,t_struct(dao_uri_struct)1930_storage)": {
        "encoding": "mapping",
        "key": "t_uint256",
        "label": "mapping(uint256 => struct PlanetDAO.dao_uri_struct)",
        "numberOfBytes": "32",
        "value": "t_struct(dao_uri_struct)1930_storage"
      },
      "t_mapping(t_uint256,t_struct(donation_struct)1949_storage)": {
        "encoding": "mapping",
        "key": "t_uint256",
        "label": "mapping(uint256 => struct PlanetDAO.donation_struct)",
        "numberOfBytes": "32",
        "value": "t_struct(donation_struct)1949_storage"
      },
      "t_mapping(t_uint256,t_struct(feed_struct)2028_storage)": {
        "encoding": "mapping",
        "key": "t_uint256",
        "label": "mapping(uint256 => struct PlanetDAO.feed_struct)",
        "numberOfBytes": "32",
        "value": "t_struct(feed_struct)2028_storage"
      },
      "t_mapping(t_uint256,t_struct(goal_ideas_votes_struct)1963_storage)": {
        "encoding": "mapping",
        "key": "t_uint256",
        "label": "mapping(uint256 => struct PlanetDAO.goal_ideas_votes_struct)",
        "numberOfBytes": "32",
        "value": "t_struct(goal_ideas_votes_struct)1963_storage"
      },
      "t_mapping(t_uint256,t_struct(goal_uri_struct)1935_storage)": {
        "encoding": "mapping",
        "key": "t_uint256",
        "label": "mapping(uint256 => struct PlanetDAO.goal_uri_struct)",
        "numberOfBytes": "32",
        "value": "t_struct(goal_uri_struct)1935_storage"
      },
      "t_mapping(t_uint256,t_struct(ideas_uri_struct)1942_storage)": {
        "encoding": "mapping",
        "key": "t_uint256",
        "label": "mapping(uint256 => struct PlanetDAO.ideas_uri_struct)",
        "numberOfBytes": "32",
        "value": "t_struct(ideas_uri_struct)1942_storage"
      },
      "t_mapping(t_uint256,t_struct(join_struct)2000_storage)": {
        "encoding": "mapping",
        "key": "t_uint256",
        "label": "mapping(uint256 => struct PlanetDAO.join_struct)",
        "numberOfBytes": "32",
        "value": "t_struct(join_struct)2000_storage"
      },
      "t_mapping(t_uint256,t_struct(message_read_struct)1981_storage)": {
        "encoding": "mapping",
        "key": "t_uint256",
        "label": "mapping(uint256 => struct PlanetDAO.message_read_struct)",
        "numberOfBytes": "32",
        "value": "t_struct(message_read_struct)1981_storage"
      },
      "t_mapping(t_uint256,t_struct(message_struct)1972_storage)": {
        "encoding": "mapping",
        "key": "t_uint256",
        "label": "mapping(uint256 => struct PlanetDAO.message_struct)",
        "numberOfBytes": "32",
        "value": "t_struct(message_struct)1972_storage"
      },
      "t_mapping(t_uint256,t_struct(reply_struct)1990_storage)": {
        "encoding": "mapping",
        "key": "t_uint256",
        "label": "mapping(uint256 => struct PlanetDAO.reply_struct)",
        "numberOfBytes": "32",
        "value": "t_struct(reply_struct)1990_storage"
      },
      "t_mapping(t_uint256,t_struct(smart_contract_uri_struct)1956_storage)": {
        "encoding": "mapping",
        "key": "t_uint256",
        "label": "mapping(uint256 => struct PlanetDAO.smart_contract_uri_struct)",
        "numberOfBytes": "32",
        "value": "t_struct(smart_contract_uri_struct)1956_storage"
      },
      "t_mapping(t_uint256,t_struct(user_badge_struct)2019_storage)": {
        "encoding": "mapping",
        "key": "t_uint256",
        "label": "mapping(uint256 => struct PlanetDAO.user_badge_struct)",
        "numberOfBytes": "32",
        "value": "t_struct(user_badge_struct)2019_storage"
      },
      "t_mapping(t_uint256,t_uint256)": {
        "encoding": "mapping",
        "key": "t_uint256",
        "label": "mapping(uint256 => uint256)",
        "numberOfBytes": "32",
        "value": "t_uint256"
      },
      "t_string_storage": {
        "encoding": "bytes",
        "label": "string",
        "numberOfBytes": "32"
      },
      "t_struct(dao_uri_struct)1930_storage": {
        "encoding": "inplace",
        "label": "struct PlanetDAO.dao_uri_struct",
        "members": [
          {
            "astId": 1925,
            "contract": "contracts/PlanetDAO.sol:PlanetDAO",
            "label": "dao_wallet",
            "offset": 0,
            "slot": "0",
            "type": "t_string_storage"
          },
          {
            "astId": 1927,
            "contract": "contracts/PlanetDAO.sol:PlanetDAO",
            "label": "dao_uri",
            "offset": 0,
            "slot": "1",
            "type": "t_string_storage"
          },
          {
            "astId": 1929,
            "contract": "contracts/PlanetDAO.sol:PlanetDAO",
            "label": "finished",
            "offset": 0,
            "slot": "2",
            "type": "t_string_storage"
          }
        ],
        "numberOfBytes": "96"
      },
      "t_struct(donation_struct)1949_storage": {
        "encoding": "inplace",
        "label": "struct PlanetDAO.donation_struct",
        "members": [
          {
            "astId": 1944,
            "contract": "contracts/PlanetDAO.sol:PlanetDAO",
            "label": "ideas_id",
            "offset": 0,
            "slot": "0",
            "type": "t_uint256"
          },
          {
            "astId": 1946,
            "contract": "contracts/PlanetDAO.sol:PlanetDAO",
            "label": "userid",
            "offset": 0,
            "slot": "1",
            "type": "t_uint256"
          },
          {
            "astId": 1948,
            "contract": "contracts/PlanetDAO.sol:PlanetDAO",
            "label": "donation",
            "offset": 0,
            "slot": "2",
            "type": "t_uint256"
          }
        ],
        "numberOfBytes": "96"
      },
      "t_struct(feed_struct)2028_storage": {
        "encoding": "inplace",
        "label": "struct PlanetDAO.feed_struct",
        "members": [
          {
            "astId": 2021,
            "contract": "contracts/PlanetDAO.sol:PlanetDAO",
            "label": "feed_id",
            "offset": 0,
            "slot": "0",
            "type": "t_uint256"
          },
          {
            "astId": 2023,
            "contract": "contracts/PlanetDAO.sol:PlanetDAO",
            "label": "date",
            "offset": 0,
            "slot": "1",
            "type": "t_uint256"
          },
          {
            "astId": 2025,
            "contract": "contracts/PlanetDAO.sol:PlanetDAO",
            "label": "Type",
            "offset": 0,
            "slot": "2",
            "type": "t_string_storage"
          },
          {
            "astId": 2027,
            "contract": "contracts/PlanetDAO.sol:PlanetDAO",
            "label": "data",
            "offset": 0,
            "slot": "3",
            "type": "t_string_storage"
          }
        ],
        "numberOfBytes": "128"
      },
      "t_struct(goal_ideas_votes_struct)1963_storage": {
        "encoding": "inplace",
        "label": "struct PlanetDAO.goal_ideas_votes_struct",
        "members": [
          {
            "astId": 1958,
            "contract": "contracts/PlanetDAO.sol:PlanetDAO",
            "label": "goal_id",
            "offset": 0,
            "slot": "0",
            "type": "t_uint256"
          },
          {
            "astId": 1960,
            "contract": "contracts/PlanetDAO.sol:PlanetDAO",
            "label": "ideas_id",
            "offset": 0,
            "slot": "1",
            "type": "t_uint256"
          },
          {
            "astId": 1962,
            "contract": "contracts/PlanetDAO.sol:PlanetDAO",
            "label": "user_id",
            "offset": 0,
            "slot": "2",
            "type": "t_uint256"
          }
        ],
        "numberOfBytes": "96"
      },
      "t_struct(goal_uri_struct)1935_storage": {
        "encoding": "inplace",
        "label": "struct PlanetDAO.goal_uri_struct",
        "members": [
          {
            "astId": 1932,
            "contract": "contracts/PlanetDAO.sol:PlanetDAO",
            "label": "dao_id",
            "offset": 0,
            "slot": "0",
            "type": "t_string_storage"
          },
          {
            "astId": 1934,
            "contract": "contracts/PlanetDAO.sol:PlanetDAO",
            "label": "goal_uri",
            "offset": 0,
            "slot": "1",
            "type": "t_string_storage"
          }
        ],
        "numberOfBytes": "64"
      },
      "t_struct(ideas_uri_struct)1942_storage": {
        "encoding": "inplace",
        "label": "struct PlanetDAO.ideas_uri_struct",
        "members": [
          {
            "astId": 1937,
            "contract": "contracts/PlanetDAO.sol:PlanetDAO",
            "label": "goal_id",
            "offset": 0,
            "slot": "0",
            "type": "t_uint256"
          },
          {
            "astId": 1939,
            "contract": "contracts/PlanetDAO.sol:PlanetDAO",
            "label": "ideas_uri",
            "offset": 0,
            "slot": "1",
            "type": "t_string_storage"
          },
          {
            "astId": 1941,
            "contract": "contracts/PlanetDAO.sol:PlanetDAO",
            "label": "donation",
            "offset": 0,
            "slot": "2",
            "type": "t_uint256"
          }
        ],
        "numberOfBytes": "96"
      },
      "t_struct(join_struct)2000_storage": {
        "encoding": "inplace",
        "label": "struct PlanetDAO.join_struct",
        "members": [
          {
            "astId": 1997,
            "contract": "contracts/PlanetDAO.sol:PlanetDAO",
            "label": "daoid",
            "offset": 0,
            "slot": "0",
            "type": "t_uint256"
          },
          {
            "astId": 1999,
            "contract": "contracts/PlanetDAO.sol:PlanetDAO",
            "label": "user_id",
            "offset": 0,
            "slot": "1",
            "type": "t_uint256"
          }
        ],
        "numberOfBytes": "64"
      },
      "t_struct(message_read_struct)1981_storage": {
        "encoding": "inplace",
        "label": "struct PlanetDAO.message_read_struct",
        "members": [
          {
            "astId": 1974,
            "contract": "contracts/PlanetDAO.sol:PlanetDAO",
            "label": "message_id",
            "offset": 0,
            "slot": "0",
            "type": "t_uint256"
          },
          {
            "astId": 1976,
            "contract": "contracts/PlanetDAO.sol:PlanetDAO",
            "label": "ideas_id",
            "offset": 0,
            "slot": "1",
            "type": "t_uint256"
          },
          {
            "astId": 1978,
            "contract": "contracts/PlanetDAO.sol:PlanetDAO",
            "label": "user_id",
            "offset": 0,
            "slot": "2",
            "type": "t_uint256"
          },
          {
            "astId": 1980,
            "contract": "contracts/PlanetDAO.sol:PlanetDAO",
            "label": "msg_type",
            "offset": 0,
            "slot": "3",
            "type": "t_string_storage"
          }
        ],
        "numberOfBytes": "128"
      },
      "t_struct(message_struct)1972_storage": {
        "encoding": "inplace",
        "label": "struct PlanetDAO.message_struct",
        "members": [
          {
            "astId": 1965,
            "contract": "contracts/PlanetDAO.sol:PlanetDAO",
            "label": "message_id",
            "offset": 0,
            "slot": "0",
            "type": "t_uint256"
          },
          {
            "astId": 1967,
            "contract": "contracts/PlanetDAO.sol:PlanetDAO",
            "label": "ideas_id",
            "offset": 0,
            "slot": "1",
            "type": "t_uint256"
          },
          {
            "astId": 1969,
            "contract": "contracts/PlanetDAO.sol:PlanetDAO",
            "label": "message",
            "offset": 0,
            "slot": "2",
            "type": "t_string_storage"
          },
          {
            "astId": 1971,
            "contract": "contracts/PlanetDAO.sol:PlanetDAO",
            "label": "sender",
            "offset": 0,
            "slot": "3",
            "type": "t_string_storage"
          }
        ],
        "numberOfBytes": "128"
      },
      "t_struct(reply_struct)1990_storage": {
        "encoding": "inplace",
        "label": "struct PlanetDAO.reply_struct",
        "members": [
          {
            "astId": 1983,
            "contract": "contracts/PlanetDAO.sol:PlanetDAO",
            "label": "reply_id",
            "offset": 0,
            "slot": "0",
            "type": "t_uint256"
          },
          {
            "astId": 1985,
            "contract": "contracts/PlanetDAO.sol:PlanetDAO",
            "label": "message_id",
            "offset": 0,
            "slot": "1",
            "type": "t_uint256"
          },
          {
            "astId": 1987,
            "contract": "contracts/PlanetDAO.sol:PlanetDAO",
            "label": "ideas_id",
            "offset": 0,
            "slot": "2",
            "type": "t_uint256"
          },
          {
            "astId": 1989,
            "contract": "contracts/PlanetDAO.sol:PlanetDAO",
            "label": "message",
            "offset": 0,
            "slot": "3",
            "type": "t_string_storage"
          }
        ],
        "numberOfBytes": "128"
      },
      "t_struct(smart_contract_uri_struct)1956_storage": {
        "encoding": "inplace",
        "label": "struct PlanetDAO.smart_contract_uri_struct",
        "members": [
          {
            "astId": 1951,
            "contract": "contracts/PlanetDAO.sol:PlanetDAO",
            "label": "smart_contract_id",
            "offset": 0,
            "slot": "0",
            "type": "t_uint256"
          },
          {
            "astId": 1953,
            "contract": "contracts/PlanetDAO.sol:PlanetDAO",
            "label": "ideas_id",
            "offset": 0,
            "slot": "1",
            "type": "t_uint256"
          },
          {
            "astId": 1955,
            "contract": "contracts/PlanetDAO.sol:PlanetDAO",
            "label": "smart_contract_uri",
            "offset": 0,
            "slot": "2",
            "type": "t_string_storage"
          }
        ],
        "numberOfBytes": "96"
      },
      "t_struct(user_badge_struct)2019_storage": {
        "encoding": "inplace",
        "label": "struct PlanetDAO.user_badge_struct",
        "members": [
          {
            "astId": 2002,
            "contract": "contracts/PlanetDAO.sol:PlanetDAO",
            "label": "user_id",
            "offset": 0,
            "slot": "0",
            "type": "t_uint256"
          },
          {
            "astId": 2004,
            "contract": "contracts/PlanetDAO.sol:PlanetDAO",
            "label": "dao",
            "offset": 0,
            "slot": "1",
            "type": "t_bool"
          },
          {
            "astId": 2006,
            "contract": "contracts/PlanetDAO.sol:PlanetDAO",
            "label": "joined",
            "offset": 1,
            "slot": "1",
            "type": "t_bool"
          },
          {
            "astId": 2008,
            "contract": "contracts/PlanetDAO.sol:PlanetDAO",
            "label": "goal",
            "offset": 2,
            "slot": "1",
            "type": "t_bool"
          },
          {
            "astId": 2010,
            "contract": "contracts/PlanetDAO.sol:PlanetDAO",
            "label": "ideas",
            "offset": 3,
            "slot": "1",
            "type": "t_bool"
          },
          {
            "astId": 2012,
            "contract": "contracts/PlanetDAO.sol:PlanetDAO",
            "label": "vote",
            "offset": 4,
            "slot": "1",
            "type": "t_bool"
          },
          {
            "astId": 2014,
            "contract": "contracts/PlanetDAO.sol:PlanetDAO",
            "label": "donation",
            "offset": 5,
            "slot": "1",
            "type": "t_bool"
          },
          {
            "astId": 2016,
            "contract": "contracts/PlanetDAO.sol:PlanetDAO",
            "label": "comment",
            "offset": 6,
            "slot": "1",
            "type": "t_bool"
          },
          {
            "astId": 2018,
            "contract": "contracts/PlanetDAO.sol:PlanetDAO",
            "label": "reply",
            "offset": 7,
            "slot": "1",
            "type": "t_bool"
          }
        ],
        "numberOfBytes": "64"
      },
      "t_uint256": {
        "encoding": "inplace",
        "label": "uint256",
        "numberOfBytes": "32"
      }
    }
  }
}