{
  "address": "0xfcdB39BE384F0f62Be6dAE7AfCe59d297A7e3156",
  "abi": [
    {
      "inputs": [],
      "name": "_dao_ids",
      "outputs": [
        {
          "internalType": "uint256",
          "name": "",
          "type": "uint256"
        }
      ],
      "stateMutability": "view",
      "type": "function"
    },
    {
      "inputs": [
        {
          "internalType": "uint256",
          "name": "",
          "type": "uint256"
        }
      ],
      "name": "_dao_uris",
      "outputs": [
        {
          "internalType": "string",
          "name": "dao_wallet",
          "type": "string"
        },
        {
          "internalType": "string",
          "name": "dao_uri",
          "type": "string"
        },
        {
          "internalType": "string",
          "name": "finished",
          "type": "string"
        }
      ],
      "stateMutability": "view",
      "type": "function"
    },
    {
      "inputs": [
        {
          "internalType": "uint256",
          "name": "",
          "type": "uint256"
        }
      ],
      "name": "_donated",
      "outputs": [
        {
          "internalType": "uint256",
          "name": "",
          "type": "uint256"
        }
      ],
      "stateMutability": "view",
      "type": "function"
    },
    {
      "inputs": [
        {
          "internalType": "uint256",
          "name": "",
          "type": "uint256"
        }
      ],
      "name": "_donations",
      "outputs": [
        {
          "internalType": "uint256",
          "name": "ideas_id",
          "type": "uint256"
        },
        {
          "internalType": "uint256",
          "name": "userid",
          "type": "uint256"
        },
        {
          "internalType": "uint256",
          "name": "donation",
          "type": "uint256"
        }
      ],
      "stateMutability": "view",
      "type": "function"
    },
    {
      "inputs": [],
      "name": "_donations_ids",
      "outputs": [
        {
          "internalType": "uint256",
          "name": "",
          "type": "uint256"
        }
      ],
      "stateMutability": "view",
      "type": "function"
    },
    {
      "inputs": [],
      "name": "_goal_ids",
      "outputs": [
        {
          "internalType": "uint256",
          "name": "",
          "type": "uint256"
        }
      ],
      "stateMutability": "view",
      "type": "function"
    },
    {
      "inputs": [
        {
          "internalType": "uint256",
          "name": "",
          "type": "uint256"
        }
      ],
      "name": "_goal_uris",
      "outputs": [
        {
          "internalType": "string",
          "name": "dao_id",
          "type": "string"
        },
        {
          "internalType": "string",
          "name": "goal_uri",
          "type": "string"
        }
      ],
      "stateMutability": "view",
      "type": "function"
    },
    {
      "inputs": [],
      "name": "_ideas_ids",
      "outputs": [
        {
          "internalType": "uint256",
          "name": "",
          "type": "uint256"
        }
      ],
      "stateMutability": "view",
      "type": "function"
    },
    {
      "inputs": [
        {
          "internalType": "uint256",
          "name": "",
          "type": "uint256"
        }
      ],
      "name": "_ideas_uris",
      "outputs": [
        {
          "internalType": "uint256",
          "name": "goal_id",
          "type": "uint256"
        },
        {
          "internalType": "string",
          "name": "ideas_uri",
          "type": "string"
        },
        {
          "internalType": "uint256",
          "name": "donation",
          "type": "uint256"
        }
      ],
      "stateMutability": "view",
      "type": "function"
    },
    {
      "inputs": [],
      "name": "_ideas_vote_ids",
      "outputs": [
        {
          "internalType": "uint256",
          "name": "",
          "type": "uint256"
        }
      ],
      "stateMutability": "view",
      "type": "function"
    },
    {
      "inputs": [],
      "name": "_join_ids",
      "outputs": [
        {
          "internalType": "uint256",
          "name": "",
          "type": "uint256"
        }
      ],
      "stateMutability": "view",
      "type": "function"
    },
    {
      "inputs": [
        {
          "internalType": "uint256",
          "name": "",
          "type": "uint256"
        }
      ],
      "name": "_joined_person",
      "outputs": [
        {
          "internalType": "uint256",
          "name": "daoid",
          "type": "uint256"
        },
        {
          "internalType": "uint256",
          "name": "user_id",
          "type": "uint256"
        }
      ],
      "stateMutability": "view",
      "type": "function"
    },
    {
      "inputs": [],
      "name": "_message_ids",
      "outputs": [
        {
          "internalType": "uint256",
          "name": "",
          "type": "uint256"
        }
      ],
      "stateMutability": "view",
      "type": "function"
    },
    {
      "inputs": [],
      "name": "_message_read_ids",
      "outputs": [
        {
          "internalType": "uint256",
          "name": "",
          "type": "uint256"
        }
      ],
      "stateMutability": "view",
      "type": "function"
    },
    {
      "inputs": [],
      "name": "_reply_ids",
      "outputs": [
        {
          "internalType": "uint256",
          "name": "",
          "type": "uint256"
        }
      ],
      "stateMutability": "view",
      "type": "function"
    },
    {
      "inputs": [],
      "name": "_smart_contract_ids",
      "outputs": [
        {
          "internalType": "uint256",
          "name": "",
          "type": "uint256"
        }
      ],
      "stateMutability": "view",
      "type": "function"
    },
    {
      "inputs": [
        {
          "internalType": "uint256",
          "name": "",
          "type": "uint256"
        }
      ],
      "name": "_smart_contracts_uris",
      "outputs": [
        {
          "internalType": "uint256",
          "name": "smart_contract_id",
          "type": "uint256"
        },
        {
          "internalType": "uint256",
          "name": "ideas_id",
          "type": "uint256"
        },
        {
          "internalType": "string",
          "name": "smart_contract_uri",
          "type": "string"
        }
      ],
      "stateMutability": "view",
      "type": "function"
    },
    {
      "inputs": [
        {
          "internalType": "uint256",
          "name": "",
          "type": "uint256"
        }
      ],
      "name": "_template_uris",
      "outputs": [
        {
          "internalType": "string",
          "name": "",
          "type": "string"
        }
      ],
      "stateMutability": "view",
      "type": "function"
    },
    {
      "inputs": [
        {
          "internalType": "uint256",
          "name": "",
          "type": "uint256"
        }
      ],
      "name": "_user_badges",
      "outputs": [
        {
          "internalType": "uint256",
          "name": "user_id",
          "type": "uint256"
        },
        {
          "internalType": "bool",
          "name": "dao",
          "type": "bool"
        },
        {
          "internalType": "bool",
          "name": "joined",
          "type": "bool"
        },
        {
          "internalType": "bool",
          "name": "goal",
          "type": "bool"
        },
        {
          "internalType": "bool",
          "name": "ideas",
          "type": "bool"
        },
        {
          "internalType": "bool",
          "name": "vote",
          "type": "bool"
        },
        {
          "internalType": "bool",
          "name": "donation",
          "type": "bool"
        },
        {
          "internalType": "bool",
          "name": "comment",
          "type": "bool"
        },
        {
          "internalType": "bool",
          "name": "reply",
          "type": "bool"
        }
      ],
      "stateMutability": "view",
      "type": "function"
    },
    {
      "inputs": [
        {
          "internalType": "uint256",
          "name": "_ideas_id",
          "type": "uint256"
        },
        {
          "internalType": "uint256",
          "name": "_doantion",
          "type": "uint256"
        },
        {
          "internalType": "uint256",
          "name": "_userid",
          "type": "uint256"
        }
      ],
      "name": "add_donation",
      "outputs": [],
      "stateMutability": "nonpayable",
      "type": "function"
    },
    {
      "inputs": [
        {
          "internalType": "uint256",
          "name": "",
          "type": "uint256"
        }
      ],
      "name": "all_goal_ideas_votes",
      "outputs": [
        {
          "internalType": "uint256",
          "name": "goal_id",
          "type": "uint256"
        },
        {
          "internalType": "uint256",
          "name": "ideas_id",
          "type": "uint256"
        },
        {
          "internalType": "string",
          "name": "wallet",
          "type": "string"
        }
      ],
      "stateMutability": "view",
      "type": "function"
    },
    {
      "inputs": [
        {
          "internalType": "uint256",
          "name": "",
          "type": "uint256"
        }
      ],
      "name": "all_messages",
      "outputs": [
        {
          "internalType": "uint256",
          "name": "message_id",
          "type": "uint256"
        },
        {
          "internalType": "uint256",
          "name": "ideas_id",
          "type": "uint256"
        },
        {
          "internalType": "string",
          "name": "message",
          "type": "string"
        },
        {
          "internalType": "string",
          "name": "sender",
          "type": "string"
        }
      ],
      "stateMutability": "view",
      "type": "function"
    },
    {
      "inputs": [
        {
          "internalType": "uint256",
          "name": "",
          "type": "uint256"
        }
      ],
      "name": "all_read_messages",
      "outputs": [
        {
          "internalType": "uint256",
          "name": "message_id",
          "type": "uint256"
        },
        {
          "internalType": "uint256",
          "name": "ideas_id",
          "type": "uint256"
        },
        {
          "internalType": "uint256",
          "name": "user_id",
          "type": "uint256"
        },
        {
          "internalType": "string",
          "name": "msg_type",
          "type": "string"
        }
      ],
      "stateMutability": "view",
      "type": "function"
    },
    {
      "inputs": [
        {
          "internalType": "uint256",
          "name": "",
          "type": "uint256"
        }
      ],
      "name": "all_replies",
      "outputs": [
        {
          "internalType": "uint256",
          "name": "reply_id",
          "type": "uint256"
        },
        {
          "internalType": "uint256",
          "name": "message_id",
          "type": "uint256"
        },
        {
          "internalType": "uint256",
          "name": "ideas_id",
          "type": "uint256"
        },
        {
          "internalType": "string",
          "name": "message",
          "type": "string"
        }
      ],
      "stateMutability": "view",
      "type": "function"
    },
    {
      "inputs": [
        {
          "internalType": "string",
          "name": "_dao_wallet",
          "type": "string"
        },
        {
          "internalType": "string",
          "name": "_dao_uri",
          "type": "string"
        },
        {
          "internalType": "string",
          "name": "_template",
          "type": "string"
        },
        {
          "internalType": "uint256",
          "name": "user_id",
          "type": "uint256"
        }
      ],
      "name": "create_dao",
      "outputs": [
        {
          "internalType": "uint256",
          "name": "",
          "type": "uint256"
        }
      ],
      "stateMutability": "nonpayable",
      "type": "function"
    },
    {
      "inputs": [
        {
          "internalType": "string",
          "name": "_goal_uri",
          "type": "string"
        },
        {
          "internalType": "string",
          "name": "_dao_id",
          "type": "string"
        },
        {
          "internalType": "uint256",
          "name": "_user_id",
          "type": "uint256"
        }
      ],
      "name": "create_goal",
      "outputs": [
        {
          "internalType": "uint256",
          "name": "",
          "type": "uint256"
        }
      ],
      "stateMutability": "nonpayable",
      "type": "function"
    },
    {
      "inputs": [
        {
          "internalType": "uint256",
          "name": "_goal_id",
          "type": "uint256"
        },
        {
          "internalType": "uint256",
          "name": "_ideas_id",
          "type": "uint256"
        },
        {
          "internalType": "string",
          "name": "_wallet",
          "type": "string"
        },
        {
          "internalType": "uint256",
          "name": "_user_id",
          "type": "uint256"
        }
      ],
      "name": "create_goal_ideas_vote",
      "outputs": [
        {
          "internalType": "uint256",
          "name": "",
          "type": "uint256"
        }
      ],
      "stateMutability": "nonpayable",
      "type": "function"
    },
    {
      "inputs": [
        {
          "internalType": "string",
          "name": "_ideas_uri",
          "type": "string"
        },
        {
          "internalType": "uint256",
          "name": "_goal_id",
          "type": "uint256"
        },
        {
          "internalType": "string[]",
          "name": "_smart_contracts",
          "type": "string[]"
        },
        {
          "internalType": "uint256",
          "name": "_user_id",
          "type": "uint256"
        }
      ],
      "name": "create_ideas",
      "outputs": [
        {
          "internalType": "uint256",
          "name": "",
          "type": "uint256"
        }
      ],
      "stateMutability": "nonpayable",
      "type": "function"
    },
    {
      "inputs": [
        {
          "internalType": "uint256",
          "name": "_dao_id",
          "type": "uint256"
        }
      ],
      "name": "dao_uri",
      "outputs": [
        {
          "internalType": "string",
          "name": "",
          "type": "string"
        }
      ],
      "stateMutability": "view",
      "type": "function"
    },
    {
      "inputs": [
        {
          "internalType": "uint256",
          "name": "ideas_id",
          "type": "uint256"
        }
      ],
      "name": "getMsgIDs",
      "outputs": [
        {
          "internalType": "uint256[]",
          "name": "",
          "type": "uint256[]"
        }
      ],
      "stateMutability": "view",
      "type": "function"
    },
    {
      "inputs": [
        {
          "internalType": "uint256",
          "name": "_message_id",
          "type": "uint256"
        },
        {
          "internalType": "string",
          "name": "msg_type",
          "type": "string"
        }
      ],
      "name": "getReadMsg",
      "outputs": [
        {
          "internalType": "bool",
          "name": "",
          "type": "bool"
        }
      ],
      "stateMutability": "view",
      "type": "function"
    },
    {
      "inputs": [
        {
          "internalType": "uint256",
          "name": "message_id",
          "type": "uint256"
        }
      ],
      "name": "getReplyIDs",
      "outputs": [
        {
          "internalType": "uint256[]",
          "name": "",
          "type": "uint256[]"
        }
      ],
      "stateMutability": "view",
      "type": "function"
    },
    {
      "inputs": [],
      "name": "get_all_daos",
      "outputs": [
        {
          "internalType": "string[]",
          "name": "",
          "type": "string[]"
        }
      ],
      "stateMutability": "view",
      "type": "function"
    },
    {
      "inputs": [],
      "name": "get_all_goals",
      "outputs": [
        {
          "internalType": "string[]",
          "name": "",
          "type": "string[]"
        }
      ],
      "stateMutability": "view",
      "type": "function"
    },
    {
      "inputs": [
        {
          "internalType": "string",
          "name": "_dao_id",
          "type": "string"
        }
      ],
      "name": "get_all_goals_by_dao_id",
      "outputs": [
        {
          "internalType": "string[]",
          "name": "",
          "type": "string[]"
        }
      ],
      "stateMutability": "view",
      "type": "function"
    },
    {
      "inputs": [],
      "name": "get_all_ideas",
      "outputs": [
        {
          "internalType": "string[]",
          "name": "",
          "type": "string[]"
        }
      ],
      "stateMutability": "view",
      "type": "function"
    },
    {
      "inputs": [
        {
          "internalType": "uint256",
          "name": "_goal_id",
          "type": "uint256"
        }
      ],
      "name": "get_all_ideas_by_goal_id",
      "outputs": [
        {
          "internalType": "string[]",
          "name": "",
          "type": "string[]"
        }
      ],
      "stateMutability": "view",
      "type": "function"
    },
    {
      "inputs": [
        {
          "internalType": "string",
          "name": "_goal_uri",
          "type": "string"
        }
      ],
      "name": "get_goal_id_by_goal_uri",
      "outputs": [
        {
          "internalType": "uint256",
          "name": "",
          "type": "uint256"
        }
      ],
      "stateMutability": "view",
      "type": "function"
    },
    {
      "inputs": [
        {
          "internalType": "string",
          "name": "_ideas_uri",
          "type": "string"
        }
      ],
      "name": "get_goal_id_from_ideas_uri",
      "outputs": [
        {
          "internalType": "uint256",
          "name": "",
          "type": "uint256"
        }
      ],
      "stateMutability": "view",
      "type": "function"
    },
    {
      "inputs": [
        {
          "internalType": "string",
          "name": "_ideas_uri",
          "type": "string"
        }
      ],
      "name": "get_ideas_id_by_ideas_uri",
      "outputs": [
        {
          "internalType": "uint256",
          "name": "",
          "type": "uint256"
        }
      ],
      "stateMutability": "view",
      "type": "function"
    },
    {
      "inputs": [
        {
          "internalType": "uint256",
          "name": "_goal_id",
          "type": "uint256"
        },
        {
          "internalType": "uint256",
          "name": "_ideas_id",
          "type": "uint256"
        }
      ],
      "name": "get_ideas_votes_from_goal",
      "outputs": [
        {
          "internalType": "string[]",
          "name": "",
          "type": "string[]"
        }
      ],
      "stateMutability": "view",
      "type": "function"
    },
    {
      "inputs": [
        {
          "internalType": "uint256",
          "name": "_goal_id",
          "type": "uint256"
        }
      ],
      "name": "goal_uri",
      "outputs": [
        {
          "internalType": "string",
          "name": "",
          "type": "string"
        }
      ],
      "stateMutability": "view",
      "type": "function"
    },
    {
      "inputs": [
        {
          "internalType": "uint256",
          "name": "_ideas_id",
          "type": "uint256"
        }
      ],
      "name": "ideas_uri",
      "outputs": [
        {
          "internalType": "string",
          "name": "",
          "type": "string"
        }
      ],
      "stateMutability": "view",
      "type": "function"
    },
    {
      "inputs": [
        {
          "internalType": "uint256",
          "name": "person",
          "type": "uint256"
        }
      ],
      "name": "is_person_joined",
      "outputs": [
        {
          "internalType": "bool",
          "name": "",
          "type": "bool"
        }
      ],
      "stateMutability": "view",
      "type": "function"
    },
    {
      "inputs": [
        {
          "internalType": "uint256",
          "name": "dao_id",
          "type": "uint256"
        },
        {
          "internalType": "uint256",
          "name": "person",
          "type": "uint256"
        }
      ],
      "name": "join_community",
      "outputs": [],
      "stateMutability": "nonpayable",
      "type": "function"
    },
    {
      "inputs": [],
      "name": "reset_all",
      "outputs": [],
      "stateMutability": "nonpayable",
      "type": "function"
    },
    {
      "inputs": [
        {
          "internalType": "uint256",
          "name": "_ideas_id",
          "type": "uint256"
        },
        {
          "internalType": "string",
          "name": "_message",
          "type": "string"
        },
        {
          "internalType": "string",
          "name": "_sender",
          "type": "string"
        },
        {
          "internalType": "uint256",
          "name": "_user_id",
          "type": "uint256"
        }
      ],
      "name": "sendMsg",
      "outputs": [
        {
          "internalType": "uint256",
          "name": "",
          "type": "uint256"
        }
      ],
      "stateMutability": "nonpayable",
      "type": "function"
    },
    {
      "inputs": [
        {
          "internalType": "uint256",
          "name": "_message_id",
          "type": "uint256"
        },
        {
          "internalType": "uint256",
          "name": "_ideas_id",
          "type": "uint256"
        },
        {
          "internalType": "uint256",
          "name": "_wallet",
          "type": "uint256"
        },
        {
          "internalType": "string",
          "name": "msg_type",
          "type": "string"
        }
      ],
      "name": "sendReadMsg",
      "outputs": [
        {
          "internalType": "uint256",
          "name": "",
          "type": "uint256"
        }
      ],
      "stateMutability": "nonpayable",
      "type": "function"
    },
    {
      "inputs": [
        {
          "internalType": "uint256",
          "name": "_message_id",
          "type": "uint256"
        },
        {
          "internalType": "string",
          "name": "_reply",
          "type": "string"
        },
        {
          "internalType": "uint256",
          "name": "ideas_id",
          "type": "uint256"
        },
        {
          "internalType": "uint256",
          "name": "_userid",
          "type": "uint256"
        }
      ],
      "name": "sendReply",
      "outputs": [
        {
          "internalType": "uint256",
          "name": "",
          "type": "uint256"
        }
      ],
      "stateMutability": "nonpayable",
      "type": "function"
    },
    {
      "inputs": [
        {
          "internalType": "uint256",
          "name": "_dao_id",
          "type": "uint256"
        },
        {
          "internalType": "string",
          "name": "_dao_wallet",
          "type": "string"
        },
        {
          "internalType": "string",
          "name": "_dao_uri",
          "type": "string"
        }
      ],
      "name": "set_dao",
      "outputs": [],
      "stateMutability": "nonpayable",
      "type": "function"
    },
    {
      "inputs": [
        {
          "internalType": "uint256",
          "name": "_goal_id",
          "type": "uint256"
        },
        {
          "internalType": "string",
          "name": "_goal_uri",
          "type": "string"
        }
      ],
      "name": "set_goal",
      "outputs": [],
      "stateMutability": "nonpayable",
      "type": "function"
    },
    {
      "inputs": [
        {
          "internalType": "uint256",
          "name": "_ideas_id",
          "type": "uint256"
        },
        {
          "internalType": "string",
          "name": "_ideas_uri",
          "type": "string"
        }
      ],
      "name": "set_ideas",
      "outputs": [],
      "stateMutability": "nonpayable",
      "type": "function"
    },
    {
      "inputs": [
        {
          "internalType": "uint256",
          "name": "_dao_id",
          "type": "uint256"
        },
        {
          "internalType": "string",
          "name": "_template",
          "type": "string"
        }
      ],
      "name": "update_template",
      "outputs": [],
      "stateMutability": "nonpayable",
      "type": "function"
    }
  ],
  "transactionHash": "0x3f8202d3afe5b38499a46b42aee6f70d80168b1cc0c630830410f0028d4d54c1",
  "args": [],
  "numDeployments": 4,
  "solcInputHash": "eb30a8088b3be01c548c66af52899153",
  "bytecode": "0x608060405234801561001057600080fd5b506141dd806100206000396000f3fe608060405234801561001057600080fd5b50600436106103275760003560e01c806387633eb2116101b8578063c04e743011610104578063cd230809116100a2578063d9fc52db1161007c578063d9fc52db14610b01578063e32acc1a14610b31578063ec24580214610b61578063ff4a37ef14610b7f57610327565b8063cd23080914610a83578063d3791b2014610ab3578063d4ea3a3614610ad157610327565b8063c6182b34116100de578063c6182b34146109e6578063c7af4ee514610a02578063ca013f1714610a32578063cace8d4614610a5057610327565b8063c04e743014610990578063c04fe978146109ac578063c29595c5146109ca57610327565b806397ee760611610171578063aa2bf5d31161014b578063aa2bf5d314610905578063aa4cdf2a14610923578063b16060a614610953578063b527d45e1461095d57610327565b806397ee76061461087f578063a1ca91781461089d578063a428a47f146108cd57610327565b806387633eb2146107ad578063881de858146107c95780638d3d2595146107e55780638e6280e6146108155780639077007d14610831578063934c5f001461084f57610327565b8063468d0c80116102775780637bbd582d11610230578063803f5b9f1161020a578063803f5b9f146106ed578063812fae1f1461071d5780638413543e1461074d57806386ffa45b1461077d57610327565b80637bbd582d1461066c5780637f2035d41461068a5780637fc543ec146106bb57610327565b8063468d0c801461055c5780634a797bd71461058e5780634be7adb5146105ac5780635d907da1146105dc5780636ecda4ee1461060c578063787f19c71461063c57610327565b80631ba44c4c116102e457806327a568b9116102be57806327a568b9146104a857806329b56f60146104da578063330b8f26146104f85780633f87a2f41461052957610327565b80631ba44c4c146104165780631e9ac9f51461044857806320959ed01461047857610327565b80630377d44a1461032c5780631171b6211461035c578063131d44f21461037a57806313bf4cea146103aa5780631a96eceb146103c85780631b592aeb146103f8575b600080fd5b61034660048036038101906103419190613082565b610bb1565b604051610353919061320c565b60405180910390f35b610364610d3b565b6040516103719190613247565b60405180910390f35b610394600480360381019061038f919061328e565b610d41565b6040516103a1919061320c565b60405180910390f35b6103b2610eb0565b6040516103bf9190613247565b60405180910390f35b6103e260048036038101906103dd91906132bb565b610eb6565b6040516103ef9190613247565b60405180910390f35b610400610f69565b60405161040d9190613247565b60405180910390f35b610430600480360381019061042b919061328e565b610f6f565b60405161043f93929190613388565b60405180910390f35b610462600480360381019061045d9190613082565b611021565b60405161046f9190613247565b60405180910390f35b610492600480360381019061048d919061328e565b611092565b60405161049f9190613247565b60405180910390f35b6104c260048036038101906104bd919061328e565b6110aa565b6040516104d1939291906133c6565b60405180910390f35b6104e261126c565b6040516104ef919061320c565b60405180910390f35b610512600480360381019061050d919061328e565b6113a7565b604051610520929190613412565b60405180910390f35b610543600480360381019061053e919061328e565b6113cb565b604051610553949392919061343b565b60405180910390f35b6105766004803603810190610571919061328e565b611483565b60405161058593929190613487565b60405180910390f35b610596611535565b6040516105a39190613247565b60405180910390f35b6105c660048036038101906105c191906134c5565b61153b565b6040516105d3919061320c565b60405180910390f35b6105f660048036038101906105f1919061328e565b6116cd565b6040516106039190613505565b60405180910390f35b6106266004803603810190610621919061328e565b611775565b6040516106339190613505565b60405180910390f35b61065660048036038101906106519190613527565b611815565b6040516106639190613247565b60405180910390f35b6106746118e6565b6040516106819190613247565b60405180910390f35b6106a4600480360381019061069f919061328e565b6118ec565b6040516106b29291906135c6565b60405180910390f35b6106d560048036038101906106d0919061328e565b611a20565b6040516106e4939291906135fd565b60405180910390f35b6107076004803603810190610702919061328e565b611a4a565b60405161071491906136f2565b60405180910390f35b6107376004803603810190610732919061328e565b611b2d565b60405161074491906136f2565b60405180910390f35b61076760048036038101906107629190613714565b611c10565b6040516107749190613247565b60405180910390f35b6107976004803603810190610792919061379f565b611cbe565b6040516107a49190613247565b60405180910390f35b6107c760048036038101906107c2919061385a565b611dde565b005b6107e360048036038101906107de91906138b6565b611e03565b005b6107ff60048036038101906107fa919061328e565b611e50565b60405161080c9190613505565b60405180910390f35b61082f600480360381019061082a9190613941565b611ef8565b005b610839611fec565b6040516108469190613247565b60405180910390f35b61086960048036038101906108649190613994565b611ff2565b6040516108769190613247565b60405180910390f35b610887612086565b604051610894919061320c565b60405180910390f35b6108b760048036038101906108b29190613082565b6121c1565b6040516108c49190613247565b60405180910390f35b6108e760048036038101906108e2919061328e565b612232565b6040516108fc99989796959493929190613a32565b60405180910390f35b61090d6122e8565b60405161091a9190613247565b60405180910390f35b61093d60048036038101906109389190613082565b6122ee565b60405161094a9190613247565b60405180910390f35b61095b612375565b005b6109776004803603810190610972919061328e565b61262f565b6040516109879493929190613abf565b60405180910390f35b6109aa60048036038101906109a5919061385a565b61276f565b005b6109b4612797565b6040516109c1919061320c565b60405180910390f35b6109e460048036038101906109df919061385a565b6128d1565b005b610a0060048036038101906109fb91906134c5565b6128f9565b005b610a1c6004803603810190610a17919061328e565b612985565b604051610a299190613b12565b60405180910390f35b610a3a6129dc565b604051610a479190613247565b60405180910390f35b610a6a6004803603810190610a65919061328e565b6129e2565b604051610a7a949392919061343b565b60405180910390f35b610a9d6004803603810190610a98919061385a565b612a9a565b604051610aaa9190613b12565b60405180910390f35b610abb612b2b565b604051610ac89190613247565b60405180910390f35b610aeb6004803603810190610ae69190613c13565b612b31565b604051610af89190613247565b60405180910390f35b610b1b6004803603810190610b169190613cb2565b612c46565b604051610b289190613247565b60405180910390f35b610b4b6004803603810190610b46919061328e565b612d0b565b604051610b589190613505565b60405180910390f35b610b69612db3565b604051610b769190613247565b60405180910390f35b610b996004803603810190610b94919061328e565b612db9565b604051610ba893929190613388565b60405180910390f35b6060600060025467ffffffffffffffff811115610bd157610bd0612f57565b5b604051908082528060200260200182016040528015610c0457816020015b6060815260200190600190039081610bef5790505b509050600080600090505b600254811015610d30578480519060200120600d6000838152602001908152602001600020600001604051610c449190613e38565b604051809103902003610d1d57600d60008281526020019081526020016000206001018054610c7290613d64565b80601f0160208091040260200160405190810160405280929190818152602001828054610c9e90613d64565b8015610ceb5780601f10610cc057610100808354040283529160200191610ceb565b820191906000526020600020905b815481529060010190602001808311610cce57829003601f168201915b5050505050838381518110610d0357610d02613e4f565b5b60200260200101819052508180610d1990613ead565b9250505b8080610d2890613ead565b915050610c0f565b508192505050919050565b60045481565b6060600060035467ffffffffffffffff811115610d6157610d60612f57565b5b604051908082528060200260200182016040528015610d9457816020015b6060815260200190600190039081610d7f5790505b509050600080600090505b600354811015610ea55784600e60008381526020019081526020016000206000015403610e8457600e60008281526020019081526020016000206001018054610de790613d64565b80601f0160208091040260200160405190810160405280929190818152602001828054610e1390613d64565b8015610e605780601f10610e3557610100808354040283529160200191610e60565b820191906000526020600020905b815481529060010190602001808311610e4357829003601f168201915b5050505050838381518110610e7857610e77613e4f565b5b60200260200101819052505b8180610e8f90613ead565b9250508080610e9d90613ead565b915050610d9f565b508192505050919050565b60025481565b600060016016600084815260200190815260200160002060010160046101000a81548160ff02191690831515021790555060405180606001604052808681526020018581526020018481525060126000600654815260200190815260200160002060008201518160000155602082015181600101556040820151816002019081610f4091906140a1565b5090505060066000815480929190610f5790613ead565b91905055506006549050949350505050565b60055481565b6012602052806000526040600020600091509050806000015490806001015490806002018054610f9e90613d64565b80601f0160208091040260200160405190810160405280929190818152602001828054610fca90613d64565b80156110175780601f10610fec57610100808354040283529160200191611017565b820191906000526020600020905b815481529060010190602001808311610ffa57829003601f168201915b5050505050905083565b600080600090505b600254811015611087578280519060200120600d600083815260200190815260200160002060010160405161105e9190613e38565b604051809103902003611074578091505061108d565b808061107f90613ead565b915050611029565b50600090505b919050565b600f6020528060005260406000206000915090505481565b600a6020528060005260406000206000915090508060000180546110cd90613d64565b80601f01602080910402602001604051908101604052809291908181526020018280546110f990613d64565b80156111465780601f1061111b57610100808354040283529160200191611146565b820191906000526020600020905b81548152906001019060200180831161112957829003601f168201915b50505050509080600101805461115b90613d64565b80601f016020809104026020016040519081016040528092919081815260200182805461118790613d64565b80156111d45780601f106111a9576101008083540402835291602001916111d4565b820191906000526020600020905b8154815290600101906020018083116111b757829003601f168201915b5050505050908060020180546111e990613d64565b80601f016020809104026020016040519081016040528092919081815260200182805461121590613d64565b80156112625780601f1061123757610100808354040283529160200191611262565b820191906000526020600020905b81548152906001019060200180831161124557829003601f168201915b5050505050905083565b6060600060025467ffffffffffffffff81111561128c5761128b612f57565b5b6040519080825280602002602001820160405280156112bf57816020015b60608152602001906001900390816112aa5790505b50905060005b60025481101561139f57600d600082815260200190815260200160002060010180546112f090613d64565b80601f016020809104026020016040519081016040528092919081815260200182805461131c90613d64565b80156113695780601f1061133e57610100808354040283529160200191611369565b820191906000526020600020905b81548152906001019060200180831161134c57829003601f168201915b505050505082828151811061138157611380613e4f565b5b6020026020010181905250808061139790613ead565b9150506112c5565b508091505090565b600c6020528060005260406000206000915090508060000154908060010154905082565b601560205280600052604060002060009150905080600001549080600101549080600201549080600301805461140090613d64565b80601f016020809104026020016040519081016040528092919081815260200182805461142c90613d64565b80156114795780601f1061144e57610100808354040283529160200191611479565b820191906000526020600020905b81548152906001019060200180831161145c57829003601f168201915b5050505050905084565b600e6020528060005260406000206000915090508060000154908060010180546114ac90613d64565b80601f01602080910402602001604051908101604052809291908181526020018280546114d890613d64565b80156115255780601f106114fa57610100808354040283529160200191611525565b820191906000526020600020905b81548152906001019060200180831161150857829003601f168201915b5050505050908060020154905083565b60065481565b6060600060065467ffffffffffffffff81111561155b5761155a612f57565b5b60405190808252806020026020018201604052801561158e57816020015b60608152602001906001900390816115795790505b509050600080600090505b6006548110156116c1578560126000838152602001908152602001600020600001541480156115dd5750846012600083815260200190815260200160002060010154145b156116a05760126000828152602001908152602001600020600201805461160390613d64565b80601f016020809104026020016040519081016040528092919081815260200182805461162f90613d64565b801561167c5780601f106116515761010080835404028352916020019161167c565b820191906000526020600020905b81548152906001019060200180831161165f57829003601f168201915b505050505083838151811061169457611693613e4f565b5b60200260200101819052505b81806116ab90613ead565b92505080806116b990613ead565b915050611599565b50819250505092915050565b6060600a600083815260200190815260200160002060010180546116f090613d64565b80601f016020809104026020016040519081016040528092919081815260200182805461171c90613d64565b80156117695780601f1061173e57610100808354040283529160200191611769565b820191906000526020600020905b81548152906001019060200180831161174c57829003601f168201915b50505050509050919050565b600b602052806000526040600020600091509050805461179490613d64565b80601f01602080910402602001604051908101604052809291908181526020018280546117c090613d64565b801561180d5780601f106117e25761010080835404028352916020019161180d565b820191906000526020600020905b8154815290600101906020018083116117f057829003601f168201915b505050505081565b600060016016600084815260200190815260200160002060010160066101000a81548160ff0219169083151502179055506040518060800160405280600754815260200186815260200185815260200184815250601360006007548152602001908152602001600020600082015181600001556020820151816001015560408201518160020190816118a791906140a1565b5060608201518160030190816118bd91906140a1565b50905050600760008154809291906118d490613ead565b91905055506007549050949350505050565b60005481565b600d60205280600052604060002060009150905080600001805461190f90613d64565b80601f016020809104026020016040519081016040528092919081815260200182805461193b90613d64565b80156119885780601f1061195d57610100808354040283529160200191611988565b820191906000526020600020905b81548152906001019060200180831161196b57829003601f168201915b50505050509080600101805461199d90613d64565b80601f01602080910402602001604051908101604052809291908181526020018280546119c990613d64565b8015611a165780601f106119eb57610100808354040283529160200191611a16565b820191906000526020600020905b8154815290600101906020018083116119f957829003601f168201915b5050505050905082565b60106020528060005260406000206000915090508060000154908060010154908060020154905083565b6060600060075467ffffffffffffffff811115611a6a57611a69612f57565b5b604051908082528060200260200182016040528015611a985781602001602082028036833780820191505090505b509050600080600090505b600754811015611b225784601360008381526020019081526020016000206001015403611b0f576013600082815260200190815260200160002060000154838381518110611af457611af3613e4f565b5b6020026020010181815250508180611b0b90613ead565b9250505b8080611b1a90613ead565b915050611aa3565b508192505050919050565b6060600060095467ffffffffffffffff811115611b4d57611b4c612f57565b5b604051908082528060200260200182016040528015611b7b5781602001602082028036833780820191505090505b509050600080600090505b600954811015611c055784601560008381526020019081526020016000206001015403611bf2576015600082815260200190815260200160002060000154838381518110611bd757611bd6613e4f565b5b6020026020010181815250508180611bee90613ead565b9250505b8080611bfd90613ead565b915050611b86565b508192505050919050565b6000604051806040016040528084815260200185815250600d600060025481526020019081526020016000206000820151816000019081611c5191906140a1565b506020820151816001019081611c6791906140a1565b5090505060016016600084815260200190815260200160002060010160026101000a81548160ff02191690831515021790555060026000815480929190611cad90613ead565b919050555060025490509392505050565b600060405180606001604052808681526020018581526020016040518060400160405280600581526020017f46616c7365000000000000000000000000000000000000000000000000000000815250815250600a6000805481526020019081526020016000206000820151816000019081611d3991906140a1565b506020820151816001019081611d4f91906140a1565b506040820151816002019081611d6591906140a1565b5090505082600b6000805481526020019081526020016000209081611d8a91906140a1565b5060016016600084815260200190815260200160002060010160006101000a81548160ff021916908315150217905550600080815480929190611dcc90613ead565b91905055506000549050949350505050565b80600b60008481526020019081526020016000209081611dfe91906140a1565b505050565b81600a60008581526020019081526020016000206000019081611e2691906140a1565b5080600a60008581526020019081526020016000206001019081611e4a91906140a1565b50505050565b6060600e60008381526020019081526020016000206001018054611e7390613d64565b80601f0160208091040260200160405190810160405280929190818152602001828054611e9f90613d64565b8015611eec5780601f10611ec157610100808354040283529160200191611eec565b820191906000526020600020905b815481529060010190602001808311611ecf57829003601f168201915b50505050509050919050565b60016016600083815260200190815260200160002060010160056101000a81548160ff02191690831515021790555081600e60008581526020019081526020016000206002016000828254611f4d9190614173565b9250508190555081600f60008381526020019081526020016000206000828254611f779190614173565b9250508190555060405180606001604052808481526020018281526020018381525060106000600154815260200190815260200160002060008201518160000155602082015181600101556040820151816002015590505060016000815480929190611fe290613ead565b9190505550505050565b60075481565b6000604051806080016040528086815260200185815260200184815260200183815250601460006008548152602001908152602001600020600082015181600001556020820151816001015560408201518160020155606082015181600301908161205d91906140a1565b509050506008600081548092919061207490613ead565b91905055506008549050949350505050565b6060600060035467ffffffffffffffff8111156120a6576120a5612f57565b5b6040519080825280602002602001820160405280156120d957816020015b60608152602001906001900390816120c45790505b50905060005b6003548110156121b957600e6000828152602001908152602001600020600101805461210a90613d64565b80601f016020809104026020016040519081016040528092919081815260200182805461213690613d64565b80156121835780601f1061215857610100808354040283529160200191612183565b820191906000526020600020905b81548152906001019060200180831161216657829003601f168201915b505050505082828151811061219b5761219a613e4f565b5b602002602001018190525080806121b190613ead565b9150506120df565b508091505090565b600080600090505b600354811015612227578280519060200120600e60008381526020019081526020016000206001016040516121fe9190613e38565b604051809103902003612214578091505061222d565b808061221f90613ead565b9150506121c9565b50600090505b919050565b60166020528060005260406000206000915090508060000154908060010160009054906101000a900460ff16908060010160019054906101000a900460ff16908060010160029054906101000a900460ff16908060010160039054906101000a900460ff16908060010160049054906101000a900460ff16908060010160059054906101000a900460ff16908060010160069054906101000a900460ff16908060010160079054906101000a900460ff16905089565b60095481565b600080600090505b60035481101561236a578280519060200120600e600083815260200190815260200160002060010160405161232b9190613e38565b60405180910390200361235757600e600082815260200190815260200160002060000154915050612370565b808061236290613ead565b9150506122f6565b50600090505b919050565b60005b6000548110156123db57600a6000828152602001908152602001600020600080820160006123a69190612ecb565b6001820160006123b69190612ecb565b6002820160006123c69190612ecb565b505080806123d390613ead565b915050612378565b5060005b60025481101561243257600d60008281526020019081526020016000206000808201600061240d9190612ecb565b60018201600061241d9190612ecb565b5050808061242a90613ead565b9150506123df565b5060005b60035481101561248957600e600082815260200190815260200160002060008082016000905560018201600061246c9190612ecb565b60028201600090555050808061248190613ead565b915050612436565b5060005b6002548110156124e0576011600082815260200190815260200160002060008082016000905560018201600090556002820160006124cb9190612ecb565b505080806124d890613ead565b91505061248d565b5060005b600754811015612547576013600082815260200190815260200160002060008082016000905560018201600090556002820160006125229190612ecb565b6003820160006125329190612ecb565b5050808061253f90613ead565b9150506124e4565b5060005b6009548110156125a65760156000828152602001908152602001600020600080820160009055600182016000905560028201600090556003820160006125919190612ecb565b5050808061259e90613ead565b91505061254b565b5060005b6006548110156125fd576012600082815260200190815260200160002060008082016000905560018201600090556002820160006125e89190612ecb565b505080806125f590613ead565b9150506125aa565b506000808190555060006002819055506000600381905550600060078190555060006009819055506000600681905550565b601360205280600052604060002060009150905080600001549080600101549080600201805461265e90613d64565b80601f016020809104026020016040519081016040528092919081815260200182805461268a90613d64565b80156126d75780601f106126ac576101008083540402835291602001916126d7565b820191906000526020600020905b8154815290600101906020018083116126ba57829003601f168201915b5050505050908060030180546126ec90613d64565b80601f016020809104026020016040519081016040528092919081815260200182805461271890613d64565b80156127655780601f1061273a57610100808354040283529160200191612765565b820191906000526020600020905b81548152906001019060200180831161274857829003601f168201915b5050505050905084565b80600e6000848152602001908152602001600020600101908161279291906140a1565b505050565b60606000805467ffffffffffffffff8111156127b6576127b5612f57565b5b6040519080825280602002602001820160405280156127e957816020015b60608152602001906001900390816127d45790505b50905060005b6000548110156128c957600a6000828152602001908152602001600020600101805461281a90613d64565b80601f016020809104026020016040519081016040528092919081815260200182805461284690613d64565b80156128935780601f1061286857610100808354040283529160200191612893565b820191906000526020600020905b81548152906001019060200180831161287657829003601f168201915b50505050508282815181106128ab576128aa613e4f565b5b602002602001018190525080806128c190613ead565b9150506127ef565b508091505090565b80600d600084815260200190815260200160002060010190816128f491906140a1565b505050565b60016016600083815260200190815260200160002060010160016101000a81548160ff021916908315150217905550604051806040016040528083815260200182815250600c6000600454815260200190815260200160002060008201518160000155602082015181600101559050506004600081548092919061297c90613ead565b91905055505050565b600080600090505b6004548110156129d15782600c600083815260200190815260200160002060010154036129be5760019150506129d7565b80806129c990613ead565b91505061298d565b50600090505b919050565b60085481565b6014602052806000526040600020600091509050806000015490806001015490806002015490806003018054612a1790613d64565b80601f0160208091040260200160405190810160405280929190818152602001828054612a4390613d64565b8015612a905780601f10612a6557610100808354040283529160200191612a90565b820191906000526020600020905b815481529060010190602001808311612a7357829003601f168201915b5050505050905084565b6000806000905060005b600854811015612b2057846014600083815260200190815260200160002060000154148015612b03575060146000828152602001908152602001600020600301604051612af19190613e38565b60405180910390208480519060200120145b15612b0d57600191505b8080612b1890613ead565b915050612aa4565b508091505092915050565b60035481565b600060405180606001604052808581526020018681526020016000815250600e60006003548152602001908152602001600020600082015181600001556020820151816001019081612b8391906140a1565b506040820151816002015590505060016016600084815260200190815260200160002060010160036101000a81548160ff02191690831515021790555060036000815480929190612bd390613ead565b919050555060005b8351811015612c3857612c0d600354600554868481518110612c0057612bff613e4f565b5b6020026020010151612e6b565b60056000815480929190612c2090613ead565b91905055508080612c3090613ead565b915050612bdb565b506003549050949350505050565b600060016016600084815260200190815260200160002060010160076101000a81548160ff02191690831515021790555060405180608001604052806009548152602001868152602001848152602001858152506015600060095481526020019081526020016000206000820151816000015560208201518160010155604082015181600201556060820151816003019081612ce291906140a1565b5090505060096000815480929190612cf990613ead565b91905055506009549050949350505050565b6060600d60008381526020019081526020016000206001018054612d2e90613d64565b80601f0160208091040260200160405190810160405280929190818152602001828054612d5a90613d64565b8015612da75780601f10612d7c57610100808354040283529160200191612da7565b820191906000526020600020905b815481529060010190602001808311612d8a57829003601f168201915b50505050509050919050565b60015481565b6011602052806000526040600020600091509050806000015490806001015490806002018054612de890613d64565b80601f0160208091040260200160405190810160405280929190818152602001828054612e1490613d64565b8015612e615780601f10612e3657610100808354040283529160200191612e61565b820191906000526020600020905b815481529060010190602001808311612e4457829003601f168201915b5050505050905083565b6040518060600160405280848152602001838152602001828152506011600084815260200190815260200160002060008201518160000155602082015181600101556040820151816002019081612ec291906140a1565b50905050505050565b508054612ed790613d64565b6000825580601f10612ee95750612f08565b601f016020900490600052602060002090810190612f079190612f0b565b5b50565b5b80821115612f24576000816000905550600101612f0c565b5090565b6000604051905090565b600080fd5b600080fd5b600080fd5b600080fd5b6000601f19601f8301169050919050565b7f4e487b7100000000000000000000000000000000000000000000000000000000600052604160045260246000fd5b612f8f82612f46565b810181811067ffffffffffffffff82111715612fae57612fad612f57565b5b80604052505050565b6000612fc1612f28565b9050612fcd8282612f86565b919050565b600067ffffffffffffffff821115612fed57612fec612f57565b5b612ff682612f46565b9050602081019050919050565b82818337600083830152505050565b600061302561302084612fd2565b612fb7565b90508281526020810184848401111561304157613040612f41565b5b61304c848285613003565b509392505050565b600082601f83011261306957613068612f3c565b5b8135613079848260208601613012565b91505092915050565b60006020828403121561309857613097612f32565b5b600082013567ffffffffffffffff8111156130b6576130b5612f37565b5b6130c284828501613054565b91505092915050565b600081519050919050565b600082825260208201905092915050565b6000819050602082019050919050565b600081519050919050565b600082825260208201905092915050565b60005b83811015613131578082015181840152602081019050613116565b60008484015250505050565b6000613148826130f7565b6131528185613102565b9350613162818560208601613113565b61316b81612f46565b840191505092915050565b6000613182838361313d565b905092915050565b6000602082019050919050565b60006131a2826130cb565b6131ac81856130d6565b9350836020820285016131be856130e7565b8060005b858110156131fa57848403895281516131db8582613176565b94506131e68361318a565b925060208a019950506001810190506131c2565b50829750879550505050505092915050565b600060208201905081810360008301526132268184613197565b905092915050565b6000819050919050565b6132418161322e565b82525050565b600060208201905061325c6000830184613238565b92915050565b61326b8161322e565b811461327657600080fd5b50565b60008135905061328881613262565b92915050565b6000602082840312156132a4576132a3612f32565b5b60006132b284828501613279565b91505092915050565b600080600080608085870312156132d5576132d4612f32565b5b60006132e387828801613279565b94505060206132f487828801613279565b935050604085013567ffffffffffffffff81111561331557613314612f37565b5b61332187828801613054565b925050606061333287828801613279565b91505092959194509250565b600082825260208201905092915050565b600061335a826130f7565b613364818561333e565b9350613374818560208601613113565b61337d81612f46565b840191505092915050565b600060608201905061339d6000830186613238565b6133aa6020830185613238565b81810360408301526133bc818461334f565b9050949350505050565b600060608201905081810360008301526133e0818661334f565b905081810360208301526133f4818561334f565b90508181036040830152613408818461334f565b9050949350505050565b60006040820190506134276000830185613238565b6134346020830184613238565b9392505050565b60006080820190506134506000830187613238565b61345d6020830186613238565b61346a6040830185613238565b818103606083015261347c818461334f565b905095945050505050565b600060608201905061349c6000830186613238565b81810360208301526134ae818561334f565b90506134bd6040830184613238565b949350505050565b600080604083850312156134dc576134db612f32565b5b60006134ea85828601613279565b92505060206134fb85828601613279565b9150509250929050565b6000602082019050818103600083015261351f818461334f565b905092915050565b6000806000806080858703121561354157613540612f32565b5b600061354f87828801613279565b945050602085013567ffffffffffffffff8111156135705761356f612f37565b5b61357c87828801613054565b935050604085013567ffffffffffffffff81111561359d5761359c612f37565b5b6135a987828801613054565b92505060606135ba87828801613279565b91505092959194509250565b600060408201905081810360008301526135e0818561334f565b905081810360208301526135f4818461334f565b90509392505050565b60006060820190506136126000830186613238565b61361f6020830185613238565b61362c6040830184613238565b949350505050565b600081519050919050565b600082825260208201905092915050565b6000819050602082019050919050565b6136698161322e565b82525050565b600061367b8383613660565b60208301905092915050565b6000602082019050919050565b600061369f82613634565b6136a9818561363f565b93506136b483613650565b8060005b838110156136e55781516136cc888261366f565b97506136d783613687565b9250506001810190506136b8565b5085935050505092915050565b6000602082019050818103600083015261370c8184613694565b905092915050565b60008060006060848603121561372d5761372c612f32565b5b600084013567ffffffffffffffff81111561374b5761374a612f37565b5b61375786828701613054565b935050602084013567ffffffffffffffff81111561377857613777612f37565b5b61378486828701613054565b925050604061379586828701613279565b9150509250925092565b600080600080608085870312156137b9576137b8612f32565b5b600085013567ffffffffffffffff8111156137d7576137d6612f37565b5b6137e387828801613054565b945050602085013567ffffffffffffffff81111561380457613803612f37565b5b61381087828801613054565b935050604085013567ffffffffffffffff81111561383157613830612f37565b5b61383d87828801613054565b925050606061384e87828801613279565b91505092959194509250565b6000806040838503121561387157613870612f32565b5b600061387f85828601613279565b925050602083013567ffffffffffffffff8111156138a05761389f612f37565b5b6138ac85828601613054565b9150509250929050565b6000806000606084860312156138cf576138ce612f32565b5b60006138dd86828701613279565b935050602084013567ffffffffffffffff8111156138fe576138fd612f37565b5b61390a86828701613054565b925050604084013567ffffffffffffffff81111561392b5761392a612f37565b5b61393786828701613054565b9150509250925092565b60008060006060848603121561395a57613959612f32565b5b600061396886828701613279565b935050602061397986828701613279565b925050604061398a86828701613279565b9150509250925092565b600080600080608085870312156139ae576139ad612f32565b5b60006139bc87828801613279565b94505060206139cd87828801613279565b93505060406139de87828801613279565b925050606085013567ffffffffffffffff8111156139ff576139fe612f37565b5b613a0b87828801613054565b91505092959194509250565b60008115159050919050565b613a2c81613a17565b82525050565b600061012082019050613a48600083018c613238565b613a55602083018b613a23565b613a62604083018a613a23565b613a6f6060830189613a23565b613a7c6080830188613a23565b613a8960a0830187613a23565b613a9660c0830186613a23565b613aa360e0830185613a23565b613ab1610100830184613a23565b9a9950505050505050505050565b6000608082019050613ad46000830187613238565b613ae16020830186613238565b8181036040830152613af3818561334f565b90508181036060830152613b07818461334f565b905095945050505050565b6000602082019050613b276000830184613a23565b92915050565b600067ffffffffffffffff821115613b4857613b47612f57565b5b602082029050602081019050919050565b600080fd5b6000613b71613b6c84613b2d565b612fb7565b90508083825260208201905060208402830185811115613b9457613b93613b59565b5b835b81811015613bdb57803567ffffffffffffffff811115613bb957613bb8612f3c565b5b808601613bc68982613054565b85526020850194505050602081019050613b96565b5050509392505050565b600082601f830112613bfa57613bf9612f3c565b5b8135613c0a848260208601613b5e565b91505092915050565b60008060008060808587031215613c2d57613c2c612f32565b5b600085013567ffffffffffffffff811115613c4b57613c4a612f37565b5b613c5787828801613054565b9450506020613c6887828801613279565b935050604085013567ffffffffffffffff811115613c8957613c88612f37565b5b613c9587828801613be5565b9250506060613ca687828801613279565b91505092959194509250565b60008060008060808587031215613ccc57613ccb612f32565b5b6000613cda87828801613279565b945050602085013567ffffffffffffffff811115613cfb57613cfa612f37565b5b613d0787828801613054565b9350506040613d1887828801613279565b9250506060613d2987828801613279565b91505092959194509250565b7f4e487b7100000000000000000000000000000000000000000000000000000000600052602260045260246000fd5b60006002820490506001821680613d7c57607f821691505b602082108103613d8f57613d8e613d35565b5b50919050565b600081905092915050565b60008190508160005260206000209050919050565b60008154613dc281613d64565b613dcc8186613d95565b94506001821660008114613de75760018114613dfc57613e2f565b60ff1983168652811515820286019350613e2f565b613e0585613da0565b60005b83811015613e2757815481890152600182019150602081019050613e08565b838801955050505b50505092915050565b6000613e448284613db5565b915081905092915050565b7f4e487b7100000000000000000000000000000000000000000000000000000000600052603260045260246000fd5b7f4e487b7100000000000000000000000000000000000000000000000000000000600052601160045260246000fd5b6000613eb88261322e565b91507fffffffffffffffffffffffffffffffffffffffffffffffffffffffffffffffff8203613eea57613ee9613e7e565b5b600182019050919050565b60008190508160005260206000209050919050565b60006020601f8301049050919050565b600082821b905092915050565b600060088302613f577fffffffffffffffffffffffffffffffffffffffffffffffffffffffffffffffff82613f1a565b613f618683613f1a565b95508019841693508086168417925050509392505050565b6000819050919050565b6000613f9e613f99613f948461322e565b613f79565b61322e565b9050919050565b6000819050919050565b613fb883613f83565b613fcc613fc482613fa5565b848454613f27565b825550505050565b600090565b613fe1613fd4565b613fec818484613faf565b505050565b5b8181101561401057614005600082613fd9565b600181019050613ff2565b5050565b601f8211156140555761402681613ef5565b61402f84613f0a565b8101602085101561403e578190505b61405261404a85613f0a565b830182613ff1565b50505b505050565b600082821c905092915050565b60006140786000198460080261405a565b1980831691505092915050565b60006140918383614067565b9150826002028217905092915050565b6140aa826130f7565b67ffffffffffffffff8111156140c3576140c2612f57565b5b6140cd8254613d64565b6140d8828285614014565b600060209050601f83116001811461410b57600084156140f9578287015190505b6141038582614085565b86555061416b565b601f19841661411986613ef5565b60005b828110156141415784890151825560018201915060208501945060208101905061411c565b8683101561415e578489015161415a601f891682614067565b8355505b6001600288020188555050505b505050505050565b600061417e8261322e565b91506141898361322e565b92508282019050808211156141a1576141a0613e7e565b5b9291505056fea264697066735822122010df436bddaa2652e7c1cfb1173b18b4674fa095cd8afd0bcb539ecef3b01de364736f6c63430008110033",
  "devdoc": {
    "kind": "dev",
    "methods": {},
    "version": 1
  },
  "userdoc": {
    "kind": "user",
    "methods": {},
    "version": 1
  },
  "storageLayout": {
    "storage": [
      {
        "astId": 2021,
        "contract": "contracts/PlanetDAO.sol:PlanetDAO",
        "label": "_dao_ids",
        "offset": 0,
        "slot": "0",
        "type": "t_uint256"
      },
      {
        "astId": 2023,
        "contract": "contracts/PlanetDAO.sol:PlanetDAO",
        "label": "_donations_ids",
        "offset": 0,
        "slot": "1",
        "type": "t_uint256"
      },
      {
        "astId": 2025,
        "contract": "contracts/PlanetDAO.sol:PlanetDAO",
        "label": "_goal_ids",
        "offset": 0,
        "slot": "2",
        "type": "t_uint256"
      },
      {
        "astId": 2027,
        "contract": "contracts/PlanetDAO.sol:PlanetDAO",
        "label": "_ideas_ids",
        "offset": 0,
        "slot": "3",
        "type": "t_uint256"
      },
      {
        "astId": 2029,
        "contract": "contracts/PlanetDAO.sol:PlanetDAO",
        "label": "_join_ids",
        "offset": 0,
        "slot": "4",
        "type": "t_uint256"
      },
      {
        "astId": 2031,
        "contract": "contracts/PlanetDAO.sol:PlanetDAO",
        "label": "_smart_contract_ids",
        "offset": 0,
        "slot": "5",
        "type": "t_uint256"
      },
      {
        "astId": 2033,
        "contract": "contracts/PlanetDAO.sol:PlanetDAO",
        "label": "_ideas_vote_ids",
        "offset": 0,
        "slot": "6",
        "type": "t_uint256"
      },
      {
        "astId": 2035,
        "contract": "contracts/PlanetDAO.sol:PlanetDAO",
        "label": "_message_ids",
        "offset": 0,
        "slot": "7",
        "type": "t_uint256"
      },
      {
        "astId": 2037,
        "contract": "contracts/PlanetDAO.sol:PlanetDAO",
        "label": "_message_read_ids",
        "offset": 0,
        "slot": "8",
        "type": "t_uint256"
      },
      {
        "astId": 2039,
        "contract": "contracts/PlanetDAO.sol:PlanetDAO",
        "label": "_reply_ids",
        "offset": 0,
        "slot": "9",
        "type": "t_uint256"
      },
      {
        "astId": 2044,
        "contract": "contracts/PlanetDAO.sol:PlanetDAO",
        "label": "_dao_uris",
        "offset": 0,
        "slot": "10",
        "type": "t_mapping(t_uint256,t_struct(dao_uri_struct)1930_storage)"
      },
      {
        "astId": 2048,
        "contract": "contracts/PlanetDAO.sol:PlanetDAO",
        "label": "_template_uris",
        "offset": 0,
        "slot": "11",
        "type": "t_mapping(t_uint256,t_string_storage)"
      },
      {
        "astId": 2053,
        "contract": "contracts/PlanetDAO.sol:PlanetDAO",
        "label": "_joined_person",
        "offset": 0,
        "slot": "12",
        "type": "t_mapping(t_uint256,t_struct(join_struct)2000_storage)"
      },
      {
        "astId": 2058,
        "contract": "contracts/PlanetDAO.sol:PlanetDAO",
        "label": "_goal_uris",
        "offset": 0,
        "slot": "13",
        "type": "t_mapping(t_uint256,t_struct(goal_uri_struct)1935_storage)"
      },
      {
        "astId": 2063,
        "contract": "contracts/PlanetDAO.sol:PlanetDAO",
        "label": "_ideas_uris",
        "offset": 0,
        "slot": "14",
        "type": "t_mapping(t_uint256,t_struct(ideas_uri_struct)1942_storage)"
      },
      {
        "astId": 2067,
        "contract": "contracts/PlanetDAO.sol:PlanetDAO",
        "label": "_donated",
        "offset": 0,
        "slot": "15",
        "type": "t_mapping(t_uint256,t_uint256)"
      },
      {
        "astId": 2072,
        "contract": "contracts/PlanetDAO.sol:PlanetDAO",
        "label": "_donations",
        "offset": 0,
        "slot": "16",
        "type": "t_mapping(t_uint256,t_struct(donation_struct)1949_storage)"
      },
      {
        "astId": 2077,
        "contract": "contracts/PlanetDAO.sol:PlanetDAO",
        "label": "_smart_contracts_uris",
        "offset": 0,
        "slot": "17",
        "type": "t_mapping(t_uint256,t_struct(smart_contract_uri_struct)1956_storage)"
      },
      {
        "astId": 2082,
        "contract": "contracts/PlanetDAO.sol:PlanetDAO",
        "label": "all_goal_ideas_votes",
        "offset": 0,
        "slot": "18",
        "type": "t_mapping(t_uint256,t_struct(goal_ideas_votes_struct)1963_storage)"
      },
      {
        "astId": 2087,
        "contract": "contracts/PlanetDAO.sol:PlanetDAO",
        "label": "all_messages",
        "offset": 0,
        "slot": "19",
        "type": "t_mapping(t_uint256,t_struct(message_struct)1972_storage)"
      },
      {
        "astId": 2092,
        "contract": "contracts/PlanetDAO.sol:PlanetDAO",
        "label": "all_read_messages",
        "offset": 0,
        "slot": "20",
        "type": "t_mapping(t_uint256,t_struct(message_read_struct)1981_storage)"
      },
      {
        "astId": 2097,
        "contract": "contracts/PlanetDAO.sol:PlanetDAO",
        "label": "all_replies",
        "offset": 0,
        "slot": "21",
        "type": "t_mapping(t_uint256,t_struct(reply_struct)1990_storage)"
      },
      {
        "astId": 2102,
        "contract": "contracts/PlanetDAO.sol:PlanetDAO",
        "label": "_user_badges",
        "offset": 0,
        "slot": "22",
        "type": "t_mapping(t_uint256,t_struct(user_badge_struct)2019_storage)"
      }
    ],
    "types": {
      "t_bool": {
        "encoding": "inplace",
        "label": "bool",
        "numberOfBytes": "1"
      },
      "t_mapping(t_uint256,t_string_storage)": {
        "encoding": "mapping",
        "key": "t_uint256",
        "label": "mapping(uint256 => string)",
        "numberOfBytes": "32",
        "value": "t_string_storage"
      },
      "t_mapping(t_uint256,t_struct(dao_uri_struct)1930_storage)": {
        "encoding": "mapping",
        "key": "t_uint256",
        "label": "mapping(uint256 => struct PlanetDAO.dao_uri_struct)",
        "numberOfBytes": "32",
        "value": "t_struct(dao_uri_struct)1930_storage"
      },
      "t_mapping(t_uint256,t_struct(donation_struct)1949_storage)": {
        "encoding": "mapping",
        "key": "t_uint256",
        "label": "mapping(uint256 => struct PlanetDAO.donation_struct)",
        "numberOfBytes": "32",
        "value": "t_struct(donation_struct)1949_storage"
      },
      "t_mapping(t_uint256,t_struct(goal_ideas_votes_struct)1963_storage)": {
        "encoding": "mapping",
        "key": "t_uint256",
        "label": "mapping(uint256 => struct PlanetDAO.goal_ideas_votes_struct)",
        "numberOfBytes": "32",
        "value": "t_struct(goal_ideas_votes_struct)1963_storage"
      },
      "t_mapping(t_uint256,t_struct(goal_uri_struct)1935_storage)": {
        "encoding": "mapping",
        "key": "t_uint256",
        "label": "mapping(uint256 => struct PlanetDAO.goal_uri_struct)",
        "numberOfBytes": "32",
        "value": "t_struct(goal_uri_struct)1935_storage"
      },
      "t_mapping(t_uint256,t_struct(ideas_uri_struct)1942_storage)": {
        "encoding": "mapping",
        "key": "t_uint256",
        "label": "mapping(uint256 => struct PlanetDAO.ideas_uri_struct)",
        "numberOfBytes": "32",
        "value": "t_struct(ideas_uri_struct)1942_storage"
      },
      "t_mapping(t_uint256,t_struct(join_struct)2000_storage)": {
        "encoding": "mapping",
        "key": "t_uint256",
        "label": "mapping(uint256 => struct PlanetDAO.join_struct)",
        "numberOfBytes": "32",
        "value": "t_struct(join_struct)2000_storage"
      },
      "t_mapping(t_uint256,t_struct(message_read_struct)1981_storage)": {
        "encoding": "mapping",
        "key": "t_uint256",
        "label": "mapping(uint256 => struct PlanetDAO.message_read_struct)",
        "numberOfBytes": "32",
        "value": "t_struct(message_read_struct)1981_storage"
      },
      "t_mapping(t_uint256,t_struct(message_struct)1972_storage)": {
        "encoding": "mapping",
        "key": "t_uint256",
        "label": "mapping(uint256 => struct PlanetDAO.message_struct)",
        "numberOfBytes": "32",
        "value": "t_struct(message_struct)1972_storage"
      },
      "t_mapping(t_uint256,t_struct(reply_struct)1990_storage)": {
        "encoding": "mapping",
        "key": "t_uint256",
        "label": "mapping(uint256 => struct PlanetDAO.reply_struct)",
        "numberOfBytes": "32",
        "value": "t_struct(reply_struct)1990_storage"
      },
      "t_mapping(t_uint256,t_struct(smart_contract_uri_struct)1956_storage)": {
        "encoding": "mapping",
        "key": "t_uint256",
        "label": "mapping(uint256 => struct PlanetDAO.smart_contract_uri_struct)",
        "numberOfBytes": "32",
        "value": "t_struct(smart_contract_uri_struct)1956_storage"
      },
      "t_mapping(t_uint256,t_struct(user_badge_struct)2019_storage)": {
        "encoding": "mapping",
        "key": "t_uint256",
        "label": "mapping(uint256 => struct PlanetDAO.user_badge_struct)",
        "numberOfBytes": "32",
        "value": "t_struct(user_badge_struct)2019_storage"
      },
      "t_mapping(t_uint256,t_uint256)": {
        "encoding": "mapping",
        "key": "t_uint256",
        "label": "mapping(uint256 => uint256)",
        "numberOfBytes": "32",
        "value": "t_uint256"
      },
      "t_string_storage": {
        "encoding": "bytes",
        "label": "string",
        "numberOfBytes": "32"
      },
      "t_struct(dao_uri_struct)1930_storage": {
        "encoding": "inplace",
        "label": "struct PlanetDAO.dao_uri_struct",
        "members": [
          {
            "astId": 1925,
            "contract": "contracts/PlanetDAO.sol:PlanetDAO",
            "label": "dao_wallet",
            "offset": 0,
            "slot": "0",
            "type": "t_string_storage"
          },
          {
            "astId": 1927,
            "contract": "contracts/PlanetDAO.sol:PlanetDAO",
            "label": "dao_uri",
            "offset": 0,
            "slot": "1",
            "type": "t_string_storage"
          },
          {
            "astId": 1929,
            "contract": "contracts/PlanetDAO.sol:PlanetDAO",
            "label": "finished",
            "offset": 0,
            "slot": "2",
            "type": "t_string_storage"
          }
        ],
        "numberOfBytes": "96"
      },
      "t_struct(donation_struct)1949_storage": {
        "encoding": "inplace",
        "label": "struct PlanetDAO.donation_struct",
        "members": [
          {
            "astId": 1944,
            "contract": "contracts/PlanetDAO.sol:PlanetDAO",
            "label": "ideas_id",
            "offset": 0,
            "slot": "0",
            "type": "t_uint256"
          },
          {
            "astId": 1946,
            "contract": "contracts/PlanetDAO.sol:PlanetDAO",
            "label": "userid",
            "offset": 0,
            "slot": "1",
            "type": "t_uint256"
          },
          {
            "astId": 1948,
            "contract": "contracts/PlanetDAO.sol:PlanetDAO",
            "label": "donation",
            "offset": 0,
            "slot": "2",
            "type": "t_uint256"
          }
        ],
        "numberOfBytes": "96"
      },
      "t_struct(goal_ideas_votes_struct)1963_storage": {
        "encoding": "inplace",
        "label": "struct PlanetDAO.goal_ideas_votes_struct",
        "members": [
          {
            "astId": 1958,
            "contract": "contracts/PlanetDAO.sol:PlanetDAO",
            "label": "goal_id",
            "offset": 0,
            "slot": "0",
            "type": "t_uint256"
          },
          {
            "astId": 1960,
            "contract": "contracts/PlanetDAO.sol:PlanetDAO",
            "label": "ideas_id",
            "offset": 0,
            "slot": "1",
            "type": "t_uint256"
          },
          {
            "astId": 1962,
            "contract": "contracts/PlanetDAO.sol:PlanetDAO",
            "label": "wallet",
            "offset": 0,
            "slot": "2",
            "type": "t_string_storage"
          }
        ],
        "numberOfBytes": "96"
      },
      "t_struct(goal_uri_struct)1935_storage": {
        "encoding": "inplace",
        "label": "struct PlanetDAO.goal_uri_struct",
        "members": [
          {
            "astId": 1932,
            "contract": "contracts/PlanetDAO.sol:PlanetDAO",
            "label": "dao_id",
            "offset": 0,
            "slot": "0",
            "type": "t_string_storage"
          },
          {
            "astId": 1934,
            "contract": "contracts/PlanetDAO.sol:PlanetDAO",
            "label": "goal_uri",
            "offset": 0,
            "slot": "1",
            "type": "t_string_storage"
          }
        ],
        "numberOfBytes": "64"
      },
      "t_struct(ideas_uri_struct)1942_storage": {
        "encoding": "inplace",
        "label": "struct PlanetDAO.ideas_uri_struct",
        "members": [
          {
            "astId": 1937,
            "contract": "contracts/PlanetDAO.sol:PlanetDAO",
            "label": "goal_id",
            "offset": 0,
            "slot": "0",
            "type": "t_uint256"
          },
          {
            "astId": 1939,
            "contract": "contracts/PlanetDAO.sol:PlanetDAO",
            "label": "ideas_uri",
            "offset": 0,
            "slot": "1",
            "type": "t_string_storage"
          },
          {
            "astId": 1941,
            "contract": "contracts/PlanetDAO.sol:PlanetDAO",
            "label": "donation",
            "offset": 0,
            "slot": "2",
            "type": "t_uint256"
          }
        ],
        "numberOfBytes": "96"
      },
      "t_struct(join_struct)2000_storage": {
        "encoding": "inplace",
        "label": "struct PlanetDAO.join_struct",
        "members": [
          {
            "astId": 1997,
            "contract": "contracts/PlanetDAO.sol:PlanetDAO",
            "label": "daoid",
            "offset": 0,
            "slot": "0",
            "type": "t_uint256"
          },
          {
            "astId": 1999,
            "contract": "contracts/PlanetDAO.sol:PlanetDAO",
            "label": "user_id",
            "offset": 0,
            "slot": "1",
            "type": "t_uint256"
          }
        ],
        "numberOfBytes": "64"
      },
      "t_struct(message_read_struct)1981_storage": {
        "encoding": "inplace",
        "label": "struct PlanetDAO.message_read_struct",
        "members": [
          {
            "astId": 1974,
            "contract": "contracts/PlanetDAO.sol:PlanetDAO",
            "label": "message_id",
            "offset": 0,
            "slot": "0",
            "type": "t_uint256"
          },
          {
            "astId": 1976,
            "contract": "contracts/PlanetDAO.sol:PlanetDAO",
            "label": "ideas_id",
            "offset": 0,
            "slot": "1",
            "type": "t_uint256"
          },
          {
            "astId": 1978,
            "contract": "contracts/PlanetDAO.sol:PlanetDAO",
            "label": "user_id",
            "offset": 0,
            "slot": "2",
            "type": "t_uint256"
          },
          {
            "astId": 1980,
            "contract": "contracts/PlanetDAO.sol:PlanetDAO",
            "label": "msg_type",
            "offset": 0,
            "slot": "3",
            "type": "t_string_storage"
          }
        ],
        "numberOfBytes": "128"
      },
      "t_struct(message_struct)1972_storage": {
        "encoding": "inplace",
        "label": "struct PlanetDAO.message_struct",
        "members": [
          {
            "astId": 1965,
            "contract": "contracts/PlanetDAO.sol:PlanetDAO",
            "label": "message_id",
            "offset": 0,
            "slot": "0",
            "type": "t_uint256"
          },
          {
            "astId": 1967,
            "contract": "contracts/PlanetDAO.sol:PlanetDAO",
            "label": "ideas_id",
            "offset": 0,
            "slot": "1",
            "type": "t_uint256"
          },
          {
            "astId": 1969,
            "contract": "contracts/PlanetDAO.sol:PlanetDAO",
            "label": "message",
            "offset": 0,
            "slot": "2",
            "type": "t_string_storage"
          },
          {
            "astId": 1971,
            "contract": "contracts/PlanetDAO.sol:PlanetDAO",
            "label": "sender",
            "offset": 0,
            "slot": "3",
            "type": "t_string_storage"
          }
        ],
        "numberOfBytes": "128"
      },
      "t_struct(reply_struct)1990_storage": {
        "encoding": "inplace",
        "label": "struct PlanetDAO.reply_struct",
        "members": [
          {
            "astId": 1983,
            "contract": "contracts/PlanetDAO.sol:PlanetDAO",
            "label": "reply_id",
            "offset": 0,
            "slot": "0",
            "type": "t_uint256"
          },
          {
            "astId": 1985,
            "contract": "contracts/PlanetDAO.sol:PlanetDAO",
            "label": "message_id",
            "offset": 0,
            "slot": "1",
            "type": "t_uint256"
          },
          {
            "astId": 1987,
            "contract": "contracts/PlanetDAO.sol:PlanetDAO",
            "label": "ideas_id",
            "offset": 0,
            "slot": "2",
            "type": "t_uint256"
          },
          {
            "astId": 1989,
            "contract": "contracts/PlanetDAO.sol:PlanetDAO",
            "label": "message",
            "offset": 0,
            "slot": "3",
            "type": "t_string_storage"
          }
        ],
        "numberOfBytes": "128"
      },
      "t_struct(smart_contract_uri_struct)1956_storage": {
        "encoding": "inplace",
        "label": "struct PlanetDAO.smart_contract_uri_struct",
        "members": [
          {
            "astId": 1951,
            "contract": "contracts/PlanetDAO.sol:PlanetDAO",
            "label": "smart_contract_id",
            "offset": 0,
            "slot": "0",
            "type": "t_uint256"
          },
          {
            "astId": 1953,
            "contract": "contracts/PlanetDAO.sol:PlanetDAO",
            "label": "ideas_id",
            "offset": 0,
            "slot": "1",
            "type": "t_uint256"
          },
          {
            "astId": 1955,
            "contract": "contracts/PlanetDAO.sol:PlanetDAO",
            "label": "smart_contract_uri",
            "offset": 0,
            "slot": "2",
            "type": "t_string_storage"
          }
        ],
        "numberOfBytes": "96"
      },
      "t_struct(user_badge_struct)2019_storage": {
        "encoding": "inplace",
        "label": "struct PlanetDAO.user_badge_struct",
        "members": [
          {
            "astId": 2002,
            "contract": "contracts/PlanetDAO.sol:PlanetDAO",
            "label": "user_id",
            "offset": 0,
            "slot": "0",
            "type": "t_uint256"
          },
          {
            "astId": 2004,
            "contract": "contracts/PlanetDAO.sol:PlanetDAO",
            "label": "dao",
            "offset": 0,
            "slot": "1",
            "type": "t_bool"
          },
          {
            "astId": 2006,
            "contract": "contracts/PlanetDAO.sol:PlanetDAO",
            "label": "joined",
            "offset": 1,
            "slot": "1",
            "type": "t_bool"
          },
          {
            "astId": 2008,
            "contract": "contracts/PlanetDAO.sol:PlanetDAO",
            "label": "goal",
            "offset": 2,
            "slot": "1",
            "type": "t_bool"
          },
          {
            "astId": 2010,
            "contract": "contracts/PlanetDAO.sol:PlanetDAO",
            "label": "ideas",
            "offset": 3,
            "slot": "1",
            "type": "t_bool"
          },
          {
            "astId": 2012,
            "contract": "contracts/PlanetDAO.sol:PlanetDAO",
            "label": "vote",
            "offset": 4,
            "slot": "1",
            "type": "t_bool"
          },
          {
            "astId": 2014,
            "contract": "contracts/PlanetDAO.sol:PlanetDAO",
            "label": "donation",
            "offset": 5,
            "slot": "1",
            "type": "t_bool"
          },
          {
            "astId": 2016,
            "contract": "contracts/PlanetDAO.sol:PlanetDAO",
            "label": "comment",
            "offset": 6,
            "slot": "1",
            "type": "t_bool"
          },
          {
            "astId": 2018,
            "contract": "contracts/PlanetDAO.sol:PlanetDAO",
            "label": "reply",
            "offset": 7,
            "slot": "1",
            "type": "t_bool"
          }
        ],
        "numberOfBytes": "64"
      },
      "t_uint256": {
        "encoding": "inplace",
        "label": "uint256",
        "numberOfBytes": "32"
      }
    }
  }
}