{
  "address": "0x733a9B3F9A9C12bDCa169063351b771c894bAbD9",
  "abi": [
    {
      "inputs": [],
      "name": "_dao_ids",
      "outputs": [
        {
          "internalType": "uint256",
          "name": "",
          "type": "uint256"
        }
      ],
      "stateMutability": "view",
      "type": "function"
    },
    {
      "inputs": [
        {
          "internalType": "uint256",
          "name": "",
          "type": "uint256"
        }
      ],
      "name": "_dao_uris",
      "outputs": [
        {
          "internalType": "string",
          "name": "dao_wallet",
          "type": "string"
        },
        {
          "internalType": "string",
          "name": "dao_uri",
          "type": "string"
        },
        {
          "internalType": "string",
          "name": "finished",
          "type": "string"
        }
      ],
      "stateMutability": "view",
      "type": "function"
    },
    {
      "inputs": [
        {
          "internalType": "uint256",
          "name": "",
          "type": "uint256"
        }
      ],
      "name": "_donated",
      "outputs": [
        {
          "internalType": "uint256",
          "name": "",
          "type": "uint256"
        }
      ],
      "stateMutability": "view",
      "type": "function"
    },
    {
      "inputs": [
        {
          "internalType": "uint256",
          "name": "",
          "type": "uint256"
        }
      ],
      "name": "_donations",
      "outputs": [
        {
          "internalType": "uint256",
          "name": "ideas_id",
          "type": "uint256"
        },
        {
          "internalType": "uint256",
          "name": "userid",
          "type": "uint256"
        },
        {
          "internalType": "uint256",
          "name": "donation",
          "type": "uint256"
        }
      ],
      "stateMutability": "view",
      "type": "function"
    },
    {
      "inputs": [],
      "name": "_donations_ids",
      "outputs": [
        {
          "internalType": "uint256",
          "name": "",
          "type": "uint256"
        }
      ],
      "stateMutability": "view",
      "type": "function"
    },
    {
      "inputs": [],
      "name": "_goal_ids",
      "outputs": [
        {
          "internalType": "uint256",
          "name": "",
          "type": "uint256"
        }
      ],
      "stateMutability": "view",
      "type": "function"
    },
    {
      "inputs": [
        {
          "internalType": "uint256",
          "name": "",
          "type": "uint256"
        }
      ],
      "name": "_goal_uris",
      "outputs": [
        {
          "internalType": "string",
          "name": "dao_id",
          "type": "string"
        },
        {
          "internalType": "string",
          "name": "goal_uri",
          "type": "string"
        }
      ],
      "stateMutability": "view",
      "type": "function"
    },
    {
      "inputs": [],
      "name": "_ideas_ids",
      "outputs": [
        {
          "internalType": "uint256",
          "name": "",
          "type": "uint256"
        }
      ],
      "stateMutability": "view",
      "type": "function"
    },
    {
      "inputs": [
        {
          "internalType": "uint256",
          "name": "",
          "type": "uint256"
        }
      ],
      "name": "_ideas_uris",
      "outputs": [
        {
          "internalType": "uint256",
          "name": "goal_id",
          "type": "uint256"
        },
        {
          "internalType": "string",
          "name": "ideas_uri",
          "type": "string"
        },
        {
          "internalType": "uint256",
          "name": "donation",
          "type": "uint256"
        }
      ],
      "stateMutability": "view",
      "type": "function"
    },
    {
      "inputs": [],
      "name": "_ideas_vote_ids",
      "outputs": [
        {
          "internalType": "uint256",
          "name": "",
          "type": "uint256"
        }
      ],
      "stateMutability": "view",
      "type": "function"
    },
    {
      "inputs": [],
      "name": "_join_ids",
      "outputs": [
        {
          "internalType": "uint256",
          "name": "",
          "type": "uint256"
        }
      ],
      "stateMutability": "view",
      "type": "function"
    },
    {
      "inputs": [
        {
          "internalType": "uint256",
          "name": "",
          "type": "uint256"
        }
      ],
      "name": "_joined_person",
      "outputs": [
        {
          "internalType": "uint256",
          "name": "daoid",
          "type": "uint256"
        },
        {
          "internalType": "uint256",
          "name": "user_id",
          "type": "uint256"
        }
      ],
      "stateMutability": "view",
      "type": "function"
    },
    {
      "inputs": [],
      "name": "_message_ids",
      "outputs": [
        {
          "internalType": "uint256",
          "name": "",
          "type": "uint256"
        }
      ],
      "stateMutability": "view",
      "type": "function"
    },
    {
      "inputs": [],
      "name": "_message_read_ids",
      "outputs": [
        {
          "internalType": "uint256",
          "name": "",
          "type": "uint256"
        }
      ],
      "stateMutability": "view",
      "type": "function"
    },
    {
      "inputs": [],
      "name": "_reply_ids",
      "outputs": [
        {
          "internalType": "uint256",
          "name": "",
          "type": "uint256"
        }
      ],
      "stateMutability": "view",
      "type": "function"
    },
    {
      "inputs": [],
      "name": "_smart_contract_ids",
      "outputs": [
        {
          "internalType": "uint256",
          "name": "",
          "type": "uint256"
        }
      ],
      "stateMutability": "view",
      "type": "function"
    },
    {
      "inputs": [
        {
          "internalType": "uint256",
          "name": "",
          "type": "uint256"
        }
      ],
      "name": "_smart_contracts_uris",
      "outputs": [
        {
          "internalType": "uint256",
          "name": "smart_contract_id",
          "type": "uint256"
        },
        {
          "internalType": "uint256",
          "name": "ideas_id",
          "type": "uint256"
        },
        {
          "internalType": "string",
          "name": "smart_contract_uri",
          "type": "string"
        }
      ],
      "stateMutability": "view",
      "type": "function"
    },
    {
      "inputs": [
        {
          "internalType": "uint256",
          "name": "",
          "type": "uint256"
        }
      ],
      "name": "_template_uris",
      "outputs": [
        {
          "internalType": "string",
          "name": "",
          "type": "string"
        }
      ],
      "stateMutability": "view",
      "type": "function"
    },
    {
      "inputs": [
        {
          "internalType": "uint256",
          "name": "",
          "type": "uint256"
        }
      ],
      "name": "_user_badges",
      "outputs": [
        {
          "internalType": "uint256",
          "name": "user_id",
          "type": "uint256"
        },
        {
          "internalType": "bool",
          "name": "dao",
          "type": "bool"
        },
        {
          "internalType": "bool",
          "name": "joined",
          "type": "bool"
        },
        {
          "internalType": "bool",
          "name": "goal",
          "type": "bool"
        },
        {
          "internalType": "bool",
          "name": "ideas",
          "type": "bool"
        },
        {
          "internalType": "bool",
          "name": "vote",
          "type": "bool"
        },
        {
          "internalType": "bool",
          "name": "donation",
          "type": "bool"
        },
        {
          "internalType": "bool",
          "name": "comment",
          "type": "bool"
        },
        {
          "internalType": "bool",
          "name": "reply",
          "type": "bool"
        }
      ],
      "stateMutability": "view",
      "type": "function"
    },
    {
      "inputs": [
        {
          "internalType": "uint256",
          "name": "_ideas_id",
          "type": "uint256"
        },
        {
          "internalType": "uint256",
          "name": "_doantion",
          "type": "uint256"
        },
        {
          "internalType": "uint256",
          "name": "_userid",
          "type": "uint256"
        }
      ],
      "name": "add_donation",
      "outputs": [],
      "stateMutability": "nonpayable",
      "type": "function"
    },
    {
      "inputs": [
        {
          "internalType": "uint256",
          "name": "",
          "type": "uint256"
        }
      ],
      "name": "all_goal_ideas_votes",
      "outputs": [
        {
          "internalType": "uint256",
          "name": "goal_id",
          "type": "uint256"
        },
        {
          "internalType": "uint256",
          "name": "ideas_id",
          "type": "uint256"
        },
        {
          "internalType": "uint256",
          "name": "user_id",
          "type": "uint256"
        }
      ],
      "stateMutability": "view",
      "type": "function"
    },
    {
      "inputs": [
        {
          "internalType": "uint256",
          "name": "",
          "type": "uint256"
        }
      ],
      "name": "all_messages",
      "outputs": [
        {
          "internalType": "uint256",
          "name": "message_id",
          "type": "uint256"
        },
        {
          "internalType": "uint256",
          "name": "ideas_id",
          "type": "uint256"
        },
        {
          "internalType": "string",
          "name": "message",
          "type": "string"
        },
        {
          "internalType": "string",
          "name": "sender",
          "type": "string"
        }
      ],
      "stateMutability": "view",
      "type": "function"
    },
    {
      "inputs": [
        {
          "internalType": "uint256",
          "name": "",
          "type": "uint256"
        }
      ],
      "name": "all_read_messages",
      "outputs": [
        {
          "internalType": "uint256",
          "name": "message_id",
          "type": "uint256"
        },
        {
          "internalType": "uint256",
          "name": "ideas_id",
          "type": "uint256"
        },
        {
          "internalType": "uint256",
          "name": "user_id",
          "type": "uint256"
        },
        {
          "internalType": "string",
          "name": "msg_type",
          "type": "string"
        }
      ],
      "stateMutability": "view",
      "type": "function"
    },
    {
      "inputs": [
        {
          "internalType": "uint256",
          "name": "",
          "type": "uint256"
        }
      ],
      "name": "all_replies",
      "outputs": [
        {
          "internalType": "uint256",
          "name": "reply_id",
          "type": "uint256"
        },
        {
          "internalType": "uint256",
          "name": "message_id",
          "type": "uint256"
        },
        {
          "internalType": "uint256",
          "name": "ideas_id",
          "type": "uint256"
        },
        {
          "internalType": "string",
          "name": "message",
          "type": "string"
        }
      ],
      "stateMutability": "view",
      "type": "function"
    },
    {
      "inputs": [
        {
          "internalType": "string",
          "name": "_dao_wallet",
          "type": "string"
        },
        {
          "internalType": "string",
          "name": "_dao_uri",
          "type": "string"
        },
        {
          "internalType": "string",
          "name": "_template",
          "type": "string"
        },
        {
          "internalType": "uint256",
          "name": "user_id",
          "type": "uint256"
        }
      ],
      "name": "create_dao",
      "outputs": [
        {
          "internalType": "uint256",
          "name": "",
          "type": "uint256"
        }
      ],
      "stateMutability": "nonpayable",
      "type": "function"
    },
    {
      "inputs": [
        {
          "internalType": "string",
          "name": "_goal_uri",
          "type": "string"
        },
        {
          "internalType": "string",
          "name": "_dao_id",
          "type": "string"
        },
        {
          "internalType": "uint256",
          "name": "_user_id",
          "type": "uint256"
        }
      ],
      "name": "create_goal",
      "outputs": [
        {
          "internalType": "uint256",
          "name": "",
          "type": "uint256"
        }
      ],
      "stateMutability": "nonpayable",
      "type": "function"
    },
    {
      "inputs": [
        {
          "internalType": "uint256",
          "name": "_goal_id",
          "type": "uint256"
        },
        {
          "internalType": "uint256",
          "name": "_ideas_id",
          "type": "uint256"
        },
        {
          "internalType": "uint256",
          "name": "_user_id",
          "type": "uint256"
        }
      ],
      "name": "create_goal_ideas_vote",
      "outputs": [
        {
          "internalType": "uint256",
          "name": "",
          "type": "uint256"
        }
      ],
      "stateMutability": "nonpayable",
      "type": "function"
    },
    {
      "inputs": [
        {
          "internalType": "string",
          "name": "_ideas_uri",
          "type": "string"
        },
        {
          "internalType": "uint256",
          "name": "_goal_id",
          "type": "uint256"
        },
        {
          "internalType": "string[]",
          "name": "_smart_contracts",
          "type": "string[]"
        },
        {
          "internalType": "uint256",
          "name": "_user_id",
          "type": "uint256"
        }
      ],
      "name": "create_ideas",
      "outputs": [
        {
          "internalType": "uint256",
          "name": "",
          "type": "uint256"
        }
      ],
      "stateMutability": "nonpayable",
      "type": "function"
    },
    {
      "inputs": [
        {
          "internalType": "uint256",
          "name": "_dao_id",
          "type": "uint256"
        }
      ],
      "name": "dao_uri",
      "outputs": [
        {
          "internalType": "string",
          "name": "",
          "type": "string"
        }
      ],
      "stateMutability": "view",
      "type": "function"
    },
    {
      "inputs": [
        {
          "internalType": "uint256",
          "name": "ideas_id",
          "type": "uint256"
        }
      ],
      "name": "getMsgIDs",
      "outputs": [
        {
          "internalType": "uint256[]",
          "name": "",
          "type": "uint256[]"
        }
      ],
      "stateMutability": "view",
      "type": "function"
    },
    {
      "inputs": [
        {
          "internalType": "uint256",
          "name": "_message_id",
          "type": "uint256"
        },
        {
          "internalType": "string",
          "name": "msg_type",
          "type": "string"
        }
      ],
      "name": "getReadMsg",
      "outputs": [
        {
          "internalType": "bool",
          "name": "",
          "type": "bool"
        }
      ],
      "stateMutability": "view",
      "type": "function"
    },
    {
      "inputs": [
        {
          "internalType": "uint256",
          "name": "message_id",
          "type": "uint256"
        }
      ],
      "name": "getReplyIDs",
      "outputs": [
        {
          "internalType": "uint256[]",
          "name": "",
          "type": "uint256[]"
        }
      ],
      "stateMutability": "view",
      "type": "function"
    },
    {
      "inputs": [],
      "name": "get_all_daos",
      "outputs": [
        {
          "internalType": "string[]",
          "name": "",
          "type": "string[]"
        }
      ],
      "stateMutability": "view",
      "type": "function"
    },
    {
      "inputs": [],
      "name": "get_all_goals",
      "outputs": [
        {
          "internalType": "string[]",
          "name": "",
          "type": "string[]"
        }
      ],
      "stateMutability": "view",
      "type": "function"
    },
    {
      "inputs": [
        {
          "internalType": "string",
          "name": "_dao_id",
          "type": "string"
        }
      ],
      "name": "get_all_goals_by_dao_id",
      "outputs": [
        {
          "internalType": "string[]",
          "name": "",
          "type": "string[]"
        }
      ],
      "stateMutability": "view",
      "type": "function"
    },
    {
      "inputs": [],
      "name": "get_all_ideas",
      "outputs": [
        {
          "internalType": "string[]",
          "name": "",
          "type": "string[]"
        }
      ],
      "stateMutability": "view",
      "type": "function"
    },
    {
      "inputs": [
        {
          "internalType": "uint256",
          "name": "_goal_id",
          "type": "uint256"
        }
      ],
      "name": "get_all_ideas_by_goal_id",
      "outputs": [
        {
          "internalType": "string[]",
          "name": "",
          "type": "string[]"
        }
      ],
      "stateMutability": "view",
      "type": "function"
    },
    {
      "inputs": [
        {
          "internalType": "string",
          "name": "_goal_uri",
          "type": "string"
        }
      ],
      "name": "get_goal_id_by_goal_uri",
      "outputs": [
        {
          "internalType": "uint256",
          "name": "",
          "type": "uint256"
        }
      ],
      "stateMutability": "view",
      "type": "function"
    },
    {
      "inputs": [
        {
          "internalType": "string",
          "name": "_ideas_uri",
          "type": "string"
        }
      ],
      "name": "get_goal_id_from_ideas_uri",
      "outputs": [
        {
          "internalType": "uint256",
          "name": "",
          "type": "uint256"
        }
      ],
      "stateMutability": "view",
      "type": "function"
    },
    {
      "inputs": [
        {
          "internalType": "string",
          "name": "_ideas_uri",
          "type": "string"
        }
      ],
      "name": "get_ideas_id_by_ideas_uri",
      "outputs": [
        {
          "internalType": "uint256",
          "name": "",
          "type": "uint256"
        }
      ],
      "stateMutability": "view",
      "type": "function"
    },
    {
      "inputs": [
        {
          "internalType": "uint256",
          "name": "_goal_id",
          "type": "uint256"
        },
        {
          "internalType": "uint256",
          "name": "_ideas_id",
          "type": "uint256"
        }
      ],
      "name": "get_ideas_votes_from_goal",
      "outputs": [
        {
          "internalType": "uint256[]",
          "name": "",
          "type": "uint256[]"
        }
      ],
      "stateMutability": "view",
      "type": "function"
    },
    {
      "inputs": [
        {
          "internalType": "uint256",
          "name": "_goal_id",
          "type": "uint256"
        }
      ],
      "name": "goal_uri",
      "outputs": [
        {
          "internalType": "string",
          "name": "",
          "type": "string"
        }
      ],
      "stateMutability": "view",
      "type": "function"
    },
    {
      "inputs": [
        {
          "internalType": "uint256",
          "name": "_ideas_id",
          "type": "uint256"
        }
      ],
      "name": "ideas_uri",
      "outputs": [
        {
          "internalType": "string",
          "name": "",
          "type": "string"
        }
      ],
      "stateMutability": "view",
      "type": "function"
    },
    {
      "inputs": [
        {
          "internalType": "uint256",
          "name": "person",
          "type": "uint256"
        }
      ],
      "name": "is_person_joined",
      "outputs": [
        {
          "internalType": "bool",
          "name": "",
          "type": "bool"
        }
      ],
      "stateMutability": "view",
      "type": "function"
    },
    {
      "inputs": [
        {
          "internalType": "uint256",
          "name": "dao_id",
          "type": "uint256"
        },
        {
          "internalType": "uint256",
          "name": "person",
          "type": "uint256"
        }
      ],
      "name": "join_community",
      "outputs": [],
      "stateMutability": "nonpayable",
      "type": "function"
    },
    {
      "inputs": [],
      "name": "reset_all",
      "outputs": [],
      "stateMutability": "nonpayable",
      "type": "function"
    },
    {
      "inputs": [
        {
          "internalType": "uint256",
          "name": "_ideas_id",
          "type": "uint256"
        },
        {
          "internalType": "string",
          "name": "_message",
          "type": "string"
        },
        {
          "internalType": "string",
          "name": "_sender",
          "type": "string"
        },
        {
          "internalType": "uint256",
          "name": "_user_id",
          "type": "uint256"
        }
      ],
      "name": "sendMsg",
      "outputs": [
        {
          "internalType": "uint256",
          "name": "",
          "type": "uint256"
        }
      ],
      "stateMutability": "nonpayable",
      "type": "function"
    },
    {
      "inputs": [
        {
          "internalType": "uint256",
          "name": "_message_id",
          "type": "uint256"
        },
        {
          "internalType": "uint256",
          "name": "_ideas_id",
          "type": "uint256"
        },
        {
          "internalType": "uint256",
          "name": "_wallet",
          "type": "uint256"
        },
        {
          "internalType": "string",
          "name": "msg_type",
          "type": "string"
        }
      ],
      "name": "sendReadMsg",
      "outputs": [
        {
          "internalType": "uint256",
          "name": "",
          "type": "uint256"
        }
      ],
      "stateMutability": "nonpayable",
      "type": "function"
    },
    {
      "inputs": [
        {
          "internalType": "uint256",
          "name": "_message_id",
          "type": "uint256"
        },
        {
          "internalType": "string",
          "name": "_reply",
          "type": "string"
        },
        {
          "internalType": "uint256",
          "name": "ideas_id",
          "type": "uint256"
        },
        {
          "internalType": "uint256",
          "name": "_userid",
          "type": "uint256"
        }
      ],
      "name": "sendReply",
      "outputs": [
        {
          "internalType": "uint256",
          "name": "",
          "type": "uint256"
        }
      ],
      "stateMutability": "nonpayable",
      "type": "function"
    },
    {
      "inputs": [
        {
          "internalType": "uint256",
          "name": "_dao_id",
          "type": "uint256"
        },
        {
          "internalType": "string",
          "name": "_dao_wallet",
          "type": "string"
        },
        {
          "internalType": "string",
          "name": "_dao_uri",
          "type": "string"
        }
      ],
      "name": "set_dao",
      "outputs": [],
      "stateMutability": "nonpayable",
      "type": "function"
    },
    {
      "inputs": [
        {
          "internalType": "uint256",
          "name": "_goal_id",
          "type": "uint256"
        },
        {
          "internalType": "string",
          "name": "_goal_uri",
          "type": "string"
        }
      ],
      "name": "set_goal",
      "outputs": [],
      "stateMutability": "nonpayable",
      "type": "function"
    },
    {
      "inputs": [
        {
          "internalType": "uint256",
          "name": "_ideas_id",
          "type": "uint256"
        },
        {
          "internalType": "string",
          "name": "_ideas_uri",
          "type": "string"
        }
      ],
      "name": "set_ideas",
      "outputs": [],
      "stateMutability": "nonpayable",
      "type": "function"
    },
    {
      "inputs": [
        {
          "internalType": "uint256",
          "name": "_dao_id",
          "type": "uint256"
        },
        {
          "internalType": "string",
          "name": "_template",
          "type": "string"
        }
      ],
      "name": "update_template",
      "outputs": [],
      "stateMutability": "nonpayable",
      "type": "function"
    }
  ],
  "transactionHash": "0x92bebe4dd36b8eb997918c2200f3088a444e31a177b366403caae39636c17e4b",
  "args": [],
  "numDeployments": 1,
  "solcInputHash": "fc2aaebf65d4da12f1e9c562baec5e18",
  "bytecode": "0x608060405234801561001057600080fd5b50614031806100206000396000f3fe608060405234801561001057600080fd5b50600436106103275760003560e01c806387633eb2116101b8578063c04e743011610104578063cd230809116100a2578063d9fc52db1161007c578063d9fc52db14610b01578063e32acc1a14610b31578063ec24580214610b61578063ff4a37ef14610b7f57610327565b8063cd23080914610a83578063d3791b2014610ab3578063d4ea3a3614610ad157610327565b8063c6182b34116100de578063c6182b34146109e6578063c7af4ee514610a02578063ca013f1714610a32578063cace8d4614610a5057610327565b8063c04e743014610990578063c04fe978146109ac578063c29595c5146109ca57610327565b806397ee760611610171578063aa2bf5d31161014b578063aa2bf5d314610905578063aa4cdf2a14610923578063b16060a614610953578063b527d45e1461095d57610327565b806397ee76061461087f578063a1ca91781461089d578063a428a47f146108cd57610327565b806387633eb2146107ad578063881de858146107c95780638d3d2595146107e55780638e6280e6146108155780639077007d14610831578063934c5f001461084f57610327565b80634a797bd7116102775780637bbd582d11610230578063803f5b9f1161020a578063803f5b9f146106ed578063812fae1f1461071d5780638413543e1461074d57806386ffa45b1461077d57610327565b80637bbd582d1461066c5780637f2035d41461068a5780637fc543ec146106bb57610327565b80634a797bd71461055e5780634be7adb51461057c5780634ff77421146105ac5780635d907da1146105dc5780636ecda4ee1461060c578063787f19c71461063c57610327565b80631e9ac9f5116102e457806329b56f60116102be57806329b56f60146104aa578063330b8f26146104c85780633f87a2f4146104f9578063468d0c801461052c57610327565b80631e9ac9f51461041857806320959ed01461044857806327a568b91461047857610327565b80630377d44a1461032c5780631171b6211461035c578063131d44f21461037a57806313bf4cea146103aa5780631b592aeb146103c85780631ba44c4c146103e6575b600080fd5b61034660048036038101906103419190612f59565b610bb1565b60405161035391906130e3565b60405180910390f35b610364610d3b565b604051610371919061311e565b60405180910390f35b610394600480360381019061038f9190613165565b610d41565b6040516103a191906130e3565b60405180910390f35b6103b2610eb0565b6040516103bf919061311e565b60405180910390f35b6103d0610eb6565b6040516103dd919061311e565b60405180910390f35b61040060048036038101906103fb9190613165565b610ebc565b60405161040f93929190613192565b60405180910390f35b610432600480360381019061042d9190612f59565b610ee6565b60405161043f919061311e565b60405180910390f35b610462600480360381019061045d9190613165565b610f57565b60405161046f919061311e565b60405180910390f35b610492600480360381019061048d9190613165565b610f6f565b6040516104a193929190613213565b60405180910390f35b6104b2611131565b6040516104bf91906130e3565b60405180910390f35b6104e260048036038101906104dd9190613165565b61126c565b6040516104f092919061325f565b60405180910390f35b610513600480360381019061050e9190613165565b611290565b6040516105239493929190613288565b60405180910390f35b61054660048036038101906105419190613165565b611348565b604051610555939291906132d4565b60405180910390f35b6105666113fa565b604051610573919061311e565b60405180910390f35b61059660048036038101906105919190613312565b611400565b6040516105a39190613410565b60405180910390f35b6105c660048036038101906105c19190613432565b611506565b6040516105d3919061311e565b60405180910390f35b6105f660048036038101906105f19190613165565b6115ac565b6040516106039190613485565b60405180910390f35b61062660048036038101906106219190613165565b611654565b6040516106339190613485565b60405180910390f35b610656600480360381019061065191906134a7565b6116f4565b604051610663919061311e565b60405180910390f35b6106746117c5565b604051610681919061311e565b60405180910390f35b6106a4600480360381019061069f9190613165565b6117cb565b6040516106b2929190613546565b60405180910390f35b6106d560048036038101906106d09190613165565b6118ff565b6040516106e493929190613192565b60405180910390f35b61070760048036038101906107029190613165565b611929565b6040516107149190613410565b60405180910390f35b61073760048036038101906107329190613165565b611a0c565b6040516107449190613410565b60405180910390f35b6107676004803603810190610762919061357d565b611aef565b604051610774919061311e565b60405180910390f35b61079760048036038101906107929190613608565b611b9d565b6040516107a4919061311e565b60405180910390f35b6107c760048036038101906107c291906136c3565b611cbd565b005b6107e360048036038101906107de919061371f565b611ce2565b005b6107ff60048036038101906107fa9190613165565b611d2f565b60405161080c9190613485565b60405180910390f35b61082f600480360381019061082a9190613432565b611dd7565b005b610839611ecb565b604051610846919061311e565b60405180910390f35b610869600480360381019061086491906137aa565b611ed1565b604051610876919061311e565b60405180910390f35b610887611f65565b60405161089491906130e3565b60405180910390f35b6108b760048036038101906108b29190612f59565b6120a0565b6040516108c4919061311e565b60405180910390f35b6108e760048036038101906108e29190613165565b612111565b6040516108fc99989796959493929190613848565b60405180910390f35b61090d6121c7565b60405161091a919061311e565b60405180910390f35b61093d60048036038101906109389190612f59565b6121cd565b60405161094a919061311e565b60405180910390f35b61095b612254565b005b61097760048036038101906109729190613165565b612506565b60405161098794939291906138d5565b60405180910390f35b6109aa60048036038101906109a591906136c3565b612646565b005b6109b461266e565b6040516109c191906130e3565b60405180910390f35b6109e460048036038101906109df91906136c3565b6127a8565b005b610a0060048036038101906109fb9190613312565b6127d0565b005b610a1c6004803603810190610a179190613165565b61285c565b604051610a299190613928565b60405180910390f35b610a3a6128b3565b604051610a47919061311e565b60405180910390f35b610a6a6004803603810190610a659190613165565b6128b9565b604051610a7a9493929190613288565b60405180910390f35b610a9d6004803603810190610a9891906136c3565b612971565b604051610aaa9190613928565b60405180910390f35b610abb612a02565b604051610ac8919061311e565b60405180910390f35b610aeb6004803603810190610ae69190613a29565b612a08565b604051610af8919061311e565b60405180910390f35b610b1b6004803603810190610b169190613ac8565b612b1d565b604051610b28919061311e565b60405180910390f35b610b4b6004803603810190610b469190613165565b612be2565b604051610b589190613485565b60405180910390f35b610b69612c8a565b604051610b76919061311e565b60405180910390f35b610b996004803603810190610b949190613165565b612c90565b604051610ba893929190613b4b565b60405180910390f35b6060600060025467ffffffffffffffff811115610bd157610bd0612e2e565b5b604051908082528060200260200182016040528015610c0457816020015b6060815260200190600190039081610bef5790505b509050600080600090505b600254811015610d30578480519060200120600d6000838152602001908152602001600020600001604051610c449190613c8c565b604051809103902003610d1d57600d60008281526020019081526020016000206001018054610c7290613bb8565b80601f0160208091040260200160405190810160405280929190818152602001828054610c9e90613bb8565b8015610ceb5780601f10610cc057610100808354040283529160200191610ceb565b820191906000526020600020905b815481529060010190602001808311610cce57829003601f168201915b5050505050838381518110610d0357610d02613ca3565b5b60200260200101819052508180610d1990613d01565b9250505b8080610d2890613d01565b915050610c0f565b508192505050919050565b60045481565b6060600060035467ffffffffffffffff811115610d6157610d60612e2e565b5b604051908082528060200260200182016040528015610d9457816020015b6060815260200190600190039081610d7f5790505b509050600080600090505b600354811015610ea55784600e60008381526020019081526020016000206000015403610e8457600e60008281526020019081526020016000206001018054610de790613bb8565b80601f0160208091040260200160405190810160405280929190818152602001828054610e1390613bb8565b8015610e605780601f10610e3557610100808354040283529160200191610e60565b820191906000526020600020905b815481529060010190602001808311610e4357829003601f168201915b5050505050838381518110610e7857610e77613ca3565b5b60200260200101819052505b8180610e8f90613d01565b9250508080610e9d90613d01565b915050610d9f565b508192505050919050565b60025481565b60055481565b60126020528060005260406000206000915090508060000154908060010154908060020154905083565b600080600090505b600254811015610f4c578280519060200120600d6000838152602001908152602001600020600101604051610f239190613c8c565b604051809103902003610f395780915050610f52565b8080610f4490613d01565b915050610eee565b50600090505b919050565b600f6020528060005260406000206000915090505481565b600a602052806000526040600020600091509050806000018054610f9290613bb8565b80601f0160208091040260200160405190810160405280929190818152602001828054610fbe90613bb8565b801561100b5780601f10610fe05761010080835404028352916020019161100b565b820191906000526020600020905b815481529060010190602001808311610fee57829003601f168201915b50505050509080600101805461102090613bb8565b80601f016020809104026020016040519081016040528092919081815260200182805461104c90613bb8565b80156110995780601f1061106e57610100808354040283529160200191611099565b820191906000526020600020905b81548152906001019060200180831161107c57829003601f168201915b5050505050908060020180546110ae90613bb8565b80601f01602080910402602001604051908101604052809291908181526020018280546110da90613bb8565b80156111275780601f106110fc57610100808354040283529160200191611127565b820191906000526020600020905b81548152906001019060200180831161110a57829003601f168201915b5050505050905083565b6060600060025467ffffffffffffffff81111561115157611150612e2e565b5b60405190808252806020026020018201604052801561118457816020015b606081526020019060019003908161116f5790505b50905060005b60025481101561126457600d600082815260200190815260200160002060010180546111b590613bb8565b80601f01602080910402602001604051908101604052809291908181526020018280546111e190613bb8565b801561122e5780601f106112035761010080835404028352916020019161122e565b820191906000526020600020905b81548152906001019060200180831161121157829003601f168201915b505050505082828151811061124657611245613ca3565b5b6020026020010181905250808061125c90613d01565b91505061118a565b508091505090565b600c6020528060005260406000206000915090508060000154908060010154905082565b60156020528060005260406000206000915090508060000154908060010154908060020154908060030180546112c590613bb8565b80601f01602080910402602001604051908101604052809291908181526020018280546112f190613bb8565b801561133e5780601f106113135761010080835404028352916020019161133e565b820191906000526020600020905b81548152906001019060200180831161132157829003601f168201915b5050505050905084565b600e60205280600052604060002060009150905080600001549080600101805461137190613bb8565b80601f016020809104026020016040519081016040528092919081815260200182805461139d90613bb8565b80156113ea5780601f106113bf576101008083540402835291602001916113ea565b820191906000526020600020905b8154815290600101906020018083116113cd57829003601f168201915b5050505050908060020154905083565b60065481565b6060600060065467ffffffffffffffff8111156114205761141f612e2e565b5b60405190808252806020026020018201604052801561144e5781602001602082028036833780820191505090505b509050600080600090505b6006548110156114fa5785601260008381526020019081526020016000206000015414801561149d5750846012600083815260200190815260200160002060010154145b156114d95760126000828152602001908152602001600020600201548383815181106114cc576114cb613ca3565b5b6020026020010181815250505b81806114e490613d01565b92505080806114f290613d01565b915050611459565b50819250505092915050565b600060016016600084815260200190815260200160002060010160046101000a81548160ff0219169083151502179055506040518060600160405280858152602001848152602001838152506012600060065481526020019081526020016000206000820151816000015560208201518160010155604082015181600201559050506006600081548092919061159b90613d01565b919050555060065490509392505050565b6060600a600083815260200190815260200160002060010180546115cf90613bb8565b80601f01602080910402602001604051908101604052809291908181526020018280546115fb90613bb8565b80156116485780601f1061161d57610100808354040283529160200191611648565b820191906000526020600020905b81548152906001019060200180831161162b57829003601f168201915b50505050509050919050565b600b602052806000526040600020600091509050805461167390613bb8565b80601f016020809104026020016040519081016040528092919081815260200182805461169f90613bb8565b80156116ec5780601f106116c1576101008083540402835291602001916116ec565b820191906000526020600020905b8154815290600101906020018083116116cf57829003601f168201915b505050505081565b600060016016600084815260200190815260200160002060010160066101000a81548160ff0219169083151502179055506040518060800160405280600754815260200186815260200185815260200184815250601360006007548152602001908152602001600020600082015181600001556020820151816001015560408201518160020190816117869190613ef5565b50606082015181600301908161179c9190613ef5565b50905050600760008154809291906117b390613d01565b91905055506007549050949350505050565b60005481565b600d6020528060005260406000206000915090508060000180546117ee90613bb8565b80601f016020809104026020016040519081016040528092919081815260200182805461181a90613bb8565b80156118675780601f1061183c57610100808354040283529160200191611867565b820191906000526020600020905b81548152906001019060200180831161184a57829003601f168201915b50505050509080600101805461187c90613bb8565b80601f01602080910402602001604051908101604052809291908181526020018280546118a890613bb8565b80156118f55780601f106118ca576101008083540402835291602001916118f5565b820191906000526020600020905b8154815290600101906020018083116118d857829003601f168201915b5050505050905082565b60106020528060005260406000206000915090508060000154908060010154908060020154905083565b6060600060075467ffffffffffffffff81111561194957611948612e2e565b5b6040519080825280602002602001820160405280156119775781602001602082028036833780820191505090505b509050600080600090505b600754811015611a0157846013600083815260200190815260200160002060010154036119ee5760136000828152602001908152602001600020600001548383815181106119d3576119d2613ca3565b5b60200260200101818152505081806119ea90613d01565b9250505b80806119f990613d01565b915050611982565b508192505050919050565b6060600060095467ffffffffffffffff811115611a2c57611a2b612e2e565b5b604051908082528060200260200182016040528015611a5a5781602001602082028036833780820191505090505b509050600080600090505b600954811015611ae45784601560008381526020019081526020016000206001015403611ad1576015600082815260200190815260200160002060000154838381518110611ab657611ab5613ca3565b5b6020026020010181815250508180611acd90613d01565b9250505b8080611adc90613d01565b915050611a65565b508192505050919050565b6000604051806040016040528084815260200185815250600d600060025481526020019081526020016000206000820151816000019081611b309190613ef5565b506020820151816001019081611b469190613ef5565b5090505060016016600084815260200190815260200160002060010160026101000a81548160ff02191690831515021790555060026000815480929190611b8c90613d01565b919050555060025490509392505050565b600060405180606001604052808681526020018581526020016040518060400160405280600581526020017f46616c7365000000000000000000000000000000000000000000000000000000815250815250600a6000805481526020019081526020016000206000820151816000019081611c189190613ef5565b506020820151816001019081611c2e9190613ef5565b506040820151816002019081611c449190613ef5565b5090505082600b6000805481526020019081526020016000209081611c699190613ef5565b5060016016600084815260200190815260200160002060010160006101000a81548160ff021916908315150217905550600080815480929190611cab90613d01565b91905055506000549050949350505050565b80600b60008481526020019081526020016000209081611cdd9190613ef5565b505050565b81600a60008581526020019081526020016000206000019081611d059190613ef5565b5080600a60008581526020019081526020016000206001019081611d299190613ef5565b50505050565b6060600e60008381526020019081526020016000206001018054611d5290613bb8565b80601f0160208091040260200160405190810160405280929190818152602001828054611d7e90613bb8565b8015611dcb5780601f10611da057610100808354040283529160200191611dcb565b820191906000526020600020905b815481529060010190602001808311611dae57829003601f168201915b50505050509050919050565b60016016600083815260200190815260200160002060010160056101000a81548160ff02191690831515021790555081600e60008581526020019081526020016000206002016000828254611e2c9190613fc7565b9250508190555081600f60008381526020019081526020016000206000828254611e569190613fc7565b9250508190555060405180606001604052808481526020018281526020018381525060106000600154815260200190815260200160002060008201518160000155602082015181600101556040820151816002015590505060016000815480929190611ec190613d01565b9190505550505050565b60075481565b60006040518060800160405280868152602001858152602001848152602001838152506014600060085481526020019081526020016000206000820151816000015560208201518160010155604082015181600201556060820151816003019081611f3c9190613ef5565b5090505060086000815480929190611f5390613d01565b91905055506008549050949350505050565b6060600060035467ffffffffffffffff811115611f8557611f84612e2e565b5b604051908082528060200260200182016040528015611fb857816020015b6060815260200190600190039081611fa35790505b50905060005b60035481101561209857600e60008281526020019081526020016000206001018054611fe990613bb8565b80601f016020809104026020016040519081016040528092919081815260200182805461201590613bb8565b80156120625780601f1061203757610100808354040283529160200191612062565b820191906000526020600020905b81548152906001019060200180831161204557829003601f168201915b505050505082828151811061207a57612079613ca3565b5b6020026020010181905250808061209090613d01565b915050611fbe565b508091505090565b600080600090505b600354811015612106578280519060200120600e60008381526020019081526020016000206001016040516120dd9190613c8c565b6040518091039020036120f3578091505061210c565b80806120fe90613d01565b9150506120a8565b50600090505b919050565b60166020528060005260406000206000915090508060000154908060010160009054906101000a900460ff16908060010160019054906101000a900460ff16908060010160029054906101000a900460ff16908060010160039054906101000a900460ff16908060010160049054906101000a900460ff16908060010160059054906101000a900460ff16908060010160069054906101000a900460ff16908060010160079054906101000a900460ff16905089565b60095481565b600080600090505b600354811015612249578280519060200120600e600083815260200190815260200160002060010160405161220a9190613c8c565b60405180910390200361223657600e60008281526020019081526020016000206000015491505061224f565b808061224190613d01565b9150506121d5565b50600090505b919050565b60005b6000548110156122ba57600a6000828152602001908152602001600020600080820160006122859190612da2565b6001820160006122959190612da2565b6002820160006122a59190612da2565b505080806122b290613d01565b915050612257565b5060005b60025481101561231157600d6000828152602001908152602001600020600080820160006122ec9190612da2565b6001820160006122fc9190612da2565b5050808061230990613d01565b9150506122be565b5060005b60035481101561236857600e600082815260200190815260200160002060008082016000905560018201600061234b9190612da2565b60028201600090555050808061236090613d01565b915050612315565b5060005b6002548110156123bf576011600082815260200190815260200160002060008082016000905560018201600090556002820160006123aa9190612da2565b505080806123b790613d01565b91505061236c565b5060005b600754811015612426576013600082815260200190815260200160002060008082016000905560018201600090556002820160006124019190612da2565b6003820160006124119190612da2565b5050808061241e90613d01565b9150506123c3565b5060005b6009548110156124855760156000828152602001908152602001600020600080820160009055600182016000905560028201600090556003820160006124709190612da2565b5050808061247d90613d01565b91505061242a565b5060005b6006548110156124d4576012600082815260200190815260200160002060008082016000905560018201600090556002820160009055505080806124cc90613d01565b915050612489565b506000808190555060006002819055506000600381905550600060078190555060006009819055506000600681905550565b601360205280600052604060002060009150905080600001549080600101549080600201805461253590613bb8565b80601f016020809104026020016040519081016040528092919081815260200182805461256190613bb8565b80156125ae5780601f10612583576101008083540402835291602001916125ae565b820191906000526020600020905b81548152906001019060200180831161259157829003601f168201915b5050505050908060030180546125c390613bb8565b80601f01602080910402602001604051908101604052809291908181526020018280546125ef90613bb8565b801561263c5780601f106126115761010080835404028352916020019161263c565b820191906000526020600020905b81548152906001019060200180831161261f57829003601f168201915b5050505050905084565b80600e600084815260200190815260200160002060010190816126699190613ef5565b505050565b60606000805467ffffffffffffffff81111561268d5761268c612e2e565b5b6040519080825280602002602001820160405280156126c057816020015b60608152602001906001900390816126ab5790505b50905060005b6000548110156127a057600a600082815260200190815260200160002060010180546126f190613bb8565b80601f016020809104026020016040519081016040528092919081815260200182805461271d90613bb8565b801561276a5780601f1061273f5761010080835404028352916020019161276a565b820191906000526020600020905b81548152906001019060200180831161274d57829003601f168201915b505050505082828151811061278257612781613ca3565b5b6020026020010181905250808061279890613d01565b9150506126c6565b508091505090565b80600d600084815260200190815260200160002060010190816127cb9190613ef5565b505050565b60016016600083815260200190815260200160002060010160016101000a81548160ff021916908315150217905550604051806040016040528083815260200182815250600c6000600454815260200190815260200160002060008201518160000155602082015181600101559050506004600081548092919061285390613d01565b91905055505050565b600080600090505b6004548110156128a85782600c600083815260200190815260200160002060010154036128955760019150506128ae565b80806128a090613d01565b915050612864565b50600090505b919050565b60085481565b60146020528060005260406000206000915090508060000154908060010154908060020154908060030180546128ee90613bb8565b80601f016020809104026020016040519081016040528092919081815260200182805461291a90613bb8565b80156129675780601f1061293c57610100808354040283529160200191612967565b820191906000526020600020905b81548152906001019060200180831161294a57829003601f168201915b5050505050905084565b6000806000905060005b6008548110156129f7578460146000838152602001908152602001600020600001541480156129da5750601460008281526020019081526020016000206003016040516129c89190613c8c565b60405180910390208480519060200120145b156129e457600191505b80806129ef90613d01565b91505061297b565b508091505092915050565b60035481565b600060405180606001604052808581526020018681526020016000815250600e60006003548152602001908152602001600020600082015181600001556020820151816001019081612a5a9190613ef5565b506040820151816002015590505060016016600084815260200190815260200160002060010160036101000a81548160ff02191690831515021790555060036000815480929190612aaa90613d01565b919050555060005b8351811015612b0f57612ae4600354600554868481518110612ad757612ad6613ca3565b5b6020026020010151612d42565b60056000815480929190612af790613d01565b91905055508080612b0790613d01565b915050612ab2565b506003549050949350505050565b600060016016600084815260200190815260200160002060010160076101000a81548160ff02191690831515021790555060405180608001604052806009548152602001868152602001848152602001858152506015600060095481526020019081526020016000206000820151816000015560208201518160010155604082015181600201556060820151816003019081612bb99190613ef5565b5090505060096000815480929190612bd090613d01565b91905055506009549050949350505050565b6060600d60008381526020019081526020016000206001018054612c0590613bb8565b80601f0160208091040260200160405190810160405280929190818152602001828054612c3190613bb8565b8015612c7e5780601f10612c5357610100808354040283529160200191612c7e565b820191906000526020600020905b815481529060010190602001808311612c6157829003601f168201915b50505050509050919050565b60015481565b6011602052806000526040600020600091509050806000015490806001015490806002018054612cbf90613bb8565b80601f0160208091040260200160405190810160405280929190818152602001828054612ceb90613bb8565b8015612d385780601f10612d0d57610100808354040283529160200191612d38565b820191906000526020600020905b815481529060010190602001808311612d1b57829003601f168201915b5050505050905083565b6040518060600160405280848152602001838152602001828152506011600084815260200190815260200160002060008201518160000155602082015181600101556040820151816002019081612d999190613ef5565b50905050505050565b508054612dae90613bb8565b6000825580601f10612dc05750612ddf565b601f016020900490600052602060002090810190612dde9190612de2565b5b50565b5b80821115612dfb576000816000905550600101612de3565b5090565b6000604051905090565b600080fd5b600080fd5b600080fd5b600080fd5b6000601f19601f8301169050919050565b7f4e487b7100000000000000000000000000000000000000000000000000000000600052604160045260246000fd5b612e6682612e1d565b810181811067ffffffffffffffff82111715612e8557612e84612e2e565b5b80604052505050565b6000612e98612dff565b9050612ea48282612e5d565b919050565b600067ffffffffffffffff821115612ec457612ec3612e2e565b5b612ecd82612e1d565b9050602081019050919050565b82818337600083830152505050565b6000612efc612ef784612ea9565b612e8e565b905082815260208101848484011115612f1857612f17612e18565b5b612f23848285612eda565b509392505050565b600082601f830112612f4057612f3f612e13565b5b8135612f50848260208601612ee9565b91505092915050565b600060208284031215612f6f57612f6e612e09565b5b600082013567ffffffffffffffff811115612f8d57612f8c612e0e565b5b612f9984828501612f2b565b91505092915050565b600081519050919050565b600082825260208201905092915050565b6000819050602082019050919050565b600081519050919050565b600082825260208201905092915050565b60005b83811015613008578082015181840152602081019050612fed565b60008484015250505050565b600061301f82612fce565b6130298185612fd9565b9350613039818560208601612fea565b61304281612e1d565b840191505092915050565b60006130598383613014565b905092915050565b6000602082019050919050565b600061307982612fa2565b6130838185612fad565b93508360208202850161309585612fbe565b8060005b858110156130d157848403895281516130b2858261304d565b94506130bd83613061565b925060208a01995050600181019050613099565b50829750879550505050505092915050565b600060208201905081810360008301526130fd818461306e565b905092915050565b6000819050919050565b61311881613105565b82525050565b6000602082019050613133600083018461310f565b92915050565b61314281613105565b811461314d57600080fd5b50565b60008135905061315f81613139565b92915050565b60006020828403121561317b5761317a612e09565b5b600061318984828501613150565b91505092915050565b60006060820190506131a7600083018661310f565b6131b4602083018561310f565b6131c1604083018461310f565b949350505050565b600082825260208201905092915050565b60006131e582612fce565b6131ef81856131c9565b93506131ff818560208601612fea565b61320881612e1d565b840191505092915050565b6000606082019050818103600083015261322d81866131da565b9050818103602083015261324181856131da565b9050818103604083015261325581846131da565b9050949350505050565b6000604082019050613274600083018561310f565b613281602083018461310f565b9392505050565b600060808201905061329d600083018761310f565b6132aa602083018661310f565b6132b7604083018561310f565b81810360608301526132c981846131da565b905095945050505050565b60006060820190506132e9600083018661310f565b81810360208301526132fb81856131da565b905061330a604083018461310f565b949350505050565b6000806040838503121561332957613328612e09565b5b600061333785828601613150565b925050602061334885828601613150565b9150509250929050565b600081519050919050565b600082825260208201905092915050565b6000819050602082019050919050565b61338781613105565b82525050565b6000613399838361337e565b60208301905092915050565b6000602082019050919050565b60006133bd82613352565b6133c7818561335d565b93506133d28361336e565b8060005b838110156134035781516133ea888261338d565b97506133f5836133a5565b9250506001810190506133d6565b5085935050505092915050565b6000602082019050818103600083015261342a81846133b2565b905092915050565b60008060006060848603121561344b5761344a612e09565b5b600061345986828701613150565b935050602061346a86828701613150565b925050604061347b86828701613150565b9150509250925092565b6000602082019050818103600083015261349f81846131da565b905092915050565b600080600080608085870312156134c1576134c0612e09565b5b60006134cf87828801613150565b945050602085013567ffffffffffffffff8111156134f0576134ef612e0e565b5b6134fc87828801612f2b565b935050604085013567ffffffffffffffff81111561351d5761351c612e0e565b5b61352987828801612f2b565b925050606061353a87828801613150565b91505092959194509250565b6000604082019050818103600083015261356081856131da565b9050818103602083015261357481846131da565b90509392505050565b60008060006060848603121561359657613595612e09565b5b600084013567ffffffffffffffff8111156135b4576135b3612e0e565b5b6135c086828701612f2b565b935050602084013567ffffffffffffffff8111156135e1576135e0612e0e565b5b6135ed86828701612f2b565b92505060406135fe86828701613150565b9150509250925092565b6000806000806080858703121561362257613621612e09565b5b600085013567ffffffffffffffff8111156136405761363f612e0e565b5b61364c87828801612f2b565b945050602085013567ffffffffffffffff81111561366d5761366c612e0e565b5b61367987828801612f2b565b935050604085013567ffffffffffffffff81111561369a57613699612e0e565b5b6136a687828801612f2b565b92505060606136b787828801613150565b91505092959194509250565b600080604083850312156136da576136d9612e09565b5b60006136e885828601613150565b925050602083013567ffffffffffffffff81111561370957613708612e0e565b5b61371585828601612f2b565b9150509250929050565b60008060006060848603121561373857613737612e09565b5b600061374686828701613150565b935050602084013567ffffffffffffffff81111561376757613766612e0e565b5b61377386828701612f2b565b925050604084013567ffffffffffffffff81111561379457613793612e0e565b5b6137a086828701612f2b565b9150509250925092565b600080600080608085870312156137c4576137c3612e09565b5b60006137d287828801613150565b94505060206137e387828801613150565b93505060406137f487828801613150565b925050606085013567ffffffffffffffff81111561381557613814612e0e565b5b61382187828801612f2b565b91505092959194509250565b60008115159050919050565b6138428161382d565b82525050565b60006101208201905061385e600083018c61310f565b61386b602083018b613839565b613878604083018a613839565b6138856060830189613839565b6138926080830188613839565b61389f60a0830187613839565b6138ac60c0830186613839565b6138b960e0830185613839565b6138c7610100830184613839565b9a9950505050505050505050565b60006080820190506138ea600083018761310f565b6138f7602083018661310f565b818103604083015261390981856131da565b9050818103606083015261391d81846131da565b905095945050505050565b600060208201905061393d6000830184613839565b92915050565b600067ffffffffffffffff82111561395e5761395d612e2e565b5b602082029050602081019050919050565b600080fd5b600061398761398284613943565b612e8e565b905080838252602082019050602084028301858111156139aa576139a961396f565b5b835b818110156139f157803567ffffffffffffffff8111156139cf576139ce612e13565b5b8086016139dc8982612f2b565b855260208501945050506020810190506139ac565b5050509392505050565b600082601f830112613a1057613a0f612e13565b5b8135613a20848260208601613974565b91505092915050565b60008060008060808587031215613a4357613a42612e09565b5b600085013567ffffffffffffffff811115613a6157613a60612e0e565b5b613a6d87828801612f2b565b9450506020613a7e87828801613150565b935050604085013567ffffffffffffffff811115613a9f57613a9e612e0e565b5b613aab878288016139fb565b9250506060613abc87828801613150565b91505092959194509250565b60008060008060808587031215613ae257613ae1612e09565b5b6000613af087828801613150565b945050602085013567ffffffffffffffff811115613b1157613b10612e0e565b5b613b1d87828801612f2b565b9350506040613b2e87828801613150565b9250506060613b3f87828801613150565b91505092959194509250565b6000606082019050613b60600083018661310f565b613b6d602083018561310f565b8181036040830152613b7f81846131da565b9050949350505050565b7f4e487b7100000000000000000000000000000000000000000000000000000000600052602260045260246000fd5b60006002820490506001821680613bd057607f821691505b602082108103613be357613be2613b89565b5b50919050565b600081905092915050565b60008190508160005260206000209050919050565b60008154613c1681613bb8565b613c208186613be9565b94506001821660008114613c3b5760018114613c5057613c83565b60ff1983168652811515820286019350613c83565b613c5985613bf4565b60005b83811015613c7b57815481890152600182019150602081019050613c5c565b838801955050505b50505092915050565b6000613c988284613c09565b915081905092915050565b7f4e487b7100000000000000000000000000000000000000000000000000000000600052603260045260246000fd5b7f4e487b7100000000000000000000000000000000000000000000000000000000600052601160045260246000fd5b6000613d0c82613105565b91507fffffffffffffffffffffffffffffffffffffffffffffffffffffffffffffffff8203613d3e57613d3d613cd2565b5b600182019050919050565b60008190508160005260206000209050919050565b60006020601f8301049050919050565b600082821b905092915050565b600060088302613dab7fffffffffffffffffffffffffffffffffffffffffffffffffffffffffffffffff82613d6e565b613db58683613d6e565b95508019841693508086168417925050509392505050565b6000819050919050565b6000613df2613ded613de884613105565b613dcd565b613105565b9050919050565b6000819050919050565b613e0c83613dd7565b613e20613e1882613df9565b848454613d7b565b825550505050565b600090565b613e35613e28565b613e40818484613e03565b505050565b5b81811015613e6457613e59600082613e2d565b600181019050613e46565b5050565b601f821115613ea957613e7a81613d49565b613e8384613d5e565b81016020851015613e92578190505b613ea6613e9e85613d5e565b830182613e45565b50505b505050565b600082821c905092915050565b6000613ecc60001984600802613eae565b1980831691505092915050565b6000613ee58383613ebb565b9150826002028217905092915050565b613efe82612fce565b67ffffffffffffffff811115613f1757613f16612e2e565b5b613f218254613bb8565b613f2c828285613e68565b600060209050601f831160018114613f5f5760008415613f4d578287015190505b613f578582613ed9565b865550613fbf565b601f198416613f6d86613d49565b60005b82811015613f9557848901518255600182019150602085019450602081019050613f70565b86831015613fb25784890151613fae601f891682613ebb565b8355505b6001600288020188555050505b505050505050565b6000613fd282613105565b9150613fdd83613105565b9250828201905080821115613ff557613ff4613cd2565b5b9291505056fea26469706673582212203e3ff4b26706ff7b4e706261e20d8b12a6934ee8907cd13e8fd1853baf27582964736f6c63430008110033",
  "devdoc": {
    "kind": "dev",
    "methods": {},
    "version": 1
  },
  "userdoc": {
    "kind": "user",
    "methods": {},
    "version": 1
  },
  "storageLayout": {
    "storage": [
      {
        "astId": 2422,
        "contract": "contracts/PlanetDAO.sol:PlanetDAO",
        "label": "_dao_ids",
        "offset": 0,
        "slot": "0",
        "type": "t_uint256"
      },
      {
        "astId": 2424,
        "contract": "contracts/PlanetDAO.sol:PlanetDAO",
        "label": "_donations_ids",
        "offset": 0,
        "slot": "1",
        "type": "t_uint256"
      },
      {
        "astId": 2426,
        "contract": "contracts/PlanetDAO.sol:PlanetDAO",
        "label": "_goal_ids",
        "offset": 0,
        "slot": "2",
        "type": "t_uint256"
      },
      {
        "astId": 2428,
        "contract": "contracts/PlanetDAO.sol:PlanetDAO",
        "label": "_ideas_ids",
        "offset": 0,
        "slot": "3",
        "type": "t_uint256"
      },
      {
        "astId": 2430,
        "contract": "contracts/PlanetDAO.sol:PlanetDAO",
        "label": "_join_ids",
        "offset": 0,
        "slot": "4",
        "type": "t_uint256"
      },
      {
        "astId": 2432,
        "contract": "contracts/PlanetDAO.sol:PlanetDAO",
        "label": "_smart_contract_ids",
        "offset": 0,
        "slot": "5",
        "type": "t_uint256"
      },
      {
        "astId": 2434,
        "contract": "contracts/PlanetDAO.sol:PlanetDAO",
        "label": "_ideas_vote_ids",
        "offset": 0,
        "slot": "6",
        "type": "t_uint256"
      },
      {
        "astId": 2436,
        "contract": "contracts/PlanetDAO.sol:PlanetDAO",
        "label": "_message_ids",
        "offset": 0,
        "slot": "7",
        "type": "t_uint256"
      },
      {
        "astId": 2438,
        "contract": "contracts/PlanetDAO.sol:PlanetDAO",
        "label": "_message_read_ids",
        "offset": 0,
        "slot": "8",
        "type": "t_uint256"
      },
      {
        "astId": 2440,
        "contract": "contracts/PlanetDAO.sol:PlanetDAO",
        "label": "_reply_ids",
        "offset": 0,
        "slot": "9",
        "type": "t_uint256"
      },
      {
        "astId": 2445,
        "contract": "contracts/PlanetDAO.sol:PlanetDAO",
        "label": "_dao_uris",
        "offset": 0,
        "slot": "10",
        "type": "t_mapping(t_uint256,t_struct(dao_uri_struct)2331_storage)"
      },
      {
        "astId": 2449,
        "contract": "contracts/PlanetDAO.sol:PlanetDAO",
        "label": "_template_uris",
        "offset": 0,
        "slot": "11",
        "type": "t_mapping(t_uint256,t_string_storage)"
      },
      {
        "astId": 2454,
        "contract": "contracts/PlanetDAO.sol:PlanetDAO",
        "label": "_joined_person",
        "offset": 0,
        "slot": "12",
        "type": "t_mapping(t_uint256,t_struct(join_struct)2401_storage)"
      },
      {
        "astId": 2459,
        "contract": "contracts/PlanetDAO.sol:PlanetDAO",
        "label": "_goal_uris",
        "offset": 0,
        "slot": "13",
        "type": "t_mapping(t_uint256,t_struct(goal_uri_struct)2336_storage)"
      },
      {
        "astId": 2464,
        "contract": "contracts/PlanetDAO.sol:PlanetDAO",
        "label": "_ideas_uris",
        "offset": 0,
        "slot": "14",
        "type": "t_mapping(t_uint256,t_struct(ideas_uri_struct)2343_storage)"
      },
      {
        "astId": 2468,
        "contract": "contracts/PlanetDAO.sol:PlanetDAO",
        "label": "_donated",
        "offset": 0,
        "slot": "15",
        "type": "t_mapping(t_uint256,t_uint256)"
      },
      {
        "astId": 2473,
        "contract": "contracts/PlanetDAO.sol:PlanetDAO",
        "label": "_donations",
        "offset": 0,
        "slot": "16",
        "type": "t_mapping(t_uint256,t_struct(donation_struct)2350_storage)"
      },
      {
        "astId": 2478,
        "contract": "contracts/PlanetDAO.sol:PlanetDAO",
        "label": "_smart_contracts_uris",
        "offset": 0,
        "slot": "17",
        "type": "t_mapping(t_uint256,t_struct(smart_contract_uri_struct)2357_storage)"
      },
      {
        "astId": 2483,
        "contract": "contracts/PlanetDAO.sol:PlanetDAO",
        "label": "all_goal_ideas_votes",
        "offset": 0,
        "slot": "18",
        "type": "t_mapping(t_uint256,t_struct(goal_ideas_votes_struct)2364_storage)"
      },
      {
        "astId": 2488,
        "contract": "contracts/PlanetDAO.sol:PlanetDAO",
        "label": "all_messages",
        "offset": 0,
        "slot": "19",
        "type": "t_mapping(t_uint256,t_struct(message_struct)2373_storage)"
      },
      {
        "astId": 2493,
        "contract": "contracts/PlanetDAO.sol:PlanetDAO",
        "label": "all_read_messages",
        "offset": 0,
        "slot": "20",
        "type": "t_mapping(t_uint256,t_struct(message_read_struct)2382_storage)"
      },
      {
        "astId": 2498,
        "contract": "contracts/PlanetDAO.sol:PlanetDAO",
        "label": "all_replies",
        "offset": 0,
        "slot": "21",
        "type": "t_mapping(t_uint256,t_struct(reply_struct)2391_storage)"
      },
      {
        "astId": 2503,
        "contract": "contracts/PlanetDAO.sol:PlanetDAO",
        "label": "_user_badges",
        "offset": 0,
        "slot": "22",
        "type": "t_mapping(t_uint256,t_struct(user_badge_struct)2420_storage)"
      }
    ],
    "types": {
      "t_bool": {
        "encoding": "inplace",
        "label": "bool",
        "numberOfBytes": "1"
      },
      "t_mapping(t_uint256,t_string_storage)": {
        "encoding": "mapping",
        "key": "t_uint256",
        "label": "mapping(uint256 => string)",
        "numberOfBytes": "32",
        "value": "t_string_storage"
      },
      "t_mapping(t_uint256,t_struct(dao_uri_struct)2331_storage)": {
        "encoding": "mapping",
        "key": "t_uint256",
        "label": "mapping(uint256 => struct PlanetDAO.dao_uri_struct)",
        "numberOfBytes": "32",
        "value": "t_struct(dao_uri_struct)2331_storage"
      },
      "t_mapping(t_uint256,t_struct(donation_struct)2350_storage)": {
        "encoding": "mapping",
        "key": "t_uint256",
        "label": "mapping(uint256 => struct PlanetDAO.donation_struct)",
        "numberOfBytes": "32",
        "value": "t_struct(donation_struct)2350_storage"
      },
      "t_mapping(t_uint256,t_struct(goal_ideas_votes_struct)2364_storage)": {
        "encoding": "mapping",
        "key": "t_uint256",
        "label": "mapping(uint256 => struct PlanetDAO.goal_ideas_votes_struct)",
        "numberOfBytes": "32",
        "value": "t_struct(goal_ideas_votes_struct)2364_storage"
      },
      "t_mapping(t_uint256,t_struct(goal_uri_struct)2336_storage)": {
        "encoding": "mapping",
        "key": "t_uint256",
        "label": "mapping(uint256 => struct PlanetDAO.goal_uri_struct)",
        "numberOfBytes": "32",
        "value": "t_struct(goal_uri_struct)2336_storage"
      },
      "t_mapping(t_uint256,t_struct(ideas_uri_struct)2343_storage)": {
        "encoding": "mapping",
        "key": "t_uint256",
        "label": "mapping(uint256 => struct PlanetDAO.ideas_uri_struct)",
        "numberOfBytes": "32",
        "value": "t_struct(ideas_uri_struct)2343_storage"
      },
      "t_mapping(t_uint256,t_struct(join_struct)2401_storage)": {
        "encoding": "mapping",
        "key": "t_uint256",
        "label": "mapping(uint256 => struct PlanetDAO.join_struct)",
        "numberOfBytes": "32",
        "value": "t_struct(join_struct)2401_storage"
      },
      "t_mapping(t_uint256,t_struct(message_read_struct)2382_storage)": {
        "encoding": "mapping",
        "key": "t_uint256",
        "label": "mapping(uint256 => struct PlanetDAO.message_read_struct)",
        "numberOfBytes": "32",
        "value": "t_struct(message_read_struct)2382_storage"
      },
      "t_mapping(t_uint256,t_struct(message_struct)2373_storage)": {
        "encoding": "mapping",
        "key": "t_uint256",
        "label": "mapping(uint256 => struct PlanetDAO.message_struct)",
        "numberOfBytes": "32",
        "value": "t_struct(message_struct)2373_storage"
      },
      "t_mapping(t_uint256,t_struct(reply_struct)2391_storage)": {
        "encoding": "mapping",
        "key": "t_uint256",
        "label": "mapping(uint256 => struct PlanetDAO.reply_struct)",
        "numberOfBytes": "32",
        "value": "t_struct(reply_struct)2391_storage"
      },
      "t_mapping(t_uint256,t_struct(smart_contract_uri_struct)2357_storage)": {
        "encoding": "mapping",
        "key": "t_uint256",
        "label": "mapping(uint256 => struct PlanetDAO.smart_contract_uri_struct)",
        "numberOfBytes": "32",
        "value": "t_struct(smart_contract_uri_struct)2357_storage"
      },
      "t_mapping(t_uint256,t_struct(user_badge_struct)2420_storage)": {
        "encoding": "mapping",
        "key": "t_uint256",
        "label": "mapping(uint256 => struct PlanetDAO.user_badge_struct)",
        "numberOfBytes": "32",
        "value": "t_struct(user_badge_struct)2420_storage"
      },
      "t_mapping(t_uint256,t_uint256)": {
        "encoding": "mapping",
        "key": "t_uint256",
        "label": "mapping(uint256 => uint256)",
        "numberOfBytes": "32",
        "value": "t_uint256"
      },
      "t_string_storage": {
        "encoding": "bytes",
        "label": "string",
        "numberOfBytes": "32"
      },
      "t_struct(dao_uri_struct)2331_storage": {
        "encoding": "inplace",
        "label": "struct PlanetDAO.dao_uri_struct",
        "members": [
          {
            "astId": 2326,
            "contract": "contracts/PlanetDAO.sol:PlanetDAO",
            "label": "dao_wallet",
            "offset": 0,
            "slot": "0",
            "type": "t_string_storage"
          },
          {
            "astId": 2328,
            "contract": "contracts/PlanetDAO.sol:PlanetDAO",
            "label": "dao_uri",
            "offset": 0,
            "slot": "1",
            "type": "t_string_storage"
          },
          {
            "astId": 2330,
            "contract": "contracts/PlanetDAO.sol:PlanetDAO",
            "label": "finished",
            "offset": 0,
            "slot": "2",
            "type": "t_string_storage"
          }
        ],
        "numberOfBytes": "96"
      },
      "t_struct(donation_struct)2350_storage": {
        "encoding": "inplace",
        "label": "struct PlanetDAO.donation_struct",
        "members": [
          {
            "astId": 2345,
            "contract": "contracts/PlanetDAO.sol:PlanetDAO",
            "label": "ideas_id",
            "offset": 0,
            "slot": "0",
            "type": "t_uint256"
          },
          {
            "astId": 2347,
            "contract": "contracts/PlanetDAO.sol:PlanetDAO",
            "label": "userid",
            "offset": 0,
            "slot": "1",
            "type": "t_uint256"
          },
          {
            "astId": 2349,
            "contract": "contracts/PlanetDAO.sol:PlanetDAO",
            "label": "donation",
            "offset": 0,
            "slot": "2",
            "type": "t_uint256"
          }
        ],
        "numberOfBytes": "96"
      },
      "t_struct(goal_ideas_votes_struct)2364_storage": {
        "encoding": "inplace",
        "label": "struct PlanetDAO.goal_ideas_votes_struct",
        "members": [
          {
            "astId": 2359,
            "contract": "contracts/PlanetDAO.sol:PlanetDAO",
            "label": "goal_id",
            "offset": 0,
            "slot": "0",
            "type": "t_uint256"
          },
          {
            "astId": 2361,
            "contract": "contracts/PlanetDAO.sol:PlanetDAO",
            "label": "ideas_id",
            "offset": 0,
            "slot": "1",
            "type": "t_uint256"
          },
          {
            "astId": 2363,
            "contract": "contracts/PlanetDAO.sol:PlanetDAO",
            "label": "user_id",
            "offset": 0,
            "slot": "2",
            "type": "t_uint256"
          }
        ],
        "numberOfBytes": "96"
      },
      "t_struct(goal_uri_struct)2336_storage": {
        "encoding": "inplace",
        "label": "struct PlanetDAO.goal_uri_struct",
        "members": [
          {
            "astId": 2333,
            "contract": "contracts/PlanetDAO.sol:PlanetDAO",
            "label": "dao_id",
            "offset": 0,
            "slot": "0",
            "type": "t_string_storage"
          },
          {
            "astId": 2335,
            "contract": "contracts/PlanetDAO.sol:PlanetDAO",
            "label": "goal_uri",
            "offset": 0,
            "slot": "1",
            "type": "t_string_storage"
          }
        ],
        "numberOfBytes": "64"
      },
      "t_struct(ideas_uri_struct)2343_storage": {
        "encoding": "inplace",
        "label": "struct PlanetDAO.ideas_uri_struct",
        "members": [
          {
            "astId": 2338,
            "contract": "contracts/PlanetDAO.sol:PlanetDAO",
            "label": "goal_id",
            "offset": 0,
            "slot": "0",
            "type": "t_uint256"
          },
          {
            "astId": 2340,
            "contract": "contracts/PlanetDAO.sol:PlanetDAO",
            "label": "ideas_uri",
            "offset": 0,
            "slot": "1",
            "type": "t_string_storage"
          },
          {
            "astId": 2342,
            "contract": "contracts/PlanetDAO.sol:PlanetDAO",
            "label": "donation",
            "offset": 0,
            "slot": "2",
            "type": "t_uint256"
          }
        ],
        "numberOfBytes": "96"
      },
      "t_struct(join_struct)2401_storage": {
        "encoding": "inplace",
        "label": "struct PlanetDAO.join_struct",
        "members": [
          {
            "astId": 2398,
            "contract": "contracts/PlanetDAO.sol:PlanetDAO",
            "label": "daoid",
            "offset": 0,
            "slot": "0",
            "type": "t_uint256"
          },
          {
            "astId": 2400,
            "contract": "contracts/PlanetDAO.sol:PlanetDAO",
            "label": "user_id",
            "offset": 0,
            "slot": "1",
            "type": "t_uint256"
          }
        ],
        "numberOfBytes": "64"
      },
      "t_struct(message_read_struct)2382_storage": {
        "encoding": "inplace",
        "label": "struct PlanetDAO.message_read_struct",
        "members": [
          {
            "astId": 2375,
            "contract": "contracts/PlanetDAO.sol:PlanetDAO",
            "label": "message_id",
            "offset": 0,
            "slot": "0",
            "type": "t_uint256"
          },
          {
            "astId": 2377,
            "contract": "contracts/PlanetDAO.sol:PlanetDAO",
            "label": "ideas_id",
            "offset": 0,
            "slot": "1",
            "type": "t_uint256"
          },
          {
            "astId": 2379,
            "contract": "contracts/PlanetDAO.sol:PlanetDAO",
            "label": "user_id",
            "offset": 0,
            "slot": "2",
            "type": "t_uint256"
          },
          {
            "astId": 2381,
            "contract": "contracts/PlanetDAO.sol:PlanetDAO",
            "label": "msg_type",
            "offset": 0,
            "slot": "3",
            "type": "t_string_storage"
          }
        ],
        "numberOfBytes": "128"
      },
      "t_struct(message_struct)2373_storage": {
        "encoding": "inplace",
        "label": "struct PlanetDAO.message_struct",
        "members": [
          {
            "astId": 2366,
            "contract": "contracts/PlanetDAO.sol:PlanetDAO",
            "label": "message_id",
            "offset": 0,
            "slot": "0",
            "type": "t_uint256"
          },
          {
            "astId": 2368,
            "contract": "contracts/PlanetDAO.sol:PlanetDAO",
            "label": "ideas_id",
            "offset": 0,
            "slot": "1",
            "type": "t_uint256"
          },
          {
            "astId": 2370,
            "contract": "contracts/PlanetDAO.sol:PlanetDAO",
            "label": "message",
            "offset": 0,
            "slot": "2",
            "type": "t_string_storage"
          },
          {
            "astId": 2372,
            "contract": "contracts/PlanetDAO.sol:PlanetDAO",
            "label": "sender",
            "offset": 0,
            "slot": "3",
            "type": "t_string_storage"
          }
        ],
        "numberOfBytes": "128"
      },
      "t_struct(reply_struct)2391_storage": {
        "encoding": "inplace",
        "label": "struct PlanetDAO.reply_struct",
        "members": [
          {
            "astId": 2384,
            "contract": "contracts/PlanetDAO.sol:PlanetDAO",
            "label": "reply_id",
            "offset": 0,
            "slot": "0",
            "type": "t_uint256"
          },
          {
            "astId": 2386,
            "contract": "contracts/PlanetDAO.sol:PlanetDAO",
            "label": "message_id",
            "offset": 0,
            "slot": "1",
            "type": "t_uint256"
          },
          {
            "astId": 2388,
            "contract": "contracts/PlanetDAO.sol:PlanetDAO",
            "label": "ideas_id",
            "offset": 0,
            "slot": "2",
            "type": "t_uint256"
          },
          {
            "astId": 2390,
            "contract": "contracts/PlanetDAO.sol:PlanetDAO",
            "label": "message",
            "offset": 0,
            "slot": "3",
            "type": "t_string_storage"
          }
        ],
        "numberOfBytes": "128"
      },
      "t_struct(smart_contract_uri_struct)2357_storage": {
        "encoding": "inplace",
        "label": "struct PlanetDAO.smart_contract_uri_struct",
        "members": [
          {
            "astId": 2352,
            "contract": "contracts/PlanetDAO.sol:PlanetDAO",
            "label": "smart_contract_id",
            "offset": 0,
            "slot": "0",
            "type": "t_uint256"
          },
          {
            "astId": 2354,
            "contract": "contracts/PlanetDAO.sol:PlanetDAO",
            "label": "ideas_id",
            "offset": 0,
            "slot": "1",
            "type": "t_uint256"
          },
          {
            "astId": 2356,
            "contract": "contracts/PlanetDAO.sol:PlanetDAO",
            "label": "smart_contract_uri",
            "offset": 0,
            "slot": "2",
            "type": "t_string_storage"
          }
        ],
        "numberOfBytes": "96"
      },
      "t_struct(user_badge_struct)2420_storage": {
        "encoding": "inplace",
        "label": "struct PlanetDAO.user_badge_struct",
        "members": [
          {
            "astId": 2403,
            "contract": "contracts/PlanetDAO.sol:PlanetDAO",
            "label": "user_id",
            "offset": 0,
            "slot": "0",
            "type": "t_uint256"
          },
          {
            "astId": 2405,
            "contract": "contracts/PlanetDAO.sol:PlanetDAO",
            "label": "dao",
            "offset": 0,
            "slot": "1",
            "type": "t_bool"
          },
          {
            "astId": 2407,
            "contract": "contracts/PlanetDAO.sol:PlanetDAO",
            "label": "joined",
            "offset": 1,
            "slot": "1",
            "type": "t_bool"
          },
          {
            "astId": 2409,
            "contract": "contracts/PlanetDAO.sol:PlanetDAO",
            "label": "goal",
            "offset": 2,
            "slot": "1",
            "type": "t_bool"
          },
          {
            "astId": 2411,
            "contract": "contracts/PlanetDAO.sol:PlanetDAO",
            "label": "ideas",
            "offset": 3,
            "slot": "1",
            "type": "t_bool"
          },
          {
            "astId": 2413,
            "contract": "contracts/PlanetDAO.sol:PlanetDAO",
            "label": "vote",
            "offset": 4,
            "slot": "1",
            "type": "t_bool"
          },
          {
            "astId": 2415,
            "contract": "contracts/PlanetDAO.sol:PlanetDAO",
            "label": "donation",
            "offset": 5,
            "slot": "1",
            "type": "t_bool"
          },
          {
            "astId": 2417,
            "contract": "contracts/PlanetDAO.sol:PlanetDAO",
            "label": "comment",
            "offset": 6,
            "slot": "1",
            "type": "t_bool"
          },
          {
            "astId": 2419,
            "contract": "contracts/PlanetDAO.sol:PlanetDAO",
            "label": "reply",
            "offset": 7,
            "slot": "1",
            "type": "t_bool"
          }
        ],
        "numberOfBytes": "64"
      },
      "t_uint256": {
        "encoding": "inplace",
        "label": "uint256",
        "numberOfBytes": "32"
      }
    }
  }
}