{
  "_format": "hh-sol-artifact-1",
  "contractName": "HyperContract",
  "sourceName": "contracts/HyperContract.sol",
  "abi": [
    {
      "inputs": [],
      "name": "lastMessageID",
      "outputs": [
        {
          "internalType": "bytes32",
          "name": "",
          "type": "bytes32"
        }
      ],
      "stateMutability": "view",
      "type": "function"
    },
    {
      "inputs": [
        {
          "internalType": "uint32",
          "name": "ethereumDomain",
          "type": "uint32"
        },
        {
          "internalType": "address",
          "name": "igpAddress",
          "type": "address"
        },
        {
          "internalType": "uint256",
          "name": "gasAmount",
          "type": "uint256"
        }
      ],
      "name": "processMessage",
      "outputs": [],
      "stateMutability": "payable",
      "type": "function"
    },
    {
      "inputs": [
        {
          "internalType": "uint32",
          "name": "ethereumDomain",
          "type": "uint32"
        },
        {
          "internalType": "address",
          "name": "routerAddress",
          "type": "address"
        },
        {
          "internalType": "address",
          "name": "toAddress",
          "type": "address"
        },
        {
          "internalType": "uint256",
          "name": "value",
          "type": "uint256"
        },
        {
          "internalType": "bytes",
          "name": "data",
          "type": "bytes"
        }
      ],
      "name": "sendTransaction",
      "outputs": [],
      "stateMutability": "nonpayable",
      "type": "function"
    }
  ],
  "bytecode": "0x608060405234801561001057600080fd5b506106d7806100206000396000f3fe6080604052600436106100345760003560e01c80633dd3728714610039578063621fbd5914610055578063cef5ddf014610080575b600080fd5b610053600480360381019061004e91906102a7565b6100a9565b005b34801561006157600080fd5b5061006a610128565b6040516100779190610313565b60405180910390f35b34801561008c57600080fd5b506100a760048036038101906100a29190610474565b61012e565b005b60008290508073ffffffffffffffffffffffffffffffffffffffff166311bf2c18346000548786336040518663ffffffff1660e01b81526004016100f09493929190610538565b6000604051808303818588803b15801561010957600080fd5b505af115801561011d573d6000803e3d6000fd5b505050505050505050565b60005481565b60008490508073ffffffffffffffffffffffffffffffffffffffff16631ddce514878686866040518563ffffffff1660e01b815260040161017294939291906105fc565b6020604051808303816000875af1158015610191573d6000803e3d6000fd5b505050506040513d601f19601f820116820180604052508101906101b59190610674565b600081905550505050505050565b6000604051905090565b600080fd5b600080fd5b600063ffffffff82169050919050565b6101f0816101d7565b81146101fb57600080fd5b50565b60008135905061020d816101e7565b92915050565b600073ffffffffffffffffffffffffffffffffffffffff82169050919050565b600061023e82610213565b9050919050565b61024e81610233565b811461025957600080fd5b50565b60008135905061026b81610245565b92915050565b6000819050919050565b61028481610271565b811461028f57600080fd5b50565b6000813590506102a18161027b565b92915050565b6000806000606084860312156102c0576102bf6101cd565b5b60006102ce868287016101fe565b93505060206102df8682870161025c565b92505060406102f086828701610292565b9150509250925092565b6000819050919050565b61030d816102fa565b82525050565b60006020820190506103286000830184610304565b92915050565b600080fd5b600080fd5b6000601f19601f8301169050919050565b7f4e487b7100000000000000000000000000000000000000000000000000000000600052604160045260246000fd5b61038182610338565b810181811067ffffffffffffffff821117156103a05761039f610349565b5b80604052505050565b60006103b36101c3565b90506103bf8282610378565b919050565b600067ffffffffffffffff8211156103df576103de610349565b5b6103e882610338565b9050602081019050919050565b82818337600083830152505050565b6000610417610412846103c4565b6103a9565b90508281526020810184848401111561043357610432610333565b5b61043e8482856103f5565b509392505050565b600082601f83011261045b5761045a61032e565b5b813561046b848260208601610404565b91505092915050565b600080600080600060a086880312156104905761048f6101cd565b5b600061049e888289016101fe565b95505060206104af8882890161025c565b94505060406104c08882890161025c565b93505060606104d188828901610292565b925050608086013567ffffffffffffffff8111156104f2576104f16101d2565b5b6104fe88828901610446565b9150509295509295909350565b610514816101d7565b82525050565b61052381610271565b82525050565b61053281610233565b82525050565b600060808201905061054d6000830187610304565b61055a602083018661050b565b610567604083018561051a565b6105746060830184610529565b95945050505050565b600081519050919050565b600082825260208201905092915050565b60005b838110156105b757808201518184015260208101905061059c565b60008484015250505050565b60006105ce8261057d565b6105d88185610588565b93506105e8818560208601610599565b6105f181610338565b840191505092915050565b6000608082019050610611600083018761050b565b61061e6020830186610529565b61062b604083018561051a565b818103606083015261063d81846105c3565b905095945050505050565b610651816102fa565b811461065c57600080fd5b50565b60008151905061066e81610648565b92915050565b60006020828403121561068a576106896101cd565b5b60006106988482850161065f565b9150509291505056fea2646970667358221220a1318e42fad1a2c9704fcaca8e8379a548054e2b0eaa4f27c1a86a727cd566ff64736f6c63430008110033",
  "linkReferences": {},
  "deployedLinkReferences": {}
}