{"contracts/PlanetDAO.sol":{"PlanetDAO":{"abi":[{"inputs":[],"name":"_dao_ids","outputs":[{"internalType":"uint256","name":"","type":"uint256"}],"stateMutability":"view","type":"function"},{"inputs":[{"internalType":"uint256","name":"","type":"uint256"}],"name":"_dao_uris","outputs":[{"internalType":"string","name":"dao_wallet","type":"string"},{"internalType":"string","name":"dao_uri","type":"string"},{"internalType":"string","name":"finished","type":"string"}],"stateMutability":"view","type":"function"},{"inputs":[{"internalType":"uint256","name":"","type":"uint256"}],"name":"_donated","outputs":[{"internalType":"uint256","name":"","type":"uint256"}],"stateMutability":"view","type":"function"},{"inputs":[{"internalType":"uint256","name":"","type":"uint256"}],"name":"_donations","outputs":[{"internalType":"uint256","name":"ideas_id","type":"uint256"},{"internalType":"uint256","name":"userid","type":"uint256"},{"internalType":"uint256","name":"donation","type":"uint256"}],"stateMutability":"view","type":"function"},{"inputs":[],"name":"_donations_ids","outputs":[{"internalType":"uint256","name":"","type":"uint256"}],"stateMutability":"view","type":"function"},{"inputs":[],"name":"_goal_ids","outputs":[{"internalType":"uint256","name":"","type":"uint256"}],"stateMutability":"view","type":"function"},{"inputs":[{"internalType":"uint256","name":"","type":"uint256"}],"name":"_goal_uris","outputs":[{"internalType":"string","name":"dao_id","type":"string"},{"internalType":"string","name":"goal_uri","type":"string"}],"stateMutability":"view","type":"function"},{"inputs":[],"name":"_ideas_ids","outputs":[{"internalType":"uint256","name":"","type":"uint256"}],"stateMutability":"view","type":"function"},{"inputs":[{"internalType":"uint256","name":"","type":"uint256"}],"name":"_ideas_uris","outputs":[{"internalType":"uint256","name":"goal_id","type":"uint256"},{"internalType":"string","name":"ideas_uri","type":"string"},{"internalType":"uint256","name":"donation","type":"uint256"}],"stateMutability":"view","type":"function"},{"inputs":[],"name":"_ideas_vote_ids","outputs":[{"internalType":"uint256","name":"","type":"uint256"}],"stateMutability":"view","type":"function"},{"inputs":[],"name":"_join_ids","outputs":[{"internalType":"uint256","name":"","type":"uint256"}],"stateMutability":"view","type":"function"},{"inputs":[{"internalType":"uint256","name":"","type":"uint256"}],"name":"_joined_person","outputs":[{"internalType":"uint256","name":"daoid","type":"uint256"},{"internalType":"uint256","name":"user_id","type":"uint256"}],"stateMutability":"view","type":"function"},{"inputs":[],"name":"_message_ids","outputs":[{"internalType":"uint256","name":"","type":"uint256"}],"stateMutability":"view","type":"function"},{"inputs":[],"name":"_message_read_ids","outputs":[{"internalType":"uint256","name":"","type":"uint256"}],"stateMutability":"view","type":"function"},{"inputs":[],"name":"_reply_ids","outputs":[{"internalType":"uint256","name":"","type":"uint256"}],"stateMutability":"view","type":"function"},{"inputs":[],"name":"_smart_contract_ids","outputs":[{"internalType":"uint256","name":"","type":"uint256"}],"stateMutability":"view","type":"function"},{"inputs":[{"internalType":"uint256","name":"","type":"uint256"}],"name":"_smart_contracts_uris","outputs":[{"internalType":"uint256","name":"smart_contract_id","type":"uint256"},{"internalType":"uint256","name":"ideas_id","type":"uint256"},{"internalType":"string","name":"smart_contract_uri","type":"string"}],"stateMutability":"view","type":"function"},{"inputs":[{"internalType":"uint256","name":"","type":"uint256"}],"name":"_template_uris","outputs":[{"internalType":"string","name":"","type":"string"}],"stateMutability":"view","type":"function"},{"inputs":[{"internalType":"uint256","name":"","type":"uint256"}],"name":"_user_badges","outputs":[{"internalType":"uint256","name":"user_id","type":"uint256"},{"internalType":"bool","name":"dao","type":"bool"},{"internalType":"bool","name":"joined","type":"bool"},{"internalType":"bool","name":"goal","type":"bool"},{"internalType":"bool","name":"ideas","type":"bool"},{"internalType":"bool","name":"vote","type":"bool"},{"internalType":"bool","name":"donation","type":"bool"},{"internalType":"bool","name":"comment","type":"bool"},{"internalType":"bool","name":"reply","type":"bool"}],"stateMutability":"view","type":"function"},{"inputs":[{"internalType":"uint256","name":"_ideas_id","type":"uint256"},{"internalType":"uint256","name":"_doantion","type":"uint256"},{"internalType":"uint256","name":"_userid","type":"uint256"}],"name":"add_donation","outputs":[],"stateMutability":"nonpayable","type":"function"},{"inputs":[{"internalType":"uint256","name":"","type":"uint256"}],"name":"all_goal_ideas_votes","outputs":[{"internalType":"uint256","name":"goal_id","type":"uint256"},{"internalType":"uint256","name":"ideas_id","type":"uint256"},{"internalType":"string","name":"wallet","type":"string"}],"stateMutability":"view","type":"function"},{"inputs":[{"internalType":"uint256","name":"","type":"uint256"}],"name":"all_messages","outputs":[{"internalType":"uint256","name":"message_id","type":"uint256"},{"internalType":"uint256","name":"ideas_id","type":"uint256"},{"internalType":"string","name":"message","type":"string"},{"internalType":"string","name":"sender","type":"string"}],"stateMutability":"view","type":"function"},{"inputs":[{"internalType":"uint256","name":"","type":"uint256"}],"name":"all_read_messages","outputs":[{"internalType":"uint256","name":"message_id","type":"uint256"},{"internalType":"uint256","name":"ideas_id","type":"uint256"},{"internalType":"uint256","name":"user_id","type":"uint256"},{"internalType":"string","name":"msg_type","type":"string"}],"stateMutability":"view","type":"function"},{"inputs":[{"internalType":"uint256","name":"","type":"uint256"}],"name":"all_replies","outputs":[{"internalType":"uint256","name":"reply_id","type":"uint256"},{"internalType":"uint256","name":"message_id","type":"uint256"},{"internalType":"uint256","name":"ideas_id","type":"uint256"},{"internalType":"string","name":"message","type":"string"}],"stateMutability":"view","type":"function"},{"inputs":[{"internalType":"string","name":"_dao_wallet","type":"string"},{"internalType":"string","name":"_dao_uri","type":"string"},{"internalType":"string","name":"_template","type":"string"},{"internalType":"uint256","name":"user_id","type":"uint256"}],"name":"create_dao","outputs":[{"internalType":"uint256","name":"","type":"uint256"}],"stateMutability":"nonpayable","type":"function"},{"inputs":[{"internalType":"string","name":"_goal_uri","type":"string"},{"internalType":"string","name":"_dao_id","type":"string"},{"internalType":"uint256","name":"_user_id","type":"uint256"}],"name":"create_goal","outputs":[{"internalType":"uint256","name":"","type":"uint256"}],"stateMutability":"nonpayable","type":"function"},{"inputs":[{"internalType":"uint256","name":"_goal_id","type":"uint256"},{"internalType":"uint256","name":"_ideas_id","type":"uint256"},{"internalType":"string","name":"_wallet","type":"string"},{"internalType":"uint256","name":"_user_id","type":"uint256"}],"name":"create_goal_ideas_vote","outputs":[{"internalType":"uint256","name":"","type":"uint256"}],"stateMutability":"nonpayable","type":"function"},{"inputs":[{"internalType":"string","name":"_ideas_uri","type":"string"},{"internalType":"uint256","name":"_goal_id","type":"uint256"},{"internalType":"string[]","name":"_smart_contracts","type":"string[]"},{"internalType":"uint256","name":"_user_id","type":"uint256"}],"name":"create_ideas","outputs":[{"internalType":"uint256","name":"","type":"uint256"}],"stateMutability":"nonpayable","type":"function"},{"inputs":[{"internalType":"uint256","name":"_dao_id","type":"uint256"}],"name":"dao_uri","outputs":[{"internalType":"string","name":"","type":"string"}],"stateMutability":"view","type":"function"},{"inputs":[{"internalType":"uint256","name":"ideas_id","type":"uint256"}],"name":"getMsgIDs","outputs":[{"internalType":"uint256[]","name":"","type":"uint256[]"}],"stateMutability":"view","type":"function"},{"inputs":[{"internalType":"uint256","name":"_message_id","type":"uint256"},{"internalType":"string","name":"msg_type","type":"string"}],"name":"getReadMsg","outputs":[{"internalType":"bool","name":"","type":"bool"}],"stateMutability":"view","type":"function"},{"inputs":[{"internalType":"uint256","name":"message_id","type":"uint256"}],"name":"getReplyIDs","outputs":[{"internalType":"uint256[]","name":"","type":"uint256[]"}],"stateMutability":"view","type":"function"},{"inputs":[],"name":"get_all_daos","outputs":[{"internalType":"string[]","name":"","type":"string[]"}],"stateMutability":"view","type":"function"},{"inputs":[],"name":"get_all_goals","outputs":[{"internalType":"string[]","name":"","type":"string[]"}],"stateMutability":"view","type":"function"},{"inputs":[{"internalType":"string","name":"_dao_id","type":"string"}],"name":"get_all_goals_by_dao_id","outputs":[{"internalType":"string[]","name":"","type":"string[]"}],"stateMutability":"view","type":"function"},{"inputs":[],"name":"get_all_ideas","outputs":[{"internalType":"string[]","name":"","type":"string[]"}],"stateMutability":"view","type":"function"},{"inputs":[{"internalType":"uint256","name":"_goal_id","type":"uint256"}],"name":"get_all_ideas_by_goal_id","outputs":[{"internalType":"string[]","name":"","type":"string[]"}],"stateMutability":"view","type":"function"},{"inputs":[{"internalType":"string","name":"_goal_uri","type":"string"}],"name":"get_goal_id_by_goal_uri","outputs":[{"internalType":"uint256","name":"","type":"uint256"}],"stateMutability":"view","type":"function"},{"inputs":[{"internalType":"string","name":"_ideas_uri","type":"string"}],"name":"get_goal_id_from_ideas_uri","outputs":[{"internalType":"uint256","name":"","type":"uint256"}],"stateMutability":"view","type":"function"},{"inputs":[{"internalType":"string","name":"_ideas_uri","type":"string"}],"name":"get_ideas_id_by_ideas_uri","outputs":[{"internalType":"uint256","name":"","type":"uint256"}],"stateMutability":"view","type":"function"},{"inputs":[{"internalType":"uint256","name":"_goal_id","type":"uint256"},{"internalType":"uint256","name":"_ideas_id","type":"uint256"}],"name":"get_ideas_votes_from_goal","outputs":[{"internalType":"string[]","name":"","type":"string[]"}],"stateMutability":"view","type":"function"},{"inputs":[{"internalType":"uint256","name":"_goal_id","type":"uint256"}],"name":"goal_uri","outputs":[{"internalType":"string","name":"","type":"string"}],"stateMutability":"view","type":"function"},{"inputs":[{"internalType":"uint256","name":"_ideas_id","type":"uint256"}],"name":"ideas_uri","outputs":[{"internalType":"string","name":"","type":"string"}],"stateMutability":"view","type":"function"},{"inputs":[{"internalType":"uint256","name":"person","type":"uint256"}],"name":"is_person_joined","outputs":[{"internalType":"bool","name":"","type":"bool"}],"stateMutability":"view","type":"function"},{"inputs":[{"internalType":"uint256","name":"dao_id","type":"uint256"},{"internalType":"uint256","name":"person","type":"uint256"}],"name":"join_community","outputs":[],"stateMutability":"nonpayable","type":"function"},{"inputs":[],"name":"reset_all","outputs":[],"stateMutability":"nonpayable","type":"function"},{"inputs":[{"internalType":"uint256","name":"_ideas_id","type":"uint256"},{"internalType":"string","name":"_message","type":"string"},{"internalType":"string","name":"_sender","type":"string"},{"internalType":"uint256","name":"_user_id","type":"uint256"}],"name":"sendMsg","outputs":[{"internalType":"uint256","name":"","type":"uint256"}],"stateMutability":"nonpayable","type":"function"},{"inputs":[{"internalType":"uint256","name":"_message_id","type":"uint256"},{"internalType":"uint256","name":"_ideas_id","type":"uint256"},{"internalType":"uint256","name":"_wallet","type":"uint256"},{"internalType":"string","name":"msg_type","type":"string"}],"name":"sendReadMsg","outputs":[{"internalType":"uint256","name":"","type":"uint256"}],"stateMutability":"nonpayable","type":"function"},{"inputs":[{"internalType":"uint256","name":"_message_id","type":"uint256"},{"internalType":"string","name":"_reply","type":"string"},{"internalType":"uint256","name":"ideas_id","type":"uint256"},{"internalType":"uint256","name":"_userid","type":"uint256"}],"name":"sendReply","outputs":[{"internalType":"uint256","name":"","type":"uint256"}],"stateMutability":"nonpayable","type":"function"},{"inputs":[{"internalType":"uint256","name":"_dao_id","type":"uint256"},{"internalType":"string","name":"_dao_wallet","type":"string"},{"internalType":"string","name":"_dao_uri","type":"string"}],"name":"set_dao","outputs":[],"stateMutability":"nonpayable","type":"function"},{"inputs":[{"internalType":"uint256","name":"_goal_id","type":"uint256"},{"internalType":"string","name":"_goal_uri","type":"string"}],"name":"set_goal","outputs":[],"stateMutability":"nonpayable","type":"function"},{"inputs":[{"internalType":"uint256","name":"_ideas_id","type":"uint256"},{"internalType":"string","name":"_ideas_uri","type":"string"}],"name":"set_ideas","outputs":[],"stateMutability":"nonpayable","type":"function"},{"inputs":[{"internalType":"uint256","name":"_dao_id","type":"uint256"},{"internalType":"string","name":"_template","type":"string"}],"name":"update_template","outputs":[],"stateMutability":"nonpayable","type":"function"}],"devdoc":{"kind":"dev","methods":{},"version":1},"evm":{"bytecode":{"linkReferences":{},"object":"608060405234801561001057600080fd5b506141dd806100206000396000f3fe608060405234801561001057600080fd5b50600436106103275760003560e01c806387633eb2116101b8578063c04e743011610104578063cd230809116100a2578063d9fc52db1161007c578063d9fc52db14610b01578063e32acc1a14610b31578063ec24580214610b61578063ff4a37ef14610b7f57610327565b8063cd23080914610a83578063d3791b2014610ab3578063d4ea3a3614610ad157610327565b8063c6182b34116100de578063c6182b34146109e6578063c7af4ee514610a02578063ca013f1714610a32578063cace8d4614610a5057610327565b8063c04e743014610990578063c04fe978146109ac578063c29595c5146109ca57610327565b806397ee760611610171578063aa2bf5d31161014b578063aa2bf5d314610905578063aa4cdf2a14610923578063b16060a614610953578063b527d45e1461095d57610327565b806397ee76061461087f578063a1ca91781461089d578063a428a47f146108cd57610327565b806387633eb2146107ad578063881de858146107c95780638d3d2595146107e55780638e6280e6146108155780639077007d14610831578063934c5f001461084f57610327565b8063468d0c80116102775780637bbd582d11610230578063803f5b9f1161020a578063803f5b9f146106ed578063812fae1f1461071d5780638413543e1461074d57806386ffa45b1461077d57610327565b80637bbd582d1461066c5780637f2035d41461068a5780637fc543ec146106bb57610327565b8063468d0c801461055c5780634a797bd71461058e5780634be7adb5146105ac5780635d907da1146105dc5780636ecda4ee1461060c578063787f19c71461063c57610327565b80631ba44c4c116102e457806327a568b9116102be57806327a568b9146104a857806329b56f60146104da578063330b8f26146104f85780633f87a2f41461052957610327565b80631ba44c4c146104165780631e9ac9f51461044857806320959ed01461047857610327565b80630377d44a1461032c5780631171b6211461035c578063131d44f21461037a57806313bf4cea146103aa5780631a96eceb146103c85780631b592aeb146103f8575b600080fd5b61034660048036038101906103419190613082565b610bb1565b604051610353919061320c565b60405180910390f35b610364610d3b565b6040516103719190613247565b60405180910390f35b610394600480360381019061038f919061328e565b610d41565b6040516103a1919061320c565b60405180910390f35b6103b2610eb0565b6040516103bf9190613247565b60405180910390f35b6103e260048036038101906103dd91906132bb565b610eb6565b6040516103ef9190613247565b60405180910390f35b610400610f69565b60405161040d9190613247565b60405180910390f35b610430600480360381019061042b919061328e565b610f6f565b60405161043f93929190613388565b60405180910390f35b610462600480360381019061045d9190613082565b611021565b60405161046f9190613247565b60405180910390f35b610492600480360381019061048d919061328e565b611092565b60405161049f9190613247565b60405180910390f35b6104c260048036038101906104bd919061328e565b6110aa565b6040516104d1939291906133c6565b60405180910390f35b6104e261126c565b6040516104ef919061320c565b60405180910390f35b610512600480360381019061050d919061328e565b6113a7565b604051610520929190613412565b60405180910390f35b610543600480360381019061053e919061328e565b6113cb565b604051610553949392919061343b565b60405180910390f35b6105766004803603810190610571919061328e565b611483565b60405161058593929190613487565b60405180910390f35b610596611535565b6040516105a39190613247565b60405180910390f35b6105c660048036038101906105c191906134c5565b61153b565b6040516105d3919061320c565b60405180910390f35b6105f660048036038101906105f1919061328e565b6116cd565b6040516106039190613505565b60405180910390f35b6106266004803603810190610621919061328e565b611775565b6040516106339190613505565b60405180910390f35b61065660048036038101906106519190613527565b611815565b6040516106639190613247565b60405180910390f35b6106746118e6565b6040516106819190613247565b60405180910390f35b6106a4600480360381019061069f919061328e565b6118ec565b6040516106b29291906135c6565b60405180910390f35b6106d560048036038101906106d0919061328e565b611a20565b6040516106e4939291906135fd565b60405180910390f35b6107076004803603810190610702919061328e565b611a4a565b60405161071491906136f2565b60405180910390f35b6107376004803603810190610732919061328e565b611b2d565b60405161074491906136f2565b60405180910390f35b61076760048036038101906107629190613714565b611c10565b6040516107749190613247565b60405180910390f35b6107976004803603810190610792919061379f565b611cbe565b6040516107a49190613247565b60405180910390f35b6107c760048036038101906107c2919061385a565b611dde565b005b6107e360048036038101906107de91906138b6565b611e03565b005b6107ff60048036038101906107fa919061328e565b611e50565b60405161080c9190613505565b60405180910390f35b61082f600480360381019061082a9190613941565b611ef8565b005b610839611fec565b6040516108469190613247565b60405180910390f35b61086960048036038101906108649190613994565b611ff2565b6040516108769190613247565b60405180910390f35b610887612086565b604051610894919061320c565b60405180910390f35b6108b760048036038101906108b29190613082565b6121c1565b6040516108c49190613247565b60405180910390f35b6108e760048036038101906108e2919061328e565b612232565b6040516108fc99989796959493929190613a32565b60405180910390f35b61090d6122e8565b60405161091a9190613247565b60405180910390f35b61093d60048036038101906109389190613082565b6122ee565b60405161094a9190613247565b60405180910390f35b61095b612375565b005b6109776004803603810190610972919061328e565b61262f565b6040516109879493929190613abf565b60405180910390f35b6109aa60048036038101906109a5919061385a565b61276f565b005b6109b4612797565b6040516109c1919061320c565b60405180910390f35b6109e460048036038101906109df919061385a565b6128d1565b005b610a0060048036038101906109fb91906134c5565b6128f9565b005b610a1c6004803603810190610a17919061328e565b612985565b604051610a299190613b12565b60405180910390f35b610a3a6129dc565b604051610a479190613247565b60405180910390f35b610a6a6004803603810190610a65919061328e565b6129e2565b604051610a7a949392919061343b565b60405180910390f35b610a9d6004803603810190610a98919061385a565b612a9a565b604051610aaa9190613b12565b60405180910390f35b610abb612b2b565b604051610ac89190613247565b60405180910390f35b610aeb6004803603810190610ae69190613c13565b612b31565b604051610af89190613247565b60405180910390f35b610b1b6004803603810190610b169190613cb2565b612c46565b604051610b289190613247565b60405180910390f35b610b4b6004803603810190610b46919061328e565b612d0b565b604051610b589190613505565b60405180910390f35b610b69612db3565b604051610b769190613247565b60405180910390f35b610b996004803603810190610b94919061328e565b612db9565b604051610ba893929190613388565b60405180910390f35b6060600060025467ffffffffffffffff811115610bd157610bd0612f57565b5b604051908082528060200260200182016040528015610c0457816020015b6060815260200190600190039081610bef5790505b509050600080600090505b600254811015610d30578480519060200120600d6000838152602001908152602001600020600001604051610c449190613e38565b604051809103902003610d1d57600d60008281526020019081526020016000206001018054610c7290613d64565b80601f0160208091040260200160405190810160405280929190818152602001828054610c9e90613d64565b8015610ceb5780601f10610cc057610100808354040283529160200191610ceb565b820191906000526020600020905b815481529060010190602001808311610cce57829003601f168201915b5050505050838381518110610d0357610d02613e4f565b5b60200260200101819052508180610d1990613ead565b9250505b8080610d2890613ead565b915050610c0f565b508192505050919050565b60045481565b6060600060035467ffffffffffffffff811115610d6157610d60612f57565b5b604051908082528060200260200182016040528015610d9457816020015b6060815260200190600190039081610d7f5790505b509050600080600090505b600354811015610ea55784600e60008381526020019081526020016000206000015403610e8457600e60008281526020019081526020016000206001018054610de790613d64565b80601f0160208091040260200160405190810160405280929190818152602001828054610e1390613d64565b8015610e605780601f10610e3557610100808354040283529160200191610e60565b820191906000526020600020905b815481529060010190602001808311610e4357829003601f168201915b5050505050838381518110610e7857610e77613e4f565b5b60200260200101819052505b8180610e8f90613ead565b9250508080610e9d90613ead565b915050610d9f565b508192505050919050565b60025481565b600060016016600084815260200190815260200160002060010160046101000a81548160ff02191690831515021790555060405180606001604052808681526020018581526020018481525060126000600654815260200190815260200160002060008201518160000155602082015181600101556040820151816002019081610f4091906140a1565b5090505060066000815480929190610f5790613ead565b91905055506006549050949350505050565b60055481565b6012602052806000526040600020600091509050806000015490806001015490806002018054610f9e90613d64565b80601f0160208091040260200160405190810160405280929190818152602001828054610fca90613d64565b80156110175780601f10610fec57610100808354040283529160200191611017565b820191906000526020600020905b815481529060010190602001808311610ffa57829003601f168201915b5050505050905083565b600080600090505b600254811015611087578280519060200120600d600083815260200190815260200160002060010160405161105e9190613e38565b604051809103902003611074578091505061108d565b808061107f90613ead565b915050611029565b50600090505b919050565b600f6020528060005260406000206000915090505481565b600a6020528060005260406000206000915090508060000180546110cd90613d64565b80601f01602080910402602001604051908101604052809291908181526020018280546110f990613d64565b80156111465780601f1061111b57610100808354040283529160200191611146565b820191906000526020600020905b81548152906001019060200180831161112957829003601f168201915b50505050509080600101805461115b90613d64565b80601f016020809104026020016040519081016040528092919081815260200182805461118790613d64565b80156111d45780601f106111a9576101008083540402835291602001916111d4565b820191906000526020600020905b8154815290600101906020018083116111b757829003601f168201915b5050505050908060020180546111e990613d64565b80601f016020809104026020016040519081016040528092919081815260200182805461121590613d64565b80156112625780601f1061123757610100808354040283529160200191611262565b820191906000526020600020905b81548152906001019060200180831161124557829003601f168201915b5050505050905083565b6060600060025467ffffffffffffffff81111561128c5761128b612f57565b5b6040519080825280602002602001820160405280156112bf57816020015b60608152602001906001900390816112aa5790505b50905060005b60025481101561139f57600d600082815260200190815260200160002060010180546112f090613d64565b80601f016020809104026020016040519081016040528092919081815260200182805461131c90613d64565b80156113695780601f1061133e57610100808354040283529160200191611369565b820191906000526020600020905b81548152906001019060200180831161134c57829003601f168201915b505050505082828151811061138157611380613e4f565b5b6020026020010181905250808061139790613ead565b9150506112c5565b508091505090565b600c6020528060005260406000206000915090508060000154908060010154905082565b601560205280600052604060002060009150905080600001549080600101549080600201549080600301805461140090613d64565b80601f016020809104026020016040519081016040528092919081815260200182805461142c90613d64565b80156114795780601f1061144e57610100808354040283529160200191611479565b820191906000526020600020905b81548152906001019060200180831161145c57829003601f168201915b5050505050905084565b600e6020528060005260406000206000915090508060000154908060010180546114ac90613d64565b80601f01602080910402602001604051908101604052809291908181526020018280546114d890613d64565b80156115255780601f106114fa57610100808354040283529160200191611525565b820191906000526020600020905b81548152906001019060200180831161150857829003601f168201915b5050505050908060020154905083565b60065481565b6060600060065467ffffffffffffffff81111561155b5761155a612f57565b5b60405190808252806020026020018201604052801561158e57816020015b60608152602001906001900390816115795790505b509050600080600090505b6006548110156116c1578560126000838152602001908152602001600020600001541480156115dd5750846012600083815260200190815260200160002060010154145b156116a05760126000828152602001908152602001600020600201805461160390613d64565b80601f016020809104026020016040519081016040528092919081815260200182805461162f90613d64565b801561167c5780601f106116515761010080835404028352916020019161167c565b820191906000526020600020905b81548152906001019060200180831161165f57829003601f168201915b505050505083838151811061169457611693613e4f565b5b60200260200101819052505b81806116ab90613ead565b92505080806116b990613ead565b915050611599565b50819250505092915050565b6060600a600083815260200190815260200160002060010180546116f090613d64565b80601f016020809104026020016040519081016040528092919081815260200182805461171c90613d64565b80156117695780601f1061173e57610100808354040283529160200191611769565b820191906000526020600020905b81548152906001019060200180831161174c57829003601f168201915b50505050509050919050565b600b602052806000526040600020600091509050805461179490613d64565b80601f01602080910402602001604051908101604052809291908181526020018280546117c090613d64565b801561180d5780601f106117e25761010080835404028352916020019161180d565b820191906000526020600020905b8154815290600101906020018083116117f057829003601f168201915b505050505081565b600060016016600084815260200190815260200160002060010160066101000a81548160ff0219169083151502179055506040518060800160405280600754815260200186815260200185815260200184815250601360006007548152602001908152602001600020600082015181600001556020820151816001015560408201518160020190816118a791906140a1565b5060608201518160030190816118bd91906140a1565b50905050600760008154809291906118d490613ead565b91905055506007549050949350505050565b60005481565b600d60205280600052604060002060009150905080600001805461190f90613d64565b80601f016020809104026020016040519081016040528092919081815260200182805461193b90613d64565b80156119885780601f1061195d57610100808354040283529160200191611988565b820191906000526020600020905b81548152906001019060200180831161196b57829003601f168201915b50505050509080600101805461199d90613d64565b80601f01602080910402602001604051908101604052809291908181526020018280546119c990613d64565b8015611a165780601f106119eb57610100808354040283529160200191611a16565b820191906000526020600020905b8154815290600101906020018083116119f957829003601f168201915b5050505050905082565b60106020528060005260406000206000915090508060000154908060010154908060020154905083565b6060600060075467ffffffffffffffff811115611a6a57611a69612f57565b5b604051908082528060200260200182016040528015611a985781602001602082028036833780820191505090505b509050600080600090505b600754811015611b225784601360008381526020019081526020016000206001015403611b0f576013600082815260200190815260200160002060000154838381518110611af457611af3613e4f565b5b6020026020010181815250508180611b0b90613ead565b9250505b8080611b1a90613ead565b915050611aa3565b508192505050919050565b6060600060095467ffffffffffffffff811115611b4d57611b4c612f57565b5b604051908082528060200260200182016040528015611b7b5781602001602082028036833780820191505090505b509050600080600090505b600954811015611c055784601560008381526020019081526020016000206001015403611bf2576015600082815260200190815260200160002060000154838381518110611bd757611bd6613e4f565b5b6020026020010181815250508180611bee90613ead565b9250505b8080611bfd90613ead565b915050611b86565b508192505050919050565b6000604051806040016040528084815260200185815250600d600060025481526020019081526020016000206000820151816000019081611c5191906140a1565b506020820151816001019081611c6791906140a1565b5090505060016016600084815260200190815260200160002060010160026101000a81548160ff02191690831515021790555060026000815480929190611cad90613ead565b919050555060025490509392505050565b600060405180606001604052808681526020018581526020016040518060400160405280600581526020017f46616c7365000000000000000000000000000000000000000000000000000000815250815250600a6000805481526020019081526020016000206000820151816000019081611d3991906140a1565b506020820151816001019081611d4f91906140a1565b506040820151816002019081611d6591906140a1565b5090505082600b6000805481526020019081526020016000209081611d8a91906140a1565b5060016016600084815260200190815260200160002060010160006101000a81548160ff021916908315150217905550600080815480929190611dcc90613ead565b91905055506000549050949350505050565b80600b60008481526020019081526020016000209081611dfe91906140a1565b505050565b81600a60008581526020019081526020016000206000019081611e2691906140a1565b5080600a60008581526020019081526020016000206001019081611e4a91906140a1565b50505050565b6060600e60008381526020019081526020016000206001018054611e7390613d64565b80601f0160208091040260200160405190810160405280929190818152602001828054611e9f90613d64565b8015611eec5780601f10611ec157610100808354040283529160200191611eec565b820191906000526020600020905b815481529060010190602001808311611ecf57829003601f168201915b50505050509050919050565b60016016600083815260200190815260200160002060010160056101000a81548160ff02191690831515021790555081600e60008581526020019081526020016000206002016000828254611f4d9190614173565b9250508190555081600f60008381526020019081526020016000206000828254611f779190614173565b9250508190555060405180606001604052808481526020018281526020018381525060106000600154815260200190815260200160002060008201518160000155602082015181600101556040820151816002015590505060016000815480929190611fe290613ead565b9190505550505050565b60075481565b6000604051806080016040528086815260200185815260200184815260200183815250601460006008548152602001908152602001600020600082015181600001556020820151816001015560408201518160020155606082015181600301908161205d91906140a1565b509050506008600081548092919061207490613ead565b91905055506008549050949350505050565b6060600060035467ffffffffffffffff8111156120a6576120a5612f57565b5b6040519080825280602002602001820160405280156120d957816020015b60608152602001906001900390816120c45790505b50905060005b6003548110156121b957600e6000828152602001908152602001600020600101805461210a90613d64565b80601f016020809104026020016040519081016040528092919081815260200182805461213690613d64565b80156121835780601f1061215857610100808354040283529160200191612183565b820191906000526020600020905b81548152906001019060200180831161216657829003601f168201915b505050505082828151811061219b5761219a613e4f565b5b602002602001018190525080806121b190613ead565b9150506120df565b508091505090565b600080600090505b600354811015612227578280519060200120600e60008381526020019081526020016000206001016040516121fe9190613e38565b604051809103902003612214578091505061222d565b808061221f90613ead565b9150506121c9565b50600090505b919050565b60166020528060005260406000206000915090508060000154908060010160009054906101000a900460ff16908060010160019054906101000a900460ff16908060010160029054906101000a900460ff16908060010160039054906101000a900460ff16908060010160049054906101000a900460ff16908060010160059054906101000a900460ff16908060010160069054906101000a900460ff16908060010160079054906101000a900460ff16905089565b60095481565b600080600090505b60035481101561236a578280519060200120600e600083815260200190815260200160002060010160405161232b9190613e38565b60405180910390200361235757600e600082815260200190815260200160002060000154915050612370565b808061236290613ead565b9150506122f6565b50600090505b919050565b60005b6000548110156123db57600a6000828152602001908152602001600020600080820160006123a69190612ecb565b6001820160006123b69190612ecb565b6002820160006123c69190612ecb565b505080806123d390613ead565b915050612378565b5060005b60025481101561243257600d60008281526020019081526020016000206000808201600061240d9190612ecb565b60018201600061241d9190612ecb565b5050808061242a90613ead565b9150506123df565b5060005b60035481101561248957600e600082815260200190815260200160002060008082016000905560018201600061246c9190612ecb565b60028201600090555050808061248190613ead565b915050612436565b5060005b6002548110156124e0576011600082815260200190815260200160002060008082016000905560018201600090556002820160006124cb9190612ecb565b505080806124d890613ead565b91505061248d565b5060005b600754811015612547576013600082815260200190815260200160002060008082016000905560018201600090556002820160006125229190612ecb565b6003820160006125329190612ecb565b5050808061253f90613ead565b9150506124e4565b5060005b6009548110156125a65760156000828152602001908152602001600020600080820160009055600182016000905560028201600090556003820160006125919190612ecb565b5050808061259e90613ead565b91505061254b565b5060005b6006548110156125fd576012600082815260200190815260200160002060008082016000905560018201600090556002820160006125e89190612ecb565b505080806125f590613ead565b9150506125aa565b506000808190555060006002819055506000600381905550600060078190555060006009819055506000600681905550565b601360205280600052604060002060009150905080600001549080600101549080600201805461265e90613d64565b80601f016020809104026020016040519081016040528092919081815260200182805461268a90613d64565b80156126d75780601f106126ac576101008083540402835291602001916126d7565b820191906000526020600020905b8154815290600101906020018083116126ba57829003601f168201915b5050505050908060030180546126ec90613d64565b80601f016020809104026020016040519081016040528092919081815260200182805461271890613d64565b80156127655780601f1061273a57610100808354040283529160200191612765565b820191906000526020600020905b81548152906001019060200180831161274857829003601f168201915b5050505050905084565b80600e6000848152602001908152602001600020600101908161279291906140a1565b505050565b60606000805467ffffffffffffffff8111156127b6576127b5612f57565b5b6040519080825280602002602001820160405280156127e957816020015b60608152602001906001900390816127d45790505b50905060005b6000548110156128c957600a6000828152602001908152602001600020600101805461281a90613d64565b80601f016020809104026020016040519081016040528092919081815260200182805461284690613d64565b80156128935780601f1061286857610100808354040283529160200191612893565b820191906000526020600020905b81548152906001019060200180831161287657829003601f168201915b50505050508282815181106128ab576128aa613e4f565b5b602002602001018190525080806128c190613ead565b9150506127ef565b508091505090565b80600d600084815260200190815260200160002060010190816128f491906140a1565b505050565b60016016600083815260200190815260200160002060010160016101000a81548160ff021916908315150217905550604051806040016040528083815260200182815250600c6000600454815260200190815260200160002060008201518160000155602082015181600101559050506004600081548092919061297c90613ead565b91905055505050565b600080600090505b6004548110156129d15782600c600083815260200190815260200160002060010154036129be5760019150506129d7565b80806129c990613ead565b91505061298d565b50600090505b919050565b60085481565b6014602052806000526040600020600091509050806000015490806001015490806002015490806003018054612a1790613d64565b80601f0160208091040260200160405190810160405280929190818152602001828054612a4390613d64565b8015612a905780601f10612a6557610100808354040283529160200191612a90565b820191906000526020600020905b815481529060010190602001808311612a7357829003601f168201915b5050505050905084565b6000806000905060005b600854811015612b2057846014600083815260200190815260200160002060000154148015612b03575060146000828152602001908152602001600020600301604051612af19190613e38565b60405180910390208480519060200120145b15612b0d57600191505b8080612b1890613ead565b915050612aa4565b508091505092915050565b60035481565b600060405180606001604052808581526020018681526020016000815250600e60006003548152602001908152602001600020600082015181600001556020820151816001019081612b8391906140a1565b506040820151816002015590505060016016600084815260200190815260200160002060010160036101000a81548160ff02191690831515021790555060036000815480929190612bd390613ead565b919050555060005b8351811015612c3857612c0d600354600554868481518110612c0057612bff613e4f565b5b6020026020010151612e6b565b60056000815480929190612c2090613ead565b91905055508080612c3090613ead565b915050612bdb565b506003549050949350505050565b600060016016600084815260200190815260200160002060010160076101000a81548160ff02191690831515021790555060405180608001604052806009548152602001868152602001848152602001858152506015600060095481526020019081526020016000206000820151816000015560208201518160010155604082015181600201556060820151816003019081612ce291906140a1565b5090505060096000815480929190612cf990613ead565b91905055506009549050949350505050565b6060600d60008381526020019081526020016000206001018054612d2e90613d64565b80601f0160208091040260200160405190810160405280929190818152602001828054612d5a90613d64565b8015612da75780601f10612d7c57610100808354040283529160200191612da7565b820191906000526020600020905b815481529060010190602001808311612d8a57829003601f168201915b50505050509050919050565b60015481565b6011602052806000526040600020600091509050806000015490806001015490806002018054612de890613d64565b80601f0160208091040260200160405190810160405280929190818152602001828054612e1490613d64565b8015612e615780601f10612e3657610100808354040283529160200191612e61565b820191906000526020600020905b815481529060010190602001808311612e4457829003601f168201915b5050505050905083565b6040518060600160405280848152602001838152602001828152506011600084815260200190815260200160002060008201518160000155602082015181600101556040820151816002019081612ec291906140a1565b50905050505050565b508054612ed790613d64565b6000825580601f10612ee95750612f08565b601f016020900490600052602060002090810190612f079190612f0b565b5b50565b5b80821115612f24576000816000905550600101612f0c565b5090565b6000604051905090565b600080fd5b600080fd5b600080fd5b600080fd5b6000601f19601f8301169050919050565b7f4e487b7100000000000000000000000000000000000000000000000000000000600052604160045260246000fd5b612f8f82612f46565b810181811067ffffffffffffffff82111715612fae57612fad612f57565b5b80604052505050565b6000612fc1612f28565b9050612fcd8282612f86565b919050565b600067ffffffffffffffff821115612fed57612fec612f57565b5b612ff682612f46565b9050602081019050919050565b82818337600083830152505050565b600061302561302084612fd2565b612fb7565b90508281526020810184848401111561304157613040612f41565b5b61304c848285613003565b509392505050565b600082601f83011261306957613068612f3c565b5b8135613079848260208601613012565b91505092915050565b60006020828403121561309857613097612f32565b5b600082013567ffffffffffffffff8111156130b6576130b5612f37565b5b6130c284828501613054565b91505092915050565b600081519050919050565b600082825260208201905092915050565b6000819050602082019050919050565b600081519050919050565b600082825260208201905092915050565b60005b83811015613131578082015181840152602081019050613116565b60008484015250505050565b6000613148826130f7565b6131528185613102565b9350613162818560208601613113565b61316b81612f46565b840191505092915050565b6000613182838361313d565b905092915050565b6000602082019050919050565b60006131a2826130cb565b6131ac81856130d6565b9350836020820285016131be856130e7565b8060005b858110156131fa57848403895281516131db8582613176565b94506131e68361318a565b925060208a019950506001810190506131c2565b50829750879550505050505092915050565b600060208201905081810360008301526132268184613197565b905092915050565b6000819050919050565b6132418161322e565b82525050565b600060208201905061325c6000830184613238565b92915050565b61326b8161322e565b811461327657600080fd5b50565b60008135905061328881613262565b92915050565b6000602082840312156132a4576132a3612f32565b5b60006132b284828501613279565b91505092915050565b600080600080608085870312156132d5576132d4612f32565b5b60006132e387828801613279565b94505060206132f487828801613279565b935050604085013567ffffffffffffffff81111561331557613314612f37565b5b61332187828801613054565b925050606061333287828801613279565b91505092959194509250565b600082825260208201905092915050565b600061335a826130f7565b613364818561333e565b9350613374818560208601613113565b61337d81612f46565b840191505092915050565b600060608201905061339d6000830186613238565b6133aa6020830185613238565b81810360408301526133bc818461334f565b9050949350505050565b600060608201905081810360008301526133e0818661334f565b905081810360208301526133f4818561334f565b90508181036040830152613408818461334f565b9050949350505050565b60006040820190506134276000830185613238565b6134346020830184613238565b9392505050565b60006080820190506134506000830187613238565b61345d6020830186613238565b61346a6040830185613238565b818103606083015261347c818461334f565b905095945050505050565b600060608201905061349c6000830186613238565b81810360208301526134ae818561334f565b90506134bd6040830184613238565b949350505050565b600080604083850312156134dc576134db612f32565b5b60006134ea85828601613279565b92505060206134fb85828601613279565b9150509250929050565b6000602082019050818103600083015261351f818461334f565b905092915050565b6000806000806080858703121561354157613540612f32565b5b600061354f87828801613279565b945050602085013567ffffffffffffffff8111156135705761356f612f37565b5b61357c87828801613054565b935050604085013567ffffffffffffffff81111561359d5761359c612f37565b5b6135a987828801613054565b92505060606135ba87828801613279565b91505092959194509250565b600060408201905081810360008301526135e0818561334f565b905081810360208301526135f4818461334f565b90509392505050565b60006060820190506136126000830186613238565b61361f6020830185613238565b61362c6040830184613238565b949350505050565b600081519050919050565b600082825260208201905092915050565b6000819050602082019050919050565b6136698161322e565b82525050565b600061367b8383613660565b60208301905092915050565b6000602082019050919050565b600061369f82613634565b6136a9818561363f565b93506136b483613650565b8060005b838110156136e55781516136cc888261366f565b97506136d783613687565b9250506001810190506136b8565b5085935050505092915050565b6000602082019050818103600083015261370c8184613694565b905092915050565b60008060006060848603121561372d5761372c612f32565b5b600084013567ffffffffffffffff81111561374b5761374a612f37565b5b61375786828701613054565b935050602084013567ffffffffffffffff81111561377857613777612f37565b5b61378486828701613054565b925050604061379586828701613279565b9150509250925092565b600080600080608085870312156137b9576137b8612f32565b5b600085013567ffffffffffffffff8111156137d7576137d6612f37565b5b6137e387828801613054565b945050602085013567ffffffffffffffff81111561380457613803612f37565b5b61381087828801613054565b935050604085013567ffffffffffffffff81111561383157613830612f37565b5b61383d87828801613054565b925050606061384e87828801613279565b91505092959194509250565b6000806040838503121561387157613870612f32565b5b600061387f85828601613279565b925050602083013567ffffffffffffffff8111156138a05761389f612f37565b5b6138ac85828601613054565b9150509250929050565b6000806000606084860312156138cf576138ce612f32565b5b60006138dd86828701613279565b935050602084013567ffffffffffffffff8111156138fe576138fd612f37565b5b61390a86828701613054565b925050604084013567ffffffffffffffff81111561392b5761392a612f37565b5b61393786828701613054565b9150509250925092565b60008060006060848603121561395a57613959612f32565b5b600061396886828701613279565b935050602061397986828701613279565b925050604061398a86828701613279565b9150509250925092565b600080600080608085870312156139ae576139ad612f32565b5b60006139bc87828801613279565b94505060206139cd87828801613279565b93505060406139de87828801613279565b925050606085013567ffffffffffffffff8111156139ff576139fe612f37565b5b613a0b87828801613054565b91505092959194509250565b60008115159050919050565b613a2c81613a17565b82525050565b600061012082019050613a48600083018c613238565b613a55602083018b613a23565b613a62604083018a613a23565b613a6f6060830189613a23565b613a7c6080830188613a23565b613a8960a0830187613a23565b613a9660c0830186613a23565b613aa360e0830185613a23565b613ab1610100830184613a23565b9a9950505050505050505050565b6000608082019050613ad46000830187613238565b613ae16020830186613238565b8181036040830152613af3818561334f565b90508181036060830152613b07818461334f565b905095945050505050565b6000602082019050613b276000830184613a23565b92915050565b600067ffffffffffffffff821115613b4857613b47612f57565b5b602082029050602081019050919050565b600080fd5b6000613b71613b6c84613b2d565b612fb7565b90508083825260208201905060208402830185811115613b9457613b93613b59565b5b835b81811015613bdb57803567ffffffffffffffff811115613bb957613bb8612f3c565b5b808601613bc68982613054565b85526020850194505050602081019050613b96565b5050509392505050565b600082601f830112613bfa57613bf9612f3c565b5b8135613c0a848260208601613b5e565b91505092915050565b60008060008060808587031215613c2d57613c2c612f32565b5b600085013567ffffffffffffffff811115613c4b57613c4a612f37565b5b613c5787828801613054565b9450506020613c6887828801613279565b935050604085013567ffffffffffffffff811115613c8957613c88612f37565b5b613c9587828801613be5565b9250506060613ca687828801613279565b91505092959194509250565b60008060008060808587031215613ccc57613ccb612f32565b5b6000613cda87828801613279565b945050602085013567ffffffffffffffff811115613cfb57613cfa612f37565b5b613d0787828801613054565b9350506040613d1887828801613279565b9250506060613d2987828801613279565b91505092959194509250565b7f4e487b7100000000000000000000000000000000000000000000000000000000600052602260045260246000fd5b60006002820490506001821680613d7c57607f821691505b602082108103613d8f57613d8e613d35565b5b50919050565b600081905092915050565b60008190508160005260206000209050919050565b60008154613dc281613d64565b613dcc8186613d95565b94506001821660008114613de75760018114613dfc57613e2f565b60ff1983168652811515820286019350613e2f565b613e0585613da0565b60005b83811015613e2757815481890152600182019150602081019050613e08565b838801955050505b50505092915050565b6000613e448284613db5565b915081905092915050565b7f4e487b7100000000000000000000000000000000000000000000000000000000600052603260045260246000fd5b7f4e487b7100000000000000000000000000000000000000000000000000000000600052601160045260246000fd5b6000613eb88261322e565b91507fffffffffffffffffffffffffffffffffffffffffffffffffffffffffffffffff8203613eea57613ee9613e7e565b5b600182019050919050565b60008190508160005260206000209050919050565b60006020601f8301049050919050565b600082821b905092915050565b600060088302613f577fffffffffffffffffffffffffffffffffffffffffffffffffffffffffffffffff82613f1a565b613f618683613f1a565b95508019841693508086168417925050509392505050565b6000819050919050565b6000613f9e613f99613f948461322e565b613f79565b61322e565b9050919050565b6000819050919050565b613fb883613f83565b613fcc613fc482613fa5565b848454613f27565b825550505050565b600090565b613fe1613fd4565b613fec818484613faf565b505050565b5b8181101561401057614005600082613fd9565b600181019050613ff2565b5050565b601f8211156140555761402681613ef5565b61402f84613f0a565b8101602085101561403e578190505b61405261404a85613f0a565b830182613ff1565b50505b505050565b600082821c905092915050565b60006140786000198460080261405a565b1980831691505092915050565b60006140918383614067565b9150826002028217905092915050565b6140aa826130f7565b67ffffffffffffffff8111156140c3576140c2612f57565b5b6140cd8254613d64565b6140d8828285614014565b600060209050601f83116001811461410b57600084156140f9578287015190505b6141038582614085565b86555061416b565b601f19841661411986613ef5565b60005b828110156141415784890151825560018201915060208501945060208101905061411c565b8683101561415e578489015161415a601f891682614067565b8355505b6001600288020188555050505b505050505050565b600061417e8261322e565b91506141898361322e565b92508282019050808211156141a1576141a0613e7e565b5b9291505056fea264697066735822122010df436bddaa2652e7c1cfb1173b18b4674fa095cd8afd0bcb539ecef3b01de364736f6c63430008110033","opcodes":"PUSH1 0x80 PUSH1 0x40 MSTORE CALLVALUE DUP1 ISZERO PUSH2 0x10 JUMPI PUSH1 0x0 DUP1 REVERT JUMPDEST POP PUSH2 0x41DD DUP1 PUSH2 0x20 PUSH1 0x0 CODECOPY PUSH1 0x0 RETURN INVALID PUSH1 0x80 PUSH1 0x40 MSTORE CALLVALUE DUP1 ISZERO PUSH2 0x10 JUMPI PUSH1 0x0 DUP1 REVERT JUMPDEST POP PUSH1 0x4 CALLDATASIZE LT PUSH2 0x327 JUMPI PUSH1 0x0 CALLDATALOAD PUSH1 0xE0 SHR DUP1 PUSH4 0x87633EB2 GT PUSH2 0x1B8 JUMPI DUP1 PUSH4 0xC04E7430 GT PUSH2 0x104 JUMPI DUP1 PUSH4 0xCD230809 GT PUSH2 0xA2 JUMPI DUP1 PUSH4 0xD9FC52DB GT PUSH2 0x7C JUMPI DUP1 PUSH4 0xD9FC52DB EQ PUSH2 0xB01 JUMPI DUP1 PUSH4 0xE32ACC1A EQ PUSH2 0xB31 JUMPI DUP1 PUSH4 0xEC245802 EQ PUSH2 0xB61 JUMPI DUP1 PUSH4 0xFF4A37EF EQ PUSH2 0xB7F JUMPI PUSH2 0x327 JUMP JUMPDEST DUP1 PUSH4 0xCD230809 EQ PUSH2 0xA83 JUMPI DUP1 PUSH4 0xD3791B20 EQ PUSH2 0xAB3 JUMPI DUP1 PUSH4 0xD4EA3A36 EQ PUSH2 0xAD1 JUMPI PUSH2 0x327 JUMP JUMPDEST DUP1 PUSH4 0xC6182B34 GT PUSH2 0xDE JUMPI DUP1 PUSH4 0xC6182B34 EQ PUSH2 0x9E6 JUMPI DUP1 PUSH4 0xC7AF4EE5 EQ PUSH2 0xA02 JUMPI DUP1 PUSH4 0xCA013F17 EQ PUSH2 0xA32 JUMPI DUP1 PUSH4 0xCACE8D46 EQ PUSH2 0xA50 JUMPI PUSH2 0x327 JUMP JUMPDEST DUP1 PUSH4 0xC04E7430 EQ PUSH2 0x990 JUMPI DUP1 PUSH4 0xC04FE978 EQ PUSH2 0x9AC JUMPI DUP1 PUSH4 0xC29595C5 EQ PUSH2 0x9CA JUMPI PUSH2 0x327 JUMP JUMPDEST DUP1 PUSH4 0x97EE7606 GT PUSH2 0x171 JUMPI DUP1 PUSH4 0xAA2BF5D3 GT PUSH2 0x14B JUMPI DUP1 PUSH4 0xAA2BF5D3 EQ PUSH2 0x905 JUMPI DUP1 PUSH4 0xAA4CDF2A EQ PUSH2 0x923 JUMPI DUP1 PUSH4 0xB16060A6 EQ PUSH2 0x953 JUMPI DUP1 PUSH4 0xB527D45E EQ PUSH2 0x95D JUMPI PUSH2 0x327 JUMP JUMPDEST DUP1 PUSH4 0x97EE7606 EQ PUSH2 0x87F JUMPI DUP1 PUSH4 0xA1CA9178 EQ PUSH2 0x89D JUMPI DUP1 PUSH4 0xA428A47F EQ PUSH2 0x8CD JUMPI PUSH2 0x327 JUMP JUMPDEST DUP1 PUSH4 0x87633EB2 EQ PUSH2 0x7AD JUMPI DUP1 PUSH4 0x881DE858 EQ PUSH2 0x7C9 JUMPI DUP1 PUSH4 0x8D3D2595 EQ PUSH2 0x7E5 JUMPI DUP1 PUSH4 0x8E6280E6 EQ PUSH2 0x815 JUMPI DUP1 PUSH4 0x9077007D EQ PUSH2 0x831 JUMPI DUP1 PUSH4 0x934C5F00 EQ PUSH2 0x84F JUMPI PUSH2 0x327 JUMP JUMPDEST DUP1 PUSH4 0x468D0C80 GT PUSH2 0x277 JUMPI DUP1 PUSH4 0x7BBD582D GT PUSH2 0x230 JUMPI DUP1 PUSH4 0x803F5B9F GT PUSH2 0x20A JUMPI DUP1 PUSH4 0x803F5B9F EQ PUSH2 0x6ED JUMPI DUP1 PUSH4 0x812FAE1F EQ PUSH2 0x71D JUMPI DUP1 PUSH4 0x8413543E EQ PUSH2 0x74D JUMPI DUP1 PUSH4 0x86FFA45B EQ PUSH2 0x77D JUMPI PUSH2 0x327 JUMP JUMPDEST DUP1 PUSH4 0x7BBD582D EQ PUSH2 0x66C JUMPI DUP1 PUSH4 0x7F2035D4 EQ PUSH2 0x68A JUMPI DUP1 PUSH4 0x7FC543EC EQ PUSH2 0x6BB JUMPI PUSH2 0x327 JUMP JUMPDEST DUP1 PUSH4 0x468D0C80 EQ PUSH2 0x55C JUMPI DUP1 PUSH4 0x4A797BD7 EQ PUSH2 0x58E JUMPI DUP1 PUSH4 0x4BE7ADB5 EQ PUSH2 0x5AC JUMPI DUP1 PUSH4 0x5D907DA1 EQ PUSH2 0x5DC JUMPI DUP1 PUSH4 0x6ECDA4EE EQ PUSH2 0x60C JUMPI DUP1 PUSH4 0x787F19C7 EQ PUSH2 0x63C JUMPI PUSH2 0x327 JUMP JUMPDEST DUP1 PUSH4 0x1BA44C4C GT PUSH2 0x2E4 JUMPI DUP1 PUSH4 0x27A568B9 GT PUSH2 0x2BE JUMPI DUP1 PUSH4 0x27A568B9 EQ PUSH2 0x4A8 JUMPI DUP1 PUSH4 0x29B56F60 EQ PUSH2 0x4DA JUMPI DUP1 PUSH4 0x330B8F26 EQ PUSH2 0x4F8 JUMPI DUP1 PUSH4 0x3F87A2F4 EQ PUSH2 0x529 JUMPI PUSH2 0x327 JUMP JUMPDEST DUP1 PUSH4 0x1BA44C4C EQ PUSH2 0x416 JUMPI DUP1 PUSH4 0x1E9AC9F5 EQ PUSH2 0x448 JUMPI DUP1 PUSH4 0x20959ED0 EQ PUSH2 0x478 JUMPI PUSH2 0x327 JUMP JUMPDEST DUP1 PUSH4 0x377D44A EQ PUSH2 0x32C JUMPI DUP1 PUSH4 0x1171B621 EQ PUSH2 0x35C JUMPI DUP1 PUSH4 0x131D44F2 EQ PUSH2 0x37A JUMPI DUP1 PUSH4 0x13BF4CEA EQ PUSH2 0x3AA JUMPI DUP1 PUSH4 0x1A96ECEB EQ PUSH2 0x3C8 JUMPI DUP1 PUSH4 0x1B592AEB EQ PUSH2 0x3F8 JUMPI JUMPDEST PUSH1 0x0 DUP1 REVERT JUMPDEST PUSH2 0x346 PUSH1 0x4 DUP1 CALLDATASIZE SUB DUP2 ADD SWAP1 PUSH2 0x341 SWAP2 SWAP1 PUSH2 0x3082 JUMP JUMPDEST PUSH2 0xBB1 JUMP JUMPDEST PUSH1 0x40 MLOAD PUSH2 0x353 SWAP2 SWAP1 PUSH2 0x320C JUMP JUMPDEST PUSH1 0x40 MLOAD DUP1 SWAP2 SUB SWAP1 RETURN JUMPDEST PUSH2 0x364 PUSH2 0xD3B JUMP JUMPDEST PUSH1 0x40 MLOAD PUSH2 0x371 SWAP2 SWAP1 PUSH2 0x3247 JUMP JUMPDEST PUSH1 0x40 MLOAD DUP1 SWAP2 SUB SWAP1 RETURN JUMPDEST PUSH2 0x394 PUSH1 0x4 DUP1 CALLDATASIZE SUB DUP2 ADD SWAP1 PUSH2 0x38F SWAP2 SWAP1 PUSH2 0x328E JUMP JUMPDEST PUSH2 0xD41 JUMP JUMPDEST PUSH1 0x40 MLOAD PUSH2 0x3A1 SWAP2 SWAP1 PUSH2 0x320C JUMP JUMPDEST PUSH1 0x40 MLOAD DUP1 SWAP2 SUB SWAP1 RETURN JUMPDEST PUSH2 0x3B2 PUSH2 0xEB0 JUMP JUMPDEST PUSH1 0x40 MLOAD PUSH2 0x3BF SWAP2 SWAP1 PUSH2 0x3247 JUMP JUMPDEST PUSH1 0x40 MLOAD DUP1 SWAP2 SUB SWAP1 RETURN JUMPDEST PUSH2 0x3E2 PUSH1 0x4 DUP1 CALLDATASIZE SUB DUP2 ADD SWAP1 PUSH2 0x3DD SWAP2 SWAP1 PUSH2 0x32BB JUMP JUMPDEST PUSH2 0xEB6 JUMP JUMPDEST PUSH1 0x40 MLOAD PUSH2 0x3EF SWAP2 SWAP1 PUSH2 0x3247 JUMP JUMPDEST PUSH1 0x40 MLOAD DUP1 SWAP2 SUB SWAP1 RETURN JUMPDEST PUSH2 0x400 PUSH2 0xF69 JUMP JUMPDEST PUSH1 0x40 MLOAD PUSH2 0x40D SWAP2 SWAP1 PUSH2 0x3247 JUMP JUMPDEST PUSH1 0x40 MLOAD DUP1 SWAP2 SUB SWAP1 RETURN JUMPDEST PUSH2 0x430 PUSH1 0x4 DUP1 CALLDATASIZE SUB DUP2 ADD SWAP1 PUSH2 0x42B SWAP2 SWAP1 PUSH2 0x328E JUMP JUMPDEST PUSH2 0xF6F JUMP JUMPDEST PUSH1 0x40 MLOAD PUSH2 0x43F SWAP4 SWAP3 SWAP2 SWAP1 PUSH2 0x3388 JUMP JUMPDEST PUSH1 0x40 MLOAD DUP1 SWAP2 SUB SWAP1 RETURN JUMPDEST PUSH2 0x462 PUSH1 0x4 DUP1 CALLDATASIZE SUB DUP2 ADD SWAP1 PUSH2 0x45D SWAP2 SWAP1 PUSH2 0x3082 JUMP JUMPDEST PUSH2 0x1021 JUMP JUMPDEST PUSH1 0x40 MLOAD PUSH2 0x46F SWAP2 SWAP1 PUSH2 0x3247 JUMP JUMPDEST PUSH1 0x40 MLOAD DUP1 SWAP2 SUB SWAP1 RETURN JUMPDEST PUSH2 0x492 PUSH1 0x4 DUP1 CALLDATASIZE SUB DUP2 ADD SWAP1 PUSH2 0x48D SWAP2 SWAP1 PUSH2 0x328E JUMP JUMPDEST PUSH2 0x1092 JUMP JUMPDEST PUSH1 0x40 MLOAD PUSH2 0x49F SWAP2 SWAP1 PUSH2 0x3247 JUMP JUMPDEST PUSH1 0x40 MLOAD DUP1 SWAP2 SUB SWAP1 RETURN JUMPDEST PUSH2 0x4C2 PUSH1 0x4 DUP1 CALLDATASIZE SUB DUP2 ADD SWAP1 PUSH2 0x4BD SWAP2 SWAP1 PUSH2 0x328E JUMP JUMPDEST PUSH2 0x10AA JUMP JUMPDEST PUSH1 0x40 MLOAD PUSH2 0x4D1 SWAP4 SWAP3 SWAP2 SWAP1 PUSH2 0x33C6 JUMP JUMPDEST PUSH1 0x40 MLOAD DUP1 SWAP2 SUB SWAP1 RETURN JUMPDEST PUSH2 0x4E2 PUSH2 0x126C JUMP JUMPDEST PUSH1 0x40 MLOAD PUSH2 0x4EF SWAP2 SWAP1 PUSH2 0x320C JUMP JUMPDEST PUSH1 0x40 MLOAD DUP1 SWAP2 SUB SWAP1 RETURN JUMPDEST PUSH2 0x512 PUSH1 0x4 DUP1 CALLDATASIZE SUB DUP2 ADD SWAP1 PUSH2 0x50D SWAP2 SWAP1 PUSH2 0x328E JUMP JUMPDEST PUSH2 0x13A7 JUMP JUMPDEST PUSH1 0x40 MLOAD PUSH2 0x520 SWAP3 SWAP2 SWAP1 PUSH2 0x3412 JUMP JUMPDEST PUSH1 0x40 MLOAD DUP1 SWAP2 SUB SWAP1 RETURN JUMPDEST PUSH2 0x543 PUSH1 0x4 DUP1 CALLDATASIZE SUB DUP2 ADD SWAP1 PUSH2 0x53E SWAP2 SWAP1 PUSH2 0x328E JUMP JUMPDEST PUSH2 0x13CB JUMP JUMPDEST PUSH1 0x40 MLOAD PUSH2 0x553 SWAP5 SWAP4 SWAP3 SWAP2 SWAP1 PUSH2 0x343B JUMP JUMPDEST PUSH1 0x40 MLOAD DUP1 SWAP2 SUB SWAP1 RETURN JUMPDEST PUSH2 0x576 PUSH1 0x4 DUP1 CALLDATASIZE SUB DUP2 ADD SWAP1 PUSH2 0x571 SWAP2 SWAP1 PUSH2 0x328E JUMP JUMPDEST PUSH2 0x1483 JUMP JUMPDEST PUSH1 0x40 MLOAD PUSH2 0x585 SWAP4 SWAP3 SWAP2 SWAP1 PUSH2 0x3487 JUMP JUMPDEST PUSH1 0x40 MLOAD DUP1 SWAP2 SUB SWAP1 RETURN JUMPDEST PUSH2 0x596 PUSH2 0x1535 JUMP JUMPDEST PUSH1 0x40 MLOAD PUSH2 0x5A3 SWAP2 SWAP1 PUSH2 0x3247 JUMP JUMPDEST PUSH1 0x40 MLOAD DUP1 SWAP2 SUB SWAP1 RETURN JUMPDEST PUSH2 0x5C6 PUSH1 0x4 DUP1 CALLDATASIZE SUB DUP2 ADD SWAP1 PUSH2 0x5C1 SWAP2 SWAP1 PUSH2 0x34C5 JUMP JUMPDEST PUSH2 0x153B JUMP JUMPDEST PUSH1 0x40 MLOAD PUSH2 0x5D3 SWAP2 SWAP1 PUSH2 0x320C JUMP JUMPDEST PUSH1 0x40 MLOAD DUP1 SWAP2 SUB SWAP1 RETURN JUMPDEST PUSH2 0x5F6 PUSH1 0x4 DUP1 CALLDATASIZE SUB DUP2 ADD SWAP1 PUSH2 0x5F1 SWAP2 SWAP1 PUSH2 0x328E JUMP JUMPDEST PUSH2 0x16CD JUMP JUMPDEST PUSH1 0x40 MLOAD PUSH2 0x603 SWAP2 SWAP1 PUSH2 0x3505 JUMP JUMPDEST PUSH1 0x40 MLOAD DUP1 SWAP2 SUB SWAP1 RETURN JUMPDEST PUSH2 0x626 PUSH1 0x4 DUP1 CALLDATASIZE SUB DUP2 ADD SWAP1 PUSH2 0x621 SWAP2 SWAP1 PUSH2 0x328E JUMP JUMPDEST PUSH2 0x1775 JUMP JUMPDEST PUSH1 0x40 MLOAD PUSH2 0x633 SWAP2 SWAP1 PUSH2 0x3505 JUMP JUMPDEST PUSH1 0x40 MLOAD DUP1 SWAP2 SUB SWAP1 RETURN JUMPDEST PUSH2 0x656 PUSH1 0x4 DUP1 CALLDATASIZE SUB DUP2 ADD SWAP1 PUSH2 0x651 SWAP2 SWAP1 PUSH2 0x3527 JUMP JUMPDEST PUSH2 0x1815 JUMP JUMPDEST PUSH1 0x40 MLOAD PUSH2 0x663 SWAP2 SWAP1 PUSH2 0x3247 JUMP JUMPDEST PUSH1 0x40 MLOAD DUP1 SWAP2 SUB SWAP1 RETURN JUMPDEST PUSH2 0x674 PUSH2 0x18E6 JUMP JUMPDEST PUSH1 0x40 MLOAD PUSH2 0x681 SWAP2 SWAP1 PUSH2 0x3247 JUMP JUMPDEST PUSH1 0x40 MLOAD DUP1 SWAP2 SUB SWAP1 RETURN JUMPDEST PUSH2 0x6A4 PUSH1 0x4 DUP1 CALLDATASIZE SUB DUP2 ADD SWAP1 PUSH2 0x69F SWAP2 SWAP1 PUSH2 0x328E JUMP JUMPDEST PUSH2 0x18EC JUMP JUMPDEST PUSH1 0x40 MLOAD PUSH2 0x6B2 SWAP3 SWAP2 SWAP1 PUSH2 0x35C6 JUMP JUMPDEST PUSH1 0x40 MLOAD DUP1 SWAP2 SUB SWAP1 RETURN JUMPDEST PUSH2 0x6D5 PUSH1 0x4 DUP1 CALLDATASIZE SUB DUP2 ADD SWAP1 PUSH2 0x6D0 SWAP2 SWAP1 PUSH2 0x328E JUMP JUMPDEST PUSH2 0x1A20 JUMP JUMPDEST PUSH1 0x40 MLOAD PUSH2 0x6E4 SWAP4 SWAP3 SWAP2 SWAP1 PUSH2 0x35FD JUMP JUMPDEST PUSH1 0x40 MLOAD DUP1 SWAP2 SUB SWAP1 RETURN JUMPDEST PUSH2 0x707 PUSH1 0x4 DUP1 CALLDATASIZE SUB DUP2 ADD SWAP1 PUSH2 0x702 SWAP2 SWAP1 PUSH2 0x328E JUMP JUMPDEST PUSH2 0x1A4A JUMP JUMPDEST PUSH1 0x40 MLOAD PUSH2 0x714 SWAP2 SWAP1 PUSH2 0x36F2 JUMP JUMPDEST PUSH1 0x40 MLOAD DUP1 SWAP2 SUB SWAP1 RETURN JUMPDEST PUSH2 0x737 PUSH1 0x4 DUP1 CALLDATASIZE SUB DUP2 ADD SWAP1 PUSH2 0x732 SWAP2 SWAP1 PUSH2 0x328E JUMP JUMPDEST PUSH2 0x1B2D JUMP JUMPDEST PUSH1 0x40 MLOAD PUSH2 0x744 SWAP2 SWAP1 PUSH2 0x36F2 JUMP JUMPDEST PUSH1 0x40 MLOAD DUP1 SWAP2 SUB SWAP1 RETURN JUMPDEST PUSH2 0x767 PUSH1 0x4 DUP1 CALLDATASIZE SUB DUP2 ADD SWAP1 PUSH2 0x762 SWAP2 SWAP1 PUSH2 0x3714 JUMP JUMPDEST PUSH2 0x1C10 JUMP JUMPDEST PUSH1 0x40 MLOAD PUSH2 0x774 SWAP2 SWAP1 PUSH2 0x3247 JUMP JUMPDEST PUSH1 0x40 MLOAD DUP1 SWAP2 SUB SWAP1 RETURN JUMPDEST PUSH2 0x797 PUSH1 0x4 DUP1 CALLDATASIZE SUB DUP2 ADD SWAP1 PUSH2 0x792 SWAP2 SWAP1 PUSH2 0x379F JUMP JUMPDEST PUSH2 0x1CBE JUMP JUMPDEST PUSH1 0x40 MLOAD PUSH2 0x7A4 SWAP2 SWAP1 PUSH2 0x3247 JUMP JUMPDEST PUSH1 0x40 MLOAD DUP1 SWAP2 SUB SWAP1 RETURN JUMPDEST PUSH2 0x7C7 PUSH1 0x4 DUP1 CALLDATASIZE SUB DUP2 ADD SWAP1 PUSH2 0x7C2 SWAP2 SWAP1 PUSH2 0x385A JUMP JUMPDEST PUSH2 0x1DDE JUMP JUMPDEST STOP JUMPDEST PUSH2 0x7E3 PUSH1 0x4 DUP1 CALLDATASIZE SUB DUP2 ADD SWAP1 PUSH2 0x7DE SWAP2 SWAP1 PUSH2 0x38B6 JUMP JUMPDEST PUSH2 0x1E03 JUMP JUMPDEST STOP JUMPDEST PUSH2 0x7FF PUSH1 0x4 DUP1 CALLDATASIZE SUB DUP2 ADD SWAP1 PUSH2 0x7FA SWAP2 SWAP1 PUSH2 0x328E JUMP JUMPDEST PUSH2 0x1E50 JUMP JUMPDEST PUSH1 0x40 MLOAD PUSH2 0x80C SWAP2 SWAP1 PUSH2 0x3505 JUMP JUMPDEST PUSH1 0x40 MLOAD DUP1 SWAP2 SUB SWAP1 RETURN JUMPDEST PUSH2 0x82F PUSH1 0x4 DUP1 CALLDATASIZE SUB DUP2 ADD SWAP1 PUSH2 0x82A SWAP2 SWAP1 PUSH2 0x3941 JUMP JUMPDEST PUSH2 0x1EF8 JUMP JUMPDEST STOP JUMPDEST PUSH2 0x839 PUSH2 0x1FEC JUMP JUMPDEST PUSH1 0x40 MLOAD PUSH2 0x846 SWAP2 SWAP1 PUSH2 0x3247 JUMP JUMPDEST PUSH1 0x40 MLOAD DUP1 SWAP2 SUB SWAP1 RETURN JUMPDEST PUSH2 0x869 PUSH1 0x4 DUP1 CALLDATASIZE SUB DUP2 ADD SWAP1 PUSH2 0x864 SWAP2 SWAP1 PUSH2 0x3994 JUMP JUMPDEST PUSH2 0x1FF2 JUMP JUMPDEST PUSH1 0x40 MLOAD PUSH2 0x876 SWAP2 SWAP1 PUSH2 0x3247 JUMP JUMPDEST PUSH1 0x40 MLOAD DUP1 SWAP2 SUB SWAP1 RETURN JUMPDEST PUSH2 0x887 PUSH2 0x2086 JUMP JUMPDEST PUSH1 0x40 MLOAD PUSH2 0x894 SWAP2 SWAP1 PUSH2 0x320C JUMP JUMPDEST PUSH1 0x40 MLOAD DUP1 SWAP2 SUB SWAP1 RETURN JUMPDEST PUSH2 0x8B7 PUSH1 0x4 DUP1 CALLDATASIZE SUB DUP2 ADD SWAP1 PUSH2 0x8B2 SWAP2 SWAP1 PUSH2 0x3082 JUMP JUMPDEST PUSH2 0x21C1 JUMP JUMPDEST PUSH1 0x40 MLOAD PUSH2 0x8C4 SWAP2 SWAP1 PUSH2 0x3247 JUMP JUMPDEST PUSH1 0x40 MLOAD DUP1 SWAP2 SUB SWAP1 RETURN JUMPDEST PUSH2 0x8E7 PUSH1 0x4 DUP1 CALLDATASIZE SUB DUP2 ADD SWAP1 PUSH2 0x8E2 SWAP2 SWAP1 PUSH2 0x328E JUMP JUMPDEST PUSH2 0x2232 JUMP JUMPDEST PUSH1 0x40 MLOAD PUSH2 0x8FC SWAP10 SWAP9 SWAP8 SWAP7 SWAP6 SWAP5 SWAP4 SWAP3 SWAP2 SWAP1 PUSH2 0x3A32 JUMP JUMPDEST PUSH1 0x40 MLOAD DUP1 SWAP2 SUB SWAP1 RETURN JUMPDEST PUSH2 0x90D PUSH2 0x22E8 JUMP JUMPDEST PUSH1 0x40 MLOAD PUSH2 0x91A SWAP2 SWAP1 PUSH2 0x3247 JUMP JUMPDEST PUSH1 0x40 MLOAD DUP1 SWAP2 SUB SWAP1 RETURN JUMPDEST PUSH2 0x93D PUSH1 0x4 DUP1 CALLDATASIZE SUB DUP2 ADD SWAP1 PUSH2 0x938 SWAP2 SWAP1 PUSH2 0x3082 JUMP JUMPDEST PUSH2 0x22EE JUMP JUMPDEST PUSH1 0x40 MLOAD PUSH2 0x94A SWAP2 SWAP1 PUSH2 0x3247 JUMP JUMPDEST PUSH1 0x40 MLOAD DUP1 SWAP2 SUB SWAP1 RETURN JUMPDEST PUSH2 0x95B PUSH2 0x2375 JUMP JUMPDEST STOP JUMPDEST PUSH2 0x977 PUSH1 0x4 DUP1 CALLDATASIZE SUB DUP2 ADD SWAP1 PUSH2 0x972 SWAP2 SWAP1 PUSH2 0x328E JUMP JUMPDEST PUSH2 0x262F JUMP JUMPDEST PUSH1 0x40 MLOAD PUSH2 0x987 SWAP5 SWAP4 SWAP3 SWAP2 SWAP1 PUSH2 0x3ABF JUMP JUMPDEST PUSH1 0x40 MLOAD DUP1 SWAP2 SUB SWAP1 RETURN JUMPDEST PUSH2 0x9AA PUSH1 0x4 DUP1 CALLDATASIZE SUB DUP2 ADD SWAP1 PUSH2 0x9A5 SWAP2 SWAP1 PUSH2 0x385A JUMP JUMPDEST PUSH2 0x276F JUMP JUMPDEST STOP JUMPDEST PUSH2 0x9B4 PUSH2 0x2797 JUMP JUMPDEST PUSH1 0x40 MLOAD PUSH2 0x9C1 SWAP2 SWAP1 PUSH2 0x320C JUMP JUMPDEST PUSH1 0x40 MLOAD DUP1 SWAP2 SUB SWAP1 RETURN JUMPDEST PUSH2 0x9E4 PUSH1 0x4 DUP1 CALLDATASIZE SUB DUP2 ADD SWAP1 PUSH2 0x9DF SWAP2 SWAP1 PUSH2 0x385A JUMP JUMPDEST PUSH2 0x28D1 JUMP JUMPDEST STOP JUMPDEST PUSH2 0xA00 PUSH1 0x4 DUP1 CALLDATASIZE SUB DUP2 ADD SWAP1 PUSH2 0x9FB SWAP2 SWAP1 PUSH2 0x34C5 JUMP JUMPDEST PUSH2 0x28F9 JUMP JUMPDEST STOP JUMPDEST PUSH2 0xA1C PUSH1 0x4 DUP1 CALLDATASIZE SUB DUP2 ADD SWAP1 PUSH2 0xA17 SWAP2 SWAP1 PUSH2 0x328E JUMP JUMPDEST PUSH2 0x2985 JUMP JUMPDEST PUSH1 0x40 MLOAD PUSH2 0xA29 SWAP2 SWAP1 PUSH2 0x3B12 JUMP JUMPDEST PUSH1 0x40 MLOAD DUP1 SWAP2 SUB SWAP1 RETURN JUMPDEST PUSH2 0xA3A PUSH2 0x29DC JUMP JUMPDEST PUSH1 0x40 MLOAD PUSH2 0xA47 SWAP2 SWAP1 PUSH2 0x3247 JUMP JUMPDEST PUSH1 0x40 MLOAD DUP1 SWAP2 SUB SWAP1 RETURN JUMPDEST PUSH2 0xA6A PUSH1 0x4 DUP1 CALLDATASIZE SUB DUP2 ADD SWAP1 PUSH2 0xA65 SWAP2 SWAP1 PUSH2 0x328E JUMP JUMPDEST PUSH2 0x29E2 JUMP JUMPDEST PUSH1 0x40 MLOAD PUSH2 0xA7A SWAP5 SWAP4 SWAP3 SWAP2 SWAP1 PUSH2 0x343B JUMP JUMPDEST PUSH1 0x40 MLOAD DUP1 SWAP2 SUB SWAP1 RETURN JUMPDEST PUSH2 0xA9D PUSH1 0x4 DUP1 CALLDATASIZE SUB DUP2 ADD SWAP1 PUSH2 0xA98 SWAP2 SWAP1 PUSH2 0x385A JUMP JUMPDEST PUSH2 0x2A9A JUMP JUMPDEST PUSH1 0x40 MLOAD PUSH2 0xAAA SWAP2 SWAP1 PUSH2 0x3B12 JUMP JUMPDEST PUSH1 0x40 MLOAD DUP1 SWAP2 SUB SWAP1 RETURN JUMPDEST PUSH2 0xABB PUSH2 0x2B2B JUMP JUMPDEST PUSH1 0x40 MLOAD PUSH2 0xAC8 SWAP2 SWAP1 PUSH2 0x3247 JUMP JUMPDEST PUSH1 0x40 MLOAD DUP1 SWAP2 SUB SWAP1 RETURN JUMPDEST PUSH2 0xAEB PUSH1 0x4 DUP1 CALLDATASIZE SUB DUP2 ADD SWAP1 PUSH2 0xAE6 SWAP2 SWAP1 PUSH2 0x3C13 JUMP JUMPDEST PUSH2 0x2B31 JUMP JUMPDEST PUSH1 0x40 MLOAD PUSH2 0xAF8 SWAP2 SWAP1 PUSH2 0x3247 JUMP JUMPDEST PUSH1 0x40 MLOAD DUP1 SWAP2 SUB SWAP1 RETURN JUMPDEST PUSH2 0xB1B PUSH1 0x4 DUP1 CALLDATASIZE SUB DUP2 ADD SWAP1 PUSH2 0xB16 SWAP2 SWAP1 PUSH2 0x3CB2 JUMP JUMPDEST PUSH2 0x2C46 JUMP JUMPDEST PUSH1 0x40 MLOAD PUSH2 0xB28 SWAP2 SWAP1 PUSH2 0x3247 JUMP JUMPDEST PUSH1 0x40 MLOAD DUP1 SWAP2 SUB SWAP1 RETURN JUMPDEST PUSH2 0xB4B PUSH1 0x4 DUP1 CALLDATASIZE SUB DUP2 ADD SWAP1 PUSH2 0xB46 SWAP2 SWAP1 PUSH2 0x328E JUMP JUMPDEST PUSH2 0x2D0B JUMP JUMPDEST PUSH1 0x40 MLOAD PUSH2 0xB58 SWAP2 SWAP1 PUSH2 0x3505 JUMP JUMPDEST PUSH1 0x40 MLOAD DUP1 SWAP2 SUB SWAP1 RETURN JUMPDEST PUSH2 0xB69 PUSH2 0x2DB3 JUMP JUMPDEST PUSH1 0x40 MLOAD PUSH2 0xB76 SWAP2 SWAP1 PUSH2 0x3247 JUMP JUMPDEST PUSH1 0x40 MLOAD DUP1 SWAP2 SUB SWAP1 RETURN JUMPDEST PUSH2 0xB99 PUSH1 0x4 DUP1 CALLDATASIZE SUB DUP2 ADD SWAP1 PUSH2 0xB94 SWAP2 SWAP1 PUSH2 0x328E JUMP JUMPDEST PUSH2 0x2DB9 JUMP JUMPDEST PUSH1 0x40 MLOAD PUSH2 0xBA8 SWAP4 SWAP3 SWAP2 SWAP1 PUSH2 0x3388 JUMP JUMPDEST PUSH1 0x40 MLOAD DUP1 SWAP2 SUB SWAP1 RETURN JUMPDEST PUSH1 0x60 PUSH1 0x0 PUSH1 0x2 SLOAD PUSH8 0xFFFFFFFFFFFFFFFF DUP2 GT ISZERO PUSH2 0xBD1 JUMPI PUSH2 0xBD0 PUSH2 0x2F57 JUMP JUMPDEST JUMPDEST PUSH1 0x40 MLOAD SWAP1 DUP1 DUP3 MSTORE DUP1 PUSH1 0x20 MUL PUSH1 0x20 ADD DUP3 ADD PUSH1 0x40 MSTORE DUP1 ISZERO PUSH2 0xC04 JUMPI DUP2 PUSH1 0x20 ADD JUMPDEST PUSH1 0x60 DUP2 MSTORE PUSH1 0x20 ADD SWAP1 PUSH1 0x1 SWAP1 SUB SWAP1 DUP2 PUSH2 0xBEF JUMPI SWAP1 POP JUMPDEST POP SWAP1 POP PUSH1 0x0 DUP1 PUSH1 0x0 SWAP1 POP JUMPDEST PUSH1 0x2 SLOAD DUP2 LT ISZERO PUSH2 0xD30 JUMPI DUP5 DUP1 MLOAD SWAP1 PUSH1 0x20 ADD KECCAK256 PUSH1 0xD PUSH1 0x0 DUP4 DUP2 MSTORE PUSH1 0x20 ADD SWAP1 DUP2 MSTORE PUSH1 0x20 ADD PUSH1 0x0 KECCAK256 PUSH1 0x0 ADD PUSH1 0x40 MLOAD PUSH2 0xC44 SWAP2 SWAP1 PUSH2 0x3E38 JUMP JUMPDEST PUSH1 0x40 MLOAD DUP1 SWAP2 SUB SWAP1 KECCAK256 SUB PUSH2 0xD1D JUMPI PUSH1 0xD PUSH1 0x0 DUP3 DUP2 MSTORE PUSH1 0x20 ADD SWAP1 DUP2 MSTORE PUSH1 0x20 ADD PUSH1 0x0 KECCAK256 PUSH1 0x1 ADD DUP1 SLOAD PUSH2 0xC72 SWAP1 PUSH2 0x3D64 JUMP JUMPDEST DUP1 PUSH1 0x1F ADD PUSH1 0x20 DUP1 SWAP2 DIV MUL PUSH1 0x20 ADD PUSH1 0x40 MLOAD SWAP1 DUP2 ADD PUSH1 0x40 MSTORE DUP1 SWAP3 SWAP2 SWAP1 DUP2 DUP2 MSTORE PUSH1 0x20 ADD DUP3 DUP1 SLOAD PUSH2 0xC9E SWAP1 PUSH2 0x3D64 JUMP JUMPDEST DUP1 ISZERO PUSH2 0xCEB JUMPI DUP1 PUSH1 0x1F LT PUSH2 0xCC0 JUMPI PUSH2 0x100 DUP1 DUP4 SLOAD DIV MUL DUP4 MSTORE SWAP2 PUSH1 0x20 ADD SWAP2 PUSH2 0xCEB JUMP JUMPDEST DUP3 ADD SWAP2 SWAP1 PUSH1 0x0 MSTORE PUSH1 0x20 PUSH1 0x0 KECCAK256 SWAP1 JUMPDEST DUP2 SLOAD DUP2 MSTORE SWAP1 PUSH1 0x1 ADD SWAP1 PUSH1 0x20 ADD DUP1 DUP4 GT PUSH2 0xCCE JUMPI DUP3 SWAP1 SUB PUSH1 0x1F AND DUP3 ADD SWAP2 JUMPDEST POP POP POP POP POP DUP4 DUP4 DUP2 MLOAD DUP2 LT PUSH2 0xD03 JUMPI PUSH2 0xD02 PUSH2 0x3E4F JUMP JUMPDEST JUMPDEST PUSH1 0x20 MUL PUSH1 0x20 ADD ADD DUP2 SWAP1 MSTORE POP DUP2 DUP1 PUSH2 0xD19 SWAP1 PUSH2 0x3EAD JUMP JUMPDEST SWAP3 POP POP JUMPDEST DUP1 DUP1 PUSH2 0xD28 SWAP1 PUSH2 0x3EAD JUMP JUMPDEST SWAP2 POP POP PUSH2 0xC0F JUMP JUMPDEST POP DUP2 SWAP3 POP POP POP SWAP2 SWAP1 POP JUMP JUMPDEST PUSH1 0x4 SLOAD DUP2 JUMP JUMPDEST PUSH1 0x60 PUSH1 0x0 PUSH1 0x3 SLOAD PUSH8 0xFFFFFFFFFFFFFFFF DUP2 GT ISZERO PUSH2 0xD61 JUMPI PUSH2 0xD60 PUSH2 0x2F57 JUMP JUMPDEST JUMPDEST PUSH1 0x40 MLOAD SWAP1 DUP1 DUP3 MSTORE DUP1 PUSH1 0x20 MUL PUSH1 0x20 ADD DUP3 ADD PUSH1 0x40 MSTORE DUP1 ISZERO PUSH2 0xD94 JUMPI DUP2 PUSH1 0x20 ADD JUMPDEST PUSH1 0x60 DUP2 MSTORE PUSH1 0x20 ADD SWAP1 PUSH1 0x1 SWAP1 SUB SWAP1 DUP2 PUSH2 0xD7F JUMPI SWAP1 POP JUMPDEST POP SWAP1 POP PUSH1 0x0 DUP1 PUSH1 0x0 SWAP1 POP JUMPDEST PUSH1 0x3 SLOAD DUP2 LT ISZERO PUSH2 0xEA5 JUMPI DUP5 PUSH1 0xE PUSH1 0x0 DUP4 DUP2 MSTORE PUSH1 0x20 ADD SWAP1 DUP2 MSTORE PUSH1 0x20 ADD PUSH1 0x0 KECCAK256 PUSH1 0x0 ADD SLOAD SUB PUSH2 0xE84 JUMPI PUSH1 0xE PUSH1 0x0 DUP3 DUP2 MSTORE PUSH1 0x20 ADD SWAP1 DUP2 MSTORE PUSH1 0x20 ADD PUSH1 0x0 KECCAK256 PUSH1 0x1 ADD DUP1 SLOAD PUSH2 0xDE7 SWAP1 PUSH2 0x3D64 JUMP JUMPDEST DUP1 PUSH1 0x1F ADD PUSH1 0x20 DUP1 SWAP2 DIV MUL PUSH1 0x20 ADD PUSH1 0x40 MLOAD SWAP1 DUP2 ADD PUSH1 0x40 MSTORE DUP1 SWAP3 SWAP2 SWAP1 DUP2 DUP2 MSTORE PUSH1 0x20 ADD DUP3 DUP1 SLOAD PUSH2 0xE13 SWAP1 PUSH2 0x3D64 JUMP JUMPDEST DUP1 ISZERO PUSH2 0xE60 JUMPI DUP1 PUSH1 0x1F LT PUSH2 0xE35 JUMPI PUSH2 0x100 DUP1 DUP4 SLOAD DIV MUL DUP4 MSTORE SWAP2 PUSH1 0x20 ADD SWAP2 PUSH2 0xE60 JUMP JUMPDEST DUP3 ADD SWAP2 SWAP1 PUSH1 0x0 MSTORE PUSH1 0x20 PUSH1 0x0 KECCAK256 SWAP1 JUMPDEST DUP2 SLOAD DUP2 MSTORE SWAP1 PUSH1 0x1 ADD SWAP1 PUSH1 0x20 ADD DUP1 DUP4 GT PUSH2 0xE43 JUMPI DUP3 SWAP1 SUB PUSH1 0x1F AND DUP3 ADD SWAP2 JUMPDEST POP POP POP POP POP DUP4 DUP4 DUP2 MLOAD DUP2 LT PUSH2 0xE78 JUMPI PUSH2 0xE77 PUSH2 0x3E4F JUMP JUMPDEST JUMPDEST PUSH1 0x20 MUL PUSH1 0x20 ADD ADD DUP2 SWAP1 MSTORE POP JUMPDEST DUP2 DUP1 PUSH2 0xE8F SWAP1 PUSH2 0x3EAD JUMP JUMPDEST SWAP3 POP POP DUP1 DUP1 PUSH2 0xE9D SWAP1 PUSH2 0x3EAD JUMP JUMPDEST SWAP2 POP POP PUSH2 0xD9F JUMP JUMPDEST POP DUP2 SWAP3 POP POP POP SWAP2 SWAP1 POP JUMP JUMPDEST PUSH1 0x2 SLOAD DUP2 JUMP JUMPDEST PUSH1 0x0 PUSH1 0x1 PUSH1 0x16 PUSH1 0x0 DUP5 DUP2 MSTORE PUSH1 0x20 ADD SWAP1 DUP2 MSTORE PUSH1 0x20 ADD PUSH1 0x0 KECCAK256 PUSH1 0x1 ADD PUSH1 0x4 PUSH2 0x100 EXP DUP2 SLOAD DUP2 PUSH1 0xFF MUL NOT AND SWAP1 DUP4 ISZERO ISZERO MUL OR SWAP1 SSTORE POP PUSH1 0x40 MLOAD DUP1 PUSH1 0x60 ADD PUSH1 0x40 MSTORE DUP1 DUP7 DUP2 MSTORE PUSH1 0x20 ADD DUP6 DUP2 MSTORE PUSH1 0x20 ADD DUP5 DUP2 MSTORE POP PUSH1 0x12 PUSH1 0x0 PUSH1 0x6 SLOAD DUP2 MSTORE PUSH1 0x20 ADD SWAP1 DUP2 MSTORE PUSH1 0x20 ADD PUSH1 0x0 KECCAK256 PUSH1 0x0 DUP3 ADD MLOAD DUP2 PUSH1 0x0 ADD SSTORE PUSH1 0x20 DUP3 ADD MLOAD DUP2 PUSH1 0x1 ADD SSTORE PUSH1 0x40 DUP3 ADD MLOAD DUP2 PUSH1 0x2 ADD SWAP1 DUP2 PUSH2 0xF40 SWAP2 SWAP1 PUSH2 0x40A1 JUMP JUMPDEST POP SWAP1 POP POP PUSH1 0x6 PUSH1 0x0 DUP2 SLOAD DUP1 SWAP3 SWAP2 SWAP1 PUSH2 0xF57 SWAP1 PUSH2 0x3EAD JUMP JUMPDEST SWAP2 SWAP1 POP SSTORE POP PUSH1 0x6 SLOAD SWAP1 POP SWAP5 SWAP4 POP POP POP POP JUMP JUMPDEST PUSH1 0x5 SLOAD DUP2 JUMP JUMPDEST PUSH1 0x12 PUSH1 0x20 MSTORE DUP1 PUSH1 0x0 MSTORE PUSH1 0x40 PUSH1 0x0 KECCAK256 PUSH1 0x0 SWAP2 POP SWAP1 POP DUP1 PUSH1 0x0 ADD SLOAD SWAP1 DUP1 PUSH1 0x1 ADD SLOAD SWAP1 DUP1 PUSH1 0x2 ADD DUP1 SLOAD PUSH2 0xF9E SWAP1 PUSH2 0x3D64 JUMP JUMPDEST DUP1 PUSH1 0x1F ADD PUSH1 0x20 DUP1 SWAP2 DIV MUL PUSH1 0x20 ADD PUSH1 0x40 MLOAD SWAP1 DUP2 ADD PUSH1 0x40 MSTORE DUP1 SWAP3 SWAP2 SWAP1 DUP2 DUP2 MSTORE PUSH1 0x20 ADD DUP3 DUP1 SLOAD PUSH2 0xFCA SWAP1 PUSH2 0x3D64 JUMP JUMPDEST DUP1 ISZERO PUSH2 0x1017 JUMPI DUP1 PUSH1 0x1F LT PUSH2 0xFEC JUMPI PUSH2 0x100 DUP1 DUP4 SLOAD DIV MUL DUP4 MSTORE SWAP2 PUSH1 0x20 ADD SWAP2 PUSH2 0x1017 JUMP JUMPDEST DUP3 ADD SWAP2 SWAP1 PUSH1 0x0 MSTORE PUSH1 0x20 PUSH1 0x0 KECCAK256 SWAP1 JUMPDEST DUP2 SLOAD DUP2 MSTORE SWAP1 PUSH1 0x1 ADD SWAP1 PUSH1 0x20 ADD DUP1 DUP4 GT PUSH2 0xFFA JUMPI DUP3 SWAP1 SUB PUSH1 0x1F AND DUP3 ADD SWAP2 JUMPDEST POP POP POP POP POP SWAP1 POP DUP4 JUMP JUMPDEST PUSH1 0x0 DUP1 PUSH1 0x0 SWAP1 POP JUMPDEST PUSH1 0x2 SLOAD DUP2 LT ISZERO PUSH2 0x1087 JUMPI DUP3 DUP1 MLOAD SWAP1 PUSH1 0x20 ADD KECCAK256 PUSH1 0xD PUSH1 0x0 DUP4 DUP2 MSTORE PUSH1 0x20 ADD SWAP1 DUP2 MSTORE PUSH1 0x20 ADD PUSH1 0x0 KECCAK256 PUSH1 0x1 ADD PUSH1 0x40 MLOAD PUSH2 0x105E SWAP2 SWAP1 PUSH2 0x3E38 JUMP JUMPDEST PUSH1 0x40 MLOAD DUP1 SWAP2 SUB SWAP1 KECCAK256 SUB PUSH2 0x1074 JUMPI DUP1 SWAP2 POP POP PUSH2 0x108D JUMP JUMPDEST DUP1 DUP1 PUSH2 0x107F SWAP1 PUSH2 0x3EAD JUMP JUMPDEST SWAP2 POP POP PUSH2 0x1029 JUMP JUMPDEST POP PUSH1 0x0 SWAP1 POP JUMPDEST SWAP2 SWAP1 POP JUMP JUMPDEST PUSH1 0xF PUSH1 0x20 MSTORE DUP1 PUSH1 0x0 MSTORE PUSH1 0x40 PUSH1 0x0 KECCAK256 PUSH1 0x0 SWAP2 POP SWAP1 POP SLOAD DUP2 JUMP JUMPDEST PUSH1 0xA PUSH1 0x20 MSTORE DUP1 PUSH1 0x0 MSTORE PUSH1 0x40 PUSH1 0x0 KECCAK256 PUSH1 0x0 SWAP2 POP SWAP1 POP DUP1 PUSH1 0x0 ADD DUP1 SLOAD PUSH2 0x10CD SWAP1 PUSH2 0x3D64 JUMP JUMPDEST DUP1 PUSH1 0x1F ADD PUSH1 0x20 DUP1 SWAP2 DIV MUL PUSH1 0x20 ADD PUSH1 0x40 MLOAD SWAP1 DUP2 ADD PUSH1 0x40 MSTORE DUP1 SWAP3 SWAP2 SWAP1 DUP2 DUP2 MSTORE PUSH1 0x20 ADD DUP3 DUP1 SLOAD PUSH2 0x10F9 SWAP1 PUSH2 0x3D64 JUMP JUMPDEST DUP1 ISZERO PUSH2 0x1146 JUMPI DUP1 PUSH1 0x1F LT PUSH2 0x111B JUMPI PUSH2 0x100 DUP1 DUP4 SLOAD DIV MUL DUP4 MSTORE SWAP2 PUSH1 0x20 ADD SWAP2 PUSH2 0x1146 JUMP JUMPDEST DUP3 ADD SWAP2 SWAP1 PUSH1 0x0 MSTORE PUSH1 0x20 PUSH1 0x0 KECCAK256 SWAP1 JUMPDEST DUP2 SLOAD DUP2 MSTORE SWAP1 PUSH1 0x1 ADD SWAP1 PUSH1 0x20 ADD DUP1 DUP4 GT PUSH2 0x1129 JUMPI DUP3 SWAP1 SUB PUSH1 0x1F AND DUP3 ADD SWAP2 JUMPDEST POP POP POP POP POP SWAP1 DUP1 PUSH1 0x1 ADD DUP1 SLOAD PUSH2 0x115B SWAP1 PUSH2 0x3D64 JUMP JUMPDEST DUP1 PUSH1 0x1F ADD PUSH1 0x20 DUP1 SWAP2 DIV MUL PUSH1 0x20 ADD PUSH1 0x40 MLOAD SWAP1 DUP2 ADD PUSH1 0x40 MSTORE DUP1 SWAP3 SWAP2 SWAP1 DUP2 DUP2 MSTORE PUSH1 0x20 ADD DUP3 DUP1 SLOAD PUSH2 0x1187 SWAP1 PUSH2 0x3D64 JUMP JUMPDEST DUP1 ISZERO PUSH2 0x11D4 JUMPI DUP1 PUSH1 0x1F LT PUSH2 0x11A9 JUMPI PUSH2 0x100 DUP1 DUP4 SLOAD DIV MUL DUP4 MSTORE SWAP2 PUSH1 0x20 ADD SWAP2 PUSH2 0x11D4 JUMP JUMPDEST DUP3 ADD SWAP2 SWAP1 PUSH1 0x0 MSTORE PUSH1 0x20 PUSH1 0x0 KECCAK256 SWAP1 JUMPDEST DUP2 SLOAD DUP2 MSTORE SWAP1 PUSH1 0x1 ADD SWAP1 PUSH1 0x20 ADD DUP1 DUP4 GT PUSH2 0x11B7 JUMPI DUP3 SWAP1 SUB PUSH1 0x1F AND DUP3 ADD SWAP2 JUMPDEST POP POP POP POP POP SWAP1 DUP1 PUSH1 0x2 ADD DUP1 SLOAD PUSH2 0x11E9 SWAP1 PUSH2 0x3D64 JUMP JUMPDEST DUP1 PUSH1 0x1F ADD PUSH1 0x20 DUP1 SWAP2 DIV MUL PUSH1 0x20 ADD PUSH1 0x40 MLOAD SWAP1 DUP2 ADD PUSH1 0x40 MSTORE DUP1 SWAP3 SWAP2 SWAP1 DUP2 DUP2 MSTORE PUSH1 0x20 ADD DUP3 DUP1 SLOAD PUSH2 0x1215 SWAP1 PUSH2 0x3D64 JUMP JUMPDEST DUP1 ISZERO PUSH2 0x1262 JUMPI DUP1 PUSH1 0x1F LT PUSH2 0x1237 JUMPI PUSH2 0x100 DUP1 DUP4 SLOAD DIV MUL DUP4 MSTORE SWAP2 PUSH1 0x20 ADD SWAP2 PUSH2 0x1262 JUMP JUMPDEST DUP3 ADD SWAP2 SWAP1 PUSH1 0x0 MSTORE PUSH1 0x20 PUSH1 0x0 KECCAK256 SWAP1 JUMPDEST DUP2 SLOAD DUP2 MSTORE SWAP1 PUSH1 0x1 ADD SWAP1 PUSH1 0x20 ADD DUP1 DUP4 GT PUSH2 0x1245 JUMPI DUP3 SWAP1 SUB PUSH1 0x1F AND DUP3 ADD SWAP2 JUMPDEST POP POP POP POP POP SWAP1 POP DUP4 JUMP JUMPDEST PUSH1 0x60 PUSH1 0x0 PUSH1 0x2 SLOAD PUSH8 0xFFFFFFFFFFFFFFFF DUP2 GT ISZERO PUSH2 0x128C JUMPI PUSH2 0x128B PUSH2 0x2F57 JUMP JUMPDEST JUMPDEST PUSH1 0x40 MLOAD SWAP1 DUP1 DUP3 MSTORE DUP1 PUSH1 0x20 MUL PUSH1 0x20 ADD DUP3 ADD PUSH1 0x40 MSTORE DUP1 ISZERO PUSH2 0x12BF JUMPI DUP2 PUSH1 0x20 ADD JUMPDEST PUSH1 0x60 DUP2 MSTORE PUSH1 0x20 ADD SWAP1 PUSH1 0x1 SWAP1 SUB SWAP1 DUP2 PUSH2 0x12AA JUMPI SWAP1 POP JUMPDEST POP SWAP1 POP PUSH1 0x0 JUMPDEST PUSH1 0x2 SLOAD DUP2 LT ISZERO PUSH2 0x139F JUMPI PUSH1 0xD PUSH1 0x0 DUP3 DUP2 MSTORE PUSH1 0x20 ADD SWAP1 DUP2 MSTORE PUSH1 0x20 ADD PUSH1 0x0 KECCAK256 PUSH1 0x1 ADD DUP1 SLOAD PUSH2 0x12F0 SWAP1 PUSH2 0x3D64 JUMP JUMPDEST DUP1 PUSH1 0x1F ADD PUSH1 0x20 DUP1 SWAP2 DIV MUL PUSH1 0x20 ADD PUSH1 0x40 MLOAD SWAP1 DUP2 ADD PUSH1 0x40 MSTORE DUP1 SWAP3 SWAP2 SWAP1 DUP2 DUP2 MSTORE PUSH1 0x20 ADD DUP3 DUP1 SLOAD PUSH2 0x131C SWAP1 PUSH2 0x3D64 JUMP JUMPDEST DUP1 ISZERO PUSH2 0x1369 JUMPI DUP1 PUSH1 0x1F LT PUSH2 0x133E JUMPI PUSH2 0x100 DUP1 DUP4 SLOAD DIV MUL DUP4 MSTORE SWAP2 PUSH1 0x20 ADD SWAP2 PUSH2 0x1369 JUMP JUMPDEST DUP3 ADD SWAP2 SWAP1 PUSH1 0x0 MSTORE PUSH1 0x20 PUSH1 0x0 KECCAK256 SWAP1 JUMPDEST DUP2 SLOAD DUP2 MSTORE SWAP1 PUSH1 0x1 ADD SWAP1 PUSH1 0x20 ADD DUP1 DUP4 GT PUSH2 0x134C JUMPI DUP3 SWAP1 SUB PUSH1 0x1F AND DUP3 ADD SWAP2 JUMPDEST POP POP POP POP POP DUP3 DUP3 DUP2 MLOAD DUP2 LT PUSH2 0x1381 JUMPI PUSH2 0x1380 PUSH2 0x3E4F JUMP JUMPDEST JUMPDEST PUSH1 0x20 MUL PUSH1 0x20 ADD ADD DUP2 SWAP1 MSTORE POP DUP1 DUP1 PUSH2 0x1397 SWAP1 PUSH2 0x3EAD JUMP JUMPDEST SWAP2 POP POP PUSH2 0x12C5 JUMP JUMPDEST POP DUP1 SWAP2 POP POP SWAP1 JUMP JUMPDEST PUSH1 0xC PUSH1 0x20 MSTORE DUP1 PUSH1 0x0 MSTORE PUSH1 0x40 PUSH1 0x0 KECCAK256 PUSH1 0x0 SWAP2 POP SWAP1 POP DUP1 PUSH1 0x0 ADD SLOAD SWAP1 DUP1 PUSH1 0x1 ADD SLOAD SWAP1 POP DUP3 JUMP JUMPDEST PUSH1 0x15 PUSH1 0x20 MSTORE DUP1 PUSH1 0x0 MSTORE PUSH1 0x40 PUSH1 0x0 KECCAK256 PUSH1 0x0 SWAP2 POP SWAP1 POP DUP1 PUSH1 0x0 ADD SLOAD SWAP1 DUP1 PUSH1 0x1 ADD SLOAD SWAP1 DUP1 PUSH1 0x2 ADD SLOAD SWAP1 DUP1 PUSH1 0x3 ADD DUP1 SLOAD PUSH2 0x1400 SWAP1 PUSH2 0x3D64 JUMP JUMPDEST DUP1 PUSH1 0x1F ADD PUSH1 0x20 DUP1 SWAP2 DIV MUL PUSH1 0x20 ADD PUSH1 0x40 MLOAD SWAP1 DUP2 ADD PUSH1 0x40 MSTORE DUP1 SWAP3 SWAP2 SWAP1 DUP2 DUP2 MSTORE PUSH1 0x20 ADD DUP3 DUP1 SLOAD PUSH2 0x142C SWAP1 PUSH2 0x3D64 JUMP JUMPDEST DUP1 ISZERO PUSH2 0x1479 JUMPI DUP1 PUSH1 0x1F LT PUSH2 0x144E JUMPI PUSH2 0x100 DUP1 DUP4 SLOAD DIV MUL DUP4 MSTORE SWAP2 PUSH1 0x20 ADD SWAP2 PUSH2 0x1479 JUMP JUMPDEST DUP3 ADD SWAP2 SWAP1 PUSH1 0x0 MSTORE PUSH1 0x20 PUSH1 0x0 KECCAK256 SWAP1 JUMPDEST DUP2 SLOAD DUP2 MSTORE SWAP1 PUSH1 0x1 ADD SWAP1 PUSH1 0x20 ADD DUP1 DUP4 GT PUSH2 0x145C JUMPI DUP3 SWAP1 SUB PUSH1 0x1F AND DUP3 ADD SWAP2 JUMPDEST POP POP POP POP POP SWAP1 POP DUP5 JUMP JUMPDEST PUSH1 0xE PUSH1 0x20 MSTORE DUP1 PUSH1 0x0 MSTORE PUSH1 0x40 PUSH1 0x0 KECCAK256 PUSH1 0x0 SWAP2 POP SWAP1 POP DUP1 PUSH1 0x0 ADD SLOAD SWAP1 DUP1 PUSH1 0x1 ADD DUP1 SLOAD PUSH2 0x14AC SWAP1 PUSH2 0x3D64 JUMP JUMPDEST DUP1 PUSH1 0x1F ADD PUSH1 0x20 DUP1 SWAP2 DIV MUL PUSH1 0x20 ADD PUSH1 0x40 MLOAD SWAP1 DUP2 ADD PUSH1 0x40 MSTORE DUP1 SWAP3 SWAP2 SWAP1 DUP2 DUP2 MSTORE PUSH1 0x20 ADD DUP3 DUP1 SLOAD PUSH2 0x14D8 SWAP1 PUSH2 0x3D64 JUMP JUMPDEST DUP1 ISZERO PUSH2 0x1525 JUMPI DUP1 PUSH1 0x1F LT PUSH2 0x14FA JUMPI PUSH2 0x100 DUP1 DUP4 SLOAD DIV MUL DUP4 MSTORE SWAP2 PUSH1 0x20 ADD SWAP2 PUSH2 0x1525 JUMP JUMPDEST DUP3 ADD SWAP2 SWAP1 PUSH1 0x0 MSTORE PUSH1 0x20 PUSH1 0x0 KECCAK256 SWAP1 JUMPDEST DUP2 SLOAD DUP2 MSTORE SWAP1 PUSH1 0x1 ADD SWAP1 PUSH1 0x20 ADD DUP1 DUP4 GT PUSH2 0x1508 JUMPI DUP3 SWAP1 SUB PUSH1 0x1F AND DUP3 ADD SWAP2 JUMPDEST POP POP POP POP POP SWAP1 DUP1 PUSH1 0x2 ADD SLOAD SWAP1 POP DUP4 JUMP JUMPDEST PUSH1 0x6 SLOAD DUP2 JUMP JUMPDEST PUSH1 0x60 PUSH1 0x0 PUSH1 0x6 SLOAD PUSH8 0xFFFFFFFFFFFFFFFF DUP2 GT ISZERO PUSH2 0x155B JUMPI PUSH2 0x155A PUSH2 0x2F57 JUMP JUMPDEST JUMPDEST PUSH1 0x40 MLOAD SWAP1 DUP1 DUP3 MSTORE DUP1 PUSH1 0x20 MUL PUSH1 0x20 ADD DUP3 ADD PUSH1 0x40 MSTORE DUP1 ISZERO PUSH2 0x158E JUMPI DUP2 PUSH1 0x20 ADD JUMPDEST PUSH1 0x60 DUP2 MSTORE PUSH1 0x20 ADD SWAP1 PUSH1 0x1 SWAP1 SUB SWAP1 DUP2 PUSH2 0x1579 JUMPI SWAP1 POP JUMPDEST POP SWAP1 POP PUSH1 0x0 DUP1 PUSH1 0x0 SWAP1 POP JUMPDEST PUSH1 0x6 SLOAD DUP2 LT ISZERO PUSH2 0x16C1 JUMPI DUP6 PUSH1 0x12 PUSH1 0x0 DUP4 DUP2 MSTORE PUSH1 0x20 ADD SWAP1 DUP2 MSTORE PUSH1 0x20 ADD PUSH1 0x0 KECCAK256 PUSH1 0x0 ADD SLOAD EQ DUP1 ISZERO PUSH2 0x15DD JUMPI POP DUP5 PUSH1 0x12 PUSH1 0x0 DUP4 DUP2 MSTORE PUSH1 0x20 ADD SWAP1 DUP2 MSTORE PUSH1 0x20 ADD PUSH1 0x0 KECCAK256 PUSH1 0x1 ADD SLOAD EQ JUMPDEST ISZERO PUSH2 0x16A0 JUMPI PUSH1 0x12 PUSH1 0x0 DUP3 DUP2 MSTORE PUSH1 0x20 ADD SWAP1 DUP2 MSTORE PUSH1 0x20 ADD PUSH1 0x0 KECCAK256 PUSH1 0x2 ADD DUP1 SLOAD PUSH2 0x1603 SWAP1 PUSH2 0x3D64 JUMP JUMPDEST DUP1 PUSH1 0x1F ADD PUSH1 0x20 DUP1 SWAP2 DIV MUL PUSH1 0x20 ADD PUSH1 0x40 MLOAD SWAP1 DUP2 ADD PUSH1 0x40 MSTORE DUP1 SWAP3 SWAP2 SWAP1 DUP2 DUP2 MSTORE PUSH1 0x20 ADD DUP3 DUP1 SLOAD PUSH2 0x162F SWAP1 PUSH2 0x3D64 JUMP JUMPDEST DUP1 ISZERO PUSH2 0x167C JUMPI DUP1 PUSH1 0x1F LT PUSH2 0x1651 JUMPI PUSH2 0x100 DUP1 DUP4 SLOAD DIV MUL DUP4 MSTORE SWAP2 PUSH1 0x20 ADD SWAP2 PUSH2 0x167C JUMP JUMPDEST DUP3 ADD SWAP2 SWAP1 PUSH1 0x0 MSTORE PUSH1 0x20 PUSH1 0x0 KECCAK256 SWAP1 JUMPDEST DUP2 SLOAD DUP2 MSTORE SWAP1 PUSH1 0x1 ADD SWAP1 PUSH1 0x20 ADD DUP1 DUP4 GT PUSH2 0x165F JUMPI DUP3 SWAP1 SUB PUSH1 0x1F AND DUP3 ADD SWAP2 JUMPDEST POP POP POP POP POP DUP4 DUP4 DUP2 MLOAD DUP2 LT PUSH2 0x1694 JUMPI PUSH2 0x1693 PUSH2 0x3E4F JUMP JUMPDEST JUMPDEST PUSH1 0x20 MUL PUSH1 0x20 ADD ADD DUP2 SWAP1 MSTORE POP JUMPDEST DUP2 DUP1 PUSH2 0x16AB SWAP1 PUSH2 0x3EAD JUMP JUMPDEST SWAP3 POP POP DUP1 DUP1 PUSH2 0x16B9 SWAP1 PUSH2 0x3EAD JUMP JUMPDEST SWAP2 POP POP PUSH2 0x1599 JUMP JUMPDEST POP DUP2 SWAP3 POP POP POP SWAP3 SWAP2 POP POP JUMP JUMPDEST PUSH1 0x60 PUSH1 0xA PUSH1 0x0 DUP4 DUP2 MSTORE PUSH1 0x20 ADD SWAP1 DUP2 MSTORE PUSH1 0x20 ADD PUSH1 0x0 KECCAK256 PUSH1 0x1 ADD DUP1 SLOAD PUSH2 0x16F0 SWAP1 PUSH2 0x3D64 JUMP JUMPDEST DUP1 PUSH1 0x1F ADD PUSH1 0x20 DUP1 SWAP2 DIV MUL PUSH1 0x20 ADD PUSH1 0x40 MLOAD SWAP1 DUP2 ADD PUSH1 0x40 MSTORE DUP1 SWAP3 SWAP2 SWAP1 DUP2 DUP2 MSTORE PUSH1 0x20 ADD DUP3 DUP1 SLOAD PUSH2 0x171C SWAP1 PUSH2 0x3D64 JUMP JUMPDEST DUP1 ISZERO PUSH2 0x1769 JUMPI DUP1 PUSH1 0x1F LT PUSH2 0x173E JUMPI PUSH2 0x100 DUP1 DUP4 SLOAD DIV MUL DUP4 MSTORE SWAP2 PUSH1 0x20 ADD SWAP2 PUSH2 0x1769 JUMP JUMPDEST DUP3 ADD SWAP2 SWAP1 PUSH1 0x0 MSTORE PUSH1 0x20 PUSH1 0x0 KECCAK256 SWAP1 JUMPDEST DUP2 SLOAD DUP2 MSTORE SWAP1 PUSH1 0x1 ADD SWAP1 PUSH1 0x20 ADD DUP1 DUP4 GT PUSH2 0x174C JUMPI DUP3 SWAP1 SUB PUSH1 0x1F AND DUP3 ADD SWAP2 JUMPDEST POP POP POP POP POP SWAP1 POP SWAP2 SWAP1 POP JUMP JUMPDEST PUSH1 0xB PUSH1 0x20 MSTORE DUP1 PUSH1 0x0 MSTORE PUSH1 0x40 PUSH1 0x0 KECCAK256 PUSH1 0x0 SWAP2 POP SWAP1 POP DUP1 SLOAD PUSH2 0x1794 SWAP1 PUSH2 0x3D64 JUMP JUMPDEST DUP1 PUSH1 0x1F ADD PUSH1 0x20 DUP1 SWAP2 DIV MUL PUSH1 0x20 ADD PUSH1 0x40 MLOAD SWAP1 DUP2 ADD PUSH1 0x40 MSTORE DUP1 SWAP3 SWAP2 SWAP1 DUP2 DUP2 MSTORE PUSH1 0x20 ADD DUP3 DUP1 SLOAD PUSH2 0x17C0 SWAP1 PUSH2 0x3D64 JUMP JUMPDEST DUP1 ISZERO PUSH2 0x180D JUMPI DUP1 PUSH1 0x1F LT PUSH2 0x17E2 JUMPI PUSH2 0x100 DUP1 DUP4 SLOAD DIV MUL DUP4 MSTORE SWAP2 PUSH1 0x20 ADD SWAP2 PUSH2 0x180D JUMP JUMPDEST DUP3 ADD SWAP2 SWAP1 PUSH1 0x0 MSTORE PUSH1 0x20 PUSH1 0x0 KECCAK256 SWAP1 JUMPDEST DUP2 SLOAD DUP2 MSTORE SWAP1 PUSH1 0x1 ADD SWAP1 PUSH1 0x20 ADD DUP1 DUP4 GT PUSH2 0x17F0 JUMPI DUP3 SWAP1 SUB PUSH1 0x1F AND DUP3 ADD SWAP2 JUMPDEST POP POP POP POP POP DUP2 JUMP JUMPDEST PUSH1 0x0 PUSH1 0x1 PUSH1 0x16 PUSH1 0x0 DUP5 DUP2 MSTORE PUSH1 0x20 ADD SWAP1 DUP2 MSTORE PUSH1 0x20 ADD PUSH1 0x0 KECCAK256 PUSH1 0x1 ADD PUSH1 0x6 PUSH2 0x100 EXP DUP2 SLOAD DUP2 PUSH1 0xFF MUL NOT AND SWAP1 DUP4 ISZERO ISZERO MUL OR SWAP1 SSTORE POP PUSH1 0x40 MLOAD DUP1 PUSH1 0x80 ADD PUSH1 0x40 MSTORE DUP1 PUSH1 0x7 SLOAD DUP2 MSTORE PUSH1 0x20 ADD DUP7 DUP2 MSTORE PUSH1 0x20 ADD DUP6 DUP2 MSTORE PUSH1 0x20 ADD DUP5 DUP2 MSTORE POP PUSH1 0x13 PUSH1 0x0 PUSH1 0x7 SLOAD DUP2 MSTORE PUSH1 0x20 ADD SWAP1 DUP2 MSTORE PUSH1 0x20 ADD PUSH1 0x0 KECCAK256 PUSH1 0x0 DUP3 ADD MLOAD DUP2 PUSH1 0x0 ADD SSTORE PUSH1 0x20 DUP3 ADD MLOAD DUP2 PUSH1 0x1 ADD SSTORE PUSH1 0x40 DUP3 ADD MLOAD DUP2 PUSH1 0x2 ADD SWAP1 DUP2 PUSH2 0x18A7 SWAP2 SWAP1 PUSH2 0x40A1 JUMP JUMPDEST POP PUSH1 0x60 DUP3 ADD MLOAD DUP2 PUSH1 0x3 ADD SWAP1 DUP2 PUSH2 0x18BD SWAP2 SWAP1 PUSH2 0x40A1 JUMP JUMPDEST POP SWAP1 POP POP PUSH1 0x7 PUSH1 0x0 DUP2 SLOAD DUP1 SWAP3 SWAP2 SWAP1 PUSH2 0x18D4 SWAP1 PUSH2 0x3EAD JUMP JUMPDEST SWAP2 SWAP1 POP SSTORE POP PUSH1 0x7 SLOAD SWAP1 POP SWAP5 SWAP4 POP POP POP POP JUMP JUMPDEST PUSH1 0x0 SLOAD DUP2 JUMP JUMPDEST PUSH1 0xD PUSH1 0x20 MSTORE DUP1 PUSH1 0x0 MSTORE PUSH1 0x40 PUSH1 0x0 KECCAK256 PUSH1 0x0 SWAP2 POP SWAP1 POP DUP1 PUSH1 0x0 ADD DUP1 SLOAD PUSH2 0x190F SWAP1 PUSH2 0x3D64 JUMP JUMPDEST DUP1 PUSH1 0x1F ADD PUSH1 0x20 DUP1 SWAP2 DIV MUL PUSH1 0x20 ADD PUSH1 0x40 MLOAD SWAP1 DUP2 ADD PUSH1 0x40 MSTORE DUP1 SWAP3 SWAP2 SWAP1 DUP2 DUP2 MSTORE PUSH1 0x20 ADD DUP3 DUP1 SLOAD PUSH2 0x193B SWAP1 PUSH2 0x3D64 JUMP JUMPDEST DUP1 ISZERO PUSH2 0x1988 JUMPI DUP1 PUSH1 0x1F LT PUSH2 0x195D JUMPI PUSH2 0x100 DUP1 DUP4 SLOAD DIV MUL DUP4 MSTORE SWAP2 PUSH1 0x20 ADD SWAP2 PUSH2 0x1988 JUMP JUMPDEST DUP3 ADD SWAP2 SWAP1 PUSH1 0x0 MSTORE PUSH1 0x20 PUSH1 0x0 KECCAK256 SWAP1 JUMPDEST DUP2 SLOAD DUP2 MSTORE SWAP1 PUSH1 0x1 ADD SWAP1 PUSH1 0x20 ADD DUP1 DUP4 GT PUSH2 0x196B JUMPI DUP3 SWAP1 SUB PUSH1 0x1F AND DUP3 ADD SWAP2 JUMPDEST POP POP POP POP POP SWAP1 DUP1 PUSH1 0x1 ADD DUP1 SLOAD PUSH2 0x199D SWAP1 PUSH2 0x3D64 JUMP JUMPDEST DUP1 PUSH1 0x1F ADD PUSH1 0x20 DUP1 SWAP2 DIV MUL PUSH1 0x20 ADD PUSH1 0x40 MLOAD SWAP1 DUP2 ADD PUSH1 0x40 MSTORE DUP1 SWAP3 SWAP2 SWAP1 DUP2 DUP2 MSTORE PUSH1 0x20 ADD DUP3 DUP1 SLOAD PUSH2 0x19C9 SWAP1 PUSH2 0x3D64 JUMP JUMPDEST DUP1 ISZERO PUSH2 0x1A16 JUMPI DUP1 PUSH1 0x1F LT PUSH2 0x19EB JUMPI PUSH2 0x100 DUP1 DUP4 SLOAD DIV MUL DUP4 MSTORE SWAP2 PUSH1 0x20 ADD SWAP2 PUSH2 0x1A16 JUMP JUMPDEST DUP3 ADD SWAP2 SWAP1 PUSH1 0x0 MSTORE PUSH1 0x20 PUSH1 0x0 KECCAK256 SWAP1 JUMPDEST DUP2 SLOAD DUP2 MSTORE SWAP1 PUSH1 0x1 ADD SWAP1 PUSH1 0x20 ADD DUP1 DUP4 GT PUSH2 0x19F9 JUMPI DUP3 SWAP1 SUB PUSH1 0x1F AND DUP3 ADD SWAP2 JUMPDEST POP POP POP POP POP SWAP1 POP DUP3 JUMP JUMPDEST PUSH1 0x10 PUSH1 0x20 MSTORE DUP1 PUSH1 0x0 MSTORE PUSH1 0x40 PUSH1 0x0 KECCAK256 PUSH1 0x0 SWAP2 POP SWAP1 POP DUP1 PUSH1 0x0 ADD SLOAD SWAP1 DUP1 PUSH1 0x1 ADD SLOAD SWAP1 DUP1 PUSH1 0x2 ADD SLOAD SWAP1 POP DUP4 JUMP JUMPDEST PUSH1 0x60 PUSH1 0x0 PUSH1 0x7 SLOAD PUSH8 0xFFFFFFFFFFFFFFFF DUP2 GT ISZERO PUSH2 0x1A6A JUMPI PUSH2 0x1A69 PUSH2 0x2F57 JUMP JUMPDEST JUMPDEST PUSH1 0x40 MLOAD SWAP1 DUP1 DUP3 MSTORE DUP1 PUSH1 0x20 MUL PUSH1 0x20 ADD DUP3 ADD PUSH1 0x40 MSTORE DUP1 ISZERO PUSH2 0x1A98 JUMPI DUP2 PUSH1 0x20 ADD PUSH1 0x20 DUP3 MUL DUP1 CALLDATASIZE DUP4 CALLDATACOPY DUP1 DUP3 ADD SWAP2 POP POP SWAP1 POP JUMPDEST POP SWAP1 POP PUSH1 0x0 DUP1 PUSH1 0x0 SWAP1 POP JUMPDEST PUSH1 0x7 SLOAD DUP2 LT ISZERO PUSH2 0x1B22 JUMPI DUP5 PUSH1 0x13 PUSH1 0x0 DUP4 DUP2 MSTORE PUSH1 0x20 ADD SWAP1 DUP2 MSTORE PUSH1 0x20 ADD PUSH1 0x0 KECCAK256 PUSH1 0x1 ADD SLOAD SUB PUSH2 0x1B0F JUMPI PUSH1 0x13 PUSH1 0x0 DUP3 DUP2 MSTORE PUSH1 0x20 ADD SWAP1 DUP2 MSTORE PUSH1 0x20 ADD PUSH1 0x0 KECCAK256 PUSH1 0x0 ADD SLOAD DUP4 DUP4 DUP2 MLOAD DUP2 LT PUSH2 0x1AF4 JUMPI PUSH2 0x1AF3 PUSH2 0x3E4F JUMP JUMPDEST JUMPDEST PUSH1 0x20 MUL PUSH1 0x20 ADD ADD DUP2 DUP2 MSTORE POP POP DUP2 DUP1 PUSH2 0x1B0B SWAP1 PUSH2 0x3EAD JUMP JUMPDEST SWAP3 POP POP JUMPDEST DUP1 DUP1 PUSH2 0x1B1A SWAP1 PUSH2 0x3EAD JUMP JUMPDEST SWAP2 POP POP PUSH2 0x1AA3 JUMP JUMPDEST POP DUP2 SWAP3 POP POP POP SWAP2 SWAP1 POP JUMP JUMPDEST PUSH1 0x60 PUSH1 0x0 PUSH1 0x9 SLOAD PUSH8 0xFFFFFFFFFFFFFFFF DUP2 GT ISZERO PUSH2 0x1B4D JUMPI PUSH2 0x1B4C PUSH2 0x2F57 JUMP JUMPDEST JUMPDEST PUSH1 0x40 MLOAD SWAP1 DUP1 DUP3 MSTORE DUP1 PUSH1 0x20 MUL PUSH1 0x20 ADD DUP3 ADD PUSH1 0x40 MSTORE DUP1 ISZERO PUSH2 0x1B7B JUMPI DUP2 PUSH1 0x20 ADD PUSH1 0x20 DUP3 MUL DUP1 CALLDATASIZE DUP4 CALLDATACOPY DUP1 DUP3 ADD SWAP2 POP POP SWAP1 POP JUMPDEST POP SWAP1 POP PUSH1 0x0 DUP1 PUSH1 0x0 SWAP1 POP JUMPDEST PUSH1 0x9 SLOAD DUP2 LT ISZERO PUSH2 0x1C05 JUMPI DUP5 PUSH1 0x15 PUSH1 0x0 DUP4 DUP2 MSTORE PUSH1 0x20 ADD SWAP1 DUP2 MSTORE PUSH1 0x20 ADD PUSH1 0x0 KECCAK256 PUSH1 0x1 ADD SLOAD SUB PUSH2 0x1BF2 JUMPI PUSH1 0x15 PUSH1 0x0 DUP3 DUP2 MSTORE PUSH1 0x20 ADD SWAP1 DUP2 MSTORE PUSH1 0x20 ADD PUSH1 0x0 KECCAK256 PUSH1 0x0 ADD SLOAD DUP4 DUP4 DUP2 MLOAD DUP2 LT PUSH2 0x1BD7 JUMPI PUSH2 0x1BD6 PUSH2 0x3E4F JUMP JUMPDEST JUMPDEST PUSH1 0x20 MUL PUSH1 0x20 ADD ADD DUP2 DUP2 MSTORE POP POP DUP2 DUP1 PUSH2 0x1BEE SWAP1 PUSH2 0x3EAD JUMP JUMPDEST SWAP3 POP POP JUMPDEST DUP1 DUP1 PUSH2 0x1BFD SWAP1 PUSH2 0x3EAD JUMP JUMPDEST SWAP2 POP POP PUSH2 0x1B86 JUMP JUMPDEST POP DUP2 SWAP3 POP POP POP SWAP2 SWAP1 POP JUMP JUMPDEST PUSH1 0x0 PUSH1 0x40 MLOAD DUP1 PUSH1 0x40 ADD PUSH1 0x40 MSTORE DUP1 DUP5 DUP2 MSTORE PUSH1 0x20 ADD DUP6 DUP2 MSTORE POP PUSH1 0xD PUSH1 0x0 PUSH1 0x2 SLOAD DUP2 MSTORE PUSH1 0x20 ADD SWAP1 DUP2 MSTORE PUSH1 0x20 ADD PUSH1 0x0 KECCAK256 PUSH1 0x0 DUP3 ADD MLOAD DUP2 PUSH1 0x0 ADD SWAP1 DUP2 PUSH2 0x1C51 SWAP2 SWAP1 PUSH2 0x40A1 JUMP JUMPDEST POP PUSH1 0x20 DUP3 ADD MLOAD DUP2 PUSH1 0x1 ADD SWAP1 DUP2 PUSH2 0x1C67 SWAP2 SWAP1 PUSH2 0x40A1 JUMP JUMPDEST POP SWAP1 POP POP PUSH1 0x1 PUSH1 0x16 PUSH1 0x0 DUP5 DUP2 MSTORE PUSH1 0x20 ADD SWAP1 DUP2 MSTORE PUSH1 0x20 ADD PUSH1 0x0 KECCAK256 PUSH1 0x1 ADD PUSH1 0x2 PUSH2 0x100 EXP DUP2 SLOAD DUP2 PUSH1 0xFF MUL NOT AND SWAP1 DUP4 ISZERO ISZERO MUL OR SWAP1 SSTORE POP PUSH1 0x2 PUSH1 0x0 DUP2 SLOAD DUP1 SWAP3 SWAP2 SWAP1 PUSH2 0x1CAD SWAP1 PUSH2 0x3EAD JUMP JUMPDEST SWAP2 SWAP1 POP SSTORE POP PUSH1 0x2 SLOAD SWAP1 POP SWAP4 SWAP3 POP POP POP JUMP JUMPDEST PUSH1 0x0 PUSH1 0x40 MLOAD DUP1 PUSH1 0x60 ADD PUSH1 0x40 MSTORE DUP1 DUP7 DUP2 MSTORE PUSH1 0x20 ADD DUP6 DUP2 MSTORE PUSH1 0x20 ADD PUSH1 0x40 MLOAD DUP1 PUSH1 0x40 ADD PUSH1 0x40 MSTORE DUP1 PUSH1 0x5 DUP2 MSTORE PUSH1 0x20 ADD PUSH32 0x46616C7365000000000000000000000000000000000000000000000000000000 DUP2 MSTORE POP DUP2 MSTORE POP PUSH1 0xA PUSH1 0x0 DUP1 SLOAD DUP2 MSTORE PUSH1 0x20 ADD SWAP1 DUP2 MSTORE PUSH1 0x20 ADD PUSH1 0x0 KECCAK256 PUSH1 0x0 DUP3 ADD MLOAD DUP2 PUSH1 0x0 ADD SWAP1 DUP2 PUSH2 0x1D39 SWAP2 SWAP1 PUSH2 0x40A1 JUMP JUMPDEST POP PUSH1 0x20 DUP3 ADD MLOAD DUP2 PUSH1 0x1 ADD SWAP1 DUP2 PUSH2 0x1D4F SWAP2 SWAP1 PUSH2 0x40A1 JUMP JUMPDEST POP PUSH1 0x40 DUP3 ADD MLOAD DUP2 PUSH1 0x2 ADD SWAP1 DUP2 PUSH2 0x1D65 SWAP2 SWAP1 PUSH2 0x40A1 JUMP JUMPDEST POP SWAP1 POP POP DUP3 PUSH1 0xB PUSH1 0x0 DUP1 SLOAD DUP2 MSTORE PUSH1 0x20 ADD SWAP1 DUP2 MSTORE PUSH1 0x20 ADD PUSH1 0x0 KECCAK256 SWAP1 DUP2 PUSH2 0x1D8A SWAP2 SWAP1 PUSH2 0x40A1 JUMP JUMPDEST POP PUSH1 0x1 PUSH1 0x16 PUSH1 0x0 DUP5 DUP2 MSTORE PUSH1 0x20 ADD SWAP1 DUP2 MSTORE PUSH1 0x20 ADD PUSH1 0x0 KECCAK256 PUSH1 0x1 ADD PUSH1 0x0 PUSH2 0x100 EXP DUP2 SLOAD DUP2 PUSH1 0xFF MUL NOT AND SWAP1 DUP4 ISZERO ISZERO MUL OR SWAP1 SSTORE POP PUSH1 0x0 DUP1 DUP2 SLOAD DUP1 SWAP3 SWAP2 SWAP1 PUSH2 0x1DCC SWAP1 PUSH2 0x3EAD JUMP JUMPDEST SWAP2 SWAP1 POP SSTORE POP PUSH1 0x0 SLOAD SWAP1 POP SWAP5 SWAP4 POP POP POP POP JUMP JUMPDEST DUP1 PUSH1 0xB PUSH1 0x0 DUP5 DUP2 MSTORE PUSH1 0x20 ADD SWAP1 DUP2 MSTORE PUSH1 0x20 ADD PUSH1 0x0 KECCAK256 SWAP1 DUP2 PUSH2 0x1DFE SWAP2 SWAP1 PUSH2 0x40A1 JUMP JUMPDEST POP POP POP JUMP JUMPDEST DUP2 PUSH1 0xA PUSH1 0x0 DUP6 DUP2 MSTORE PUSH1 0x20 ADD SWAP1 DUP2 MSTORE PUSH1 0x20 ADD PUSH1 0x0 KECCAK256 PUSH1 0x0 ADD SWAP1 DUP2 PUSH2 0x1E26 SWAP2 SWAP1 PUSH2 0x40A1 JUMP JUMPDEST POP DUP1 PUSH1 0xA PUSH1 0x0 DUP6 DUP2 MSTORE PUSH1 0x20 ADD SWAP1 DUP2 MSTORE PUSH1 0x20 ADD PUSH1 0x0 KECCAK256 PUSH1 0x1 ADD SWAP1 DUP2 PUSH2 0x1E4A SWAP2 SWAP1 PUSH2 0x40A1 JUMP JUMPDEST POP POP POP POP JUMP JUMPDEST PUSH1 0x60 PUSH1 0xE PUSH1 0x0 DUP4 DUP2 MSTORE PUSH1 0x20 ADD SWAP1 DUP2 MSTORE PUSH1 0x20 ADD PUSH1 0x0 KECCAK256 PUSH1 0x1 ADD DUP1 SLOAD PUSH2 0x1E73 SWAP1 PUSH2 0x3D64 JUMP JUMPDEST DUP1 PUSH1 0x1F ADD PUSH1 0x20 DUP1 SWAP2 DIV MUL PUSH1 0x20 ADD PUSH1 0x40 MLOAD SWAP1 DUP2 ADD PUSH1 0x40 MSTORE DUP1 SWAP3 SWAP2 SWAP1 DUP2 DUP2 MSTORE PUSH1 0x20 ADD DUP3 DUP1 SLOAD PUSH2 0x1E9F SWAP1 PUSH2 0x3D64 JUMP JUMPDEST DUP1 ISZERO PUSH2 0x1EEC JUMPI DUP1 PUSH1 0x1F LT PUSH2 0x1EC1 JUMPI PUSH2 0x100 DUP1 DUP4 SLOAD DIV MUL DUP4 MSTORE SWAP2 PUSH1 0x20 ADD SWAP2 PUSH2 0x1EEC JUMP JUMPDEST DUP3 ADD SWAP2 SWAP1 PUSH1 0x0 MSTORE PUSH1 0x20 PUSH1 0x0 KECCAK256 SWAP1 JUMPDEST DUP2 SLOAD DUP2 MSTORE SWAP1 PUSH1 0x1 ADD SWAP1 PUSH1 0x20 ADD DUP1 DUP4 GT PUSH2 0x1ECF JUMPI DUP3 SWAP1 SUB PUSH1 0x1F AND DUP3 ADD SWAP2 JUMPDEST POP POP POP POP POP SWAP1 POP SWAP2 SWAP1 POP JUMP JUMPDEST PUSH1 0x1 PUSH1 0x16 PUSH1 0x0 DUP4 DUP2 MSTORE PUSH1 0x20 ADD SWAP1 DUP2 MSTORE PUSH1 0x20 ADD PUSH1 0x0 KECCAK256 PUSH1 0x1 ADD PUSH1 0x5 PUSH2 0x100 EXP DUP2 SLOAD DUP2 PUSH1 0xFF MUL NOT AND SWAP1 DUP4 ISZERO ISZERO MUL OR SWAP1 SSTORE POP DUP2 PUSH1 0xE PUSH1 0x0 DUP6 DUP2 MSTORE PUSH1 0x20 ADD SWAP1 DUP2 MSTORE PUSH1 0x20 ADD PUSH1 0x0 KECCAK256 PUSH1 0x2 ADD PUSH1 0x0 DUP3 DUP3 SLOAD PUSH2 0x1F4D SWAP2 SWAP1 PUSH2 0x4173 JUMP JUMPDEST SWAP3 POP POP DUP2 SWAP1 SSTORE POP DUP2 PUSH1 0xF PUSH1 0x0 DUP4 DUP2 MSTORE PUSH1 0x20 ADD SWAP1 DUP2 MSTORE PUSH1 0x20 ADD PUSH1 0x0 KECCAK256 PUSH1 0x0 DUP3 DUP3 SLOAD PUSH2 0x1F77 SWAP2 SWAP1 PUSH2 0x4173 JUMP JUMPDEST SWAP3 POP POP DUP2 SWAP1 SSTORE POP PUSH1 0x40 MLOAD DUP1 PUSH1 0x60 ADD PUSH1 0x40 MSTORE DUP1 DUP5 DUP2 MSTORE PUSH1 0x20 ADD DUP3 DUP2 MSTORE PUSH1 0x20 ADD DUP4 DUP2 MSTORE POP PUSH1 0x10 PUSH1 0x0 PUSH1 0x1 SLOAD DUP2 MSTORE PUSH1 0x20 ADD SWAP1 DUP2 MSTORE PUSH1 0x20 ADD PUSH1 0x0 KECCAK256 PUSH1 0x0 DUP3 ADD MLOAD DUP2 PUSH1 0x0 ADD SSTORE PUSH1 0x20 DUP3 ADD MLOAD DUP2 PUSH1 0x1 ADD SSTORE PUSH1 0x40 DUP3 ADD MLOAD DUP2 PUSH1 0x2 ADD SSTORE SWAP1 POP POP PUSH1 0x1 PUSH1 0x0 DUP2 SLOAD DUP1 SWAP3 SWAP2 SWAP1 PUSH2 0x1FE2 SWAP1 PUSH2 0x3EAD JUMP JUMPDEST SWAP2 SWAP1 POP SSTORE POP POP POP POP JUMP JUMPDEST PUSH1 0x7 SLOAD DUP2 JUMP JUMPDEST PUSH1 0x0 PUSH1 0x40 MLOAD DUP1 PUSH1 0x80 ADD PUSH1 0x40 MSTORE DUP1 DUP7 DUP2 MSTORE PUSH1 0x20 ADD DUP6 DUP2 MSTORE PUSH1 0x20 ADD DUP5 DUP2 MSTORE PUSH1 0x20 ADD DUP4 DUP2 MSTORE POP PUSH1 0x14 PUSH1 0x0 PUSH1 0x8 SLOAD DUP2 MSTORE PUSH1 0x20 ADD SWAP1 DUP2 MSTORE PUSH1 0x20 ADD PUSH1 0x0 KECCAK256 PUSH1 0x0 DUP3 ADD MLOAD DUP2 PUSH1 0x0 ADD SSTORE PUSH1 0x20 DUP3 ADD MLOAD DUP2 PUSH1 0x1 ADD SSTORE PUSH1 0x40 DUP3 ADD MLOAD DUP2 PUSH1 0x2 ADD SSTORE PUSH1 0x60 DUP3 ADD MLOAD DUP2 PUSH1 0x3 ADD SWAP1 DUP2 PUSH2 0x205D SWAP2 SWAP1 PUSH2 0x40A1 JUMP JUMPDEST POP SWAP1 POP POP PUSH1 0x8 PUSH1 0x0 DUP2 SLOAD DUP1 SWAP3 SWAP2 SWAP1 PUSH2 0x2074 SWAP1 PUSH2 0x3EAD JUMP JUMPDEST SWAP2 SWAP1 POP SSTORE POP PUSH1 0x8 SLOAD SWAP1 POP SWAP5 SWAP4 POP POP POP POP JUMP JUMPDEST PUSH1 0x60 PUSH1 0x0 PUSH1 0x3 SLOAD PUSH8 0xFFFFFFFFFFFFFFFF DUP2 GT ISZERO PUSH2 0x20A6 JUMPI PUSH2 0x20A5 PUSH2 0x2F57 JUMP JUMPDEST JUMPDEST PUSH1 0x40 MLOAD SWAP1 DUP1 DUP3 MSTORE DUP1 PUSH1 0x20 MUL PUSH1 0x20 ADD DUP3 ADD PUSH1 0x40 MSTORE DUP1 ISZERO PUSH2 0x20D9 JUMPI DUP2 PUSH1 0x20 ADD JUMPDEST PUSH1 0x60 DUP2 MSTORE PUSH1 0x20 ADD SWAP1 PUSH1 0x1 SWAP1 SUB SWAP1 DUP2 PUSH2 0x20C4 JUMPI SWAP1 POP JUMPDEST POP SWAP1 POP PUSH1 0x0 JUMPDEST PUSH1 0x3 SLOAD DUP2 LT ISZERO PUSH2 0x21B9 JUMPI PUSH1 0xE PUSH1 0x0 DUP3 DUP2 MSTORE PUSH1 0x20 ADD SWAP1 DUP2 MSTORE PUSH1 0x20 ADD PUSH1 0x0 KECCAK256 PUSH1 0x1 ADD DUP1 SLOAD PUSH2 0x210A SWAP1 PUSH2 0x3D64 JUMP JUMPDEST DUP1 PUSH1 0x1F ADD PUSH1 0x20 DUP1 SWAP2 DIV MUL PUSH1 0x20 ADD PUSH1 0x40 MLOAD SWAP1 DUP2 ADD PUSH1 0x40 MSTORE DUP1 SWAP3 SWAP2 SWAP1 DUP2 DUP2 MSTORE PUSH1 0x20 ADD DUP3 DUP1 SLOAD PUSH2 0x2136 SWAP1 PUSH2 0x3D64 JUMP JUMPDEST DUP1 ISZERO PUSH2 0x2183 JUMPI DUP1 PUSH1 0x1F LT PUSH2 0x2158 JUMPI PUSH2 0x100 DUP1 DUP4 SLOAD DIV MUL DUP4 MSTORE SWAP2 PUSH1 0x20 ADD SWAP2 PUSH2 0x2183 JUMP JUMPDEST DUP3 ADD SWAP2 SWAP1 PUSH1 0x0 MSTORE PUSH1 0x20 PUSH1 0x0 KECCAK256 SWAP1 JUMPDEST DUP2 SLOAD DUP2 MSTORE SWAP1 PUSH1 0x1 ADD SWAP1 PUSH1 0x20 ADD DUP1 DUP4 GT PUSH2 0x2166 JUMPI DUP3 SWAP1 SUB PUSH1 0x1F AND DUP3 ADD SWAP2 JUMPDEST POP POP POP POP POP DUP3 DUP3 DUP2 MLOAD DUP2 LT PUSH2 0x219B JUMPI PUSH2 0x219A PUSH2 0x3E4F JUMP JUMPDEST JUMPDEST PUSH1 0x20 MUL PUSH1 0x20 ADD ADD DUP2 SWAP1 MSTORE POP DUP1 DUP1 PUSH2 0x21B1 SWAP1 PUSH2 0x3EAD JUMP JUMPDEST SWAP2 POP POP PUSH2 0x20DF JUMP JUMPDEST POP DUP1 SWAP2 POP POP SWAP1 JUMP JUMPDEST PUSH1 0x0 DUP1 PUSH1 0x0 SWAP1 POP JUMPDEST PUSH1 0x3 SLOAD DUP2 LT ISZERO PUSH2 0x2227 JUMPI DUP3 DUP1 MLOAD SWAP1 PUSH1 0x20 ADD KECCAK256 PUSH1 0xE PUSH1 0x0 DUP4 DUP2 MSTORE PUSH1 0x20 ADD SWAP1 DUP2 MSTORE PUSH1 0x20 ADD PUSH1 0x0 KECCAK256 PUSH1 0x1 ADD PUSH1 0x40 MLOAD PUSH2 0x21FE SWAP2 SWAP1 PUSH2 0x3E38 JUMP JUMPDEST PUSH1 0x40 MLOAD DUP1 SWAP2 SUB SWAP1 KECCAK256 SUB PUSH2 0x2214 JUMPI DUP1 SWAP2 POP POP PUSH2 0x222D JUMP JUMPDEST DUP1 DUP1 PUSH2 0x221F SWAP1 PUSH2 0x3EAD JUMP JUMPDEST SWAP2 POP POP PUSH2 0x21C9 JUMP JUMPDEST POP PUSH1 0x0 SWAP1 POP JUMPDEST SWAP2 SWAP1 POP JUMP JUMPDEST PUSH1 0x16 PUSH1 0x20 MSTORE DUP1 PUSH1 0x0 MSTORE PUSH1 0x40 PUSH1 0x0 KECCAK256 PUSH1 0x0 SWAP2 POP SWAP1 POP DUP1 PUSH1 0x0 ADD SLOAD SWAP1 DUP1 PUSH1 0x1 ADD PUSH1 0x0 SWAP1 SLOAD SWAP1 PUSH2 0x100 EXP SWAP1 DIV PUSH1 0xFF AND SWAP1 DUP1 PUSH1 0x1 ADD PUSH1 0x1 SWAP1 SLOAD SWAP1 PUSH2 0x100 EXP SWAP1 DIV PUSH1 0xFF AND SWAP1 DUP1 PUSH1 0x1 ADD PUSH1 0x2 SWAP1 SLOAD SWAP1 PUSH2 0x100 EXP SWAP1 DIV PUSH1 0xFF AND SWAP1 DUP1 PUSH1 0x1 ADD PUSH1 0x3 SWAP1 SLOAD SWAP1 PUSH2 0x100 EXP SWAP1 DIV PUSH1 0xFF AND SWAP1 DUP1 PUSH1 0x1 ADD PUSH1 0x4 SWAP1 SLOAD SWAP1 PUSH2 0x100 EXP SWAP1 DIV PUSH1 0xFF AND SWAP1 DUP1 PUSH1 0x1 ADD PUSH1 0x5 SWAP1 SLOAD SWAP1 PUSH2 0x100 EXP SWAP1 DIV PUSH1 0xFF AND SWAP1 DUP1 PUSH1 0x1 ADD PUSH1 0x6 SWAP1 SLOAD SWAP1 PUSH2 0x100 EXP SWAP1 DIV PUSH1 0xFF AND SWAP1 DUP1 PUSH1 0x1 ADD PUSH1 0x7 SWAP1 SLOAD SWAP1 PUSH2 0x100 EXP SWAP1 DIV PUSH1 0xFF AND SWAP1 POP DUP10 JUMP JUMPDEST PUSH1 0x9 SLOAD DUP2 JUMP JUMPDEST PUSH1 0x0 DUP1 PUSH1 0x0 SWAP1 POP JUMPDEST PUSH1 0x3 SLOAD DUP2 LT ISZERO PUSH2 0x236A JUMPI DUP3 DUP1 MLOAD SWAP1 PUSH1 0x20 ADD KECCAK256 PUSH1 0xE PUSH1 0x0 DUP4 DUP2 MSTORE PUSH1 0x20 ADD SWAP1 DUP2 MSTORE PUSH1 0x20 ADD PUSH1 0x0 KECCAK256 PUSH1 0x1 ADD PUSH1 0x40 MLOAD PUSH2 0x232B SWAP2 SWAP1 PUSH2 0x3E38 JUMP JUMPDEST PUSH1 0x40 MLOAD DUP1 SWAP2 SUB SWAP1 KECCAK256 SUB PUSH2 0x2357 JUMPI PUSH1 0xE PUSH1 0x0 DUP3 DUP2 MSTORE PUSH1 0x20 ADD SWAP1 DUP2 MSTORE PUSH1 0x20 ADD PUSH1 0x0 KECCAK256 PUSH1 0x0 ADD SLOAD SWAP2 POP POP PUSH2 0x2370 JUMP JUMPDEST DUP1 DUP1 PUSH2 0x2362 SWAP1 PUSH2 0x3EAD JUMP JUMPDEST SWAP2 POP POP PUSH2 0x22F6 JUMP JUMPDEST POP PUSH1 0x0 SWAP1 POP JUMPDEST SWAP2 SWAP1 POP JUMP JUMPDEST PUSH1 0x0 JUMPDEST PUSH1 0x0 SLOAD DUP2 LT ISZERO PUSH2 0x23DB JUMPI PUSH1 0xA PUSH1 0x0 DUP3 DUP2 MSTORE PUSH1 0x20 ADD SWAP1 DUP2 MSTORE PUSH1 0x20 ADD PUSH1 0x0 KECCAK256 PUSH1 0x0 DUP1 DUP3 ADD PUSH1 0x0 PUSH2 0x23A6 SWAP2 SWAP1 PUSH2 0x2ECB JUMP JUMPDEST PUSH1 0x1 DUP3 ADD PUSH1 0x0 PUSH2 0x23B6 SWAP2 SWAP1 PUSH2 0x2ECB JUMP JUMPDEST PUSH1 0x2 DUP3 ADD PUSH1 0x0 PUSH2 0x23C6 SWAP2 SWAP1 PUSH2 0x2ECB JUMP JUMPDEST POP POP DUP1 DUP1 PUSH2 0x23D3 SWAP1 PUSH2 0x3EAD JUMP JUMPDEST SWAP2 POP POP PUSH2 0x2378 JUMP JUMPDEST POP PUSH1 0x0 JUMPDEST PUSH1 0x2 SLOAD DUP2 LT ISZERO PUSH2 0x2432 JUMPI PUSH1 0xD PUSH1 0x0 DUP3 DUP2 MSTORE PUSH1 0x20 ADD SWAP1 DUP2 MSTORE PUSH1 0x20 ADD PUSH1 0x0 KECCAK256 PUSH1 0x0 DUP1 DUP3 ADD PUSH1 0x0 PUSH2 0x240D SWAP2 SWAP1 PUSH2 0x2ECB JUMP JUMPDEST PUSH1 0x1 DUP3 ADD PUSH1 0x0 PUSH2 0x241D SWAP2 SWAP1 PUSH2 0x2ECB JUMP JUMPDEST POP POP DUP1 DUP1 PUSH2 0x242A SWAP1 PUSH2 0x3EAD JUMP JUMPDEST SWAP2 POP POP PUSH2 0x23DF JUMP JUMPDEST POP PUSH1 0x0 JUMPDEST PUSH1 0x3 SLOAD DUP2 LT ISZERO PUSH2 0x2489 JUMPI PUSH1 0xE PUSH1 0x0 DUP3 DUP2 MSTORE PUSH1 0x20 ADD SWAP1 DUP2 MSTORE PUSH1 0x20 ADD PUSH1 0x0 KECCAK256 PUSH1 0x0 DUP1 DUP3 ADD PUSH1 0x0 SWAP1 SSTORE PUSH1 0x1 DUP3 ADD PUSH1 0x0 PUSH2 0x246C SWAP2 SWAP1 PUSH2 0x2ECB JUMP JUMPDEST PUSH1 0x2 DUP3 ADD PUSH1 0x0 SWAP1 SSTORE POP POP DUP1 DUP1 PUSH2 0x2481 SWAP1 PUSH2 0x3EAD JUMP JUMPDEST SWAP2 POP POP PUSH2 0x2436 JUMP JUMPDEST POP PUSH1 0x0 JUMPDEST PUSH1 0x2 SLOAD DUP2 LT ISZERO PUSH2 0x24E0 JUMPI PUSH1 0x11 PUSH1 0x0 DUP3 DUP2 MSTORE PUSH1 0x20 ADD SWAP1 DUP2 MSTORE PUSH1 0x20 ADD PUSH1 0x0 KECCAK256 PUSH1 0x0 DUP1 DUP3 ADD PUSH1 0x0 SWAP1 SSTORE PUSH1 0x1 DUP3 ADD PUSH1 0x0 SWAP1 SSTORE PUSH1 0x2 DUP3 ADD PUSH1 0x0 PUSH2 0x24CB SWAP2 SWAP1 PUSH2 0x2ECB JUMP JUMPDEST POP POP DUP1 DUP1 PUSH2 0x24D8 SWAP1 PUSH2 0x3EAD JUMP JUMPDEST SWAP2 POP POP PUSH2 0x248D JUMP JUMPDEST POP PUSH1 0x0 JUMPDEST PUSH1 0x7 SLOAD DUP2 LT ISZERO PUSH2 0x2547 JUMPI PUSH1 0x13 PUSH1 0x0 DUP3 DUP2 MSTORE PUSH1 0x20 ADD SWAP1 DUP2 MSTORE PUSH1 0x20 ADD PUSH1 0x0 KECCAK256 PUSH1 0x0 DUP1 DUP3 ADD PUSH1 0x0 SWAP1 SSTORE PUSH1 0x1 DUP3 ADD PUSH1 0x0 SWAP1 SSTORE PUSH1 0x2 DUP3 ADD PUSH1 0x0 PUSH2 0x2522 SWAP2 SWAP1 PUSH2 0x2ECB JUMP JUMPDEST PUSH1 0x3 DUP3 ADD PUSH1 0x0 PUSH2 0x2532 SWAP2 SWAP1 PUSH2 0x2ECB JUMP JUMPDEST POP POP DUP1 DUP1 PUSH2 0x253F SWAP1 PUSH2 0x3EAD JUMP JUMPDEST SWAP2 POP POP PUSH2 0x24E4 JUMP JUMPDEST POP PUSH1 0x0 JUMPDEST PUSH1 0x9 SLOAD DUP2 LT ISZERO PUSH2 0x25A6 JUMPI PUSH1 0x15 PUSH1 0x0 DUP3 DUP2 MSTORE PUSH1 0x20 ADD SWAP1 DUP2 MSTORE PUSH1 0x20 ADD PUSH1 0x0 KECCAK256 PUSH1 0x0 DUP1 DUP3 ADD PUSH1 0x0 SWAP1 SSTORE PUSH1 0x1 DUP3 ADD PUSH1 0x0 SWAP1 SSTORE PUSH1 0x2 DUP3 ADD PUSH1 0x0 SWAP1 SSTORE PUSH1 0x3 DUP3 ADD PUSH1 0x0 PUSH2 0x2591 SWAP2 SWAP1 PUSH2 0x2ECB JUMP JUMPDEST POP POP DUP1 DUP1 PUSH2 0x259E SWAP1 PUSH2 0x3EAD JUMP JUMPDEST SWAP2 POP POP PUSH2 0x254B JUMP JUMPDEST POP PUSH1 0x0 JUMPDEST PUSH1 0x6 SLOAD DUP2 LT ISZERO PUSH2 0x25FD JUMPI PUSH1 0x12 PUSH1 0x0 DUP3 DUP2 MSTORE PUSH1 0x20 ADD SWAP1 DUP2 MSTORE PUSH1 0x20 ADD PUSH1 0x0 KECCAK256 PUSH1 0x0 DUP1 DUP3 ADD PUSH1 0x0 SWAP1 SSTORE PUSH1 0x1 DUP3 ADD PUSH1 0x0 SWAP1 SSTORE PUSH1 0x2 DUP3 ADD PUSH1 0x0 PUSH2 0x25E8 SWAP2 SWAP1 PUSH2 0x2ECB JUMP JUMPDEST POP POP DUP1 DUP1 PUSH2 0x25F5 SWAP1 PUSH2 0x3EAD JUMP JUMPDEST SWAP2 POP POP PUSH2 0x25AA JUMP JUMPDEST POP PUSH1 0x0 DUP1 DUP2 SWAP1 SSTORE POP PUSH1 0x0 PUSH1 0x2 DUP2 SWAP1 SSTORE POP PUSH1 0x0 PUSH1 0x3 DUP2 SWAP1 SSTORE POP PUSH1 0x0 PUSH1 0x7 DUP2 SWAP1 SSTORE POP PUSH1 0x0 PUSH1 0x9 DUP2 SWAP1 SSTORE POP PUSH1 0x0 PUSH1 0x6 DUP2 SWAP1 SSTORE POP JUMP JUMPDEST PUSH1 0x13 PUSH1 0x20 MSTORE DUP1 PUSH1 0x0 MSTORE PUSH1 0x40 PUSH1 0x0 KECCAK256 PUSH1 0x0 SWAP2 POP SWAP1 POP DUP1 PUSH1 0x0 ADD SLOAD SWAP1 DUP1 PUSH1 0x1 ADD SLOAD SWAP1 DUP1 PUSH1 0x2 ADD DUP1 SLOAD PUSH2 0x265E SWAP1 PUSH2 0x3D64 JUMP JUMPDEST DUP1 PUSH1 0x1F ADD PUSH1 0x20 DUP1 SWAP2 DIV MUL PUSH1 0x20 ADD PUSH1 0x40 MLOAD SWAP1 DUP2 ADD PUSH1 0x40 MSTORE DUP1 SWAP3 SWAP2 SWAP1 DUP2 DUP2 MSTORE PUSH1 0x20 ADD DUP3 DUP1 SLOAD PUSH2 0x268A SWAP1 PUSH2 0x3D64 JUMP JUMPDEST DUP1 ISZERO PUSH2 0x26D7 JUMPI DUP1 PUSH1 0x1F LT PUSH2 0x26AC JUMPI PUSH2 0x100 DUP1 DUP4 SLOAD DIV MUL DUP4 MSTORE SWAP2 PUSH1 0x20 ADD SWAP2 PUSH2 0x26D7 JUMP JUMPDEST DUP3 ADD SWAP2 SWAP1 PUSH1 0x0 MSTORE PUSH1 0x20 PUSH1 0x0 KECCAK256 SWAP1 JUMPDEST DUP2 SLOAD DUP2 MSTORE SWAP1 PUSH1 0x1 ADD SWAP1 PUSH1 0x20 ADD DUP1 DUP4 GT PUSH2 0x26BA JUMPI DUP3 SWAP1 SUB PUSH1 0x1F AND DUP3 ADD SWAP2 JUMPDEST POP POP POP POP POP SWAP1 DUP1 PUSH1 0x3 ADD DUP1 SLOAD PUSH2 0x26EC SWAP1 PUSH2 0x3D64 JUMP JUMPDEST DUP1 PUSH1 0x1F ADD PUSH1 0x20 DUP1 SWAP2 DIV MUL PUSH1 0x20 ADD PUSH1 0x40 MLOAD SWAP1 DUP2 ADD PUSH1 0x40 MSTORE DUP1 SWAP3 SWAP2 SWAP1 DUP2 DUP2 MSTORE PUSH1 0x20 ADD DUP3 DUP1 SLOAD PUSH2 0x2718 SWAP1 PUSH2 0x3D64 JUMP JUMPDEST DUP1 ISZERO PUSH2 0x2765 JUMPI DUP1 PUSH1 0x1F LT PUSH2 0x273A JUMPI PUSH2 0x100 DUP1 DUP4 SLOAD DIV MUL DUP4 MSTORE SWAP2 PUSH1 0x20 ADD SWAP2 PUSH2 0x2765 JUMP JUMPDEST DUP3 ADD SWAP2 SWAP1 PUSH1 0x0 MSTORE PUSH1 0x20 PUSH1 0x0 KECCAK256 SWAP1 JUMPDEST DUP2 SLOAD DUP2 MSTORE SWAP1 PUSH1 0x1 ADD SWAP1 PUSH1 0x20 ADD DUP1 DUP4 GT PUSH2 0x2748 JUMPI DUP3 SWAP1 SUB PUSH1 0x1F AND DUP3 ADD SWAP2 JUMPDEST POP POP POP POP POP SWAP1 POP DUP5 JUMP JUMPDEST DUP1 PUSH1 0xE PUSH1 0x0 DUP5 DUP2 MSTORE PUSH1 0x20 ADD SWAP1 DUP2 MSTORE PUSH1 0x20 ADD PUSH1 0x0 KECCAK256 PUSH1 0x1 ADD SWAP1 DUP2 PUSH2 0x2792 SWAP2 SWAP1 PUSH2 0x40A1 JUMP JUMPDEST POP POP POP JUMP JUMPDEST PUSH1 0x60 PUSH1 0x0 DUP1 SLOAD PUSH8 0xFFFFFFFFFFFFFFFF DUP2 GT ISZERO PUSH2 0x27B6 JUMPI PUSH2 0x27B5 PUSH2 0x2F57 JUMP JUMPDEST JUMPDEST PUSH1 0x40 MLOAD SWAP1 DUP1 DUP3 MSTORE DUP1 PUSH1 0x20 MUL PUSH1 0x20 ADD DUP3 ADD PUSH1 0x40 MSTORE DUP1 ISZERO PUSH2 0x27E9 JUMPI DUP2 PUSH1 0x20 ADD JUMPDEST PUSH1 0x60 DUP2 MSTORE PUSH1 0x20 ADD SWAP1 PUSH1 0x1 SWAP1 SUB SWAP1 DUP2 PUSH2 0x27D4 JUMPI SWAP1 POP JUMPDEST POP SWAP1 POP PUSH1 0x0 JUMPDEST PUSH1 0x0 SLOAD DUP2 LT ISZERO PUSH2 0x28C9 JUMPI PUSH1 0xA PUSH1 0x0 DUP3 DUP2 MSTORE PUSH1 0x20 ADD SWAP1 DUP2 MSTORE PUSH1 0x20 ADD PUSH1 0x0 KECCAK256 PUSH1 0x1 ADD DUP1 SLOAD PUSH2 0x281A SWAP1 PUSH2 0x3D64 JUMP JUMPDEST DUP1 PUSH1 0x1F ADD PUSH1 0x20 DUP1 SWAP2 DIV MUL PUSH1 0x20 ADD PUSH1 0x40 MLOAD SWAP1 DUP2 ADD PUSH1 0x40 MSTORE DUP1 SWAP3 SWAP2 SWAP1 DUP2 DUP2 MSTORE PUSH1 0x20 ADD DUP3 DUP1 SLOAD PUSH2 0x2846 SWAP1 PUSH2 0x3D64 JUMP JUMPDEST DUP1 ISZERO PUSH2 0x2893 JUMPI DUP1 PUSH1 0x1F LT PUSH2 0x2868 JUMPI PUSH2 0x100 DUP1 DUP4 SLOAD DIV MUL DUP4 MSTORE SWAP2 PUSH1 0x20 ADD SWAP2 PUSH2 0x2893 JUMP JUMPDEST DUP3 ADD SWAP2 SWAP1 PUSH1 0x0 MSTORE PUSH1 0x20 PUSH1 0x0 KECCAK256 SWAP1 JUMPDEST DUP2 SLOAD DUP2 MSTORE SWAP1 PUSH1 0x1 ADD SWAP1 PUSH1 0x20 ADD DUP1 DUP4 GT PUSH2 0x2876 JUMPI DUP3 SWAP1 SUB PUSH1 0x1F AND DUP3 ADD SWAP2 JUMPDEST POP POP POP POP POP DUP3 DUP3 DUP2 MLOAD DUP2 LT PUSH2 0x28AB JUMPI PUSH2 0x28AA PUSH2 0x3E4F JUMP JUMPDEST JUMPDEST PUSH1 0x20 MUL PUSH1 0x20 ADD ADD DUP2 SWAP1 MSTORE POP DUP1 DUP1 PUSH2 0x28C1 SWAP1 PUSH2 0x3EAD JUMP JUMPDEST SWAP2 POP POP PUSH2 0x27EF JUMP JUMPDEST POP DUP1 SWAP2 POP POP SWAP1 JUMP JUMPDEST DUP1 PUSH1 0xD PUSH1 0x0 DUP5 DUP2 MSTORE PUSH1 0x20 ADD SWAP1 DUP2 MSTORE PUSH1 0x20 ADD PUSH1 0x0 KECCAK256 PUSH1 0x1 ADD SWAP1 DUP2 PUSH2 0x28F4 SWAP2 SWAP1 PUSH2 0x40A1 JUMP JUMPDEST POP POP POP JUMP JUMPDEST PUSH1 0x1 PUSH1 0x16 PUSH1 0x0 DUP4 DUP2 MSTORE PUSH1 0x20 ADD SWAP1 DUP2 MSTORE PUSH1 0x20 ADD PUSH1 0x0 KECCAK256 PUSH1 0x1 ADD PUSH1 0x1 PUSH2 0x100 EXP DUP2 SLOAD DUP2 PUSH1 0xFF MUL NOT AND SWAP1 DUP4 ISZERO ISZERO MUL OR SWAP1 SSTORE POP PUSH1 0x40 MLOAD DUP1 PUSH1 0x40 ADD PUSH1 0x40 MSTORE DUP1 DUP4 DUP2 MSTORE PUSH1 0x20 ADD DUP3 DUP2 MSTORE POP PUSH1 0xC PUSH1 0x0 PUSH1 0x4 SLOAD DUP2 MSTORE PUSH1 0x20 ADD SWAP1 DUP2 MSTORE PUSH1 0x20 ADD PUSH1 0x0 KECCAK256 PUSH1 0x0 DUP3 ADD MLOAD DUP2 PUSH1 0x0 ADD SSTORE PUSH1 0x20 DUP3 ADD MLOAD DUP2 PUSH1 0x1 ADD SSTORE SWAP1 POP POP PUSH1 0x4 PUSH1 0x0 DUP2 SLOAD DUP1 SWAP3 SWAP2 SWAP1 PUSH2 0x297C SWAP1 PUSH2 0x3EAD JUMP JUMPDEST SWAP2 SWAP1 POP SSTORE POP POP POP JUMP JUMPDEST PUSH1 0x0 DUP1 PUSH1 0x0 SWAP1 POP JUMPDEST PUSH1 0x4 SLOAD DUP2 LT ISZERO PUSH2 0x29D1 JUMPI DUP3 PUSH1 0xC PUSH1 0x0 DUP4 DUP2 MSTORE PUSH1 0x20 ADD SWAP1 DUP2 MSTORE PUSH1 0x20 ADD PUSH1 0x0 KECCAK256 PUSH1 0x1 ADD SLOAD SUB PUSH2 0x29BE JUMPI PUSH1 0x1 SWAP2 POP POP PUSH2 0x29D7 JUMP JUMPDEST DUP1 DUP1 PUSH2 0x29C9 SWAP1 PUSH2 0x3EAD JUMP JUMPDEST SWAP2 POP POP PUSH2 0x298D JUMP JUMPDEST POP PUSH1 0x0 SWAP1 POP JUMPDEST SWAP2 SWAP1 POP JUMP JUMPDEST PUSH1 0x8 SLOAD DUP2 JUMP JUMPDEST PUSH1 0x14 PUSH1 0x20 MSTORE DUP1 PUSH1 0x0 MSTORE PUSH1 0x40 PUSH1 0x0 KECCAK256 PUSH1 0x0 SWAP2 POP SWAP1 POP DUP1 PUSH1 0x0 ADD SLOAD SWAP1 DUP1 PUSH1 0x1 ADD SLOAD SWAP1 DUP1 PUSH1 0x2 ADD SLOAD SWAP1 DUP1 PUSH1 0x3 ADD DUP1 SLOAD PUSH2 0x2A17 SWAP1 PUSH2 0x3D64 JUMP JUMPDEST DUP1 PUSH1 0x1F ADD PUSH1 0x20 DUP1 SWAP2 DIV MUL PUSH1 0x20 ADD PUSH1 0x40 MLOAD SWAP1 DUP2 ADD PUSH1 0x40 MSTORE DUP1 SWAP3 SWAP2 SWAP1 DUP2 DUP2 MSTORE PUSH1 0x20 ADD DUP3 DUP1 SLOAD PUSH2 0x2A43 SWAP1 PUSH2 0x3D64 JUMP JUMPDEST DUP1 ISZERO PUSH2 0x2A90 JUMPI DUP1 PUSH1 0x1F LT PUSH2 0x2A65 JUMPI PUSH2 0x100 DUP1 DUP4 SLOAD DIV MUL DUP4 MSTORE SWAP2 PUSH1 0x20 ADD SWAP2 PUSH2 0x2A90 JUMP JUMPDEST DUP3 ADD SWAP2 SWAP1 PUSH1 0x0 MSTORE PUSH1 0x20 PUSH1 0x0 KECCAK256 SWAP1 JUMPDEST DUP2 SLOAD DUP2 MSTORE SWAP1 PUSH1 0x1 ADD SWAP1 PUSH1 0x20 ADD DUP1 DUP4 GT PUSH2 0x2A73 JUMPI DUP3 SWAP1 SUB PUSH1 0x1F AND DUP3 ADD SWAP2 JUMPDEST POP POP POP POP POP SWAP1 POP DUP5 JUMP JUMPDEST PUSH1 0x0 DUP1 PUSH1 0x0 SWAP1 POP PUSH1 0x0 JUMPDEST PUSH1 0x8 SLOAD DUP2 LT ISZERO PUSH2 0x2B20 JUMPI DUP5 PUSH1 0x14 PUSH1 0x0 DUP4 DUP2 MSTORE PUSH1 0x20 ADD SWAP1 DUP2 MSTORE PUSH1 0x20 ADD PUSH1 0x0 KECCAK256 PUSH1 0x0 ADD SLOAD EQ DUP1 ISZERO PUSH2 0x2B03 JUMPI POP PUSH1 0x14 PUSH1 0x0 DUP3 DUP2 MSTORE PUSH1 0x20 ADD SWAP1 DUP2 MSTORE PUSH1 0x20 ADD PUSH1 0x0 KECCAK256 PUSH1 0x3 ADD PUSH1 0x40 MLOAD PUSH2 0x2AF1 SWAP2 SWAP1 PUSH2 0x3E38 JUMP JUMPDEST PUSH1 0x40 MLOAD DUP1 SWAP2 SUB SWAP1 KECCAK256 DUP5 DUP1 MLOAD SWAP1 PUSH1 0x20 ADD KECCAK256 EQ JUMPDEST ISZERO PUSH2 0x2B0D JUMPI PUSH1 0x1 SWAP2 POP JUMPDEST DUP1 DUP1 PUSH2 0x2B18 SWAP1 PUSH2 0x3EAD JUMP JUMPDEST SWAP2 POP POP PUSH2 0x2AA4 JUMP JUMPDEST POP DUP1 SWAP2 POP POP SWAP3 SWAP2 POP POP JUMP JUMPDEST PUSH1 0x3 SLOAD DUP2 JUMP JUMPDEST PUSH1 0x0 PUSH1 0x40 MLOAD DUP1 PUSH1 0x60 ADD PUSH1 0x40 MSTORE DUP1 DUP6 DUP2 MSTORE PUSH1 0x20 ADD DUP7 DUP2 MSTORE PUSH1 0x20 ADD PUSH1 0x0 DUP2 MSTORE POP PUSH1 0xE PUSH1 0x0 PUSH1 0x3 SLOAD DUP2 MSTORE PUSH1 0x20 ADD SWAP1 DUP2 MSTORE PUSH1 0x20 ADD PUSH1 0x0 KECCAK256 PUSH1 0x0 DUP3 ADD MLOAD DUP2 PUSH1 0x0 ADD SSTORE PUSH1 0x20 DUP3 ADD MLOAD DUP2 PUSH1 0x1 ADD SWAP1 DUP2 PUSH2 0x2B83 SWAP2 SWAP1 PUSH2 0x40A1 JUMP JUMPDEST POP PUSH1 0x40 DUP3 ADD MLOAD DUP2 PUSH1 0x2 ADD SSTORE SWAP1 POP POP PUSH1 0x1 PUSH1 0x16 PUSH1 0x0 DUP5 DUP2 MSTORE PUSH1 0x20 ADD SWAP1 DUP2 MSTORE PUSH1 0x20 ADD PUSH1 0x0 KECCAK256 PUSH1 0x1 ADD PUSH1 0x3 PUSH2 0x100 EXP DUP2 SLOAD DUP2 PUSH1 0xFF MUL NOT AND SWAP1 DUP4 ISZERO ISZERO MUL OR SWAP1 SSTORE POP PUSH1 0x3 PUSH1 0x0 DUP2 SLOAD DUP1 SWAP3 SWAP2 SWAP1 PUSH2 0x2BD3 SWAP1 PUSH2 0x3EAD JUMP JUMPDEST SWAP2 SWAP1 POP SSTORE POP PUSH1 0x0 JUMPDEST DUP4 MLOAD DUP2 LT ISZERO PUSH2 0x2C38 JUMPI PUSH2 0x2C0D PUSH1 0x3 SLOAD PUSH1 0x5 SLOAD DUP7 DUP5 DUP2 MLOAD DUP2 LT PUSH2 0x2C00 JUMPI PUSH2 0x2BFF PUSH2 0x3E4F JUMP JUMPDEST JUMPDEST PUSH1 0x20 MUL PUSH1 0x20 ADD ADD MLOAD PUSH2 0x2E6B JUMP JUMPDEST PUSH1 0x5 PUSH1 0x0 DUP2 SLOAD DUP1 SWAP3 SWAP2 SWAP1 PUSH2 0x2C20 SWAP1 PUSH2 0x3EAD JUMP JUMPDEST SWAP2 SWAP1 POP SSTORE POP DUP1 DUP1 PUSH2 0x2C30 SWAP1 PUSH2 0x3EAD JUMP JUMPDEST SWAP2 POP POP PUSH2 0x2BDB JUMP JUMPDEST POP PUSH1 0x3 SLOAD SWAP1 POP SWAP5 SWAP4 POP POP POP POP JUMP JUMPDEST PUSH1 0x0 PUSH1 0x1 PUSH1 0x16 PUSH1 0x0 DUP5 DUP2 MSTORE PUSH1 0x20 ADD SWAP1 DUP2 MSTORE PUSH1 0x20 ADD PUSH1 0x0 KECCAK256 PUSH1 0x1 ADD PUSH1 0x7 PUSH2 0x100 EXP DUP2 SLOAD DUP2 PUSH1 0xFF MUL NOT AND SWAP1 DUP4 ISZERO ISZERO MUL OR SWAP1 SSTORE POP PUSH1 0x40 MLOAD DUP1 PUSH1 0x80 ADD PUSH1 0x40 MSTORE DUP1 PUSH1 0x9 SLOAD DUP2 MSTORE PUSH1 0x20 ADD DUP7 DUP2 MSTORE PUSH1 0x20 ADD DUP5 DUP2 MSTORE PUSH1 0x20 ADD DUP6 DUP2 MSTORE POP PUSH1 0x15 PUSH1 0x0 PUSH1 0x9 SLOAD DUP2 MSTORE PUSH1 0x20 ADD SWAP1 DUP2 MSTORE PUSH1 0x20 ADD PUSH1 0x0 KECCAK256 PUSH1 0x0 DUP3 ADD MLOAD DUP2 PUSH1 0x0 ADD SSTORE PUSH1 0x20 DUP3 ADD MLOAD DUP2 PUSH1 0x1 ADD SSTORE PUSH1 0x40 DUP3 ADD MLOAD DUP2 PUSH1 0x2 ADD SSTORE PUSH1 0x60 DUP3 ADD MLOAD DUP2 PUSH1 0x3 ADD SWAP1 DUP2 PUSH2 0x2CE2 SWAP2 SWAP1 PUSH2 0x40A1 JUMP JUMPDEST POP SWAP1 POP POP PUSH1 0x9 PUSH1 0x0 DUP2 SLOAD DUP1 SWAP3 SWAP2 SWAP1 PUSH2 0x2CF9 SWAP1 PUSH2 0x3EAD JUMP JUMPDEST SWAP2 SWAP1 POP SSTORE POP PUSH1 0x9 SLOAD SWAP1 POP SWAP5 SWAP4 POP POP POP POP JUMP JUMPDEST PUSH1 0x60 PUSH1 0xD PUSH1 0x0 DUP4 DUP2 MSTORE PUSH1 0x20 ADD SWAP1 DUP2 MSTORE PUSH1 0x20 ADD PUSH1 0x0 KECCAK256 PUSH1 0x1 ADD DUP1 SLOAD PUSH2 0x2D2E SWAP1 PUSH2 0x3D64 JUMP JUMPDEST DUP1 PUSH1 0x1F ADD PUSH1 0x20 DUP1 SWAP2 DIV MUL PUSH1 0x20 ADD PUSH1 0x40 MLOAD SWAP1 DUP2 ADD PUSH1 0x40 MSTORE DUP1 SWAP3 SWAP2 SWAP1 DUP2 DUP2 MSTORE PUSH1 0x20 ADD DUP3 DUP1 SLOAD PUSH2 0x2D5A SWAP1 PUSH2 0x3D64 JUMP JUMPDEST DUP1 ISZERO PUSH2 0x2DA7 JUMPI DUP1 PUSH1 0x1F LT PUSH2 0x2D7C JUMPI PUSH2 0x100 DUP1 DUP4 SLOAD DIV MUL DUP4 MSTORE SWAP2 PUSH1 0x20 ADD SWAP2 PUSH2 0x2DA7 JUMP JUMPDEST DUP3 ADD SWAP2 SWAP1 PUSH1 0x0 MSTORE PUSH1 0x20 PUSH1 0x0 KECCAK256 SWAP1 JUMPDEST DUP2 SLOAD DUP2 MSTORE SWAP1 PUSH1 0x1 ADD SWAP1 PUSH1 0x20 ADD DUP1 DUP4 GT PUSH2 0x2D8A JUMPI DUP3 SWAP1 SUB PUSH1 0x1F AND DUP3 ADD SWAP2 JUMPDEST POP POP POP POP POP SWAP1 POP SWAP2 SWAP1 POP JUMP JUMPDEST PUSH1 0x1 SLOAD DUP2 JUMP JUMPDEST PUSH1 0x11 PUSH1 0x20 MSTORE DUP1 PUSH1 0x0 MSTORE PUSH1 0x40 PUSH1 0x0 KECCAK256 PUSH1 0x0 SWAP2 POP SWAP1 POP DUP1 PUSH1 0x0 ADD SLOAD SWAP1 DUP1 PUSH1 0x1 ADD SLOAD SWAP1 DUP1 PUSH1 0x2 ADD DUP1 SLOAD PUSH2 0x2DE8 SWAP1 PUSH2 0x3D64 JUMP JUMPDEST DUP1 PUSH1 0x1F ADD PUSH1 0x20 DUP1 SWAP2 DIV MUL PUSH1 0x20 ADD PUSH1 0x40 MLOAD SWAP1 DUP2 ADD PUSH1 0x40 MSTORE DUP1 SWAP3 SWAP2 SWAP1 DUP2 DUP2 MSTORE PUSH1 0x20 ADD DUP3 DUP1 SLOAD PUSH2 0x2E14 SWAP1 PUSH2 0x3D64 JUMP JUMPDEST DUP1 ISZERO PUSH2 0x2E61 JUMPI DUP1 PUSH1 0x1F LT PUSH2 0x2E36 JUMPI PUSH2 0x100 DUP1 DUP4 SLOAD DIV MUL DUP4 MSTORE SWAP2 PUSH1 0x20 ADD SWAP2 PUSH2 0x2E61 JUMP JUMPDEST DUP3 ADD SWAP2 SWAP1 PUSH1 0x0 MSTORE PUSH1 0x20 PUSH1 0x0 KECCAK256 SWAP1 JUMPDEST DUP2 SLOAD DUP2 MSTORE SWAP1 PUSH1 0x1 ADD SWAP1 PUSH1 0x20 ADD DUP1 DUP4 GT PUSH2 0x2E44 JUMPI DUP3 SWAP1 SUB PUSH1 0x1F AND DUP3 ADD SWAP2 JUMPDEST POP POP POP POP POP SWAP1 POP DUP4 JUMP JUMPDEST PUSH1 0x40 MLOAD DUP1 PUSH1 0x60 ADD PUSH1 0x40 MSTORE DUP1 DUP5 DUP2 MSTORE PUSH1 0x20 ADD DUP4 DUP2 MSTORE PUSH1 0x20 ADD DUP3 DUP2 MSTORE POP PUSH1 0x11 PUSH1 0x0 DUP5 DUP2 MSTORE PUSH1 0x20 ADD SWAP1 DUP2 MSTORE PUSH1 0x20 ADD PUSH1 0x0 KECCAK256 PUSH1 0x0 DUP3 ADD MLOAD DUP2 PUSH1 0x0 ADD SSTORE PUSH1 0x20 DUP3 ADD MLOAD DUP2 PUSH1 0x1 ADD SSTORE PUSH1 0x40 DUP3 ADD MLOAD DUP2 PUSH1 0x2 ADD SWAP1 DUP2 PUSH2 0x2EC2 SWAP2 SWAP1 PUSH2 0x40A1 JUMP JUMPDEST POP SWAP1 POP POP POP POP POP JUMP JUMPDEST POP DUP1 SLOAD PUSH2 0x2ED7 SWAP1 PUSH2 0x3D64 JUMP JUMPDEST PUSH1 0x0 DUP3 SSTORE DUP1 PUSH1 0x1F LT PUSH2 0x2EE9 JUMPI POP PUSH2 0x2F08 JUMP JUMPDEST PUSH1 0x1F ADD PUSH1 0x20 SWAP1 DIV SWAP1 PUSH1 0x0 MSTORE PUSH1 0x20 PUSH1 0x0 KECCAK256 SWAP1 DUP2 ADD SWAP1 PUSH2 0x2F07 SWAP2 SWAP1 PUSH2 0x2F0B JUMP JUMPDEST JUMPDEST POP JUMP JUMPDEST JUMPDEST DUP1 DUP3 GT ISZERO PUSH2 0x2F24 JUMPI PUSH1 0x0 DUP2 PUSH1 0x0 SWAP1 SSTORE POP PUSH1 0x1 ADD PUSH2 0x2F0C JUMP JUMPDEST POP SWAP1 JUMP JUMPDEST PUSH1 0x0 PUSH1 0x40 MLOAD SWAP1 POP SWAP1 JUMP JUMPDEST PUSH1 0x0 DUP1 REVERT JUMPDEST PUSH1 0x0 DUP1 REVERT JUMPDEST PUSH1 0x0 DUP1 REVERT JUMPDEST PUSH1 0x0 DUP1 REVERT JUMPDEST PUSH1 0x0 PUSH1 0x1F NOT PUSH1 0x1F DUP4 ADD AND SWAP1 POP SWAP2 SWAP1 POP JUMP JUMPDEST PUSH32 0x4E487B7100000000000000000000000000000000000000000000000000000000 PUSH1 0x0 MSTORE PUSH1 0x41 PUSH1 0x4 MSTORE PUSH1 0x24 PUSH1 0x0 REVERT JUMPDEST PUSH2 0x2F8F DUP3 PUSH2 0x2F46 JUMP JUMPDEST DUP2 ADD DUP2 DUP2 LT PUSH8 0xFFFFFFFFFFFFFFFF DUP3 GT OR ISZERO PUSH2 0x2FAE JUMPI PUSH2 0x2FAD PUSH2 0x2F57 JUMP JUMPDEST JUMPDEST DUP1 PUSH1 0x40 MSTORE POP POP POP JUMP JUMPDEST PUSH1 0x0 PUSH2 0x2FC1 PUSH2 0x2F28 JUMP JUMPDEST SWAP1 POP PUSH2 0x2FCD DUP3 DUP3 PUSH2 0x2F86 JUMP JUMPDEST SWAP2 SWAP1 POP JUMP JUMPDEST PUSH1 0x0 PUSH8 0xFFFFFFFFFFFFFFFF DUP3 GT ISZERO PUSH2 0x2FED JUMPI PUSH2 0x2FEC PUSH2 0x2F57 JUMP JUMPDEST JUMPDEST PUSH2 0x2FF6 DUP3 PUSH2 0x2F46 JUMP JUMPDEST SWAP1 POP PUSH1 0x20 DUP2 ADD SWAP1 POP SWAP2 SWAP1 POP JUMP JUMPDEST DUP3 DUP2 DUP4 CALLDATACOPY PUSH1 0x0 DUP4 DUP4 ADD MSTORE POP POP POP JUMP JUMPDEST PUSH1 0x0 PUSH2 0x3025 PUSH2 0x3020 DUP5 PUSH2 0x2FD2 JUMP JUMPDEST PUSH2 0x2FB7 JUMP JUMPDEST SWAP1 POP DUP3 DUP2 MSTORE PUSH1 0x20 DUP2 ADD DUP5 DUP5 DUP5 ADD GT ISZERO PUSH2 0x3041 JUMPI PUSH2 0x3040 PUSH2 0x2F41 JUMP JUMPDEST JUMPDEST PUSH2 0x304C DUP5 DUP3 DUP6 PUSH2 0x3003 JUMP JUMPDEST POP SWAP4 SWAP3 POP POP POP JUMP JUMPDEST PUSH1 0x0 DUP3 PUSH1 0x1F DUP4 ADD SLT PUSH2 0x3069 JUMPI PUSH2 0x3068 PUSH2 0x2F3C JUMP JUMPDEST JUMPDEST DUP2 CALLDATALOAD PUSH2 0x3079 DUP5 DUP3 PUSH1 0x20 DUP7 ADD PUSH2 0x3012 JUMP JUMPDEST SWAP2 POP POP SWAP3 SWAP2 POP POP JUMP JUMPDEST PUSH1 0x0 PUSH1 0x20 DUP3 DUP5 SUB SLT ISZERO PUSH2 0x3098 JUMPI PUSH2 0x3097 PUSH2 0x2F32 JUMP JUMPDEST JUMPDEST PUSH1 0x0 DUP3 ADD CALLDATALOAD PUSH8 0xFFFFFFFFFFFFFFFF DUP2 GT ISZERO PUSH2 0x30B6 JUMPI PUSH2 0x30B5 PUSH2 0x2F37 JUMP JUMPDEST JUMPDEST PUSH2 0x30C2 DUP5 DUP3 DUP6 ADD PUSH2 0x3054 JUMP JUMPDEST SWAP2 POP POP SWAP3 SWAP2 POP POP JUMP JUMPDEST PUSH1 0x0 DUP2 MLOAD SWAP1 POP SWAP2 SWAP1 POP JUMP JUMPDEST PUSH1 0x0 DUP3 DUP3 MSTORE PUSH1 0x20 DUP3 ADD SWAP1 POP SWAP3 SWAP2 POP POP JUMP JUMPDEST PUSH1 0x0 DUP2 SWAP1 POP PUSH1 0x20 DUP3 ADD SWAP1 POP SWAP2 SWAP1 POP JUMP JUMPDEST PUSH1 0x0 DUP2 MLOAD SWAP1 POP SWAP2 SWAP1 POP JUMP JUMPDEST PUSH1 0x0 DUP3 DUP3 MSTORE PUSH1 0x20 DUP3 ADD SWAP1 POP SWAP3 SWAP2 POP POP JUMP JUMPDEST PUSH1 0x0 JUMPDEST DUP4 DUP2 LT ISZERO PUSH2 0x3131 JUMPI DUP1 DUP3 ADD MLOAD DUP2 DUP5 ADD MSTORE PUSH1 0x20 DUP2 ADD SWAP1 POP PUSH2 0x3116 JUMP JUMPDEST PUSH1 0x0 DUP5 DUP5 ADD MSTORE POP POP POP POP JUMP JUMPDEST PUSH1 0x0 PUSH2 0x3148 DUP3 PUSH2 0x30F7 JUMP JUMPDEST PUSH2 0x3152 DUP2 DUP6 PUSH2 0x3102 JUMP JUMPDEST SWAP4 POP PUSH2 0x3162 DUP2 DUP6 PUSH1 0x20 DUP7 ADD PUSH2 0x3113 JUMP JUMPDEST PUSH2 0x316B DUP2 PUSH2 0x2F46 JUMP JUMPDEST DUP5 ADD SWAP2 POP POP SWAP3 SWAP2 POP POP JUMP JUMPDEST PUSH1 0x0 PUSH2 0x3182 DUP4 DUP4 PUSH2 0x313D JUMP JUMPDEST SWAP1 POP SWAP3 SWAP2 POP POP JUMP JUMPDEST PUSH1 0x0 PUSH1 0x20 DUP3 ADD SWAP1 POP SWAP2 SWAP1 POP JUMP JUMPDEST PUSH1 0x0 PUSH2 0x31A2 DUP3 PUSH2 0x30CB JUMP JUMPDEST PUSH2 0x31AC DUP2 DUP6 PUSH2 0x30D6 JUMP JUMPDEST SWAP4 POP DUP4 PUSH1 0x20 DUP3 MUL DUP6 ADD PUSH2 0x31BE DUP6 PUSH2 0x30E7 JUMP JUMPDEST DUP1 PUSH1 0x0 JUMPDEST DUP6 DUP2 LT ISZERO PUSH2 0x31FA JUMPI DUP5 DUP5 SUB DUP10 MSTORE DUP2 MLOAD PUSH2 0x31DB DUP6 DUP3 PUSH2 0x3176 JUMP JUMPDEST SWAP5 POP PUSH2 0x31E6 DUP4 PUSH2 0x318A JUMP JUMPDEST SWAP3 POP PUSH1 0x20 DUP11 ADD SWAP10 POP POP PUSH1 0x1 DUP2 ADD SWAP1 POP PUSH2 0x31C2 JUMP JUMPDEST POP DUP3 SWAP8 POP DUP8 SWAP6 POP POP POP POP POP POP SWAP3 SWAP2 POP POP JUMP JUMPDEST PUSH1 0x0 PUSH1 0x20 DUP3 ADD SWAP1 POP DUP2 DUP2 SUB PUSH1 0x0 DUP4 ADD MSTORE PUSH2 0x3226 DUP2 DUP5 PUSH2 0x3197 JUMP JUMPDEST SWAP1 POP SWAP3 SWAP2 POP POP JUMP JUMPDEST PUSH1 0x0 DUP2 SWAP1 POP SWAP2 SWAP1 POP JUMP JUMPDEST PUSH2 0x3241 DUP2 PUSH2 0x322E JUMP JUMPDEST DUP3 MSTORE POP POP JUMP JUMPDEST PUSH1 0x0 PUSH1 0x20 DUP3 ADD SWAP1 POP PUSH2 0x325C PUSH1 0x0 DUP4 ADD DUP5 PUSH2 0x3238 JUMP JUMPDEST SWAP3 SWAP2 POP POP JUMP JUMPDEST PUSH2 0x326B DUP2 PUSH2 0x322E JUMP JUMPDEST DUP2 EQ PUSH2 0x3276 JUMPI PUSH1 0x0 DUP1 REVERT JUMPDEST POP JUMP JUMPDEST PUSH1 0x0 DUP2 CALLDATALOAD SWAP1 POP PUSH2 0x3288 DUP2 PUSH2 0x3262 JUMP JUMPDEST SWAP3 SWAP2 POP POP JUMP JUMPDEST PUSH1 0x0 PUSH1 0x20 DUP3 DUP5 SUB SLT ISZERO PUSH2 0x32A4 JUMPI PUSH2 0x32A3 PUSH2 0x2F32 JUMP JUMPDEST JUMPDEST PUSH1 0x0 PUSH2 0x32B2 DUP5 DUP3 DUP6 ADD PUSH2 0x3279 JUMP JUMPDEST SWAP2 POP POP SWAP3 SWAP2 POP POP JUMP JUMPDEST PUSH1 0x0 DUP1 PUSH1 0x0 DUP1 PUSH1 0x80 DUP6 DUP8 SUB SLT ISZERO PUSH2 0x32D5 JUMPI PUSH2 0x32D4 PUSH2 0x2F32 JUMP JUMPDEST JUMPDEST PUSH1 0x0 PUSH2 0x32E3 DUP8 DUP3 DUP9 ADD PUSH2 0x3279 JUMP JUMPDEST SWAP5 POP POP PUSH1 0x20 PUSH2 0x32F4 DUP8 DUP3 DUP9 ADD PUSH2 0x3279 JUMP JUMPDEST SWAP4 POP POP PUSH1 0x40 DUP6 ADD CALLDATALOAD PUSH8 0xFFFFFFFFFFFFFFFF DUP2 GT ISZERO PUSH2 0x3315 JUMPI PUSH2 0x3314 PUSH2 0x2F37 JUMP JUMPDEST JUMPDEST PUSH2 0x3321 DUP8 DUP3 DUP9 ADD PUSH2 0x3054 JUMP JUMPDEST SWAP3 POP POP PUSH1 0x60 PUSH2 0x3332 DUP8 DUP3 DUP9 ADD PUSH2 0x3279 JUMP JUMPDEST SWAP2 POP POP SWAP3 SWAP6 SWAP2 SWAP5 POP SWAP3 POP JUMP JUMPDEST PUSH1 0x0 DUP3 DUP3 MSTORE PUSH1 0x20 DUP3 ADD SWAP1 POP SWAP3 SWAP2 POP POP JUMP JUMPDEST PUSH1 0x0 PUSH2 0x335A DUP3 PUSH2 0x30F7 JUMP JUMPDEST PUSH2 0x3364 DUP2 DUP6 PUSH2 0x333E JUMP JUMPDEST SWAP4 POP PUSH2 0x3374 DUP2 DUP6 PUSH1 0x20 DUP7 ADD PUSH2 0x3113 JUMP JUMPDEST PUSH2 0x337D DUP2 PUSH2 0x2F46 JUMP JUMPDEST DUP5 ADD SWAP2 POP POP SWAP3 SWAP2 POP POP JUMP JUMPDEST PUSH1 0x0 PUSH1 0x60 DUP3 ADD SWAP1 POP PUSH2 0x339D PUSH1 0x0 DUP4 ADD DUP7 PUSH2 0x3238 JUMP JUMPDEST PUSH2 0x33AA PUSH1 0x20 DUP4 ADD DUP6 PUSH2 0x3238 JUMP JUMPDEST DUP2 DUP2 SUB PUSH1 0x40 DUP4 ADD MSTORE PUSH2 0x33BC DUP2 DUP5 PUSH2 0x334F JUMP JUMPDEST SWAP1 POP SWAP5 SWAP4 POP POP POP POP JUMP JUMPDEST PUSH1 0x0 PUSH1 0x60 DUP3 ADD SWAP1 POP DUP2 DUP2 SUB PUSH1 0x0 DUP4 ADD MSTORE PUSH2 0x33E0 DUP2 DUP7 PUSH2 0x334F JUMP JUMPDEST SWAP1 POP DUP2 DUP2 SUB PUSH1 0x20 DUP4 ADD MSTORE PUSH2 0x33F4 DUP2 DUP6 PUSH2 0x334F JUMP JUMPDEST SWAP1 POP DUP2 DUP2 SUB PUSH1 0x40 DUP4 ADD MSTORE PUSH2 0x3408 DUP2 DUP5 PUSH2 0x334F JUMP JUMPDEST SWAP1 POP SWAP5 SWAP4 POP POP POP POP JUMP JUMPDEST PUSH1 0x0 PUSH1 0x40 DUP3 ADD SWAP1 POP PUSH2 0x3427 PUSH1 0x0 DUP4 ADD DUP6 PUSH2 0x3238 JUMP JUMPDEST PUSH2 0x3434 PUSH1 0x20 DUP4 ADD DUP5 PUSH2 0x3238 JUMP JUMPDEST SWAP4 SWAP3 POP POP POP JUMP JUMPDEST PUSH1 0x0 PUSH1 0x80 DUP3 ADD SWAP1 POP PUSH2 0x3450 PUSH1 0x0 DUP4 ADD DUP8 PUSH2 0x3238 JUMP JUMPDEST PUSH2 0x345D PUSH1 0x20 DUP4 ADD DUP7 PUSH2 0x3238 JUMP JUMPDEST PUSH2 0x346A PUSH1 0x40 DUP4 ADD DUP6 PUSH2 0x3238 JUMP JUMPDEST DUP2 DUP2 SUB PUSH1 0x60 DUP4 ADD MSTORE PUSH2 0x347C DUP2 DUP5 PUSH2 0x334F JUMP JUMPDEST SWAP1 POP SWAP6 SWAP5 POP POP POP POP POP JUMP JUMPDEST PUSH1 0x0 PUSH1 0x60 DUP3 ADD SWAP1 POP PUSH2 0x349C PUSH1 0x0 DUP4 ADD DUP7 PUSH2 0x3238 JUMP JUMPDEST DUP2 DUP2 SUB PUSH1 0x20 DUP4 ADD MSTORE PUSH2 0x34AE DUP2 DUP6 PUSH2 0x334F JUMP JUMPDEST SWAP1 POP PUSH2 0x34BD PUSH1 0x40 DUP4 ADD DUP5 PUSH2 0x3238 JUMP JUMPDEST SWAP5 SWAP4 POP POP POP POP JUMP JUMPDEST PUSH1 0x0 DUP1 PUSH1 0x40 DUP4 DUP6 SUB SLT ISZERO PUSH2 0x34DC JUMPI PUSH2 0x34DB PUSH2 0x2F32 JUMP JUMPDEST JUMPDEST PUSH1 0x0 PUSH2 0x34EA DUP6 DUP3 DUP7 ADD PUSH2 0x3279 JUMP JUMPDEST SWAP3 POP POP PUSH1 0x20 PUSH2 0x34FB DUP6 DUP3 DUP7 ADD PUSH2 0x3279 JUMP JUMPDEST SWAP2 POP POP SWAP3 POP SWAP3 SWAP1 POP JUMP JUMPDEST PUSH1 0x0 PUSH1 0x20 DUP3 ADD SWAP1 POP DUP2 DUP2 SUB PUSH1 0x0 DUP4 ADD MSTORE PUSH2 0x351F DUP2 DUP5 PUSH2 0x334F JUMP JUMPDEST SWAP1 POP SWAP3 SWAP2 POP POP JUMP JUMPDEST PUSH1 0x0 DUP1 PUSH1 0x0 DUP1 PUSH1 0x80 DUP6 DUP8 SUB SLT ISZERO PUSH2 0x3541 JUMPI PUSH2 0x3540 PUSH2 0x2F32 JUMP JUMPDEST JUMPDEST PUSH1 0x0 PUSH2 0x354F DUP8 DUP3 DUP9 ADD PUSH2 0x3279 JUMP JUMPDEST SWAP5 POP POP PUSH1 0x20 DUP6 ADD CALLDATALOAD PUSH8 0xFFFFFFFFFFFFFFFF DUP2 GT ISZERO PUSH2 0x3570 JUMPI PUSH2 0x356F PUSH2 0x2F37 JUMP JUMPDEST JUMPDEST PUSH2 0x357C DUP8 DUP3 DUP9 ADD PUSH2 0x3054 JUMP JUMPDEST SWAP4 POP POP PUSH1 0x40 DUP6 ADD CALLDATALOAD PUSH8 0xFFFFFFFFFFFFFFFF DUP2 GT ISZERO PUSH2 0x359D JUMPI PUSH2 0x359C PUSH2 0x2F37 JUMP JUMPDEST JUMPDEST PUSH2 0x35A9 DUP8 DUP3 DUP9 ADD PUSH2 0x3054 JUMP JUMPDEST SWAP3 POP POP PUSH1 0x60 PUSH2 0x35BA DUP8 DUP3 DUP9 ADD PUSH2 0x3279 JUMP JUMPDEST SWAP2 POP POP SWAP3 SWAP6 SWAP2 SWAP5 POP SWAP3 POP JUMP JUMPDEST PUSH1 0x0 PUSH1 0x40 DUP3 ADD SWAP1 POP DUP2 DUP2 SUB PUSH1 0x0 DUP4 ADD MSTORE PUSH2 0x35E0 DUP2 DUP6 PUSH2 0x334F JUMP JUMPDEST SWAP1 POP DUP2 DUP2 SUB PUSH1 0x20 DUP4 ADD MSTORE PUSH2 0x35F4 DUP2 DUP5 PUSH2 0x334F JUMP JUMPDEST SWAP1 POP SWAP4 SWAP3 POP POP POP JUMP JUMPDEST PUSH1 0x0 PUSH1 0x60 DUP3 ADD SWAP1 POP PUSH2 0x3612 PUSH1 0x0 DUP4 ADD DUP7 PUSH2 0x3238 JUMP JUMPDEST PUSH2 0x361F PUSH1 0x20 DUP4 ADD DUP6 PUSH2 0x3238 JUMP JUMPDEST PUSH2 0x362C PUSH1 0x40 DUP4 ADD DUP5 PUSH2 0x3238 JUMP JUMPDEST SWAP5 SWAP4 POP POP POP POP JUMP JUMPDEST PUSH1 0x0 DUP2 MLOAD SWAP1 POP SWAP2 SWAP1 POP JUMP JUMPDEST PUSH1 0x0 DUP3 DUP3 MSTORE PUSH1 0x20 DUP3 ADD SWAP1 POP SWAP3 SWAP2 POP POP JUMP JUMPDEST PUSH1 0x0 DUP2 SWAP1 POP PUSH1 0x20 DUP3 ADD SWAP1 POP SWAP2 SWAP1 POP JUMP JUMPDEST PUSH2 0x3669 DUP2 PUSH2 0x322E JUMP JUMPDEST DUP3 MSTORE POP POP JUMP JUMPDEST PUSH1 0x0 PUSH2 0x367B DUP4 DUP4 PUSH2 0x3660 JUMP JUMPDEST PUSH1 0x20 DUP4 ADD SWAP1 POP SWAP3 SWAP2 POP POP JUMP JUMPDEST PUSH1 0x0 PUSH1 0x20 DUP3 ADD SWAP1 POP SWAP2 SWAP1 POP JUMP JUMPDEST PUSH1 0x0 PUSH2 0x369F DUP3 PUSH2 0x3634 JUMP JUMPDEST PUSH2 0x36A9 DUP2 DUP6 PUSH2 0x363F JUMP JUMPDEST SWAP4 POP PUSH2 0x36B4 DUP4 PUSH2 0x3650 JUMP JUMPDEST DUP1 PUSH1 0x0 JUMPDEST DUP4 DUP2 LT ISZERO PUSH2 0x36E5 JUMPI DUP2 MLOAD PUSH2 0x36CC DUP9 DUP3 PUSH2 0x366F JUMP JUMPDEST SWAP8 POP PUSH2 0x36D7 DUP4 PUSH2 0x3687 JUMP JUMPDEST SWAP3 POP POP PUSH1 0x1 DUP2 ADD SWAP1 POP PUSH2 0x36B8 JUMP JUMPDEST POP DUP6 SWAP4 POP POP POP POP SWAP3 SWAP2 POP POP JUMP JUMPDEST PUSH1 0x0 PUSH1 0x20 DUP3 ADD SWAP1 POP DUP2 DUP2 SUB PUSH1 0x0 DUP4 ADD MSTORE PUSH2 0x370C DUP2 DUP5 PUSH2 0x3694 JUMP JUMPDEST SWAP1 POP SWAP3 SWAP2 POP POP JUMP JUMPDEST PUSH1 0x0 DUP1 PUSH1 0x0 PUSH1 0x60 DUP5 DUP7 SUB SLT ISZERO PUSH2 0x372D JUMPI PUSH2 0x372C PUSH2 0x2F32 JUMP JUMPDEST JUMPDEST PUSH1 0x0 DUP5 ADD CALLDATALOAD PUSH8 0xFFFFFFFFFFFFFFFF DUP2 GT ISZERO PUSH2 0x374B JUMPI PUSH2 0x374A PUSH2 0x2F37 JUMP JUMPDEST JUMPDEST PUSH2 0x3757 DUP7 DUP3 DUP8 ADD PUSH2 0x3054 JUMP JUMPDEST SWAP4 POP POP PUSH1 0x20 DUP5 ADD CALLDATALOAD PUSH8 0xFFFFFFFFFFFFFFFF DUP2 GT ISZERO PUSH2 0x3778 JUMPI PUSH2 0x3777 PUSH2 0x2F37 JUMP JUMPDEST JUMPDEST PUSH2 0x3784 DUP7 DUP3 DUP8 ADD PUSH2 0x3054 JUMP JUMPDEST SWAP3 POP POP PUSH1 0x40 PUSH2 0x3795 DUP7 DUP3 DUP8 ADD PUSH2 0x3279 JUMP JUMPDEST SWAP2 POP POP SWAP3 POP SWAP3 POP SWAP3 JUMP JUMPDEST PUSH1 0x0 DUP1 PUSH1 0x0 DUP1 PUSH1 0x80 DUP6 DUP8 SUB SLT ISZERO PUSH2 0x37B9 JUMPI PUSH2 0x37B8 PUSH2 0x2F32 JUMP JUMPDEST JUMPDEST PUSH1 0x0 DUP6 ADD CALLDATALOAD PUSH8 0xFFFFFFFFFFFFFFFF DUP2 GT ISZERO PUSH2 0x37D7 JUMPI PUSH2 0x37D6 PUSH2 0x2F37 JUMP JUMPDEST JUMPDEST PUSH2 0x37E3 DUP8 DUP3 DUP9 ADD PUSH2 0x3054 JUMP JUMPDEST SWAP5 POP POP PUSH1 0x20 DUP6 ADD CALLDATALOAD PUSH8 0xFFFFFFFFFFFFFFFF DUP2 GT ISZERO PUSH2 0x3804 JUMPI PUSH2 0x3803 PUSH2 0x2F37 JUMP JUMPDEST JUMPDEST PUSH2 0x3810 DUP8 DUP3 DUP9 ADD PUSH2 0x3054 JUMP JUMPDEST SWAP4 POP POP PUSH1 0x40 DUP6 ADD CALLDATALOAD PUSH8 0xFFFFFFFFFFFFFFFF DUP2 GT ISZERO PUSH2 0x3831 JUMPI PUSH2 0x3830 PUSH2 0x2F37 JUMP JUMPDEST JUMPDEST PUSH2 0x383D DUP8 DUP3 DUP9 ADD PUSH2 0x3054 JUMP JUMPDEST SWAP3 POP POP PUSH1 0x60 PUSH2 0x384E DUP8 DUP3 DUP9 ADD PUSH2 0x3279 JUMP JUMPDEST SWAP2 POP POP SWAP3 SWAP6 SWAP2 SWAP5 POP SWAP3 POP JUMP JUMPDEST PUSH1 0x0 DUP1 PUSH1 0x40 DUP4 DUP6 SUB SLT ISZERO PUSH2 0x3871 JUMPI PUSH2 0x3870 PUSH2 0x2F32 JUMP JUMPDEST JUMPDEST PUSH1 0x0 PUSH2 0x387F DUP6 DUP3 DUP7 ADD PUSH2 0x3279 JUMP JUMPDEST SWAP3 POP POP PUSH1 0x20 DUP4 ADD CALLDATALOAD PUSH8 0xFFFFFFFFFFFFFFFF DUP2 GT ISZERO PUSH2 0x38A0 JUMPI PUSH2 0x389F PUSH2 0x2F37 JUMP JUMPDEST JUMPDEST PUSH2 0x38AC DUP6 DUP3 DUP7 ADD PUSH2 0x3054 JUMP JUMPDEST SWAP2 POP POP SWAP3 POP SWAP3 SWAP1 POP JUMP JUMPDEST PUSH1 0x0 DUP1 PUSH1 0x0 PUSH1 0x60 DUP5 DUP7 SUB SLT ISZERO PUSH2 0x38CF JUMPI PUSH2 0x38CE PUSH2 0x2F32 JUMP JUMPDEST JUMPDEST PUSH1 0x0 PUSH2 0x38DD DUP7 DUP3 DUP8 ADD PUSH2 0x3279 JUMP JUMPDEST SWAP4 POP POP PUSH1 0x20 DUP5 ADD CALLDATALOAD PUSH8 0xFFFFFFFFFFFFFFFF DUP2 GT ISZERO PUSH2 0x38FE JUMPI PUSH2 0x38FD PUSH2 0x2F37 JUMP JUMPDEST JUMPDEST PUSH2 0x390A DUP7 DUP3 DUP8 ADD PUSH2 0x3054 JUMP JUMPDEST SWAP3 POP POP PUSH1 0x40 DUP5 ADD CALLDATALOAD PUSH8 0xFFFFFFFFFFFFFFFF DUP2 GT ISZERO PUSH2 0x392B JUMPI PUSH2 0x392A PUSH2 0x2F37 JUMP JUMPDEST JUMPDEST PUSH2 0x3937 DUP7 DUP3 DUP8 ADD PUSH2 0x3054 JUMP JUMPDEST SWAP2 POP POP SWAP3 POP SWAP3 POP SWAP3 JUMP JUMPDEST PUSH1 0x0 DUP1 PUSH1 0x0 PUSH1 0x60 DUP5 DUP7 SUB SLT ISZERO PUSH2 0x395A JUMPI PUSH2 0x3959 PUSH2 0x2F32 JUMP JUMPDEST JUMPDEST PUSH1 0x0 PUSH2 0x3968 DUP7 DUP3 DUP8 ADD PUSH2 0x3279 JUMP JUMPDEST SWAP4 POP POP PUSH1 0x20 PUSH2 0x3979 DUP7 DUP3 DUP8 ADD PUSH2 0x3279 JUMP JUMPDEST SWAP3 POP POP PUSH1 0x40 PUSH2 0x398A DUP7 DUP3 DUP8 ADD PUSH2 0x3279 JUMP JUMPDEST SWAP2 POP POP SWAP3 POP SWAP3 POP SWAP3 JUMP JUMPDEST PUSH1 0x0 DUP1 PUSH1 0x0 DUP1 PUSH1 0x80 DUP6 DUP8 SUB SLT ISZERO PUSH2 0x39AE JUMPI PUSH2 0x39AD PUSH2 0x2F32 JUMP JUMPDEST JUMPDEST PUSH1 0x0 PUSH2 0x39BC DUP8 DUP3 DUP9 ADD PUSH2 0x3279 JUMP JUMPDEST SWAP5 POP POP PUSH1 0x20 PUSH2 0x39CD DUP8 DUP3 DUP9 ADD PUSH2 0x3279 JUMP JUMPDEST SWAP4 POP POP PUSH1 0x40 PUSH2 0x39DE DUP8 DUP3 DUP9 ADD PUSH2 0x3279 JUMP JUMPDEST SWAP3 POP POP PUSH1 0x60 DUP6 ADD CALLDATALOAD PUSH8 0xFFFFFFFFFFFFFFFF DUP2 GT ISZERO PUSH2 0x39FF JUMPI PUSH2 0x39FE PUSH2 0x2F37 JUMP JUMPDEST JUMPDEST PUSH2 0x3A0B DUP8 DUP3 DUP9 ADD PUSH2 0x3054 JUMP JUMPDEST SWAP2 POP POP SWAP3 SWAP6 SWAP2 SWAP5 POP SWAP3 POP JUMP JUMPDEST PUSH1 0x0 DUP2 ISZERO ISZERO SWAP1 POP SWAP2 SWAP1 POP JUMP JUMPDEST PUSH2 0x3A2C DUP2 PUSH2 0x3A17 JUMP JUMPDEST DUP3 MSTORE POP POP JUMP JUMPDEST PUSH1 0x0 PUSH2 0x120 DUP3 ADD SWAP1 POP PUSH2 0x3A48 PUSH1 0x0 DUP4 ADD DUP13 PUSH2 0x3238 JUMP JUMPDEST PUSH2 0x3A55 PUSH1 0x20 DUP4 ADD DUP12 PUSH2 0x3A23 JUMP JUMPDEST PUSH2 0x3A62 PUSH1 0x40 DUP4 ADD DUP11 PUSH2 0x3A23 JUMP JUMPDEST PUSH2 0x3A6F PUSH1 0x60 DUP4 ADD DUP10 PUSH2 0x3A23 JUMP JUMPDEST PUSH2 0x3A7C PUSH1 0x80 DUP4 ADD DUP9 PUSH2 0x3A23 JUMP JUMPDEST PUSH2 0x3A89 PUSH1 0xA0 DUP4 ADD DUP8 PUSH2 0x3A23 JUMP JUMPDEST PUSH2 0x3A96 PUSH1 0xC0 DUP4 ADD DUP7 PUSH2 0x3A23 JUMP JUMPDEST PUSH2 0x3AA3 PUSH1 0xE0 DUP4 ADD DUP6 PUSH2 0x3A23 JUMP JUMPDEST PUSH2 0x3AB1 PUSH2 0x100 DUP4 ADD DUP5 PUSH2 0x3A23 JUMP JUMPDEST SWAP11 SWAP10 POP POP POP POP POP POP POP POP POP POP JUMP JUMPDEST PUSH1 0x0 PUSH1 0x80 DUP3 ADD SWAP1 POP PUSH2 0x3AD4 PUSH1 0x0 DUP4 ADD DUP8 PUSH2 0x3238 JUMP JUMPDEST PUSH2 0x3AE1 PUSH1 0x20 DUP4 ADD DUP7 PUSH2 0x3238 JUMP JUMPDEST DUP2 DUP2 SUB PUSH1 0x40 DUP4 ADD MSTORE PUSH2 0x3AF3 DUP2 DUP6 PUSH2 0x334F JUMP JUMPDEST SWAP1 POP DUP2 DUP2 SUB PUSH1 0x60 DUP4 ADD MSTORE PUSH2 0x3B07 DUP2 DUP5 PUSH2 0x334F JUMP JUMPDEST SWAP1 POP SWAP6 SWAP5 POP POP POP POP POP JUMP JUMPDEST PUSH1 0x0 PUSH1 0x20 DUP3 ADD SWAP1 POP PUSH2 0x3B27 PUSH1 0x0 DUP4 ADD DUP5 PUSH2 0x3A23 JUMP JUMPDEST SWAP3 SWAP2 POP POP JUMP JUMPDEST PUSH1 0x0 PUSH8 0xFFFFFFFFFFFFFFFF DUP3 GT ISZERO PUSH2 0x3B48 JUMPI PUSH2 0x3B47 PUSH2 0x2F57 JUMP JUMPDEST JUMPDEST PUSH1 0x20 DUP3 MUL SWAP1 POP PUSH1 0x20 DUP2 ADD SWAP1 POP SWAP2 SWAP1 POP JUMP JUMPDEST PUSH1 0x0 DUP1 REVERT JUMPDEST PUSH1 0x0 PUSH2 0x3B71 PUSH2 0x3B6C DUP5 PUSH2 0x3B2D JUMP JUMPDEST PUSH2 0x2FB7 JUMP JUMPDEST SWAP1 POP DUP1 DUP4 DUP3 MSTORE PUSH1 0x20 DUP3 ADD SWAP1 POP PUSH1 0x20 DUP5 MUL DUP4 ADD DUP6 DUP2 GT ISZERO PUSH2 0x3B94 JUMPI PUSH2 0x3B93 PUSH2 0x3B59 JUMP JUMPDEST JUMPDEST DUP4 JUMPDEST DUP2 DUP2 LT ISZERO PUSH2 0x3BDB JUMPI DUP1 CALLDATALOAD PUSH8 0xFFFFFFFFFFFFFFFF DUP2 GT ISZERO PUSH2 0x3BB9 JUMPI PUSH2 0x3BB8 PUSH2 0x2F3C JUMP JUMPDEST JUMPDEST DUP1 DUP7 ADD PUSH2 0x3BC6 DUP10 DUP3 PUSH2 0x3054 JUMP JUMPDEST DUP6 MSTORE PUSH1 0x20 DUP6 ADD SWAP5 POP POP POP PUSH1 0x20 DUP2 ADD SWAP1 POP PUSH2 0x3B96 JUMP JUMPDEST POP POP POP SWAP4 SWAP3 POP POP POP JUMP JUMPDEST PUSH1 0x0 DUP3 PUSH1 0x1F DUP4 ADD SLT PUSH2 0x3BFA JUMPI PUSH2 0x3BF9 PUSH2 0x2F3C JUMP JUMPDEST JUMPDEST DUP2 CALLDATALOAD PUSH2 0x3C0A DUP5 DUP3 PUSH1 0x20 DUP7 ADD PUSH2 0x3B5E JUMP JUMPDEST SWAP2 POP POP SWAP3 SWAP2 POP POP JUMP JUMPDEST PUSH1 0x0 DUP1 PUSH1 0x0 DUP1 PUSH1 0x80 DUP6 DUP8 SUB SLT ISZERO PUSH2 0x3C2D JUMPI PUSH2 0x3C2C PUSH2 0x2F32 JUMP JUMPDEST JUMPDEST PUSH1 0x0 DUP6 ADD CALLDATALOAD PUSH8 0xFFFFFFFFFFFFFFFF DUP2 GT ISZERO PUSH2 0x3C4B JUMPI PUSH2 0x3C4A PUSH2 0x2F37 JUMP JUMPDEST JUMPDEST PUSH2 0x3C57 DUP8 DUP3 DUP9 ADD PUSH2 0x3054 JUMP JUMPDEST SWAP5 POP POP PUSH1 0x20 PUSH2 0x3C68 DUP8 DUP3 DUP9 ADD PUSH2 0x3279 JUMP JUMPDEST SWAP4 POP POP PUSH1 0x40 DUP6 ADD CALLDATALOAD PUSH8 0xFFFFFFFFFFFFFFFF DUP2 GT ISZERO PUSH2 0x3C89 JUMPI PUSH2 0x3C88 PUSH2 0x2F37 JUMP JUMPDEST JUMPDEST PUSH2 0x3C95 DUP8 DUP3 DUP9 ADD PUSH2 0x3BE5 JUMP JUMPDEST SWAP3 POP POP PUSH1 0x60 PUSH2 0x3CA6 DUP8 DUP3 DUP9 ADD PUSH2 0x3279 JUMP JUMPDEST SWAP2 POP POP SWAP3 SWAP6 SWAP2 SWAP5 POP SWAP3 POP JUMP JUMPDEST PUSH1 0x0 DUP1 PUSH1 0x0 DUP1 PUSH1 0x80 DUP6 DUP8 SUB SLT ISZERO PUSH2 0x3CCC JUMPI PUSH2 0x3CCB PUSH2 0x2F32 JUMP JUMPDEST JUMPDEST PUSH1 0x0 PUSH2 0x3CDA DUP8 DUP3 DUP9 ADD PUSH2 0x3279 JUMP JUMPDEST SWAP5 POP POP PUSH1 0x20 DUP6 ADD CALLDATALOAD PUSH8 0xFFFFFFFFFFFFFFFF DUP2 GT ISZERO PUSH2 0x3CFB JUMPI PUSH2 0x3CFA PUSH2 0x2F37 JUMP JUMPDEST JUMPDEST PUSH2 0x3D07 DUP8 DUP3 DUP9 ADD PUSH2 0x3054 JUMP JUMPDEST SWAP4 POP POP PUSH1 0x40 PUSH2 0x3D18 DUP8 DUP3 DUP9 ADD PUSH2 0x3279 JUMP JUMPDEST SWAP3 POP POP PUSH1 0x60 PUSH2 0x3D29 DUP8 DUP3 DUP9 ADD PUSH2 0x3279 JUMP JUMPDEST SWAP2 POP POP SWAP3 SWAP6 SWAP2 SWAP5 POP SWAP3 POP JUMP JUMPDEST PUSH32 0x4E487B7100000000000000000000000000000000000000000000000000000000 PUSH1 0x0 MSTORE PUSH1 0x22 PUSH1 0x4 MSTORE PUSH1 0x24 PUSH1 0x0 REVERT JUMPDEST PUSH1 0x0 PUSH1 0x2 DUP3 DIV SWAP1 POP PUSH1 0x1 DUP3 AND DUP1 PUSH2 0x3D7C JUMPI PUSH1 0x7F DUP3 AND SWAP2 POP JUMPDEST PUSH1 0x20 DUP3 LT DUP2 SUB PUSH2 0x3D8F JUMPI PUSH2 0x3D8E PUSH2 0x3D35 JUMP JUMPDEST JUMPDEST POP SWAP2 SWAP1 POP JUMP JUMPDEST PUSH1 0x0 DUP2 SWAP1 POP SWAP3 SWAP2 POP POP JUMP JUMPDEST PUSH1 0x0 DUP2 SWAP1 POP DUP2 PUSH1 0x0 MSTORE PUSH1 0x20 PUSH1 0x0 KECCAK256 SWAP1 POP SWAP2 SWAP1 POP JUMP JUMPDEST PUSH1 0x0 DUP2 SLOAD PUSH2 0x3DC2 DUP2 PUSH2 0x3D64 JUMP JUMPDEST PUSH2 0x3DCC DUP2 DUP7 PUSH2 0x3D95 JUMP JUMPDEST SWAP5 POP PUSH1 0x1 DUP3 AND PUSH1 0x0 DUP2 EQ PUSH2 0x3DE7 JUMPI PUSH1 0x1 DUP2 EQ PUSH2 0x3DFC JUMPI PUSH2 0x3E2F JUMP JUMPDEST PUSH1 0xFF NOT DUP4 AND DUP7 MSTORE DUP2 ISZERO ISZERO DUP3 MUL DUP7 ADD SWAP4 POP PUSH2 0x3E2F JUMP JUMPDEST PUSH2 0x3E05 DUP6 PUSH2 0x3DA0 JUMP JUMPDEST PUSH1 0x0 JUMPDEST DUP4 DUP2 LT ISZERO PUSH2 0x3E27 JUMPI DUP2 SLOAD DUP2 DUP10 ADD MSTORE PUSH1 0x1 DUP3 ADD SWAP2 POP PUSH1 0x20 DUP2 ADD SWAP1 POP PUSH2 0x3E08 JUMP JUMPDEST DUP4 DUP9 ADD SWAP6 POP POP POP JUMPDEST POP POP POP SWAP3 SWAP2 POP POP JUMP JUMPDEST PUSH1 0x0 PUSH2 0x3E44 DUP3 DUP5 PUSH2 0x3DB5 JUMP JUMPDEST SWAP2 POP DUP2 SWAP1 POP SWAP3 SWAP2 POP POP JUMP JUMPDEST PUSH32 0x4E487B7100000000000000000000000000000000000000000000000000000000 PUSH1 0x0 MSTORE PUSH1 0x32 PUSH1 0x4 MSTORE PUSH1 0x24 PUSH1 0x0 REVERT JUMPDEST PUSH32 0x4E487B7100000000000000000000000000000000000000000000000000000000 PUSH1 0x0 MSTORE PUSH1 0x11 PUSH1 0x4 MSTORE PUSH1 0x24 PUSH1 0x0 REVERT JUMPDEST PUSH1 0x0 PUSH2 0x3EB8 DUP3 PUSH2 0x322E JUMP JUMPDEST SWAP2 POP PUSH32 0xFFFFFFFFFFFFFFFFFFFFFFFFFFFFFFFFFFFFFFFFFFFFFFFFFFFFFFFFFFFFFFFF DUP3 SUB PUSH2 0x3EEA JUMPI PUSH2 0x3EE9 PUSH2 0x3E7E JUMP JUMPDEST JUMPDEST PUSH1 0x1 DUP3 ADD SWAP1 POP SWAP2 SWAP1 POP JUMP JUMPDEST PUSH1 0x0 DUP2 SWAP1 POP DUP2 PUSH1 0x0 MSTORE PUSH1 0x20 PUSH1 0x0 KECCAK256 SWAP1 POP SWAP2 SWAP1 POP JUMP JUMPDEST PUSH1 0x0 PUSH1 0x20 PUSH1 0x1F DUP4 ADD DIV SWAP1 POP SWAP2 SWAP1 POP JUMP JUMPDEST PUSH1 0x0 DUP3 DUP3 SHL SWAP1 POP SWAP3 SWAP2 POP POP JUMP JUMPDEST PUSH1 0x0 PUSH1 0x8 DUP4 MUL PUSH2 0x3F57 PUSH32 0xFFFFFFFFFFFFFFFFFFFFFFFFFFFFFFFFFFFFFFFFFFFFFFFFFFFFFFFFFFFFFFFF DUP3 PUSH2 0x3F1A JUMP JUMPDEST PUSH2 0x3F61 DUP7 DUP4 PUSH2 0x3F1A JUMP JUMPDEST SWAP6 POP DUP1 NOT DUP5 AND SWAP4 POP DUP1 DUP7 AND DUP5 OR SWAP3 POP POP POP SWAP4 SWAP3 POP POP POP JUMP JUMPDEST PUSH1 0x0 DUP2 SWAP1 POP SWAP2 SWAP1 POP JUMP JUMPDEST PUSH1 0x0 PUSH2 0x3F9E PUSH2 0x3F99 PUSH2 0x3F94 DUP5 PUSH2 0x322E JUMP JUMPDEST PUSH2 0x3F79 JUMP JUMPDEST PUSH2 0x322E JUMP JUMPDEST SWAP1 POP SWAP2 SWAP1 POP JUMP JUMPDEST PUSH1 0x0 DUP2 SWAP1 POP SWAP2 SWAP1 POP JUMP JUMPDEST PUSH2 0x3FB8 DUP4 PUSH2 0x3F83 JUMP JUMPDEST PUSH2 0x3FCC PUSH2 0x3FC4 DUP3 PUSH2 0x3FA5 JUMP JUMPDEST DUP5 DUP5 SLOAD PUSH2 0x3F27 JUMP JUMPDEST DUP3 SSTORE POP POP POP POP JUMP JUMPDEST PUSH1 0x0 SWAP1 JUMP JUMPDEST PUSH2 0x3FE1 PUSH2 0x3FD4 JUMP JUMPDEST PUSH2 0x3FEC DUP2 DUP5 DUP5 PUSH2 0x3FAF JUMP JUMPDEST POP POP POP JUMP JUMPDEST JUMPDEST DUP2 DUP2 LT ISZERO PUSH2 0x4010 JUMPI PUSH2 0x4005 PUSH1 0x0 DUP3 PUSH2 0x3FD9 JUMP JUMPDEST PUSH1 0x1 DUP2 ADD SWAP1 POP PUSH2 0x3FF2 JUMP JUMPDEST POP POP JUMP JUMPDEST PUSH1 0x1F DUP3 GT ISZERO PUSH2 0x4055 JUMPI PUSH2 0x4026 DUP2 PUSH2 0x3EF5 JUMP JUMPDEST PUSH2 0x402F DUP5 PUSH2 0x3F0A JUMP JUMPDEST DUP2 ADD PUSH1 0x20 DUP6 LT ISZERO PUSH2 0x403E JUMPI DUP2 SWAP1 POP JUMPDEST PUSH2 0x4052 PUSH2 0x404A DUP6 PUSH2 0x3F0A JUMP JUMPDEST DUP4 ADD DUP3 PUSH2 0x3FF1 JUMP JUMPDEST POP POP JUMPDEST POP POP POP JUMP JUMPDEST PUSH1 0x0 DUP3 DUP3 SHR SWAP1 POP SWAP3 SWAP2 POP POP JUMP JUMPDEST PUSH1 0x0 PUSH2 0x4078 PUSH1 0x0 NOT DUP5 PUSH1 0x8 MUL PUSH2 0x405A JUMP JUMPDEST NOT DUP1 DUP4 AND SWAP2 POP POP SWAP3 SWAP2 POP POP JUMP JUMPDEST PUSH1 0x0 PUSH2 0x4091 DUP4 DUP4 PUSH2 0x4067 JUMP JUMPDEST SWAP2 POP DUP3 PUSH1 0x2 MUL DUP3 OR SWAP1 POP SWAP3 SWAP2 POP POP JUMP JUMPDEST PUSH2 0x40AA DUP3 PUSH2 0x30F7 JUMP JUMPDEST PUSH8 0xFFFFFFFFFFFFFFFF DUP2 GT ISZERO PUSH2 0x40C3 JUMPI PUSH2 0x40C2 PUSH2 0x2F57 JUMP JUMPDEST JUMPDEST PUSH2 0x40CD DUP3 SLOAD PUSH2 0x3D64 JUMP JUMPDEST PUSH2 0x40D8 DUP3 DUP3 DUP6 PUSH2 0x4014 JUMP JUMPDEST PUSH1 0x0 PUSH1 0x20 SWAP1 POP PUSH1 0x1F DUP4 GT PUSH1 0x1 DUP2 EQ PUSH2 0x410B JUMPI PUSH1 0x0 DUP5 ISZERO PUSH2 0x40F9 JUMPI DUP3 DUP8 ADD MLOAD SWAP1 POP JUMPDEST PUSH2 0x4103 DUP6 DUP3 PUSH2 0x4085 JUMP JUMPDEST DUP7 SSTORE POP PUSH2 0x416B JUMP JUMPDEST PUSH1 0x1F NOT DUP5 AND PUSH2 0x4119 DUP7 PUSH2 0x3EF5 JUMP JUMPDEST PUSH1 0x0 JUMPDEST DUP3 DUP2 LT ISZERO PUSH2 0x4141 JUMPI DUP5 DUP10 ADD MLOAD DUP3 SSTORE PUSH1 0x1 DUP3 ADD SWAP2 POP PUSH1 0x20 DUP6 ADD SWAP5 POP PUSH1 0x20 DUP2 ADD SWAP1 POP PUSH2 0x411C JUMP JUMPDEST DUP7 DUP4 LT ISZERO PUSH2 0x415E JUMPI DUP5 DUP10 ADD MLOAD PUSH2 0x415A PUSH1 0x1F DUP10 AND DUP3 PUSH2 0x4067 JUMP JUMPDEST DUP4 SSTORE POP JUMPDEST PUSH1 0x1 PUSH1 0x2 DUP9 MUL ADD DUP9 SSTORE POP POP POP JUMPDEST POP POP POP POP POP POP JUMP JUMPDEST PUSH1 0x0 PUSH2 0x417E DUP3 PUSH2 0x322E JUMP JUMPDEST SWAP2 POP PUSH2 0x4189 DUP4 PUSH2 0x322E JUMP JUMPDEST SWAP3 POP DUP3 DUP3 ADD SWAP1 POP DUP1 DUP3 GT ISZERO PUSH2 0x41A1 JUMPI PUSH2 0x41A0 PUSH2 0x3E7E JUMP JUMPDEST JUMPDEST SWAP3 SWAP2 POP POP JUMP INVALID LOG2 PUSH5 0x6970667358 0x22 SLT KECCAK256 LT 0xDF NUMBER PUSH12 0xDDAA2652E7C1CFB1173B18B4 PUSH8 0x4FA095CD8AFD0BCB MSTORE8 SWAP15 0xCE RETURN 0xB0 SAR 0xE3 PUSH5 0x736F6C6343 STOP ADDMOD GT STOP CALLER "},"gasEstimates":{"creation":{"codeDepositCost":"3372200","executionCost":"3755","totalCost":"3375955"},"external":{"_dao_ids()":"2497","_dao_uris(uint256)":"infinite","_donated(uint256)":"infinite","_donations(uint256)":"infinite","_donations_ids()":"2539","_goal_ids()":"2542","_goal_uris(uint256)":"infinite","_ideas_ids()":"2518","_ideas_uris(uint256)":"infinite","_ideas_vote_ids()":"2497","_join_ids()":"2498","_joined_person(uint256)":"infinite","_message_ids()":"2563","_message_read_ids()":"2540","_reply_ids()":"2496","_smart_contract_ids()":"2586","_smart_contracts_uris(uint256)":"infinite","_template_uris(uint256)":"infinite","_user_badges(uint256)":"infinite","add_donation(uint256,uint256,uint256)":"infinite","all_goal_ideas_votes(uint256)":"infinite","all_messages(uint256)":"infinite","all_read_messages(uint256)":"infinite","all_replies(uint256)":"infinite","create_dao(string,string,string,uint256)":"infinite","create_goal(string,string,uint256)":"infinite","create_goal_ideas_vote(uint256,uint256,string,uint256)":"infinite","create_ideas(string,uint256,string[],uint256)":"infinite","dao_uri(uint256)":"infinite","getMsgIDs(uint256)":"infinite","getReadMsg(uint256,string)":"infinite","getReplyIDs(uint256)":"infinite","get_all_daos()":"infinite","get_all_goals()":"infinite","get_all_goals_by_dao_id(string)":"infinite","get_all_ideas()":"infinite","get_all_ideas_by_goal_id(uint256)":"infinite","get_goal_id_by_goal_uri(string)":"infinite","get_goal_id_from_ideas_uri(string)":"infinite","get_ideas_id_by_ideas_uri(string)":"infinite","get_ideas_votes_from_goal(uint256,uint256)":"infinite","goal_uri(uint256)":"infinite","ideas_uri(uint256)":"infinite","is_person_joined(uint256)":"infinite","join_community(uint256,uint256)":"infinite","reset_all()":"infinite","sendMsg(uint256,string,string,uint256)":"infinite","sendReadMsg(uint256,uint256,uint256,string)":"infinite","sendReply(uint256,string,uint256,uint256)":"infinite","set_dao(uint256,string,string)":"infinite","set_goal(uint256,string)":"infinite","set_ideas(uint256,string)":"infinite","update_template(uint256,string)":"infinite"},"internal":{"create_ideas_smart_contract(uint256,uint256,string memory)":"infinite"}},"methodIdentifiers":{"_dao_ids()":"7bbd582d","_dao_uris(uint256)":"27a568b9","_donated(uint256)":"20959ed0","_donations(uint256)":"7fc543ec","_donations_ids()":"ec245802","_goal_ids()":"13bf4cea","_goal_uris(uint256)":"7f2035d4","_ideas_ids()":"d3791b20","_ideas_uris(uint256)":"468d0c80","_ideas_vote_ids()":"4a797bd7","_join_ids()":"1171b621","_joined_person(uint256)":"330b8f26","_message_ids()":"9077007d","_message_read_ids()":"ca013f17","_reply_ids()":"aa2bf5d3","_smart_contract_ids()":"1b592aeb","_smart_contracts_uris(uint256)":"ff4a37ef","_template_uris(uint256)":"6ecda4ee","_user_badges(uint256)":"a428a47f","add_donation(uint256,uint256,uint256)":"8e6280e6","all_goal_ideas_votes(uint256)":"1ba44c4c","all_messages(uint256)":"b527d45e","all_read_messages(uint256)":"cace8d46","all_replies(uint256)":"3f87a2f4","create_dao(string,string,string,uint256)":"86ffa45b","create_goal(string,string,uint256)":"8413543e","create_goal_ideas_vote(uint256,uint256,string,uint256)":"1a96eceb","create_ideas(string,uint256,string[],uint256)":"d4ea3a36","dao_uri(uint256)":"5d907da1","getMsgIDs(uint256)":"803f5b9f","getReadMsg(uint256,string)":"cd230809","getReplyIDs(uint256)":"812fae1f","get_all_daos()":"c04fe978","get_all_goals()":"29b56f60","get_all_goals_by_dao_id(string)":"0377d44a","get_all_ideas()":"97ee7606","get_all_ideas_by_goal_id(uint256)":"131d44f2","get_goal_id_by_goal_uri(string)":"1e9ac9f5","get_goal_id_from_ideas_uri(string)":"aa4cdf2a","get_ideas_id_by_ideas_uri(string)":"a1ca9178","get_ideas_votes_from_goal(uint256,uint256)":"4be7adb5","goal_uri(uint256)":"e32acc1a","ideas_uri(uint256)":"8d3d2595","is_person_joined(uint256)":"c7af4ee5","join_community(uint256,uint256)":"c6182b34","reset_all()":"b16060a6","sendMsg(uint256,string,string,uint256)":"787f19c7","sendReadMsg(uint256,uint256,uint256,string)":"934c5f00","sendReply(uint256,string,uint256,uint256)":"d9fc52db","set_dao(uint256,string,string)":"881de858","set_goal(uint256,string)":"c29595c5","set_ideas(uint256,string)":"c04e7430","update_template(uint256,string)":"87633eb2"}},"storageLayout":{"storage":[{"astId":2021,"contract":"contracts/PlanetDAO.sol:PlanetDAO","label":"_dao_ids","offset":0,"slot":"0","type":"t_uint256"},{"astId":2023,"contract":"contracts/PlanetDAO.sol:PlanetDAO","label":"_donations_ids","offset":0,"slot":"1","type":"t_uint256"},{"astId":2025,"contract":"contracts/PlanetDAO.sol:PlanetDAO","label":"_goal_ids","offset":0,"slot":"2","type":"t_uint256"},{"astId":2027,"contract":"contracts/PlanetDAO.sol:PlanetDAO","label":"_ideas_ids","offset":0,"slot":"3","type":"t_uint256"},{"astId":2029,"contract":"contracts/PlanetDAO.sol:PlanetDAO","label":"_join_ids","offset":0,"slot":"4","type":"t_uint256"},{"astId":2031,"contract":"contracts/PlanetDAO.sol:PlanetDAO","label":"_smart_contract_ids","offset":0,"slot":"5","type":"t_uint256"},{"astId":2033,"contract":"contracts/PlanetDAO.sol:PlanetDAO","label":"_ideas_vote_ids","offset":0,"slot":"6","type":"t_uint256"},{"astId":2035,"contract":"contracts/PlanetDAO.sol:PlanetDAO","label":"_message_ids","offset":0,"slot":"7","type":"t_uint256"},{"astId":2037,"contract":"contracts/PlanetDAO.sol:PlanetDAO","label":"_message_read_ids","offset":0,"slot":"8","type":"t_uint256"},{"astId":2039,"contract":"contracts/PlanetDAO.sol:PlanetDAO","label":"_reply_ids","offset":0,"slot":"9","type":"t_uint256"},{"astId":2044,"contract":"contracts/PlanetDAO.sol:PlanetDAO","label":"_dao_uris","offset":0,"slot":"10","type":"t_mapping(t_uint256,t_struct(dao_uri_struct)1930_storage)"},{"astId":2048,"contract":"contracts/PlanetDAO.sol:PlanetDAO","label":"_template_uris","offset":0,"slot":"11","type":"t_mapping(t_uint256,t_string_storage)"},{"astId":2053,"contract":"contracts/PlanetDAO.sol:PlanetDAO","label":"_joined_person","offset":0,"slot":"12","type":"t_mapping(t_uint256,t_struct(join_struct)2000_storage)"},{"astId":2058,"contract":"contracts/PlanetDAO.sol:PlanetDAO","label":"_goal_uris","offset":0,"slot":"13","type":"t_mapping(t_uint256,t_struct(goal_uri_struct)1935_storage)"},{"astId":2063,"contract":"contracts/PlanetDAO.sol:PlanetDAO","label":"_ideas_uris","offset":0,"slot":"14","type":"t_mapping(t_uint256,t_struct(ideas_uri_struct)1942_storage)"},{"astId":2067,"contract":"contracts/PlanetDAO.sol:PlanetDAO","label":"_donated","offset":0,"slot":"15","type":"t_mapping(t_uint256,t_uint256)"},{"astId":2072,"contract":"contracts/PlanetDAO.sol:PlanetDAO","label":"_donations","offset":0,"slot":"16","type":"t_mapping(t_uint256,t_struct(donation_struct)1949_storage)"},{"astId":2077,"contract":"contracts/PlanetDAO.sol:PlanetDAO","label":"_smart_contracts_uris","offset":0,"slot":"17","type":"t_mapping(t_uint256,t_struct(smart_contract_uri_struct)1956_storage)"},{"astId":2082,"contract":"contracts/PlanetDAO.sol:PlanetDAO","label":"all_goal_ideas_votes","offset":0,"slot":"18","type":"t_mapping(t_uint256,t_struct(goal_ideas_votes_struct)1963_storage)"},{"astId":2087,"contract":"contracts/PlanetDAO.sol:PlanetDAO","label":"all_messages","offset":0,"slot":"19","type":"t_mapping(t_uint256,t_struct(message_struct)1972_storage)"},{"astId":2092,"contract":"contracts/PlanetDAO.sol:PlanetDAO","label":"all_read_messages","offset":0,"slot":"20","type":"t_mapping(t_uint256,t_struct(message_read_struct)1981_storage)"},{"astId":2097,"contract":"contracts/PlanetDAO.sol:PlanetDAO","label":"all_replies","offset":0,"slot":"21","type":"t_mapping(t_uint256,t_struct(reply_struct)1990_storage)"},{"astId":2102,"contract":"contracts/PlanetDAO.sol:PlanetDAO","label":"_user_badges","offset":0,"slot":"22","type":"t_mapping(t_uint256,t_struct(user_badge_struct)2019_storage)"}],"types":{"t_bool":{"encoding":"inplace","label":"bool","numberOfBytes":"1"},"t_mapping(t_uint256,t_string_storage)":{"encoding":"mapping","key":"t_uint256","label":"mapping(uint256 => string)","numberOfBytes":"32","value":"t_string_storage"},"t_mapping(t_uint256,t_struct(dao_uri_struct)1930_storage)":{"encoding":"mapping","key":"t_uint256","label":"mapping(uint256 => struct PlanetDAO.dao_uri_struct)","numberOfBytes":"32","value":"t_struct(dao_uri_struct)1930_storage"},"t_mapping(t_uint256,t_struct(donation_struct)1949_storage)":{"encoding":"mapping","key":"t_uint256","label":"mapping(uint256 => struct PlanetDAO.donation_struct)","numberOfBytes":"32","value":"t_struct(donation_struct)1949_storage"},"t_mapping(t_uint256,t_struct(goal_ideas_votes_struct)1963_storage)":{"encoding":"mapping","key":"t_uint256","label":"mapping(uint256 => struct PlanetDAO.goal_ideas_votes_struct)","numberOfBytes":"32","value":"t_struct(goal_ideas_votes_struct)1963_storage"},"t_mapping(t_uint256,t_struct(goal_uri_struct)1935_storage)":{"encoding":"mapping","key":"t_uint256","label":"mapping(uint256 => struct PlanetDAO.goal_uri_struct)","numberOfBytes":"32","value":"t_struct(goal_uri_struct)1935_storage"},"t_mapping(t_uint256,t_struct(ideas_uri_struct)1942_storage)":{"encoding":"mapping","key":"t_uint256","label":"mapping(uint256 => struct PlanetDAO.ideas_uri_struct)","numberOfBytes":"32","value":"t_struct(ideas_uri_struct)1942_storage"},"t_mapping(t_uint256,t_struct(join_struct)2000_storage)":{"encoding":"mapping","key":"t_uint256","label":"mapping(uint256 => struct PlanetDAO.join_struct)","numberOfBytes":"32","value":"t_struct(join_struct)2000_storage"},"t_mapping(t_uint256,t_struct(message_read_struct)1981_storage)":{"encoding":"mapping","key":"t_uint256","label":"mapping(uint256 => struct PlanetDAO.message_read_struct)","numberOfBytes":"32","value":"t_struct(message_read_struct)1981_storage"},"t_mapping(t_uint256,t_struct(message_struct)1972_storage)":{"encoding":"mapping","key":"t_uint256","label":"mapping(uint256 => struct PlanetDAO.message_struct)","numberOfBytes":"32","value":"t_struct(message_struct)1972_storage"},"t_mapping(t_uint256,t_struct(reply_struct)1990_storage)":{"encoding":"mapping","key":"t_uint256","label":"mapping(uint256 => struct PlanetDAO.reply_struct)","numberOfBytes":"32","value":"t_struct(reply_struct)1990_storage"},"t_mapping(t_uint256,t_struct(smart_contract_uri_struct)1956_storage)":{"encoding":"mapping","key":"t_uint256","label":"mapping(uint256 => struct PlanetDAO.smart_contract_uri_struct)","numberOfBytes":"32","value":"t_struct(smart_contract_uri_struct)1956_storage"},"t_mapping(t_uint256,t_struct(user_badge_struct)2019_storage)":{"encoding":"mapping","key":"t_uint256","label":"mapping(uint256 => struct PlanetDAO.user_badge_struct)","numberOfBytes":"32","value":"t_struct(user_badge_struct)2019_storage"},"t_mapping(t_uint256,t_uint256)":{"encoding":"mapping","key":"t_uint256","label":"mapping(uint256 => uint256)","numberOfBytes":"32","value":"t_uint256"},"t_string_storage":{"encoding":"bytes","label":"string","numberOfBytes":"32"},"t_struct(dao_uri_struct)1930_storage":{"encoding":"inplace","label":"struct PlanetDAO.dao_uri_struct","members":[{"astId":1925,"contract":"contracts/PlanetDAO.sol:PlanetDAO","label":"dao_wallet","offset":0,"slot":"0","type":"t_string_storage"},{"astId":1927,"contract":"contracts/PlanetDAO.sol:PlanetDAO","label":"dao_uri","offset":0,"slot":"1","type":"t_string_storage"},{"astId":1929,"contract":"contracts/PlanetDAO.sol:PlanetDAO","label":"finished","offset":0,"slot":"2","type":"t_string_storage"}],"numberOfBytes":"96"},"t_struct(donation_struct)1949_storage":{"encoding":"inplace","label":"struct PlanetDAO.donation_struct","members":[{"astId":1944,"contract":"contracts/PlanetDAO.sol:PlanetDAO","label":"ideas_id","offset":0,"slot":"0","type":"t_uint256"},{"astId":1946,"contract":"contracts/PlanetDAO.sol:PlanetDAO","label":"userid","offset":0,"slot":"1","type":"t_uint256"},{"astId":1948,"contract":"contracts/PlanetDAO.sol:PlanetDAO","label":"donation","offset":0,"slot":"2","type":"t_uint256"}],"numberOfBytes":"96"},"t_struct(goal_ideas_votes_struct)1963_storage":{"encoding":"inplace","label":"struct PlanetDAO.goal_ideas_votes_struct","members":[{"astId":1958,"contract":"contracts/PlanetDAO.sol:PlanetDAO","label":"goal_id","offset":0,"slot":"0","type":"t_uint256"},{"astId":1960,"contract":"contracts/PlanetDAO.sol:PlanetDAO","label":"ideas_id","offset":0,"slot":"1","type":"t_uint256"},{"astId":1962,"contract":"contracts/PlanetDAO.sol:PlanetDAO","label":"wallet","offset":0,"slot":"2","type":"t_string_storage"}],"numberOfBytes":"96"},"t_struct(goal_uri_struct)1935_storage":{"encoding":"inplace","label":"struct PlanetDAO.goal_uri_struct","members":[{"astId":1932,"contract":"contracts/PlanetDAO.sol:PlanetDAO","label":"dao_id","offset":0,"slot":"0","type":"t_string_storage"},{"astId":1934,"contract":"contracts/PlanetDAO.sol:PlanetDAO","label":"goal_uri","offset":0,"slot":"1","type":"t_string_storage"}],"numberOfBytes":"64"},"t_struct(ideas_uri_struct)1942_storage":{"encoding":"inplace","label":"struct PlanetDAO.ideas_uri_struct","members":[{"astId":1937,"contract":"contracts/PlanetDAO.sol:PlanetDAO","label":"goal_id","offset":0,"slot":"0","type":"t_uint256"},{"astId":1939,"contract":"contracts/PlanetDAO.sol:PlanetDAO","label":"ideas_uri","offset":0,"slot":"1","type":"t_string_storage"},{"astId":1941,"contract":"contracts/PlanetDAO.sol:PlanetDAO","label":"donation","offset":0,"slot":"2","type":"t_uint256"}],"numberOfBytes":"96"},"t_struct(join_struct)2000_storage":{"encoding":"inplace","label":"struct PlanetDAO.join_struct","members":[{"astId":1997,"contract":"contracts/PlanetDAO.sol:PlanetDAO","label":"daoid","offset":0,"slot":"0","type":"t_uint256"},{"astId":1999,"contract":"contracts/PlanetDAO.sol:PlanetDAO","label":"user_id","offset":0,"slot":"1","type":"t_uint256"}],"numberOfBytes":"64"},"t_struct(message_read_struct)1981_storage":{"encoding":"inplace","label":"struct PlanetDAO.message_read_struct","members":[{"astId":1974,"contract":"contracts/PlanetDAO.sol:PlanetDAO","label":"message_id","offset":0,"slot":"0","type":"t_uint256"},{"astId":1976,"contract":"contracts/PlanetDAO.sol:PlanetDAO","label":"ideas_id","offset":0,"slot":"1","type":"t_uint256"},{"astId":1978,"contract":"contracts/PlanetDAO.sol:PlanetDAO","label":"user_id","offset":0,"slot":"2","type":"t_uint256"},{"astId":1980,"contract":"contracts/PlanetDAO.sol:PlanetDAO","label":"msg_type","offset":0,"slot":"3","type":"t_string_storage"}],"numberOfBytes":"128"},"t_struct(message_struct)1972_storage":{"encoding":"inplace","label":"struct PlanetDAO.message_struct","members":[{"astId":1965,"contract":"contracts/PlanetDAO.sol:PlanetDAO","label":"message_id","offset":0,"slot":"0","type":"t_uint256"},{"astId":1967,"contract":"contracts/PlanetDAO.sol:PlanetDAO","label":"ideas_id","offset":0,"slot":"1","type":"t_uint256"},{"astId":1969,"contract":"contracts/PlanetDAO.sol:PlanetDAO","label":"message","offset":0,"slot":"2","type":"t_string_storage"},{"astId":1971,"contract":"contracts/PlanetDAO.sol:PlanetDAO","label":"sender","offset":0,"slot":"3","type":"t_string_storage"}],"numberOfBytes":"128"},"t_struct(reply_struct)1990_storage":{"encoding":"inplace","label":"struct PlanetDAO.reply_struct","members":[{"astId":1983,"contract":"contracts/PlanetDAO.sol:PlanetDAO","label":"reply_id","offset":0,"slot":"0","type":"t_uint256"},{"astId":1985,"contract":"contracts/PlanetDAO.sol:PlanetDAO","label":"message_id","offset":0,"slot":"1","type":"t_uint256"},{"astId":1987,"contract":"contracts/PlanetDAO.sol:PlanetDAO","label":"ideas_id","offset":0,"slot":"2","type":"t_uint256"},{"astId":1989,"contract":"contracts/PlanetDAO.sol:PlanetDAO","label":"message","offset":0,"slot":"3","type":"t_string_storage"}],"numberOfBytes":"128"},"t_struct(smart_contract_uri_struct)1956_storage":{"encoding":"inplace","label":"struct PlanetDAO.smart_contract_uri_struct","members":[{"astId":1951,"contract":"contracts/PlanetDAO.sol:PlanetDAO","label":"smart_contract_id","offset":0,"slot":"0","type":"t_uint256"},{"astId":1953,"contract":"contracts/PlanetDAO.sol:PlanetDAO","label":"ideas_id","offset":0,"slot":"1","type":"t_uint256"},{"astId":1955,"contract":"contracts/PlanetDAO.sol:PlanetDAO","label":"smart_contract_uri","offset":0,"slot":"2","type":"t_string_storage"}],"numberOfBytes":"96"},"t_struct(user_badge_struct)2019_storage":{"encoding":"inplace","label":"struct PlanetDAO.user_badge_struct","members":[{"astId":2002,"contract":"contracts/PlanetDAO.sol:PlanetDAO","label":"user_id","offset":0,"slot":"0","type":"t_uint256"},{"astId":2004,"contract":"contracts/PlanetDAO.sol:PlanetDAO","label":"dao","offset":0,"slot":"1","type":"t_bool"},{"astId":2006,"contract":"contracts/PlanetDAO.sol:PlanetDAO","label":"joined","offset":1,"slot":"1","type":"t_bool"},{"astId":2008,"contract":"contracts/PlanetDAO.sol:PlanetDAO","label":"goal","offset":2,"slot":"1","type":"t_bool"},{"astId":2010,"contract":"contracts/PlanetDAO.sol:PlanetDAO","label":"ideas","offset":3,"slot":"1","type":"t_bool"},{"astId":2012,"contract":"contracts/PlanetDAO.sol:PlanetDAO","label":"vote","offset":4,"slot":"1","type":"t_bool"},{"astId":2014,"contract":"contracts/PlanetDAO.sol:PlanetDAO","label":"donation","offset":5,"slot":"1","type":"t_bool"},{"astId":2016,"contract":"contracts/PlanetDAO.sol:PlanetDAO","label":"comment","offset":6,"slot":"1","type":"t_bool"},{"astId":2018,"contract":"contracts/PlanetDAO.sol:PlanetDAO","label":"reply","offset":7,"slot":"1","type":"t_bool"}],"numberOfBytes":"64"},"t_uint256":{"encoding":"inplace","label":"uint256","numberOfBytes":"32"}}},"userdoc":{"kind":"user","methods":{},"version":1}}}}