{"contracts/PlanetDAO.sol":{"PlanetDAO":{"abi":[{"inputs":[],"name":"_dao_ids","outputs":[{"internalType":"uint256","name":"","type":"uint256"}],"stateMutability":"view","type":"function"},{"inputs":[{"internalType":"uint256","name":"","type":"uint256"}],"name":"_dao_uris","outputs":[{"internalType":"string","name":"dao_wallet","type":"string"},{"internalType":"string","name":"dao_uri","type":"string"},{"internalType":"string","name":"finished","type":"string"}],"stateMutability":"view","type":"function"},{"inputs":[{"internalType":"uint256","name":"","type":"uint256"}],"name":"_donated","outputs":[{"internalType":"uint256","name":"","type":"uint256"}],"stateMutability":"view","type":"function"},{"inputs":[{"internalType":"uint256","name":"","type":"uint256"}],"name":"_donations","outputs":[{"internalType":"uint256","name":"ideas_id","type":"uint256"},{"internalType":"uint256","name":"userid","type":"uint256"},{"internalType":"uint256","name":"donation","type":"uint256"}],"stateMutability":"view","type":"function"},{"inputs":[],"name":"_donations_ids","outputs":[{"internalType":"uint256","name":"","type":"uint256"}],"stateMutability":"view","type":"function"},{"inputs":[],"name":"_feed_ids","outputs":[{"internalType":"uint256","name":"","type":"uint256"}],"stateMutability":"view","type":"function"},{"inputs":[{"internalType":"uint256","name":"","type":"uint256"}],"name":"_feeds","outputs":[{"internalType":"uint256","name":"feed_id","type":"uint256"},{"internalType":"uint256","name":"date","type":"uint256"},{"internalType":"string","name":"Type","type":"string"},{"internalType":"string","name":"data","type":"string"}],"stateMutability":"view","type":"function"},{"inputs":[],"name":"_goal_ids","outputs":[{"internalType":"uint256","name":"","type":"uint256"}],"stateMutability":"view","type":"function"},{"inputs":[{"internalType":"uint256","name":"","type":"uint256"}],"name":"_goal_uris","outputs":[{"internalType":"string","name":"dao_id","type":"string"},{"internalType":"string","name":"goal_uri","type":"string"}],"stateMutability":"view","type":"function"},{"inputs":[],"name":"_ideas_ids","outputs":[{"internalType":"uint256","name":"","type":"uint256"}],"stateMutability":"view","type":"function"},{"inputs":[{"internalType":"uint256","name":"","type":"uint256"}],"name":"_ideas_uris","outputs":[{"internalType":"uint256","name":"goal_id","type":"uint256"},{"internalType":"string","name":"ideas_uri","type":"string"},{"internalType":"uint256","name":"donation","type":"uint256"}],"stateMutability":"view","type":"function"},{"inputs":[],"name":"_ideas_vote_ids","outputs":[{"internalType":"uint256","name":"","type":"uint256"}],"stateMutability":"view","type":"function"},{"inputs":[],"name":"_join_ids","outputs":[{"internalType":"uint256","name":"","type":"uint256"}],"stateMutability":"view","type":"function"},{"inputs":[{"internalType":"uint256","name":"","type":"uint256"}],"name":"_joined_person","outputs":[{"internalType":"uint256","name":"daoid","type":"uint256"},{"internalType":"uint256","name":"user_id","type":"uint256"}],"stateMutability":"view","type":"function"},{"inputs":[],"name":"_message_ids","outputs":[{"internalType":"uint256","name":"","type":"uint256"}],"stateMutability":"view","type":"function"},{"inputs":[],"name":"_message_read_ids","outputs":[{"internalType":"uint256","name":"","type":"uint256"}],"stateMutability":"view","type":"function"},{"inputs":[],"name":"_reply_ids","outputs":[{"internalType":"uint256","name":"","type":"uint256"}],"stateMutability":"view","type":"function"},{"inputs":[],"name":"_smart_contract_ids","outputs":[{"internalType":"uint256","name":"","type":"uint256"}],"stateMutability":"view","type":"function"},{"inputs":[{"internalType":"uint256","name":"","type":"uint256"}],"name":"_smart_contracts_uris","outputs":[{"internalType":"uint256","name":"smart_contract_id","type":"uint256"},{"internalType":"uint256","name":"ideas_id","type":"uint256"},{"internalType":"string","name":"smart_contract_uri","type":"string"}],"stateMutability":"view","type":"function"},{"inputs":[{"internalType":"uint256","name":"","type":"uint256"}],"name":"_template_uris","outputs":[{"internalType":"string","name":"","type":"string"}],"stateMutability":"view","type":"function"},{"inputs":[{"internalType":"uint256","name":"","type":"uint256"}],"name":"_user_badges","outputs":[{"internalType":"uint256","name":"user_id","type":"uint256"},{"internalType":"bool","name":"dao","type":"bool"},{"internalType":"bool","name":"joined","type":"bool"},{"internalType":"bool","name":"goal","type":"bool"},{"internalType":"bool","name":"ideas","type":"bool"},{"internalType":"bool","name":"vote","type":"bool"},{"internalType":"bool","name":"donation","type":"bool"},{"internalType":"bool","name":"comment","type":"bool"},{"internalType":"bool","name":"reply","type":"bool"}],"stateMutability":"view","type":"function"},{"inputs":[{"internalType":"string","name":"feed_text","type":"string"},{"internalType":"string","name":"_type","type":"string"}],"name":"add_Feed","outputs":[],"stateMutability":"nonpayable","type":"function"},{"inputs":[{"internalType":"uint256","name":"_ideas_id","type":"uint256"},{"internalType":"uint256","name":"_doantion","type":"uint256"},{"internalType":"uint256","name":"_userid","type":"uint256"},{"internalType":"string","name":"_feed1","type":"string"},{"internalType":"string","name":"_feed2","type":"string"}],"name":"add_donation","outputs":[],"stateMutability":"nonpayable","type":"function"},{"inputs":[{"internalType":"uint256","name":"","type":"uint256"}],"name":"all_goal_ideas_votes","outputs":[{"internalType":"uint256","name":"goal_id","type":"uint256"},{"internalType":"uint256","name":"ideas_id","type":"uint256"},{"internalType":"uint256","name":"user_id","type":"uint256"}],"stateMutability":"view","type":"function"},{"inputs":[{"internalType":"uint256","name":"","type":"uint256"}],"name":"all_messages","outputs":[{"internalType":"uint256","name":"message_id","type":"uint256"},{"internalType":"uint256","name":"ideas_id","type":"uint256"},{"internalType":"string","name":"message","type":"string"},{"internalType":"string","name":"sender","type":"string"}],"stateMutability":"view","type":"function"},{"inputs":[{"internalType":"uint256","name":"","type":"uint256"}],"name":"all_read_messages","outputs":[{"internalType":"uint256","name":"message_id","type":"uint256"},{"internalType":"uint256","name":"ideas_id","type":"uint256"},{"internalType":"uint256","name":"user_id","type":"uint256"},{"internalType":"string","name":"msg_type","type":"string"}],"stateMutability":"view","type":"function"},{"inputs":[{"internalType":"uint256","name":"","type":"uint256"}],"name":"all_replies","outputs":[{"internalType":"uint256","name":"reply_id","type":"uint256"},{"internalType":"uint256","name":"message_id","type":"uint256"},{"internalType":"uint256","name":"ideas_id","type":"uint256"},{"internalType":"string","name":"message","type":"string"}],"stateMutability":"view","type":"function"},{"inputs":[{"internalType":"string","name":"_dao_wallet","type":"string"},{"internalType":"string","name":"_dao_uri","type":"string"},{"internalType":"string","name":"_template","type":"string"},{"internalType":"uint256","name":"user_id","type":"uint256"}],"name":"create_dao","outputs":[{"internalType":"uint256","name":"","type":"uint256"}],"stateMutability":"nonpayable","type":"function"},{"inputs":[{"internalType":"string","name":"_goal_uri","type":"string"},{"internalType":"string","name":"_dao_id","type":"string"},{"internalType":"uint256","name":"_user_id","type":"uint256"},{"internalType":"string","name":"_feed","type":"string"}],"name":"create_goal","outputs":[{"internalType":"uint256","name":"","type":"uint256"}],"stateMutability":"nonpayable","type":"function"},{"inputs":[{"internalType":"uint256","name":"_goal_id","type":"uint256"},{"internalType":"uint256","name":"_ideas_id","type":"uint256"},{"internalType":"uint256","name":"_user_id","type":"uint256"},{"internalType":"string","name":"_feed","type":"string"}],"name":"create_goal_ideas_vote","outputs":[{"internalType":"uint256","name":"","type":"uint256"}],"stateMutability":"nonpayable","type":"function"},{"inputs":[{"internalType":"string","name":"_ideas_uri","type":"string"},{"internalType":"uint256","name":"_goal_id","type":"uint256"},{"internalType":"string[]","name":"_smart_contracts","type":"string[]"},{"internalType":"uint256","name":"_user_id","type":"uint256"},{"internalType":"string","name":"_feed","type":"string"}],"name":"create_ideas","outputs":[{"internalType":"uint256","name":"","type":"uint256"}],"stateMutability":"nonpayable","type":"function"},{"inputs":[{"internalType":"uint256","name":"_dao_id","type":"uint256"}],"name":"dao_uri","outputs":[{"internalType":"string","name":"","type":"string"}],"stateMutability":"view","type":"function"},{"inputs":[{"internalType":"uint256","name":"ideas_id","type":"uint256"}],"name":"getMsgIDs","outputs":[{"internalType":"uint256[]","name":"","type":"uint256[]"}],"stateMutability":"view","type":"function"},{"inputs":[{"internalType":"uint256","name":"_message_id","type":"uint256"},{"internalType":"string","name":"msg_type","type":"string"}],"name":"getReadMsg","outputs":[{"internalType":"bool","name":"","type":"bool"}],"stateMutability":"view","type":"function"},{"inputs":[{"internalType":"uint256","name":"message_id","type":"uint256"}],"name":"getReplyIDs","outputs":[{"internalType":"uint256[]","name":"","type":"uint256[]"}],"stateMutability":"view","type":"function"},{"inputs":[],"name":"get_all_daos","outputs":[{"internalType":"string[]","name":"","type":"string[]"}],"stateMutability":"view","type":"function"},{"inputs":[],"name":"get_all_goals","outputs":[{"internalType":"string[]","name":"","type":"string[]"}],"stateMutability":"view","type":"function"},{"inputs":[{"internalType":"string","name":"_dao_id","type":"string"}],"name":"get_all_goals_by_dao_id","outputs":[{"internalType":"string[]","name":"","type":"string[]"}],"stateMutability":"view","type":"function"},{"inputs":[],"name":"get_all_ideas","outputs":[{"internalType":"string[]","name":"","type":"string[]"}],"stateMutability":"view","type":"function"},{"inputs":[{"internalType":"uint256","name":"_goal_id","type":"uint256"}],"name":"get_all_ideas_by_goal_id","outputs":[{"internalType":"string[]","name":"","type":"string[]"}],"stateMutability":"view","type":"function"},{"inputs":[{"internalType":"string","name":"_goal_uri","type":"string"}],"name":"get_goal_id_by_goal_uri","outputs":[{"internalType":"uint256","name":"","type":"uint256"}],"stateMutability":"view","type":"function"},{"inputs":[{"internalType":"string","name":"_ideas_uri","type":"string"}],"name":"get_goal_id_from_ideas_uri","outputs":[{"internalType":"uint256","name":"","type":"uint256"}],"stateMutability":"view","type":"function"},{"inputs":[{"internalType":"string","name":"_ideas_uri","type":"string"}],"name":"get_ideas_id_by_ideas_uri","outputs":[{"internalType":"uint256","name":"","type":"uint256"}],"stateMutability":"view","type":"function"},{"inputs":[{"internalType":"uint256","name":"_goal_id","type":"uint256"},{"internalType":"uint256","name":"_ideas_id","type":"uint256"}],"name":"get_ideas_votes_from_goal","outputs":[{"internalType":"uint256[]","name":"","type":"uint256[]"}],"stateMutability":"view","type":"function"},{"inputs":[{"internalType":"uint256","name":"_goal_id","type":"uint256"}],"name":"goal_uri","outputs":[{"internalType":"string","name":"","type":"string"}],"stateMutability":"view","type":"function"},{"inputs":[{"internalType":"uint256","name":"_ideas_id","type":"uint256"}],"name":"ideas_uri","outputs":[{"internalType":"string","name":"","type":"string"}],"stateMutability":"view","type":"function"},{"inputs":[{"internalType":"uint256","name":"person","type":"uint256"}],"name":"is_person_joined","outputs":[{"internalType":"bool","name":"","type":"bool"}],"stateMutability":"view","type":"function"},{"inputs":[{"internalType":"uint256","name":"dao_id","type":"uint256"},{"internalType":"uint256","name":"person","type":"uint256"},{"internalType":"string","name":"_feed","type":"string"}],"name":"join_community","outputs":[],"stateMutability":"nonpayable","type":"function"},{"inputs":[],"name":"reset_all","outputs":[],"stateMutability":"nonpayable","type":"function"},{"inputs":[{"internalType":"uint256","name":"_ideas_id","type":"uint256"},{"internalType":"string","name":"_message","type":"string"},{"internalType":"string","name":"_sender","type":"string"},{"internalType":"uint256","name":"_user_id","type":"uint256"}],"name":"sendMsg","outputs":[{"internalType":"uint256","name":"","type":"uint256"}],"stateMutability":"nonpayable","type":"function"},{"inputs":[{"internalType":"uint256","name":"_message_id","type":"uint256"},{"internalType":"uint256","name":"_ideas_id","type":"uint256"},{"internalType":"uint256","name":"_wallet","type":"uint256"},{"internalType":"string","name":"msg_type","type":"string"}],"name":"sendReadMsg","outputs":[{"internalType":"uint256","name":"","type":"uint256"}],"stateMutability":"nonpayable","type":"function"},{"inputs":[{"internalType":"uint256","name":"_message_id","type":"uint256"},{"internalType":"string","name":"_reply","type":"string"},{"internalType":"uint256","name":"ideas_id","type":"uint256"},{"internalType":"uint256","name":"_userid","type":"uint256"}],"name":"sendReply","outputs":[{"internalType":"uint256","name":"","type":"uint256"}],"stateMutability":"nonpayable","type":"function"},{"inputs":[{"internalType":"uint256","name":"_dao_id","type":"uint256"},{"internalType":"string","name":"_dao_wallet","type":"string"},{"internalType":"string","name":"_dao_uri","type":"string"}],"name":"set_dao","outputs":[],"stateMutability":"nonpayable","type":"function"},{"inputs":[{"internalType":"uint256","name":"_goal_id","type":"uint256"},{"internalType":"string","name":"_goal_uri","type":"string"}],"name":"set_goal","outputs":[],"stateMutability":"nonpayable","type":"function"},{"inputs":[{"internalType":"uint256","name":"_ideas_id","type":"uint256"},{"internalType":"string","name":"_ideas_uri","type":"string"}],"name":"set_ideas","outputs":[],"stateMutability":"nonpayable","type":"function"},{"inputs":[{"internalType":"uint256","name":"_dao_id","type":"uint256"},{"internalType":"string","name":"_template","type":"string"}],"name":"update_template","outputs":[],"stateMutability":"nonpayable","type":"function"}],"devdoc":{"kind":"dev","methods":{},"version":1},"evm":{"bytecode":{"linkReferences":{},"object":"608060405234801561001057600080fd5b50614623806100206000396000f3fe608060405234801561001057600080fd5b50600436106103785760003560e01c80638ac4110c116101d3578063bda0033511610104578063cd230809116100a2578063e1b011a01161007c578063e1b011a014610bbf578063e32acc1a14610bef578063ec24580214610c1f578063ff4a37ef14610c3d57610378565b8063cd23080914610b41578063d3791b2014610b71578063d9fc52db14610b8f57610378565b8063c29595c5116100de578063c29595c514610aa4578063c7af4ee514610ac0578063ca013f1714610af0578063cace8d4614610b0e57610378565b8063bda0033514610a4e578063c04e743014610a6a578063c04fe97814610a8657610378565b8063a1ca917811610171578063aa4cdf2a1161014b578063aa4cdf2a146109b1578063b16060a6146109e1578063b39a38bd146109eb578063b527d45e14610a1b57610378565b8063a1ca91781461092b578063a428a47f1461095b578063aa2bf5d31461099357610378565b80638d6b30a1116101ad5780638d6b30a11461088f5780639077007d146108bf578063934c5f00146108dd57806397ee76061461090d57610378565b80638ac4110c146108255780638c70034a146108435780638d3d25951461085f57610378565b80634be7adb5116102ad5780637f2035d41161024b578063812fae1f11610225578063812fae1f1461078d57806386ffa45b146107bd57806387633eb2146107ed578063881de8581461080957610378565b80637f2035d4146106fa5780637fc543ec1461072b578063803f5b9f1461075d57610378565b80635d907da1116102875780635d907da11461064c5780636ecda4ee1461067c578063787f19c7146106ac5780637bbd582d146106dc57610378565b80634be7adb5146105cd57806354a9fb18146105fd5780635996278f1461063057610378565b806320959ed01161031a578063330b8f26116102f4578063330b8f26146105195780633f87a2f41461054a578063468d0c801461057d5780634a797bd7146105af57610378565b806320959ed01461049957806327a568b9146104c957806329b56f60146104fb57610378565b806313bf4cea1161035657806313bf4cea146103fb5780631b592aeb146104195780631ba44c4c146104375780631e9ac9f51461046957610378565b80630377d44a1461037d5780631171b621146103ad578063131d44f2146103cb575b600080fd5b610397600480360381019061039291906133a4565b610c6f565b6040516103a4919061352e565b60405180910390f35b6103b5610df9565b6040516103c29190613569565b60405180910390f35b6103e560048036038101906103e091906135b0565b610dff565b6040516103f2919061352e565b60405180910390f35b610403610f6e565b6040516104109190613569565b60405180910390f35b610421610f74565b60405161042e9190613569565b60405180910390f35b610451600480360381019061044c91906135b0565b610f7a565b604051610460939291906135dd565b60405180910390f35b610483600480360381019061047e91906133a4565b610fa4565b6040516104909190613569565b60405180910390f35b6104b360048036038101906104ae91906135b0565b611015565b6040516104c09190613569565b60405180910390f35b6104e360048036038101906104de91906135b0565b61102d565b6040516104f29392919061365e565b60405180910390f35b6105036111ef565b604051610510919061352e565b60405180910390f35b610533600480360381019061052e91906135b0565b61132a565b6040516105419291906136aa565b60405180910390f35b610564600480360381019061055f91906135b0565b61134e565b60405161057494939291906136d3565b60405180910390f35b610597600480360381019061059291906135b0565b611406565b6040516105a69392919061371f565b60405180910390f35b6105b76114b8565b6040516105c49190613569565b60405180910390f35b6105e760048036038101906105e2919061375d565b6114be565b6040516105f4919061385b565b60405180910390f35b610617600480360381019061061291906135b0565b6115c4565b604051610627949392919061387d565b60405180910390f35b61064a600480360381019061064591906138d0565b611704565b005b610666600480360381019061066191906135b0565b6118a8565b6040516106739190613983565b60405180910390f35b610696600480360381019061069191906135b0565b611950565b6040516106a39190613983565b60405180910390f35b6106c660048036038101906106c191906139a5565b6119f0565b6040516106d39190613569565b60405180910390f35b6106e4611ac1565b6040516106f19190613569565b60405180910390f35b610714600480360381019061070f91906135b0565b611ac7565b604051610722929190613a44565b60405180910390f35b610745600480360381019061074091906135b0565b611bfb565b604051610754939291906135dd565b60405180910390f35b610777600480360381019061077291906135b0565b611c25565b604051610784919061385b565b60405180910390f35b6107a760048036038101906107a291906135b0565b611d08565b6040516107b4919061385b565b60405180910390f35b6107d760048036038101906107d29190613a7b565b611deb565b6040516107e49190613569565b60405180910390f35b61080760048036038101906108029190613b36565b611f0b565b005b610823600480360381019061081e9190613b92565b611f30565b005b61082d611f7d565b60405161083a9190613569565b60405180910390f35b61085d60048036038101906108589190613c1d565b611f83565b005b610879600480360381019061087491906135b0565b61204f565b6040516108869190613983565b60405180910390f35b6108a960048036038101906108a49190613c8c565b6120f7565b6040516108b69190613569565b60405180910390f35b6108c76121dd565b6040516108d49190613569565b60405180910390f35b6108f760048036038101906108f29190613c8c565b6121e3565b6040516109049190613569565b60405180910390f35b610915612277565b604051610922919061352e565b60405180910390f35b610945600480360381019061094091906133a4565b6123b2565b6040516109529190613569565b60405180910390f35b610975600480360381019061097091906135b0565b612423565b60405161098a99989796959493929190613d2a565b60405180910390f35b61099b6124d9565b6040516109a89190613569565b60405180910390f35b6109cb60048036038101906109c691906133a4565b6124df565b6040516109d89190613569565b60405180910390f35b6109e9612566565b005b610a056004803603810190610a009190613db7565b612818565b604051610a129190613569565b60405180910390f35b610a356004803603810190610a3091906135b0565b612906565b604051610a45949392919061387d565b60405180910390f35b610a686004803603810190610a639190613e72565b612a46565b005b610a846004803603810190610a7f9190613b36565b612add565b005b610a8e612b05565b604051610a9b919061352e565b60405180910390f35b610abe6004803603810190610ab99190613b36565b612c3f565b005b610ada6004803603810190610ad591906135b0565b612c67565b604051610ae79190613eea565b60405180910390f35b610af8612cbe565b604051610b059190613569565b60405180910390f35b610b286004803603810190610b2391906135b0565b612cc4565b604051610b3894939291906136d3565b60405180910390f35b610b5b6004803603810190610b569190613b36565b612d7c565b604051610b689190613eea565b60405180910390f35b610b79612e0d565b604051610b869190613569565b60405180910390f35b610ba96004803603810190610ba49190613f05565b612e13565b604051610bb69190613569565b60405180910390f35b610bd96004803603810190610bd4919061406e565b612ed8565b604051610be69190613569565b60405180910390f35b610c096004803603810190610c0491906135b0565b61302d565b604051610c169190613983565b60405180910390f35b610c276130d5565b604051610c349190613569565b60405180910390f35b610c576004803603810190610c5291906135b0565b6130db565b604051610c669392919061413d565b60405180910390f35b6060600060025467ffffffffffffffff811115610c8f57610c8e613279565b5b604051908082528060200260200182016040528015610cc257816020015b6060815260200190600190039081610cad5790505b509050600080600090505b600254811015610dee578480519060200120600e6000838152602001908152602001600020600001604051610d02919061427e565b604051809103902003610ddb57600e60008281526020019081526020016000206001018054610d30906141aa565b80601f0160208091040260200160405190810160405280929190818152602001828054610d5c906141aa565b8015610da95780601f10610d7e57610100808354040283529160200191610da9565b820191906000526020600020905b815481529060010190602001808311610d8c57829003601f168201915b5050505050838381518110610dc157610dc0614295565b5b60200260200101819052508180610dd7906142f3565b9250505b8080610de6906142f3565b915050610ccd565b508192505050919050565b60045481565b6060600060035467ffffffffffffffff811115610e1f57610e1e613279565b5b604051908082528060200260200182016040528015610e5257816020015b6060815260200190600190039081610e3d5790505b509050600080600090505b600354811015610f635784600f60008381526020019081526020016000206000015403610f4257600f60008281526020019081526020016000206001018054610ea5906141aa565b80601f0160208091040260200160405190810160405280929190818152602001828054610ed1906141aa565b8015610f1e5780601f10610ef357610100808354040283529160200191610f1e565b820191906000526020600020905b815481529060010190602001808311610f0157829003601f168201915b5050505050838381518110610f3657610f35614295565b5b60200260200101819052505b8180610f4d906142f3565b9250508080610f5b906142f3565b915050610e5d565b508192505050919050565b60025481565b60055481565b60146020528060005260406000206000915090508060000154908060010154908060020154905083565b600080600090505b60025481101561100a578280519060200120600e6000838152602001908152602001600020600101604051610fe1919061427e565b604051809103902003610ff75780915050611010565b8080611002906142f3565b915050610fac565b50600090505b919050565b60106020528060005260406000206000915090505481565b600b602052806000526040600020600091509050806000018054611050906141aa565b80601f016020809104026020016040519081016040528092919081815260200182805461107c906141aa565b80156110c95780601f1061109e576101008083540402835291602001916110c9565b820191906000526020600020905b8154815290600101906020018083116110ac57829003601f168201915b5050505050908060010180546110de906141aa565b80601f016020809104026020016040519081016040528092919081815260200182805461110a906141aa565b80156111575780601f1061112c57610100808354040283529160200191611157565b820191906000526020600020905b81548152906001019060200180831161113a57829003601f168201915b50505050509080600201805461116c906141aa565b80601f0160208091040260200160405190810160405280929190818152602001828054611198906141aa565b80156111e55780601f106111ba576101008083540402835291602001916111e5565b820191906000526020600020905b8154815290600101906020018083116111c857829003601f168201915b5050505050905083565b6060600060025467ffffffffffffffff81111561120f5761120e613279565b5b60405190808252806020026020018201604052801561124257816020015b606081526020019060019003908161122d5790505b50905060005b60025481101561132257600e60008281526020019081526020016000206001018054611273906141aa565b80601f016020809104026020016040519081016040528092919081815260200182805461129f906141aa565b80156112ec5780601f106112c1576101008083540402835291602001916112ec565b820191906000526020600020905b8154815290600101906020018083116112cf57829003601f168201915b505050505082828151811061130457611303614295565b5b6020026020010181905250808061131a906142f3565b915050611248565b508091505090565b600d6020528060005260406000206000915090508060000154908060010154905082565b6017602052806000526040600020600091509050806000015490806001015490806002015490806003018054611383906141aa565b80601f01602080910402602001604051908101604052809291908181526020018280546113af906141aa565b80156113fc5780601f106113d1576101008083540402835291602001916113fc565b820191906000526020600020905b8154815290600101906020018083116113df57829003601f168201915b5050505050905084565b600f60205280600052604060002060009150905080600001549080600101805461142f906141aa565b80601f016020809104026020016040519081016040528092919081815260200182805461145b906141aa565b80156114a85780601f1061147d576101008083540402835291602001916114a8565b820191906000526020600020905b81548152906001019060200180831161148b57829003601f168201915b5050505050908060020154905083565b60065481565b6060600060065467ffffffffffffffff8111156114de576114dd613279565b5b60405190808252806020026020018201604052801561150c5781602001602082028036833780820191505090505b509050600080600090505b6006548110156115b85785601460008381526020019081526020016000206000015414801561155b5750846014600083815260200190815260200160002060010154145b1561159757601460008281526020019081526020016000206002015483838151811061158a57611589614295565b5b6020026020010181815250505b81806115a2906142f3565b92505080806115b0906142f3565b915050611517565b50819250505092915050565b60116020528060005260406000206000915090508060000154908060010154908060020180546115f3906141aa565b80601f016020809104026020016040519081016040528092919081815260200182805461161f906141aa565b801561166c5780601f106116415761010080835404028352916020019161166c565b820191906000526020600020905b81548152906001019060200180831161164f57829003601f168201915b505050505090806003018054611681906141aa565b80601f01602080910402602001604051908101604052809291908181526020018280546116ad906141aa565b80156116fa5780601f106116cf576101008083540402835291602001916116fa565b820191906000526020600020905b8154815290600101906020018083116116dd57829003601f168201915b5050505050905084565b600015156018600085815260200190815260200160002060010160059054906101000a900460ff1615150361177357611772826040518060400160405280600581526020017f6261646765000000000000000000000000000000000000000000000000000000815250612a46565b5b6117b2816040518060400160405280600881526020017f646f6e6174696f6e000000000000000000000000000000000000000000000000815250612a46565b60016018600085815260200190815260200160002060010160056101000a81548160ff02191690831515021790555083600f60008781526020019081526020016000206002016000828254611807919061433b565b9250508190555083601060008581526020019081526020016000206000828254611831919061433b565b925050819055506040518060600160405280868152602001848152602001858152506012600060015481526020019081526020016000206000820151816000015560208201518160010155604082015181600201559050506001600081548092919061189c906142f3565b91905055505050505050565b6060600b600083815260200190815260200160002060010180546118cb906141aa565b80601f01602080910402602001604051908101604052809291908181526020018280546118f7906141aa565b80156119445780601f1061191957610100808354040283529160200191611944565b820191906000526020600020905b81548152906001019060200180831161192757829003601f168201915b50505050509050919050565b600c602052806000526040600020600091509050805461196f906141aa565b80601f016020809104026020016040519081016040528092919081815260200182805461199b906141aa565b80156119e85780601f106119bd576101008083540402835291602001916119e8565b820191906000526020600020905b8154815290600101906020018083116119cb57829003601f168201915b505050505081565b600060016018600084815260200190815260200160002060010160066101000a81548160ff021916908315150217905550604051806080016040528060075481526020018681526020018581526020018481525060156000600754815260200190815260200160002060008201518160000155602082015181600101556040820151816002019081611a82919061451b565b506060820151816003019081611a98919061451b565b5090505060076000815480929190611aaf906142f3565b91905055506007549050949350505050565b60005481565b600e602052806000526040600020600091509050806000018054611aea906141aa565b80601f0160208091040260200160405190810160405280929190818152602001828054611b16906141aa565b8015611b635780601f10611b3857610100808354040283529160200191611b63565b820191906000526020600020905b815481529060010190602001808311611b4657829003601f168201915b505050505090806001018054611b78906141aa565b80601f0160208091040260200160405190810160405280929190818152602001828054611ba4906141aa565b8015611bf15780601f10611bc657610100808354040283529160200191611bf1565b820191906000526020600020905b815481529060010190602001808311611bd457829003601f168201915b5050505050905082565b60126020528060005260406000206000915090508060000154908060010154908060020154905083565b6060600060075467ffffffffffffffff811115611c4557611c44613279565b5b604051908082528060200260200182016040528015611c735781602001602082028036833780820191505090505b509050600080600090505b600754811015611cfd5784601560008381526020019081526020016000206001015403611cea576015600082815260200190815260200160002060000154838381518110611ccf57611cce614295565b5b6020026020010181815250508180611ce6906142f3565b9250505b8080611cf5906142f3565b915050611c7e565b508192505050919050565b6060600060095467ffffffffffffffff811115611d2857611d27613279565b5b604051908082528060200260200182016040528015611d565781602001602082028036833780820191505090505b509050600080600090505b600954811015611de05784601760008381526020019081526020016000206001015403611dcd576017600082815260200190815260200160002060000154838381518110611db257611db1614295565b5b6020026020010181815250508180611dc9906142f3565b9250505b8080611dd8906142f3565b915050611d61565b508192505050919050565b600060405180606001604052808681526020018581526020016040518060400160405280600581526020017f46616c7365000000000000000000000000000000000000000000000000000000815250815250600b6000805481526020019081526020016000206000820151816000019081611e66919061451b565b506020820151816001019081611e7c919061451b565b506040820151816002019081611e92919061451b565b5090505082600c6000805481526020019081526020016000209081611eb7919061451b565b5060016018600084815260200190815260200160002060010160006101000a81548160ff021916908315150217905550600080815480929190611ef9906142f3565b91905055506000549050949350505050565b80600c60008481526020019081526020016000209081611f2b919061451b565b505050565b81600b60008581526020019081526020016000206000019081611f53919061451b565b5080600b60008581526020019081526020016000206001019081611f77919061451b565b50505050565b600a5481565b60016018600084815260200190815260200160002060010160016101000a81548160ff021916908315150217905550604051806040016040528084815260200183815250600d60006004548152602001908152602001600020600082015181600001556020820151816001015590505060046000815480929190612006906142f3565b919050555061204a816040518060400160405280600481526020017f6a6f696e00000000000000000000000000000000000000000000000000000000815250612a46565b505050565b6060600f60008381526020019081526020016000206001018054612072906141aa565b80601f016020809104026020016040519081016040528092919081815260200182805461209e906141aa565b80156120eb5780601f106120c0576101008083540402835291602001916120eb565b820191906000526020600020905b8154815290600101906020018083116120ce57829003601f168201915b50505050509050919050565b600060016018600085815260200190815260200160002060010160046101000a81548160ff0219169083151502179055506040518060600160405280868152602001858152602001848152506014600060065481526020019081526020016000206000820151816000015560208201518160010155604082015181600201559050506006600081548092919061218c906142f3565b91905055506121d0826040518060400160405280600481526020017f766f746500000000000000000000000000000000000000000000000000000000815250612a46565b6006549050949350505050565b60075481565b6000604051806080016040528086815260200185815260200184815260200183815250601660006008548152602001908152602001600020600082015181600001556020820151816001015560408201518160020155606082015181600301908161224e919061451b565b5090505060086000815480929190612265906142f3565b91905055506008549050949350505050565b6060600060035467ffffffffffffffff81111561229757612296613279565b5b6040519080825280602002602001820160405280156122ca57816020015b60608152602001906001900390816122b55790505b50905060005b6003548110156123aa57600f600082815260200190815260200160002060010180546122fb906141aa565b80601f0160208091040260200160405190810160405280929190818152602001828054612327906141aa565b80156123745780601f1061234957610100808354040283529160200191612374565b820191906000526020600020905b81548152906001019060200180831161235757829003601f168201915b505050505082828151811061238c5761238b614295565b5b602002602001018190525080806123a2906142f3565b9150506122d0565b508091505090565b600080600090505b600354811015612418578280519060200120600f60008381526020019081526020016000206001016040516123ef919061427e565b604051809103902003612405578091505061241e565b8080612410906142f3565b9150506123ba565b50600090505b919050565b60186020528060005260406000206000915090508060000154908060010160009054906101000a900460ff16908060010160019054906101000a900460ff16908060010160029054906101000a900460ff16908060010160039054906101000a900460ff16908060010160049054906101000a900460ff16908060010160059054906101000a900460ff16908060010160069054906101000a900460ff16908060010160079054906101000a900460ff16905089565b60095481565b600080600090505b60035481101561255b578280519060200120600f600083815260200190815260200160002060010160405161251c919061427e565b60405180910390200361254857600f600082815260200190815260200160002060000154915050612561565b8080612553906142f3565b9150506124e7565b50600090505b919050565b60005b6000548110156125cc57600b60008281526020019081526020016000206000808201600061259791906131ed565b6001820160006125a791906131ed565b6002820160006125b791906131ed565b505080806125c4906142f3565b915050612569565b5060005b60025481101561262357600e6000828152602001908152602001600020600080820160006125fe91906131ed565b60018201600061260e91906131ed565b5050808061261b906142f3565b9150506125d0565b5060005b60035481101561267a57600f600082815260200190815260200160002060008082016000905560018201600061265d91906131ed565b600282016000905550508080612672906142f3565b915050612627565b5060005b6002548110156126d1576013600082815260200190815260200160002060008082016000905560018201600090556002820160006126bc91906131ed565b505080806126c9906142f3565b91505061267e565b5060005b6007548110156127385760156000828152602001908152602001600020600080820160009055600182016000905560028201600061271391906131ed565b60038201600061272391906131ed565b50508080612730906142f3565b9150506126d5565b5060005b60095481101561279757601760008281526020019081526020016000206000808201600090556001820160009055600282016000905560038201600061278291906131ed565b5050808061278f906142f3565b91505061273c565b5060005b6006548110156127e6576014600082815260200190815260200160002060008082016000905560018201600090556002820160009055505080806127de906142f3565b91505061279b565b506000808190555060006002819055506000600381905550600060078190555060006009819055506000600681905550565b6000604051806040016040528085815260200186815250600e600060025481526020019081526020016000206000820151816000019081612859919061451b565b50602082015181600101908161286f919061451b565b5090505060016018600085815260200190815260200160002060010160026101000a81548160ff021916908315150217905550600260008154809291906128b5906142f3565b91905055506128f9826040518060400160405280600481526020017f676f616c00000000000000000000000000000000000000000000000000000000815250612a46565b6002549050949350505050565b6015602052806000526040600020600091509050806000015490806001015490806002018054612935906141aa565b80601f0160208091040260200160405190810160405280929190818152602001828054612961906141aa565b80156129ae5780601f10612983576101008083540402835291602001916129ae565b820191906000526020600020905b81548152906001019060200180831161299157829003601f168201915b5050505050908060030180546129c3906141aa565b80601f01602080910402602001604051908101604052809291908181526020018280546129ef906141aa565b8015612a3c5780601f10612a1157610100808354040283529160200191612a3c565b820191906000526020600020905b815481529060010190602001808311612a1f57829003601f168201915b5050505050905084565b6040518060800160405280600a5481526020014281526020018281526020018381525060116000600a54815260200190815260200160002060008201518160000155602082015181600101556040820151816002019081612aa7919061451b565b506060820151816003019081612abd919061451b565b50905050600a6000815480929190612ad4906142f3565b91905055505050565b80600f60008481526020019081526020016000206001019081612b00919061451b565b505050565b60606000805467ffffffffffffffff811115612b2457612b23613279565b5b604051908082528060200260200182016040528015612b5757816020015b6060815260200190600190039081612b425790505b50905060005b600054811015612c3757600b60008281526020019081526020016000206001018054612b88906141aa565b80601f0160208091040260200160405190810160405280929190818152602001828054612bb4906141aa565b8015612c015780601f10612bd657610100808354040283529160200191612c01565b820191906000526020600020905b815481529060010190602001808311612be457829003601f168201915b5050505050828281518110612c1957612c18614295565b5b60200260200101819052508080612c2f906142f3565b915050612b5d565b508091505090565b80600e60008481526020019081526020016000206001019081612c62919061451b565b505050565b600080600090505b600454811015612cb35782600d60008381526020019081526020016000206001015403612ca0576001915050612cb9565b8080612cab906142f3565b915050612c6f565b50600090505b919050565b60085481565b6016602052806000526040600020600091509050806000015490806001015490806002015490806003018054612cf9906141aa565b80601f0160208091040260200160405190810160405280929190818152602001828054612d25906141aa565b8015612d725780601f10612d4757610100808354040283529160200191612d72565b820191906000526020600020905b815481529060010190602001808311612d5557829003601f168201915b5050505050905084565b6000806000905060005b600854811015612e0257846016600083815260200190815260200160002060000154148015612de5575060166000828152602001908152602001600020600301604051612dd3919061427e565b60405180910390208480519060200120145b15612def57600191505b8080612dfa906142f3565b915050612d86565b508091505092915050565b60035481565b600060016018600084815260200190815260200160002060010160076101000a81548160ff02191690831515021790555060405180608001604052806009548152602001868152602001848152602001858152506017600060095481526020019081526020016000206000820151816000015560208201518160010155604082015181600201556060820151816003019081612eaf919061451b565b5090505060096000815480929190612ec6906142f3565b91905055506009549050949350505050565b600060405180606001604052808681526020018781526020016000815250600f60006003548152602001908152602001600020600082015181600001556020820151816001019081612f2a919061451b565b506040820151816002015590505060016018600085815260200190815260200160002060010160036101000a81548160ff02191690831515021790555060036000815480929190612f7a906142f3565b919050555060005b8451811015612fdf57612fb4600354600554878481518110612fa757612fa6614295565b5b602002602001015161318d565b60056000815480929190612fc7906142f3565b91905055508080612fd7906142f3565b915050612f82565b5061301f826040518060400160405280600481526020017f6964656100000000000000000000000000000000000000000000000000000000815250612a46565b600354905095945050505050565b6060600e60008381526020019081526020016000206001018054613050906141aa565b80601f016020809104026020016040519081016040528092919081815260200182805461307c906141aa565b80156130c95780601f1061309e576101008083540402835291602001916130c9565b820191906000526020600020905b8154815290600101906020018083116130ac57829003601f168201915b50505050509050919050565b60015481565b601360205280600052604060002060009150905080600001549080600101549080600201805461310a906141aa565b80601f0160208091040260200160405190810160405280929190818152602001828054613136906141aa565b80156131835780601f1061315857610100808354040283529160200191613183565b820191906000526020600020905b81548152906001019060200180831161316657829003601f168201915b5050505050905083565b60405180606001604052808481526020018381526020018281525060136000848152602001908152602001600020600082015181600001556020820151816001015560408201518160020190816131e4919061451b565b50905050505050565b5080546131f9906141aa565b6000825580601f1061320b575061322a565b601f016020900490600052602060002090810190613229919061322d565b5b50565b5b8082111561324657600081600090555060010161322e565b5090565b6000604051905090565b600080fd5b600080fd5b600080fd5b600080fd5b6000601f19601f8301169050919050565b7f4e487b7100000000000000000000000000000000000000000000000000000000600052604160045260246000fd5b6132b182613268565b810181811067ffffffffffffffff821117156132d0576132cf613279565b5b80604052505050565b60006132e361324a565b90506132ef82826132a8565b919050565b600067ffffffffffffffff82111561330f5761330e613279565b5b61331882613268565b9050602081019050919050565b82818337600083830152505050565b6000613347613342846132f4565b6132d9565b90508281526020810184848401111561336357613362613263565b5b61336e848285613325565b509392505050565b600082601f83011261338b5761338a61325e565b5b813561339b848260208601613334565b91505092915050565b6000602082840312156133ba576133b9613254565b5b600082013567ffffffffffffffff8111156133d8576133d7613259565b5b6133e484828501613376565b91505092915050565b600081519050919050565b600082825260208201905092915050565b6000819050602082019050919050565b600081519050919050565b600082825260208201905092915050565b60005b83811015613453578082015181840152602081019050613438565b60008484015250505050565b600061346a82613419565b6134748185613424565b9350613484818560208601613435565b61348d81613268565b840191505092915050565b60006134a4838361345f565b905092915050565b6000602082019050919050565b60006134c4826133ed565b6134ce81856133f8565b9350836020820285016134e085613409565b8060005b8581101561351c57848403895281516134fd8582613498565b9450613508836134ac565b925060208a019950506001810190506134e4565b50829750879550505050505092915050565b6000602082019050818103600083015261354881846134b9565b905092915050565b6000819050919050565b61356381613550565b82525050565b600060208201905061357e600083018461355a565b92915050565b61358d81613550565b811461359857600080fd5b50565b6000813590506135aa81613584565b92915050565b6000602082840312156135c6576135c5613254565b5b60006135d48482850161359b565b91505092915050565b60006060820190506135f2600083018661355a565b6135ff602083018561355a565b61360c604083018461355a565b949350505050565b600082825260208201905092915050565b600061363082613419565b61363a8185613614565b935061364a818560208601613435565b61365381613268565b840191505092915050565b600060608201905081810360008301526136788186613625565b9050818103602083015261368c8185613625565b905081810360408301526136a08184613625565b9050949350505050565b60006040820190506136bf600083018561355a565b6136cc602083018461355a565b9392505050565b60006080820190506136e8600083018761355a565b6136f5602083018661355a565b613702604083018561355a565b81810360608301526137148184613625565b905095945050505050565b6000606082019050613734600083018661355a565b81810360208301526137468185613625565b9050613755604083018461355a565b949350505050565b6000806040838503121561377457613773613254565b5b60006137828582860161359b565b92505060206137938582860161359b565b9150509250929050565b600081519050919050565b600082825260208201905092915050565b6000819050602082019050919050565b6137d281613550565b82525050565b60006137e483836137c9565b60208301905092915050565b6000602082019050919050565b60006138088261379d565b61381281856137a8565b935061381d836137b9565b8060005b8381101561384e57815161383588826137d8565b9750613840836137f0565b925050600181019050613821565b5085935050505092915050565b6000602082019050818103600083015261387581846137fd565b905092915050565b6000608082019050613892600083018761355a565b61389f602083018661355a565b81810360408301526138b18185613625565b905081810360608301526138c58184613625565b905095945050505050565b600080600080600060a086880312156138ec576138eb613254565b5b60006138fa8882890161359b565b955050602061390b8882890161359b565b945050604061391c8882890161359b565b935050606086013567ffffffffffffffff81111561393d5761393c613259565b5b61394988828901613376565b925050608086013567ffffffffffffffff81111561396a57613969613259565b5b61397688828901613376565b9150509295509295909350565b6000602082019050818103600083015261399d8184613625565b905092915050565b600080600080608085870312156139bf576139be613254565b5b60006139cd8782880161359b565b945050602085013567ffffffffffffffff8111156139ee576139ed613259565b5b6139fa87828801613376565b935050604085013567ffffffffffffffff811115613a1b57613a1a613259565b5b613a2787828801613376565b9250506060613a388782880161359b565b91505092959194509250565b60006040820190508181036000830152613a5e8185613625565b90508181036020830152613a728184613625565b90509392505050565b60008060008060808587031215613a9557613a94613254565b5b600085013567ffffffffffffffff811115613ab357613ab2613259565b5b613abf87828801613376565b945050602085013567ffffffffffffffff811115613ae057613adf613259565b5b613aec87828801613376565b935050604085013567ffffffffffffffff811115613b0d57613b0c613259565b5b613b1987828801613376565b9250506060613b2a8782880161359b565b91505092959194509250565b60008060408385031215613b4d57613b4c613254565b5b6000613b5b8582860161359b565b925050602083013567ffffffffffffffff811115613b7c57613b7b613259565b5b613b8885828601613376565b9150509250929050565b600080600060608486031215613bab57613baa613254565b5b6000613bb98682870161359b565b935050602084013567ffffffffffffffff811115613bda57613bd9613259565b5b613be686828701613376565b925050604084013567ffffffffffffffff811115613c0757613c06613259565b5b613c1386828701613376565b9150509250925092565b600080600060608486031215613c3657613c35613254565b5b6000613c448682870161359b565b9350506020613c558682870161359b565b925050604084013567ffffffffffffffff811115613c7657613c75613259565b5b613c8286828701613376565b9150509250925092565b60008060008060808587031215613ca657613ca5613254565b5b6000613cb48782880161359b565b9450506020613cc58782880161359b565b9350506040613cd68782880161359b565b925050606085013567ffffffffffffffff811115613cf757613cf6613259565b5b613d0387828801613376565b91505092959194509250565b60008115159050919050565b613d2481613d0f565b82525050565b600061012082019050613d40600083018c61355a565b613d4d602083018b613d1b565b613d5a604083018a613d1b565b613d676060830189613d1b565b613d746080830188613d1b565b613d8160a0830187613d1b565b613d8e60c0830186613d1b565b613d9b60e0830185613d1b565b613da9610100830184613d1b565b9a9950505050505050505050565b60008060008060808587031215613dd157613dd0613254565b5b600085013567ffffffffffffffff811115613def57613dee613259565b5b613dfb87828801613376565b945050602085013567ffffffffffffffff811115613e1c57613e1b613259565b5b613e2887828801613376565b9350506040613e398782880161359b565b925050606085013567ffffffffffffffff811115613e5a57613e59613259565b5b613e6687828801613376565b91505092959194509250565b60008060408385031215613e8957613e88613254565b5b600083013567ffffffffffffffff811115613ea757613ea6613259565b5b613eb385828601613376565b925050602083013567ffffffffffffffff811115613ed457613ed3613259565b5b613ee085828601613376565b9150509250929050565b6000602082019050613eff6000830184613d1b565b92915050565b60008060008060808587031215613f1f57613f1e613254565b5b6000613f2d8782880161359b565b945050602085013567ffffffffffffffff811115613f4e57613f4d613259565b5b613f5a87828801613376565b9350506040613f6b8782880161359b565b9250506060613f7c8782880161359b565b91505092959194509250565b600067ffffffffffffffff821115613fa357613fa2613279565b5b602082029050602081019050919050565b600080fd5b6000613fcc613fc784613f88565b6132d9565b90508083825260208201905060208402830185811115613fef57613fee613fb4565b5b835b8181101561403657803567ffffffffffffffff8111156140145761401361325e565b5b8086016140218982613376565b85526020850194505050602081019050613ff1565b5050509392505050565b600082601f8301126140555761405461325e565b5b8135614065848260208601613fb9565b91505092915050565b600080600080600060a0868803121561408a57614089613254565b5b600086013567ffffffffffffffff8111156140a8576140a7613259565b5b6140b488828901613376565b95505060206140c58882890161359b565b945050604086013567ffffffffffffffff8111156140e6576140e5613259565b5b6140f288828901614040565b93505060606141038882890161359b565b925050608086013567ffffffffffffffff81111561412457614123613259565b5b61413088828901613376565b9150509295509295909350565b6000606082019050614152600083018661355a565b61415f602083018561355a565b81810360408301526141718184613625565b9050949350505050565b7f4e487b7100000000000000000000000000000000000000000000000000000000600052602260045260246000fd5b600060028204905060018216806141c257607f821691505b6020821081036141d5576141d461417b565b5b50919050565b600081905092915050565b60008190508160005260206000209050919050565b60008154614208816141aa565b61421281866141db565b9450600182166000811461422d576001811461424257614275565b60ff1983168652811515820286019350614275565b61424b856141e6565b60005b8381101561426d5781548189015260018201915060208101905061424e565b838801955050505b50505092915050565b600061428a82846141fb565b915081905092915050565b7f4e487b7100000000000000000000000000000000000000000000000000000000600052603260045260246000fd5b7f4e487b7100000000000000000000000000000000000000000000000000000000600052601160045260246000fd5b60006142fe82613550565b91507fffffffffffffffffffffffffffffffffffffffffffffffffffffffffffffffff82036143305761432f6142c4565b5b600182019050919050565b600061434682613550565b915061435183613550565b9250828201905080821115614369576143686142c4565b5b92915050565b60008190508160005260206000209050919050565b60006020601f8301049050919050565b600082821b905092915050565b6000600883026143d17fffffffffffffffffffffffffffffffffffffffffffffffffffffffffffffffff82614394565b6143db8683614394565b95508019841693508086168417925050509392505050565b6000819050919050565b600061441861441361440e84613550565b6143f3565b613550565b9050919050565b6000819050919050565b614432836143fd565b61444661443e8261441f565b8484546143a1565b825550505050565b600090565b61445b61444e565b614466818484614429565b505050565b5b8181101561448a5761447f600082614453565b60018101905061446c565b5050565b601f8211156144cf576144a08161436f565b6144a984614384565b810160208510156144b8578190505b6144cc6144c485614384565b83018261446b565b50505b505050565b600082821c905092915050565b60006144f2600019846008026144d4565b1980831691505092915050565b600061450b83836144e1565b9150826002028217905092915050565b61452482613419565b67ffffffffffffffff81111561453d5761453c613279565b5b61454782546141aa565b61455282828561448e565b600060209050601f8311600181146145855760008415614573578287015190505b61457d85826144ff565b8655506145e5565b601f1984166145938661436f565b60005b828110156145bb57848901518255600182019150602085019450602081019050614596565b868310156145d857848901516145d4601f8916826144e1565b8355505b6001600288020188555050505b50505050505056fea26469706673582212203680ed0812a95bf9a7b8060236a28e1be932c53d90c22a796288dac85ba55dc664736f6c63430008110033","opcodes":"PUSH1 0x80 PUSH1 0x40 MSTORE CALLVALUE DUP1 ISZERO PUSH2 0x10 JUMPI PUSH1 0x0 DUP1 REVERT JUMPDEST POP PUSH2 0x4623 DUP1 PUSH2 0x20 PUSH1 0x0 CODECOPY PUSH1 0x0 RETURN INVALID PUSH1 0x80 PUSH1 0x40 MSTORE CALLVALUE DUP1 ISZERO PUSH2 0x10 JUMPI PUSH1 0x0 DUP1 REVERT JUMPDEST POP PUSH1 0x4 CALLDATASIZE LT PUSH2 0x378 JUMPI PUSH1 0x0 CALLDATALOAD PUSH1 0xE0 SHR DUP1 PUSH4 0x8AC4110C GT PUSH2 0x1D3 JUMPI DUP1 PUSH4 0xBDA00335 GT PUSH2 0x104 JUMPI DUP1 PUSH4 0xCD230809 GT PUSH2 0xA2 JUMPI DUP1 PUSH4 0xE1B011A0 GT PUSH2 0x7C JUMPI DUP1 PUSH4 0xE1B011A0 EQ PUSH2 0xBBF JUMPI DUP1 PUSH4 0xE32ACC1A EQ PUSH2 0xBEF JUMPI DUP1 PUSH4 0xEC245802 EQ PUSH2 0xC1F JUMPI DUP1 PUSH4 0xFF4A37EF EQ PUSH2 0xC3D JUMPI PUSH2 0x378 JUMP JUMPDEST DUP1 PUSH4 0xCD230809 EQ PUSH2 0xB41 JUMPI DUP1 PUSH4 0xD3791B20 EQ PUSH2 0xB71 JUMPI DUP1 PUSH4 0xD9FC52DB EQ PUSH2 0xB8F JUMPI PUSH2 0x378 JUMP JUMPDEST DUP1 PUSH4 0xC29595C5 GT PUSH2 0xDE JUMPI DUP1 PUSH4 0xC29595C5 EQ PUSH2 0xAA4 JUMPI DUP1 PUSH4 0xC7AF4EE5 EQ PUSH2 0xAC0 JUMPI DUP1 PUSH4 0xCA013F17 EQ PUSH2 0xAF0 JUMPI DUP1 PUSH4 0xCACE8D46 EQ PUSH2 0xB0E JUMPI PUSH2 0x378 JUMP JUMPDEST DUP1 PUSH4 0xBDA00335 EQ PUSH2 0xA4E JUMPI DUP1 PUSH4 0xC04E7430 EQ PUSH2 0xA6A JUMPI DUP1 PUSH4 0xC04FE978 EQ PUSH2 0xA86 JUMPI PUSH2 0x378 JUMP JUMPDEST DUP1 PUSH4 0xA1CA9178 GT PUSH2 0x171 JUMPI DUP1 PUSH4 0xAA4CDF2A GT PUSH2 0x14B JUMPI DUP1 PUSH4 0xAA4CDF2A EQ PUSH2 0x9B1 JUMPI DUP1 PUSH4 0xB16060A6 EQ PUSH2 0x9E1 JUMPI DUP1 PUSH4 0xB39A38BD EQ PUSH2 0x9EB JUMPI DUP1 PUSH4 0xB527D45E EQ PUSH2 0xA1B JUMPI PUSH2 0x378 JUMP JUMPDEST DUP1 PUSH4 0xA1CA9178 EQ PUSH2 0x92B JUMPI DUP1 PUSH4 0xA428A47F EQ PUSH2 0x95B JUMPI DUP1 PUSH4 0xAA2BF5D3 EQ PUSH2 0x993 JUMPI PUSH2 0x378 JUMP JUMPDEST DUP1 PUSH4 0x8D6B30A1 GT PUSH2 0x1AD JUMPI DUP1 PUSH4 0x8D6B30A1 EQ PUSH2 0x88F JUMPI DUP1 PUSH4 0x9077007D EQ PUSH2 0x8BF JUMPI DUP1 PUSH4 0x934C5F00 EQ PUSH2 0x8DD JUMPI DUP1 PUSH4 0x97EE7606 EQ PUSH2 0x90D JUMPI PUSH2 0x378 JUMP JUMPDEST DUP1 PUSH4 0x8AC4110C EQ PUSH2 0x825 JUMPI DUP1 PUSH4 0x8C70034A EQ PUSH2 0x843 JUMPI DUP1 PUSH4 0x8D3D2595 EQ PUSH2 0x85F JUMPI PUSH2 0x378 JUMP JUMPDEST DUP1 PUSH4 0x4BE7ADB5 GT PUSH2 0x2AD JUMPI DUP1 PUSH4 0x7F2035D4 GT PUSH2 0x24B JUMPI DUP1 PUSH4 0x812FAE1F GT PUSH2 0x225 JUMPI DUP1 PUSH4 0x812FAE1F EQ PUSH2 0x78D JUMPI DUP1 PUSH4 0x86FFA45B EQ PUSH2 0x7BD JUMPI DUP1 PUSH4 0x87633EB2 EQ PUSH2 0x7ED JUMPI DUP1 PUSH4 0x881DE858 EQ PUSH2 0x809 JUMPI PUSH2 0x378 JUMP JUMPDEST DUP1 PUSH4 0x7F2035D4 EQ PUSH2 0x6FA JUMPI DUP1 PUSH4 0x7FC543EC EQ PUSH2 0x72B JUMPI DUP1 PUSH4 0x803F5B9F EQ PUSH2 0x75D JUMPI PUSH2 0x378 JUMP JUMPDEST DUP1 PUSH4 0x5D907DA1 GT PUSH2 0x287 JUMPI DUP1 PUSH4 0x5D907DA1 EQ PUSH2 0x64C JUMPI DUP1 PUSH4 0x6ECDA4EE EQ PUSH2 0x67C JUMPI DUP1 PUSH4 0x787F19C7 EQ PUSH2 0x6AC JUMPI DUP1 PUSH4 0x7BBD582D EQ PUSH2 0x6DC JUMPI PUSH2 0x378 JUMP JUMPDEST DUP1 PUSH4 0x4BE7ADB5 EQ PUSH2 0x5CD JUMPI DUP1 PUSH4 0x54A9FB18 EQ PUSH2 0x5FD JUMPI DUP1 PUSH4 0x5996278F EQ PUSH2 0x630 JUMPI PUSH2 0x378 JUMP JUMPDEST DUP1 PUSH4 0x20959ED0 GT PUSH2 0x31A JUMPI DUP1 PUSH4 0x330B8F26 GT PUSH2 0x2F4 JUMPI DUP1 PUSH4 0x330B8F26 EQ PUSH2 0x519 JUMPI DUP1 PUSH4 0x3F87A2F4 EQ PUSH2 0x54A JUMPI DUP1 PUSH4 0x468D0C80 EQ PUSH2 0x57D JUMPI DUP1 PUSH4 0x4A797BD7 EQ PUSH2 0x5AF JUMPI PUSH2 0x378 JUMP JUMPDEST DUP1 PUSH4 0x20959ED0 EQ PUSH2 0x499 JUMPI DUP1 PUSH4 0x27A568B9 EQ PUSH2 0x4C9 JUMPI DUP1 PUSH4 0x29B56F60 EQ PUSH2 0x4FB JUMPI PUSH2 0x378 JUMP JUMPDEST DUP1 PUSH4 0x13BF4CEA GT PUSH2 0x356 JUMPI DUP1 PUSH4 0x13BF4CEA EQ PUSH2 0x3FB JUMPI DUP1 PUSH4 0x1B592AEB EQ PUSH2 0x419 JUMPI DUP1 PUSH4 0x1BA44C4C EQ PUSH2 0x437 JUMPI DUP1 PUSH4 0x1E9AC9F5 EQ PUSH2 0x469 JUMPI PUSH2 0x378 JUMP JUMPDEST DUP1 PUSH4 0x377D44A EQ PUSH2 0x37D JUMPI DUP1 PUSH4 0x1171B621 EQ PUSH2 0x3AD JUMPI DUP1 PUSH4 0x131D44F2 EQ PUSH2 0x3CB JUMPI JUMPDEST PUSH1 0x0 DUP1 REVERT JUMPDEST PUSH2 0x397 PUSH1 0x4 DUP1 CALLDATASIZE SUB DUP2 ADD SWAP1 PUSH2 0x392 SWAP2 SWAP1 PUSH2 0x33A4 JUMP JUMPDEST PUSH2 0xC6F JUMP JUMPDEST PUSH1 0x40 MLOAD PUSH2 0x3A4 SWAP2 SWAP1 PUSH2 0x352E JUMP JUMPDEST PUSH1 0x40 MLOAD DUP1 SWAP2 SUB SWAP1 RETURN JUMPDEST PUSH2 0x3B5 PUSH2 0xDF9 JUMP JUMPDEST PUSH1 0x40 MLOAD PUSH2 0x3C2 SWAP2 SWAP1 PUSH2 0x3569 JUMP JUMPDEST PUSH1 0x40 MLOAD DUP1 SWAP2 SUB SWAP1 RETURN JUMPDEST PUSH2 0x3E5 PUSH1 0x4 DUP1 CALLDATASIZE SUB DUP2 ADD SWAP1 PUSH2 0x3E0 SWAP2 SWAP1 PUSH2 0x35B0 JUMP JUMPDEST PUSH2 0xDFF JUMP JUMPDEST PUSH1 0x40 MLOAD PUSH2 0x3F2 SWAP2 SWAP1 PUSH2 0x352E JUMP JUMPDEST PUSH1 0x40 MLOAD DUP1 SWAP2 SUB SWAP1 RETURN JUMPDEST PUSH2 0x403 PUSH2 0xF6E JUMP JUMPDEST PUSH1 0x40 MLOAD PUSH2 0x410 SWAP2 SWAP1 PUSH2 0x3569 JUMP JUMPDEST PUSH1 0x40 MLOAD DUP1 SWAP2 SUB SWAP1 RETURN JUMPDEST PUSH2 0x421 PUSH2 0xF74 JUMP JUMPDEST PUSH1 0x40 MLOAD PUSH2 0x42E SWAP2 SWAP1 PUSH2 0x3569 JUMP JUMPDEST PUSH1 0x40 MLOAD DUP1 SWAP2 SUB SWAP1 RETURN JUMPDEST PUSH2 0x451 PUSH1 0x4 DUP1 CALLDATASIZE SUB DUP2 ADD SWAP1 PUSH2 0x44C SWAP2 SWAP1 PUSH2 0x35B0 JUMP JUMPDEST PUSH2 0xF7A JUMP JUMPDEST PUSH1 0x40 MLOAD PUSH2 0x460 SWAP4 SWAP3 SWAP2 SWAP1 PUSH2 0x35DD JUMP JUMPDEST PUSH1 0x40 MLOAD DUP1 SWAP2 SUB SWAP1 RETURN JUMPDEST PUSH2 0x483 PUSH1 0x4 DUP1 CALLDATASIZE SUB DUP2 ADD SWAP1 PUSH2 0x47E SWAP2 SWAP1 PUSH2 0x33A4 JUMP JUMPDEST PUSH2 0xFA4 JUMP JUMPDEST PUSH1 0x40 MLOAD PUSH2 0x490 SWAP2 SWAP1 PUSH2 0x3569 JUMP JUMPDEST PUSH1 0x40 MLOAD DUP1 SWAP2 SUB SWAP1 RETURN JUMPDEST PUSH2 0x4B3 PUSH1 0x4 DUP1 CALLDATASIZE SUB DUP2 ADD SWAP1 PUSH2 0x4AE SWAP2 SWAP1 PUSH2 0x35B0 JUMP JUMPDEST PUSH2 0x1015 JUMP JUMPDEST PUSH1 0x40 MLOAD PUSH2 0x4C0 SWAP2 SWAP1 PUSH2 0x3569 JUMP JUMPDEST PUSH1 0x40 MLOAD DUP1 SWAP2 SUB SWAP1 RETURN JUMPDEST PUSH2 0x4E3 PUSH1 0x4 DUP1 CALLDATASIZE SUB DUP2 ADD SWAP1 PUSH2 0x4DE SWAP2 SWAP1 PUSH2 0x35B0 JUMP JUMPDEST PUSH2 0x102D JUMP JUMPDEST PUSH1 0x40 MLOAD PUSH2 0x4F2 SWAP4 SWAP3 SWAP2 SWAP1 PUSH2 0x365E JUMP JUMPDEST PUSH1 0x40 MLOAD DUP1 SWAP2 SUB SWAP1 RETURN JUMPDEST PUSH2 0x503 PUSH2 0x11EF JUMP JUMPDEST PUSH1 0x40 MLOAD PUSH2 0x510 SWAP2 SWAP1 PUSH2 0x352E JUMP JUMPDEST PUSH1 0x40 MLOAD DUP1 SWAP2 SUB SWAP1 RETURN JUMPDEST PUSH2 0x533 PUSH1 0x4 DUP1 CALLDATASIZE SUB DUP2 ADD SWAP1 PUSH2 0x52E SWAP2 SWAP1 PUSH2 0x35B0 JUMP JUMPDEST PUSH2 0x132A JUMP JUMPDEST PUSH1 0x40 MLOAD PUSH2 0x541 SWAP3 SWAP2 SWAP1 PUSH2 0x36AA JUMP JUMPDEST PUSH1 0x40 MLOAD DUP1 SWAP2 SUB SWAP1 RETURN JUMPDEST PUSH2 0x564 PUSH1 0x4 DUP1 CALLDATASIZE SUB DUP2 ADD SWAP1 PUSH2 0x55F SWAP2 SWAP1 PUSH2 0x35B0 JUMP JUMPDEST PUSH2 0x134E JUMP JUMPDEST PUSH1 0x40 MLOAD PUSH2 0x574 SWAP5 SWAP4 SWAP3 SWAP2 SWAP1 PUSH2 0x36D3 JUMP JUMPDEST PUSH1 0x40 MLOAD DUP1 SWAP2 SUB SWAP1 RETURN JUMPDEST PUSH2 0x597 PUSH1 0x4 DUP1 CALLDATASIZE SUB DUP2 ADD SWAP1 PUSH2 0x592 SWAP2 SWAP1 PUSH2 0x35B0 JUMP JUMPDEST PUSH2 0x1406 JUMP JUMPDEST PUSH1 0x40 MLOAD PUSH2 0x5A6 SWAP4 SWAP3 SWAP2 SWAP1 PUSH2 0x371F JUMP JUMPDEST PUSH1 0x40 MLOAD DUP1 SWAP2 SUB SWAP1 RETURN JUMPDEST PUSH2 0x5B7 PUSH2 0x14B8 JUMP JUMPDEST PUSH1 0x40 MLOAD PUSH2 0x5C4 SWAP2 SWAP1 PUSH2 0x3569 JUMP JUMPDEST PUSH1 0x40 MLOAD DUP1 SWAP2 SUB SWAP1 RETURN JUMPDEST PUSH2 0x5E7 PUSH1 0x4 DUP1 CALLDATASIZE SUB DUP2 ADD SWAP1 PUSH2 0x5E2 SWAP2 SWAP1 PUSH2 0x375D JUMP JUMPDEST PUSH2 0x14BE JUMP JUMPDEST PUSH1 0x40 MLOAD PUSH2 0x5F4 SWAP2 SWAP1 PUSH2 0x385B JUMP JUMPDEST PUSH1 0x40 MLOAD DUP1 SWAP2 SUB SWAP1 RETURN JUMPDEST PUSH2 0x617 PUSH1 0x4 DUP1 CALLDATASIZE SUB DUP2 ADD SWAP1 PUSH2 0x612 SWAP2 SWAP1 PUSH2 0x35B0 JUMP JUMPDEST PUSH2 0x15C4 JUMP JUMPDEST PUSH1 0x40 MLOAD PUSH2 0x627 SWAP5 SWAP4 SWAP3 SWAP2 SWAP1 PUSH2 0x387D JUMP JUMPDEST PUSH1 0x40 MLOAD DUP1 SWAP2 SUB SWAP1 RETURN JUMPDEST PUSH2 0x64A PUSH1 0x4 DUP1 CALLDATASIZE SUB DUP2 ADD SWAP1 PUSH2 0x645 SWAP2 SWAP1 PUSH2 0x38D0 JUMP JUMPDEST PUSH2 0x1704 JUMP JUMPDEST STOP JUMPDEST PUSH2 0x666 PUSH1 0x4 DUP1 CALLDATASIZE SUB DUP2 ADD SWAP1 PUSH2 0x661 SWAP2 SWAP1 PUSH2 0x35B0 JUMP JUMPDEST PUSH2 0x18A8 JUMP JUMPDEST PUSH1 0x40 MLOAD PUSH2 0x673 SWAP2 SWAP1 PUSH2 0x3983 JUMP JUMPDEST PUSH1 0x40 MLOAD DUP1 SWAP2 SUB SWAP1 RETURN JUMPDEST PUSH2 0x696 PUSH1 0x4 DUP1 CALLDATASIZE SUB DUP2 ADD SWAP1 PUSH2 0x691 SWAP2 SWAP1 PUSH2 0x35B0 JUMP JUMPDEST PUSH2 0x1950 JUMP JUMPDEST PUSH1 0x40 MLOAD PUSH2 0x6A3 SWAP2 SWAP1 PUSH2 0x3983 JUMP JUMPDEST PUSH1 0x40 MLOAD DUP1 SWAP2 SUB SWAP1 RETURN JUMPDEST PUSH2 0x6C6 PUSH1 0x4 DUP1 CALLDATASIZE SUB DUP2 ADD SWAP1 PUSH2 0x6C1 SWAP2 SWAP1 PUSH2 0x39A5 JUMP JUMPDEST PUSH2 0x19F0 JUMP JUMPDEST PUSH1 0x40 MLOAD PUSH2 0x6D3 SWAP2 SWAP1 PUSH2 0x3569 JUMP JUMPDEST PUSH1 0x40 MLOAD DUP1 SWAP2 SUB SWAP1 RETURN JUMPDEST PUSH2 0x6E4 PUSH2 0x1AC1 JUMP JUMPDEST PUSH1 0x40 MLOAD PUSH2 0x6F1 SWAP2 SWAP1 PUSH2 0x3569 JUMP JUMPDEST PUSH1 0x40 MLOAD DUP1 SWAP2 SUB SWAP1 RETURN JUMPDEST PUSH2 0x714 PUSH1 0x4 DUP1 CALLDATASIZE SUB DUP2 ADD SWAP1 PUSH2 0x70F SWAP2 SWAP1 PUSH2 0x35B0 JUMP JUMPDEST PUSH2 0x1AC7 JUMP JUMPDEST PUSH1 0x40 MLOAD PUSH2 0x722 SWAP3 SWAP2 SWAP1 PUSH2 0x3A44 JUMP JUMPDEST PUSH1 0x40 MLOAD DUP1 SWAP2 SUB SWAP1 RETURN JUMPDEST PUSH2 0x745 PUSH1 0x4 DUP1 CALLDATASIZE SUB DUP2 ADD SWAP1 PUSH2 0x740 SWAP2 SWAP1 PUSH2 0x35B0 JUMP JUMPDEST PUSH2 0x1BFB JUMP JUMPDEST PUSH1 0x40 MLOAD PUSH2 0x754 SWAP4 SWAP3 SWAP2 SWAP1 PUSH2 0x35DD JUMP JUMPDEST PUSH1 0x40 MLOAD DUP1 SWAP2 SUB SWAP1 RETURN JUMPDEST PUSH2 0x777 PUSH1 0x4 DUP1 CALLDATASIZE SUB DUP2 ADD SWAP1 PUSH2 0x772 SWAP2 SWAP1 PUSH2 0x35B0 JUMP JUMPDEST PUSH2 0x1C25 JUMP JUMPDEST PUSH1 0x40 MLOAD PUSH2 0x784 SWAP2 SWAP1 PUSH2 0x385B JUMP JUMPDEST PUSH1 0x40 MLOAD DUP1 SWAP2 SUB SWAP1 RETURN JUMPDEST PUSH2 0x7A7 PUSH1 0x4 DUP1 CALLDATASIZE SUB DUP2 ADD SWAP1 PUSH2 0x7A2 SWAP2 SWAP1 PUSH2 0x35B0 JUMP JUMPDEST PUSH2 0x1D08 JUMP JUMPDEST PUSH1 0x40 MLOAD PUSH2 0x7B4 SWAP2 SWAP1 PUSH2 0x385B JUMP JUMPDEST PUSH1 0x40 MLOAD DUP1 SWAP2 SUB SWAP1 RETURN JUMPDEST PUSH2 0x7D7 PUSH1 0x4 DUP1 CALLDATASIZE SUB DUP2 ADD SWAP1 PUSH2 0x7D2 SWAP2 SWAP1 PUSH2 0x3A7B JUMP JUMPDEST PUSH2 0x1DEB JUMP JUMPDEST PUSH1 0x40 MLOAD PUSH2 0x7E4 SWAP2 SWAP1 PUSH2 0x3569 JUMP JUMPDEST PUSH1 0x40 MLOAD DUP1 SWAP2 SUB SWAP1 RETURN JUMPDEST PUSH2 0x807 PUSH1 0x4 DUP1 CALLDATASIZE SUB DUP2 ADD SWAP1 PUSH2 0x802 SWAP2 SWAP1 PUSH2 0x3B36 JUMP JUMPDEST PUSH2 0x1F0B JUMP JUMPDEST STOP JUMPDEST PUSH2 0x823 PUSH1 0x4 DUP1 CALLDATASIZE SUB DUP2 ADD SWAP1 PUSH2 0x81E SWAP2 SWAP1 PUSH2 0x3B92 JUMP JUMPDEST PUSH2 0x1F30 JUMP JUMPDEST STOP JUMPDEST PUSH2 0x82D PUSH2 0x1F7D JUMP JUMPDEST PUSH1 0x40 MLOAD PUSH2 0x83A SWAP2 SWAP1 PUSH2 0x3569 JUMP JUMPDEST PUSH1 0x40 MLOAD DUP1 SWAP2 SUB SWAP1 RETURN JUMPDEST PUSH2 0x85D PUSH1 0x4 DUP1 CALLDATASIZE SUB DUP2 ADD SWAP1 PUSH2 0x858 SWAP2 SWAP1 PUSH2 0x3C1D JUMP JUMPDEST PUSH2 0x1F83 JUMP JUMPDEST STOP JUMPDEST PUSH2 0x879 PUSH1 0x4 DUP1 CALLDATASIZE SUB DUP2 ADD SWAP1 PUSH2 0x874 SWAP2 SWAP1 PUSH2 0x35B0 JUMP JUMPDEST PUSH2 0x204F JUMP JUMPDEST PUSH1 0x40 MLOAD PUSH2 0x886 SWAP2 SWAP1 PUSH2 0x3983 JUMP JUMPDEST PUSH1 0x40 MLOAD DUP1 SWAP2 SUB SWAP1 RETURN JUMPDEST PUSH2 0x8A9 PUSH1 0x4 DUP1 CALLDATASIZE SUB DUP2 ADD SWAP1 PUSH2 0x8A4 SWAP2 SWAP1 PUSH2 0x3C8C JUMP JUMPDEST PUSH2 0x20F7 JUMP JUMPDEST PUSH1 0x40 MLOAD PUSH2 0x8B6 SWAP2 SWAP1 PUSH2 0x3569 JUMP JUMPDEST PUSH1 0x40 MLOAD DUP1 SWAP2 SUB SWAP1 RETURN JUMPDEST PUSH2 0x8C7 PUSH2 0x21DD JUMP JUMPDEST PUSH1 0x40 MLOAD PUSH2 0x8D4 SWAP2 SWAP1 PUSH2 0x3569 JUMP JUMPDEST PUSH1 0x40 MLOAD DUP1 SWAP2 SUB SWAP1 RETURN JUMPDEST PUSH2 0x8F7 PUSH1 0x4 DUP1 CALLDATASIZE SUB DUP2 ADD SWAP1 PUSH2 0x8F2 SWAP2 SWAP1 PUSH2 0x3C8C JUMP JUMPDEST PUSH2 0x21E3 JUMP JUMPDEST PUSH1 0x40 MLOAD PUSH2 0x904 SWAP2 SWAP1 PUSH2 0x3569 JUMP JUMPDEST PUSH1 0x40 MLOAD DUP1 SWAP2 SUB SWAP1 RETURN JUMPDEST PUSH2 0x915 PUSH2 0x2277 JUMP JUMPDEST PUSH1 0x40 MLOAD PUSH2 0x922 SWAP2 SWAP1 PUSH2 0x352E JUMP JUMPDEST PUSH1 0x40 MLOAD DUP1 SWAP2 SUB SWAP1 RETURN JUMPDEST PUSH2 0x945 PUSH1 0x4 DUP1 CALLDATASIZE SUB DUP2 ADD SWAP1 PUSH2 0x940 SWAP2 SWAP1 PUSH2 0x33A4 JUMP JUMPDEST PUSH2 0x23B2 JUMP JUMPDEST PUSH1 0x40 MLOAD PUSH2 0x952 SWAP2 SWAP1 PUSH2 0x3569 JUMP JUMPDEST PUSH1 0x40 MLOAD DUP1 SWAP2 SUB SWAP1 RETURN JUMPDEST PUSH2 0x975 PUSH1 0x4 DUP1 CALLDATASIZE SUB DUP2 ADD SWAP1 PUSH2 0x970 SWAP2 SWAP1 PUSH2 0x35B0 JUMP JUMPDEST PUSH2 0x2423 JUMP JUMPDEST PUSH1 0x40 MLOAD PUSH2 0x98A SWAP10 SWAP9 SWAP8 SWAP7 SWAP6 SWAP5 SWAP4 SWAP3 SWAP2 SWAP1 PUSH2 0x3D2A JUMP JUMPDEST PUSH1 0x40 MLOAD DUP1 SWAP2 SUB SWAP1 RETURN JUMPDEST PUSH2 0x99B PUSH2 0x24D9 JUMP JUMPDEST PUSH1 0x40 MLOAD PUSH2 0x9A8 SWAP2 SWAP1 PUSH2 0x3569 JUMP JUMPDEST PUSH1 0x40 MLOAD DUP1 SWAP2 SUB SWAP1 RETURN JUMPDEST PUSH2 0x9CB PUSH1 0x4 DUP1 CALLDATASIZE SUB DUP2 ADD SWAP1 PUSH2 0x9C6 SWAP2 SWAP1 PUSH2 0x33A4 JUMP JUMPDEST PUSH2 0x24DF JUMP JUMPDEST PUSH1 0x40 MLOAD PUSH2 0x9D8 SWAP2 SWAP1 PUSH2 0x3569 JUMP JUMPDEST PUSH1 0x40 MLOAD DUP1 SWAP2 SUB SWAP1 RETURN JUMPDEST PUSH2 0x9E9 PUSH2 0x2566 JUMP JUMPDEST STOP JUMPDEST PUSH2 0xA05 PUSH1 0x4 DUP1 CALLDATASIZE SUB DUP2 ADD SWAP1 PUSH2 0xA00 SWAP2 SWAP1 PUSH2 0x3DB7 JUMP JUMPDEST PUSH2 0x2818 JUMP JUMPDEST PUSH1 0x40 MLOAD PUSH2 0xA12 SWAP2 SWAP1 PUSH2 0x3569 JUMP JUMPDEST PUSH1 0x40 MLOAD DUP1 SWAP2 SUB SWAP1 RETURN JUMPDEST PUSH2 0xA35 PUSH1 0x4 DUP1 CALLDATASIZE SUB DUP2 ADD SWAP1 PUSH2 0xA30 SWAP2 SWAP1 PUSH2 0x35B0 JUMP JUMPDEST PUSH2 0x2906 JUMP JUMPDEST PUSH1 0x40 MLOAD PUSH2 0xA45 SWAP5 SWAP4 SWAP3 SWAP2 SWAP1 PUSH2 0x387D JUMP JUMPDEST PUSH1 0x40 MLOAD DUP1 SWAP2 SUB SWAP1 RETURN JUMPDEST PUSH2 0xA68 PUSH1 0x4 DUP1 CALLDATASIZE SUB DUP2 ADD SWAP1 PUSH2 0xA63 SWAP2 SWAP1 PUSH2 0x3E72 JUMP JUMPDEST PUSH2 0x2A46 JUMP JUMPDEST STOP JUMPDEST PUSH2 0xA84 PUSH1 0x4 DUP1 CALLDATASIZE SUB DUP2 ADD SWAP1 PUSH2 0xA7F SWAP2 SWAP1 PUSH2 0x3B36 JUMP JUMPDEST PUSH2 0x2ADD JUMP JUMPDEST STOP JUMPDEST PUSH2 0xA8E PUSH2 0x2B05 JUMP JUMPDEST PUSH1 0x40 MLOAD PUSH2 0xA9B SWAP2 SWAP1 PUSH2 0x352E JUMP JUMPDEST PUSH1 0x40 MLOAD DUP1 SWAP2 SUB SWAP1 RETURN JUMPDEST PUSH2 0xABE PUSH1 0x4 DUP1 CALLDATASIZE SUB DUP2 ADD SWAP1 PUSH2 0xAB9 SWAP2 SWAP1 PUSH2 0x3B36 JUMP JUMPDEST PUSH2 0x2C3F JUMP JUMPDEST STOP JUMPDEST PUSH2 0xADA PUSH1 0x4 DUP1 CALLDATASIZE SUB DUP2 ADD SWAP1 PUSH2 0xAD5 SWAP2 SWAP1 PUSH2 0x35B0 JUMP JUMPDEST PUSH2 0x2C67 JUMP JUMPDEST PUSH1 0x40 MLOAD PUSH2 0xAE7 SWAP2 SWAP1 PUSH2 0x3EEA JUMP JUMPDEST PUSH1 0x40 MLOAD DUP1 SWAP2 SUB SWAP1 RETURN JUMPDEST PUSH2 0xAF8 PUSH2 0x2CBE JUMP JUMPDEST PUSH1 0x40 MLOAD PUSH2 0xB05 SWAP2 SWAP1 PUSH2 0x3569 JUMP JUMPDEST PUSH1 0x40 MLOAD DUP1 SWAP2 SUB SWAP1 RETURN JUMPDEST PUSH2 0xB28 PUSH1 0x4 DUP1 CALLDATASIZE SUB DUP2 ADD SWAP1 PUSH2 0xB23 SWAP2 SWAP1 PUSH2 0x35B0 JUMP JUMPDEST PUSH2 0x2CC4 JUMP JUMPDEST PUSH1 0x40 MLOAD PUSH2 0xB38 SWAP5 SWAP4 SWAP3 SWAP2 SWAP1 PUSH2 0x36D3 JUMP JUMPDEST PUSH1 0x40 MLOAD DUP1 SWAP2 SUB SWAP1 RETURN JUMPDEST PUSH2 0xB5B PUSH1 0x4 DUP1 CALLDATASIZE SUB DUP2 ADD SWAP1 PUSH2 0xB56 SWAP2 SWAP1 PUSH2 0x3B36 JUMP JUMPDEST PUSH2 0x2D7C JUMP JUMPDEST PUSH1 0x40 MLOAD PUSH2 0xB68 SWAP2 SWAP1 PUSH2 0x3EEA JUMP JUMPDEST PUSH1 0x40 MLOAD DUP1 SWAP2 SUB SWAP1 RETURN JUMPDEST PUSH2 0xB79 PUSH2 0x2E0D JUMP JUMPDEST PUSH1 0x40 MLOAD PUSH2 0xB86 SWAP2 SWAP1 PUSH2 0x3569 JUMP JUMPDEST PUSH1 0x40 MLOAD DUP1 SWAP2 SUB SWAP1 RETURN JUMPDEST PUSH2 0xBA9 PUSH1 0x4 DUP1 CALLDATASIZE SUB DUP2 ADD SWAP1 PUSH2 0xBA4 SWAP2 SWAP1 PUSH2 0x3F05 JUMP JUMPDEST PUSH2 0x2E13 JUMP JUMPDEST PUSH1 0x40 MLOAD PUSH2 0xBB6 SWAP2 SWAP1 PUSH2 0x3569 JUMP JUMPDEST PUSH1 0x40 MLOAD DUP1 SWAP2 SUB SWAP1 RETURN JUMPDEST PUSH2 0xBD9 PUSH1 0x4 DUP1 CALLDATASIZE SUB DUP2 ADD SWAP1 PUSH2 0xBD4 SWAP2 SWAP1 PUSH2 0x406E JUMP JUMPDEST PUSH2 0x2ED8 JUMP JUMPDEST PUSH1 0x40 MLOAD PUSH2 0xBE6 SWAP2 SWAP1 PUSH2 0x3569 JUMP JUMPDEST PUSH1 0x40 MLOAD DUP1 SWAP2 SUB SWAP1 RETURN JUMPDEST PUSH2 0xC09 PUSH1 0x4 DUP1 CALLDATASIZE SUB DUP2 ADD SWAP1 PUSH2 0xC04 SWAP2 SWAP1 PUSH2 0x35B0 JUMP JUMPDEST PUSH2 0x302D JUMP JUMPDEST PUSH1 0x40 MLOAD PUSH2 0xC16 SWAP2 SWAP1 PUSH2 0x3983 JUMP JUMPDEST PUSH1 0x40 MLOAD DUP1 SWAP2 SUB SWAP1 RETURN JUMPDEST PUSH2 0xC27 PUSH2 0x30D5 JUMP JUMPDEST PUSH1 0x40 MLOAD PUSH2 0xC34 SWAP2 SWAP1 PUSH2 0x3569 JUMP JUMPDEST PUSH1 0x40 MLOAD DUP1 SWAP2 SUB SWAP1 RETURN JUMPDEST PUSH2 0xC57 PUSH1 0x4 DUP1 CALLDATASIZE SUB DUP2 ADD SWAP1 PUSH2 0xC52 SWAP2 SWAP1 PUSH2 0x35B0 JUMP JUMPDEST PUSH2 0x30DB JUMP JUMPDEST PUSH1 0x40 MLOAD PUSH2 0xC66 SWAP4 SWAP3 SWAP2 SWAP1 PUSH2 0x413D JUMP JUMPDEST PUSH1 0x40 MLOAD DUP1 SWAP2 SUB SWAP1 RETURN JUMPDEST PUSH1 0x60 PUSH1 0x0 PUSH1 0x2 SLOAD PUSH8 0xFFFFFFFFFFFFFFFF DUP2 GT ISZERO PUSH2 0xC8F JUMPI PUSH2 0xC8E PUSH2 0x3279 JUMP JUMPDEST JUMPDEST PUSH1 0x40 MLOAD SWAP1 DUP1 DUP3 MSTORE DUP1 PUSH1 0x20 MUL PUSH1 0x20 ADD DUP3 ADD PUSH1 0x40 MSTORE DUP1 ISZERO PUSH2 0xCC2 JUMPI DUP2 PUSH1 0x20 ADD JUMPDEST PUSH1 0x60 DUP2 MSTORE PUSH1 0x20 ADD SWAP1 PUSH1 0x1 SWAP1 SUB SWAP1 DUP2 PUSH2 0xCAD JUMPI SWAP1 POP JUMPDEST POP SWAP1 POP PUSH1 0x0 DUP1 PUSH1 0x0 SWAP1 POP JUMPDEST PUSH1 0x2 SLOAD DUP2 LT ISZERO PUSH2 0xDEE JUMPI DUP5 DUP1 MLOAD SWAP1 PUSH1 0x20 ADD KECCAK256 PUSH1 0xE PUSH1 0x0 DUP4 DUP2 MSTORE PUSH1 0x20 ADD SWAP1 DUP2 MSTORE PUSH1 0x20 ADD PUSH1 0x0 KECCAK256 PUSH1 0x0 ADD PUSH1 0x40 MLOAD PUSH2 0xD02 SWAP2 SWAP1 PUSH2 0x427E JUMP JUMPDEST PUSH1 0x40 MLOAD DUP1 SWAP2 SUB SWAP1 KECCAK256 SUB PUSH2 0xDDB JUMPI PUSH1 0xE PUSH1 0x0 DUP3 DUP2 MSTORE PUSH1 0x20 ADD SWAP1 DUP2 MSTORE PUSH1 0x20 ADD PUSH1 0x0 KECCAK256 PUSH1 0x1 ADD DUP1 SLOAD PUSH2 0xD30 SWAP1 PUSH2 0x41AA JUMP JUMPDEST DUP1 PUSH1 0x1F ADD PUSH1 0x20 DUP1 SWAP2 DIV MUL PUSH1 0x20 ADD PUSH1 0x40 MLOAD SWAP1 DUP2 ADD PUSH1 0x40 MSTORE DUP1 SWAP3 SWAP2 SWAP1 DUP2 DUP2 MSTORE PUSH1 0x20 ADD DUP3 DUP1 SLOAD PUSH2 0xD5C SWAP1 PUSH2 0x41AA JUMP JUMPDEST DUP1 ISZERO PUSH2 0xDA9 JUMPI DUP1 PUSH1 0x1F LT PUSH2 0xD7E JUMPI PUSH2 0x100 DUP1 DUP4 SLOAD DIV MUL DUP4 MSTORE SWAP2 PUSH1 0x20 ADD SWAP2 PUSH2 0xDA9 JUMP JUMPDEST DUP3 ADD SWAP2 SWAP1 PUSH1 0x0 MSTORE PUSH1 0x20 PUSH1 0x0 KECCAK256 SWAP1 JUMPDEST DUP2 SLOAD DUP2 MSTORE SWAP1 PUSH1 0x1 ADD SWAP1 PUSH1 0x20 ADD DUP1 DUP4 GT PUSH2 0xD8C JUMPI DUP3 SWAP1 SUB PUSH1 0x1F AND DUP3 ADD SWAP2 JUMPDEST POP POP POP POP POP DUP4 DUP4 DUP2 MLOAD DUP2 LT PUSH2 0xDC1 JUMPI PUSH2 0xDC0 PUSH2 0x4295 JUMP JUMPDEST JUMPDEST PUSH1 0x20 MUL PUSH1 0x20 ADD ADD DUP2 SWAP1 MSTORE POP DUP2 DUP1 PUSH2 0xDD7 SWAP1 PUSH2 0x42F3 JUMP JUMPDEST SWAP3 POP POP JUMPDEST DUP1 DUP1 PUSH2 0xDE6 SWAP1 PUSH2 0x42F3 JUMP JUMPDEST SWAP2 POP POP PUSH2 0xCCD JUMP JUMPDEST POP DUP2 SWAP3 POP POP POP SWAP2 SWAP1 POP JUMP JUMPDEST PUSH1 0x4 SLOAD DUP2 JUMP JUMPDEST PUSH1 0x60 PUSH1 0x0 PUSH1 0x3 SLOAD PUSH8 0xFFFFFFFFFFFFFFFF DUP2 GT ISZERO PUSH2 0xE1F JUMPI PUSH2 0xE1E PUSH2 0x3279 JUMP JUMPDEST JUMPDEST PUSH1 0x40 MLOAD SWAP1 DUP1 DUP3 MSTORE DUP1 PUSH1 0x20 MUL PUSH1 0x20 ADD DUP3 ADD PUSH1 0x40 MSTORE DUP1 ISZERO PUSH2 0xE52 JUMPI DUP2 PUSH1 0x20 ADD JUMPDEST PUSH1 0x60 DUP2 MSTORE PUSH1 0x20 ADD SWAP1 PUSH1 0x1 SWAP1 SUB SWAP1 DUP2 PUSH2 0xE3D JUMPI SWAP1 POP JUMPDEST POP SWAP1 POP PUSH1 0x0 DUP1 PUSH1 0x0 SWAP1 POP JUMPDEST PUSH1 0x3 SLOAD DUP2 LT ISZERO PUSH2 0xF63 JUMPI DUP5 PUSH1 0xF PUSH1 0x0 DUP4 DUP2 MSTORE PUSH1 0x20 ADD SWAP1 DUP2 MSTORE PUSH1 0x20 ADD PUSH1 0x0 KECCAK256 PUSH1 0x0 ADD SLOAD SUB PUSH2 0xF42 JUMPI PUSH1 0xF PUSH1 0x0 DUP3 DUP2 MSTORE PUSH1 0x20 ADD SWAP1 DUP2 MSTORE PUSH1 0x20 ADD PUSH1 0x0 KECCAK256 PUSH1 0x1 ADD DUP1 SLOAD PUSH2 0xEA5 SWAP1 PUSH2 0x41AA JUMP JUMPDEST DUP1 PUSH1 0x1F ADD PUSH1 0x20 DUP1 SWAP2 DIV MUL PUSH1 0x20 ADD PUSH1 0x40 MLOAD SWAP1 DUP2 ADD PUSH1 0x40 MSTORE DUP1 SWAP3 SWAP2 SWAP1 DUP2 DUP2 MSTORE PUSH1 0x20 ADD DUP3 DUP1 SLOAD PUSH2 0xED1 SWAP1 PUSH2 0x41AA JUMP JUMPDEST DUP1 ISZERO PUSH2 0xF1E JUMPI DUP1 PUSH1 0x1F LT PUSH2 0xEF3 JUMPI PUSH2 0x100 DUP1 DUP4 SLOAD DIV MUL DUP4 MSTORE SWAP2 PUSH1 0x20 ADD SWAP2 PUSH2 0xF1E JUMP JUMPDEST DUP3 ADD SWAP2 SWAP1 PUSH1 0x0 MSTORE PUSH1 0x20 PUSH1 0x0 KECCAK256 SWAP1 JUMPDEST DUP2 SLOAD DUP2 MSTORE SWAP1 PUSH1 0x1 ADD SWAP1 PUSH1 0x20 ADD DUP1 DUP4 GT PUSH2 0xF01 JUMPI DUP3 SWAP1 SUB PUSH1 0x1F AND DUP3 ADD SWAP2 JUMPDEST POP POP POP POP POP DUP4 DUP4 DUP2 MLOAD DUP2 LT PUSH2 0xF36 JUMPI PUSH2 0xF35 PUSH2 0x4295 JUMP JUMPDEST JUMPDEST PUSH1 0x20 MUL PUSH1 0x20 ADD ADD DUP2 SWAP1 MSTORE POP JUMPDEST DUP2 DUP1 PUSH2 0xF4D SWAP1 PUSH2 0x42F3 JUMP JUMPDEST SWAP3 POP POP DUP1 DUP1 PUSH2 0xF5B SWAP1 PUSH2 0x42F3 JUMP JUMPDEST SWAP2 POP POP PUSH2 0xE5D JUMP JUMPDEST POP DUP2 SWAP3 POP POP POP SWAP2 SWAP1 POP JUMP JUMPDEST PUSH1 0x2 SLOAD DUP2 JUMP JUMPDEST PUSH1 0x5 SLOAD DUP2 JUMP JUMPDEST PUSH1 0x14 PUSH1 0x20 MSTORE DUP1 PUSH1 0x0 MSTORE PUSH1 0x40 PUSH1 0x0 KECCAK256 PUSH1 0x0 SWAP2 POP SWAP1 POP DUP1 PUSH1 0x0 ADD SLOAD SWAP1 DUP1 PUSH1 0x1 ADD SLOAD SWAP1 DUP1 PUSH1 0x2 ADD SLOAD SWAP1 POP DUP4 JUMP JUMPDEST PUSH1 0x0 DUP1 PUSH1 0x0 SWAP1 POP JUMPDEST PUSH1 0x2 SLOAD DUP2 LT ISZERO PUSH2 0x100A JUMPI DUP3 DUP1 MLOAD SWAP1 PUSH1 0x20 ADD KECCAK256 PUSH1 0xE PUSH1 0x0 DUP4 DUP2 MSTORE PUSH1 0x20 ADD SWAP1 DUP2 MSTORE PUSH1 0x20 ADD PUSH1 0x0 KECCAK256 PUSH1 0x1 ADD PUSH1 0x40 MLOAD PUSH2 0xFE1 SWAP2 SWAP1 PUSH2 0x427E JUMP JUMPDEST PUSH1 0x40 MLOAD DUP1 SWAP2 SUB SWAP1 KECCAK256 SUB PUSH2 0xFF7 JUMPI DUP1 SWAP2 POP POP PUSH2 0x1010 JUMP JUMPDEST DUP1 DUP1 PUSH2 0x1002 SWAP1 PUSH2 0x42F3 JUMP JUMPDEST SWAP2 POP POP PUSH2 0xFAC JUMP JUMPDEST POP PUSH1 0x0 SWAP1 POP JUMPDEST SWAP2 SWAP1 POP JUMP JUMPDEST PUSH1 0x10 PUSH1 0x20 MSTORE DUP1 PUSH1 0x0 MSTORE PUSH1 0x40 PUSH1 0x0 KECCAK256 PUSH1 0x0 SWAP2 POP SWAP1 POP SLOAD DUP2 JUMP JUMPDEST PUSH1 0xB PUSH1 0x20 MSTORE DUP1 PUSH1 0x0 MSTORE PUSH1 0x40 PUSH1 0x0 KECCAK256 PUSH1 0x0 SWAP2 POP SWAP1 POP DUP1 PUSH1 0x0 ADD DUP1 SLOAD PUSH2 0x1050 SWAP1 PUSH2 0x41AA JUMP JUMPDEST DUP1 PUSH1 0x1F ADD PUSH1 0x20 DUP1 SWAP2 DIV MUL PUSH1 0x20 ADD PUSH1 0x40 MLOAD SWAP1 DUP2 ADD PUSH1 0x40 MSTORE DUP1 SWAP3 SWAP2 SWAP1 DUP2 DUP2 MSTORE PUSH1 0x20 ADD DUP3 DUP1 SLOAD PUSH2 0x107C SWAP1 PUSH2 0x41AA JUMP JUMPDEST DUP1 ISZERO PUSH2 0x10C9 JUMPI DUP1 PUSH1 0x1F LT PUSH2 0x109E JUMPI PUSH2 0x100 DUP1 DUP4 SLOAD DIV MUL DUP4 MSTORE SWAP2 PUSH1 0x20 ADD SWAP2 PUSH2 0x10C9 JUMP JUMPDEST DUP3 ADD SWAP2 SWAP1 PUSH1 0x0 MSTORE PUSH1 0x20 PUSH1 0x0 KECCAK256 SWAP1 JUMPDEST DUP2 SLOAD DUP2 MSTORE SWAP1 PUSH1 0x1 ADD SWAP1 PUSH1 0x20 ADD DUP1 DUP4 GT PUSH2 0x10AC JUMPI DUP3 SWAP1 SUB PUSH1 0x1F AND DUP3 ADD SWAP2 JUMPDEST POP POP POP POP POP SWAP1 DUP1 PUSH1 0x1 ADD DUP1 SLOAD PUSH2 0x10DE SWAP1 PUSH2 0x41AA JUMP JUMPDEST DUP1 PUSH1 0x1F ADD PUSH1 0x20 DUP1 SWAP2 DIV MUL PUSH1 0x20 ADD PUSH1 0x40 MLOAD SWAP1 DUP2 ADD PUSH1 0x40 MSTORE DUP1 SWAP3 SWAP2 SWAP1 DUP2 DUP2 MSTORE PUSH1 0x20 ADD DUP3 DUP1 SLOAD PUSH2 0x110A SWAP1 PUSH2 0x41AA JUMP JUMPDEST DUP1 ISZERO PUSH2 0x1157 JUMPI DUP1 PUSH1 0x1F LT PUSH2 0x112C JUMPI PUSH2 0x100 DUP1 DUP4 SLOAD DIV MUL DUP4 MSTORE SWAP2 PUSH1 0x20 ADD SWAP2 PUSH2 0x1157 JUMP JUMPDEST DUP3 ADD SWAP2 SWAP1 PUSH1 0x0 MSTORE PUSH1 0x20 PUSH1 0x0 KECCAK256 SWAP1 JUMPDEST DUP2 SLOAD DUP2 MSTORE SWAP1 PUSH1 0x1 ADD SWAP1 PUSH1 0x20 ADD DUP1 DUP4 GT PUSH2 0x113A JUMPI DUP3 SWAP1 SUB PUSH1 0x1F AND DUP3 ADD SWAP2 JUMPDEST POP POP POP POP POP SWAP1 DUP1 PUSH1 0x2 ADD DUP1 SLOAD PUSH2 0x116C SWAP1 PUSH2 0x41AA JUMP JUMPDEST DUP1 PUSH1 0x1F ADD PUSH1 0x20 DUP1 SWAP2 DIV MUL PUSH1 0x20 ADD PUSH1 0x40 MLOAD SWAP1 DUP2 ADD PUSH1 0x40 MSTORE DUP1 SWAP3 SWAP2 SWAP1 DUP2 DUP2 MSTORE PUSH1 0x20 ADD DUP3 DUP1 SLOAD PUSH2 0x1198 SWAP1 PUSH2 0x41AA JUMP JUMPDEST DUP1 ISZERO PUSH2 0x11E5 JUMPI DUP1 PUSH1 0x1F LT PUSH2 0x11BA JUMPI PUSH2 0x100 DUP1 DUP4 SLOAD DIV MUL DUP4 MSTORE SWAP2 PUSH1 0x20 ADD SWAP2 PUSH2 0x11E5 JUMP JUMPDEST DUP3 ADD SWAP2 SWAP1 PUSH1 0x0 MSTORE PUSH1 0x20 PUSH1 0x0 KECCAK256 SWAP1 JUMPDEST DUP2 SLOAD DUP2 MSTORE SWAP1 PUSH1 0x1 ADD SWAP1 PUSH1 0x20 ADD DUP1 DUP4 GT PUSH2 0x11C8 JUMPI DUP3 SWAP1 SUB PUSH1 0x1F AND DUP3 ADD SWAP2 JUMPDEST POP POP POP POP POP SWAP1 POP DUP4 JUMP JUMPDEST PUSH1 0x60 PUSH1 0x0 PUSH1 0x2 SLOAD PUSH8 0xFFFFFFFFFFFFFFFF DUP2 GT ISZERO PUSH2 0x120F JUMPI PUSH2 0x120E PUSH2 0x3279 JUMP JUMPDEST JUMPDEST PUSH1 0x40 MLOAD SWAP1 DUP1 DUP3 MSTORE DUP1 PUSH1 0x20 MUL PUSH1 0x20 ADD DUP3 ADD PUSH1 0x40 MSTORE DUP1 ISZERO PUSH2 0x1242 JUMPI DUP2 PUSH1 0x20 ADD JUMPDEST PUSH1 0x60 DUP2 MSTORE PUSH1 0x20 ADD SWAP1 PUSH1 0x1 SWAP1 SUB SWAP1 DUP2 PUSH2 0x122D JUMPI SWAP1 POP JUMPDEST POP SWAP1 POP PUSH1 0x0 JUMPDEST PUSH1 0x2 SLOAD DUP2 LT ISZERO PUSH2 0x1322 JUMPI PUSH1 0xE PUSH1 0x0 DUP3 DUP2 MSTORE PUSH1 0x20 ADD SWAP1 DUP2 MSTORE PUSH1 0x20 ADD PUSH1 0x0 KECCAK256 PUSH1 0x1 ADD DUP1 SLOAD PUSH2 0x1273 SWAP1 PUSH2 0x41AA JUMP JUMPDEST DUP1 PUSH1 0x1F ADD PUSH1 0x20 DUP1 SWAP2 DIV MUL PUSH1 0x20 ADD PUSH1 0x40 MLOAD SWAP1 DUP2 ADD PUSH1 0x40 MSTORE DUP1 SWAP3 SWAP2 SWAP1 DUP2 DUP2 MSTORE PUSH1 0x20 ADD DUP3 DUP1 SLOAD PUSH2 0x129F SWAP1 PUSH2 0x41AA JUMP JUMPDEST DUP1 ISZERO PUSH2 0x12EC JUMPI DUP1 PUSH1 0x1F LT PUSH2 0x12C1 JUMPI PUSH2 0x100 DUP1 DUP4 SLOAD DIV MUL DUP4 MSTORE SWAP2 PUSH1 0x20 ADD SWAP2 PUSH2 0x12EC JUMP JUMPDEST DUP3 ADD SWAP2 SWAP1 PUSH1 0x0 MSTORE PUSH1 0x20 PUSH1 0x0 KECCAK256 SWAP1 JUMPDEST DUP2 SLOAD DUP2 MSTORE SWAP1 PUSH1 0x1 ADD SWAP1 PUSH1 0x20 ADD DUP1 DUP4 GT PUSH2 0x12CF JUMPI DUP3 SWAP1 SUB PUSH1 0x1F AND DUP3 ADD SWAP2 JUMPDEST POP POP POP POP POP DUP3 DUP3 DUP2 MLOAD DUP2 LT PUSH2 0x1304 JUMPI PUSH2 0x1303 PUSH2 0x4295 JUMP JUMPDEST JUMPDEST PUSH1 0x20 MUL PUSH1 0x20 ADD ADD DUP2 SWAP1 MSTORE POP DUP1 DUP1 PUSH2 0x131A SWAP1 PUSH2 0x42F3 JUMP JUMPDEST SWAP2 POP POP PUSH2 0x1248 JUMP JUMPDEST POP DUP1 SWAP2 POP POP SWAP1 JUMP JUMPDEST PUSH1 0xD PUSH1 0x20 MSTORE DUP1 PUSH1 0x0 MSTORE PUSH1 0x40 PUSH1 0x0 KECCAK256 PUSH1 0x0 SWAP2 POP SWAP1 POP DUP1 PUSH1 0x0 ADD SLOAD SWAP1 DUP1 PUSH1 0x1 ADD SLOAD SWAP1 POP DUP3 JUMP JUMPDEST PUSH1 0x17 PUSH1 0x20 MSTORE DUP1 PUSH1 0x0 MSTORE PUSH1 0x40 PUSH1 0x0 KECCAK256 PUSH1 0x0 SWAP2 POP SWAP1 POP DUP1 PUSH1 0x0 ADD SLOAD SWAP1 DUP1 PUSH1 0x1 ADD SLOAD SWAP1 DUP1 PUSH1 0x2 ADD SLOAD SWAP1 DUP1 PUSH1 0x3 ADD DUP1 SLOAD PUSH2 0x1383 SWAP1 PUSH2 0x41AA JUMP JUMPDEST DUP1 PUSH1 0x1F ADD PUSH1 0x20 DUP1 SWAP2 DIV MUL PUSH1 0x20 ADD PUSH1 0x40 MLOAD SWAP1 DUP2 ADD PUSH1 0x40 MSTORE DUP1 SWAP3 SWAP2 SWAP1 DUP2 DUP2 MSTORE PUSH1 0x20 ADD DUP3 DUP1 SLOAD PUSH2 0x13AF SWAP1 PUSH2 0x41AA JUMP JUMPDEST DUP1 ISZERO PUSH2 0x13FC JUMPI DUP1 PUSH1 0x1F LT PUSH2 0x13D1 JUMPI PUSH2 0x100 DUP1 DUP4 SLOAD DIV MUL DUP4 MSTORE SWAP2 PUSH1 0x20 ADD SWAP2 PUSH2 0x13FC JUMP JUMPDEST DUP3 ADD SWAP2 SWAP1 PUSH1 0x0 MSTORE PUSH1 0x20 PUSH1 0x0 KECCAK256 SWAP1 JUMPDEST DUP2 SLOAD DUP2 MSTORE SWAP1 PUSH1 0x1 ADD SWAP1 PUSH1 0x20 ADD DUP1 DUP4 GT PUSH2 0x13DF JUMPI DUP3 SWAP1 SUB PUSH1 0x1F AND DUP3 ADD SWAP2 JUMPDEST POP POP POP POP POP SWAP1 POP DUP5 JUMP JUMPDEST PUSH1 0xF PUSH1 0x20 MSTORE DUP1 PUSH1 0x0 MSTORE PUSH1 0x40 PUSH1 0x0 KECCAK256 PUSH1 0x0 SWAP2 POP SWAP1 POP DUP1 PUSH1 0x0 ADD SLOAD SWAP1 DUP1 PUSH1 0x1 ADD DUP1 SLOAD PUSH2 0x142F SWAP1 PUSH2 0x41AA JUMP JUMPDEST DUP1 PUSH1 0x1F ADD PUSH1 0x20 DUP1 SWAP2 DIV MUL PUSH1 0x20 ADD PUSH1 0x40 MLOAD SWAP1 DUP2 ADD PUSH1 0x40 MSTORE DUP1 SWAP3 SWAP2 SWAP1 DUP2 DUP2 MSTORE PUSH1 0x20 ADD DUP3 DUP1 SLOAD PUSH2 0x145B SWAP1 PUSH2 0x41AA JUMP JUMPDEST DUP1 ISZERO PUSH2 0x14A8 JUMPI DUP1 PUSH1 0x1F LT PUSH2 0x147D JUMPI PUSH2 0x100 DUP1 DUP4 SLOAD DIV MUL DUP4 MSTORE SWAP2 PUSH1 0x20 ADD SWAP2 PUSH2 0x14A8 JUMP JUMPDEST DUP3 ADD SWAP2 SWAP1 PUSH1 0x0 MSTORE PUSH1 0x20 PUSH1 0x0 KECCAK256 SWAP1 JUMPDEST DUP2 SLOAD DUP2 MSTORE SWAP1 PUSH1 0x1 ADD SWAP1 PUSH1 0x20 ADD DUP1 DUP4 GT PUSH2 0x148B JUMPI DUP3 SWAP1 SUB PUSH1 0x1F AND DUP3 ADD SWAP2 JUMPDEST POP POP POP POP POP SWAP1 DUP1 PUSH1 0x2 ADD SLOAD SWAP1 POP DUP4 JUMP JUMPDEST PUSH1 0x6 SLOAD DUP2 JUMP JUMPDEST PUSH1 0x60 PUSH1 0x0 PUSH1 0x6 SLOAD PUSH8 0xFFFFFFFFFFFFFFFF DUP2 GT ISZERO PUSH2 0x14DE JUMPI PUSH2 0x14DD PUSH2 0x3279 JUMP JUMPDEST JUMPDEST PUSH1 0x40 MLOAD SWAP1 DUP1 DUP3 MSTORE DUP1 PUSH1 0x20 MUL PUSH1 0x20 ADD DUP3 ADD PUSH1 0x40 MSTORE DUP1 ISZERO PUSH2 0x150C JUMPI DUP2 PUSH1 0x20 ADD PUSH1 0x20 DUP3 MUL DUP1 CALLDATASIZE DUP4 CALLDATACOPY DUP1 DUP3 ADD SWAP2 POP POP SWAP1 POP JUMPDEST POP SWAP1 POP PUSH1 0x0 DUP1 PUSH1 0x0 SWAP1 POP JUMPDEST PUSH1 0x6 SLOAD DUP2 LT ISZERO PUSH2 0x15B8 JUMPI DUP6 PUSH1 0x14 PUSH1 0x0 DUP4 DUP2 MSTORE PUSH1 0x20 ADD SWAP1 DUP2 MSTORE PUSH1 0x20 ADD PUSH1 0x0 KECCAK256 PUSH1 0x0 ADD SLOAD EQ DUP1 ISZERO PUSH2 0x155B JUMPI POP DUP5 PUSH1 0x14 PUSH1 0x0 DUP4 DUP2 MSTORE PUSH1 0x20 ADD SWAP1 DUP2 MSTORE PUSH1 0x20 ADD PUSH1 0x0 KECCAK256 PUSH1 0x1 ADD SLOAD EQ JUMPDEST ISZERO PUSH2 0x1597 JUMPI PUSH1 0x14 PUSH1 0x0 DUP3 DUP2 MSTORE PUSH1 0x20 ADD SWAP1 DUP2 MSTORE PUSH1 0x20 ADD PUSH1 0x0 KECCAK256 PUSH1 0x2 ADD SLOAD DUP4 DUP4 DUP2 MLOAD DUP2 LT PUSH2 0x158A JUMPI PUSH2 0x1589 PUSH2 0x4295 JUMP JUMPDEST JUMPDEST PUSH1 0x20 MUL PUSH1 0x20 ADD ADD DUP2 DUP2 MSTORE POP POP JUMPDEST DUP2 DUP1 PUSH2 0x15A2 SWAP1 PUSH2 0x42F3 JUMP JUMPDEST SWAP3 POP POP DUP1 DUP1 PUSH2 0x15B0 SWAP1 PUSH2 0x42F3 JUMP JUMPDEST SWAP2 POP POP PUSH2 0x1517 JUMP JUMPDEST POP DUP2 SWAP3 POP POP POP SWAP3 SWAP2 POP POP JUMP JUMPDEST PUSH1 0x11 PUSH1 0x20 MSTORE DUP1 PUSH1 0x0 MSTORE PUSH1 0x40 PUSH1 0x0 KECCAK256 PUSH1 0x0 SWAP2 POP SWAP1 POP DUP1 PUSH1 0x0 ADD SLOAD SWAP1 DUP1 PUSH1 0x1 ADD SLOAD SWAP1 DUP1 PUSH1 0x2 ADD DUP1 SLOAD PUSH2 0x15F3 SWAP1 PUSH2 0x41AA JUMP JUMPDEST DUP1 PUSH1 0x1F ADD PUSH1 0x20 DUP1 SWAP2 DIV MUL PUSH1 0x20 ADD PUSH1 0x40 MLOAD SWAP1 DUP2 ADD PUSH1 0x40 MSTORE DUP1 SWAP3 SWAP2 SWAP1 DUP2 DUP2 MSTORE PUSH1 0x20 ADD DUP3 DUP1 SLOAD PUSH2 0x161F SWAP1 PUSH2 0x41AA JUMP JUMPDEST DUP1 ISZERO PUSH2 0x166C JUMPI DUP1 PUSH1 0x1F LT PUSH2 0x1641 JUMPI PUSH2 0x100 DUP1 DUP4 SLOAD DIV MUL DUP4 MSTORE SWAP2 PUSH1 0x20 ADD SWAP2 PUSH2 0x166C JUMP JUMPDEST DUP3 ADD SWAP2 SWAP1 PUSH1 0x0 MSTORE PUSH1 0x20 PUSH1 0x0 KECCAK256 SWAP1 JUMPDEST DUP2 SLOAD DUP2 MSTORE SWAP1 PUSH1 0x1 ADD SWAP1 PUSH1 0x20 ADD DUP1 DUP4 GT PUSH2 0x164F JUMPI DUP3 SWAP1 SUB PUSH1 0x1F AND DUP3 ADD SWAP2 JUMPDEST POP POP POP POP POP SWAP1 DUP1 PUSH1 0x3 ADD DUP1 SLOAD PUSH2 0x1681 SWAP1 PUSH2 0x41AA JUMP JUMPDEST DUP1 PUSH1 0x1F ADD PUSH1 0x20 DUP1 SWAP2 DIV MUL PUSH1 0x20 ADD PUSH1 0x40 MLOAD SWAP1 DUP2 ADD PUSH1 0x40 MSTORE DUP1 SWAP3 SWAP2 SWAP1 DUP2 DUP2 MSTORE PUSH1 0x20 ADD DUP3 DUP1 SLOAD PUSH2 0x16AD SWAP1 PUSH2 0x41AA JUMP JUMPDEST DUP1 ISZERO PUSH2 0x16FA JUMPI DUP1 PUSH1 0x1F LT PUSH2 0x16CF JUMPI PUSH2 0x100 DUP1 DUP4 SLOAD DIV MUL DUP4 MSTORE SWAP2 PUSH1 0x20 ADD SWAP2 PUSH2 0x16FA JUMP JUMPDEST DUP3 ADD SWAP2 SWAP1 PUSH1 0x0 MSTORE PUSH1 0x20 PUSH1 0x0 KECCAK256 SWAP1 JUMPDEST DUP2 SLOAD DUP2 MSTORE SWAP1 PUSH1 0x1 ADD SWAP1 PUSH1 0x20 ADD DUP1 DUP4 GT PUSH2 0x16DD JUMPI DUP3 SWAP1 SUB PUSH1 0x1F AND DUP3 ADD SWAP2 JUMPDEST POP POP POP POP POP SWAP1 POP DUP5 JUMP JUMPDEST PUSH1 0x0 ISZERO ISZERO PUSH1 0x18 PUSH1 0x0 DUP6 DUP2 MSTORE PUSH1 0x20 ADD SWAP1 DUP2 MSTORE PUSH1 0x20 ADD PUSH1 0x0 KECCAK256 PUSH1 0x1 ADD PUSH1 0x5 SWAP1 SLOAD SWAP1 PUSH2 0x100 EXP SWAP1 DIV PUSH1 0xFF AND ISZERO ISZERO SUB PUSH2 0x1773 JUMPI PUSH2 0x1772 DUP3 PUSH1 0x40 MLOAD DUP1 PUSH1 0x40 ADD PUSH1 0x40 MSTORE DUP1 PUSH1 0x5 DUP2 MSTORE PUSH1 0x20 ADD PUSH32 0x6261646765000000000000000000000000000000000000000000000000000000 DUP2 MSTORE POP PUSH2 0x2A46 JUMP JUMPDEST JUMPDEST PUSH2 0x17B2 DUP2 PUSH1 0x40 MLOAD DUP1 PUSH1 0x40 ADD PUSH1 0x40 MSTORE DUP1 PUSH1 0x8 DUP2 MSTORE PUSH1 0x20 ADD PUSH32 0x646F6E6174696F6E000000000000000000000000000000000000000000000000 DUP2 MSTORE POP PUSH2 0x2A46 JUMP JUMPDEST PUSH1 0x1 PUSH1 0x18 PUSH1 0x0 DUP6 DUP2 MSTORE PUSH1 0x20 ADD SWAP1 DUP2 MSTORE PUSH1 0x20 ADD PUSH1 0x0 KECCAK256 PUSH1 0x1 ADD PUSH1 0x5 PUSH2 0x100 EXP DUP2 SLOAD DUP2 PUSH1 0xFF MUL NOT AND SWAP1 DUP4 ISZERO ISZERO MUL OR SWAP1 SSTORE POP DUP4 PUSH1 0xF PUSH1 0x0 DUP8 DUP2 MSTORE PUSH1 0x20 ADD SWAP1 DUP2 MSTORE PUSH1 0x20 ADD PUSH1 0x0 KECCAK256 PUSH1 0x2 ADD PUSH1 0x0 DUP3 DUP3 SLOAD PUSH2 0x1807 SWAP2 SWAP1 PUSH2 0x433B JUMP JUMPDEST SWAP3 POP POP DUP2 SWAP1 SSTORE POP DUP4 PUSH1 0x10 PUSH1 0x0 DUP6 DUP2 MSTORE PUSH1 0x20 ADD SWAP1 DUP2 MSTORE PUSH1 0x20 ADD PUSH1 0x0 KECCAK256 PUSH1 0x0 DUP3 DUP3 SLOAD PUSH2 0x1831 SWAP2 SWAP1 PUSH2 0x433B JUMP JUMPDEST SWAP3 POP POP DUP2 SWAP1 SSTORE POP PUSH1 0x40 MLOAD DUP1 PUSH1 0x60 ADD PUSH1 0x40 MSTORE DUP1 DUP7 DUP2 MSTORE PUSH1 0x20 ADD DUP5 DUP2 MSTORE PUSH1 0x20 ADD DUP6 DUP2 MSTORE POP PUSH1 0x12 PUSH1 0x0 PUSH1 0x1 SLOAD DUP2 MSTORE PUSH1 0x20 ADD SWAP1 DUP2 MSTORE PUSH1 0x20 ADD PUSH1 0x0 KECCAK256 PUSH1 0x0 DUP3 ADD MLOAD DUP2 PUSH1 0x0 ADD SSTORE PUSH1 0x20 DUP3 ADD MLOAD DUP2 PUSH1 0x1 ADD SSTORE PUSH1 0x40 DUP3 ADD MLOAD DUP2 PUSH1 0x2 ADD SSTORE SWAP1 POP POP PUSH1 0x1 PUSH1 0x0 DUP2 SLOAD DUP1 SWAP3 SWAP2 SWAP1 PUSH2 0x189C SWAP1 PUSH2 0x42F3 JUMP JUMPDEST SWAP2 SWAP1 POP SSTORE POP POP POP POP POP POP JUMP JUMPDEST PUSH1 0x60 PUSH1 0xB PUSH1 0x0 DUP4 DUP2 MSTORE PUSH1 0x20 ADD SWAP1 DUP2 MSTORE PUSH1 0x20 ADD PUSH1 0x0 KECCAK256 PUSH1 0x1 ADD DUP1 SLOAD PUSH2 0x18CB SWAP1 PUSH2 0x41AA JUMP JUMPDEST DUP1 PUSH1 0x1F ADD PUSH1 0x20 DUP1 SWAP2 DIV MUL PUSH1 0x20 ADD PUSH1 0x40 MLOAD SWAP1 DUP2 ADD PUSH1 0x40 MSTORE DUP1 SWAP3 SWAP2 SWAP1 DUP2 DUP2 MSTORE PUSH1 0x20 ADD DUP3 DUP1 SLOAD PUSH2 0x18F7 SWAP1 PUSH2 0x41AA JUMP JUMPDEST DUP1 ISZERO PUSH2 0x1944 JUMPI DUP1 PUSH1 0x1F LT PUSH2 0x1919 JUMPI PUSH2 0x100 DUP1 DUP4 SLOAD DIV MUL DUP4 MSTORE SWAP2 PUSH1 0x20 ADD SWAP2 PUSH2 0x1944 JUMP JUMPDEST DUP3 ADD SWAP2 SWAP1 PUSH1 0x0 MSTORE PUSH1 0x20 PUSH1 0x0 KECCAK256 SWAP1 JUMPDEST DUP2 SLOAD DUP2 MSTORE SWAP1 PUSH1 0x1 ADD SWAP1 PUSH1 0x20 ADD DUP1 DUP4 GT PUSH2 0x1927 JUMPI DUP3 SWAP1 SUB PUSH1 0x1F AND DUP3 ADD SWAP2 JUMPDEST POP POP POP POP POP SWAP1 POP SWAP2 SWAP1 POP JUMP JUMPDEST PUSH1 0xC PUSH1 0x20 MSTORE DUP1 PUSH1 0x0 MSTORE PUSH1 0x40 PUSH1 0x0 KECCAK256 PUSH1 0x0 SWAP2 POP SWAP1 POP DUP1 SLOAD PUSH2 0x196F SWAP1 PUSH2 0x41AA JUMP JUMPDEST DUP1 PUSH1 0x1F ADD PUSH1 0x20 DUP1 SWAP2 DIV MUL PUSH1 0x20 ADD PUSH1 0x40 MLOAD SWAP1 DUP2 ADD PUSH1 0x40 MSTORE DUP1 SWAP3 SWAP2 SWAP1 DUP2 DUP2 MSTORE PUSH1 0x20 ADD DUP3 DUP1 SLOAD PUSH2 0x199B SWAP1 PUSH2 0x41AA JUMP JUMPDEST DUP1 ISZERO PUSH2 0x19E8 JUMPI DUP1 PUSH1 0x1F LT PUSH2 0x19BD JUMPI PUSH2 0x100 DUP1 DUP4 SLOAD DIV MUL DUP4 MSTORE SWAP2 PUSH1 0x20 ADD SWAP2 PUSH2 0x19E8 JUMP JUMPDEST DUP3 ADD SWAP2 SWAP1 PUSH1 0x0 MSTORE PUSH1 0x20 PUSH1 0x0 KECCAK256 SWAP1 JUMPDEST DUP2 SLOAD DUP2 MSTORE SWAP1 PUSH1 0x1 ADD SWAP1 PUSH1 0x20 ADD DUP1 DUP4 GT PUSH2 0x19CB JUMPI DUP3 SWAP1 SUB PUSH1 0x1F AND DUP3 ADD SWAP2 JUMPDEST POP POP POP POP POP DUP2 JUMP JUMPDEST PUSH1 0x0 PUSH1 0x1 PUSH1 0x18 PUSH1 0x0 DUP5 DUP2 MSTORE PUSH1 0x20 ADD SWAP1 DUP2 MSTORE PUSH1 0x20 ADD PUSH1 0x0 KECCAK256 PUSH1 0x1 ADD PUSH1 0x6 PUSH2 0x100 EXP DUP2 SLOAD DUP2 PUSH1 0xFF MUL NOT AND SWAP1 DUP4 ISZERO ISZERO MUL OR SWAP1 SSTORE POP PUSH1 0x40 MLOAD DUP1 PUSH1 0x80 ADD PUSH1 0x40 MSTORE DUP1 PUSH1 0x7 SLOAD DUP2 MSTORE PUSH1 0x20 ADD DUP7 DUP2 MSTORE PUSH1 0x20 ADD DUP6 DUP2 MSTORE PUSH1 0x20 ADD DUP5 DUP2 MSTORE POP PUSH1 0x15 PUSH1 0x0 PUSH1 0x7 SLOAD DUP2 MSTORE PUSH1 0x20 ADD SWAP1 DUP2 MSTORE PUSH1 0x20 ADD PUSH1 0x0 KECCAK256 PUSH1 0x0 DUP3 ADD MLOAD DUP2 PUSH1 0x0 ADD SSTORE PUSH1 0x20 DUP3 ADD MLOAD DUP2 PUSH1 0x1 ADD SSTORE PUSH1 0x40 DUP3 ADD MLOAD DUP2 PUSH1 0x2 ADD SWAP1 DUP2 PUSH2 0x1A82 SWAP2 SWAP1 PUSH2 0x451B JUMP JUMPDEST POP PUSH1 0x60 DUP3 ADD MLOAD DUP2 PUSH1 0x3 ADD SWAP1 DUP2 PUSH2 0x1A98 SWAP2 SWAP1 PUSH2 0x451B JUMP JUMPDEST POP SWAP1 POP POP PUSH1 0x7 PUSH1 0x0 DUP2 SLOAD DUP1 SWAP3 SWAP2 SWAP1 PUSH2 0x1AAF SWAP1 PUSH2 0x42F3 JUMP JUMPDEST SWAP2 SWAP1 POP SSTORE POP PUSH1 0x7 SLOAD SWAP1 POP SWAP5 SWAP4 POP POP POP POP JUMP JUMPDEST PUSH1 0x0 SLOAD DUP2 JUMP JUMPDEST PUSH1 0xE PUSH1 0x20 MSTORE DUP1 PUSH1 0x0 MSTORE PUSH1 0x40 PUSH1 0x0 KECCAK256 PUSH1 0x0 SWAP2 POP SWAP1 POP DUP1 PUSH1 0x0 ADD DUP1 SLOAD PUSH2 0x1AEA SWAP1 PUSH2 0x41AA JUMP JUMPDEST DUP1 PUSH1 0x1F ADD PUSH1 0x20 DUP1 SWAP2 DIV MUL PUSH1 0x20 ADD PUSH1 0x40 MLOAD SWAP1 DUP2 ADD PUSH1 0x40 MSTORE DUP1 SWAP3 SWAP2 SWAP1 DUP2 DUP2 MSTORE PUSH1 0x20 ADD DUP3 DUP1 SLOAD PUSH2 0x1B16 SWAP1 PUSH2 0x41AA JUMP JUMPDEST DUP1 ISZERO PUSH2 0x1B63 JUMPI DUP1 PUSH1 0x1F LT PUSH2 0x1B38 JUMPI PUSH2 0x100 DUP1 DUP4 SLOAD DIV MUL DUP4 MSTORE SWAP2 PUSH1 0x20 ADD SWAP2 PUSH2 0x1B63 JUMP JUMPDEST DUP3 ADD SWAP2 SWAP1 PUSH1 0x0 MSTORE PUSH1 0x20 PUSH1 0x0 KECCAK256 SWAP1 JUMPDEST DUP2 SLOAD DUP2 MSTORE SWAP1 PUSH1 0x1 ADD SWAP1 PUSH1 0x20 ADD DUP1 DUP4 GT PUSH2 0x1B46 JUMPI DUP3 SWAP1 SUB PUSH1 0x1F AND DUP3 ADD SWAP2 JUMPDEST POP POP POP POP POP SWAP1 DUP1 PUSH1 0x1 ADD DUP1 SLOAD PUSH2 0x1B78 SWAP1 PUSH2 0x41AA JUMP JUMPDEST DUP1 PUSH1 0x1F ADD PUSH1 0x20 DUP1 SWAP2 DIV MUL PUSH1 0x20 ADD PUSH1 0x40 MLOAD SWAP1 DUP2 ADD PUSH1 0x40 MSTORE DUP1 SWAP3 SWAP2 SWAP1 DUP2 DUP2 MSTORE PUSH1 0x20 ADD DUP3 DUP1 SLOAD PUSH2 0x1BA4 SWAP1 PUSH2 0x41AA JUMP JUMPDEST DUP1 ISZERO PUSH2 0x1BF1 JUMPI DUP1 PUSH1 0x1F LT PUSH2 0x1BC6 JUMPI PUSH2 0x100 DUP1 DUP4 SLOAD DIV MUL DUP4 MSTORE SWAP2 PUSH1 0x20 ADD SWAP2 PUSH2 0x1BF1 JUMP JUMPDEST DUP3 ADD SWAP2 SWAP1 PUSH1 0x0 MSTORE PUSH1 0x20 PUSH1 0x0 KECCAK256 SWAP1 JUMPDEST DUP2 SLOAD DUP2 MSTORE SWAP1 PUSH1 0x1 ADD SWAP1 PUSH1 0x20 ADD DUP1 DUP4 GT PUSH2 0x1BD4 JUMPI DUP3 SWAP1 SUB PUSH1 0x1F AND DUP3 ADD SWAP2 JUMPDEST POP POP POP POP POP SWAP1 POP DUP3 JUMP JUMPDEST PUSH1 0x12 PUSH1 0x20 MSTORE DUP1 PUSH1 0x0 MSTORE PUSH1 0x40 PUSH1 0x0 KECCAK256 PUSH1 0x0 SWAP2 POP SWAP1 POP DUP1 PUSH1 0x0 ADD SLOAD SWAP1 DUP1 PUSH1 0x1 ADD SLOAD SWAP1 DUP1 PUSH1 0x2 ADD SLOAD SWAP1 POP DUP4 JUMP JUMPDEST PUSH1 0x60 PUSH1 0x0 PUSH1 0x7 SLOAD PUSH8 0xFFFFFFFFFFFFFFFF DUP2 GT ISZERO PUSH2 0x1C45 JUMPI PUSH2 0x1C44 PUSH2 0x3279 JUMP JUMPDEST JUMPDEST PUSH1 0x40 MLOAD SWAP1 DUP1 DUP3 MSTORE DUP1 PUSH1 0x20 MUL PUSH1 0x20 ADD DUP3 ADD PUSH1 0x40 MSTORE DUP1 ISZERO PUSH2 0x1C73 JUMPI DUP2 PUSH1 0x20 ADD PUSH1 0x20 DUP3 MUL DUP1 CALLDATASIZE DUP4 CALLDATACOPY DUP1 DUP3 ADD SWAP2 POP POP SWAP1 POP JUMPDEST POP SWAP1 POP PUSH1 0x0 DUP1 PUSH1 0x0 SWAP1 POP JUMPDEST PUSH1 0x7 SLOAD DUP2 LT ISZERO PUSH2 0x1CFD JUMPI DUP5 PUSH1 0x15 PUSH1 0x0 DUP4 DUP2 MSTORE PUSH1 0x20 ADD SWAP1 DUP2 MSTORE PUSH1 0x20 ADD PUSH1 0x0 KECCAK256 PUSH1 0x1 ADD SLOAD SUB PUSH2 0x1CEA JUMPI PUSH1 0x15 PUSH1 0x0 DUP3 DUP2 MSTORE PUSH1 0x20 ADD SWAP1 DUP2 MSTORE PUSH1 0x20 ADD PUSH1 0x0 KECCAK256 PUSH1 0x0 ADD SLOAD DUP4 DUP4 DUP2 MLOAD DUP2 LT PUSH2 0x1CCF JUMPI PUSH2 0x1CCE PUSH2 0x4295 JUMP JUMPDEST JUMPDEST PUSH1 0x20 MUL PUSH1 0x20 ADD ADD DUP2 DUP2 MSTORE POP POP DUP2 DUP1 PUSH2 0x1CE6 SWAP1 PUSH2 0x42F3 JUMP JUMPDEST SWAP3 POP POP JUMPDEST DUP1 DUP1 PUSH2 0x1CF5 SWAP1 PUSH2 0x42F3 JUMP JUMPDEST SWAP2 POP POP PUSH2 0x1C7E JUMP JUMPDEST POP DUP2 SWAP3 POP POP POP SWAP2 SWAP1 POP JUMP JUMPDEST PUSH1 0x60 PUSH1 0x0 PUSH1 0x9 SLOAD PUSH8 0xFFFFFFFFFFFFFFFF DUP2 GT ISZERO PUSH2 0x1D28 JUMPI PUSH2 0x1D27 PUSH2 0x3279 JUMP JUMPDEST JUMPDEST PUSH1 0x40 MLOAD SWAP1 DUP1 DUP3 MSTORE DUP1 PUSH1 0x20 MUL PUSH1 0x20 ADD DUP3 ADD PUSH1 0x40 MSTORE DUP1 ISZERO PUSH2 0x1D56 JUMPI DUP2 PUSH1 0x20 ADD PUSH1 0x20 DUP3 MUL DUP1 CALLDATASIZE DUP4 CALLDATACOPY DUP1 DUP3 ADD SWAP2 POP POP SWAP1 POP JUMPDEST POP SWAP1 POP PUSH1 0x0 DUP1 PUSH1 0x0 SWAP1 POP JUMPDEST PUSH1 0x9 SLOAD DUP2 LT ISZERO PUSH2 0x1DE0 JUMPI DUP5 PUSH1 0x17 PUSH1 0x0 DUP4 DUP2 MSTORE PUSH1 0x20 ADD SWAP1 DUP2 MSTORE PUSH1 0x20 ADD PUSH1 0x0 KECCAK256 PUSH1 0x1 ADD SLOAD SUB PUSH2 0x1DCD JUMPI PUSH1 0x17 PUSH1 0x0 DUP3 DUP2 MSTORE PUSH1 0x20 ADD SWAP1 DUP2 MSTORE PUSH1 0x20 ADD PUSH1 0x0 KECCAK256 PUSH1 0x0 ADD SLOAD DUP4 DUP4 DUP2 MLOAD DUP2 LT PUSH2 0x1DB2 JUMPI PUSH2 0x1DB1 PUSH2 0x4295 JUMP JUMPDEST JUMPDEST PUSH1 0x20 MUL PUSH1 0x20 ADD ADD DUP2 DUP2 MSTORE POP POP DUP2 DUP1 PUSH2 0x1DC9 SWAP1 PUSH2 0x42F3 JUMP JUMPDEST SWAP3 POP POP JUMPDEST DUP1 DUP1 PUSH2 0x1DD8 SWAP1 PUSH2 0x42F3 JUMP JUMPDEST SWAP2 POP POP PUSH2 0x1D61 JUMP JUMPDEST POP DUP2 SWAP3 POP POP POP SWAP2 SWAP1 POP JUMP JUMPDEST PUSH1 0x0 PUSH1 0x40 MLOAD DUP1 PUSH1 0x60 ADD PUSH1 0x40 MSTORE DUP1 DUP7 DUP2 MSTORE PUSH1 0x20 ADD DUP6 DUP2 MSTORE PUSH1 0x20 ADD PUSH1 0x40 MLOAD DUP1 PUSH1 0x40 ADD PUSH1 0x40 MSTORE DUP1 PUSH1 0x5 DUP2 MSTORE PUSH1 0x20 ADD PUSH32 0x46616C7365000000000000000000000000000000000000000000000000000000 DUP2 MSTORE POP DUP2 MSTORE POP PUSH1 0xB PUSH1 0x0 DUP1 SLOAD DUP2 MSTORE PUSH1 0x20 ADD SWAP1 DUP2 MSTORE PUSH1 0x20 ADD PUSH1 0x0 KECCAK256 PUSH1 0x0 DUP3 ADD MLOAD DUP2 PUSH1 0x0 ADD SWAP1 DUP2 PUSH2 0x1E66 SWAP2 SWAP1 PUSH2 0x451B JUMP JUMPDEST POP PUSH1 0x20 DUP3 ADD MLOAD DUP2 PUSH1 0x1 ADD SWAP1 DUP2 PUSH2 0x1E7C SWAP2 SWAP1 PUSH2 0x451B JUMP JUMPDEST POP PUSH1 0x40 DUP3 ADD MLOAD DUP2 PUSH1 0x2 ADD SWAP1 DUP2 PUSH2 0x1E92 SWAP2 SWAP1 PUSH2 0x451B JUMP JUMPDEST POP SWAP1 POP POP DUP3 PUSH1 0xC PUSH1 0x0 DUP1 SLOAD DUP2 MSTORE PUSH1 0x20 ADD SWAP1 DUP2 MSTORE PUSH1 0x20 ADD PUSH1 0x0 KECCAK256 SWAP1 DUP2 PUSH2 0x1EB7 SWAP2 SWAP1 PUSH2 0x451B JUMP JUMPDEST POP PUSH1 0x1 PUSH1 0x18 PUSH1 0x0 DUP5 DUP2 MSTORE PUSH1 0x20 ADD SWAP1 DUP2 MSTORE PUSH1 0x20 ADD PUSH1 0x0 KECCAK256 PUSH1 0x1 ADD PUSH1 0x0 PUSH2 0x100 EXP DUP2 SLOAD DUP2 PUSH1 0xFF MUL NOT AND SWAP1 DUP4 ISZERO ISZERO MUL OR SWAP1 SSTORE POP PUSH1 0x0 DUP1 DUP2 SLOAD DUP1 SWAP3 SWAP2 SWAP1 PUSH2 0x1EF9 SWAP1 PUSH2 0x42F3 JUMP JUMPDEST SWAP2 SWAP1 POP SSTORE POP PUSH1 0x0 SLOAD SWAP1 POP SWAP5 SWAP4 POP POP POP POP JUMP JUMPDEST DUP1 PUSH1 0xC PUSH1 0x0 DUP5 DUP2 MSTORE PUSH1 0x20 ADD SWAP1 DUP2 MSTORE PUSH1 0x20 ADD PUSH1 0x0 KECCAK256 SWAP1 DUP2 PUSH2 0x1F2B SWAP2 SWAP1 PUSH2 0x451B JUMP JUMPDEST POP POP POP JUMP JUMPDEST DUP2 PUSH1 0xB PUSH1 0x0 DUP6 DUP2 MSTORE PUSH1 0x20 ADD SWAP1 DUP2 MSTORE PUSH1 0x20 ADD PUSH1 0x0 KECCAK256 PUSH1 0x0 ADD SWAP1 DUP2 PUSH2 0x1F53 SWAP2 SWAP1 PUSH2 0x451B JUMP JUMPDEST POP DUP1 PUSH1 0xB PUSH1 0x0 DUP6 DUP2 MSTORE PUSH1 0x20 ADD SWAP1 DUP2 MSTORE PUSH1 0x20 ADD PUSH1 0x0 KECCAK256 PUSH1 0x1 ADD SWAP1 DUP2 PUSH2 0x1F77 SWAP2 SWAP1 PUSH2 0x451B JUMP JUMPDEST POP POP POP POP JUMP JUMPDEST PUSH1 0xA SLOAD DUP2 JUMP JUMPDEST PUSH1 0x1 PUSH1 0x18 PUSH1 0x0 DUP5 DUP2 MSTORE PUSH1 0x20 ADD SWAP1 DUP2 MSTORE PUSH1 0x20 ADD PUSH1 0x0 KECCAK256 PUSH1 0x1 ADD PUSH1 0x1 PUSH2 0x100 EXP DUP2 SLOAD DUP2 PUSH1 0xFF MUL NOT AND SWAP1 DUP4 ISZERO ISZERO MUL OR SWAP1 SSTORE POP PUSH1 0x40 MLOAD DUP1 PUSH1 0x40 ADD PUSH1 0x40 MSTORE DUP1 DUP5 DUP2 MSTORE PUSH1 0x20 ADD DUP4 DUP2 MSTORE POP PUSH1 0xD PUSH1 0x0 PUSH1 0x4 SLOAD DUP2 MSTORE PUSH1 0x20 ADD SWAP1 DUP2 MSTORE PUSH1 0x20 ADD PUSH1 0x0 KECCAK256 PUSH1 0x0 DUP3 ADD MLOAD DUP2 PUSH1 0x0 ADD SSTORE PUSH1 0x20 DUP3 ADD MLOAD DUP2 PUSH1 0x1 ADD SSTORE SWAP1 POP POP PUSH1 0x4 PUSH1 0x0 DUP2 SLOAD DUP1 SWAP3 SWAP2 SWAP1 PUSH2 0x2006 SWAP1 PUSH2 0x42F3 JUMP JUMPDEST SWAP2 SWAP1 POP SSTORE POP PUSH2 0x204A DUP2 PUSH1 0x40 MLOAD DUP1 PUSH1 0x40 ADD PUSH1 0x40 MSTORE DUP1 PUSH1 0x4 DUP2 MSTORE PUSH1 0x20 ADD PUSH32 0x6A6F696E00000000000000000000000000000000000000000000000000000000 DUP2 MSTORE POP PUSH2 0x2A46 JUMP JUMPDEST POP POP POP JUMP JUMPDEST PUSH1 0x60 PUSH1 0xF PUSH1 0x0 DUP4 DUP2 MSTORE PUSH1 0x20 ADD SWAP1 DUP2 MSTORE PUSH1 0x20 ADD PUSH1 0x0 KECCAK256 PUSH1 0x1 ADD DUP1 SLOAD PUSH2 0x2072 SWAP1 PUSH2 0x41AA JUMP JUMPDEST DUP1 PUSH1 0x1F ADD PUSH1 0x20 DUP1 SWAP2 DIV MUL PUSH1 0x20 ADD PUSH1 0x40 MLOAD SWAP1 DUP2 ADD PUSH1 0x40 MSTORE DUP1 SWAP3 SWAP2 SWAP1 DUP2 DUP2 MSTORE PUSH1 0x20 ADD DUP3 DUP1 SLOAD PUSH2 0x209E SWAP1 PUSH2 0x41AA JUMP JUMPDEST DUP1 ISZERO PUSH2 0x20EB JUMPI DUP1 PUSH1 0x1F LT PUSH2 0x20C0 JUMPI PUSH2 0x100 DUP1 DUP4 SLOAD DIV MUL DUP4 MSTORE SWAP2 PUSH1 0x20 ADD SWAP2 PUSH2 0x20EB JUMP JUMPDEST DUP3 ADD SWAP2 SWAP1 PUSH1 0x0 MSTORE PUSH1 0x20 PUSH1 0x0 KECCAK256 SWAP1 JUMPDEST DUP2 SLOAD DUP2 MSTORE SWAP1 PUSH1 0x1 ADD SWAP1 PUSH1 0x20 ADD DUP1 DUP4 GT PUSH2 0x20CE JUMPI DUP3 SWAP1 SUB PUSH1 0x1F AND DUP3 ADD SWAP2 JUMPDEST POP POP POP POP POP SWAP1 POP SWAP2 SWAP1 POP JUMP JUMPDEST PUSH1 0x0 PUSH1 0x1 PUSH1 0x18 PUSH1 0x0 DUP6 DUP2 MSTORE PUSH1 0x20 ADD SWAP1 DUP2 MSTORE PUSH1 0x20 ADD PUSH1 0x0 KECCAK256 PUSH1 0x1 ADD PUSH1 0x4 PUSH2 0x100 EXP DUP2 SLOAD DUP2 PUSH1 0xFF MUL NOT AND SWAP1 DUP4 ISZERO ISZERO MUL OR SWAP1 SSTORE POP PUSH1 0x40 MLOAD DUP1 PUSH1 0x60 ADD PUSH1 0x40 MSTORE DUP1 DUP7 DUP2 MSTORE PUSH1 0x20 ADD DUP6 DUP2 MSTORE PUSH1 0x20 ADD DUP5 DUP2 MSTORE POP PUSH1 0x14 PUSH1 0x0 PUSH1 0x6 SLOAD DUP2 MSTORE PUSH1 0x20 ADD SWAP1 DUP2 MSTORE PUSH1 0x20 ADD PUSH1 0x0 KECCAK256 PUSH1 0x0 DUP3 ADD MLOAD DUP2 PUSH1 0x0 ADD SSTORE PUSH1 0x20 DUP3 ADD MLOAD DUP2 PUSH1 0x1 ADD SSTORE PUSH1 0x40 DUP3 ADD MLOAD DUP2 PUSH1 0x2 ADD SSTORE SWAP1 POP POP PUSH1 0x6 PUSH1 0x0 DUP2 SLOAD DUP1 SWAP3 SWAP2 SWAP1 PUSH2 0x218C SWAP1 PUSH2 0x42F3 JUMP JUMPDEST SWAP2 SWAP1 POP SSTORE POP PUSH2 0x21D0 DUP3 PUSH1 0x40 MLOAD DUP1 PUSH1 0x40 ADD PUSH1 0x40 MSTORE DUP1 PUSH1 0x4 DUP2 MSTORE PUSH1 0x20 ADD PUSH32 0x766F746500000000000000000000000000000000000000000000000000000000 DUP2 MSTORE POP PUSH2 0x2A46 JUMP JUMPDEST PUSH1 0x6 SLOAD SWAP1 POP SWAP5 SWAP4 POP POP POP POP JUMP JUMPDEST PUSH1 0x7 SLOAD DUP2 JUMP JUMPDEST PUSH1 0x0 PUSH1 0x40 MLOAD DUP1 PUSH1 0x80 ADD PUSH1 0x40 MSTORE DUP1 DUP7 DUP2 MSTORE PUSH1 0x20 ADD DUP6 DUP2 MSTORE PUSH1 0x20 ADD DUP5 DUP2 MSTORE PUSH1 0x20 ADD DUP4 DUP2 MSTORE POP PUSH1 0x16 PUSH1 0x0 PUSH1 0x8 SLOAD DUP2 MSTORE PUSH1 0x20 ADD SWAP1 DUP2 MSTORE PUSH1 0x20 ADD PUSH1 0x0 KECCAK256 PUSH1 0x0 DUP3 ADD MLOAD DUP2 PUSH1 0x0 ADD SSTORE PUSH1 0x20 DUP3 ADD MLOAD DUP2 PUSH1 0x1 ADD SSTORE PUSH1 0x40 DUP3 ADD MLOAD DUP2 PUSH1 0x2 ADD SSTORE PUSH1 0x60 DUP3 ADD MLOAD DUP2 PUSH1 0x3 ADD SWAP1 DUP2 PUSH2 0x224E SWAP2 SWAP1 PUSH2 0x451B JUMP JUMPDEST POP SWAP1 POP POP PUSH1 0x8 PUSH1 0x0 DUP2 SLOAD DUP1 SWAP3 SWAP2 SWAP1 PUSH2 0x2265 SWAP1 PUSH2 0x42F3 JUMP JUMPDEST SWAP2 SWAP1 POP SSTORE POP PUSH1 0x8 SLOAD SWAP1 POP SWAP5 SWAP4 POP POP POP POP JUMP JUMPDEST PUSH1 0x60 PUSH1 0x0 PUSH1 0x3 SLOAD PUSH8 0xFFFFFFFFFFFFFFFF DUP2 GT ISZERO PUSH2 0x2297 JUMPI PUSH2 0x2296 PUSH2 0x3279 JUMP JUMPDEST JUMPDEST PUSH1 0x40 MLOAD SWAP1 DUP1 DUP3 MSTORE DUP1 PUSH1 0x20 MUL PUSH1 0x20 ADD DUP3 ADD PUSH1 0x40 MSTORE DUP1 ISZERO PUSH2 0x22CA JUMPI DUP2 PUSH1 0x20 ADD JUMPDEST PUSH1 0x60 DUP2 MSTORE PUSH1 0x20 ADD SWAP1 PUSH1 0x1 SWAP1 SUB SWAP1 DUP2 PUSH2 0x22B5 JUMPI SWAP1 POP JUMPDEST POP SWAP1 POP PUSH1 0x0 JUMPDEST PUSH1 0x3 SLOAD DUP2 LT ISZERO PUSH2 0x23AA JUMPI PUSH1 0xF PUSH1 0x0 DUP3 DUP2 MSTORE PUSH1 0x20 ADD SWAP1 DUP2 MSTORE PUSH1 0x20 ADD PUSH1 0x0 KECCAK256 PUSH1 0x1 ADD DUP1 SLOAD PUSH2 0x22FB SWAP1 PUSH2 0x41AA JUMP JUMPDEST DUP1 PUSH1 0x1F ADD PUSH1 0x20 DUP1 SWAP2 DIV MUL PUSH1 0x20 ADD PUSH1 0x40 MLOAD SWAP1 DUP2 ADD PUSH1 0x40 MSTORE DUP1 SWAP3 SWAP2 SWAP1 DUP2 DUP2 MSTORE PUSH1 0x20 ADD DUP3 DUP1 SLOAD PUSH2 0x2327 SWAP1 PUSH2 0x41AA JUMP JUMPDEST DUP1 ISZERO PUSH2 0x2374 JUMPI DUP1 PUSH1 0x1F LT PUSH2 0x2349 JUMPI PUSH2 0x100 DUP1 DUP4 SLOAD DIV MUL DUP4 MSTORE SWAP2 PUSH1 0x20 ADD SWAP2 PUSH2 0x2374 JUMP JUMPDEST DUP3 ADD SWAP2 SWAP1 PUSH1 0x0 MSTORE PUSH1 0x20 PUSH1 0x0 KECCAK256 SWAP1 JUMPDEST DUP2 SLOAD DUP2 MSTORE SWAP1 PUSH1 0x1 ADD SWAP1 PUSH1 0x20 ADD DUP1 DUP4 GT PUSH2 0x2357 JUMPI DUP3 SWAP1 SUB PUSH1 0x1F AND DUP3 ADD SWAP2 JUMPDEST POP POP POP POP POP DUP3 DUP3 DUP2 MLOAD DUP2 LT PUSH2 0x238C JUMPI PUSH2 0x238B PUSH2 0x4295 JUMP JUMPDEST JUMPDEST PUSH1 0x20 MUL PUSH1 0x20 ADD ADD DUP2 SWAP1 MSTORE POP DUP1 DUP1 PUSH2 0x23A2 SWAP1 PUSH2 0x42F3 JUMP JUMPDEST SWAP2 POP POP PUSH2 0x22D0 JUMP JUMPDEST POP DUP1 SWAP2 POP POP SWAP1 JUMP JUMPDEST PUSH1 0x0 DUP1 PUSH1 0x0 SWAP1 POP JUMPDEST PUSH1 0x3 SLOAD DUP2 LT ISZERO PUSH2 0x2418 JUMPI DUP3 DUP1 MLOAD SWAP1 PUSH1 0x20 ADD KECCAK256 PUSH1 0xF PUSH1 0x0 DUP4 DUP2 MSTORE PUSH1 0x20 ADD SWAP1 DUP2 MSTORE PUSH1 0x20 ADD PUSH1 0x0 KECCAK256 PUSH1 0x1 ADD PUSH1 0x40 MLOAD PUSH2 0x23EF SWAP2 SWAP1 PUSH2 0x427E JUMP JUMPDEST PUSH1 0x40 MLOAD DUP1 SWAP2 SUB SWAP1 KECCAK256 SUB PUSH2 0x2405 JUMPI DUP1 SWAP2 POP POP PUSH2 0x241E JUMP JUMPDEST DUP1 DUP1 PUSH2 0x2410 SWAP1 PUSH2 0x42F3 JUMP JUMPDEST SWAP2 POP POP PUSH2 0x23BA JUMP JUMPDEST POP PUSH1 0x0 SWAP1 POP JUMPDEST SWAP2 SWAP1 POP JUMP JUMPDEST PUSH1 0x18 PUSH1 0x20 MSTORE DUP1 PUSH1 0x0 MSTORE PUSH1 0x40 PUSH1 0x0 KECCAK256 PUSH1 0x0 SWAP2 POP SWAP1 POP DUP1 PUSH1 0x0 ADD SLOAD SWAP1 DUP1 PUSH1 0x1 ADD PUSH1 0x0 SWAP1 SLOAD SWAP1 PUSH2 0x100 EXP SWAP1 DIV PUSH1 0xFF AND SWAP1 DUP1 PUSH1 0x1 ADD PUSH1 0x1 SWAP1 SLOAD SWAP1 PUSH2 0x100 EXP SWAP1 DIV PUSH1 0xFF AND SWAP1 DUP1 PUSH1 0x1 ADD PUSH1 0x2 SWAP1 SLOAD SWAP1 PUSH2 0x100 EXP SWAP1 DIV PUSH1 0xFF AND SWAP1 DUP1 PUSH1 0x1 ADD PUSH1 0x3 SWAP1 SLOAD SWAP1 PUSH2 0x100 EXP SWAP1 DIV PUSH1 0xFF AND SWAP1 DUP1 PUSH1 0x1 ADD PUSH1 0x4 SWAP1 SLOAD SWAP1 PUSH2 0x100 EXP SWAP1 DIV PUSH1 0xFF AND SWAP1 DUP1 PUSH1 0x1 ADD PUSH1 0x5 SWAP1 SLOAD SWAP1 PUSH2 0x100 EXP SWAP1 DIV PUSH1 0xFF AND SWAP1 DUP1 PUSH1 0x1 ADD PUSH1 0x6 SWAP1 SLOAD SWAP1 PUSH2 0x100 EXP SWAP1 DIV PUSH1 0xFF AND SWAP1 DUP1 PUSH1 0x1 ADD PUSH1 0x7 SWAP1 SLOAD SWAP1 PUSH2 0x100 EXP SWAP1 DIV PUSH1 0xFF AND SWAP1 POP DUP10 JUMP JUMPDEST PUSH1 0x9 SLOAD DUP2 JUMP JUMPDEST PUSH1 0x0 DUP1 PUSH1 0x0 SWAP1 POP JUMPDEST PUSH1 0x3 SLOAD DUP2 LT ISZERO PUSH2 0x255B JUMPI DUP3 DUP1 MLOAD SWAP1 PUSH1 0x20 ADD KECCAK256 PUSH1 0xF PUSH1 0x0 DUP4 DUP2 MSTORE PUSH1 0x20 ADD SWAP1 DUP2 MSTORE PUSH1 0x20 ADD PUSH1 0x0 KECCAK256 PUSH1 0x1 ADD PUSH1 0x40 MLOAD PUSH2 0x251C SWAP2 SWAP1 PUSH2 0x427E JUMP JUMPDEST PUSH1 0x40 MLOAD DUP1 SWAP2 SUB SWAP1 KECCAK256 SUB PUSH2 0x2548 JUMPI PUSH1 0xF PUSH1 0x0 DUP3 DUP2 MSTORE PUSH1 0x20 ADD SWAP1 DUP2 MSTORE PUSH1 0x20 ADD PUSH1 0x0 KECCAK256 PUSH1 0x0 ADD SLOAD SWAP2 POP POP PUSH2 0x2561 JUMP JUMPDEST DUP1 DUP1 PUSH2 0x2553 SWAP1 PUSH2 0x42F3 JUMP JUMPDEST SWAP2 POP POP PUSH2 0x24E7 JUMP JUMPDEST POP PUSH1 0x0 SWAP1 POP JUMPDEST SWAP2 SWAP1 POP JUMP JUMPDEST PUSH1 0x0 JUMPDEST PUSH1 0x0 SLOAD DUP2 LT ISZERO PUSH2 0x25CC JUMPI PUSH1 0xB PUSH1 0x0 DUP3 DUP2 MSTORE PUSH1 0x20 ADD SWAP1 DUP2 MSTORE PUSH1 0x20 ADD PUSH1 0x0 KECCAK256 PUSH1 0x0 DUP1 DUP3 ADD PUSH1 0x0 PUSH2 0x2597 SWAP2 SWAP1 PUSH2 0x31ED JUMP JUMPDEST PUSH1 0x1 DUP3 ADD PUSH1 0x0 PUSH2 0x25A7 SWAP2 SWAP1 PUSH2 0x31ED JUMP JUMPDEST PUSH1 0x2 DUP3 ADD PUSH1 0x0 PUSH2 0x25B7 SWAP2 SWAP1 PUSH2 0x31ED JUMP JUMPDEST POP POP DUP1 DUP1 PUSH2 0x25C4 SWAP1 PUSH2 0x42F3 JUMP JUMPDEST SWAP2 POP POP PUSH2 0x2569 JUMP JUMPDEST POP PUSH1 0x0 JUMPDEST PUSH1 0x2 SLOAD DUP2 LT ISZERO PUSH2 0x2623 JUMPI PUSH1 0xE PUSH1 0x0 DUP3 DUP2 MSTORE PUSH1 0x20 ADD SWAP1 DUP2 MSTORE PUSH1 0x20 ADD PUSH1 0x0 KECCAK256 PUSH1 0x0 DUP1 DUP3 ADD PUSH1 0x0 PUSH2 0x25FE SWAP2 SWAP1 PUSH2 0x31ED JUMP JUMPDEST PUSH1 0x1 DUP3 ADD PUSH1 0x0 PUSH2 0x260E SWAP2 SWAP1 PUSH2 0x31ED JUMP JUMPDEST POP POP DUP1 DUP1 PUSH2 0x261B SWAP1 PUSH2 0x42F3 JUMP JUMPDEST SWAP2 POP POP PUSH2 0x25D0 JUMP JUMPDEST POP PUSH1 0x0 JUMPDEST PUSH1 0x3 SLOAD DUP2 LT ISZERO PUSH2 0x267A JUMPI PUSH1 0xF PUSH1 0x0 DUP3 DUP2 MSTORE PUSH1 0x20 ADD SWAP1 DUP2 MSTORE PUSH1 0x20 ADD PUSH1 0x0 KECCAK256 PUSH1 0x0 DUP1 DUP3 ADD PUSH1 0x0 SWAP1 SSTORE PUSH1 0x1 DUP3 ADD PUSH1 0x0 PUSH2 0x265D SWAP2 SWAP1 PUSH2 0x31ED JUMP JUMPDEST PUSH1 0x2 DUP3 ADD PUSH1 0x0 SWAP1 SSTORE POP POP DUP1 DUP1 PUSH2 0x2672 SWAP1 PUSH2 0x42F3 JUMP JUMPDEST SWAP2 POP POP PUSH2 0x2627 JUMP JUMPDEST POP PUSH1 0x0 JUMPDEST PUSH1 0x2 SLOAD DUP2 LT ISZERO PUSH2 0x26D1 JUMPI PUSH1 0x13 PUSH1 0x0 DUP3 DUP2 MSTORE PUSH1 0x20 ADD SWAP1 DUP2 MSTORE PUSH1 0x20 ADD PUSH1 0x0 KECCAK256 PUSH1 0x0 DUP1 DUP3 ADD PUSH1 0x0 SWAP1 SSTORE PUSH1 0x1 DUP3 ADD PUSH1 0x0 SWAP1 SSTORE PUSH1 0x2 DUP3 ADD PUSH1 0x0 PUSH2 0x26BC SWAP2 SWAP1 PUSH2 0x31ED JUMP JUMPDEST POP POP DUP1 DUP1 PUSH2 0x26C9 SWAP1 PUSH2 0x42F3 JUMP JUMPDEST SWAP2 POP POP PUSH2 0x267E JUMP JUMPDEST POP PUSH1 0x0 JUMPDEST PUSH1 0x7 SLOAD DUP2 LT ISZERO PUSH2 0x2738 JUMPI PUSH1 0x15 PUSH1 0x0 DUP3 DUP2 MSTORE PUSH1 0x20 ADD SWAP1 DUP2 MSTORE PUSH1 0x20 ADD PUSH1 0x0 KECCAK256 PUSH1 0x0 DUP1 DUP3 ADD PUSH1 0x0 SWAP1 SSTORE PUSH1 0x1 DUP3 ADD PUSH1 0x0 SWAP1 SSTORE PUSH1 0x2 DUP3 ADD PUSH1 0x0 PUSH2 0x2713 SWAP2 SWAP1 PUSH2 0x31ED JUMP JUMPDEST PUSH1 0x3 DUP3 ADD PUSH1 0x0 PUSH2 0x2723 SWAP2 SWAP1 PUSH2 0x31ED JUMP JUMPDEST POP POP DUP1 DUP1 PUSH2 0x2730 SWAP1 PUSH2 0x42F3 JUMP JUMPDEST SWAP2 POP POP PUSH2 0x26D5 JUMP JUMPDEST POP PUSH1 0x0 JUMPDEST PUSH1 0x9 SLOAD DUP2 LT ISZERO PUSH2 0x2797 JUMPI PUSH1 0x17 PUSH1 0x0 DUP3 DUP2 MSTORE PUSH1 0x20 ADD SWAP1 DUP2 MSTORE PUSH1 0x20 ADD PUSH1 0x0 KECCAK256 PUSH1 0x0 DUP1 DUP3 ADD PUSH1 0x0 SWAP1 SSTORE PUSH1 0x1 DUP3 ADD PUSH1 0x0 SWAP1 SSTORE PUSH1 0x2 DUP3 ADD PUSH1 0x0 SWAP1 SSTORE PUSH1 0x3 DUP3 ADD PUSH1 0x0 PUSH2 0x2782 SWAP2 SWAP1 PUSH2 0x31ED JUMP JUMPDEST POP POP DUP1 DUP1 PUSH2 0x278F SWAP1 PUSH2 0x42F3 JUMP JUMPDEST SWAP2 POP POP PUSH2 0x273C JUMP JUMPDEST POP PUSH1 0x0 JUMPDEST PUSH1 0x6 SLOAD DUP2 LT ISZERO PUSH2 0x27E6 JUMPI PUSH1 0x14 PUSH1 0x0 DUP3 DUP2 MSTORE PUSH1 0x20 ADD SWAP1 DUP2 MSTORE PUSH1 0x20 ADD PUSH1 0x0 KECCAK256 PUSH1 0x0 DUP1 DUP3 ADD PUSH1 0x0 SWAP1 SSTORE PUSH1 0x1 DUP3 ADD PUSH1 0x0 SWAP1 SSTORE PUSH1 0x2 DUP3 ADD PUSH1 0x0 SWAP1 SSTORE POP POP DUP1 DUP1 PUSH2 0x27DE SWAP1 PUSH2 0x42F3 JUMP JUMPDEST SWAP2 POP POP PUSH2 0x279B JUMP JUMPDEST POP PUSH1 0x0 DUP1 DUP2 SWAP1 SSTORE POP PUSH1 0x0 PUSH1 0x2 DUP2 SWAP1 SSTORE POP PUSH1 0x0 PUSH1 0x3 DUP2 SWAP1 SSTORE POP PUSH1 0x0 PUSH1 0x7 DUP2 SWAP1 SSTORE POP PUSH1 0x0 PUSH1 0x9 DUP2 SWAP1 SSTORE POP PUSH1 0x0 PUSH1 0x6 DUP2 SWAP1 SSTORE POP JUMP JUMPDEST PUSH1 0x0 PUSH1 0x40 MLOAD DUP1 PUSH1 0x40 ADD PUSH1 0x40 MSTORE DUP1 DUP6 DUP2 MSTORE PUSH1 0x20 ADD DUP7 DUP2 MSTORE POP PUSH1 0xE PUSH1 0x0 PUSH1 0x2 SLOAD DUP2 MSTORE PUSH1 0x20 ADD SWAP1 DUP2 MSTORE PUSH1 0x20 ADD PUSH1 0x0 KECCAK256 PUSH1 0x0 DUP3 ADD MLOAD DUP2 PUSH1 0x0 ADD SWAP1 DUP2 PUSH2 0x2859 SWAP2 SWAP1 PUSH2 0x451B JUMP JUMPDEST POP PUSH1 0x20 DUP3 ADD MLOAD DUP2 PUSH1 0x1 ADD SWAP1 DUP2 PUSH2 0x286F SWAP2 SWAP1 PUSH2 0x451B JUMP JUMPDEST POP SWAP1 POP POP PUSH1 0x1 PUSH1 0x18 PUSH1 0x0 DUP6 DUP2 MSTORE PUSH1 0x20 ADD SWAP1 DUP2 MSTORE PUSH1 0x20 ADD PUSH1 0x0 KECCAK256 PUSH1 0x1 ADD PUSH1 0x2 PUSH2 0x100 EXP DUP2 SLOAD DUP2 PUSH1 0xFF MUL NOT AND SWAP1 DUP4 ISZERO ISZERO MUL OR SWAP1 SSTORE POP PUSH1 0x2 PUSH1 0x0 DUP2 SLOAD DUP1 SWAP3 SWAP2 SWAP1 PUSH2 0x28B5 SWAP1 PUSH2 0x42F3 JUMP JUMPDEST SWAP2 SWAP1 POP SSTORE POP PUSH2 0x28F9 DUP3 PUSH1 0x40 MLOAD DUP1 PUSH1 0x40 ADD PUSH1 0x40 MSTORE DUP1 PUSH1 0x4 DUP2 MSTORE PUSH1 0x20 ADD PUSH32 0x676F616C00000000000000000000000000000000000000000000000000000000 DUP2 MSTORE POP PUSH2 0x2A46 JUMP JUMPDEST PUSH1 0x2 SLOAD SWAP1 POP SWAP5 SWAP4 POP POP POP POP JUMP JUMPDEST PUSH1 0x15 PUSH1 0x20 MSTORE DUP1 PUSH1 0x0 MSTORE PUSH1 0x40 PUSH1 0x0 KECCAK256 PUSH1 0x0 SWAP2 POP SWAP1 POP DUP1 PUSH1 0x0 ADD SLOAD SWAP1 DUP1 PUSH1 0x1 ADD SLOAD SWAP1 DUP1 PUSH1 0x2 ADD DUP1 SLOAD PUSH2 0x2935 SWAP1 PUSH2 0x41AA JUMP JUMPDEST DUP1 PUSH1 0x1F ADD PUSH1 0x20 DUP1 SWAP2 DIV MUL PUSH1 0x20 ADD PUSH1 0x40 MLOAD SWAP1 DUP2 ADD PUSH1 0x40 MSTORE DUP1 SWAP3 SWAP2 SWAP1 DUP2 DUP2 MSTORE PUSH1 0x20 ADD DUP3 DUP1 SLOAD PUSH2 0x2961 SWAP1 PUSH2 0x41AA JUMP JUMPDEST DUP1 ISZERO PUSH2 0x29AE JUMPI DUP1 PUSH1 0x1F LT PUSH2 0x2983 JUMPI PUSH2 0x100 DUP1 DUP4 SLOAD DIV MUL DUP4 MSTORE SWAP2 PUSH1 0x20 ADD SWAP2 PUSH2 0x29AE JUMP JUMPDEST DUP3 ADD SWAP2 SWAP1 PUSH1 0x0 MSTORE PUSH1 0x20 PUSH1 0x0 KECCAK256 SWAP1 JUMPDEST DUP2 SLOAD DUP2 MSTORE SWAP1 PUSH1 0x1 ADD SWAP1 PUSH1 0x20 ADD DUP1 DUP4 GT PUSH2 0x2991 JUMPI DUP3 SWAP1 SUB PUSH1 0x1F AND DUP3 ADD SWAP2 JUMPDEST POP POP POP POP POP SWAP1 DUP1 PUSH1 0x3 ADD DUP1 SLOAD PUSH2 0x29C3 SWAP1 PUSH2 0x41AA JUMP JUMPDEST DUP1 PUSH1 0x1F ADD PUSH1 0x20 DUP1 SWAP2 DIV MUL PUSH1 0x20 ADD PUSH1 0x40 MLOAD SWAP1 DUP2 ADD PUSH1 0x40 MSTORE DUP1 SWAP3 SWAP2 SWAP1 DUP2 DUP2 MSTORE PUSH1 0x20 ADD DUP3 DUP1 SLOAD PUSH2 0x29EF SWAP1 PUSH2 0x41AA JUMP JUMPDEST DUP1 ISZERO PUSH2 0x2A3C JUMPI DUP1 PUSH1 0x1F LT PUSH2 0x2A11 JUMPI PUSH2 0x100 DUP1 DUP4 SLOAD DIV MUL DUP4 MSTORE SWAP2 PUSH1 0x20 ADD SWAP2 PUSH2 0x2A3C JUMP JUMPDEST DUP3 ADD SWAP2 SWAP1 PUSH1 0x0 MSTORE PUSH1 0x20 PUSH1 0x0 KECCAK256 SWAP1 JUMPDEST DUP2 SLOAD DUP2 MSTORE SWAP1 PUSH1 0x1 ADD SWAP1 PUSH1 0x20 ADD DUP1 DUP4 GT PUSH2 0x2A1F JUMPI DUP3 SWAP1 SUB PUSH1 0x1F AND DUP3 ADD SWAP2 JUMPDEST POP POP POP POP POP SWAP1 POP DUP5 JUMP JUMPDEST PUSH1 0x40 MLOAD DUP1 PUSH1 0x80 ADD PUSH1 0x40 MSTORE DUP1 PUSH1 0xA SLOAD DUP2 MSTORE PUSH1 0x20 ADD TIMESTAMP DUP2 MSTORE PUSH1 0x20 ADD DUP3 DUP2 MSTORE PUSH1 0x20 ADD DUP4 DUP2 MSTORE POP PUSH1 0x11 PUSH1 0x0 PUSH1 0xA SLOAD DUP2 MSTORE PUSH1 0x20 ADD SWAP1 DUP2 MSTORE PUSH1 0x20 ADD PUSH1 0x0 KECCAK256 PUSH1 0x0 DUP3 ADD MLOAD DUP2 PUSH1 0x0 ADD SSTORE PUSH1 0x20 DUP3 ADD MLOAD DUP2 PUSH1 0x1 ADD SSTORE PUSH1 0x40 DUP3 ADD MLOAD DUP2 PUSH1 0x2 ADD SWAP1 DUP2 PUSH2 0x2AA7 SWAP2 SWAP1 PUSH2 0x451B JUMP JUMPDEST POP PUSH1 0x60 DUP3 ADD MLOAD DUP2 PUSH1 0x3 ADD SWAP1 DUP2 PUSH2 0x2ABD SWAP2 SWAP1 PUSH2 0x451B JUMP JUMPDEST POP SWAP1 POP POP PUSH1 0xA PUSH1 0x0 DUP2 SLOAD DUP1 SWAP3 SWAP2 SWAP1 PUSH2 0x2AD4 SWAP1 PUSH2 0x42F3 JUMP JUMPDEST SWAP2 SWAP1 POP SSTORE POP POP POP JUMP JUMPDEST DUP1 PUSH1 0xF PUSH1 0x0 DUP5 DUP2 MSTORE PUSH1 0x20 ADD SWAP1 DUP2 MSTORE PUSH1 0x20 ADD PUSH1 0x0 KECCAK256 PUSH1 0x1 ADD SWAP1 DUP2 PUSH2 0x2B00 SWAP2 SWAP1 PUSH2 0x451B JUMP JUMPDEST POP POP POP JUMP JUMPDEST PUSH1 0x60 PUSH1 0x0 DUP1 SLOAD PUSH8 0xFFFFFFFFFFFFFFFF DUP2 GT ISZERO PUSH2 0x2B24 JUMPI PUSH2 0x2B23 PUSH2 0x3279 JUMP JUMPDEST JUMPDEST PUSH1 0x40 MLOAD SWAP1 DUP1 DUP3 MSTORE DUP1 PUSH1 0x20 MUL PUSH1 0x20 ADD DUP3 ADD PUSH1 0x40 MSTORE DUP1 ISZERO PUSH2 0x2B57 JUMPI DUP2 PUSH1 0x20 ADD JUMPDEST PUSH1 0x60 DUP2 MSTORE PUSH1 0x20 ADD SWAP1 PUSH1 0x1 SWAP1 SUB SWAP1 DUP2 PUSH2 0x2B42 JUMPI SWAP1 POP JUMPDEST POP SWAP1 POP PUSH1 0x0 JUMPDEST PUSH1 0x0 SLOAD DUP2 LT ISZERO PUSH2 0x2C37 JUMPI PUSH1 0xB PUSH1 0x0 DUP3 DUP2 MSTORE PUSH1 0x20 ADD SWAP1 DUP2 MSTORE PUSH1 0x20 ADD PUSH1 0x0 KECCAK256 PUSH1 0x1 ADD DUP1 SLOAD PUSH2 0x2B88 SWAP1 PUSH2 0x41AA JUMP JUMPDEST DUP1 PUSH1 0x1F ADD PUSH1 0x20 DUP1 SWAP2 DIV MUL PUSH1 0x20 ADD PUSH1 0x40 MLOAD SWAP1 DUP2 ADD PUSH1 0x40 MSTORE DUP1 SWAP3 SWAP2 SWAP1 DUP2 DUP2 MSTORE PUSH1 0x20 ADD DUP3 DUP1 SLOAD PUSH2 0x2BB4 SWAP1 PUSH2 0x41AA JUMP JUMPDEST DUP1 ISZERO PUSH2 0x2C01 JUMPI DUP1 PUSH1 0x1F LT PUSH2 0x2BD6 JUMPI PUSH2 0x100 DUP1 DUP4 SLOAD DIV MUL DUP4 MSTORE SWAP2 PUSH1 0x20 ADD SWAP2 PUSH2 0x2C01 JUMP JUMPDEST DUP3 ADD SWAP2 SWAP1 PUSH1 0x0 MSTORE PUSH1 0x20 PUSH1 0x0 KECCAK256 SWAP1 JUMPDEST DUP2 SLOAD DUP2 MSTORE SWAP1 PUSH1 0x1 ADD SWAP1 PUSH1 0x20 ADD DUP1 DUP4 GT PUSH2 0x2BE4 JUMPI DUP3 SWAP1 SUB PUSH1 0x1F AND DUP3 ADD SWAP2 JUMPDEST POP POP POP POP POP DUP3 DUP3 DUP2 MLOAD DUP2 LT PUSH2 0x2C19 JUMPI PUSH2 0x2C18 PUSH2 0x4295 JUMP JUMPDEST JUMPDEST PUSH1 0x20 MUL PUSH1 0x20 ADD ADD DUP2 SWAP1 MSTORE POP DUP1 DUP1 PUSH2 0x2C2F SWAP1 PUSH2 0x42F3 JUMP JUMPDEST SWAP2 POP POP PUSH2 0x2B5D JUMP JUMPDEST POP DUP1 SWAP2 POP POP SWAP1 JUMP JUMPDEST DUP1 PUSH1 0xE PUSH1 0x0 DUP5 DUP2 MSTORE PUSH1 0x20 ADD SWAP1 DUP2 MSTORE PUSH1 0x20 ADD PUSH1 0x0 KECCAK256 PUSH1 0x1 ADD SWAP1 DUP2 PUSH2 0x2C62 SWAP2 SWAP1 PUSH2 0x451B JUMP JUMPDEST POP POP POP JUMP JUMPDEST PUSH1 0x0 DUP1 PUSH1 0x0 SWAP1 POP JUMPDEST PUSH1 0x4 SLOAD DUP2 LT ISZERO PUSH2 0x2CB3 JUMPI DUP3 PUSH1 0xD PUSH1 0x0 DUP4 DUP2 MSTORE PUSH1 0x20 ADD SWAP1 DUP2 MSTORE PUSH1 0x20 ADD PUSH1 0x0 KECCAK256 PUSH1 0x1 ADD SLOAD SUB PUSH2 0x2CA0 JUMPI PUSH1 0x1 SWAP2 POP POP PUSH2 0x2CB9 JUMP JUMPDEST DUP1 DUP1 PUSH2 0x2CAB SWAP1 PUSH2 0x42F3 JUMP JUMPDEST SWAP2 POP POP PUSH2 0x2C6F JUMP JUMPDEST POP PUSH1 0x0 SWAP1 POP JUMPDEST SWAP2 SWAP1 POP JUMP JUMPDEST PUSH1 0x8 SLOAD DUP2 JUMP JUMPDEST PUSH1 0x16 PUSH1 0x20 MSTORE DUP1 PUSH1 0x0 MSTORE PUSH1 0x40 PUSH1 0x0 KECCAK256 PUSH1 0x0 SWAP2 POP SWAP1 POP DUP1 PUSH1 0x0 ADD SLOAD SWAP1 DUP1 PUSH1 0x1 ADD SLOAD SWAP1 DUP1 PUSH1 0x2 ADD SLOAD SWAP1 DUP1 PUSH1 0x3 ADD DUP1 SLOAD PUSH2 0x2CF9 SWAP1 PUSH2 0x41AA JUMP JUMPDEST DUP1 PUSH1 0x1F ADD PUSH1 0x20 DUP1 SWAP2 DIV MUL PUSH1 0x20 ADD PUSH1 0x40 MLOAD SWAP1 DUP2 ADD PUSH1 0x40 MSTORE DUP1 SWAP3 SWAP2 SWAP1 DUP2 DUP2 MSTORE PUSH1 0x20 ADD DUP3 DUP1 SLOAD PUSH2 0x2D25 SWAP1 PUSH2 0x41AA JUMP JUMPDEST DUP1 ISZERO PUSH2 0x2D72 JUMPI DUP1 PUSH1 0x1F LT PUSH2 0x2D47 JUMPI PUSH2 0x100 DUP1 DUP4 SLOAD DIV MUL DUP4 MSTORE SWAP2 PUSH1 0x20 ADD SWAP2 PUSH2 0x2D72 JUMP JUMPDEST DUP3 ADD SWAP2 SWAP1 PUSH1 0x0 MSTORE PUSH1 0x20 PUSH1 0x0 KECCAK256 SWAP1 JUMPDEST DUP2 SLOAD DUP2 MSTORE SWAP1 PUSH1 0x1 ADD SWAP1 PUSH1 0x20 ADD DUP1 DUP4 GT PUSH2 0x2D55 JUMPI DUP3 SWAP1 SUB PUSH1 0x1F AND DUP3 ADD SWAP2 JUMPDEST POP POP POP POP POP SWAP1 POP DUP5 JUMP JUMPDEST PUSH1 0x0 DUP1 PUSH1 0x0 SWAP1 POP PUSH1 0x0 JUMPDEST PUSH1 0x8 SLOAD DUP2 LT ISZERO PUSH2 0x2E02 JUMPI DUP5 PUSH1 0x16 PUSH1 0x0 DUP4 DUP2 MSTORE PUSH1 0x20 ADD SWAP1 DUP2 MSTORE PUSH1 0x20 ADD PUSH1 0x0 KECCAK256 PUSH1 0x0 ADD SLOAD EQ DUP1 ISZERO PUSH2 0x2DE5 JUMPI POP PUSH1 0x16 PUSH1 0x0 DUP3 DUP2 MSTORE PUSH1 0x20 ADD SWAP1 DUP2 MSTORE PUSH1 0x20 ADD PUSH1 0x0 KECCAK256 PUSH1 0x3 ADD PUSH1 0x40 MLOAD PUSH2 0x2DD3 SWAP2 SWAP1 PUSH2 0x427E JUMP JUMPDEST PUSH1 0x40 MLOAD DUP1 SWAP2 SUB SWAP1 KECCAK256 DUP5 DUP1 MLOAD SWAP1 PUSH1 0x20 ADD KECCAK256 EQ JUMPDEST ISZERO PUSH2 0x2DEF JUMPI PUSH1 0x1 SWAP2 POP JUMPDEST DUP1 DUP1 PUSH2 0x2DFA SWAP1 PUSH2 0x42F3 JUMP JUMPDEST SWAP2 POP POP PUSH2 0x2D86 JUMP JUMPDEST POP DUP1 SWAP2 POP POP SWAP3 SWAP2 POP POP JUMP JUMPDEST PUSH1 0x3 SLOAD DUP2 JUMP JUMPDEST PUSH1 0x0 PUSH1 0x1 PUSH1 0x18 PUSH1 0x0 DUP5 DUP2 MSTORE PUSH1 0x20 ADD SWAP1 DUP2 MSTORE PUSH1 0x20 ADD PUSH1 0x0 KECCAK256 PUSH1 0x1 ADD PUSH1 0x7 PUSH2 0x100 EXP DUP2 SLOAD DUP2 PUSH1 0xFF MUL NOT AND SWAP1 DUP4 ISZERO ISZERO MUL OR SWAP1 SSTORE POP PUSH1 0x40 MLOAD DUP1 PUSH1 0x80 ADD PUSH1 0x40 MSTORE DUP1 PUSH1 0x9 SLOAD DUP2 MSTORE PUSH1 0x20 ADD DUP7 DUP2 MSTORE PUSH1 0x20 ADD DUP5 DUP2 MSTORE PUSH1 0x20 ADD DUP6 DUP2 MSTORE POP PUSH1 0x17 PUSH1 0x0 PUSH1 0x9 SLOAD DUP2 MSTORE PUSH1 0x20 ADD SWAP1 DUP2 MSTORE PUSH1 0x20 ADD PUSH1 0x0 KECCAK256 PUSH1 0x0 DUP3 ADD MLOAD DUP2 PUSH1 0x0 ADD SSTORE PUSH1 0x20 DUP3 ADD MLOAD DUP2 PUSH1 0x1 ADD SSTORE PUSH1 0x40 DUP3 ADD MLOAD DUP2 PUSH1 0x2 ADD SSTORE PUSH1 0x60 DUP3 ADD MLOAD DUP2 PUSH1 0x3 ADD SWAP1 DUP2 PUSH2 0x2EAF SWAP2 SWAP1 PUSH2 0x451B JUMP JUMPDEST POP SWAP1 POP POP PUSH1 0x9 PUSH1 0x0 DUP2 SLOAD DUP1 SWAP3 SWAP2 SWAP1 PUSH2 0x2EC6 SWAP1 PUSH2 0x42F3 JUMP JUMPDEST SWAP2 SWAP1 POP SSTORE POP PUSH1 0x9 SLOAD SWAP1 POP SWAP5 SWAP4 POP POP POP POP JUMP JUMPDEST PUSH1 0x0 PUSH1 0x40 MLOAD DUP1 PUSH1 0x60 ADD PUSH1 0x40 MSTORE DUP1 DUP7 DUP2 MSTORE PUSH1 0x20 ADD DUP8 DUP2 MSTORE PUSH1 0x20 ADD PUSH1 0x0 DUP2 MSTORE POP PUSH1 0xF PUSH1 0x0 PUSH1 0x3 SLOAD DUP2 MSTORE PUSH1 0x20 ADD SWAP1 DUP2 MSTORE PUSH1 0x20 ADD PUSH1 0x0 KECCAK256 PUSH1 0x0 DUP3 ADD MLOAD DUP2 PUSH1 0x0 ADD SSTORE PUSH1 0x20 DUP3 ADD MLOAD DUP2 PUSH1 0x1 ADD SWAP1 DUP2 PUSH2 0x2F2A SWAP2 SWAP1 PUSH2 0x451B JUMP JUMPDEST POP PUSH1 0x40 DUP3 ADD MLOAD DUP2 PUSH1 0x2 ADD SSTORE SWAP1 POP POP PUSH1 0x1 PUSH1 0x18 PUSH1 0x0 DUP6 DUP2 MSTORE PUSH1 0x20 ADD SWAP1 DUP2 MSTORE PUSH1 0x20 ADD PUSH1 0x0 KECCAK256 PUSH1 0x1 ADD PUSH1 0x3 PUSH2 0x100 EXP DUP2 SLOAD DUP2 PUSH1 0xFF MUL NOT AND SWAP1 DUP4 ISZERO ISZERO MUL OR SWAP1 SSTORE POP PUSH1 0x3 PUSH1 0x0 DUP2 SLOAD DUP1 SWAP3 SWAP2 SWAP1 PUSH2 0x2F7A SWAP1 PUSH2 0x42F3 JUMP JUMPDEST SWAP2 SWAP1 POP SSTORE POP PUSH1 0x0 JUMPDEST DUP5 MLOAD DUP2 LT ISZERO PUSH2 0x2FDF JUMPI PUSH2 0x2FB4 PUSH1 0x3 SLOAD PUSH1 0x5 SLOAD DUP8 DUP5 DUP2 MLOAD DUP2 LT PUSH2 0x2FA7 JUMPI PUSH2 0x2FA6 PUSH2 0x4295 JUMP JUMPDEST JUMPDEST PUSH1 0x20 MUL PUSH1 0x20 ADD ADD MLOAD PUSH2 0x318D JUMP JUMPDEST PUSH1 0x5 PUSH1 0x0 DUP2 SLOAD DUP1 SWAP3 SWAP2 SWAP1 PUSH2 0x2FC7 SWAP1 PUSH2 0x42F3 JUMP JUMPDEST SWAP2 SWAP1 POP SSTORE POP DUP1 DUP1 PUSH2 0x2FD7 SWAP1 PUSH2 0x42F3 JUMP JUMPDEST SWAP2 POP POP PUSH2 0x2F82 JUMP JUMPDEST POP PUSH2 0x301F DUP3 PUSH1 0x40 MLOAD DUP1 PUSH1 0x40 ADD PUSH1 0x40 MSTORE DUP1 PUSH1 0x4 DUP2 MSTORE PUSH1 0x20 ADD PUSH32 0x6964656100000000000000000000000000000000000000000000000000000000 DUP2 MSTORE POP PUSH2 0x2A46 JUMP JUMPDEST PUSH1 0x3 SLOAD SWAP1 POP SWAP6 SWAP5 POP POP POP POP POP JUMP JUMPDEST PUSH1 0x60 PUSH1 0xE PUSH1 0x0 DUP4 DUP2 MSTORE PUSH1 0x20 ADD SWAP1 DUP2 MSTORE PUSH1 0x20 ADD PUSH1 0x0 KECCAK256 PUSH1 0x1 ADD DUP1 SLOAD PUSH2 0x3050 SWAP1 PUSH2 0x41AA JUMP JUMPDEST DUP1 PUSH1 0x1F ADD PUSH1 0x20 DUP1 SWAP2 DIV MUL PUSH1 0x20 ADD PUSH1 0x40 MLOAD SWAP1 DUP2 ADD PUSH1 0x40 MSTORE DUP1 SWAP3 SWAP2 SWAP1 DUP2 DUP2 MSTORE PUSH1 0x20 ADD DUP3 DUP1 SLOAD PUSH2 0x307C SWAP1 PUSH2 0x41AA JUMP JUMPDEST DUP1 ISZERO PUSH2 0x30C9 JUMPI DUP1 PUSH1 0x1F LT PUSH2 0x309E JUMPI PUSH2 0x100 DUP1 DUP4 SLOAD DIV MUL DUP4 MSTORE SWAP2 PUSH1 0x20 ADD SWAP2 PUSH2 0x30C9 JUMP JUMPDEST DUP3 ADD SWAP2 SWAP1 PUSH1 0x0 MSTORE PUSH1 0x20 PUSH1 0x0 KECCAK256 SWAP1 JUMPDEST DUP2 SLOAD DUP2 MSTORE SWAP1 PUSH1 0x1 ADD SWAP1 PUSH1 0x20 ADD DUP1 DUP4 GT PUSH2 0x30AC JUMPI DUP3 SWAP1 SUB PUSH1 0x1F AND DUP3 ADD SWAP2 JUMPDEST POP POP POP POP POP SWAP1 POP SWAP2 SWAP1 POP JUMP JUMPDEST PUSH1 0x1 SLOAD DUP2 JUMP JUMPDEST PUSH1 0x13 PUSH1 0x20 MSTORE DUP1 PUSH1 0x0 MSTORE PUSH1 0x40 PUSH1 0x0 KECCAK256 PUSH1 0x0 SWAP2 POP SWAP1 POP DUP1 PUSH1 0x0 ADD SLOAD SWAP1 DUP1 PUSH1 0x1 ADD SLOAD SWAP1 DUP1 PUSH1 0x2 ADD DUP1 SLOAD PUSH2 0x310A SWAP1 PUSH2 0x41AA JUMP JUMPDEST DUP1 PUSH1 0x1F ADD PUSH1 0x20 DUP1 SWAP2 DIV MUL PUSH1 0x20 ADD PUSH1 0x40 MLOAD SWAP1 DUP2 ADD PUSH1 0x40 MSTORE DUP1 SWAP3 SWAP2 SWAP1 DUP2 DUP2 MSTORE PUSH1 0x20 ADD DUP3 DUP1 SLOAD PUSH2 0x3136 SWAP1 PUSH2 0x41AA JUMP JUMPDEST DUP1 ISZERO PUSH2 0x3183 JUMPI DUP1 PUSH1 0x1F LT PUSH2 0x3158 JUMPI PUSH2 0x100 DUP1 DUP4 SLOAD DIV MUL DUP4 MSTORE SWAP2 PUSH1 0x20 ADD SWAP2 PUSH2 0x3183 JUMP JUMPDEST DUP3 ADD SWAP2 SWAP1 PUSH1 0x0 MSTORE PUSH1 0x20 PUSH1 0x0 KECCAK256 SWAP1 JUMPDEST DUP2 SLOAD DUP2 MSTORE SWAP1 PUSH1 0x1 ADD SWAP1 PUSH1 0x20 ADD DUP1 DUP4 GT PUSH2 0x3166 JUMPI DUP3 SWAP1 SUB PUSH1 0x1F AND DUP3 ADD SWAP2 JUMPDEST POP POP POP POP POP SWAP1 POP DUP4 JUMP JUMPDEST PUSH1 0x40 MLOAD DUP1 PUSH1 0x60 ADD PUSH1 0x40 MSTORE DUP1 DUP5 DUP2 MSTORE PUSH1 0x20 ADD DUP4 DUP2 MSTORE PUSH1 0x20 ADD DUP3 DUP2 MSTORE POP PUSH1 0x13 PUSH1 0x0 DUP5 DUP2 MSTORE PUSH1 0x20 ADD SWAP1 DUP2 MSTORE PUSH1 0x20 ADD PUSH1 0x0 KECCAK256 PUSH1 0x0 DUP3 ADD MLOAD DUP2 PUSH1 0x0 ADD SSTORE PUSH1 0x20 DUP3 ADD MLOAD DUP2 PUSH1 0x1 ADD SSTORE PUSH1 0x40 DUP3 ADD MLOAD DUP2 PUSH1 0x2 ADD SWAP1 DUP2 PUSH2 0x31E4 SWAP2 SWAP1 PUSH2 0x451B JUMP JUMPDEST POP SWAP1 POP POP POP POP POP JUMP JUMPDEST POP DUP1 SLOAD PUSH2 0x31F9 SWAP1 PUSH2 0x41AA JUMP JUMPDEST PUSH1 0x0 DUP3 SSTORE DUP1 PUSH1 0x1F LT PUSH2 0x320B JUMPI POP PUSH2 0x322A JUMP JUMPDEST PUSH1 0x1F ADD PUSH1 0x20 SWAP1 DIV SWAP1 PUSH1 0x0 MSTORE PUSH1 0x20 PUSH1 0x0 KECCAK256 SWAP1 DUP2 ADD SWAP1 PUSH2 0x3229 SWAP2 SWAP1 PUSH2 0x322D JUMP JUMPDEST JUMPDEST POP JUMP JUMPDEST JUMPDEST DUP1 DUP3 GT ISZERO PUSH2 0x3246 JUMPI PUSH1 0x0 DUP2 PUSH1 0x0 SWAP1 SSTORE POP PUSH1 0x1 ADD PUSH2 0x322E JUMP JUMPDEST POP SWAP1 JUMP JUMPDEST PUSH1 0x0 PUSH1 0x40 MLOAD SWAP1 POP SWAP1 JUMP JUMPDEST PUSH1 0x0 DUP1 REVERT JUMPDEST PUSH1 0x0 DUP1 REVERT JUMPDEST PUSH1 0x0 DUP1 REVERT JUMPDEST PUSH1 0x0 DUP1 REVERT JUMPDEST PUSH1 0x0 PUSH1 0x1F NOT PUSH1 0x1F DUP4 ADD AND SWAP1 POP SWAP2 SWAP1 POP JUMP JUMPDEST PUSH32 0x4E487B7100000000000000000000000000000000000000000000000000000000 PUSH1 0x0 MSTORE PUSH1 0x41 PUSH1 0x4 MSTORE PUSH1 0x24 PUSH1 0x0 REVERT JUMPDEST PUSH2 0x32B1 DUP3 PUSH2 0x3268 JUMP JUMPDEST DUP2 ADD DUP2 DUP2 LT PUSH8 0xFFFFFFFFFFFFFFFF DUP3 GT OR ISZERO PUSH2 0x32D0 JUMPI PUSH2 0x32CF PUSH2 0x3279 JUMP JUMPDEST JUMPDEST DUP1 PUSH1 0x40 MSTORE POP POP POP JUMP JUMPDEST PUSH1 0x0 PUSH2 0x32E3 PUSH2 0x324A JUMP JUMPDEST SWAP1 POP PUSH2 0x32EF DUP3 DUP3 PUSH2 0x32A8 JUMP JUMPDEST SWAP2 SWAP1 POP JUMP JUMPDEST PUSH1 0x0 PUSH8 0xFFFFFFFFFFFFFFFF DUP3 GT ISZERO PUSH2 0x330F JUMPI PUSH2 0x330E PUSH2 0x3279 JUMP JUMPDEST JUMPDEST PUSH2 0x3318 DUP3 PUSH2 0x3268 JUMP JUMPDEST SWAP1 POP PUSH1 0x20 DUP2 ADD SWAP1 POP SWAP2 SWAP1 POP JUMP JUMPDEST DUP3 DUP2 DUP4 CALLDATACOPY PUSH1 0x0 DUP4 DUP4 ADD MSTORE POP POP POP JUMP JUMPDEST PUSH1 0x0 PUSH2 0x3347 PUSH2 0x3342 DUP5 PUSH2 0x32F4 JUMP JUMPDEST PUSH2 0x32D9 JUMP JUMPDEST SWAP1 POP DUP3 DUP2 MSTORE PUSH1 0x20 DUP2 ADD DUP5 DUP5 DUP5 ADD GT ISZERO PUSH2 0x3363 JUMPI PUSH2 0x3362 PUSH2 0x3263 JUMP JUMPDEST JUMPDEST PUSH2 0x336E DUP5 DUP3 DUP6 PUSH2 0x3325 JUMP JUMPDEST POP SWAP4 SWAP3 POP POP POP JUMP JUMPDEST PUSH1 0x0 DUP3 PUSH1 0x1F DUP4 ADD SLT PUSH2 0x338B JUMPI PUSH2 0x338A PUSH2 0x325E JUMP JUMPDEST JUMPDEST DUP2 CALLDATALOAD PUSH2 0x339B DUP5 DUP3 PUSH1 0x20 DUP7 ADD PUSH2 0x3334 JUMP JUMPDEST SWAP2 POP POP SWAP3 SWAP2 POP POP JUMP JUMPDEST PUSH1 0x0 PUSH1 0x20 DUP3 DUP5 SUB SLT ISZERO PUSH2 0x33BA JUMPI PUSH2 0x33B9 PUSH2 0x3254 JUMP JUMPDEST JUMPDEST PUSH1 0x0 DUP3 ADD CALLDATALOAD PUSH8 0xFFFFFFFFFFFFFFFF DUP2 GT ISZERO PUSH2 0x33D8 JUMPI PUSH2 0x33D7 PUSH2 0x3259 JUMP JUMPDEST JUMPDEST PUSH2 0x33E4 DUP5 DUP3 DUP6 ADD PUSH2 0x3376 JUMP JUMPDEST SWAP2 POP POP SWAP3 SWAP2 POP POP JUMP JUMPDEST PUSH1 0x0 DUP2 MLOAD SWAP1 POP SWAP2 SWAP1 POP JUMP JUMPDEST PUSH1 0x0 DUP3 DUP3 MSTORE PUSH1 0x20 DUP3 ADD SWAP1 POP SWAP3 SWAP2 POP POP JUMP JUMPDEST PUSH1 0x0 DUP2 SWAP1 POP PUSH1 0x20 DUP3 ADD SWAP1 POP SWAP2 SWAP1 POP JUMP JUMPDEST PUSH1 0x0 DUP2 MLOAD SWAP1 POP SWAP2 SWAP1 POP JUMP JUMPDEST PUSH1 0x0 DUP3 DUP3 MSTORE PUSH1 0x20 DUP3 ADD SWAP1 POP SWAP3 SWAP2 POP POP JUMP JUMPDEST PUSH1 0x0 JUMPDEST DUP4 DUP2 LT ISZERO PUSH2 0x3453 JUMPI DUP1 DUP3 ADD MLOAD DUP2 DUP5 ADD MSTORE PUSH1 0x20 DUP2 ADD SWAP1 POP PUSH2 0x3438 JUMP JUMPDEST PUSH1 0x0 DUP5 DUP5 ADD MSTORE POP POP POP POP JUMP JUMPDEST PUSH1 0x0 PUSH2 0x346A DUP3 PUSH2 0x3419 JUMP JUMPDEST PUSH2 0x3474 DUP2 DUP6 PUSH2 0x3424 JUMP JUMPDEST SWAP4 POP PUSH2 0x3484 DUP2 DUP6 PUSH1 0x20 DUP7 ADD PUSH2 0x3435 JUMP JUMPDEST PUSH2 0x348D DUP2 PUSH2 0x3268 JUMP JUMPDEST DUP5 ADD SWAP2 POP POP SWAP3 SWAP2 POP POP JUMP JUMPDEST PUSH1 0x0 PUSH2 0x34A4 DUP4 DUP4 PUSH2 0x345F JUMP JUMPDEST SWAP1 POP SWAP3 SWAP2 POP POP JUMP JUMPDEST PUSH1 0x0 PUSH1 0x20 DUP3 ADD SWAP1 POP SWAP2 SWAP1 POP JUMP JUMPDEST PUSH1 0x0 PUSH2 0x34C4 DUP3 PUSH2 0x33ED JUMP JUMPDEST PUSH2 0x34CE DUP2 DUP6 PUSH2 0x33F8 JUMP JUMPDEST SWAP4 POP DUP4 PUSH1 0x20 DUP3 MUL DUP6 ADD PUSH2 0x34E0 DUP6 PUSH2 0x3409 JUMP JUMPDEST DUP1 PUSH1 0x0 JUMPDEST DUP6 DUP2 LT ISZERO PUSH2 0x351C JUMPI DUP5 DUP5 SUB DUP10 MSTORE DUP2 MLOAD PUSH2 0x34FD DUP6 DUP3 PUSH2 0x3498 JUMP JUMPDEST SWAP5 POP PUSH2 0x3508 DUP4 PUSH2 0x34AC JUMP JUMPDEST SWAP3 POP PUSH1 0x20 DUP11 ADD SWAP10 POP POP PUSH1 0x1 DUP2 ADD SWAP1 POP PUSH2 0x34E4 JUMP JUMPDEST POP DUP3 SWAP8 POP DUP8 SWAP6 POP POP POP POP POP POP SWAP3 SWAP2 POP POP JUMP JUMPDEST PUSH1 0x0 PUSH1 0x20 DUP3 ADD SWAP1 POP DUP2 DUP2 SUB PUSH1 0x0 DUP4 ADD MSTORE PUSH2 0x3548 DUP2 DUP5 PUSH2 0x34B9 JUMP JUMPDEST SWAP1 POP SWAP3 SWAP2 POP POP JUMP JUMPDEST PUSH1 0x0 DUP2 SWAP1 POP SWAP2 SWAP1 POP JUMP JUMPDEST PUSH2 0x3563 DUP2 PUSH2 0x3550 JUMP JUMPDEST DUP3 MSTORE POP POP JUMP JUMPDEST PUSH1 0x0 PUSH1 0x20 DUP3 ADD SWAP1 POP PUSH2 0x357E PUSH1 0x0 DUP4 ADD DUP5 PUSH2 0x355A JUMP JUMPDEST SWAP3 SWAP2 POP POP JUMP JUMPDEST PUSH2 0x358D DUP2 PUSH2 0x3550 JUMP JUMPDEST DUP2 EQ PUSH2 0x3598 JUMPI PUSH1 0x0 DUP1 REVERT JUMPDEST POP JUMP JUMPDEST PUSH1 0x0 DUP2 CALLDATALOAD SWAP1 POP PUSH2 0x35AA DUP2 PUSH2 0x3584 JUMP JUMPDEST SWAP3 SWAP2 POP POP JUMP JUMPDEST PUSH1 0x0 PUSH1 0x20 DUP3 DUP5 SUB SLT ISZERO PUSH2 0x35C6 JUMPI PUSH2 0x35C5 PUSH2 0x3254 JUMP JUMPDEST JUMPDEST PUSH1 0x0 PUSH2 0x35D4 DUP5 DUP3 DUP6 ADD PUSH2 0x359B JUMP JUMPDEST SWAP2 POP POP SWAP3 SWAP2 POP POP JUMP JUMPDEST PUSH1 0x0 PUSH1 0x60 DUP3 ADD SWAP1 POP PUSH2 0x35F2 PUSH1 0x0 DUP4 ADD DUP7 PUSH2 0x355A JUMP JUMPDEST PUSH2 0x35FF PUSH1 0x20 DUP4 ADD DUP6 PUSH2 0x355A JUMP JUMPDEST PUSH2 0x360C PUSH1 0x40 DUP4 ADD DUP5 PUSH2 0x355A JUMP JUMPDEST SWAP5 SWAP4 POP POP POP POP JUMP JUMPDEST PUSH1 0x0 DUP3 DUP3 MSTORE PUSH1 0x20 DUP3 ADD SWAP1 POP SWAP3 SWAP2 POP POP JUMP JUMPDEST PUSH1 0x0 PUSH2 0x3630 DUP3 PUSH2 0x3419 JUMP JUMPDEST PUSH2 0x363A DUP2 DUP6 PUSH2 0x3614 JUMP JUMPDEST SWAP4 POP PUSH2 0x364A DUP2 DUP6 PUSH1 0x20 DUP7 ADD PUSH2 0x3435 JUMP JUMPDEST PUSH2 0x3653 DUP2 PUSH2 0x3268 JUMP JUMPDEST DUP5 ADD SWAP2 POP POP SWAP3 SWAP2 POP POP JUMP JUMPDEST PUSH1 0x0 PUSH1 0x60 DUP3 ADD SWAP1 POP DUP2 DUP2 SUB PUSH1 0x0 DUP4 ADD MSTORE PUSH2 0x3678 DUP2 DUP7 PUSH2 0x3625 JUMP JUMPDEST SWAP1 POP DUP2 DUP2 SUB PUSH1 0x20 DUP4 ADD MSTORE PUSH2 0x368C DUP2 DUP6 PUSH2 0x3625 JUMP JUMPDEST SWAP1 POP DUP2 DUP2 SUB PUSH1 0x40 DUP4 ADD MSTORE PUSH2 0x36A0 DUP2 DUP5 PUSH2 0x3625 JUMP JUMPDEST SWAP1 POP SWAP5 SWAP4 POP POP POP POP JUMP JUMPDEST PUSH1 0x0 PUSH1 0x40 DUP3 ADD SWAP1 POP PUSH2 0x36BF PUSH1 0x0 DUP4 ADD DUP6 PUSH2 0x355A JUMP JUMPDEST PUSH2 0x36CC PUSH1 0x20 DUP4 ADD DUP5 PUSH2 0x355A JUMP JUMPDEST SWAP4 SWAP3 POP POP POP JUMP JUMPDEST PUSH1 0x0 PUSH1 0x80 DUP3 ADD SWAP1 POP PUSH2 0x36E8 PUSH1 0x0 DUP4 ADD DUP8 PUSH2 0x355A JUMP JUMPDEST PUSH2 0x36F5 PUSH1 0x20 DUP4 ADD DUP7 PUSH2 0x355A JUMP JUMPDEST PUSH2 0x3702 PUSH1 0x40 DUP4 ADD DUP6 PUSH2 0x355A JUMP JUMPDEST DUP2 DUP2 SUB PUSH1 0x60 DUP4 ADD MSTORE PUSH2 0x3714 DUP2 DUP5 PUSH2 0x3625 JUMP JUMPDEST SWAP1 POP SWAP6 SWAP5 POP POP POP POP POP JUMP JUMPDEST PUSH1 0x0 PUSH1 0x60 DUP3 ADD SWAP1 POP PUSH2 0x3734 PUSH1 0x0 DUP4 ADD DUP7 PUSH2 0x355A JUMP JUMPDEST DUP2 DUP2 SUB PUSH1 0x20 DUP4 ADD MSTORE PUSH2 0x3746 DUP2 DUP6 PUSH2 0x3625 JUMP JUMPDEST SWAP1 POP PUSH2 0x3755 PUSH1 0x40 DUP4 ADD DUP5 PUSH2 0x355A JUMP JUMPDEST SWAP5 SWAP4 POP POP POP POP JUMP JUMPDEST PUSH1 0x0 DUP1 PUSH1 0x40 DUP4 DUP6 SUB SLT ISZERO PUSH2 0x3774 JUMPI PUSH2 0x3773 PUSH2 0x3254 JUMP JUMPDEST JUMPDEST PUSH1 0x0 PUSH2 0x3782 DUP6 DUP3 DUP7 ADD PUSH2 0x359B JUMP JUMPDEST SWAP3 POP POP PUSH1 0x20 PUSH2 0x3793 DUP6 DUP3 DUP7 ADD PUSH2 0x359B JUMP JUMPDEST SWAP2 POP POP SWAP3 POP SWAP3 SWAP1 POP JUMP JUMPDEST PUSH1 0x0 DUP2 MLOAD SWAP1 POP SWAP2 SWAP1 POP JUMP JUMPDEST PUSH1 0x0 DUP3 DUP3 MSTORE PUSH1 0x20 DUP3 ADD SWAP1 POP SWAP3 SWAP2 POP POP JUMP JUMPDEST PUSH1 0x0 DUP2 SWAP1 POP PUSH1 0x20 DUP3 ADD SWAP1 POP SWAP2 SWAP1 POP JUMP JUMPDEST PUSH2 0x37D2 DUP2 PUSH2 0x3550 JUMP JUMPDEST DUP3 MSTORE POP POP JUMP JUMPDEST PUSH1 0x0 PUSH2 0x37E4 DUP4 DUP4 PUSH2 0x37C9 JUMP JUMPDEST PUSH1 0x20 DUP4 ADD SWAP1 POP SWAP3 SWAP2 POP POP JUMP JUMPDEST PUSH1 0x0 PUSH1 0x20 DUP3 ADD SWAP1 POP SWAP2 SWAP1 POP JUMP JUMPDEST PUSH1 0x0 PUSH2 0x3808 DUP3 PUSH2 0x379D JUMP JUMPDEST PUSH2 0x3812 DUP2 DUP6 PUSH2 0x37A8 JUMP JUMPDEST SWAP4 POP PUSH2 0x381D DUP4 PUSH2 0x37B9 JUMP JUMPDEST DUP1 PUSH1 0x0 JUMPDEST DUP4 DUP2 LT ISZERO PUSH2 0x384E JUMPI DUP2 MLOAD PUSH2 0x3835 DUP9 DUP3 PUSH2 0x37D8 JUMP JUMPDEST SWAP8 POP PUSH2 0x3840 DUP4 PUSH2 0x37F0 JUMP JUMPDEST SWAP3 POP POP PUSH1 0x1 DUP2 ADD SWAP1 POP PUSH2 0x3821 JUMP JUMPDEST POP DUP6 SWAP4 POP POP POP POP SWAP3 SWAP2 POP POP JUMP JUMPDEST PUSH1 0x0 PUSH1 0x20 DUP3 ADD SWAP1 POP DUP2 DUP2 SUB PUSH1 0x0 DUP4 ADD MSTORE PUSH2 0x3875 DUP2 DUP5 PUSH2 0x37FD JUMP JUMPDEST SWAP1 POP SWAP3 SWAP2 POP POP JUMP JUMPDEST PUSH1 0x0 PUSH1 0x80 DUP3 ADD SWAP1 POP PUSH2 0x3892 PUSH1 0x0 DUP4 ADD DUP8 PUSH2 0x355A JUMP JUMPDEST PUSH2 0x389F PUSH1 0x20 DUP4 ADD DUP7 PUSH2 0x355A JUMP JUMPDEST DUP2 DUP2 SUB PUSH1 0x40 DUP4 ADD MSTORE PUSH2 0x38B1 DUP2 DUP6 PUSH2 0x3625 JUMP JUMPDEST SWAP1 POP DUP2 DUP2 SUB PUSH1 0x60 DUP4 ADD MSTORE PUSH2 0x38C5 DUP2 DUP5 PUSH2 0x3625 JUMP JUMPDEST SWAP1 POP SWAP6 SWAP5 POP POP POP POP POP JUMP JUMPDEST PUSH1 0x0 DUP1 PUSH1 0x0 DUP1 PUSH1 0x0 PUSH1 0xA0 DUP7 DUP9 SUB SLT ISZERO PUSH2 0x38EC JUMPI PUSH2 0x38EB PUSH2 0x3254 JUMP JUMPDEST JUMPDEST PUSH1 0x0 PUSH2 0x38FA DUP9 DUP3 DUP10 ADD PUSH2 0x359B JUMP JUMPDEST SWAP6 POP POP PUSH1 0x20 PUSH2 0x390B DUP9 DUP3 DUP10 ADD PUSH2 0x359B JUMP JUMPDEST SWAP5 POP POP PUSH1 0x40 PUSH2 0x391C DUP9 DUP3 DUP10 ADD PUSH2 0x359B JUMP JUMPDEST SWAP4 POP POP PUSH1 0x60 DUP7 ADD CALLDATALOAD PUSH8 0xFFFFFFFFFFFFFFFF DUP2 GT ISZERO PUSH2 0x393D JUMPI PUSH2 0x393C PUSH2 0x3259 JUMP JUMPDEST JUMPDEST PUSH2 0x3949 DUP9 DUP3 DUP10 ADD PUSH2 0x3376 JUMP JUMPDEST SWAP3 POP POP PUSH1 0x80 DUP7 ADD CALLDATALOAD PUSH8 0xFFFFFFFFFFFFFFFF DUP2 GT ISZERO PUSH2 0x396A JUMPI PUSH2 0x3969 PUSH2 0x3259 JUMP JUMPDEST JUMPDEST PUSH2 0x3976 DUP9 DUP3 DUP10 ADD PUSH2 0x3376 JUMP JUMPDEST SWAP2 POP POP SWAP3 SWAP6 POP SWAP3 SWAP6 SWAP1 SWAP4 POP JUMP JUMPDEST PUSH1 0x0 PUSH1 0x20 DUP3 ADD SWAP1 POP DUP2 DUP2 SUB PUSH1 0x0 DUP4 ADD MSTORE PUSH2 0x399D DUP2 DUP5 PUSH2 0x3625 JUMP JUMPDEST SWAP1 POP SWAP3 SWAP2 POP POP JUMP JUMPDEST PUSH1 0x0 DUP1 PUSH1 0x0 DUP1 PUSH1 0x80 DUP6 DUP8 SUB SLT ISZERO PUSH2 0x39BF JUMPI PUSH2 0x39BE PUSH2 0x3254 JUMP JUMPDEST JUMPDEST PUSH1 0x0 PUSH2 0x39CD DUP8 DUP3 DUP9 ADD PUSH2 0x359B JUMP JUMPDEST SWAP5 POP POP PUSH1 0x20 DUP6 ADD CALLDATALOAD PUSH8 0xFFFFFFFFFFFFFFFF DUP2 GT ISZERO PUSH2 0x39EE JUMPI PUSH2 0x39ED PUSH2 0x3259 JUMP JUMPDEST JUMPDEST PUSH2 0x39FA DUP8 DUP3 DUP9 ADD PUSH2 0x3376 JUMP JUMPDEST SWAP4 POP POP PUSH1 0x40 DUP6 ADD CALLDATALOAD PUSH8 0xFFFFFFFFFFFFFFFF DUP2 GT ISZERO PUSH2 0x3A1B JUMPI PUSH2 0x3A1A PUSH2 0x3259 JUMP JUMPDEST JUMPDEST PUSH2 0x3A27 DUP8 DUP3 DUP9 ADD PUSH2 0x3376 JUMP JUMPDEST SWAP3 POP POP PUSH1 0x60 PUSH2 0x3A38 DUP8 DUP3 DUP9 ADD PUSH2 0x359B JUMP JUMPDEST SWAP2 POP POP SWAP3 SWAP6 SWAP2 SWAP5 POP SWAP3 POP JUMP JUMPDEST PUSH1 0x0 PUSH1 0x40 DUP3 ADD SWAP1 POP DUP2 DUP2 SUB PUSH1 0x0 DUP4 ADD MSTORE PUSH2 0x3A5E DUP2 DUP6 PUSH2 0x3625 JUMP JUMPDEST SWAP1 POP DUP2 DUP2 SUB PUSH1 0x20 DUP4 ADD MSTORE PUSH2 0x3A72 DUP2 DUP5 PUSH2 0x3625 JUMP JUMPDEST SWAP1 POP SWAP4 SWAP3 POP POP POP JUMP JUMPDEST PUSH1 0x0 DUP1 PUSH1 0x0 DUP1 PUSH1 0x80 DUP6 DUP8 SUB SLT ISZERO PUSH2 0x3A95 JUMPI PUSH2 0x3A94 PUSH2 0x3254 JUMP JUMPDEST JUMPDEST PUSH1 0x0 DUP6 ADD CALLDATALOAD PUSH8 0xFFFFFFFFFFFFFFFF DUP2 GT ISZERO PUSH2 0x3AB3 JUMPI PUSH2 0x3AB2 PUSH2 0x3259 JUMP JUMPDEST JUMPDEST PUSH2 0x3ABF DUP8 DUP3 DUP9 ADD PUSH2 0x3376 JUMP JUMPDEST SWAP5 POP POP PUSH1 0x20 DUP6 ADD CALLDATALOAD PUSH8 0xFFFFFFFFFFFFFFFF DUP2 GT ISZERO PUSH2 0x3AE0 JUMPI PUSH2 0x3ADF PUSH2 0x3259 JUMP JUMPDEST JUMPDEST PUSH2 0x3AEC DUP8 DUP3 DUP9 ADD PUSH2 0x3376 JUMP JUMPDEST SWAP4 POP POP PUSH1 0x40 DUP6 ADD CALLDATALOAD PUSH8 0xFFFFFFFFFFFFFFFF DUP2 GT ISZERO PUSH2 0x3B0D JUMPI PUSH2 0x3B0C PUSH2 0x3259 JUMP JUMPDEST JUMPDEST PUSH2 0x3B19 DUP8 DUP3 DUP9 ADD PUSH2 0x3376 JUMP JUMPDEST SWAP3 POP POP PUSH1 0x60 PUSH2 0x3B2A DUP8 DUP3 DUP9 ADD PUSH2 0x359B JUMP JUMPDEST SWAP2 POP POP SWAP3 SWAP6 SWAP2 SWAP5 POP SWAP3 POP JUMP JUMPDEST PUSH1 0x0 DUP1 PUSH1 0x40 DUP4 DUP6 SUB SLT ISZERO PUSH2 0x3B4D JUMPI PUSH2 0x3B4C PUSH2 0x3254 JUMP JUMPDEST JUMPDEST PUSH1 0x0 PUSH2 0x3B5B DUP6 DUP3 DUP7 ADD PUSH2 0x359B JUMP JUMPDEST SWAP3 POP POP PUSH1 0x20 DUP4 ADD CALLDATALOAD PUSH8 0xFFFFFFFFFFFFFFFF DUP2 GT ISZERO PUSH2 0x3B7C JUMPI PUSH2 0x3B7B PUSH2 0x3259 JUMP JUMPDEST JUMPDEST PUSH2 0x3B88 DUP6 DUP3 DUP7 ADD PUSH2 0x3376 JUMP JUMPDEST SWAP2 POP POP SWAP3 POP SWAP3 SWAP1 POP JUMP JUMPDEST PUSH1 0x0 DUP1 PUSH1 0x0 PUSH1 0x60 DUP5 DUP7 SUB SLT ISZERO PUSH2 0x3BAB JUMPI PUSH2 0x3BAA PUSH2 0x3254 JUMP JUMPDEST JUMPDEST PUSH1 0x0 PUSH2 0x3BB9 DUP7 DUP3 DUP8 ADD PUSH2 0x359B JUMP JUMPDEST SWAP4 POP POP PUSH1 0x20 DUP5 ADD CALLDATALOAD PUSH8 0xFFFFFFFFFFFFFFFF DUP2 GT ISZERO PUSH2 0x3BDA JUMPI PUSH2 0x3BD9 PUSH2 0x3259 JUMP JUMPDEST JUMPDEST PUSH2 0x3BE6 DUP7 DUP3 DUP8 ADD PUSH2 0x3376 JUMP JUMPDEST SWAP3 POP POP PUSH1 0x40 DUP5 ADD CALLDATALOAD PUSH8 0xFFFFFFFFFFFFFFFF DUP2 GT ISZERO PUSH2 0x3C07 JUMPI PUSH2 0x3C06 PUSH2 0x3259 JUMP JUMPDEST JUMPDEST PUSH2 0x3C13 DUP7 DUP3 DUP8 ADD PUSH2 0x3376 JUMP JUMPDEST SWAP2 POP POP SWAP3 POP SWAP3 POP SWAP3 JUMP JUMPDEST PUSH1 0x0 DUP1 PUSH1 0x0 PUSH1 0x60 DUP5 DUP7 SUB SLT ISZERO PUSH2 0x3C36 JUMPI PUSH2 0x3C35 PUSH2 0x3254 JUMP JUMPDEST JUMPDEST PUSH1 0x0 PUSH2 0x3C44 DUP7 DUP3 DUP8 ADD PUSH2 0x359B JUMP JUMPDEST SWAP4 POP POP PUSH1 0x20 PUSH2 0x3C55 DUP7 DUP3 DUP8 ADD PUSH2 0x359B JUMP JUMPDEST SWAP3 POP POP PUSH1 0x40 DUP5 ADD CALLDATALOAD PUSH8 0xFFFFFFFFFFFFFFFF DUP2 GT ISZERO PUSH2 0x3C76 JUMPI PUSH2 0x3C75 PUSH2 0x3259 JUMP JUMPDEST JUMPDEST PUSH2 0x3C82 DUP7 DUP3 DUP8 ADD PUSH2 0x3376 JUMP JUMPDEST SWAP2 POP POP SWAP3 POP SWAP3 POP SWAP3 JUMP JUMPDEST PUSH1 0x0 DUP1 PUSH1 0x0 DUP1 PUSH1 0x80 DUP6 DUP8 SUB SLT ISZERO PUSH2 0x3CA6 JUMPI PUSH2 0x3CA5 PUSH2 0x3254 JUMP JUMPDEST JUMPDEST PUSH1 0x0 PUSH2 0x3CB4 DUP8 DUP3 DUP9 ADD PUSH2 0x359B JUMP JUMPDEST SWAP5 POP POP PUSH1 0x20 PUSH2 0x3CC5 DUP8 DUP3 DUP9 ADD PUSH2 0x359B JUMP JUMPDEST SWAP4 POP POP PUSH1 0x40 PUSH2 0x3CD6 DUP8 DUP3 DUP9 ADD PUSH2 0x359B JUMP JUMPDEST SWAP3 POP POP PUSH1 0x60 DUP6 ADD CALLDATALOAD PUSH8 0xFFFFFFFFFFFFFFFF DUP2 GT ISZERO PUSH2 0x3CF7 JUMPI PUSH2 0x3CF6 PUSH2 0x3259 JUMP JUMPDEST JUMPDEST PUSH2 0x3D03 DUP8 DUP3 DUP9 ADD PUSH2 0x3376 JUMP JUMPDEST SWAP2 POP POP SWAP3 SWAP6 SWAP2 SWAP5 POP SWAP3 POP JUMP JUMPDEST PUSH1 0x0 DUP2 ISZERO ISZERO SWAP1 POP SWAP2 SWAP1 POP JUMP JUMPDEST PUSH2 0x3D24 DUP2 PUSH2 0x3D0F JUMP JUMPDEST DUP3 MSTORE POP POP JUMP JUMPDEST PUSH1 0x0 PUSH2 0x120 DUP3 ADD SWAP1 POP PUSH2 0x3D40 PUSH1 0x0 DUP4 ADD DUP13 PUSH2 0x355A JUMP JUMPDEST PUSH2 0x3D4D PUSH1 0x20 DUP4 ADD DUP12 PUSH2 0x3D1B JUMP JUMPDEST PUSH2 0x3D5A PUSH1 0x40 DUP4 ADD DUP11 PUSH2 0x3D1B JUMP JUMPDEST PUSH2 0x3D67 PUSH1 0x60 DUP4 ADD DUP10 PUSH2 0x3D1B JUMP JUMPDEST PUSH2 0x3D74 PUSH1 0x80 DUP4 ADD DUP9 PUSH2 0x3D1B JUMP JUMPDEST PUSH2 0x3D81 PUSH1 0xA0 DUP4 ADD DUP8 PUSH2 0x3D1B JUMP JUMPDEST PUSH2 0x3D8E PUSH1 0xC0 DUP4 ADD DUP7 PUSH2 0x3D1B JUMP JUMPDEST PUSH2 0x3D9B PUSH1 0xE0 DUP4 ADD DUP6 PUSH2 0x3D1B JUMP JUMPDEST PUSH2 0x3DA9 PUSH2 0x100 DUP4 ADD DUP5 PUSH2 0x3D1B JUMP JUMPDEST SWAP11 SWAP10 POP POP POP POP POP POP POP POP POP POP JUMP JUMPDEST PUSH1 0x0 DUP1 PUSH1 0x0 DUP1 PUSH1 0x80 DUP6 DUP8 SUB SLT ISZERO PUSH2 0x3DD1 JUMPI PUSH2 0x3DD0 PUSH2 0x3254 JUMP JUMPDEST JUMPDEST PUSH1 0x0 DUP6 ADD CALLDATALOAD PUSH8 0xFFFFFFFFFFFFFFFF DUP2 GT ISZERO PUSH2 0x3DEF JUMPI PUSH2 0x3DEE PUSH2 0x3259 JUMP JUMPDEST JUMPDEST PUSH2 0x3DFB DUP8 DUP3 DUP9 ADD PUSH2 0x3376 JUMP JUMPDEST SWAP5 POP POP PUSH1 0x20 DUP6 ADD CALLDATALOAD PUSH8 0xFFFFFFFFFFFFFFFF DUP2 GT ISZERO PUSH2 0x3E1C JUMPI PUSH2 0x3E1B PUSH2 0x3259 JUMP JUMPDEST JUMPDEST PUSH2 0x3E28 DUP8 DUP3 DUP9 ADD PUSH2 0x3376 JUMP JUMPDEST SWAP4 POP POP PUSH1 0x40 PUSH2 0x3E39 DUP8 DUP3 DUP9 ADD PUSH2 0x359B JUMP JUMPDEST SWAP3 POP POP PUSH1 0x60 DUP6 ADD CALLDATALOAD PUSH8 0xFFFFFFFFFFFFFFFF DUP2 GT ISZERO PUSH2 0x3E5A JUMPI PUSH2 0x3E59 PUSH2 0x3259 JUMP JUMPDEST JUMPDEST PUSH2 0x3E66 DUP8 DUP3 DUP9 ADD PUSH2 0x3376 JUMP JUMPDEST SWAP2 POP POP SWAP3 SWAP6 SWAP2 SWAP5 POP SWAP3 POP JUMP JUMPDEST PUSH1 0x0 DUP1 PUSH1 0x40 DUP4 DUP6 SUB SLT ISZERO PUSH2 0x3E89 JUMPI PUSH2 0x3E88 PUSH2 0x3254 JUMP JUMPDEST JUMPDEST PUSH1 0x0 DUP4 ADD CALLDATALOAD PUSH8 0xFFFFFFFFFFFFFFFF DUP2 GT ISZERO PUSH2 0x3EA7 JUMPI PUSH2 0x3EA6 PUSH2 0x3259 JUMP JUMPDEST JUMPDEST PUSH2 0x3EB3 DUP6 DUP3 DUP7 ADD PUSH2 0x3376 JUMP JUMPDEST SWAP3 POP POP PUSH1 0x20 DUP4 ADD CALLDATALOAD PUSH8 0xFFFFFFFFFFFFFFFF DUP2 GT ISZERO PUSH2 0x3ED4 JUMPI PUSH2 0x3ED3 PUSH2 0x3259 JUMP JUMPDEST JUMPDEST PUSH2 0x3EE0 DUP6 DUP3 DUP7 ADD PUSH2 0x3376 JUMP JUMPDEST SWAP2 POP POP SWAP3 POP SWAP3 SWAP1 POP JUMP JUMPDEST PUSH1 0x0 PUSH1 0x20 DUP3 ADD SWAP1 POP PUSH2 0x3EFF PUSH1 0x0 DUP4 ADD DUP5 PUSH2 0x3D1B JUMP JUMPDEST SWAP3 SWAP2 POP POP JUMP JUMPDEST PUSH1 0x0 DUP1 PUSH1 0x0 DUP1 PUSH1 0x80 DUP6 DUP8 SUB SLT ISZERO PUSH2 0x3F1F JUMPI PUSH2 0x3F1E PUSH2 0x3254 JUMP JUMPDEST JUMPDEST PUSH1 0x0 PUSH2 0x3F2D DUP8 DUP3 DUP9 ADD PUSH2 0x359B JUMP JUMPDEST SWAP5 POP POP PUSH1 0x20 DUP6 ADD CALLDATALOAD PUSH8 0xFFFFFFFFFFFFFFFF DUP2 GT ISZERO PUSH2 0x3F4E JUMPI PUSH2 0x3F4D PUSH2 0x3259 JUMP JUMPDEST JUMPDEST PUSH2 0x3F5A DUP8 DUP3 DUP9 ADD PUSH2 0x3376 JUMP JUMPDEST SWAP4 POP POP PUSH1 0x40 PUSH2 0x3F6B DUP8 DUP3 DUP9 ADD PUSH2 0x359B JUMP JUMPDEST SWAP3 POP POP PUSH1 0x60 PUSH2 0x3F7C DUP8 DUP3 DUP9 ADD PUSH2 0x359B JUMP JUMPDEST SWAP2 POP POP SWAP3 SWAP6 SWAP2 SWAP5 POP SWAP3 POP JUMP JUMPDEST PUSH1 0x0 PUSH8 0xFFFFFFFFFFFFFFFF DUP3 GT ISZERO PUSH2 0x3FA3 JUMPI PUSH2 0x3FA2 PUSH2 0x3279 JUMP JUMPDEST JUMPDEST PUSH1 0x20 DUP3 MUL SWAP1 POP PUSH1 0x20 DUP2 ADD SWAP1 POP SWAP2 SWAP1 POP JUMP JUMPDEST PUSH1 0x0 DUP1 REVERT JUMPDEST PUSH1 0x0 PUSH2 0x3FCC PUSH2 0x3FC7 DUP5 PUSH2 0x3F88 JUMP JUMPDEST PUSH2 0x32D9 JUMP JUMPDEST SWAP1 POP DUP1 DUP4 DUP3 MSTORE PUSH1 0x20 DUP3 ADD SWAP1 POP PUSH1 0x20 DUP5 MUL DUP4 ADD DUP6 DUP2 GT ISZERO PUSH2 0x3FEF JUMPI PUSH2 0x3FEE PUSH2 0x3FB4 JUMP JUMPDEST JUMPDEST DUP4 JUMPDEST DUP2 DUP2 LT ISZERO PUSH2 0x4036 JUMPI DUP1 CALLDATALOAD PUSH8 0xFFFFFFFFFFFFFFFF DUP2 GT ISZERO PUSH2 0x4014 JUMPI PUSH2 0x4013 PUSH2 0x325E JUMP JUMPDEST JUMPDEST DUP1 DUP7 ADD PUSH2 0x4021 DUP10 DUP3 PUSH2 0x3376 JUMP JUMPDEST DUP6 MSTORE PUSH1 0x20 DUP6 ADD SWAP5 POP POP POP PUSH1 0x20 DUP2 ADD SWAP1 POP PUSH2 0x3FF1 JUMP JUMPDEST POP POP POP SWAP4 SWAP3 POP POP POP JUMP JUMPDEST PUSH1 0x0 DUP3 PUSH1 0x1F DUP4 ADD SLT PUSH2 0x4055 JUMPI PUSH2 0x4054 PUSH2 0x325E JUMP JUMPDEST JUMPDEST DUP2 CALLDATALOAD PUSH2 0x4065 DUP5 DUP3 PUSH1 0x20 DUP7 ADD PUSH2 0x3FB9 JUMP JUMPDEST SWAP2 POP POP SWAP3 SWAP2 POP POP JUMP JUMPDEST PUSH1 0x0 DUP1 PUSH1 0x0 DUP1 PUSH1 0x0 PUSH1 0xA0 DUP7 DUP9 SUB SLT ISZERO PUSH2 0x408A JUMPI PUSH2 0x4089 PUSH2 0x3254 JUMP JUMPDEST JUMPDEST PUSH1 0x0 DUP7 ADD CALLDATALOAD PUSH8 0xFFFFFFFFFFFFFFFF DUP2 GT ISZERO PUSH2 0x40A8 JUMPI PUSH2 0x40A7 PUSH2 0x3259 JUMP JUMPDEST JUMPDEST PUSH2 0x40B4 DUP9 DUP3 DUP10 ADD PUSH2 0x3376 JUMP JUMPDEST SWAP6 POP POP PUSH1 0x20 PUSH2 0x40C5 DUP9 DUP3 DUP10 ADD PUSH2 0x359B JUMP JUMPDEST SWAP5 POP POP PUSH1 0x40 DUP7 ADD CALLDATALOAD PUSH8 0xFFFFFFFFFFFFFFFF DUP2 GT ISZERO PUSH2 0x40E6 JUMPI PUSH2 0x40E5 PUSH2 0x3259 JUMP JUMPDEST JUMPDEST PUSH2 0x40F2 DUP9 DUP3 DUP10 ADD PUSH2 0x4040 JUMP JUMPDEST SWAP4 POP POP PUSH1 0x60 PUSH2 0x4103 DUP9 DUP3 DUP10 ADD PUSH2 0x359B JUMP JUMPDEST SWAP3 POP POP PUSH1 0x80 DUP7 ADD CALLDATALOAD PUSH8 0xFFFFFFFFFFFFFFFF DUP2 GT ISZERO PUSH2 0x4124 JUMPI PUSH2 0x4123 PUSH2 0x3259 JUMP JUMPDEST JUMPDEST PUSH2 0x4130 DUP9 DUP3 DUP10 ADD PUSH2 0x3376 JUMP JUMPDEST SWAP2 POP POP SWAP3 SWAP6 POP SWAP3 SWAP6 SWAP1 SWAP4 POP JUMP JUMPDEST PUSH1 0x0 PUSH1 0x60 DUP3 ADD SWAP1 POP PUSH2 0x4152 PUSH1 0x0 DUP4 ADD DUP7 PUSH2 0x355A JUMP JUMPDEST PUSH2 0x415F PUSH1 0x20 DUP4 ADD DUP6 PUSH2 0x355A JUMP JUMPDEST DUP2 DUP2 SUB PUSH1 0x40 DUP4 ADD MSTORE PUSH2 0x4171 DUP2 DUP5 PUSH2 0x3625 JUMP JUMPDEST SWAP1 POP SWAP5 SWAP4 POP POP POP POP JUMP JUMPDEST PUSH32 0x4E487B7100000000000000000000000000000000000000000000000000000000 PUSH1 0x0 MSTORE PUSH1 0x22 PUSH1 0x4 MSTORE PUSH1 0x24 PUSH1 0x0 REVERT JUMPDEST PUSH1 0x0 PUSH1 0x2 DUP3 DIV SWAP1 POP PUSH1 0x1 DUP3 AND DUP1 PUSH2 0x41C2 JUMPI PUSH1 0x7F DUP3 AND SWAP2 POP JUMPDEST PUSH1 0x20 DUP3 LT DUP2 SUB PUSH2 0x41D5 JUMPI PUSH2 0x41D4 PUSH2 0x417B JUMP JUMPDEST JUMPDEST POP SWAP2 SWAP1 POP JUMP JUMPDEST PUSH1 0x0 DUP2 SWAP1 POP SWAP3 SWAP2 POP POP JUMP JUMPDEST PUSH1 0x0 DUP2 SWAP1 POP DUP2 PUSH1 0x0 MSTORE PUSH1 0x20 PUSH1 0x0 KECCAK256 SWAP1 POP SWAP2 SWAP1 POP JUMP JUMPDEST PUSH1 0x0 DUP2 SLOAD PUSH2 0x4208 DUP2 PUSH2 0x41AA JUMP JUMPDEST PUSH2 0x4212 DUP2 DUP7 PUSH2 0x41DB JUMP JUMPDEST SWAP5 POP PUSH1 0x1 DUP3 AND PUSH1 0x0 DUP2 EQ PUSH2 0x422D JUMPI PUSH1 0x1 DUP2 EQ PUSH2 0x4242 JUMPI PUSH2 0x4275 JUMP JUMPDEST PUSH1 0xFF NOT DUP4 AND DUP7 MSTORE DUP2 ISZERO ISZERO DUP3 MUL DUP7 ADD SWAP4 POP PUSH2 0x4275 JUMP JUMPDEST PUSH2 0x424B DUP6 PUSH2 0x41E6 JUMP JUMPDEST PUSH1 0x0 JUMPDEST DUP4 DUP2 LT ISZERO PUSH2 0x426D JUMPI DUP2 SLOAD DUP2 DUP10 ADD MSTORE PUSH1 0x1 DUP3 ADD SWAP2 POP PUSH1 0x20 DUP2 ADD SWAP1 POP PUSH2 0x424E JUMP JUMPDEST DUP4 DUP9 ADD SWAP6 POP POP POP JUMPDEST POP POP POP SWAP3 SWAP2 POP POP JUMP JUMPDEST PUSH1 0x0 PUSH2 0x428A DUP3 DUP5 PUSH2 0x41FB JUMP JUMPDEST SWAP2 POP DUP2 SWAP1 POP SWAP3 SWAP2 POP POP JUMP JUMPDEST PUSH32 0x4E487B7100000000000000000000000000000000000000000000000000000000 PUSH1 0x0 MSTORE PUSH1 0x32 PUSH1 0x4 MSTORE PUSH1 0x24 PUSH1 0x0 REVERT JUMPDEST PUSH32 0x4E487B7100000000000000000000000000000000000000000000000000000000 PUSH1 0x0 MSTORE PUSH1 0x11 PUSH1 0x4 MSTORE PUSH1 0x24 PUSH1 0x0 REVERT JUMPDEST PUSH1 0x0 PUSH2 0x42FE DUP3 PUSH2 0x3550 JUMP JUMPDEST SWAP2 POP PUSH32 0xFFFFFFFFFFFFFFFFFFFFFFFFFFFFFFFFFFFFFFFFFFFFFFFFFFFFFFFFFFFFFFFF DUP3 SUB PUSH2 0x4330 JUMPI PUSH2 0x432F PUSH2 0x42C4 JUMP JUMPDEST JUMPDEST PUSH1 0x1 DUP3 ADD SWAP1 POP SWAP2 SWAP1 POP JUMP JUMPDEST PUSH1 0x0 PUSH2 0x4346 DUP3 PUSH2 0x3550 JUMP JUMPDEST SWAP2 POP PUSH2 0x4351 DUP4 PUSH2 0x3550 JUMP JUMPDEST SWAP3 POP DUP3 DUP3 ADD SWAP1 POP DUP1 DUP3 GT ISZERO PUSH2 0x4369 JUMPI PUSH2 0x4368 PUSH2 0x42C4 JUMP JUMPDEST JUMPDEST SWAP3 SWAP2 POP POP JUMP JUMPDEST PUSH1 0x0 DUP2 SWAP1 POP DUP2 PUSH1 0x0 MSTORE PUSH1 0x20 PUSH1 0x0 KECCAK256 SWAP1 POP SWAP2 SWAP1 POP JUMP JUMPDEST PUSH1 0x0 PUSH1 0x20 PUSH1 0x1F DUP4 ADD DIV SWAP1 POP SWAP2 SWAP1 POP JUMP JUMPDEST PUSH1 0x0 DUP3 DUP3 SHL SWAP1 POP SWAP3 SWAP2 POP POP JUMP JUMPDEST PUSH1 0x0 PUSH1 0x8 DUP4 MUL PUSH2 0x43D1 PUSH32 0xFFFFFFFFFFFFFFFFFFFFFFFFFFFFFFFFFFFFFFFFFFFFFFFFFFFFFFFFFFFFFFFF DUP3 PUSH2 0x4394 JUMP JUMPDEST PUSH2 0x43DB DUP7 DUP4 PUSH2 0x4394 JUMP JUMPDEST SWAP6 POP DUP1 NOT DUP5 AND SWAP4 POP DUP1 DUP7 AND DUP5 OR SWAP3 POP POP POP SWAP4 SWAP3 POP POP POP JUMP JUMPDEST PUSH1 0x0 DUP2 SWAP1 POP SWAP2 SWAP1 POP JUMP JUMPDEST PUSH1 0x0 PUSH2 0x4418 PUSH2 0x4413 PUSH2 0x440E DUP5 PUSH2 0x3550 JUMP JUMPDEST PUSH2 0x43F3 JUMP JUMPDEST PUSH2 0x3550 JUMP JUMPDEST SWAP1 POP SWAP2 SWAP1 POP JUMP JUMPDEST PUSH1 0x0 DUP2 SWAP1 POP SWAP2 SWAP1 POP JUMP JUMPDEST PUSH2 0x4432 DUP4 PUSH2 0x43FD JUMP JUMPDEST PUSH2 0x4446 PUSH2 0x443E DUP3 PUSH2 0x441F JUMP JUMPDEST DUP5 DUP5 SLOAD PUSH2 0x43A1 JUMP JUMPDEST DUP3 SSTORE POP POP POP POP JUMP JUMPDEST PUSH1 0x0 SWAP1 JUMP JUMPDEST PUSH2 0x445B PUSH2 0x444E JUMP JUMPDEST PUSH2 0x4466 DUP2 DUP5 DUP5 PUSH2 0x4429 JUMP JUMPDEST POP POP POP JUMP JUMPDEST JUMPDEST DUP2 DUP2 LT ISZERO PUSH2 0x448A JUMPI PUSH2 0x447F PUSH1 0x0 DUP3 PUSH2 0x4453 JUMP JUMPDEST PUSH1 0x1 DUP2 ADD SWAP1 POP PUSH2 0x446C JUMP JUMPDEST POP POP JUMP JUMPDEST PUSH1 0x1F DUP3 GT ISZERO PUSH2 0x44CF JUMPI PUSH2 0x44A0 DUP2 PUSH2 0x436F JUMP JUMPDEST PUSH2 0x44A9 DUP5 PUSH2 0x4384 JUMP JUMPDEST DUP2 ADD PUSH1 0x20 DUP6 LT ISZERO PUSH2 0x44B8 JUMPI DUP2 SWAP1 POP JUMPDEST PUSH2 0x44CC PUSH2 0x44C4 DUP6 PUSH2 0x4384 JUMP JUMPDEST DUP4 ADD DUP3 PUSH2 0x446B JUMP JUMPDEST POP POP JUMPDEST POP POP POP JUMP JUMPDEST PUSH1 0x0 DUP3 DUP3 SHR SWAP1 POP SWAP3 SWAP2 POP POP JUMP JUMPDEST PUSH1 0x0 PUSH2 0x44F2 PUSH1 0x0 NOT DUP5 PUSH1 0x8 MUL PUSH2 0x44D4 JUMP JUMPDEST NOT DUP1 DUP4 AND SWAP2 POP POP SWAP3 SWAP2 POP POP JUMP JUMPDEST PUSH1 0x0 PUSH2 0x450B DUP4 DUP4 PUSH2 0x44E1 JUMP JUMPDEST SWAP2 POP DUP3 PUSH1 0x2 MUL DUP3 OR SWAP1 POP SWAP3 SWAP2 POP POP JUMP JUMPDEST PUSH2 0x4524 DUP3 PUSH2 0x3419 JUMP JUMPDEST PUSH8 0xFFFFFFFFFFFFFFFF DUP2 GT ISZERO PUSH2 0x453D JUMPI PUSH2 0x453C PUSH2 0x3279 JUMP JUMPDEST JUMPDEST PUSH2 0x4547 DUP3 SLOAD PUSH2 0x41AA JUMP JUMPDEST PUSH2 0x4552 DUP3 DUP3 DUP6 PUSH2 0x448E JUMP JUMPDEST PUSH1 0x0 PUSH1 0x20 SWAP1 POP PUSH1 0x1F DUP4 GT PUSH1 0x1 DUP2 EQ PUSH2 0x4585 JUMPI PUSH1 0x0 DUP5 ISZERO PUSH2 0x4573 JUMPI DUP3 DUP8 ADD MLOAD SWAP1 POP JUMPDEST PUSH2 0x457D DUP6 DUP3 PUSH2 0x44FF JUMP JUMPDEST DUP7 SSTORE POP PUSH2 0x45E5 JUMP JUMPDEST PUSH1 0x1F NOT DUP5 AND PUSH2 0x4593 DUP7 PUSH2 0x436F JUMP JUMPDEST PUSH1 0x0 JUMPDEST DUP3 DUP2 LT ISZERO PUSH2 0x45BB JUMPI DUP5 DUP10 ADD MLOAD DUP3 SSTORE PUSH1 0x1 DUP3 ADD SWAP2 POP PUSH1 0x20 DUP6 ADD SWAP5 POP PUSH1 0x20 DUP2 ADD SWAP1 POP PUSH2 0x4596 JUMP JUMPDEST DUP7 DUP4 LT ISZERO PUSH2 0x45D8 JUMPI DUP5 DUP10 ADD MLOAD PUSH2 0x45D4 PUSH1 0x1F DUP10 AND DUP3 PUSH2 0x44E1 JUMP JUMPDEST DUP4 SSTORE POP JUMPDEST PUSH1 0x1 PUSH1 0x2 DUP9 MUL ADD DUP9 SSTORE POP POP POP JUMPDEST POP POP POP POP POP POP JUMP INVALID LOG2 PUSH5 0x6970667358 0x22 SLT KECCAK256 CALLDATASIZE DUP1 0xED ADDMOD SLT 0xA9 JUMPDEST 0xF9 0xA7 0xB8 MOD MUL CALLDATASIZE LOG2 DUP15 SHL 0xE9 ORIGIN 0xC5 RETURNDATASIZE SWAP1 0xC2 0x2A PUSH26 0x6288DAC85BA55DC664736F6C6343000811003300000000000000 "},"gasEstimates":{"creation":{"codeDepositCost":"3591000","executionCost":"4039","totalCost":"3595039"},"external":{"_dao_ids()":"2563","_dao_uris(uint256)":"infinite","_donated(uint256)":"infinite","_donations(uint256)":"infinite","_donations_ids()":"2539","_feed_ids()":"2498","_feeds(uint256)":"infinite","_goal_ids()":"2498","_goal_uris(uint256)":"infinite","_ideas_ids()":"2518","_ideas_uris(uint256)":"infinite","_ideas_vote_ids()":"2563","_join_ids()":"2521","_joined_person(uint256)":"infinite","_message_ids()":"2519","_message_read_ids()":"2540","_reply_ids()":"2541","_smart_contract_ids()":"2520","_smart_contracts_uris(uint256)":"infinite","_template_uris(uint256)":"infinite","_user_badges(uint256)":"infinite","add_Feed(string,string)":"infinite","add_donation(uint256,uint256,uint256,string,string)":"infinite","all_goal_ideas_votes(uint256)":"infinite","all_messages(uint256)":"infinite","all_read_messages(uint256)":"infinite","all_replies(uint256)":"infinite","create_dao(string,string,string,uint256)":"infinite","create_goal(string,string,uint256,string)":"infinite","create_goal_ideas_vote(uint256,uint256,uint256,string)":"infinite","create_ideas(string,uint256,string[],uint256,string)":"infinite","dao_uri(uint256)":"infinite","getMsgIDs(uint256)":"infinite","getReadMsg(uint256,string)":"infinite","getReplyIDs(uint256)":"infinite","get_all_daos()":"infinite","get_all_goals()":"infinite","get_all_goals_by_dao_id(string)":"infinite","get_all_ideas()":"infinite","get_all_ideas_by_goal_id(uint256)":"infinite","get_goal_id_by_goal_uri(string)":"infinite","get_goal_id_from_ideas_uri(string)":"infinite","get_ideas_id_by_ideas_uri(string)":"infinite","get_ideas_votes_from_goal(uint256,uint256)":"infinite","goal_uri(uint256)":"infinite","ideas_uri(uint256)":"infinite","is_person_joined(uint256)":"infinite","join_community(uint256,uint256,string)":"infinite","reset_all()":"infinite","sendMsg(uint256,string,string,uint256)":"infinite","sendReadMsg(uint256,uint256,uint256,string)":"infinite","sendReply(uint256,string,uint256,uint256)":"infinite","set_dao(uint256,string,string)":"infinite","set_goal(uint256,string)":"infinite","set_ideas(uint256,string)":"infinite","update_template(uint256,string)":"infinite"},"internal":{"create_ideas_smart_contract(uint256,uint256,string memory)":"infinite"}},"methodIdentifiers":{"_dao_ids()":"7bbd582d","_dao_uris(uint256)":"27a568b9","_donated(uint256)":"20959ed0","_donations(uint256)":"7fc543ec","_donations_ids()":"ec245802","_feed_ids()":"8ac4110c","_feeds(uint256)":"54a9fb18","_goal_ids()":"13bf4cea","_goal_uris(uint256)":"7f2035d4","_ideas_ids()":"d3791b20","_ideas_uris(uint256)":"468d0c80","_ideas_vote_ids()":"4a797bd7","_join_ids()":"1171b621","_joined_person(uint256)":"330b8f26","_message_ids()":"9077007d","_message_read_ids()":"ca013f17","_reply_ids()":"aa2bf5d3","_smart_contract_ids()":"1b592aeb","_smart_contracts_uris(uint256)":"ff4a37ef","_template_uris(uint256)":"6ecda4ee","_user_badges(uint256)":"a428a47f","add_Feed(string,string)":"bda00335","add_donation(uint256,uint256,uint256,string,string)":"5996278f","all_goal_ideas_votes(uint256)":"1ba44c4c","all_messages(uint256)":"b527d45e","all_read_messages(uint256)":"cace8d46","all_replies(uint256)":"3f87a2f4","create_dao(string,string,string,uint256)":"86ffa45b","create_goal(string,string,uint256,string)":"b39a38bd","create_goal_ideas_vote(uint256,uint256,uint256,string)":"8d6b30a1","create_ideas(string,uint256,string[],uint256,string)":"e1b011a0","dao_uri(uint256)":"5d907da1","getMsgIDs(uint256)":"803f5b9f","getReadMsg(uint256,string)":"cd230809","getReplyIDs(uint256)":"812fae1f","get_all_daos()":"c04fe978","get_all_goals()":"29b56f60","get_all_goals_by_dao_id(string)":"0377d44a","get_all_ideas()":"97ee7606","get_all_ideas_by_goal_id(uint256)":"131d44f2","get_goal_id_by_goal_uri(string)":"1e9ac9f5","get_goal_id_from_ideas_uri(string)":"aa4cdf2a","get_ideas_id_by_ideas_uri(string)":"a1ca9178","get_ideas_votes_from_goal(uint256,uint256)":"4be7adb5","goal_uri(uint256)":"e32acc1a","ideas_uri(uint256)":"8d3d2595","is_person_joined(uint256)":"c7af4ee5","join_community(uint256,uint256,string)":"8c70034a","reset_all()":"b16060a6","sendMsg(uint256,string,string,uint256)":"787f19c7","sendReadMsg(uint256,uint256,uint256,string)":"934c5f00","sendReply(uint256,string,uint256,uint256)":"d9fc52db","set_dao(uint256,string,string)":"881de858","set_goal(uint256,string)":"c29595c5","set_ideas(uint256,string)":"c04e7430","update_template(uint256,string)":"87633eb2"}},"storageLayout":{"storage":[{"astId":2431,"contract":"contracts/PlanetDAO.sol:PlanetDAO","label":"_dao_ids","offset":0,"slot":"0","type":"t_uint256"},{"astId":2433,"contract":"contracts/PlanetDAO.sol:PlanetDAO","label":"_donations_ids","offset":0,"slot":"1","type":"t_uint256"},{"astId":2435,"contract":"contracts/PlanetDAO.sol:PlanetDAO","label":"_goal_ids","offset":0,"slot":"2","type":"t_uint256"},{"astId":2437,"contract":"contracts/PlanetDAO.sol:PlanetDAO","label":"_ideas_ids","offset":0,"slot":"3","type":"t_uint256"},{"astId":2439,"contract":"contracts/PlanetDAO.sol:PlanetDAO","label":"_join_ids","offset":0,"slot":"4","type":"t_uint256"},{"astId":2441,"contract":"contracts/PlanetDAO.sol:PlanetDAO","label":"_smart_contract_ids","offset":0,"slot":"5","type":"t_uint256"},{"astId":2443,"contract":"contracts/PlanetDAO.sol:PlanetDAO","label":"_ideas_vote_ids","offset":0,"slot":"6","type":"t_uint256"},{"astId":2445,"contract":"contracts/PlanetDAO.sol:PlanetDAO","label":"_message_ids","offset":0,"slot":"7","type":"t_uint256"},{"astId":2447,"contract":"contracts/PlanetDAO.sol:PlanetDAO","label":"_message_read_ids","offset":0,"slot":"8","type":"t_uint256"},{"astId":2449,"contract":"contracts/PlanetDAO.sol:PlanetDAO","label":"_reply_ids","offset":0,"slot":"9","type":"t_uint256"},{"astId":2451,"contract":"contracts/PlanetDAO.sol:PlanetDAO","label":"_feed_ids","offset":0,"slot":"10","type":"t_uint256"},{"astId":2456,"contract":"contracts/PlanetDAO.sol:PlanetDAO","label":"_dao_uris","offset":0,"slot":"11","type":"t_mapping(t_uint256,t_struct(dao_uri_struct)2331_storage)"},{"astId":2460,"contract":"contracts/PlanetDAO.sol:PlanetDAO","label":"_template_uris","offset":0,"slot":"12","type":"t_mapping(t_uint256,t_string_storage)"},{"astId":2465,"contract":"contracts/PlanetDAO.sol:PlanetDAO","label":"_joined_person","offset":0,"slot":"13","type":"t_mapping(t_uint256,t_struct(join_struct)2401_storage)"},{"astId":2470,"contract":"contracts/PlanetDAO.sol:PlanetDAO","label":"_goal_uris","offset":0,"slot":"14","type":"t_mapping(t_uint256,t_struct(goal_uri_struct)2336_storage)"},{"astId":2475,"contract":"contracts/PlanetDAO.sol:PlanetDAO","label":"_ideas_uris","offset":0,"slot":"15","type":"t_mapping(t_uint256,t_struct(ideas_uri_struct)2343_storage)"},{"astId":2479,"contract":"contracts/PlanetDAO.sol:PlanetDAO","label":"_donated","offset":0,"slot":"16","type":"t_mapping(t_uint256,t_uint256)"},{"astId":2484,"contract":"contracts/PlanetDAO.sol:PlanetDAO","label":"_feeds","offset":0,"slot":"17","type":"t_mapping(t_uint256,t_struct(feed_struct)2429_storage)"},{"astId":2489,"contract":"contracts/PlanetDAO.sol:PlanetDAO","label":"_donations","offset":0,"slot":"18","type":"t_mapping(t_uint256,t_struct(donation_struct)2350_storage)"},{"astId":2494,"contract":"contracts/PlanetDAO.sol:PlanetDAO","label":"_smart_contracts_uris","offset":0,"slot":"19","type":"t_mapping(t_uint256,t_struct(smart_contract_uri_struct)2357_storage)"},{"astId":2499,"contract":"contracts/PlanetDAO.sol:PlanetDAO","label":"all_goal_ideas_votes","offset":0,"slot":"20","type":"t_mapping(t_uint256,t_struct(goal_ideas_votes_struct)2364_storage)"},{"astId":2504,"contract":"contracts/PlanetDAO.sol:PlanetDAO","label":"all_messages","offset":0,"slot":"21","type":"t_mapping(t_uint256,t_struct(message_struct)2373_storage)"},{"astId":2509,"contract":"contracts/PlanetDAO.sol:PlanetDAO","label":"all_read_messages","offset":0,"slot":"22","type":"t_mapping(t_uint256,t_struct(message_read_struct)2382_storage)"},{"astId":2514,"contract":"contracts/PlanetDAO.sol:PlanetDAO","label":"all_replies","offset":0,"slot":"23","type":"t_mapping(t_uint256,t_struct(reply_struct)2391_storage)"},{"astId":2519,"contract":"contracts/PlanetDAO.sol:PlanetDAO","label":"_user_badges","offset":0,"slot":"24","type":"t_mapping(t_uint256,t_struct(user_badge_struct)2420_storage)"}],"types":{"t_bool":{"encoding":"inplace","label":"bool","numberOfBytes":"1"},"t_mapping(t_uint256,t_string_storage)":{"encoding":"mapping","key":"t_uint256","label":"mapping(uint256 => string)","numberOfBytes":"32","value":"t_string_storage"},"t_mapping(t_uint256,t_struct(dao_uri_struct)2331_storage)":{"encoding":"mapping","key":"t_uint256","label":"mapping(uint256 => struct PlanetDAO.dao_uri_struct)","numberOfBytes":"32","value":"t_struct(dao_uri_struct)2331_storage"},"t_mapping(t_uint256,t_struct(donation_struct)2350_storage)":{"encoding":"mapping","key":"t_uint256","label":"mapping(uint256 => struct PlanetDAO.donation_struct)","numberOfBytes":"32","value":"t_struct(donation_struct)2350_storage"},"t_mapping(t_uint256,t_struct(feed_struct)2429_storage)":{"encoding":"mapping","key":"t_uint256","label":"mapping(uint256 => struct PlanetDAO.feed_struct)","numberOfBytes":"32","value":"t_struct(feed_struct)2429_storage"},"t_mapping(t_uint256,t_struct(goal_ideas_votes_struct)2364_storage)":{"encoding":"mapping","key":"t_uint256","label":"mapping(uint256 => struct PlanetDAO.goal_ideas_votes_struct)","numberOfBytes":"32","value":"t_struct(goal_ideas_votes_struct)2364_storage"},"t_mapping(t_uint256,t_struct(goal_uri_struct)2336_storage)":{"encoding":"mapping","key":"t_uint256","label":"mapping(uint256 => struct PlanetDAO.goal_uri_struct)","numberOfBytes":"32","value":"t_struct(goal_uri_struct)2336_storage"},"t_mapping(t_uint256,t_struct(ideas_uri_struct)2343_storage)":{"encoding":"mapping","key":"t_uint256","label":"mapping(uint256 => struct PlanetDAO.ideas_uri_struct)","numberOfBytes":"32","value":"t_struct(ideas_uri_struct)2343_storage"},"t_mapping(t_uint256,t_struct(join_struct)2401_storage)":{"encoding":"mapping","key":"t_uint256","label":"mapping(uint256 => struct PlanetDAO.join_struct)","numberOfBytes":"32","value":"t_struct(join_struct)2401_storage"},"t_mapping(t_uint256,t_struct(message_read_struct)2382_storage)":{"encoding":"mapping","key":"t_uint256","label":"mapping(uint256 => struct PlanetDAO.message_read_struct)","numberOfBytes":"32","value":"t_struct(message_read_struct)2382_storage"},"t_mapping(t_uint256,t_struct(message_struct)2373_storage)":{"encoding":"mapping","key":"t_uint256","label":"mapping(uint256 => struct PlanetDAO.message_struct)","numberOfBytes":"32","value":"t_struct(message_struct)2373_storage"},"t_mapping(t_uint256,t_struct(reply_struct)2391_storage)":{"encoding":"mapping","key":"t_uint256","label":"mapping(uint256 => struct PlanetDAO.reply_struct)","numberOfBytes":"32","value":"t_struct(reply_struct)2391_storage"},"t_mapping(t_uint256,t_struct(smart_contract_uri_struct)2357_storage)":{"encoding":"mapping","key":"t_uint256","label":"mapping(uint256 => struct PlanetDAO.smart_contract_uri_struct)","numberOfBytes":"32","value":"t_struct(smart_contract_uri_struct)2357_storage"},"t_mapping(t_uint256,t_struct(user_badge_struct)2420_storage)":{"encoding":"mapping","key":"t_uint256","label":"mapping(uint256 => struct PlanetDAO.user_badge_struct)","numberOfBytes":"32","value":"t_struct(user_badge_struct)2420_storage"},"t_mapping(t_uint256,t_uint256)":{"encoding":"mapping","key":"t_uint256","label":"mapping(uint256 => uint256)","numberOfBytes":"32","value":"t_uint256"},"t_string_storage":{"encoding":"bytes","label":"string","numberOfBytes":"32"},"t_struct(dao_uri_struct)2331_storage":{"encoding":"inplace","label":"struct PlanetDAO.dao_uri_struct","members":[{"astId":2326,"contract":"contracts/PlanetDAO.sol:PlanetDAO","label":"dao_wallet","offset":0,"slot":"0","type":"t_string_storage"},{"astId":2328,"contract":"contracts/PlanetDAO.sol:PlanetDAO","label":"dao_uri","offset":0,"slot":"1","type":"t_string_storage"},{"astId":2330,"contract":"contracts/PlanetDAO.sol:PlanetDAO","label":"finished","offset":0,"slot":"2","type":"t_string_storage"}],"numberOfBytes":"96"},"t_struct(donation_struct)2350_storage":{"encoding":"inplace","label":"struct PlanetDAO.donation_struct","members":[{"astId":2345,"contract":"contracts/PlanetDAO.sol:PlanetDAO","label":"ideas_id","offset":0,"slot":"0","type":"t_uint256"},{"astId":2347,"contract":"contracts/PlanetDAO.sol:PlanetDAO","label":"userid","offset":0,"slot":"1","type":"t_uint256"},{"astId":2349,"contract":"contracts/PlanetDAO.sol:PlanetDAO","label":"donation","offset":0,"slot":"2","type":"t_uint256"}],"numberOfBytes":"96"},"t_struct(feed_struct)2429_storage":{"encoding":"inplace","label":"struct PlanetDAO.feed_struct","members":[{"astId":2422,"contract":"contracts/PlanetDAO.sol:PlanetDAO","label":"feed_id","offset":0,"slot":"0","type":"t_uint256"},{"astId":2424,"contract":"contracts/PlanetDAO.sol:PlanetDAO","label":"date","offset":0,"slot":"1","type":"t_uint256"},{"astId":2426,"contract":"contracts/PlanetDAO.sol:PlanetDAO","label":"Type","offset":0,"slot":"2","type":"t_string_storage"},{"astId":2428,"contract":"contracts/PlanetDAO.sol:PlanetDAO","label":"data","offset":0,"slot":"3","type":"t_string_storage"}],"numberOfBytes":"128"},"t_struct(goal_ideas_votes_struct)2364_storage":{"encoding":"inplace","label":"struct PlanetDAO.goal_ideas_votes_struct","members":[{"astId":2359,"contract":"contracts/PlanetDAO.sol:PlanetDAO","label":"goal_id","offset":0,"slot":"0","type":"t_uint256"},{"astId":2361,"contract":"contracts/PlanetDAO.sol:PlanetDAO","label":"ideas_id","offset":0,"slot":"1","type":"t_uint256"},{"astId":2363,"contract":"contracts/PlanetDAO.sol:PlanetDAO","label":"user_id","offset":0,"slot":"2","type":"t_uint256"}],"numberOfBytes":"96"},"t_struct(goal_uri_struct)2336_storage":{"encoding":"inplace","label":"struct PlanetDAO.goal_uri_struct","members":[{"astId":2333,"contract":"contracts/PlanetDAO.sol:PlanetDAO","label":"dao_id","offset":0,"slot":"0","type":"t_string_storage"},{"astId":2335,"contract":"contracts/PlanetDAO.sol:PlanetDAO","label":"goal_uri","offset":0,"slot":"1","type":"t_string_storage"}],"numberOfBytes":"64"},"t_struct(ideas_uri_struct)2343_storage":{"encoding":"inplace","label":"struct PlanetDAO.ideas_uri_struct","members":[{"astId":2338,"contract":"contracts/PlanetDAO.sol:PlanetDAO","label":"goal_id","offset":0,"slot":"0","type":"t_uint256"},{"astId":2340,"contract":"contracts/PlanetDAO.sol:PlanetDAO","label":"ideas_uri","offset":0,"slot":"1","type":"t_string_storage"},{"astId":2342,"contract":"contracts/PlanetDAO.sol:PlanetDAO","label":"donation","offset":0,"slot":"2","type":"t_uint256"}],"numberOfBytes":"96"},"t_struct(join_struct)2401_storage":{"encoding":"inplace","label":"struct PlanetDAO.join_struct","members":[{"astId":2398,"contract":"contracts/PlanetDAO.sol:PlanetDAO","label":"daoid","offset":0,"slot":"0","type":"t_uint256"},{"astId":2400,"contract":"contracts/PlanetDAO.sol:PlanetDAO","label":"user_id","offset":0,"slot":"1","type":"t_uint256"}],"numberOfBytes":"64"},"t_struct(message_read_struct)2382_storage":{"encoding":"inplace","label":"struct PlanetDAO.message_read_struct","members":[{"astId":2375,"contract":"contracts/PlanetDAO.sol:PlanetDAO","label":"message_id","offset":0,"slot":"0","type":"t_uint256"},{"astId":2377,"contract":"contracts/PlanetDAO.sol:PlanetDAO","label":"ideas_id","offset":0,"slot":"1","type":"t_uint256"},{"astId":2379,"contract":"contracts/PlanetDAO.sol:PlanetDAO","label":"user_id","offset":0,"slot":"2","type":"t_uint256"},{"astId":2381,"contract":"contracts/PlanetDAO.sol:PlanetDAO","label":"msg_type","offset":0,"slot":"3","type":"t_string_storage"}],"numberOfBytes":"128"},"t_struct(message_struct)2373_storage":{"encoding":"inplace","label":"struct PlanetDAO.message_struct","members":[{"astId":2366,"contract":"contracts/PlanetDAO.sol:PlanetDAO","label":"message_id","offset":0,"slot":"0","type":"t_uint256"},{"astId":2368,"contract":"contracts/PlanetDAO.sol:PlanetDAO","label":"ideas_id","offset":0,"slot":"1","type":"t_uint256"},{"astId":2370,"contract":"contracts/PlanetDAO.sol:PlanetDAO","label":"message","offset":0,"slot":"2","type":"t_string_storage"},{"astId":2372,"contract":"contracts/PlanetDAO.sol:PlanetDAO","label":"sender","offset":0,"slot":"3","type":"t_string_storage"}],"numberOfBytes":"128"},"t_struct(reply_struct)2391_storage":{"encoding":"inplace","label":"struct PlanetDAO.reply_struct","members":[{"astId":2384,"contract":"contracts/PlanetDAO.sol:PlanetDAO","label":"reply_id","offset":0,"slot":"0","type":"t_uint256"},{"astId":2386,"contract":"contracts/PlanetDAO.sol:PlanetDAO","label":"message_id","offset":0,"slot":"1","type":"t_uint256"},{"astId":2388,"contract":"contracts/PlanetDAO.sol:PlanetDAO","label":"ideas_id","offset":0,"slot":"2","type":"t_uint256"},{"astId":2390,"contract":"contracts/PlanetDAO.sol:PlanetDAO","label":"message","offset":0,"slot":"3","type":"t_string_storage"}],"numberOfBytes":"128"},"t_struct(smart_contract_uri_struct)2357_storage":{"encoding":"inplace","label":"struct PlanetDAO.smart_contract_uri_struct","members":[{"astId":2352,"contract":"contracts/PlanetDAO.sol:PlanetDAO","label":"smart_contract_id","offset":0,"slot":"0","type":"t_uint256"},{"astId":2354,"contract":"contracts/PlanetDAO.sol:PlanetDAO","label":"ideas_id","offset":0,"slot":"1","type":"t_uint256"},{"astId":2356,"contract":"contracts/PlanetDAO.sol:PlanetDAO","label":"smart_contract_uri","offset":0,"slot":"2","type":"t_string_storage"}],"numberOfBytes":"96"},"t_struct(user_badge_struct)2420_storage":{"encoding":"inplace","label":"struct PlanetDAO.user_badge_struct","members":[{"astId":2403,"contract":"contracts/PlanetDAO.sol:PlanetDAO","label":"user_id","offset":0,"slot":"0","type":"t_uint256"},{"astId":2405,"contract":"contracts/PlanetDAO.sol:PlanetDAO","label":"dao","offset":0,"slot":"1","type":"t_bool"},{"astId":2407,"contract":"contracts/PlanetDAO.sol:PlanetDAO","label":"joined","offset":1,"slot":"1","type":"t_bool"},{"astId":2409,"contract":"contracts/PlanetDAO.sol:PlanetDAO","label":"goal","offset":2,"slot":"1","type":"t_bool"},{"astId":2411,"contract":"contracts/PlanetDAO.sol:PlanetDAO","label":"ideas","offset":3,"slot":"1","type":"t_bool"},{"astId":2413,"contract":"contracts/PlanetDAO.sol:PlanetDAO","label":"vote","offset":4,"slot":"1","type":"t_bool"},{"astId":2415,"contract":"contracts/PlanetDAO.sol:PlanetDAO","label":"donation","offset":5,"slot":"1","type":"t_bool"},{"astId":2417,"contract":"contracts/PlanetDAO.sol:PlanetDAO","label":"comment","offset":6,"slot":"1","type":"t_bool"},{"astId":2419,"contract":"contracts/PlanetDAO.sol:PlanetDAO","label":"reply","offset":7,"slot":"1","type":"t_bool"}],"numberOfBytes":"64"},"t_uint256":{"encoding":"inplace","label":"uint256","numberOfBytes":"32"}}},"userdoc":{"kind":"user","methods":{},"version":1}}}}