{"contracts/PlanetDAO.sol":{"PlanetDAO":{"abi":[{"inputs":[],"name":"_dao_ids","outputs":[{"internalType":"uint256","name":"","type":"uint256"}],"stateMutability":"view","type":"function"},{"inputs":[{"internalType":"uint256","name":"","type":"uint256"}],"name":"_dao_uris","outputs":[{"internalType":"string","name":"dao_wallet","type":"string"},{"internalType":"string","name":"dao_uri","type":"string"},{"internalType":"string","name":"finished","type":"string"}],"stateMutability":"view","type":"function"},{"inputs":[{"internalType":"uint256","name":"","type":"uint256"}],"name":"_donated","outputs":[{"internalType":"uint256","name":"","type":"uint256"}],"stateMutability":"view","type":"function"},{"inputs":[{"internalType":"uint256","name":"","type":"uint256"}],"name":"_donations","outputs":[{"internalType":"uint256","name":"ideas_id","type":"uint256"},{"internalType":"uint256","name":"userid","type":"uint256"},{"internalType":"uint256","name":"donation","type":"uint256"}],"stateMutability":"view","type":"function"},{"inputs":[],"name":"_donations_ids","outputs":[{"internalType":"uint256","name":"","type":"uint256"}],"stateMutability":"view","type":"function"},{"inputs":[],"name":"_feed_ids","outputs":[{"internalType":"uint256","name":"","type":"uint256"}],"stateMutability":"view","type":"function"},{"inputs":[{"internalType":"uint256","name":"","type":"uint256"}],"name":"_feeds","outputs":[{"internalType":"uint256","name":"feed_id","type":"uint256"},{"internalType":"uint256","name":"date","type":"uint256"},{"internalType":"string","name":"Type","type":"string"},{"internalType":"string","name":"data","type":"string"}],"stateMutability":"view","type":"function"},{"inputs":[],"name":"_goal_ids","outputs":[{"internalType":"uint256","name":"","type":"uint256"}],"stateMutability":"view","type":"function"},{"inputs":[{"internalType":"uint256","name":"","type":"uint256"}],"name":"_goal_uris","outputs":[{"internalType":"string","name":"dao_id","type":"string"},{"internalType":"string","name":"goal_uri","type":"string"}],"stateMutability":"view","type":"function"},{"inputs":[],"name":"_ideas_ids","outputs":[{"internalType":"uint256","name":"","type":"uint256"}],"stateMutability":"view","type":"function"},{"inputs":[{"internalType":"uint256","name":"","type":"uint256"}],"name":"_ideas_uris","outputs":[{"internalType":"uint256","name":"goal_id","type":"uint256"},{"internalType":"string","name":"ideas_uri","type":"string"},{"internalType":"uint256","name":"donation","type":"uint256"}],"stateMutability":"view","type":"function"},{"inputs":[],"name":"_ideas_vote_ids","outputs":[{"internalType":"uint256","name":"","type":"uint256"}],"stateMutability":"view","type":"function"},{"inputs":[],"name":"_join_ids","outputs":[{"internalType":"uint256","name":"","type":"uint256"}],"stateMutability":"view","type":"function"},{"inputs":[{"internalType":"uint256","name":"","type":"uint256"}],"name":"_joined_person","outputs":[{"internalType":"uint256","name":"daoid","type":"uint256"},{"internalType":"uint256","name":"user_id","type":"uint256"}],"stateMutability":"view","type":"function"},{"inputs":[],"name":"_message_ids","outputs":[{"internalType":"uint256","name":"","type":"uint256"}],"stateMutability":"view","type":"function"},{"inputs":[],"name":"_message_read_ids","outputs":[{"internalType":"uint256","name":"","type":"uint256"}],"stateMutability":"view","type":"function"},{"inputs":[],"name":"_reply_ids","outputs":[{"internalType":"uint256","name":"","type":"uint256"}],"stateMutability":"view","type":"function"},{"inputs":[],"name":"_smart_contract_ids","outputs":[{"internalType":"uint256","name":"","type":"uint256"}],"stateMutability":"view","type":"function"},{"inputs":[{"internalType":"uint256","name":"","type":"uint256"}],"name":"_smart_contracts_uris","outputs":[{"internalType":"uint256","name":"smart_contract_id","type":"uint256"},{"internalType":"uint256","name":"ideas_id","type":"uint256"},{"internalType":"string","name":"smart_contract_uri","type":"string"}],"stateMutability":"view","type":"function"},{"inputs":[{"internalType":"uint256","name":"","type":"uint256"}],"name":"_template_uris","outputs":[{"internalType":"string","name":"","type":"string"}],"stateMutability":"view","type":"function"},{"inputs":[{"internalType":"uint256","name":"","type":"uint256"}],"name":"_user_badges","outputs":[{"internalType":"uint256","name":"user_id","type":"uint256"},{"internalType":"bool","name":"dao","type":"bool"},{"internalType":"bool","name":"joined","type":"bool"},{"internalType":"bool","name":"goal","type":"bool"},{"internalType":"bool","name":"ideas","type":"bool"},{"internalType":"bool","name":"vote","type":"bool"},{"internalType":"bool","name":"donation","type":"bool"},{"internalType":"bool","name":"comment","type":"bool"},{"internalType":"bool","name":"reply","type":"bool"}],"stateMutability":"view","type":"function"},{"inputs":[{"internalType":"string","name":"feed_text","type":"string"},{"internalType":"string","name":"_type","type":"string"}],"name":"add_Feed","outputs":[],"stateMutability":"nonpayable","type":"function"},{"inputs":[{"internalType":"uint256","name":"_ideas_id","type":"uint256"},{"internalType":"uint256","name":"_doantion","type":"uint256"},{"internalType":"uint256","name":"_userid","type":"uint256"},{"internalType":"string","name":"_feed1","type":"string"},{"internalType":"string","name":"_feed2","type":"string"}],"name":"add_donation","outputs":[],"stateMutability":"nonpayable","type":"function"},{"inputs":[{"internalType":"uint256","name":"","type":"uint256"}],"name":"all_goal_ideas_votes","outputs":[{"internalType":"uint256","name":"goal_id","type":"uint256"},{"internalType":"uint256","name":"ideas_id","type":"uint256"},{"internalType":"uint256","name":"user_id","type":"uint256"}],"stateMutability":"view","type":"function"},{"inputs":[{"internalType":"uint256","name":"","type":"uint256"}],"name":"all_messages","outputs":[{"internalType":"uint256","name":"message_id","type":"uint256"},{"internalType":"uint256","name":"ideas_id","type":"uint256"},{"internalType":"string","name":"message","type":"string"},{"internalType":"string","name":"sender","type":"string"}],"stateMutability":"view","type":"function"},{"inputs":[{"internalType":"uint256","name":"","type":"uint256"}],"name":"all_read_messages","outputs":[{"internalType":"uint256","name":"message_id","type":"uint256"},{"internalType":"uint256","name":"ideas_id","type":"uint256"},{"internalType":"uint256","name":"user_id","type":"uint256"},{"internalType":"string","name":"msg_type","type":"string"}],"stateMutability":"view","type":"function"},{"inputs":[{"internalType":"uint256","name":"","type":"uint256"}],"name":"all_replies","outputs":[{"internalType":"uint256","name":"reply_id","type":"uint256"},{"internalType":"uint256","name":"message_id","type":"uint256"},{"internalType":"uint256","name":"ideas_id","type":"uint256"},{"internalType":"string","name":"message","type":"string"}],"stateMutability":"view","type":"function"},{"inputs":[{"internalType":"string","name":"_dao_wallet","type":"string"},{"internalType":"string","name":"_dao_uri","type":"string"},{"internalType":"string","name":"_template","type":"string"},{"internalType":"uint256","name":"user_id","type":"uint256"}],"name":"create_dao","outputs":[{"internalType":"uint256","name":"","type":"uint256"}],"stateMutability":"nonpayable","type":"function"},{"inputs":[{"internalType":"string","name":"_goal_uri","type":"string"},{"internalType":"string","name":"_dao_id","type":"string"},{"internalType":"uint256","name":"_user_id","type":"uint256"},{"internalType":"string","name":"_feed","type":"string"}],"name":"create_goal","outputs":[{"internalType":"uint256","name":"","type":"uint256"}],"stateMutability":"nonpayable","type":"function"},{"inputs":[{"internalType":"uint256","name":"_goal_id","type":"uint256"},{"internalType":"uint256","name":"_ideas_id","type":"uint256"},{"internalType":"uint256","name":"_user_id","type":"uint256"},{"internalType":"string","name":"_feed","type":"string"},{"internalType":"bool","name":"feed_add","type":"bool"}],"name":"create_goal_ideas_vote","outputs":[{"internalType":"uint256","name":"","type":"uint256"}],"stateMutability":"nonpayable","type":"function"},{"inputs":[{"internalType":"string","name":"_ideas_uri","type":"string"},{"internalType":"uint256","name":"_goal_id","type":"uint256"},{"internalType":"string[]","name":"_smart_contracts","type":"string[]"},{"internalType":"uint256","name":"_user_id","type":"uint256"},{"internalType":"string","name":"_feed","type":"string"}],"name":"create_ideas","outputs":[{"internalType":"uint256","name":"","type":"uint256"}],"stateMutability":"nonpayable","type":"function"},{"inputs":[{"internalType":"uint256","name":"_dao_id","type":"uint256"}],"name":"dao_uri","outputs":[{"internalType":"string","name":"","type":"string"}],"stateMutability":"view","type":"function"},{"inputs":[{"internalType":"uint256","name":"ideas_id","type":"uint256"}],"name":"getMsgIDs","outputs":[{"internalType":"uint256[]","name":"","type":"uint256[]"}],"stateMutability":"view","type":"function"},{"inputs":[{"internalType":"uint256","name":"_message_id","type":"uint256"},{"internalType":"string","name":"msg_type","type":"string"}],"name":"getReadMsg","outputs":[{"internalType":"bool","name":"","type":"bool"}],"stateMutability":"view","type":"function"},{"inputs":[{"internalType":"uint256","name":"message_id","type":"uint256"}],"name":"getReplyIDs","outputs":[{"internalType":"uint256[]","name":"","type":"uint256[]"}],"stateMutability":"view","type":"function"},{"inputs":[],"name":"get_all_daos","outputs":[{"internalType":"string[]","name":"","type":"string[]"}],"stateMutability":"view","type":"function"},{"inputs":[],"name":"get_all_goals","outputs":[{"internalType":"string[]","name":"","type":"string[]"}],"stateMutability":"view","type":"function"},{"inputs":[{"internalType":"string","name":"_dao_id","type":"string"}],"name":"get_all_goals_by_dao_id","outputs":[{"internalType":"string[]","name":"","type":"string[]"}],"stateMutability":"view","type":"function"},{"inputs":[],"name":"get_all_ideas","outputs":[{"internalType":"string[]","name":"","type":"string[]"}],"stateMutability":"view","type":"function"},{"inputs":[{"internalType":"uint256","name":"_goal_id","type":"uint256"}],"name":"get_all_ideas_by_goal_id","outputs":[{"internalType":"string[]","name":"","type":"string[]"}],"stateMutability":"view","type":"function"},{"inputs":[{"internalType":"uint256","name":"ideas_id","type":"uint256"}],"name":"get_dao_id_by_ideas_id","outputs":[{"internalType":"string","name":"","type":"string"}],"stateMutability":"view","type":"function"},{"inputs":[{"internalType":"string","name":"_goal_uri","type":"string"}],"name":"get_goal_id_by_goal_uri","outputs":[{"internalType":"uint256","name":"","type":"uint256"}],"stateMutability":"view","type":"function"},{"inputs":[{"internalType":"string","name":"_ideas_uri","type":"string"}],"name":"get_goal_id_from_ideas_uri","outputs":[{"internalType":"uint256","name":"","type":"uint256"}],"stateMutability":"view","type":"function"},{"inputs":[{"internalType":"string","name":"_ideas_uri","type":"string"}],"name":"get_ideas_id_by_ideas_uri","outputs":[{"internalType":"uint256","name":"","type":"uint256"}],"stateMutability":"view","type":"function"},{"inputs":[{"internalType":"uint256","name":"_goal_id","type":"uint256"},{"internalType":"uint256","name":"_ideas_id","type":"uint256"}],"name":"get_ideas_votes_from_goal","outputs":[{"internalType":"string[]","name":"","type":"string[]"}],"stateMutability":"view","type":"function"},{"inputs":[{"internalType":"uint256","name":"dao_id","type":"uint256"},{"internalType":"uint256","name":"person","type":"uint256"}],"name":"get_person_joinedID","outputs":[{"internalType":"uint256","name":"","type":"uint256"}],"stateMutability":"view","type":"function"},{"inputs":[{"internalType":"uint256","name":"_goal_id","type":"uint256"}],"name":"goal_uri","outputs":[{"internalType":"string","name":"","type":"string"}],"stateMutability":"view","type":"function"},{"inputs":[{"internalType":"uint256","name":"_ideas_id","type":"uint256"}],"name":"ideas_uri","outputs":[{"internalType":"string","name":"","type":"string"}],"stateMutability":"view","type":"function"},{"inputs":[{"internalType":"uint256","name":"dao_id","type":"uint256"},{"internalType":"uint256","name":"person","type":"uint256"}],"name":"is_person_joined","outputs":[{"internalType":"bool","name":"","type":"bool"}],"stateMutability":"view","type":"function"},{"inputs":[{"internalType":"uint256","name":"dao_id","type":"uint256"},{"internalType":"uint256","name":"person","type":"uint256"},{"internalType":"string","name":"_feed","type":"string"}],"name":"join_community","outputs":[],"stateMutability":"nonpayable","type":"function"},{"inputs":[{"internalType":"uint256","name":"join_id","type":"uint256"}],"name":"leave_community","outputs":[],"stateMutability":"nonpayable","type":"function"},{"inputs":[],"name":"reset_all","outputs":[],"stateMutability":"nonpayable","type":"function"},{"inputs":[{"internalType":"uint256","name":"_ideas_id","type":"uint256"},{"internalType":"string","name":"_message","type":"string"},{"internalType":"string","name":"_sender","type":"string"},{"internalType":"uint256","name":"_user_id","type":"uint256"}],"name":"sendMsg","outputs":[{"internalType":"uint256","name":"","type":"uint256"}],"stateMutability":"nonpayable","type":"function"},{"inputs":[{"internalType":"uint256","name":"_message_id","type":"uint256"},{"internalType":"uint256","name":"_ideas_id","type":"uint256"},{"internalType":"uint256","name":"_wallet","type":"uint256"},{"internalType":"string","name":"msg_type","type":"string"}],"name":"sendReadMsg","outputs":[{"internalType":"uint256","name":"","type":"uint256"}],"stateMutability":"nonpayable","type":"function"},{"inputs":[{"internalType":"uint256","name":"_message_id","type":"uint256"},{"internalType":"string","name":"_reply","type":"string"},{"internalType":"uint256","name":"ideas_id","type":"uint256"},{"internalType":"uint256","name":"_userid","type":"uint256"}],"name":"sendReply","outputs":[{"internalType":"uint256","name":"","type":"uint256"}],"stateMutability":"nonpayable","type":"function"},{"inputs":[{"internalType":"uint256","name":"_dao_id","type":"uint256"},{"internalType":"string","name":"_dao_wallet","type":"string"},{"internalType":"string","name":"_dao_uri","type":"string"}],"name":"set_dao","outputs":[],"stateMutability":"nonpayable","type":"function"},{"inputs":[{"internalType":"uint256","name":"_goal_id","type":"uint256"},{"internalType":"string","name":"_goal_uri","type":"string"}],"name":"set_goal","outputs":[],"stateMutability":"nonpayable","type":"function"},{"inputs":[{"internalType":"uint256","name":"_ideas_id","type":"uint256"},{"internalType":"string","name":"_ideas_uri","type":"string"}],"name":"set_ideas","outputs":[],"stateMutability":"nonpayable","type":"function"},{"inputs":[{"internalType":"uint256","name":"_dao_id","type":"uint256"},{"internalType":"string","name":"_template","type":"string"}],"name":"update_template","outputs":[],"stateMutability":"nonpayable","type":"function"}],"devdoc":{"kind":"dev","methods":{},"version":1},"evm":{"bytecode":{"linkReferences":{},"object":"608060405234801561001057600080fd5b50614b94806100206000396000f3fe608060405234801561001057600080fd5b50600436106103995760003560e01c806387633eb2116101e9578063b604efaa1161010f578063cd230809116100ad578063e32acc1a1161007c578063e32acc1a14610c5c578063ec24580214610c8c578063ecde324314610caa578063ff4a37ef14610cda57610399565b8063cd23080914610bae578063d3791b2014610bde578063d9fc52db14610bfc578063e1b011a014610c2c57610399565b8063c04fe978116100e9578063c04fe97814610b23578063c29595c514610b41578063ca013f1714610b5d578063cace8d4614610b7b57610399565b8063b604efaa14610abb578063bda0033514610aeb578063c04e743014610b0757610399565b806397ee760611610187578063aa4cdf2a11610156578063aa4cdf2a14610a1e578063b16060a614610a4e578063b39a38bd14610a58578063b527d45e14610a8857610399565b806397ee76061461097a578063a1ca917814610998578063a428a47f146109c8578063aa2bf5d314610a0057610399565b80638c70034a116101c35780638c70034a146108e05780638d3d2595146108fc5780639077007d1461092c578063934c5f001461094a57610399565b806387633eb21461088a578063881de858146108a65780638ac4110c146108c257610399565b80634a797bd7116102ce5780637a82b1d61161026c578063803f5b9f1161023b578063803f5b9f146107de578063812fae1f1461080e578063826eeefe1461083e57806386ffa45b1461085a57610399565b80637a82b1d61461072d5780637bbd582d1461075d5780637f2035d41461077b5780637fc543ec146107ac57610399565b80635996278f116102a85780635996278f146106815780635d907da11461069d5780636ecda4ee146106cd578063787f19c7146106fd57610399565b80634a797bd7146106005780634be7adb51461061e57806354a9fb181461064e57610399565b806320959ed01161033b578063330b8f2611610315578063330b8f261461053a57806338a512d91461056b5780633f87a2f41461059b578063468d0c80146105ce57610399565b806320959ed0146104ba57806327a568b9146104ea57806329b56f601461051c57610399565b806313bf4cea1161037757806313bf4cea1461041c5780631b592aeb1461043a5780631ba44c4c146104585780631e9ac9f51461048a57610399565b80630377d44a1461039e5780631171b621146103ce578063131d44f2146103ec575b600080fd5b6103b860048036038101906103b39190613823565b610d0c565b6040516103c591906139ad565b60405180910390f35b6103d6610e96565b6040516103e391906139e8565b60405180910390f35b61040660048036038101906104019190613a2f565b610e9c565b60405161041391906139ad565b60405180910390f35b61042461100b565b60405161043191906139e8565b60405180910390f35b610442611011565b60405161044f91906139e8565b60405180910390f35b610472600480360381019061046d9190613a2f565b611017565b60405161048193929190613a5c565b60405180910390f35b6104a4600480360381019061049f9190613823565b611041565b6040516104b191906139e8565b60405180910390f35b6104d460048036038101906104cf9190613a2f565b6110b2565b6040516104e191906139e8565b60405180910390f35b61050460048036038101906104ff9190613a2f565b6110ca565b60405161051393929190613add565b60405180910390f35b61052461128c565b60405161053191906139ad565b60405180910390f35b610554600480360381019061054f9190613a2f565b6113c7565b604051610562929190613b29565b60405180910390f35b61058560048036038101906105809190613a2f565b6113eb565b6040516105929190613b52565b60405180910390f35b6105b560048036038101906105b09190613a2f565b6114b5565b6040516105c59493929190613b74565b60405180910390f35b6105e860048036038101906105e39190613a2f565b61156d565b6040516105f793929190613bc0565b60405180910390f35b61060861161f565b60405161061591906139e8565b60405180910390f35b61063860048036038101906106339190613bfe565b611625565b60405161064591906139ad565b60405180910390f35b61066860048036038101906106639190613a2f565b611737565b6040516106789493929190613c3e565b60405180910390f35b61069b60048036038101906106969190613c91565b611877565b005b6106b760048036038101906106b29190613a2f565b611a1b565b6040516106c49190613b52565b60405180910390f35b6106e760048036038101906106e29190613a2f565b611ac3565b6040516106f49190613b52565b60405180910390f35b61071760048036038101906107129190613d44565b611b63565b60405161072491906139e8565b60405180910390f35b61074760048036038101906107429190613bfe565b611c34565b6040516107549190613dfe565b60405180910390f35b610765611cae565b60405161077291906139e8565b60405180910390f35b61079560048036038101906107909190613a2f565b611cb4565b6040516107a3929190613e19565b60405180910390f35b6107c660048036038101906107c19190613a2f565b611de8565b6040516107d593929190613a5c565b60405180910390f35b6107f860048036038101906107f39190613a2f565b611e12565b6040516108059190613f0e565b60405180910390f35b61082860048036038101906108239190613a2f565b611ef5565b6040516108359190613f0e565b60405180910390f35b61085860048036038101906108539190613a2f565b611fd8565b005b610874600480360381019061086f9190613f30565b61201e565b60405161088191906139e8565b60405180910390f35b6108a4600480360381019061089f9190613feb565b61213e565b005b6108c060048036038101906108bb9190614047565b612163565b005b6108ca6121b0565b6040516108d791906139e8565b60405180910390f35b6108fa60048036038101906108f591906140d2565b6121b6565b005b61091660048036038101906109119190613a2f565b612282565b6040516109239190613b52565b60405180910390f35b61093461232a565b60405161094191906139e8565b60405180910390f35b610964600480360381019061095f9190614141565b612330565b60405161097191906139e8565b60405180910390f35b6109826123c4565b60405161098f91906139ad565b60405180910390f35b6109b260048036038101906109ad9190613823565b6124ff565b6040516109bf91906139e8565b60405180910390f35b6109e260048036038101906109dd9190613a2f565b612570565b6040516109f7999897969594939291906141c4565b60405180910390f35b610a08612626565b604051610a1591906139e8565b60405180910390f35b610a386004803603810190610a339190613823565b61262c565b604051610a4591906139e8565b60405180910390f35b610a566126b3565b005b610a726004803603810190610a6d9190614251565b612965565b604051610a7f91906139e8565b60405180910390f35b610aa26004803603810190610a9d9190613a2f565b612a53565b604051610ab29493929190613c3e565b60405180910390f35b610ad56004803603810190610ad09190613bfe565b612b93565b604051610ae291906139e8565b60405180910390f35b610b056004803603810190610b00919061430c565b612c0d565b005b610b216004803603810190610b1c9190613feb565b612ca4565b005b610b2b612ccc565b604051610b3891906139ad565b60405180910390f35b610b5b6004803603810190610b569190613feb565b612e06565b005b610b65612e2e565b604051610b7291906139e8565b60405180910390f35b610b956004803603810190610b909190613a2f565b612e34565b604051610ba59493929190613b74565b60405180910390f35b610bc86004803603810190610bc39190613feb565b612eec565b604051610bd59190613dfe565b60405180910390f35b610be6612f7d565b604051610bf391906139e8565b60405180910390f35b610c166004803603810190610c119190614384565b612f83565b604051610c2391906139e8565b60405180910390f35b610c466004803603810190610c4191906144ed565b613048565b604051610c5391906139e8565b60405180910390f35b610c766004803603810190610c719190613a2f565b61319d565b604051610c839190613b52565b60405180910390f35b610c94613245565b604051610ca191906139e8565b60405180910390f35b610cc46004803603810190610cbf91906145e8565b61324b565b604051610cd191906139e8565b60405180910390f35b610cf46004803603810190610cef9190613a2f565b613339565b604051610d039392919061467f565b60405180910390f35b6060600060025467ffffffffffffffff811115610d2c57610d2b6136f8565b5b604051908082528060200260200182016040528015610d5f57816020015b6060815260200190600190039081610d4a5790505b509050600080600090505b600254811015610e8b578480519060200120600e6000838152602001908152602001600020600001604051610d9f91906147c0565b604051809103902003610e7857600e60008281526020019081526020016000206001018054610dcd906146ec565b80601f0160208091040260200160405190810160405280929190818152602001828054610df9906146ec565b8015610e465780601f10610e1b57610100808354040283529160200191610e46565b820191906000526020600020905b815481529060010190602001808311610e2957829003601f168201915b5050505050838381518110610e5e57610e5d6147d7565b5b60200260200101819052508180610e7490614835565b9250505b8080610e8390614835565b915050610d6a565b508192505050919050565b60045481565b6060600060035467ffffffffffffffff811115610ebc57610ebb6136f8565b5b604051908082528060200260200182016040528015610eef57816020015b6060815260200190600190039081610eda5790505b509050600080600090505b6003548110156110005784600f60008381526020019081526020016000206000015403610fdf57600f60008281526020019081526020016000206001018054610f42906146ec565b80601f0160208091040260200160405190810160405280929190818152602001828054610f6e906146ec565b8015610fbb5780601f10610f9057610100808354040283529160200191610fbb565b820191906000526020600020905b815481529060010190602001808311610f9e57829003601f168201915b5050505050838381518110610fd357610fd26147d7565b5b60200260200101819052505b8180610fea90614835565b9250508080610ff890614835565b915050610efa565b508192505050919050565b60025481565b60055481565b60146020528060005260406000206000915090508060000154908060010154908060020154905083565b600080600090505b6002548110156110a7578280519060200120600e600083815260200190815260200160002060010160405161107e91906147c0565b60405180910390200361109457809150506110ad565b808061109f90614835565b915050611049565b50600090505b919050565b60106020528060005260406000206000915090505481565b600b6020528060005260406000206000915090508060000180546110ed906146ec565b80601f0160208091040260200160405190810160405280929190818152602001828054611119906146ec565b80156111665780601f1061113b57610100808354040283529160200191611166565b820191906000526020600020905b81548152906001019060200180831161114957829003601f168201915b50505050509080600101805461117b906146ec565b80601f01602080910402602001604051908101604052809291908181526020018280546111a7906146ec565b80156111f45780601f106111c9576101008083540402835291602001916111f4565b820191906000526020600020905b8154815290600101906020018083116111d757829003601f168201915b505050505090806002018054611209906146ec565b80601f0160208091040260200160405190810160405280929190818152602001828054611235906146ec565b80156112825780601f1061125757610100808354040283529160200191611282565b820191906000526020600020905b81548152906001019060200180831161126557829003601f168201915b5050505050905083565b6060600060025467ffffffffffffffff8111156112ac576112ab6136f8565b5b6040519080825280602002602001820160405280156112df57816020015b60608152602001906001900390816112ca5790505b50905060005b6002548110156113bf57600e60008281526020019081526020016000206001018054611310906146ec565b80601f016020809104026020016040519081016040528092919081815260200182805461133c906146ec565b80156113895780601f1061135e57610100808354040283529160200191611389565b820191906000526020600020905b81548152906001019060200180831161136c57829003601f168201915b50505050508282815181106113a1576113a06147d7565b5b602002602001018190525080806113b790614835565b9150506112e5565b508091505090565b600d6020528060005260406000206000915090508060000154908060010154905082565b60606000600f60008481526020019081526020016000206000015490506000600e6000838152602001908152602001600020600001805461142b906146ec565b80601f0160208091040260200160405190810160405280929190818152602001828054611457906146ec565b80156114a45780601f10611479576101008083540402835291602001916114a4565b820191906000526020600020905b81548152906001019060200180831161148757829003601f168201915b505050505090508092505050919050565b60176020528060005260406000206000915090508060000154908060010154908060020154908060030180546114ea906146ec565b80601f0160208091040260200160405190810160405280929190818152602001828054611516906146ec565b80156115635780601f1061153857610100808354040283529160200191611563565b820191906000526020600020905b81548152906001019060200180831161154657829003601f168201915b5050505050905084565b600f602052806000526040600020600091509050806000015490806001018054611596906146ec565b80601f01602080910402602001604051908101604052809291908181526020018280546115c2906146ec565b801561160f5780601f106115e45761010080835404028352916020019161160f565b820191906000526020600020905b8154815290600101906020018083116115f257829003601f168201915b5050505050908060020154905083565b60065481565b6060600060065467ffffffffffffffff811115611645576116446136f8565b5b60405190808252806020026020018201604052801561167857816020015b60608152602001906001900390816116635790505b509050600080600090505b60065481101561172b578560146000838152602001908152602001600020600001541480156116c75750846014600083815260200190815260200160002060010154145b1561170a576116eb60146000838152602001908152602001600020600201546133eb565b8383815181106116fe576116fd6147d7565b5b60200260200101819052505b818061171590614835565b925050808061172390614835565b915050611683565b50819250505092915050565b6011602052806000526040600020600091509050806000015490806001015490806002018054611766906146ec565b80601f0160208091040260200160405190810160405280929190818152602001828054611792906146ec565b80156117df5780601f106117b4576101008083540402835291602001916117df565b820191906000526020600020905b8154815290600101906020018083116117c257829003601f168201915b5050505050908060030180546117f4906146ec565b80601f0160208091040260200160405190810160405280929190818152602001828054611820906146ec565b801561186d5780601f106118425761010080835404028352916020019161186d565b820191906000526020600020905b81548152906001019060200180831161185057829003601f168201915b5050505050905084565b600015156018600085815260200190815260200160002060010160059054906101000a900460ff161515036118e6576118e5826040518060400160405280600581526020017f6261646765000000000000000000000000000000000000000000000000000000815250612c0d565b5b611925816040518060400160405280600881526020017f646f6e6174696f6e000000000000000000000000000000000000000000000000815250612c0d565b60016018600085815260200190815260200160002060010160056101000a81548160ff02191690831515021790555083600f6000878152602001908152602001600020600201600082825461197a919061487d565b92505081905550836010600085815260200190815260200160002060008282546119a4919061487d565b9250508190555060405180606001604052808681526020018481526020018581525060126000600154815260200190815260200160002060008201518160000155602082015181600101556040820151816002015590505060016000815480929190611a0f90614835565b91905055505050505050565b6060600b60008381526020019081526020016000206001018054611a3e906146ec565b80601f0160208091040260200160405190810160405280929190818152602001828054611a6a906146ec565b8015611ab75780601f10611a8c57610100808354040283529160200191611ab7565b820191906000526020600020905b815481529060010190602001808311611a9a57829003601f168201915b50505050509050919050565b600c6020528060005260406000206000915090508054611ae2906146ec565b80601f0160208091040260200160405190810160405280929190818152602001828054611b0e906146ec565b8015611b5b5780601f10611b3057610100808354040283529160200191611b5b565b820191906000526020600020905b815481529060010190602001808311611b3e57829003601f168201915b505050505081565b600060016018600084815260200190815260200160002060010160066101000a81548160ff021916908315150217905550604051806080016040528060075481526020018681526020018581526020018481525060156000600754815260200190815260200160002060008201518160000155602082015181600101556040820151816002019081611bf59190614a5d565b506060820151816003019081611c0b9190614a5d565b5090505060076000815480929190611c2290614835565b91905055506007549050949350505050565b600080600090505b600454811015611ca25782600d600083815260200190815260200160002060010154148015611c80575083600d600083815260200190815260200160002060000154145b15611c8f576001915050611ca8565b8080611c9a90614835565b915050611c3c565b50600090505b92915050565b60005481565b600e602052806000526040600020600091509050806000018054611cd7906146ec565b80601f0160208091040260200160405190810160405280929190818152602001828054611d03906146ec565b8015611d505780601f10611d2557610100808354040283529160200191611d50565b820191906000526020600020905b815481529060010190602001808311611d3357829003601f168201915b505050505090806001018054611d65906146ec565b80601f0160208091040260200160405190810160405280929190818152602001828054611d91906146ec565b8015611dde5780601f10611db357610100808354040283529160200191611dde565b820191906000526020600020905b815481529060010190602001808311611dc157829003601f168201915b5050505050905082565b60126020528060005260406000206000915090508060000154908060010154908060020154905083565b6060600060075467ffffffffffffffff811115611e3257611e316136f8565b5b604051908082528060200260200182016040528015611e605781602001602082028036833780820191505090505b509050600080600090505b600754811015611eea5784601560008381526020019081526020016000206001015403611ed7576015600082815260200190815260200160002060000154838381518110611ebc57611ebb6147d7565b5b6020026020010181815250508180611ed390614835565b9250505b8080611ee290614835565b915050611e6b565b508192505050919050565b6060600060095467ffffffffffffffff811115611f1557611f146136f8565b5b604051908082528060200260200182016040528015611f435781602001602082028036833780820191505090505b509050600080600090505b600954811015611fcd5784601760008381526020019081526020016000206001015403611fba576017600082815260200190815260200160002060000154838381518110611f9f57611f9e6147d7565b5b6020026020010181815250508180611fb690614835565b9250505b8080611fc590614835565b915050611f4e565b508192505050919050565b604051806040016040528061270f815260200161270f815250600d6000838152602001908152602001600020600082015181600001556020820151816001015590505050565b600060405180606001604052808681526020018581526020016040518060400160405280600581526020017f46616c7365000000000000000000000000000000000000000000000000000000815250815250600b60008054815260200190815260200160002060008201518160000190816120999190614a5d565b5060208201518160010190816120af9190614a5d565b5060408201518160020190816120c59190614a5d565b5090505082600c60008054815260200190815260200160002090816120ea9190614a5d565b5060016018600084815260200190815260200160002060010160006101000a81548160ff02191690831515021790555060008081548092919061212c90614835565b91905055506000549050949350505050565b80600c6000848152602001908152602001600020908161215e9190614a5d565b505050565b81600b600085815260200190815260200160002060000190816121869190614a5d565b5080600b600085815260200190815260200160002060010190816121aa9190614a5d565b50505050565b600a5481565b60016018600084815260200190815260200160002060010160016101000a81548160ff021916908315150217905550604051806040016040528084815260200183815250600d6000600454815260200190815260200160002060008201518160000155602082015181600101559050506004600081548092919061223990614835565b919050555061227d816040518060400160405280600481526020017f6a6f696e00000000000000000000000000000000000000000000000000000000815250612c0d565b505050565b6060600f600083815260200190815260200160002060010180546122a5906146ec565b80601f01602080910402602001604051908101604052809291908181526020018280546122d1906146ec565b801561231e5780601f106122f35761010080835404028352916020019161231e565b820191906000526020600020905b81548152906001019060200180831161230157829003601f168201915b50505050509050919050565b60075481565b6000604051806080016040528086815260200185815260200184815260200183815250601660006008548152602001908152602001600020600082015181600001556020820151816001015560408201518160020155606082015181600301908161239b9190614a5d565b50905050600860008154809291906123b290614835565b91905055506008549050949350505050565b6060600060035467ffffffffffffffff8111156123e4576123e36136f8565b5b60405190808252806020026020018201604052801561241757816020015b60608152602001906001900390816124025790505b50905060005b6003548110156124f757600f60008281526020019081526020016000206001018054612448906146ec565b80601f0160208091040260200160405190810160405280929190818152602001828054612474906146ec565b80156124c15780601f10612496576101008083540402835291602001916124c1565b820191906000526020600020905b8154815290600101906020018083116124a457829003601f168201915b50505050508282815181106124d9576124d86147d7565b5b602002602001018190525080806124ef90614835565b91505061241d565b508091505090565b600080600090505b600354811015612565578280519060200120600f600083815260200190815260200160002060010160405161253c91906147c0565b604051809103902003612552578091505061256b565b808061255d90614835565b915050612507565b50600090505b919050565b60186020528060005260406000206000915090508060000154908060010160009054906101000a900460ff16908060010160019054906101000a900460ff16908060010160029054906101000a900460ff16908060010160039054906101000a900460ff16908060010160049054906101000a900460ff16908060010160059054906101000a900460ff16908060010160069054906101000a900460ff16908060010160079054906101000a900460ff16905089565b60095481565b600080600090505b6003548110156126a8578280519060200120600f600083815260200190815260200160002060010160405161266991906147c0565b60405180910390200361269557600f6000828152602001908152602001600020600001549150506126ae565b80806126a090614835565b915050612634565b50600090505b919050565b60005b60005481101561271957600b6000828152602001908152602001600020600080820160006126e4919061366c565b6001820160006126f4919061366c565b600282016000612704919061366c565b5050808061271190614835565b9150506126b6565b5060005b60025481101561277057600e60008281526020019081526020016000206000808201600061274b919061366c565b60018201600061275b919061366c565b5050808061276890614835565b91505061271d565b5060005b6003548110156127c757600f60008281526020019081526020016000206000808201600090556001820160006127aa919061366c565b6002820160009055505080806127bf90614835565b915050612774565b5060005b60025481101561281e57601360008281526020019081526020016000206000808201600090556001820160009055600282016000612809919061366c565b5050808061281690614835565b9150506127cb565b5060005b60075481101561288557601560008281526020019081526020016000206000808201600090556001820160009055600282016000612860919061366c565b600382016000612870919061366c565b5050808061287d90614835565b915050612822565b5060005b6009548110156128e45760176000828152602001908152602001600020600080820160009055600182016000905560028201600090556003820160006128cf919061366c565b505080806128dc90614835565b915050612889565b5060005b6006548110156129335760146000828152602001908152602001600020600080820160009055600182016000905560028201600090555050808061292b90614835565b9150506128e8565b506000808190555060006002819055506000600381905550600060078190555060006009819055506000600681905550565b6000604051806040016040528085815260200186815250600e6000600254815260200190815260200160002060008201518160000190816129a69190614a5d565b5060208201518160010190816129bc9190614a5d565b5090505060016018600085815260200190815260200160002060010160026101000a81548160ff02191690831515021790555060026000815480929190612a0290614835565b9190505550612a46826040518060400160405280600481526020017f676f616c00000000000000000000000000000000000000000000000000000000815250612c0d565b6002549050949350505050565b6015602052806000526040600020600091509050806000015490806001015490806002018054612a82906146ec565b80601f0160208091040260200160405190810160405280929190818152602001828054612aae906146ec565b8015612afb5780601f10612ad057610100808354040283529160200191612afb565b820191906000526020600020905b815481529060010190602001808311612ade57829003601f168201915b505050505090806003018054612b10906146ec565b80601f0160208091040260200160405190810160405280929190818152602001828054612b3c906146ec565b8015612b895780601f10612b5e57610100808354040283529160200191612b89565b820191906000526020600020905b815481529060010190602001808311612b6c57829003601f168201915b5050505050905084565b600080600090505b600454811015612c005782600d600083815260200190815260200160002060010154148015612bdf575083600d600083815260200190815260200160002060000154145b15612bed5780915050612c07565b8080612bf890614835565b915050612b9b565b5061270f90505b92915050565b6040518060800160405280600a5481526020014281526020018281526020018381525060116000600a54815260200190815260200160002060008201518160000155602082015181600101556040820151816002019081612c6e9190614a5d565b506060820151816003019081612c849190614a5d565b50905050600a6000815480929190612c9b90614835565b91905055505050565b80600f60008481526020019081526020016000206001019081612cc79190614a5d565b505050565b60606000805467ffffffffffffffff811115612ceb57612cea6136f8565b5b604051908082528060200260200182016040528015612d1e57816020015b6060815260200190600190039081612d095790505b50905060005b600054811015612dfe57600b60008281526020019081526020016000206001018054612d4f906146ec565b80601f0160208091040260200160405190810160405280929190818152602001828054612d7b906146ec565b8015612dc85780601f10612d9d57610100808354040283529160200191612dc8565b820191906000526020600020905b815481529060010190602001808311612dab57829003601f168201915b5050505050828281518110612de057612ddf6147d7565b5b60200260200101819052508080612df690614835565b915050612d24565b508091505090565b80600e60008481526020019081526020016000206001019081612e299190614a5d565b505050565b60085481565b6016602052806000526040600020600091509050806000015490806001015490806002015490806003018054612e69906146ec565b80601f0160208091040260200160405190810160405280929190818152602001828054612e95906146ec565b8015612ee25780601f10612eb757610100808354040283529160200191612ee2565b820191906000526020600020905b815481529060010190602001808311612ec557829003601f168201915b5050505050905084565b6000806000905060005b600854811015612f7257846016600083815260200190815260200160002060000154148015612f55575060166000828152602001908152602001600020600301604051612f4391906147c0565b60405180910390208480519060200120145b15612f5f57600191505b8080612f6a90614835565b915050612ef6565b508091505092915050565b60035481565b600060016018600084815260200190815260200160002060010160076101000a81548160ff0219169083151502179055506040518060800160405280600954815260200186815260200184815260200185815250601760006009548152602001908152602001600020600082015181600001556020820151816001015560408201518160020155606082015181600301908161301f9190614a5d565b509050506009600081548092919061303690614835565b91905055506009549050949350505050565b600060405180606001604052808681526020018781526020016000815250600f6000600354815260200190815260200160002060008201518160000155602082015181600101908161309a9190614a5d565b506040820151816002015590505060016018600085815260200190815260200160002060010160036101000a81548160ff021916908315150217905550600360008154809291906130ea90614835565b919050555060005b845181101561314f57613124600354600554878481518110613117576131166147d7565b5b60200260200101516134b9565b6005600081548092919061313790614835565b9190505550808061314790614835565b9150506130f2565b5061318f826040518060400160405280600481526020017f6964656100000000000000000000000000000000000000000000000000000000815250612c0d565b600354905095945050505050565b6060600e600083815260200190815260200160002060010180546131c0906146ec565b80601f01602080910402602001604051908101604052809291908181526020018280546131ec906146ec565b80156132395780601f1061320e57610100808354040283529160200191613239565b820191906000526020600020905b81548152906001019060200180831161321c57829003601f168201915b50505050509050919050565b60015481565b600060016018600086815260200190815260200160002060010160046101000a81548160ff021916908315150217905550604051806060016040528087815260200186815260200185815250601460006006548152602001908152602001600020600082015181600001556020820151816001015560408201518160020155905050600660008154809291906132e090614835565b9190505550811561332b5761332a836040518060400160405280600481526020017f766f746500000000000000000000000000000000000000000000000000000000815250612c0d565b5b600654905095945050505050565b6013602052806000526040600020600091509050806000015490806001015490806002018054613368906146ec565b80601f0160208091040260200160405190810160405280929190818152602001828054613394906146ec565b80156133e15780601f106133b6576101008083540402835291602001916133e1565b820191906000526020600020905b8154815290600101906020018083116133c457829003601f168201915b5050505050905083565b6060600060016133fa84613519565b01905060008167ffffffffffffffff811115613419576134186136f8565b5b6040519080825280601f01601f19166020018201604052801561344b5781602001600182028036833780820191505090505b509050600082602001820190505b6001156134ae578080600190039150507f3031323334353637383961626364656600000000000000000000000000000000600a86061a8153600a85816134a2576134a1614b2f565b5b04945060008503613459575b819350505050919050565b60405180606001604052808481526020018381526020018281525060136000848152602001908152602001600020600082015181600001556020820151816001015560408201518160020190816135109190614a5d565b50905050505050565b600080600090507a184f03e93ff9f4daa797ed6e38ed64bf6a1f0100000000000000008310613577577a184f03e93ff9f4daa797ed6e38ed64bf6a1f010000000000000000838161356d5761356c614b2f565b5b0492506040810190505b6d04ee2d6d415b85acef810000000083106135b4576d04ee2d6d415b85acef810000000083816135aa576135a9614b2f565b5b0492506020810190505b662386f26fc1000083106135e357662386f26fc1000083816135d9576135d8614b2f565b5b0492506010810190505b6305f5e100831061360c576305f5e100838161360257613601614b2f565b5b0492506008810190505b612710831061363157612710838161362757613626614b2f565b5b0492506004810190505b60648310613654576064838161364a57613649614b2f565b5b0492506002810190505b600a8310613663576001810190505b80915050919050565b508054613678906146ec565b6000825580601f1061368a57506136a9565b601f0160209004906000526020600020908101906136a891906136ac565b5b50565b5b808211156136c55760008160009055506001016136ad565b5090565b6000604051905090565b600080fd5b600080fd5b600080fd5b600080fd5b6000601f19601f8301169050919050565b7f4e487b7100000000000000000000000000000000000000000000000000000000600052604160045260246000fd5b613730826136e7565b810181811067ffffffffffffffff8211171561374f5761374e6136f8565b5b80604052505050565b60006137626136c9565b905061376e8282613727565b919050565b600067ffffffffffffffff82111561378e5761378d6136f8565b5b613797826136e7565b9050602081019050919050565b82818337600083830152505050565b60006137c66137c184613773565b613758565b9050828152602081018484840111156137e2576137e16136e2565b5b6137ed8482856137a4565b509392505050565b600082601f83011261380a576138096136dd565b5b813561381a8482602086016137b3565b91505092915050565b600060208284031215613839576138386136d3565b5b600082013567ffffffffffffffff811115613857576138566136d8565b5b613863848285016137f5565b91505092915050565b600081519050919050565b600082825260208201905092915050565b6000819050602082019050919050565b600081519050919050565b600082825260208201905092915050565b60005b838110156138d25780820151818401526020810190506138b7565b60008484015250505050565b60006138e982613898565b6138f381856138a3565b93506139038185602086016138b4565b61390c816136e7565b840191505092915050565b600061392383836138de565b905092915050565b6000602082019050919050565b60006139438261386c565b61394d8185613877565b93508360208202850161395f85613888565b8060005b8581101561399b578484038952815161397c8582613917565b94506139878361392b565b925060208a01995050600181019050613963565b50829750879550505050505092915050565b600060208201905081810360008301526139c78184613938565b905092915050565b6000819050919050565b6139e2816139cf565b82525050565b60006020820190506139fd60008301846139d9565b92915050565b613a0c816139cf565b8114613a1757600080fd5b50565b600081359050613a2981613a03565b92915050565b600060208284031215613a4557613a446136d3565b5b6000613a5384828501613a1a565b91505092915050565b6000606082019050613a7160008301866139d9565b613a7e60208301856139d9565b613a8b60408301846139d9565b949350505050565b600082825260208201905092915050565b6000613aaf82613898565b613ab98185613a93565b9350613ac98185602086016138b4565b613ad2816136e7565b840191505092915050565b60006060820190508181036000830152613af78186613aa4565b90508181036020830152613b0b8185613aa4565b90508181036040830152613b1f8184613aa4565b9050949350505050565b6000604082019050613b3e60008301856139d9565b613b4b60208301846139d9565b9392505050565b60006020820190508181036000830152613b6c8184613aa4565b905092915050565b6000608082019050613b8960008301876139d9565b613b9660208301866139d9565b613ba360408301856139d9565b8181036060830152613bb58184613aa4565b905095945050505050565b6000606082019050613bd560008301866139d9565b8181036020830152613be78185613aa4565b9050613bf660408301846139d9565b949350505050565b60008060408385031215613c1557613c146136d3565b5b6000613c2385828601613a1a565b9250506020613c3485828601613a1a565b9150509250929050565b6000608082019050613c5360008301876139d9565b613c6060208301866139d9565b8181036040830152613c728185613aa4565b90508181036060830152613c868184613aa4565b905095945050505050565b600080600080600060a08688031215613cad57613cac6136d3565b5b6000613cbb88828901613a1a565b9550506020613ccc88828901613a1a565b9450506040613cdd88828901613a1a565b935050606086013567ffffffffffffffff811115613cfe57613cfd6136d8565b5b613d0a888289016137f5565b925050608086013567ffffffffffffffff811115613d2b57613d2a6136d8565b5b613d37888289016137f5565b9150509295509295909350565b60008060008060808587031215613d5e57613d5d6136d3565b5b6000613d6c87828801613a1a565b945050602085013567ffffffffffffffff811115613d8d57613d8c6136d8565b5b613d99878288016137f5565b935050604085013567ffffffffffffffff811115613dba57613db96136d8565b5b613dc6878288016137f5565b9250506060613dd787828801613a1a565b91505092959194509250565b60008115159050919050565b613df881613de3565b82525050565b6000602082019050613e136000830184613def565b92915050565b60006040820190508181036000830152613e338185613aa4565b90508181036020830152613e478184613aa4565b90509392505050565b600081519050919050565b600082825260208201905092915050565b6000819050602082019050919050565b613e85816139cf565b82525050565b6000613e978383613e7c565b60208301905092915050565b6000602082019050919050565b6000613ebb82613e50565b613ec58185613e5b565b9350613ed083613e6c565b8060005b83811015613f01578151613ee88882613e8b565b9750613ef383613ea3565b925050600181019050613ed4565b5085935050505092915050565b60006020820190508181036000830152613f288184613eb0565b905092915050565b60008060008060808587031215613f4a57613f496136d3565b5b600085013567ffffffffffffffff811115613f6857613f676136d8565b5b613f74878288016137f5565b945050602085013567ffffffffffffffff811115613f9557613f946136d8565b5b613fa1878288016137f5565b935050604085013567ffffffffffffffff811115613fc257613fc16136d8565b5b613fce878288016137f5565b9250506060613fdf87828801613a1a565b91505092959194509250565b60008060408385031215614002576140016136d3565b5b600061401085828601613a1a565b925050602083013567ffffffffffffffff811115614031576140306136d8565b5b61403d858286016137f5565b9150509250929050565b6000806000606084860312156140605761405f6136d3565b5b600061406e86828701613a1a565b935050602084013567ffffffffffffffff81111561408f5761408e6136d8565b5b61409b868287016137f5565b925050604084013567ffffffffffffffff8111156140bc576140bb6136d8565b5b6140c8868287016137f5565b9150509250925092565b6000806000606084860312156140eb576140ea6136d3565b5b60006140f986828701613a1a565b935050602061410a86828701613a1a565b925050604084013567ffffffffffffffff81111561412b5761412a6136d8565b5b614137868287016137f5565b9150509250925092565b6000806000806080858703121561415b5761415a6136d3565b5b600061416987828801613a1a565b945050602061417a87828801613a1a565b935050604061418b87828801613a1a565b925050606085013567ffffffffffffffff8111156141ac576141ab6136d8565b5b6141b8878288016137f5565b91505092959194509250565b6000610120820190506141da600083018c6139d9565b6141e7602083018b613def565b6141f4604083018a613def565b6142016060830189613def565b61420e6080830188613def565b61421b60a0830187613def565b61422860c0830186613def565b61423560e0830185613def565b614243610100830184613def565b9a9950505050505050505050565b6000806000806080858703121561426b5761426a6136d3565b5b600085013567ffffffffffffffff811115614289576142886136d8565b5b614295878288016137f5565b945050602085013567ffffffffffffffff8111156142b6576142b56136d8565b5b6142c2878288016137f5565b93505060406142d387828801613a1a565b925050606085013567ffffffffffffffff8111156142f4576142f36136d8565b5b614300878288016137f5565b91505092959194509250565b60008060408385031215614323576143226136d3565b5b600083013567ffffffffffffffff811115614341576143406136d8565b5b61434d858286016137f5565b925050602083013567ffffffffffffffff81111561436e5761436d6136d8565b5b61437a858286016137f5565b9150509250929050565b6000806000806080858703121561439e5761439d6136d3565b5b60006143ac87828801613a1a565b945050602085013567ffffffffffffffff8111156143cd576143cc6136d8565b5b6143d9878288016137f5565b93505060406143ea87828801613a1a565b92505060606143fb87828801613a1a565b91505092959194509250565b600067ffffffffffffffff821115614422576144216136f8565b5b602082029050602081019050919050565b600080fd5b600061444b61444684614407565b613758565b9050808382526020820190506020840283018581111561446e5761446d614433565b5b835b818110156144b557803567ffffffffffffffff811115614493576144926136dd565b5b8086016144a089826137f5565b85526020850194505050602081019050614470565b5050509392505050565b600082601f8301126144d4576144d36136dd565b5b81356144e4848260208601614438565b91505092915050565b600080600080600060a08688031215614509576145086136d3565b5b600086013567ffffffffffffffff811115614527576145266136d8565b5b614533888289016137f5565b955050602061454488828901613a1a565b945050604086013567ffffffffffffffff811115614565576145646136d8565b5b614571888289016144bf565b935050606061458288828901613a1a565b925050608086013567ffffffffffffffff8111156145a3576145a26136d8565b5b6145af888289016137f5565b9150509295509295909350565b6145c581613de3565b81146145d057600080fd5b50565b6000813590506145e2816145bc565b92915050565b600080600080600060a08688031215614604576146036136d3565b5b600061461288828901613a1a565b955050602061462388828901613a1a565b945050604061463488828901613a1a565b935050606086013567ffffffffffffffff811115614655576146546136d8565b5b614661888289016137f5565b9250506080614672888289016145d3565b9150509295509295909350565b600060608201905061469460008301866139d9565b6146a160208301856139d9565b81810360408301526146b38184613aa4565b9050949350505050565b7f4e487b7100000000000000000000000000000000000000000000000000000000600052602260045260246000fd5b6000600282049050600182168061470457607f821691505b602082108103614717576147166146bd565b5b50919050565b600081905092915050565b60008190508160005260206000209050919050565b6000815461474a816146ec565b614754818661471d565b9450600182166000811461476f5760018114614784576147b7565b60ff19831686528115158202860193506147b7565b61478d85614728565b60005b838110156147af57815481890152600182019150602081019050614790565b838801955050505b50505092915050565b60006147cc828461473d565b915081905092915050565b7f4e487b7100000000000000000000000000000000000000000000000000000000600052603260045260246000fd5b7f4e487b7100000000000000000000000000000000000000000000000000000000600052601160045260246000fd5b6000614840826139cf565b91507fffffffffffffffffffffffffffffffffffffffffffffffffffffffffffffffff820361487257614871614806565b5b600182019050919050565b6000614888826139cf565b9150614893836139cf565b92508282019050808211156148ab576148aa614806565b5b92915050565b60008190508160005260206000209050919050565b60006020601f8301049050919050565b600082821b905092915050565b6000600883026149137fffffffffffffffffffffffffffffffffffffffffffffffffffffffffffffffff826148d6565b61491d86836148d6565b95508019841693508086168417925050509392505050565b6000819050919050565b600061495a614955614950846139cf565b614935565b6139cf565b9050919050565b6000819050919050565b6149748361493f565b61498861498082614961565b8484546148e3565b825550505050565b600090565b61499d614990565b6149a881848461496b565b505050565b5b818110156149cc576149c1600082614995565b6001810190506149ae565b5050565b601f821115614a11576149e2816148b1565b6149eb846148c6565b810160208510156149fa578190505b614a0e614a06856148c6565b8301826149ad565b50505b505050565b600082821c905092915050565b6000614a3460001984600802614a16565b1980831691505092915050565b6000614a4d8383614a23565b9150826002028217905092915050565b614a6682613898565b67ffffffffffffffff811115614a7f57614a7e6136f8565b5b614a8982546146ec565b614a948282856149d0565b600060209050601f831160018114614ac75760008415614ab5578287015190505b614abf8582614a41565b865550614b27565b601f198416614ad5866148b1565b60005b82811015614afd57848901518255600182019150602085019450602081019050614ad8565b86831015614b1a5784890151614b16601f891682614a23565b8355505b6001600288020188555050505b505050505050565b7f4e487b7100000000000000000000000000000000000000000000000000000000600052601260045260246000fdfea264697066735822122011566b5c8ef08a9838007266a3f1d7994da72aafd5764c44dd81e76377f03ccc64736f6c63430008110033","opcodes":"PUSH1 0x80 PUSH1 0x40 MSTORE CALLVALUE DUP1 ISZERO PUSH2 0x10 JUMPI PUSH1 0x0 DUP1 REVERT JUMPDEST POP PUSH2 0x4B94 DUP1 PUSH2 0x20 PUSH1 0x0 CODECOPY PUSH1 0x0 RETURN INVALID PUSH1 0x80 PUSH1 0x40 MSTORE CALLVALUE DUP1 ISZERO PUSH2 0x10 JUMPI PUSH1 0x0 DUP1 REVERT JUMPDEST POP PUSH1 0x4 CALLDATASIZE LT PUSH2 0x399 JUMPI PUSH1 0x0 CALLDATALOAD PUSH1 0xE0 SHR DUP1 PUSH4 0x87633EB2 GT PUSH2 0x1E9 JUMPI DUP1 PUSH4 0xB604EFAA GT PUSH2 0x10F JUMPI DUP1 PUSH4 0xCD230809 GT PUSH2 0xAD JUMPI DUP1 PUSH4 0xE32ACC1A GT PUSH2 0x7C JUMPI DUP1 PUSH4 0xE32ACC1A EQ PUSH2 0xC5C JUMPI DUP1 PUSH4 0xEC245802 EQ PUSH2 0xC8C JUMPI DUP1 PUSH4 0xECDE3243 EQ PUSH2 0xCAA JUMPI DUP1 PUSH4 0xFF4A37EF EQ PUSH2 0xCDA JUMPI PUSH2 0x399 JUMP JUMPDEST DUP1 PUSH4 0xCD230809 EQ PUSH2 0xBAE JUMPI DUP1 PUSH4 0xD3791B20 EQ PUSH2 0xBDE JUMPI DUP1 PUSH4 0xD9FC52DB EQ PUSH2 0xBFC JUMPI DUP1 PUSH4 0xE1B011A0 EQ PUSH2 0xC2C JUMPI PUSH2 0x399 JUMP JUMPDEST DUP1 PUSH4 0xC04FE978 GT PUSH2 0xE9 JUMPI DUP1 PUSH4 0xC04FE978 EQ PUSH2 0xB23 JUMPI DUP1 PUSH4 0xC29595C5 EQ PUSH2 0xB41 JUMPI DUP1 PUSH4 0xCA013F17 EQ PUSH2 0xB5D JUMPI DUP1 PUSH4 0xCACE8D46 EQ PUSH2 0xB7B JUMPI PUSH2 0x399 JUMP JUMPDEST DUP1 PUSH4 0xB604EFAA EQ PUSH2 0xABB JUMPI DUP1 PUSH4 0xBDA00335 EQ PUSH2 0xAEB JUMPI DUP1 PUSH4 0xC04E7430 EQ PUSH2 0xB07 JUMPI PUSH2 0x399 JUMP JUMPDEST DUP1 PUSH4 0x97EE7606 GT PUSH2 0x187 JUMPI DUP1 PUSH4 0xAA4CDF2A GT PUSH2 0x156 JUMPI DUP1 PUSH4 0xAA4CDF2A EQ PUSH2 0xA1E JUMPI DUP1 PUSH4 0xB16060A6 EQ PUSH2 0xA4E JUMPI DUP1 PUSH4 0xB39A38BD EQ PUSH2 0xA58 JUMPI DUP1 PUSH4 0xB527D45E EQ PUSH2 0xA88 JUMPI PUSH2 0x399 JUMP JUMPDEST DUP1 PUSH4 0x97EE7606 EQ PUSH2 0x97A JUMPI DUP1 PUSH4 0xA1CA9178 EQ PUSH2 0x998 JUMPI DUP1 PUSH4 0xA428A47F EQ PUSH2 0x9C8 JUMPI DUP1 PUSH4 0xAA2BF5D3 EQ PUSH2 0xA00 JUMPI PUSH2 0x399 JUMP JUMPDEST DUP1 PUSH4 0x8C70034A GT PUSH2 0x1C3 JUMPI DUP1 PUSH4 0x8C70034A EQ PUSH2 0x8E0 JUMPI DUP1 PUSH4 0x8D3D2595 EQ PUSH2 0x8FC JUMPI DUP1 PUSH4 0x9077007D EQ PUSH2 0x92C JUMPI DUP1 PUSH4 0x934C5F00 EQ PUSH2 0x94A JUMPI PUSH2 0x399 JUMP JUMPDEST DUP1 PUSH4 0x87633EB2 EQ PUSH2 0x88A JUMPI DUP1 PUSH4 0x881DE858 EQ PUSH2 0x8A6 JUMPI DUP1 PUSH4 0x8AC4110C EQ PUSH2 0x8C2 JUMPI PUSH2 0x399 JUMP JUMPDEST DUP1 PUSH4 0x4A797BD7 GT PUSH2 0x2CE JUMPI DUP1 PUSH4 0x7A82B1D6 GT PUSH2 0x26C JUMPI DUP1 PUSH4 0x803F5B9F GT PUSH2 0x23B JUMPI DUP1 PUSH4 0x803F5B9F EQ PUSH2 0x7DE JUMPI DUP1 PUSH4 0x812FAE1F EQ PUSH2 0x80E JUMPI DUP1 PUSH4 0x826EEEFE EQ PUSH2 0x83E JUMPI DUP1 PUSH4 0x86FFA45B EQ PUSH2 0x85A JUMPI PUSH2 0x399 JUMP JUMPDEST DUP1 PUSH4 0x7A82B1D6 EQ PUSH2 0x72D JUMPI DUP1 PUSH4 0x7BBD582D EQ PUSH2 0x75D JUMPI DUP1 PUSH4 0x7F2035D4 EQ PUSH2 0x77B JUMPI DUP1 PUSH4 0x7FC543EC EQ PUSH2 0x7AC JUMPI PUSH2 0x399 JUMP JUMPDEST DUP1 PUSH4 0x5996278F GT PUSH2 0x2A8 JUMPI DUP1 PUSH4 0x5996278F EQ PUSH2 0x681 JUMPI DUP1 PUSH4 0x5D907DA1 EQ PUSH2 0x69D JUMPI DUP1 PUSH4 0x6ECDA4EE EQ PUSH2 0x6CD JUMPI DUP1 PUSH4 0x787F19C7 EQ PUSH2 0x6FD JUMPI PUSH2 0x399 JUMP JUMPDEST DUP1 PUSH4 0x4A797BD7 EQ PUSH2 0x600 JUMPI DUP1 PUSH4 0x4BE7ADB5 EQ PUSH2 0x61E JUMPI DUP1 PUSH4 0x54A9FB18 EQ PUSH2 0x64E JUMPI PUSH2 0x399 JUMP JUMPDEST DUP1 PUSH4 0x20959ED0 GT PUSH2 0x33B JUMPI DUP1 PUSH4 0x330B8F26 GT PUSH2 0x315 JUMPI DUP1 PUSH4 0x330B8F26 EQ PUSH2 0x53A JUMPI DUP1 PUSH4 0x38A512D9 EQ PUSH2 0x56B JUMPI DUP1 PUSH4 0x3F87A2F4 EQ PUSH2 0x59B JUMPI DUP1 PUSH4 0x468D0C80 EQ PUSH2 0x5CE JUMPI PUSH2 0x399 JUMP JUMPDEST DUP1 PUSH4 0x20959ED0 EQ PUSH2 0x4BA JUMPI DUP1 PUSH4 0x27A568B9 EQ PUSH2 0x4EA JUMPI DUP1 PUSH4 0x29B56F60 EQ PUSH2 0x51C JUMPI PUSH2 0x399 JUMP JUMPDEST DUP1 PUSH4 0x13BF4CEA GT PUSH2 0x377 JUMPI DUP1 PUSH4 0x13BF4CEA EQ PUSH2 0x41C JUMPI DUP1 PUSH4 0x1B592AEB EQ PUSH2 0x43A JUMPI DUP1 PUSH4 0x1BA44C4C EQ PUSH2 0x458 JUMPI DUP1 PUSH4 0x1E9AC9F5 EQ PUSH2 0x48A JUMPI PUSH2 0x399 JUMP JUMPDEST DUP1 PUSH4 0x377D44A EQ PUSH2 0x39E JUMPI DUP1 PUSH4 0x1171B621 EQ PUSH2 0x3CE JUMPI DUP1 PUSH4 0x131D44F2 EQ PUSH2 0x3EC JUMPI JUMPDEST PUSH1 0x0 DUP1 REVERT JUMPDEST PUSH2 0x3B8 PUSH1 0x4 DUP1 CALLDATASIZE SUB DUP2 ADD SWAP1 PUSH2 0x3B3 SWAP2 SWAP1 PUSH2 0x3823 JUMP JUMPDEST PUSH2 0xD0C JUMP JUMPDEST PUSH1 0x40 MLOAD PUSH2 0x3C5 SWAP2 SWAP1 PUSH2 0x39AD JUMP JUMPDEST PUSH1 0x40 MLOAD DUP1 SWAP2 SUB SWAP1 RETURN JUMPDEST PUSH2 0x3D6 PUSH2 0xE96 JUMP JUMPDEST PUSH1 0x40 MLOAD PUSH2 0x3E3 SWAP2 SWAP1 PUSH2 0x39E8 JUMP JUMPDEST PUSH1 0x40 MLOAD DUP1 SWAP2 SUB SWAP1 RETURN JUMPDEST PUSH2 0x406 PUSH1 0x4 DUP1 CALLDATASIZE SUB DUP2 ADD SWAP1 PUSH2 0x401 SWAP2 SWAP1 PUSH2 0x3A2F JUMP JUMPDEST PUSH2 0xE9C JUMP JUMPDEST PUSH1 0x40 MLOAD PUSH2 0x413 SWAP2 SWAP1 PUSH2 0x39AD JUMP JUMPDEST PUSH1 0x40 MLOAD DUP1 SWAP2 SUB SWAP1 RETURN JUMPDEST PUSH2 0x424 PUSH2 0x100B JUMP JUMPDEST PUSH1 0x40 MLOAD PUSH2 0x431 SWAP2 SWAP1 PUSH2 0x39E8 JUMP JUMPDEST PUSH1 0x40 MLOAD DUP1 SWAP2 SUB SWAP1 RETURN JUMPDEST PUSH2 0x442 PUSH2 0x1011 JUMP JUMPDEST PUSH1 0x40 MLOAD PUSH2 0x44F SWAP2 SWAP1 PUSH2 0x39E8 JUMP JUMPDEST PUSH1 0x40 MLOAD DUP1 SWAP2 SUB SWAP1 RETURN JUMPDEST PUSH2 0x472 PUSH1 0x4 DUP1 CALLDATASIZE SUB DUP2 ADD SWAP1 PUSH2 0x46D SWAP2 SWAP1 PUSH2 0x3A2F JUMP JUMPDEST PUSH2 0x1017 JUMP JUMPDEST PUSH1 0x40 MLOAD PUSH2 0x481 SWAP4 SWAP3 SWAP2 SWAP1 PUSH2 0x3A5C JUMP JUMPDEST PUSH1 0x40 MLOAD DUP1 SWAP2 SUB SWAP1 RETURN JUMPDEST PUSH2 0x4A4 PUSH1 0x4 DUP1 CALLDATASIZE SUB DUP2 ADD SWAP1 PUSH2 0x49F SWAP2 SWAP1 PUSH2 0x3823 JUMP JUMPDEST PUSH2 0x1041 JUMP JUMPDEST PUSH1 0x40 MLOAD PUSH2 0x4B1 SWAP2 SWAP1 PUSH2 0x39E8 JUMP JUMPDEST PUSH1 0x40 MLOAD DUP1 SWAP2 SUB SWAP1 RETURN JUMPDEST PUSH2 0x4D4 PUSH1 0x4 DUP1 CALLDATASIZE SUB DUP2 ADD SWAP1 PUSH2 0x4CF SWAP2 SWAP1 PUSH2 0x3A2F JUMP JUMPDEST PUSH2 0x10B2 JUMP JUMPDEST PUSH1 0x40 MLOAD PUSH2 0x4E1 SWAP2 SWAP1 PUSH2 0x39E8 JUMP JUMPDEST PUSH1 0x40 MLOAD DUP1 SWAP2 SUB SWAP1 RETURN JUMPDEST PUSH2 0x504 PUSH1 0x4 DUP1 CALLDATASIZE SUB DUP2 ADD SWAP1 PUSH2 0x4FF SWAP2 SWAP1 PUSH2 0x3A2F JUMP JUMPDEST PUSH2 0x10CA JUMP JUMPDEST PUSH1 0x40 MLOAD PUSH2 0x513 SWAP4 SWAP3 SWAP2 SWAP1 PUSH2 0x3ADD JUMP JUMPDEST PUSH1 0x40 MLOAD DUP1 SWAP2 SUB SWAP1 RETURN JUMPDEST PUSH2 0x524 PUSH2 0x128C JUMP JUMPDEST PUSH1 0x40 MLOAD PUSH2 0x531 SWAP2 SWAP1 PUSH2 0x39AD JUMP JUMPDEST PUSH1 0x40 MLOAD DUP1 SWAP2 SUB SWAP1 RETURN JUMPDEST PUSH2 0x554 PUSH1 0x4 DUP1 CALLDATASIZE SUB DUP2 ADD SWAP1 PUSH2 0x54F SWAP2 SWAP1 PUSH2 0x3A2F JUMP JUMPDEST PUSH2 0x13C7 JUMP JUMPDEST PUSH1 0x40 MLOAD PUSH2 0x562 SWAP3 SWAP2 SWAP1 PUSH2 0x3B29 JUMP JUMPDEST PUSH1 0x40 MLOAD DUP1 SWAP2 SUB SWAP1 RETURN JUMPDEST PUSH2 0x585 PUSH1 0x4 DUP1 CALLDATASIZE SUB DUP2 ADD SWAP1 PUSH2 0x580 SWAP2 SWAP1 PUSH2 0x3A2F JUMP JUMPDEST PUSH2 0x13EB JUMP JUMPDEST PUSH1 0x40 MLOAD PUSH2 0x592 SWAP2 SWAP1 PUSH2 0x3B52 JUMP JUMPDEST PUSH1 0x40 MLOAD DUP1 SWAP2 SUB SWAP1 RETURN JUMPDEST PUSH2 0x5B5 PUSH1 0x4 DUP1 CALLDATASIZE SUB DUP2 ADD SWAP1 PUSH2 0x5B0 SWAP2 SWAP1 PUSH2 0x3A2F JUMP JUMPDEST PUSH2 0x14B5 JUMP JUMPDEST PUSH1 0x40 MLOAD PUSH2 0x5C5 SWAP5 SWAP4 SWAP3 SWAP2 SWAP1 PUSH2 0x3B74 JUMP JUMPDEST PUSH1 0x40 MLOAD DUP1 SWAP2 SUB SWAP1 RETURN JUMPDEST PUSH2 0x5E8 PUSH1 0x4 DUP1 CALLDATASIZE SUB DUP2 ADD SWAP1 PUSH2 0x5E3 SWAP2 SWAP1 PUSH2 0x3A2F JUMP JUMPDEST PUSH2 0x156D JUMP JUMPDEST PUSH1 0x40 MLOAD PUSH2 0x5F7 SWAP4 SWAP3 SWAP2 SWAP1 PUSH2 0x3BC0 JUMP JUMPDEST PUSH1 0x40 MLOAD DUP1 SWAP2 SUB SWAP1 RETURN JUMPDEST PUSH2 0x608 PUSH2 0x161F JUMP JUMPDEST PUSH1 0x40 MLOAD PUSH2 0x615 SWAP2 SWAP1 PUSH2 0x39E8 JUMP JUMPDEST PUSH1 0x40 MLOAD DUP1 SWAP2 SUB SWAP1 RETURN JUMPDEST PUSH2 0x638 PUSH1 0x4 DUP1 CALLDATASIZE SUB DUP2 ADD SWAP1 PUSH2 0x633 SWAP2 SWAP1 PUSH2 0x3BFE JUMP JUMPDEST PUSH2 0x1625 JUMP JUMPDEST PUSH1 0x40 MLOAD PUSH2 0x645 SWAP2 SWAP1 PUSH2 0x39AD JUMP JUMPDEST PUSH1 0x40 MLOAD DUP1 SWAP2 SUB SWAP1 RETURN JUMPDEST PUSH2 0x668 PUSH1 0x4 DUP1 CALLDATASIZE SUB DUP2 ADD SWAP1 PUSH2 0x663 SWAP2 SWAP1 PUSH2 0x3A2F JUMP JUMPDEST PUSH2 0x1737 JUMP JUMPDEST PUSH1 0x40 MLOAD PUSH2 0x678 SWAP5 SWAP4 SWAP3 SWAP2 SWAP1 PUSH2 0x3C3E JUMP JUMPDEST PUSH1 0x40 MLOAD DUP1 SWAP2 SUB SWAP1 RETURN JUMPDEST PUSH2 0x69B PUSH1 0x4 DUP1 CALLDATASIZE SUB DUP2 ADD SWAP1 PUSH2 0x696 SWAP2 SWAP1 PUSH2 0x3C91 JUMP JUMPDEST PUSH2 0x1877 JUMP JUMPDEST STOP JUMPDEST PUSH2 0x6B7 PUSH1 0x4 DUP1 CALLDATASIZE SUB DUP2 ADD SWAP1 PUSH2 0x6B2 SWAP2 SWAP1 PUSH2 0x3A2F JUMP JUMPDEST PUSH2 0x1A1B JUMP JUMPDEST PUSH1 0x40 MLOAD PUSH2 0x6C4 SWAP2 SWAP1 PUSH2 0x3B52 JUMP JUMPDEST PUSH1 0x40 MLOAD DUP1 SWAP2 SUB SWAP1 RETURN JUMPDEST PUSH2 0x6E7 PUSH1 0x4 DUP1 CALLDATASIZE SUB DUP2 ADD SWAP1 PUSH2 0x6E2 SWAP2 SWAP1 PUSH2 0x3A2F JUMP JUMPDEST PUSH2 0x1AC3 JUMP JUMPDEST PUSH1 0x40 MLOAD PUSH2 0x6F4 SWAP2 SWAP1 PUSH2 0x3B52 JUMP JUMPDEST PUSH1 0x40 MLOAD DUP1 SWAP2 SUB SWAP1 RETURN JUMPDEST PUSH2 0x717 PUSH1 0x4 DUP1 CALLDATASIZE SUB DUP2 ADD SWAP1 PUSH2 0x712 SWAP2 SWAP1 PUSH2 0x3D44 JUMP JUMPDEST PUSH2 0x1B63 JUMP JUMPDEST PUSH1 0x40 MLOAD PUSH2 0x724 SWAP2 SWAP1 PUSH2 0x39E8 JUMP JUMPDEST PUSH1 0x40 MLOAD DUP1 SWAP2 SUB SWAP1 RETURN JUMPDEST PUSH2 0x747 PUSH1 0x4 DUP1 CALLDATASIZE SUB DUP2 ADD SWAP1 PUSH2 0x742 SWAP2 SWAP1 PUSH2 0x3BFE JUMP JUMPDEST PUSH2 0x1C34 JUMP JUMPDEST PUSH1 0x40 MLOAD PUSH2 0x754 SWAP2 SWAP1 PUSH2 0x3DFE JUMP JUMPDEST PUSH1 0x40 MLOAD DUP1 SWAP2 SUB SWAP1 RETURN JUMPDEST PUSH2 0x765 PUSH2 0x1CAE JUMP JUMPDEST PUSH1 0x40 MLOAD PUSH2 0x772 SWAP2 SWAP1 PUSH2 0x39E8 JUMP JUMPDEST PUSH1 0x40 MLOAD DUP1 SWAP2 SUB SWAP1 RETURN JUMPDEST PUSH2 0x795 PUSH1 0x4 DUP1 CALLDATASIZE SUB DUP2 ADD SWAP1 PUSH2 0x790 SWAP2 SWAP1 PUSH2 0x3A2F JUMP JUMPDEST PUSH2 0x1CB4 JUMP JUMPDEST PUSH1 0x40 MLOAD PUSH2 0x7A3 SWAP3 SWAP2 SWAP1 PUSH2 0x3E19 JUMP JUMPDEST PUSH1 0x40 MLOAD DUP1 SWAP2 SUB SWAP1 RETURN JUMPDEST PUSH2 0x7C6 PUSH1 0x4 DUP1 CALLDATASIZE SUB DUP2 ADD SWAP1 PUSH2 0x7C1 SWAP2 SWAP1 PUSH2 0x3A2F JUMP JUMPDEST PUSH2 0x1DE8 JUMP JUMPDEST PUSH1 0x40 MLOAD PUSH2 0x7D5 SWAP4 SWAP3 SWAP2 SWAP1 PUSH2 0x3A5C JUMP JUMPDEST PUSH1 0x40 MLOAD DUP1 SWAP2 SUB SWAP1 RETURN JUMPDEST PUSH2 0x7F8 PUSH1 0x4 DUP1 CALLDATASIZE SUB DUP2 ADD SWAP1 PUSH2 0x7F3 SWAP2 SWAP1 PUSH2 0x3A2F JUMP JUMPDEST PUSH2 0x1E12 JUMP JUMPDEST PUSH1 0x40 MLOAD PUSH2 0x805 SWAP2 SWAP1 PUSH2 0x3F0E JUMP JUMPDEST PUSH1 0x40 MLOAD DUP1 SWAP2 SUB SWAP1 RETURN JUMPDEST PUSH2 0x828 PUSH1 0x4 DUP1 CALLDATASIZE SUB DUP2 ADD SWAP1 PUSH2 0x823 SWAP2 SWAP1 PUSH2 0x3A2F JUMP JUMPDEST PUSH2 0x1EF5 JUMP JUMPDEST PUSH1 0x40 MLOAD PUSH2 0x835 SWAP2 SWAP1 PUSH2 0x3F0E JUMP JUMPDEST PUSH1 0x40 MLOAD DUP1 SWAP2 SUB SWAP1 RETURN JUMPDEST PUSH2 0x858 PUSH1 0x4 DUP1 CALLDATASIZE SUB DUP2 ADD SWAP1 PUSH2 0x853 SWAP2 SWAP1 PUSH2 0x3A2F JUMP JUMPDEST PUSH2 0x1FD8 JUMP JUMPDEST STOP JUMPDEST PUSH2 0x874 PUSH1 0x4 DUP1 CALLDATASIZE SUB DUP2 ADD SWAP1 PUSH2 0x86F SWAP2 SWAP1 PUSH2 0x3F30 JUMP JUMPDEST PUSH2 0x201E JUMP JUMPDEST PUSH1 0x40 MLOAD PUSH2 0x881 SWAP2 SWAP1 PUSH2 0x39E8 JUMP JUMPDEST PUSH1 0x40 MLOAD DUP1 SWAP2 SUB SWAP1 RETURN JUMPDEST PUSH2 0x8A4 PUSH1 0x4 DUP1 CALLDATASIZE SUB DUP2 ADD SWAP1 PUSH2 0x89F SWAP2 SWAP1 PUSH2 0x3FEB JUMP JUMPDEST PUSH2 0x213E JUMP JUMPDEST STOP JUMPDEST PUSH2 0x8C0 PUSH1 0x4 DUP1 CALLDATASIZE SUB DUP2 ADD SWAP1 PUSH2 0x8BB SWAP2 SWAP1 PUSH2 0x4047 JUMP JUMPDEST PUSH2 0x2163 JUMP JUMPDEST STOP JUMPDEST PUSH2 0x8CA PUSH2 0x21B0 JUMP JUMPDEST PUSH1 0x40 MLOAD PUSH2 0x8D7 SWAP2 SWAP1 PUSH2 0x39E8 JUMP JUMPDEST PUSH1 0x40 MLOAD DUP1 SWAP2 SUB SWAP1 RETURN JUMPDEST PUSH2 0x8FA PUSH1 0x4 DUP1 CALLDATASIZE SUB DUP2 ADD SWAP1 PUSH2 0x8F5 SWAP2 SWAP1 PUSH2 0x40D2 JUMP JUMPDEST PUSH2 0x21B6 JUMP JUMPDEST STOP JUMPDEST PUSH2 0x916 PUSH1 0x4 DUP1 CALLDATASIZE SUB DUP2 ADD SWAP1 PUSH2 0x911 SWAP2 SWAP1 PUSH2 0x3A2F JUMP JUMPDEST PUSH2 0x2282 JUMP JUMPDEST PUSH1 0x40 MLOAD PUSH2 0x923 SWAP2 SWAP1 PUSH2 0x3B52 JUMP JUMPDEST PUSH1 0x40 MLOAD DUP1 SWAP2 SUB SWAP1 RETURN JUMPDEST PUSH2 0x934 PUSH2 0x232A JUMP JUMPDEST PUSH1 0x40 MLOAD PUSH2 0x941 SWAP2 SWAP1 PUSH2 0x39E8 JUMP JUMPDEST PUSH1 0x40 MLOAD DUP1 SWAP2 SUB SWAP1 RETURN JUMPDEST PUSH2 0x964 PUSH1 0x4 DUP1 CALLDATASIZE SUB DUP2 ADD SWAP1 PUSH2 0x95F SWAP2 SWAP1 PUSH2 0x4141 JUMP JUMPDEST PUSH2 0x2330 JUMP JUMPDEST PUSH1 0x40 MLOAD PUSH2 0x971 SWAP2 SWAP1 PUSH2 0x39E8 JUMP JUMPDEST PUSH1 0x40 MLOAD DUP1 SWAP2 SUB SWAP1 RETURN JUMPDEST PUSH2 0x982 PUSH2 0x23C4 JUMP JUMPDEST PUSH1 0x40 MLOAD PUSH2 0x98F SWAP2 SWAP1 PUSH2 0x39AD JUMP JUMPDEST PUSH1 0x40 MLOAD DUP1 SWAP2 SUB SWAP1 RETURN JUMPDEST PUSH2 0x9B2 PUSH1 0x4 DUP1 CALLDATASIZE SUB DUP2 ADD SWAP1 PUSH2 0x9AD SWAP2 SWAP1 PUSH2 0x3823 JUMP JUMPDEST PUSH2 0x24FF JUMP JUMPDEST PUSH1 0x40 MLOAD PUSH2 0x9BF SWAP2 SWAP1 PUSH2 0x39E8 JUMP JUMPDEST PUSH1 0x40 MLOAD DUP1 SWAP2 SUB SWAP1 RETURN JUMPDEST PUSH2 0x9E2 PUSH1 0x4 DUP1 CALLDATASIZE SUB DUP2 ADD SWAP1 PUSH2 0x9DD SWAP2 SWAP1 PUSH2 0x3A2F JUMP JUMPDEST PUSH2 0x2570 JUMP JUMPDEST PUSH1 0x40 MLOAD PUSH2 0x9F7 SWAP10 SWAP9 SWAP8 SWAP7 SWAP6 SWAP5 SWAP4 SWAP3 SWAP2 SWAP1 PUSH2 0x41C4 JUMP JUMPDEST PUSH1 0x40 MLOAD DUP1 SWAP2 SUB SWAP1 RETURN JUMPDEST PUSH2 0xA08 PUSH2 0x2626 JUMP JUMPDEST PUSH1 0x40 MLOAD PUSH2 0xA15 SWAP2 SWAP1 PUSH2 0x39E8 JUMP JUMPDEST PUSH1 0x40 MLOAD DUP1 SWAP2 SUB SWAP1 RETURN JUMPDEST PUSH2 0xA38 PUSH1 0x4 DUP1 CALLDATASIZE SUB DUP2 ADD SWAP1 PUSH2 0xA33 SWAP2 SWAP1 PUSH2 0x3823 JUMP JUMPDEST PUSH2 0x262C JUMP JUMPDEST PUSH1 0x40 MLOAD PUSH2 0xA45 SWAP2 SWAP1 PUSH2 0x39E8 JUMP JUMPDEST PUSH1 0x40 MLOAD DUP1 SWAP2 SUB SWAP1 RETURN JUMPDEST PUSH2 0xA56 PUSH2 0x26B3 JUMP JUMPDEST STOP JUMPDEST PUSH2 0xA72 PUSH1 0x4 DUP1 CALLDATASIZE SUB DUP2 ADD SWAP1 PUSH2 0xA6D SWAP2 SWAP1 PUSH2 0x4251 JUMP JUMPDEST PUSH2 0x2965 JUMP JUMPDEST PUSH1 0x40 MLOAD PUSH2 0xA7F SWAP2 SWAP1 PUSH2 0x39E8 JUMP JUMPDEST PUSH1 0x40 MLOAD DUP1 SWAP2 SUB SWAP1 RETURN JUMPDEST PUSH2 0xAA2 PUSH1 0x4 DUP1 CALLDATASIZE SUB DUP2 ADD SWAP1 PUSH2 0xA9D SWAP2 SWAP1 PUSH2 0x3A2F JUMP JUMPDEST PUSH2 0x2A53 JUMP JUMPDEST PUSH1 0x40 MLOAD PUSH2 0xAB2 SWAP5 SWAP4 SWAP3 SWAP2 SWAP1 PUSH2 0x3C3E JUMP JUMPDEST PUSH1 0x40 MLOAD DUP1 SWAP2 SUB SWAP1 RETURN JUMPDEST PUSH2 0xAD5 PUSH1 0x4 DUP1 CALLDATASIZE SUB DUP2 ADD SWAP1 PUSH2 0xAD0 SWAP2 SWAP1 PUSH2 0x3BFE JUMP JUMPDEST PUSH2 0x2B93 JUMP JUMPDEST PUSH1 0x40 MLOAD PUSH2 0xAE2 SWAP2 SWAP1 PUSH2 0x39E8 JUMP JUMPDEST PUSH1 0x40 MLOAD DUP1 SWAP2 SUB SWAP1 RETURN JUMPDEST PUSH2 0xB05 PUSH1 0x4 DUP1 CALLDATASIZE SUB DUP2 ADD SWAP1 PUSH2 0xB00 SWAP2 SWAP1 PUSH2 0x430C JUMP JUMPDEST PUSH2 0x2C0D JUMP JUMPDEST STOP JUMPDEST PUSH2 0xB21 PUSH1 0x4 DUP1 CALLDATASIZE SUB DUP2 ADD SWAP1 PUSH2 0xB1C SWAP2 SWAP1 PUSH2 0x3FEB JUMP JUMPDEST PUSH2 0x2CA4 JUMP JUMPDEST STOP JUMPDEST PUSH2 0xB2B PUSH2 0x2CCC JUMP JUMPDEST PUSH1 0x40 MLOAD PUSH2 0xB38 SWAP2 SWAP1 PUSH2 0x39AD JUMP JUMPDEST PUSH1 0x40 MLOAD DUP1 SWAP2 SUB SWAP1 RETURN JUMPDEST PUSH2 0xB5B PUSH1 0x4 DUP1 CALLDATASIZE SUB DUP2 ADD SWAP1 PUSH2 0xB56 SWAP2 SWAP1 PUSH2 0x3FEB JUMP JUMPDEST PUSH2 0x2E06 JUMP JUMPDEST STOP JUMPDEST PUSH2 0xB65 PUSH2 0x2E2E JUMP JUMPDEST PUSH1 0x40 MLOAD PUSH2 0xB72 SWAP2 SWAP1 PUSH2 0x39E8 JUMP JUMPDEST PUSH1 0x40 MLOAD DUP1 SWAP2 SUB SWAP1 RETURN JUMPDEST PUSH2 0xB95 PUSH1 0x4 DUP1 CALLDATASIZE SUB DUP2 ADD SWAP1 PUSH2 0xB90 SWAP2 SWAP1 PUSH2 0x3A2F JUMP JUMPDEST PUSH2 0x2E34 JUMP JUMPDEST PUSH1 0x40 MLOAD PUSH2 0xBA5 SWAP5 SWAP4 SWAP3 SWAP2 SWAP1 PUSH2 0x3B74 JUMP JUMPDEST PUSH1 0x40 MLOAD DUP1 SWAP2 SUB SWAP1 RETURN JUMPDEST PUSH2 0xBC8 PUSH1 0x4 DUP1 CALLDATASIZE SUB DUP2 ADD SWAP1 PUSH2 0xBC3 SWAP2 SWAP1 PUSH2 0x3FEB JUMP JUMPDEST PUSH2 0x2EEC JUMP JUMPDEST PUSH1 0x40 MLOAD PUSH2 0xBD5 SWAP2 SWAP1 PUSH2 0x3DFE JUMP JUMPDEST PUSH1 0x40 MLOAD DUP1 SWAP2 SUB SWAP1 RETURN JUMPDEST PUSH2 0xBE6 PUSH2 0x2F7D JUMP JUMPDEST PUSH1 0x40 MLOAD PUSH2 0xBF3 SWAP2 SWAP1 PUSH2 0x39E8 JUMP JUMPDEST PUSH1 0x40 MLOAD DUP1 SWAP2 SUB SWAP1 RETURN JUMPDEST PUSH2 0xC16 PUSH1 0x4 DUP1 CALLDATASIZE SUB DUP2 ADD SWAP1 PUSH2 0xC11 SWAP2 SWAP1 PUSH2 0x4384 JUMP JUMPDEST PUSH2 0x2F83 JUMP JUMPDEST PUSH1 0x40 MLOAD PUSH2 0xC23 SWAP2 SWAP1 PUSH2 0x39E8 JUMP JUMPDEST PUSH1 0x40 MLOAD DUP1 SWAP2 SUB SWAP1 RETURN JUMPDEST PUSH2 0xC46 PUSH1 0x4 DUP1 CALLDATASIZE SUB DUP2 ADD SWAP1 PUSH2 0xC41 SWAP2 SWAP1 PUSH2 0x44ED JUMP JUMPDEST PUSH2 0x3048 JUMP JUMPDEST PUSH1 0x40 MLOAD PUSH2 0xC53 SWAP2 SWAP1 PUSH2 0x39E8 JUMP JUMPDEST PUSH1 0x40 MLOAD DUP1 SWAP2 SUB SWAP1 RETURN JUMPDEST PUSH2 0xC76 PUSH1 0x4 DUP1 CALLDATASIZE SUB DUP2 ADD SWAP1 PUSH2 0xC71 SWAP2 SWAP1 PUSH2 0x3A2F JUMP JUMPDEST PUSH2 0x319D JUMP JUMPDEST PUSH1 0x40 MLOAD PUSH2 0xC83 SWAP2 SWAP1 PUSH2 0x3B52 JUMP JUMPDEST PUSH1 0x40 MLOAD DUP1 SWAP2 SUB SWAP1 RETURN JUMPDEST PUSH2 0xC94 PUSH2 0x3245 JUMP JUMPDEST PUSH1 0x40 MLOAD PUSH2 0xCA1 SWAP2 SWAP1 PUSH2 0x39E8 JUMP JUMPDEST PUSH1 0x40 MLOAD DUP1 SWAP2 SUB SWAP1 RETURN JUMPDEST PUSH2 0xCC4 PUSH1 0x4 DUP1 CALLDATASIZE SUB DUP2 ADD SWAP1 PUSH2 0xCBF SWAP2 SWAP1 PUSH2 0x45E8 JUMP JUMPDEST PUSH2 0x324B JUMP JUMPDEST PUSH1 0x40 MLOAD PUSH2 0xCD1 SWAP2 SWAP1 PUSH2 0x39E8 JUMP JUMPDEST PUSH1 0x40 MLOAD DUP1 SWAP2 SUB SWAP1 RETURN JUMPDEST PUSH2 0xCF4 PUSH1 0x4 DUP1 CALLDATASIZE SUB DUP2 ADD SWAP1 PUSH2 0xCEF SWAP2 SWAP1 PUSH2 0x3A2F JUMP JUMPDEST PUSH2 0x3339 JUMP JUMPDEST PUSH1 0x40 MLOAD PUSH2 0xD03 SWAP4 SWAP3 SWAP2 SWAP1 PUSH2 0x467F JUMP JUMPDEST PUSH1 0x40 MLOAD DUP1 SWAP2 SUB SWAP1 RETURN JUMPDEST PUSH1 0x60 PUSH1 0x0 PUSH1 0x2 SLOAD PUSH8 0xFFFFFFFFFFFFFFFF DUP2 GT ISZERO PUSH2 0xD2C JUMPI PUSH2 0xD2B PUSH2 0x36F8 JUMP JUMPDEST JUMPDEST PUSH1 0x40 MLOAD SWAP1 DUP1 DUP3 MSTORE DUP1 PUSH1 0x20 MUL PUSH1 0x20 ADD DUP3 ADD PUSH1 0x40 MSTORE DUP1 ISZERO PUSH2 0xD5F JUMPI DUP2 PUSH1 0x20 ADD JUMPDEST PUSH1 0x60 DUP2 MSTORE PUSH1 0x20 ADD SWAP1 PUSH1 0x1 SWAP1 SUB SWAP1 DUP2 PUSH2 0xD4A JUMPI SWAP1 POP JUMPDEST POP SWAP1 POP PUSH1 0x0 DUP1 PUSH1 0x0 SWAP1 POP JUMPDEST PUSH1 0x2 SLOAD DUP2 LT ISZERO PUSH2 0xE8B JUMPI DUP5 DUP1 MLOAD SWAP1 PUSH1 0x20 ADD KECCAK256 PUSH1 0xE PUSH1 0x0 DUP4 DUP2 MSTORE PUSH1 0x20 ADD SWAP1 DUP2 MSTORE PUSH1 0x20 ADD PUSH1 0x0 KECCAK256 PUSH1 0x0 ADD PUSH1 0x40 MLOAD PUSH2 0xD9F SWAP2 SWAP1 PUSH2 0x47C0 JUMP JUMPDEST PUSH1 0x40 MLOAD DUP1 SWAP2 SUB SWAP1 KECCAK256 SUB PUSH2 0xE78 JUMPI PUSH1 0xE PUSH1 0x0 DUP3 DUP2 MSTORE PUSH1 0x20 ADD SWAP1 DUP2 MSTORE PUSH1 0x20 ADD PUSH1 0x0 KECCAK256 PUSH1 0x1 ADD DUP1 SLOAD PUSH2 0xDCD SWAP1 PUSH2 0x46EC JUMP JUMPDEST DUP1 PUSH1 0x1F ADD PUSH1 0x20 DUP1 SWAP2 DIV MUL PUSH1 0x20 ADD PUSH1 0x40 MLOAD SWAP1 DUP2 ADD PUSH1 0x40 MSTORE DUP1 SWAP3 SWAP2 SWAP1 DUP2 DUP2 MSTORE PUSH1 0x20 ADD DUP3 DUP1 SLOAD PUSH2 0xDF9 SWAP1 PUSH2 0x46EC JUMP JUMPDEST DUP1 ISZERO PUSH2 0xE46 JUMPI DUP1 PUSH1 0x1F LT PUSH2 0xE1B JUMPI PUSH2 0x100 DUP1 DUP4 SLOAD DIV MUL DUP4 MSTORE SWAP2 PUSH1 0x20 ADD SWAP2 PUSH2 0xE46 JUMP JUMPDEST DUP3 ADD SWAP2 SWAP1 PUSH1 0x0 MSTORE PUSH1 0x20 PUSH1 0x0 KECCAK256 SWAP1 JUMPDEST DUP2 SLOAD DUP2 MSTORE SWAP1 PUSH1 0x1 ADD SWAP1 PUSH1 0x20 ADD DUP1 DUP4 GT PUSH2 0xE29 JUMPI DUP3 SWAP1 SUB PUSH1 0x1F AND DUP3 ADD SWAP2 JUMPDEST POP POP POP POP POP DUP4 DUP4 DUP2 MLOAD DUP2 LT PUSH2 0xE5E JUMPI PUSH2 0xE5D PUSH2 0x47D7 JUMP JUMPDEST JUMPDEST PUSH1 0x20 MUL PUSH1 0x20 ADD ADD DUP2 SWAP1 MSTORE POP DUP2 DUP1 PUSH2 0xE74 SWAP1 PUSH2 0x4835 JUMP JUMPDEST SWAP3 POP POP JUMPDEST DUP1 DUP1 PUSH2 0xE83 SWAP1 PUSH2 0x4835 JUMP JUMPDEST SWAP2 POP POP PUSH2 0xD6A JUMP JUMPDEST POP DUP2 SWAP3 POP POP POP SWAP2 SWAP1 POP JUMP JUMPDEST PUSH1 0x4 SLOAD DUP2 JUMP JUMPDEST PUSH1 0x60 PUSH1 0x0 PUSH1 0x3 SLOAD PUSH8 0xFFFFFFFFFFFFFFFF DUP2 GT ISZERO PUSH2 0xEBC JUMPI PUSH2 0xEBB PUSH2 0x36F8 JUMP JUMPDEST JUMPDEST PUSH1 0x40 MLOAD SWAP1 DUP1 DUP3 MSTORE DUP1 PUSH1 0x20 MUL PUSH1 0x20 ADD DUP3 ADD PUSH1 0x40 MSTORE DUP1 ISZERO PUSH2 0xEEF JUMPI DUP2 PUSH1 0x20 ADD JUMPDEST PUSH1 0x60 DUP2 MSTORE PUSH1 0x20 ADD SWAP1 PUSH1 0x1 SWAP1 SUB SWAP1 DUP2 PUSH2 0xEDA JUMPI SWAP1 POP JUMPDEST POP SWAP1 POP PUSH1 0x0 DUP1 PUSH1 0x0 SWAP1 POP JUMPDEST PUSH1 0x3 SLOAD DUP2 LT ISZERO PUSH2 0x1000 JUMPI DUP5 PUSH1 0xF PUSH1 0x0 DUP4 DUP2 MSTORE PUSH1 0x20 ADD SWAP1 DUP2 MSTORE PUSH1 0x20 ADD PUSH1 0x0 KECCAK256 PUSH1 0x0 ADD SLOAD SUB PUSH2 0xFDF JUMPI PUSH1 0xF PUSH1 0x0 DUP3 DUP2 MSTORE PUSH1 0x20 ADD SWAP1 DUP2 MSTORE PUSH1 0x20 ADD PUSH1 0x0 KECCAK256 PUSH1 0x1 ADD DUP1 SLOAD PUSH2 0xF42 SWAP1 PUSH2 0x46EC JUMP JUMPDEST DUP1 PUSH1 0x1F ADD PUSH1 0x20 DUP1 SWAP2 DIV MUL PUSH1 0x20 ADD PUSH1 0x40 MLOAD SWAP1 DUP2 ADD PUSH1 0x40 MSTORE DUP1 SWAP3 SWAP2 SWAP1 DUP2 DUP2 MSTORE PUSH1 0x20 ADD DUP3 DUP1 SLOAD PUSH2 0xF6E SWAP1 PUSH2 0x46EC JUMP JUMPDEST DUP1 ISZERO PUSH2 0xFBB JUMPI DUP1 PUSH1 0x1F LT PUSH2 0xF90 JUMPI PUSH2 0x100 DUP1 DUP4 SLOAD DIV MUL DUP4 MSTORE SWAP2 PUSH1 0x20 ADD SWAP2 PUSH2 0xFBB JUMP JUMPDEST DUP3 ADD SWAP2 SWAP1 PUSH1 0x0 MSTORE PUSH1 0x20 PUSH1 0x0 KECCAK256 SWAP1 JUMPDEST DUP2 SLOAD DUP2 MSTORE SWAP1 PUSH1 0x1 ADD SWAP1 PUSH1 0x20 ADD DUP1 DUP4 GT PUSH2 0xF9E JUMPI DUP3 SWAP1 SUB PUSH1 0x1F AND DUP3 ADD SWAP2 JUMPDEST POP POP POP POP POP DUP4 DUP4 DUP2 MLOAD DUP2 LT PUSH2 0xFD3 JUMPI PUSH2 0xFD2 PUSH2 0x47D7 JUMP JUMPDEST JUMPDEST PUSH1 0x20 MUL PUSH1 0x20 ADD ADD DUP2 SWAP1 MSTORE POP JUMPDEST DUP2 DUP1 PUSH2 0xFEA SWAP1 PUSH2 0x4835 JUMP JUMPDEST SWAP3 POP POP DUP1 DUP1 PUSH2 0xFF8 SWAP1 PUSH2 0x4835 JUMP JUMPDEST SWAP2 POP POP PUSH2 0xEFA JUMP JUMPDEST POP DUP2 SWAP3 POP POP POP SWAP2 SWAP1 POP JUMP JUMPDEST PUSH1 0x2 SLOAD DUP2 JUMP JUMPDEST PUSH1 0x5 SLOAD DUP2 JUMP JUMPDEST PUSH1 0x14 PUSH1 0x20 MSTORE DUP1 PUSH1 0x0 MSTORE PUSH1 0x40 PUSH1 0x0 KECCAK256 PUSH1 0x0 SWAP2 POP SWAP1 POP DUP1 PUSH1 0x0 ADD SLOAD SWAP1 DUP1 PUSH1 0x1 ADD SLOAD SWAP1 DUP1 PUSH1 0x2 ADD SLOAD SWAP1 POP DUP4 JUMP JUMPDEST PUSH1 0x0 DUP1 PUSH1 0x0 SWAP1 POP JUMPDEST PUSH1 0x2 SLOAD DUP2 LT ISZERO PUSH2 0x10A7 JUMPI DUP3 DUP1 MLOAD SWAP1 PUSH1 0x20 ADD KECCAK256 PUSH1 0xE PUSH1 0x0 DUP4 DUP2 MSTORE PUSH1 0x20 ADD SWAP1 DUP2 MSTORE PUSH1 0x20 ADD PUSH1 0x0 KECCAK256 PUSH1 0x1 ADD PUSH1 0x40 MLOAD PUSH2 0x107E SWAP2 SWAP1 PUSH2 0x47C0 JUMP JUMPDEST PUSH1 0x40 MLOAD DUP1 SWAP2 SUB SWAP1 KECCAK256 SUB PUSH2 0x1094 JUMPI DUP1 SWAP2 POP POP PUSH2 0x10AD JUMP JUMPDEST DUP1 DUP1 PUSH2 0x109F SWAP1 PUSH2 0x4835 JUMP JUMPDEST SWAP2 POP POP PUSH2 0x1049 JUMP JUMPDEST POP PUSH1 0x0 SWAP1 POP JUMPDEST SWAP2 SWAP1 POP JUMP JUMPDEST PUSH1 0x10 PUSH1 0x20 MSTORE DUP1 PUSH1 0x0 MSTORE PUSH1 0x40 PUSH1 0x0 KECCAK256 PUSH1 0x0 SWAP2 POP SWAP1 POP SLOAD DUP2 JUMP JUMPDEST PUSH1 0xB PUSH1 0x20 MSTORE DUP1 PUSH1 0x0 MSTORE PUSH1 0x40 PUSH1 0x0 KECCAK256 PUSH1 0x0 SWAP2 POP SWAP1 POP DUP1 PUSH1 0x0 ADD DUP1 SLOAD PUSH2 0x10ED SWAP1 PUSH2 0x46EC JUMP JUMPDEST DUP1 PUSH1 0x1F ADD PUSH1 0x20 DUP1 SWAP2 DIV MUL PUSH1 0x20 ADD PUSH1 0x40 MLOAD SWAP1 DUP2 ADD PUSH1 0x40 MSTORE DUP1 SWAP3 SWAP2 SWAP1 DUP2 DUP2 MSTORE PUSH1 0x20 ADD DUP3 DUP1 SLOAD PUSH2 0x1119 SWAP1 PUSH2 0x46EC JUMP JUMPDEST DUP1 ISZERO PUSH2 0x1166 JUMPI DUP1 PUSH1 0x1F LT PUSH2 0x113B JUMPI PUSH2 0x100 DUP1 DUP4 SLOAD DIV MUL DUP4 MSTORE SWAP2 PUSH1 0x20 ADD SWAP2 PUSH2 0x1166 JUMP JUMPDEST DUP3 ADD SWAP2 SWAP1 PUSH1 0x0 MSTORE PUSH1 0x20 PUSH1 0x0 KECCAK256 SWAP1 JUMPDEST DUP2 SLOAD DUP2 MSTORE SWAP1 PUSH1 0x1 ADD SWAP1 PUSH1 0x20 ADD DUP1 DUP4 GT PUSH2 0x1149 JUMPI DUP3 SWAP1 SUB PUSH1 0x1F AND DUP3 ADD SWAP2 JUMPDEST POP POP POP POP POP SWAP1 DUP1 PUSH1 0x1 ADD DUP1 SLOAD PUSH2 0x117B SWAP1 PUSH2 0x46EC JUMP JUMPDEST DUP1 PUSH1 0x1F ADD PUSH1 0x20 DUP1 SWAP2 DIV MUL PUSH1 0x20 ADD PUSH1 0x40 MLOAD SWAP1 DUP2 ADD PUSH1 0x40 MSTORE DUP1 SWAP3 SWAP2 SWAP1 DUP2 DUP2 MSTORE PUSH1 0x20 ADD DUP3 DUP1 SLOAD PUSH2 0x11A7 SWAP1 PUSH2 0x46EC JUMP JUMPDEST DUP1 ISZERO PUSH2 0x11F4 JUMPI DUP1 PUSH1 0x1F LT PUSH2 0x11C9 JUMPI PUSH2 0x100 DUP1 DUP4 SLOAD DIV MUL DUP4 MSTORE SWAP2 PUSH1 0x20 ADD SWAP2 PUSH2 0x11F4 JUMP JUMPDEST DUP3 ADD SWAP2 SWAP1 PUSH1 0x0 MSTORE PUSH1 0x20 PUSH1 0x0 KECCAK256 SWAP1 JUMPDEST DUP2 SLOAD DUP2 MSTORE SWAP1 PUSH1 0x1 ADD SWAP1 PUSH1 0x20 ADD DUP1 DUP4 GT PUSH2 0x11D7 JUMPI DUP3 SWAP1 SUB PUSH1 0x1F AND DUP3 ADD SWAP2 JUMPDEST POP POP POP POP POP SWAP1 DUP1 PUSH1 0x2 ADD DUP1 SLOAD PUSH2 0x1209 SWAP1 PUSH2 0x46EC JUMP JUMPDEST DUP1 PUSH1 0x1F ADD PUSH1 0x20 DUP1 SWAP2 DIV MUL PUSH1 0x20 ADD PUSH1 0x40 MLOAD SWAP1 DUP2 ADD PUSH1 0x40 MSTORE DUP1 SWAP3 SWAP2 SWAP1 DUP2 DUP2 MSTORE PUSH1 0x20 ADD DUP3 DUP1 SLOAD PUSH2 0x1235 SWAP1 PUSH2 0x46EC JUMP JUMPDEST DUP1 ISZERO PUSH2 0x1282 JUMPI DUP1 PUSH1 0x1F LT PUSH2 0x1257 JUMPI PUSH2 0x100 DUP1 DUP4 SLOAD DIV MUL DUP4 MSTORE SWAP2 PUSH1 0x20 ADD SWAP2 PUSH2 0x1282 JUMP JUMPDEST DUP3 ADD SWAP2 SWAP1 PUSH1 0x0 MSTORE PUSH1 0x20 PUSH1 0x0 KECCAK256 SWAP1 JUMPDEST DUP2 SLOAD DUP2 MSTORE SWAP1 PUSH1 0x1 ADD SWAP1 PUSH1 0x20 ADD DUP1 DUP4 GT PUSH2 0x1265 JUMPI DUP3 SWAP1 SUB PUSH1 0x1F AND DUP3 ADD SWAP2 JUMPDEST POP POP POP POP POP SWAP1 POP DUP4 JUMP JUMPDEST PUSH1 0x60 PUSH1 0x0 PUSH1 0x2 SLOAD PUSH8 0xFFFFFFFFFFFFFFFF DUP2 GT ISZERO PUSH2 0x12AC JUMPI PUSH2 0x12AB PUSH2 0x36F8 JUMP JUMPDEST JUMPDEST PUSH1 0x40 MLOAD SWAP1 DUP1 DUP3 MSTORE DUP1 PUSH1 0x20 MUL PUSH1 0x20 ADD DUP3 ADD PUSH1 0x40 MSTORE DUP1 ISZERO PUSH2 0x12DF JUMPI DUP2 PUSH1 0x20 ADD JUMPDEST PUSH1 0x60 DUP2 MSTORE PUSH1 0x20 ADD SWAP1 PUSH1 0x1 SWAP1 SUB SWAP1 DUP2 PUSH2 0x12CA JUMPI SWAP1 POP JUMPDEST POP SWAP1 POP PUSH1 0x0 JUMPDEST PUSH1 0x2 SLOAD DUP2 LT ISZERO PUSH2 0x13BF JUMPI PUSH1 0xE PUSH1 0x0 DUP3 DUP2 MSTORE PUSH1 0x20 ADD SWAP1 DUP2 MSTORE PUSH1 0x20 ADD PUSH1 0x0 KECCAK256 PUSH1 0x1 ADD DUP1 SLOAD PUSH2 0x1310 SWAP1 PUSH2 0x46EC JUMP JUMPDEST DUP1 PUSH1 0x1F ADD PUSH1 0x20 DUP1 SWAP2 DIV MUL PUSH1 0x20 ADD PUSH1 0x40 MLOAD SWAP1 DUP2 ADD PUSH1 0x40 MSTORE DUP1 SWAP3 SWAP2 SWAP1 DUP2 DUP2 MSTORE PUSH1 0x20 ADD DUP3 DUP1 SLOAD PUSH2 0x133C SWAP1 PUSH2 0x46EC JUMP JUMPDEST DUP1 ISZERO PUSH2 0x1389 JUMPI DUP1 PUSH1 0x1F LT PUSH2 0x135E JUMPI PUSH2 0x100 DUP1 DUP4 SLOAD DIV MUL DUP4 MSTORE SWAP2 PUSH1 0x20 ADD SWAP2 PUSH2 0x1389 JUMP JUMPDEST DUP3 ADD SWAP2 SWAP1 PUSH1 0x0 MSTORE PUSH1 0x20 PUSH1 0x0 KECCAK256 SWAP1 JUMPDEST DUP2 SLOAD DUP2 MSTORE SWAP1 PUSH1 0x1 ADD SWAP1 PUSH1 0x20 ADD DUP1 DUP4 GT PUSH2 0x136C JUMPI DUP3 SWAP1 SUB PUSH1 0x1F AND DUP3 ADD SWAP2 JUMPDEST POP POP POP POP POP DUP3 DUP3 DUP2 MLOAD DUP2 LT PUSH2 0x13A1 JUMPI PUSH2 0x13A0 PUSH2 0x47D7 JUMP JUMPDEST JUMPDEST PUSH1 0x20 MUL PUSH1 0x20 ADD ADD DUP2 SWAP1 MSTORE POP DUP1 DUP1 PUSH2 0x13B7 SWAP1 PUSH2 0x4835 JUMP JUMPDEST SWAP2 POP POP PUSH2 0x12E5 JUMP JUMPDEST POP DUP1 SWAP2 POP POP SWAP1 JUMP JUMPDEST PUSH1 0xD PUSH1 0x20 MSTORE DUP1 PUSH1 0x0 MSTORE PUSH1 0x40 PUSH1 0x0 KECCAK256 PUSH1 0x0 SWAP2 POP SWAP1 POP DUP1 PUSH1 0x0 ADD SLOAD SWAP1 DUP1 PUSH1 0x1 ADD SLOAD SWAP1 POP DUP3 JUMP JUMPDEST PUSH1 0x60 PUSH1 0x0 PUSH1 0xF PUSH1 0x0 DUP5 DUP2 MSTORE PUSH1 0x20 ADD SWAP1 DUP2 MSTORE PUSH1 0x20 ADD PUSH1 0x0 KECCAK256 PUSH1 0x0 ADD SLOAD SWAP1 POP PUSH1 0x0 PUSH1 0xE PUSH1 0x0 DUP4 DUP2 MSTORE PUSH1 0x20 ADD SWAP1 DUP2 MSTORE PUSH1 0x20 ADD PUSH1 0x0 KECCAK256 PUSH1 0x0 ADD DUP1 SLOAD PUSH2 0x142B SWAP1 PUSH2 0x46EC JUMP JUMPDEST DUP1 PUSH1 0x1F ADD PUSH1 0x20 DUP1 SWAP2 DIV MUL PUSH1 0x20 ADD PUSH1 0x40 MLOAD SWAP1 DUP2 ADD PUSH1 0x40 MSTORE DUP1 SWAP3 SWAP2 SWAP1 DUP2 DUP2 MSTORE PUSH1 0x20 ADD DUP3 DUP1 SLOAD PUSH2 0x1457 SWAP1 PUSH2 0x46EC JUMP JUMPDEST DUP1 ISZERO PUSH2 0x14A4 JUMPI DUP1 PUSH1 0x1F LT PUSH2 0x1479 JUMPI PUSH2 0x100 DUP1 DUP4 SLOAD DIV MUL DUP4 MSTORE SWAP2 PUSH1 0x20 ADD SWAP2 PUSH2 0x14A4 JUMP JUMPDEST DUP3 ADD SWAP2 SWAP1 PUSH1 0x0 MSTORE PUSH1 0x20 PUSH1 0x0 KECCAK256 SWAP1 JUMPDEST DUP2 SLOAD DUP2 MSTORE SWAP1 PUSH1 0x1 ADD SWAP1 PUSH1 0x20 ADD DUP1 DUP4 GT PUSH2 0x1487 JUMPI DUP3 SWAP1 SUB PUSH1 0x1F AND DUP3 ADD SWAP2 JUMPDEST POP POP POP POP POP SWAP1 POP DUP1 SWAP3 POP POP POP SWAP2 SWAP1 POP JUMP JUMPDEST PUSH1 0x17 PUSH1 0x20 MSTORE DUP1 PUSH1 0x0 MSTORE PUSH1 0x40 PUSH1 0x0 KECCAK256 PUSH1 0x0 SWAP2 POP SWAP1 POP DUP1 PUSH1 0x0 ADD SLOAD SWAP1 DUP1 PUSH1 0x1 ADD SLOAD SWAP1 DUP1 PUSH1 0x2 ADD SLOAD SWAP1 DUP1 PUSH1 0x3 ADD DUP1 SLOAD PUSH2 0x14EA SWAP1 PUSH2 0x46EC JUMP JUMPDEST DUP1 PUSH1 0x1F ADD PUSH1 0x20 DUP1 SWAP2 DIV MUL PUSH1 0x20 ADD PUSH1 0x40 MLOAD SWAP1 DUP2 ADD PUSH1 0x40 MSTORE DUP1 SWAP3 SWAP2 SWAP1 DUP2 DUP2 MSTORE PUSH1 0x20 ADD DUP3 DUP1 SLOAD PUSH2 0x1516 SWAP1 PUSH2 0x46EC JUMP JUMPDEST DUP1 ISZERO PUSH2 0x1563 JUMPI DUP1 PUSH1 0x1F LT PUSH2 0x1538 JUMPI PUSH2 0x100 DUP1 DUP4 SLOAD DIV MUL DUP4 MSTORE SWAP2 PUSH1 0x20 ADD SWAP2 PUSH2 0x1563 JUMP JUMPDEST DUP3 ADD SWAP2 SWAP1 PUSH1 0x0 MSTORE PUSH1 0x20 PUSH1 0x0 KECCAK256 SWAP1 JUMPDEST DUP2 SLOAD DUP2 MSTORE SWAP1 PUSH1 0x1 ADD SWAP1 PUSH1 0x20 ADD DUP1 DUP4 GT PUSH2 0x1546 JUMPI DUP3 SWAP1 SUB PUSH1 0x1F AND DUP3 ADD SWAP2 JUMPDEST POP POP POP POP POP SWAP1 POP DUP5 JUMP JUMPDEST PUSH1 0xF PUSH1 0x20 MSTORE DUP1 PUSH1 0x0 MSTORE PUSH1 0x40 PUSH1 0x0 KECCAK256 PUSH1 0x0 SWAP2 POP SWAP1 POP DUP1 PUSH1 0x0 ADD SLOAD SWAP1 DUP1 PUSH1 0x1 ADD DUP1 SLOAD PUSH2 0x1596 SWAP1 PUSH2 0x46EC JUMP JUMPDEST DUP1 PUSH1 0x1F ADD PUSH1 0x20 DUP1 SWAP2 DIV MUL PUSH1 0x20 ADD PUSH1 0x40 MLOAD SWAP1 DUP2 ADD PUSH1 0x40 MSTORE DUP1 SWAP3 SWAP2 SWAP1 DUP2 DUP2 MSTORE PUSH1 0x20 ADD DUP3 DUP1 SLOAD PUSH2 0x15C2 SWAP1 PUSH2 0x46EC JUMP JUMPDEST DUP1 ISZERO PUSH2 0x160F JUMPI DUP1 PUSH1 0x1F LT PUSH2 0x15E4 JUMPI PUSH2 0x100 DUP1 DUP4 SLOAD DIV MUL DUP4 MSTORE SWAP2 PUSH1 0x20 ADD SWAP2 PUSH2 0x160F JUMP JUMPDEST DUP3 ADD SWAP2 SWAP1 PUSH1 0x0 MSTORE PUSH1 0x20 PUSH1 0x0 KECCAK256 SWAP1 JUMPDEST DUP2 SLOAD DUP2 MSTORE SWAP1 PUSH1 0x1 ADD SWAP1 PUSH1 0x20 ADD DUP1 DUP4 GT PUSH2 0x15F2 JUMPI DUP3 SWAP1 SUB PUSH1 0x1F AND DUP3 ADD SWAP2 JUMPDEST POP POP POP POP POP SWAP1 DUP1 PUSH1 0x2 ADD SLOAD SWAP1 POP DUP4 JUMP JUMPDEST PUSH1 0x6 SLOAD DUP2 JUMP JUMPDEST PUSH1 0x60 PUSH1 0x0 PUSH1 0x6 SLOAD PUSH8 0xFFFFFFFFFFFFFFFF DUP2 GT ISZERO PUSH2 0x1645 JUMPI PUSH2 0x1644 PUSH2 0x36F8 JUMP JUMPDEST JUMPDEST PUSH1 0x40 MLOAD SWAP1 DUP1 DUP3 MSTORE DUP1 PUSH1 0x20 MUL PUSH1 0x20 ADD DUP3 ADD PUSH1 0x40 MSTORE DUP1 ISZERO PUSH2 0x1678 JUMPI DUP2 PUSH1 0x20 ADD JUMPDEST PUSH1 0x60 DUP2 MSTORE PUSH1 0x20 ADD SWAP1 PUSH1 0x1 SWAP1 SUB SWAP1 DUP2 PUSH2 0x1663 JUMPI SWAP1 POP JUMPDEST POP SWAP1 POP PUSH1 0x0 DUP1 PUSH1 0x0 SWAP1 POP JUMPDEST PUSH1 0x6 SLOAD DUP2 LT ISZERO PUSH2 0x172B JUMPI DUP6 PUSH1 0x14 PUSH1 0x0 DUP4 DUP2 MSTORE PUSH1 0x20 ADD SWAP1 DUP2 MSTORE PUSH1 0x20 ADD PUSH1 0x0 KECCAK256 PUSH1 0x0 ADD SLOAD EQ DUP1 ISZERO PUSH2 0x16C7 JUMPI POP DUP5 PUSH1 0x14 PUSH1 0x0 DUP4 DUP2 MSTORE PUSH1 0x20 ADD SWAP1 DUP2 MSTORE PUSH1 0x20 ADD PUSH1 0x0 KECCAK256 PUSH1 0x1 ADD SLOAD EQ JUMPDEST ISZERO PUSH2 0x170A JUMPI PUSH2 0x16EB PUSH1 0x14 PUSH1 0x0 DUP4 DUP2 MSTORE PUSH1 0x20 ADD SWAP1 DUP2 MSTORE PUSH1 0x20 ADD PUSH1 0x0 KECCAK256 PUSH1 0x2 ADD SLOAD PUSH2 0x33EB JUMP JUMPDEST DUP4 DUP4 DUP2 MLOAD DUP2 LT PUSH2 0x16FE JUMPI PUSH2 0x16FD PUSH2 0x47D7 JUMP JUMPDEST JUMPDEST PUSH1 0x20 MUL PUSH1 0x20 ADD ADD DUP2 SWAP1 MSTORE POP JUMPDEST DUP2 DUP1 PUSH2 0x1715 SWAP1 PUSH2 0x4835 JUMP JUMPDEST SWAP3 POP POP DUP1 DUP1 PUSH2 0x1723 SWAP1 PUSH2 0x4835 JUMP JUMPDEST SWAP2 POP POP PUSH2 0x1683 JUMP JUMPDEST POP DUP2 SWAP3 POP POP POP SWAP3 SWAP2 POP POP JUMP JUMPDEST PUSH1 0x11 PUSH1 0x20 MSTORE DUP1 PUSH1 0x0 MSTORE PUSH1 0x40 PUSH1 0x0 KECCAK256 PUSH1 0x0 SWAP2 POP SWAP1 POP DUP1 PUSH1 0x0 ADD SLOAD SWAP1 DUP1 PUSH1 0x1 ADD SLOAD SWAP1 DUP1 PUSH1 0x2 ADD DUP1 SLOAD PUSH2 0x1766 SWAP1 PUSH2 0x46EC JUMP JUMPDEST DUP1 PUSH1 0x1F ADD PUSH1 0x20 DUP1 SWAP2 DIV MUL PUSH1 0x20 ADD PUSH1 0x40 MLOAD SWAP1 DUP2 ADD PUSH1 0x40 MSTORE DUP1 SWAP3 SWAP2 SWAP1 DUP2 DUP2 MSTORE PUSH1 0x20 ADD DUP3 DUP1 SLOAD PUSH2 0x1792 SWAP1 PUSH2 0x46EC JUMP JUMPDEST DUP1 ISZERO PUSH2 0x17DF JUMPI DUP1 PUSH1 0x1F LT PUSH2 0x17B4 JUMPI PUSH2 0x100 DUP1 DUP4 SLOAD DIV MUL DUP4 MSTORE SWAP2 PUSH1 0x20 ADD SWAP2 PUSH2 0x17DF JUMP JUMPDEST DUP3 ADD SWAP2 SWAP1 PUSH1 0x0 MSTORE PUSH1 0x20 PUSH1 0x0 KECCAK256 SWAP1 JUMPDEST DUP2 SLOAD DUP2 MSTORE SWAP1 PUSH1 0x1 ADD SWAP1 PUSH1 0x20 ADD DUP1 DUP4 GT PUSH2 0x17C2 JUMPI DUP3 SWAP1 SUB PUSH1 0x1F AND DUP3 ADD SWAP2 JUMPDEST POP POP POP POP POP SWAP1 DUP1 PUSH1 0x3 ADD DUP1 SLOAD PUSH2 0x17F4 SWAP1 PUSH2 0x46EC JUMP JUMPDEST DUP1 PUSH1 0x1F ADD PUSH1 0x20 DUP1 SWAP2 DIV MUL PUSH1 0x20 ADD PUSH1 0x40 MLOAD SWAP1 DUP2 ADD PUSH1 0x40 MSTORE DUP1 SWAP3 SWAP2 SWAP1 DUP2 DUP2 MSTORE PUSH1 0x20 ADD DUP3 DUP1 SLOAD PUSH2 0x1820 SWAP1 PUSH2 0x46EC JUMP JUMPDEST DUP1 ISZERO PUSH2 0x186D JUMPI DUP1 PUSH1 0x1F LT PUSH2 0x1842 JUMPI PUSH2 0x100 DUP1 DUP4 SLOAD DIV MUL DUP4 MSTORE SWAP2 PUSH1 0x20 ADD SWAP2 PUSH2 0x186D JUMP JUMPDEST DUP3 ADD SWAP2 SWAP1 PUSH1 0x0 MSTORE PUSH1 0x20 PUSH1 0x0 KECCAK256 SWAP1 JUMPDEST DUP2 SLOAD DUP2 MSTORE SWAP1 PUSH1 0x1 ADD SWAP1 PUSH1 0x20 ADD DUP1 DUP4 GT PUSH2 0x1850 JUMPI DUP3 SWAP1 SUB PUSH1 0x1F AND DUP3 ADD SWAP2 JUMPDEST POP POP POP POP POP SWAP1 POP DUP5 JUMP JUMPDEST PUSH1 0x0 ISZERO ISZERO PUSH1 0x18 PUSH1 0x0 DUP6 DUP2 MSTORE PUSH1 0x20 ADD SWAP1 DUP2 MSTORE PUSH1 0x20 ADD PUSH1 0x0 KECCAK256 PUSH1 0x1 ADD PUSH1 0x5 SWAP1 SLOAD SWAP1 PUSH2 0x100 EXP SWAP1 DIV PUSH1 0xFF AND ISZERO ISZERO SUB PUSH2 0x18E6 JUMPI PUSH2 0x18E5 DUP3 PUSH1 0x40 MLOAD DUP1 PUSH1 0x40 ADD PUSH1 0x40 MSTORE DUP1 PUSH1 0x5 DUP2 MSTORE PUSH1 0x20 ADD PUSH32 0x6261646765000000000000000000000000000000000000000000000000000000 DUP2 MSTORE POP PUSH2 0x2C0D JUMP JUMPDEST JUMPDEST PUSH2 0x1925 DUP2 PUSH1 0x40 MLOAD DUP1 PUSH1 0x40 ADD PUSH1 0x40 MSTORE DUP1 PUSH1 0x8 DUP2 MSTORE PUSH1 0x20 ADD PUSH32 0x646F6E6174696F6E000000000000000000000000000000000000000000000000 DUP2 MSTORE POP PUSH2 0x2C0D JUMP JUMPDEST PUSH1 0x1 PUSH1 0x18 PUSH1 0x0 DUP6 DUP2 MSTORE PUSH1 0x20 ADD SWAP1 DUP2 MSTORE PUSH1 0x20 ADD PUSH1 0x0 KECCAK256 PUSH1 0x1 ADD PUSH1 0x5 PUSH2 0x100 EXP DUP2 SLOAD DUP2 PUSH1 0xFF MUL NOT AND SWAP1 DUP4 ISZERO ISZERO MUL OR SWAP1 SSTORE POP DUP4 PUSH1 0xF PUSH1 0x0 DUP8 DUP2 MSTORE PUSH1 0x20 ADD SWAP1 DUP2 MSTORE PUSH1 0x20 ADD PUSH1 0x0 KECCAK256 PUSH1 0x2 ADD PUSH1 0x0 DUP3 DUP3 SLOAD PUSH2 0x197A SWAP2 SWAP1 PUSH2 0x487D JUMP JUMPDEST SWAP3 POP POP DUP2 SWAP1 SSTORE POP DUP4 PUSH1 0x10 PUSH1 0x0 DUP6 DUP2 MSTORE PUSH1 0x20 ADD SWAP1 DUP2 MSTORE PUSH1 0x20 ADD PUSH1 0x0 KECCAK256 PUSH1 0x0 DUP3 DUP3 SLOAD PUSH2 0x19A4 SWAP2 SWAP1 PUSH2 0x487D JUMP JUMPDEST SWAP3 POP POP DUP2 SWAP1 SSTORE POP PUSH1 0x40 MLOAD DUP1 PUSH1 0x60 ADD PUSH1 0x40 MSTORE DUP1 DUP7 DUP2 MSTORE PUSH1 0x20 ADD DUP5 DUP2 MSTORE PUSH1 0x20 ADD DUP6 DUP2 MSTORE POP PUSH1 0x12 PUSH1 0x0 PUSH1 0x1 SLOAD DUP2 MSTORE PUSH1 0x20 ADD SWAP1 DUP2 MSTORE PUSH1 0x20 ADD PUSH1 0x0 KECCAK256 PUSH1 0x0 DUP3 ADD MLOAD DUP2 PUSH1 0x0 ADD SSTORE PUSH1 0x20 DUP3 ADD MLOAD DUP2 PUSH1 0x1 ADD SSTORE PUSH1 0x40 DUP3 ADD MLOAD DUP2 PUSH1 0x2 ADD SSTORE SWAP1 POP POP PUSH1 0x1 PUSH1 0x0 DUP2 SLOAD DUP1 SWAP3 SWAP2 SWAP1 PUSH2 0x1A0F SWAP1 PUSH2 0x4835 JUMP JUMPDEST SWAP2 SWAP1 POP SSTORE POP POP POP POP POP POP JUMP JUMPDEST PUSH1 0x60 PUSH1 0xB PUSH1 0x0 DUP4 DUP2 MSTORE PUSH1 0x20 ADD SWAP1 DUP2 MSTORE PUSH1 0x20 ADD PUSH1 0x0 KECCAK256 PUSH1 0x1 ADD DUP1 SLOAD PUSH2 0x1A3E SWAP1 PUSH2 0x46EC JUMP JUMPDEST DUP1 PUSH1 0x1F ADD PUSH1 0x20 DUP1 SWAP2 DIV MUL PUSH1 0x20 ADD PUSH1 0x40 MLOAD SWAP1 DUP2 ADD PUSH1 0x40 MSTORE DUP1 SWAP3 SWAP2 SWAP1 DUP2 DUP2 MSTORE PUSH1 0x20 ADD DUP3 DUP1 SLOAD PUSH2 0x1A6A SWAP1 PUSH2 0x46EC JUMP JUMPDEST DUP1 ISZERO PUSH2 0x1AB7 JUMPI DUP1 PUSH1 0x1F LT PUSH2 0x1A8C JUMPI PUSH2 0x100 DUP1 DUP4 SLOAD DIV MUL DUP4 MSTORE SWAP2 PUSH1 0x20 ADD SWAP2 PUSH2 0x1AB7 JUMP JUMPDEST DUP3 ADD SWAP2 SWAP1 PUSH1 0x0 MSTORE PUSH1 0x20 PUSH1 0x0 KECCAK256 SWAP1 JUMPDEST DUP2 SLOAD DUP2 MSTORE SWAP1 PUSH1 0x1 ADD SWAP1 PUSH1 0x20 ADD DUP1 DUP4 GT PUSH2 0x1A9A JUMPI DUP3 SWAP1 SUB PUSH1 0x1F AND DUP3 ADD SWAP2 JUMPDEST POP POP POP POP POP SWAP1 POP SWAP2 SWAP1 POP JUMP JUMPDEST PUSH1 0xC PUSH1 0x20 MSTORE DUP1 PUSH1 0x0 MSTORE PUSH1 0x40 PUSH1 0x0 KECCAK256 PUSH1 0x0 SWAP2 POP SWAP1 POP DUP1 SLOAD PUSH2 0x1AE2 SWAP1 PUSH2 0x46EC JUMP JUMPDEST DUP1 PUSH1 0x1F ADD PUSH1 0x20 DUP1 SWAP2 DIV MUL PUSH1 0x20 ADD PUSH1 0x40 MLOAD SWAP1 DUP2 ADD PUSH1 0x40 MSTORE DUP1 SWAP3 SWAP2 SWAP1 DUP2 DUP2 MSTORE PUSH1 0x20 ADD DUP3 DUP1 SLOAD PUSH2 0x1B0E SWAP1 PUSH2 0x46EC JUMP JUMPDEST DUP1 ISZERO PUSH2 0x1B5B JUMPI DUP1 PUSH1 0x1F LT PUSH2 0x1B30 JUMPI PUSH2 0x100 DUP1 DUP4 SLOAD DIV MUL DUP4 MSTORE SWAP2 PUSH1 0x20 ADD SWAP2 PUSH2 0x1B5B JUMP JUMPDEST DUP3 ADD SWAP2 SWAP1 PUSH1 0x0 MSTORE PUSH1 0x20 PUSH1 0x0 KECCAK256 SWAP1 JUMPDEST DUP2 SLOAD DUP2 MSTORE SWAP1 PUSH1 0x1 ADD SWAP1 PUSH1 0x20 ADD DUP1 DUP4 GT PUSH2 0x1B3E JUMPI DUP3 SWAP1 SUB PUSH1 0x1F AND DUP3 ADD SWAP2 JUMPDEST POP POP POP POP POP DUP2 JUMP JUMPDEST PUSH1 0x0 PUSH1 0x1 PUSH1 0x18 PUSH1 0x0 DUP5 DUP2 MSTORE PUSH1 0x20 ADD SWAP1 DUP2 MSTORE PUSH1 0x20 ADD PUSH1 0x0 KECCAK256 PUSH1 0x1 ADD PUSH1 0x6 PUSH2 0x100 EXP DUP2 SLOAD DUP2 PUSH1 0xFF MUL NOT AND SWAP1 DUP4 ISZERO ISZERO MUL OR SWAP1 SSTORE POP PUSH1 0x40 MLOAD DUP1 PUSH1 0x80 ADD PUSH1 0x40 MSTORE DUP1 PUSH1 0x7 SLOAD DUP2 MSTORE PUSH1 0x20 ADD DUP7 DUP2 MSTORE PUSH1 0x20 ADD DUP6 DUP2 MSTORE PUSH1 0x20 ADD DUP5 DUP2 MSTORE POP PUSH1 0x15 PUSH1 0x0 PUSH1 0x7 SLOAD DUP2 MSTORE PUSH1 0x20 ADD SWAP1 DUP2 MSTORE PUSH1 0x20 ADD PUSH1 0x0 KECCAK256 PUSH1 0x0 DUP3 ADD MLOAD DUP2 PUSH1 0x0 ADD SSTORE PUSH1 0x20 DUP3 ADD MLOAD DUP2 PUSH1 0x1 ADD SSTORE PUSH1 0x40 DUP3 ADD MLOAD DUP2 PUSH1 0x2 ADD SWAP1 DUP2 PUSH2 0x1BF5 SWAP2 SWAP1 PUSH2 0x4A5D JUMP JUMPDEST POP PUSH1 0x60 DUP3 ADD MLOAD DUP2 PUSH1 0x3 ADD SWAP1 DUP2 PUSH2 0x1C0B SWAP2 SWAP1 PUSH2 0x4A5D JUMP JUMPDEST POP SWAP1 POP POP PUSH1 0x7 PUSH1 0x0 DUP2 SLOAD DUP1 SWAP3 SWAP2 SWAP1 PUSH2 0x1C22 SWAP1 PUSH2 0x4835 JUMP JUMPDEST SWAP2 SWAP1 POP SSTORE POP PUSH1 0x7 SLOAD SWAP1 POP SWAP5 SWAP4 POP POP POP POP JUMP JUMPDEST PUSH1 0x0 DUP1 PUSH1 0x0 SWAP1 POP JUMPDEST PUSH1 0x4 SLOAD DUP2 LT ISZERO PUSH2 0x1CA2 JUMPI DUP3 PUSH1 0xD PUSH1 0x0 DUP4 DUP2 MSTORE PUSH1 0x20 ADD SWAP1 DUP2 MSTORE PUSH1 0x20 ADD PUSH1 0x0 KECCAK256 PUSH1 0x1 ADD SLOAD EQ DUP1 ISZERO PUSH2 0x1C80 JUMPI POP DUP4 PUSH1 0xD PUSH1 0x0 DUP4 DUP2 MSTORE PUSH1 0x20 ADD SWAP1 DUP2 MSTORE PUSH1 0x20 ADD PUSH1 0x0 KECCAK256 PUSH1 0x0 ADD SLOAD EQ JUMPDEST ISZERO PUSH2 0x1C8F JUMPI PUSH1 0x1 SWAP2 POP POP PUSH2 0x1CA8 JUMP JUMPDEST DUP1 DUP1 PUSH2 0x1C9A SWAP1 PUSH2 0x4835 JUMP JUMPDEST SWAP2 POP POP PUSH2 0x1C3C JUMP JUMPDEST POP PUSH1 0x0 SWAP1 POP JUMPDEST SWAP3 SWAP2 POP POP JUMP JUMPDEST PUSH1 0x0 SLOAD DUP2 JUMP JUMPDEST PUSH1 0xE PUSH1 0x20 MSTORE DUP1 PUSH1 0x0 MSTORE PUSH1 0x40 PUSH1 0x0 KECCAK256 PUSH1 0x0 SWAP2 POP SWAP1 POP DUP1 PUSH1 0x0 ADD DUP1 SLOAD PUSH2 0x1CD7 SWAP1 PUSH2 0x46EC JUMP JUMPDEST DUP1 PUSH1 0x1F ADD PUSH1 0x20 DUP1 SWAP2 DIV MUL PUSH1 0x20 ADD PUSH1 0x40 MLOAD SWAP1 DUP2 ADD PUSH1 0x40 MSTORE DUP1 SWAP3 SWAP2 SWAP1 DUP2 DUP2 MSTORE PUSH1 0x20 ADD DUP3 DUP1 SLOAD PUSH2 0x1D03 SWAP1 PUSH2 0x46EC JUMP JUMPDEST DUP1 ISZERO PUSH2 0x1D50 JUMPI DUP1 PUSH1 0x1F LT PUSH2 0x1D25 JUMPI PUSH2 0x100 DUP1 DUP4 SLOAD DIV MUL DUP4 MSTORE SWAP2 PUSH1 0x20 ADD SWAP2 PUSH2 0x1D50 JUMP JUMPDEST DUP3 ADD SWAP2 SWAP1 PUSH1 0x0 MSTORE PUSH1 0x20 PUSH1 0x0 KECCAK256 SWAP1 JUMPDEST DUP2 SLOAD DUP2 MSTORE SWAP1 PUSH1 0x1 ADD SWAP1 PUSH1 0x20 ADD DUP1 DUP4 GT PUSH2 0x1D33 JUMPI DUP3 SWAP1 SUB PUSH1 0x1F AND DUP3 ADD SWAP2 JUMPDEST POP POP POP POP POP SWAP1 DUP1 PUSH1 0x1 ADD DUP1 SLOAD PUSH2 0x1D65 SWAP1 PUSH2 0x46EC JUMP JUMPDEST DUP1 PUSH1 0x1F ADD PUSH1 0x20 DUP1 SWAP2 DIV MUL PUSH1 0x20 ADD PUSH1 0x40 MLOAD SWAP1 DUP2 ADD PUSH1 0x40 MSTORE DUP1 SWAP3 SWAP2 SWAP1 DUP2 DUP2 MSTORE PUSH1 0x20 ADD DUP3 DUP1 SLOAD PUSH2 0x1D91 SWAP1 PUSH2 0x46EC JUMP JUMPDEST DUP1 ISZERO PUSH2 0x1DDE JUMPI DUP1 PUSH1 0x1F LT PUSH2 0x1DB3 JUMPI PUSH2 0x100 DUP1 DUP4 SLOAD DIV MUL DUP4 MSTORE SWAP2 PUSH1 0x20 ADD SWAP2 PUSH2 0x1DDE JUMP JUMPDEST DUP3 ADD SWAP2 SWAP1 PUSH1 0x0 MSTORE PUSH1 0x20 PUSH1 0x0 KECCAK256 SWAP1 JUMPDEST DUP2 SLOAD DUP2 MSTORE SWAP1 PUSH1 0x1 ADD SWAP1 PUSH1 0x20 ADD DUP1 DUP4 GT PUSH2 0x1DC1 JUMPI DUP3 SWAP1 SUB PUSH1 0x1F AND DUP3 ADD SWAP2 JUMPDEST POP POP POP POP POP SWAP1 POP DUP3 JUMP JUMPDEST PUSH1 0x12 PUSH1 0x20 MSTORE DUP1 PUSH1 0x0 MSTORE PUSH1 0x40 PUSH1 0x0 KECCAK256 PUSH1 0x0 SWAP2 POP SWAP1 POP DUP1 PUSH1 0x0 ADD SLOAD SWAP1 DUP1 PUSH1 0x1 ADD SLOAD SWAP1 DUP1 PUSH1 0x2 ADD SLOAD SWAP1 POP DUP4 JUMP JUMPDEST PUSH1 0x60 PUSH1 0x0 PUSH1 0x7 SLOAD PUSH8 0xFFFFFFFFFFFFFFFF DUP2 GT ISZERO PUSH2 0x1E32 JUMPI PUSH2 0x1E31 PUSH2 0x36F8 JUMP JUMPDEST JUMPDEST PUSH1 0x40 MLOAD SWAP1 DUP1 DUP3 MSTORE DUP1 PUSH1 0x20 MUL PUSH1 0x20 ADD DUP3 ADD PUSH1 0x40 MSTORE DUP1 ISZERO PUSH2 0x1E60 JUMPI DUP2 PUSH1 0x20 ADD PUSH1 0x20 DUP3 MUL DUP1 CALLDATASIZE DUP4 CALLDATACOPY DUP1 DUP3 ADD SWAP2 POP POP SWAP1 POP JUMPDEST POP SWAP1 POP PUSH1 0x0 DUP1 PUSH1 0x0 SWAP1 POP JUMPDEST PUSH1 0x7 SLOAD DUP2 LT ISZERO PUSH2 0x1EEA JUMPI DUP5 PUSH1 0x15 PUSH1 0x0 DUP4 DUP2 MSTORE PUSH1 0x20 ADD SWAP1 DUP2 MSTORE PUSH1 0x20 ADD PUSH1 0x0 KECCAK256 PUSH1 0x1 ADD SLOAD SUB PUSH2 0x1ED7 JUMPI PUSH1 0x15 PUSH1 0x0 DUP3 DUP2 MSTORE PUSH1 0x20 ADD SWAP1 DUP2 MSTORE PUSH1 0x20 ADD PUSH1 0x0 KECCAK256 PUSH1 0x0 ADD SLOAD DUP4 DUP4 DUP2 MLOAD DUP2 LT PUSH2 0x1EBC JUMPI PUSH2 0x1EBB PUSH2 0x47D7 JUMP JUMPDEST JUMPDEST PUSH1 0x20 MUL PUSH1 0x20 ADD ADD DUP2 DUP2 MSTORE POP POP DUP2 DUP1 PUSH2 0x1ED3 SWAP1 PUSH2 0x4835 JUMP JUMPDEST SWAP3 POP POP JUMPDEST DUP1 DUP1 PUSH2 0x1EE2 SWAP1 PUSH2 0x4835 JUMP JUMPDEST SWAP2 POP POP PUSH2 0x1E6B JUMP JUMPDEST POP DUP2 SWAP3 POP POP POP SWAP2 SWAP1 POP JUMP JUMPDEST PUSH1 0x60 PUSH1 0x0 PUSH1 0x9 SLOAD PUSH8 0xFFFFFFFFFFFFFFFF DUP2 GT ISZERO PUSH2 0x1F15 JUMPI PUSH2 0x1F14 PUSH2 0x36F8 JUMP JUMPDEST JUMPDEST PUSH1 0x40 MLOAD SWAP1 DUP1 DUP3 MSTORE DUP1 PUSH1 0x20 MUL PUSH1 0x20 ADD DUP3 ADD PUSH1 0x40 MSTORE DUP1 ISZERO PUSH2 0x1F43 JUMPI DUP2 PUSH1 0x20 ADD PUSH1 0x20 DUP3 MUL DUP1 CALLDATASIZE DUP4 CALLDATACOPY DUP1 DUP3 ADD SWAP2 POP POP SWAP1 POP JUMPDEST POP SWAP1 POP PUSH1 0x0 DUP1 PUSH1 0x0 SWAP1 POP JUMPDEST PUSH1 0x9 SLOAD DUP2 LT ISZERO PUSH2 0x1FCD JUMPI DUP5 PUSH1 0x17 PUSH1 0x0 DUP4 DUP2 MSTORE PUSH1 0x20 ADD SWAP1 DUP2 MSTORE PUSH1 0x20 ADD PUSH1 0x0 KECCAK256 PUSH1 0x1 ADD SLOAD SUB PUSH2 0x1FBA JUMPI PUSH1 0x17 PUSH1 0x0 DUP3 DUP2 MSTORE PUSH1 0x20 ADD SWAP1 DUP2 MSTORE PUSH1 0x20 ADD PUSH1 0x0 KECCAK256 PUSH1 0x0 ADD SLOAD DUP4 DUP4 DUP2 MLOAD DUP2 LT PUSH2 0x1F9F JUMPI PUSH2 0x1F9E PUSH2 0x47D7 JUMP JUMPDEST JUMPDEST PUSH1 0x20 MUL PUSH1 0x20 ADD ADD DUP2 DUP2 MSTORE POP POP DUP2 DUP1 PUSH2 0x1FB6 SWAP1 PUSH2 0x4835 JUMP JUMPDEST SWAP3 POP POP JUMPDEST DUP1 DUP1 PUSH2 0x1FC5 SWAP1 PUSH2 0x4835 JUMP JUMPDEST SWAP2 POP POP PUSH2 0x1F4E JUMP JUMPDEST POP DUP2 SWAP3 POP POP POP SWAP2 SWAP1 POP JUMP JUMPDEST PUSH1 0x40 MLOAD DUP1 PUSH1 0x40 ADD PUSH1 0x40 MSTORE DUP1 PUSH2 0x270F DUP2 MSTORE PUSH1 0x20 ADD PUSH2 0x270F DUP2 MSTORE POP PUSH1 0xD PUSH1 0x0 DUP4 DUP2 MSTORE PUSH1 0x20 ADD SWAP1 DUP2 MSTORE PUSH1 0x20 ADD PUSH1 0x0 KECCAK256 PUSH1 0x0 DUP3 ADD MLOAD DUP2 PUSH1 0x0 ADD SSTORE PUSH1 0x20 DUP3 ADD MLOAD DUP2 PUSH1 0x1 ADD SSTORE SWAP1 POP POP POP JUMP JUMPDEST PUSH1 0x0 PUSH1 0x40 MLOAD DUP1 PUSH1 0x60 ADD PUSH1 0x40 MSTORE DUP1 DUP7 DUP2 MSTORE PUSH1 0x20 ADD DUP6 DUP2 MSTORE PUSH1 0x20 ADD PUSH1 0x40 MLOAD DUP1 PUSH1 0x40 ADD PUSH1 0x40 MSTORE DUP1 PUSH1 0x5 DUP2 MSTORE PUSH1 0x20 ADD PUSH32 0x46616C7365000000000000000000000000000000000000000000000000000000 DUP2 MSTORE POP DUP2 MSTORE POP PUSH1 0xB PUSH1 0x0 DUP1 SLOAD DUP2 MSTORE PUSH1 0x20 ADD SWAP1 DUP2 MSTORE PUSH1 0x20 ADD PUSH1 0x0 KECCAK256 PUSH1 0x0 DUP3 ADD MLOAD DUP2 PUSH1 0x0 ADD SWAP1 DUP2 PUSH2 0x2099 SWAP2 SWAP1 PUSH2 0x4A5D JUMP JUMPDEST POP PUSH1 0x20 DUP3 ADD MLOAD DUP2 PUSH1 0x1 ADD SWAP1 DUP2 PUSH2 0x20AF SWAP2 SWAP1 PUSH2 0x4A5D JUMP JUMPDEST POP PUSH1 0x40 DUP3 ADD MLOAD DUP2 PUSH1 0x2 ADD SWAP1 DUP2 PUSH2 0x20C5 SWAP2 SWAP1 PUSH2 0x4A5D JUMP JUMPDEST POP SWAP1 POP POP DUP3 PUSH1 0xC PUSH1 0x0 DUP1 SLOAD DUP2 MSTORE PUSH1 0x20 ADD SWAP1 DUP2 MSTORE PUSH1 0x20 ADD PUSH1 0x0 KECCAK256 SWAP1 DUP2 PUSH2 0x20EA SWAP2 SWAP1 PUSH2 0x4A5D JUMP JUMPDEST POP PUSH1 0x1 PUSH1 0x18 PUSH1 0x0 DUP5 DUP2 MSTORE PUSH1 0x20 ADD SWAP1 DUP2 MSTORE PUSH1 0x20 ADD PUSH1 0x0 KECCAK256 PUSH1 0x1 ADD PUSH1 0x0 PUSH2 0x100 EXP DUP2 SLOAD DUP2 PUSH1 0xFF MUL NOT AND SWAP1 DUP4 ISZERO ISZERO MUL OR SWAP1 SSTORE POP PUSH1 0x0 DUP1 DUP2 SLOAD DUP1 SWAP3 SWAP2 SWAP1 PUSH2 0x212C SWAP1 PUSH2 0x4835 JUMP JUMPDEST SWAP2 SWAP1 POP SSTORE POP PUSH1 0x0 SLOAD SWAP1 POP SWAP5 SWAP4 POP POP POP POP JUMP JUMPDEST DUP1 PUSH1 0xC PUSH1 0x0 DUP5 DUP2 MSTORE PUSH1 0x20 ADD SWAP1 DUP2 MSTORE PUSH1 0x20 ADD PUSH1 0x0 KECCAK256 SWAP1 DUP2 PUSH2 0x215E SWAP2 SWAP1 PUSH2 0x4A5D JUMP JUMPDEST POP POP POP JUMP JUMPDEST DUP2 PUSH1 0xB PUSH1 0x0 DUP6 DUP2 MSTORE PUSH1 0x20 ADD SWAP1 DUP2 MSTORE PUSH1 0x20 ADD PUSH1 0x0 KECCAK256 PUSH1 0x0 ADD SWAP1 DUP2 PUSH2 0x2186 SWAP2 SWAP1 PUSH2 0x4A5D JUMP JUMPDEST POP DUP1 PUSH1 0xB PUSH1 0x0 DUP6 DUP2 MSTORE PUSH1 0x20 ADD SWAP1 DUP2 MSTORE PUSH1 0x20 ADD PUSH1 0x0 KECCAK256 PUSH1 0x1 ADD SWAP1 DUP2 PUSH2 0x21AA SWAP2 SWAP1 PUSH2 0x4A5D JUMP JUMPDEST POP POP POP POP JUMP JUMPDEST PUSH1 0xA SLOAD DUP2 JUMP JUMPDEST PUSH1 0x1 PUSH1 0x18 PUSH1 0x0 DUP5 DUP2 MSTORE PUSH1 0x20 ADD SWAP1 DUP2 MSTORE PUSH1 0x20 ADD PUSH1 0x0 KECCAK256 PUSH1 0x1 ADD PUSH1 0x1 PUSH2 0x100 EXP DUP2 SLOAD DUP2 PUSH1 0xFF MUL NOT AND SWAP1 DUP4 ISZERO ISZERO MUL OR SWAP1 SSTORE POP PUSH1 0x40 MLOAD DUP1 PUSH1 0x40 ADD PUSH1 0x40 MSTORE DUP1 DUP5 DUP2 MSTORE PUSH1 0x20 ADD DUP4 DUP2 MSTORE POP PUSH1 0xD PUSH1 0x0 PUSH1 0x4 SLOAD DUP2 MSTORE PUSH1 0x20 ADD SWAP1 DUP2 MSTORE PUSH1 0x20 ADD PUSH1 0x0 KECCAK256 PUSH1 0x0 DUP3 ADD MLOAD DUP2 PUSH1 0x0 ADD SSTORE PUSH1 0x20 DUP3 ADD MLOAD DUP2 PUSH1 0x1 ADD SSTORE SWAP1 POP POP PUSH1 0x4 PUSH1 0x0 DUP2 SLOAD DUP1 SWAP3 SWAP2 SWAP1 PUSH2 0x2239 SWAP1 PUSH2 0x4835 JUMP JUMPDEST SWAP2 SWAP1 POP SSTORE POP PUSH2 0x227D DUP2 PUSH1 0x40 MLOAD DUP1 PUSH1 0x40 ADD PUSH1 0x40 MSTORE DUP1 PUSH1 0x4 DUP2 MSTORE PUSH1 0x20 ADD PUSH32 0x6A6F696E00000000000000000000000000000000000000000000000000000000 DUP2 MSTORE POP PUSH2 0x2C0D JUMP JUMPDEST POP POP POP JUMP JUMPDEST PUSH1 0x60 PUSH1 0xF PUSH1 0x0 DUP4 DUP2 MSTORE PUSH1 0x20 ADD SWAP1 DUP2 MSTORE PUSH1 0x20 ADD PUSH1 0x0 KECCAK256 PUSH1 0x1 ADD DUP1 SLOAD PUSH2 0x22A5 SWAP1 PUSH2 0x46EC JUMP JUMPDEST DUP1 PUSH1 0x1F ADD PUSH1 0x20 DUP1 SWAP2 DIV MUL PUSH1 0x20 ADD PUSH1 0x40 MLOAD SWAP1 DUP2 ADD PUSH1 0x40 MSTORE DUP1 SWAP3 SWAP2 SWAP1 DUP2 DUP2 MSTORE PUSH1 0x20 ADD DUP3 DUP1 SLOAD PUSH2 0x22D1 SWAP1 PUSH2 0x46EC JUMP JUMPDEST DUP1 ISZERO PUSH2 0x231E JUMPI DUP1 PUSH1 0x1F LT PUSH2 0x22F3 JUMPI PUSH2 0x100 DUP1 DUP4 SLOAD DIV MUL DUP4 MSTORE SWAP2 PUSH1 0x20 ADD SWAP2 PUSH2 0x231E JUMP JUMPDEST DUP3 ADD SWAP2 SWAP1 PUSH1 0x0 MSTORE PUSH1 0x20 PUSH1 0x0 KECCAK256 SWAP1 JUMPDEST DUP2 SLOAD DUP2 MSTORE SWAP1 PUSH1 0x1 ADD SWAP1 PUSH1 0x20 ADD DUP1 DUP4 GT PUSH2 0x2301 JUMPI DUP3 SWAP1 SUB PUSH1 0x1F AND DUP3 ADD SWAP2 JUMPDEST POP POP POP POP POP SWAP1 POP SWAP2 SWAP1 POP JUMP JUMPDEST PUSH1 0x7 SLOAD DUP2 JUMP JUMPDEST PUSH1 0x0 PUSH1 0x40 MLOAD DUP1 PUSH1 0x80 ADD PUSH1 0x40 MSTORE DUP1 DUP7 DUP2 MSTORE PUSH1 0x20 ADD DUP6 DUP2 MSTORE PUSH1 0x20 ADD DUP5 DUP2 MSTORE PUSH1 0x20 ADD DUP4 DUP2 MSTORE POP PUSH1 0x16 PUSH1 0x0 PUSH1 0x8 SLOAD DUP2 MSTORE PUSH1 0x20 ADD SWAP1 DUP2 MSTORE PUSH1 0x20 ADD PUSH1 0x0 KECCAK256 PUSH1 0x0 DUP3 ADD MLOAD DUP2 PUSH1 0x0 ADD SSTORE PUSH1 0x20 DUP3 ADD MLOAD DUP2 PUSH1 0x1 ADD SSTORE PUSH1 0x40 DUP3 ADD MLOAD DUP2 PUSH1 0x2 ADD SSTORE PUSH1 0x60 DUP3 ADD MLOAD DUP2 PUSH1 0x3 ADD SWAP1 DUP2 PUSH2 0x239B SWAP2 SWAP1 PUSH2 0x4A5D JUMP JUMPDEST POP SWAP1 POP POP PUSH1 0x8 PUSH1 0x0 DUP2 SLOAD DUP1 SWAP3 SWAP2 SWAP1 PUSH2 0x23B2 SWAP1 PUSH2 0x4835 JUMP JUMPDEST SWAP2 SWAP1 POP SSTORE POP PUSH1 0x8 SLOAD SWAP1 POP SWAP5 SWAP4 POP POP POP POP JUMP JUMPDEST PUSH1 0x60 PUSH1 0x0 PUSH1 0x3 SLOAD PUSH8 0xFFFFFFFFFFFFFFFF DUP2 GT ISZERO PUSH2 0x23E4 JUMPI PUSH2 0x23E3 PUSH2 0x36F8 JUMP JUMPDEST JUMPDEST PUSH1 0x40 MLOAD SWAP1 DUP1 DUP3 MSTORE DUP1 PUSH1 0x20 MUL PUSH1 0x20 ADD DUP3 ADD PUSH1 0x40 MSTORE DUP1 ISZERO PUSH2 0x2417 JUMPI DUP2 PUSH1 0x20 ADD JUMPDEST PUSH1 0x60 DUP2 MSTORE PUSH1 0x20 ADD SWAP1 PUSH1 0x1 SWAP1 SUB SWAP1 DUP2 PUSH2 0x2402 JUMPI SWAP1 POP JUMPDEST POP SWAP1 POP PUSH1 0x0 JUMPDEST PUSH1 0x3 SLOAD DUP2 LT ISZERO PUSH2 0x24F7 JUMPI PUSH1 0xF PUSH1 0x0 DUP3 DUP2 MSTORE PUSH1 0x20 ADD SWAP1 DUP2 MSTORE PUSH1 0x20 ADD PUSH1 0x0 KECCAK256 PUSH1 0x1 ADD DUP1 SLOAD PUSH2 0x2448 SWAP1 PUSH2 0x46EC JUMP JUMPDEST DUP1 PUSH1 0x1F ADD PUSH1 0x20 DUP1 SWAP2 DIV MUL PUSH1 0x20 ADD PUSH1 0x40 MLOAD SWAP1 DUP2 ADD PUSH1 0x40 MSTORE DUP1 SWAP3 SWAP2 SWAP1 DUP2 DUP2 MSTORE PUSH1 0x20 ADD DUP3 DUP1 SLOAD PUSH2 0x2474 SWAP1 PUSH2 0x46EC JUMP JUMPDEST DUP1 ISZERO PUSH2 0x24C1 JUMPI DUP1 PUSH1 0x1F LT PUSH2 0x2496 JUMPI PUSH2 0x100 DUP1 DUP4 SLOAD DIV MUL DUP4 MSTORE SWAP2 PUSH1 0x20 ADD SWAP2 PUSH2 0x24C1 JUMP JUMPDEST DUP3 ADD SWAP2 SWAP1 PUSH1 0x0 MSTORE PUSH1 0x20 PUSH1 0x0 KECCAK256 SWAP1 JUMPDEST DUP2 SLOAD DUP2 MSTORE SWAP1 PUSH1 0x1 ADD SWAP1 PUSH1 0x20 ADD DUP1 DUP4 GT PUSH2 0x24A4 JUMPI DUP3 SWAP1 SUB PUSH1 0x1F AND DUP3 ADD SWAP2 JUMPDEST POP POP POP POP POP DUP3 DUP3 DUP2 MLOAD DUP2 LT PUSH2 0x24D9 JUMPI PUSH2 0x24D8 PUSH2 0x47D7 JUMP JUMPDEST JUMPDEST PUSH1 0x20 MUL PUSH1 0x20 ADD ADD DUP2 SWAP1 MSTORE POP DUP1 DUP1 PUSH2 0x24EF SWAP1 PUSH2 0x4835 JUMP JUMPDEST SWAP2 POP POP PUSH2 0x241D JUMP JUMPDEST POP DUP1 SWAP2 POP POP SWAP1 JUMP JUMPDEST PUSH1 0x0 DUP1 PUSH1 0x0 SWAP1 POP JUMPDEST PUSH1 0x3 SLOAD DUP2 LT ISZERO PUSH2 0x2565 JUMPI DUP3 DUP1 MLOAD SWAP1 PUSH1 0x20 ADD KECCAK256 PUSH1 0xF PUSH1 0x0 DUP4 DUP2 MSTORE PUSH1 0x20 ADD SWAP1 DUP2 MSTORE PUSH1 0x20 ADD PUSH1 0x0 KECCAK256 PUSH1 0x1 ADD PUSH1 0x40 MLOAD PUSH2 0x253C SWAP2 SWAP1 PUSH2 0x47C0 JUMP JUMPDEST PUSH1 0x40 MLOAD DUP1 SWAP2 SUB SWAP1 KECCAK256 SUB PUSH2 0x2552 JUMPI DUP1 SWAP2 POP POP PUSH2 0x256B JUMP JUMPDEST DUP1 DUP1 PUSH2 0x255D SWAP1 PUSH2 0x4835 JUMP JUMPDEST SWAP2 POP POP PUSH2 0x2507 JUMP JUMPDEST POP PUSH1 0x0 SWAP1 POP JUMPDEST SWAP2 SWAP1 POP JUMP JUMPDEST PUSH1 0x18 PUSH1 0x20 MSTORE DUP1 PUSH1 0x0 MSTORE PUSH1 0x40 PUSH1 0x0 KECCAK256 PUSH1 0x0 SWAP2 POP SWAP1 POP DUP1 PUSH1 0x0 ADD SLOAD SWAP1 DUP1 PUSH1 0x1 ADD PUSH1 0x0 SWAP1 SLOAD SWAP1 PUSH2 0x100 EXP SWAP1 DIV PUSH1 0xFF AND SWAP1 DUP1 PUSH1 0x1 ADD PUSH1 0x1 SWAP1 SLOAD SWAP1 PUSH2 0x100 EXP SWAP1 DIV PUSH1 0xFF AND SWAP1 DUP1 PUSH1 0x1 ADD PUSH1 0x2 SWAP1 SLOAD SWAP1 PUSH2 0x100 EXP SWAP1 DIV PUSH1 0xFF AND SWAP1 DUP1 PUSH1 0x1 ADD PUSH1 0x3 SWAP1 SLOAD SWAP1 PUSH2 0x100 EXP SWAP1 DIV PUSH1 0xFF AND SWAP1 DUP1 PUSH1 0x1 ADD PUSH1 0x4 SWAP1 SLOAD SWAP1 PUSH2 0x100 EXP SWAP1 DIV PUSH1 0xFF AND SWAP1 DUP1 PUSH1 0x1 ADD PUSH1 0x5 SWAP1 SLOAD SWAP1 PUSH2 0x100 EXP SWAP1 DIV PUSH1 0xFF AND SWAP1 DUP1 PUSH1 0x1 ADD PUSH1 0x6 SWAP1 SLOAD SWAP1 PUSH2 0x100 EXP SWAP1 DIV PUSH1 0xFF AND SWAP1 DUP1 PUSH1 0x1 ADD PUSH1 0x7 SWAP1 SLOAD SWAP1 PUSH2 0x100 EXP SWAP1 DIV PUSH1 0xFF AND SWAP1 POP DUP10 JUMP JUMPDEST PUSH1 0x9 SLOAD DUP2 JUMP JUMPDEST PUSH1 0x0 DUP1 PUSH1 0x0 SWAP1 POP JUMPDEST PUSH1 0x3 SLOAD DUP2 LT ISZERO PUSH2 0x26A8 JUMPI DUP3 DUP1 MLOAD SWAP1 PUSH1 0x20 ADD KECCAK256 PUSH1 0xF PUSH1 0x0 DUP4 DUP2 MSTORE PUSH1 0x20 ADD SWAP1 DUP2 MSTORE PUSH1 0x20 ADD PUSH1 0x0 KECCAK256 PUSH1 0x1 ADD PUSH1 0x40 MLOAD PUSH2 0x2669 SWAP2 SWAP1 PUSH2 0x47C0 JUMP JUMPDEST PUSH1 0x40 MLOAD DUP1 SWAP2 SUB SWAP1 KECCAK256 SUB PUSH2 0x2695 JUMPI PUSH1 0xF PUSH1 0x0 DUP3 DUP2 MSTORE PUSH1 0x20 ADD SWAP1 DUP2 MSTORE PUSH1 0x20 ADD PUSH1 0x0 KECCAK256 PUSH1 0x0 ADD SLOAD SWAP2 POP POP PUSH2 0x26AE JUMP JUMPDEST DUP1 DUP1 PUSH2 0x26A0 SWAP1 PUSH2 0x4835 JUMP JUMPDEST SWAP2 POP POP PUSH2 0x2634 JUMP JUMPDEST POP PUSH1 0x0 SWAP1 POP JUMPDEST SWAP2 SWAP1 POP JUMP JUMPDEST PUSH1 0x0 JUMPDEST PUSH1 0x0 SLOAD DUP2 LT ISZERO PUSH2 0x2719 JUMPI PUSH1 0xB PUSH1 0x0 DUP3 DUP2 MSTORE PUSH1 0x20 ADD SWAP1 DUP2 MSTORE PUSH1 0x20 ADD PUSH1 0x0 KECCAK256 PUSH1 0x0 DUP1 DUP3 ADD PUSH1 0x0 PUSH2 0x26E4 SWAP2 SWAP1 PUSH2 0x366C JUMP JUMPDEST PUSH1 0x1 DUP3 ADD PUSH1 0x0 PUSH2 0x26F4 SWAP2 SWAP1 PUSH2 0x366C JUMP JUMPDEST PUSH1 0x2 DUP3 ADD PUSH1 0x0 PUSH2 0x2704 SWAP2 SWAP1 PUSH2 0x366C JUMP JUMPDEST POP POP DUP1 DUP1 PUSH2 0x2711 SWAP1 PUSH2 0x4835 JUMP JUMPDEST SWAP2 POP POP PUSH2 0x26B6 JUMP JUMPDEST POP PUSH1 0x0 JUMPDEST PUSH1 0x2 SLOAD DUP2 LT ISZERO PUSH2 0x2770 JUMPI PUSH1 0xE PUSH1 0x0 DUP3 DUP2 MSTORE PUSH1 0x20 ADD SWAP1 DUP2 MSTORE PUSH1 0x20 ADD PUSH1 0x0 KECCAK256 PUSH1 0x0 DUP1 DUP3 ADD PUSH1 0x0 PUSH2 0x274B SWAP2 SWAP1 PUSH2 0x366C JUMP JUMPDEST PUSH1 0x1 DUP3 ADD PUSH1 0x0 PUSH2 0x275B SWAP2 SWAP1 PUSH2 0x366C JUMP JUMPDEST POP POP DUP1 DUP1 PUSH2 0x2768 SWAP1 PUSH2 0x4835 JUMP JUMPDEST SWAP2 POP POP PUSH2 0x271D JUMP JUMPDEST POP PUSH1 0x0 JUMPDEST PUSH1 0x3 SLOAD DUP2 LT ISZERO PUSH2 0x27C7 JUMPI PUSH1 0xF PUSH1 0x0 DUP3 DUP2 MSTORE PUSH1 0x20 ADD SWAP1 DUP2 MSTORE PUSH1 0x20 ADD PUSH1 0x0 KECCAK256 PUSH1 0x0 DUP1 DUP3 ADD PUSH1 0x0 SWAP1 SSTORE PUSH1 0x1 DUP3 ADD PUSH1 0x0 PUSH2 0x27AA SWAP2 SWAP1 PUSH2 0x366C JUMP JUMPDEST PUSH1 0x2 DUP3 ADD PUSH1 0x0 SWAP1 SSTORE POP POP DUP1 DUP1 PUSH2 0x27BF SWAP1 PUSH2 0x4835 JUMP JUMPDEST SWAP2 POP POP PUSH2 0x2774 JUMP JUMPDEST POP PUSH1 0x0 JUMPDEST PUSH1 0x2 SLOAD DUP2 LT ISZERO PUSH2 0x281E JUMPI PUSH1 0x13 PUSH1 0x0 DUP3 DUP2 MSTORE PUSH1 0x20 ADD SWAP1 DUP2 MSTORE PUSH1 0x20 ADD PUSH1 0x0 KECCAK256 PUSH1 0x0 DUP1 DUP3 ADD PUSH1 0x0 SWAP1 SSTORE PUSH1 0x1 DUP3 ADD PUSH1 0x0 SWAP1 SSTORE PUSH1 0x2 DUP3 ADD PUSH1 0x0 PUSH2 0x2809 SWAP2 SWAP1 PUSH2 0x366C JUMP JUMPDEST POP POP DUP1 DUP1 PUSH2 0x2816 SWAP1 PUSH2 0x4835 JUMP JUMPDEST SWAP2 POP POP PUSH2 0x27CB JUMP JUMPDEST POP PUSH1 0x0 JUMPDEST PUSH1 0x7 SLOAD DUP2 LT ISZERO PUSH2 0x2885 JUMPI PUSH1 0x15 PUSH1 0x0 DUP3 DUP2 MSTORE PUSH1 0x20 ADD SWAP1 DUP2 MSTORE PUSH1 0x20 ADD PUSH1 0x0 KECCAK256 PUSH1 0x0 DUP1 DUP3 ADD PUSH1 0x0 SWAP1 SSTORE PUSH1 0x1 DUP3 ADD PUSH1 0x0 SWAP1 SSTORE PUSH1 0x2 DUP3 ADD PUSH1 0x0 PUSH2 0x2860 SWAP2 SWAP1 PUSH2 0x366C JUMP JUMPDEST PUSH1 0x3 DUP3 ADD PUSH1 0x0 PUSH2 0x2870 SWAP2 SWAP1 PUSH2 0x366C JUMP JUMPDEST POP POP DUP1 DUP1 PUSH2 0x287D SWAP1 PUSH2 0x4835 JUMP JUMPDEST SWAP2 POP POP PUSH2 0x2822 JUMP JUMPDEST POP PUSH1 0x0 JUMPDEST PUSH1 0x9 SLOAD DUP2 LT ISZERO PUSH2 0x28E4 JUMPI PUSH1 0x17 PUSH1 0x0 DUP3 DUP2 MSTORE PUSH1 0x20 ADD SWAP1 DUP2 MSTORE PUSH1 0x20 ADD PUSH1 0x0 KECCAK256 PUSH1 0x0 DUP1 DUP3 ADD PUSH1 0x0 SWAP1 SSTORE PUSH1 0x1 DUP3 ADD PUSH1 0x0 SWAP1 SSTORE PUSH1 0x2 DUP3 ADD PUSH1 0x0 SWAP1 SSTORE PUSH1 0x3 DUP3 ADD PUSH1 0x0 PUSH2 0x28CF SWAP2 SWAP1 PUSH2 0x366C JUMP JUMPDEST POP POP DUP1 DUP1 PUSH2 0x28DC SWAP1 PUSH2 0x4835 JUMP JUMPDEST SWAP2 POP POP PUSH2 0x2889 JUMP JUMPDEST POP PUSH1 0x0 JUMPDEST PUSH1 0x6 SLOAD DUP2 LT ISZERO PUSH2 0x2933 JUMPI PUSH1 0x14 PUSH1 0x0 DUP3 DUP2 MSTORE PUSH1 0x20 ADD SWAP1 DUP2 MSTORE PUSH1 0x20 ADD PUSH1 0x0 KECCAK256 PUSH1 0x0 DUP1 DUP3 ADD PUSH1 0x0 SWAP1 SSTORE PUSH1 0x1 DUP3 ADD PUSH1 0x0 SWAP1 SSTORE PUSH1 0x2 DUP3 ADD PUSH1 0x0 SWAP1 SSTORE POP POP DUP1 DUP1 PUSH2 0x292B SWAP1 PUSH2 0x4835 JUMP JUMPDEST SWAP2 POP POP PUSH2 0x28E8 JUMP JUMPDEST POP PUSH1 0x0 DUP1 DUP2 SWAP1 SSTORE POP PUSH1 0x0 PUSH1 0x2 DUP2 SWAP1 SSTORE POP PUSH1 0x0 PUSH1 0x3 DUP2 SWAP1 SSTORE POP PUSH1 0x0 PUSH1 0x7 DUP2 SWAP1 SSTORE POP PUSH1 0x0 PUSH1 0x9 DUP2 SWAP1 SSTORE POP PUSH1 0x0 PUSH1 0x6 DUP2 SWAP1 SSTORE POP JUMP JUMPDEST PUSH1 0x0 PUSH1 0x40 MLOAD DUP1 PUSH1 0x40 ADD PUSH1 0x40 MSTORE DUP1 DUP6 DUP2 MSTORE PUSH1 0x20 ADD DUP7 DUP2 MSTORE POP PUSH1 0xE PUSH1 0x0 PUSH1 0x2 SLOAD DUP2 MSTORE PUSH1 0x20 ADD SWAP1 DUP2 MSTORE PUSH1 0x20 ADD PUSH1 0x0 KECCAK256 PUSH1 0x0 DUP3 ADD MLOAD DUP2 PUSH1 0x0 ADD SWAP1 DUP2 PUSH2 0x29A6 SWAP2 SWAP1 PUSH2 0x4A5D JUMP JUMPDEST POP PUSH1 0x20 DUP3 ADD MLOAD DUP2 PUSH1 0x1 ADD SWAP1 DUP2 PUSH2 0x29BC SWAP2 SWAP1 PUSH2 0x4A5D JUMP JUMPDEST POP SWAP1 POP POP PUSH1 0x1 PUSH1 0x18 PUSH1 0x0 DUP6 DUP2 MSTORE PUSH1 0x20 ADD SWAP1 DUP2 MSTORE PUSH1 0x20 ADD PUSH1 0x0 KECCAK256 PUSH1 0x1 ADD PUSH1 0x2 PUSH2 0x100 EXP DUP2 SLOAD DUP2 PUSH1 0xFF MUL NOT AND SWAP1 DUP4 ISZERO ISZERO MUL OR SWAP1 SSTORE POP PUSH1 0x2 PUSH1 0x0 DUP2 SLOAD DUP1 SWAP3 SWAP2 SWAP1 PUSH2 0x2A02 SWAP1 PUSH2 0x4835 JUMP JUMPDEST SWAP2 SWAP1 POP SSTORE POP PUSH2 0x2A46 DUP3 PUSH1 0x40 MLOAD DUP1 PUSH1 0x40 ADD PUSH1 0x40 MSTORE DUP1 PUSH1 0x4 DUP2 MSTORE PUSH1 0x20 ADD PUSH32 0x676F616C00000000000000000000000000000000000000000000000000000000 DUP2 MSTORE POP PUSH2 0x2C0D JUMP JUMPDEST PUSH1 0x2 SLOAD SWAP1 POP SWAP5 SWAP4 POP POP POP POP JUMP JUMPDEST PUSH1 0x15 PUSH1 0x20 MSTORE DUP1 PUSH1 0x0 MSTORE PUSH1 0x40 PUSH1 0x0 KECCAK256 PUSH1 0x0 SWAP2 POP SWAP1 POP DUP1 PUSH1 0x0 ADD SLOAD SWAP1 DUP1 PUSH1 0x1 ADD SLOAD SWAP1 DUP1 PUSH1 0x2 ADD DUP1 SLOAD PUSH2 0x2A82 SWAP1 PUSH2 0x46EC JUMP JUMPDEST DUP1 PUSH1 0x1F ADD PUSH1 0x20 DUP1 SWAP2 DIV MUL PUSH1 0x20 ADD PUSH1 0x40 MLOAD SWAP1 DUP2 ADD PUSH1 0x40 MSTORE DUP1 SWAP3 SWAP2 SWAP1 DUP2 DUP2 MSTORE PUSH1 0x20 ADD DUP3 DUP1 SLOAD PUSH2 0x2AAE SWAP1 PUSH2 0x46EC JUMP JUMPDEST DUP1 ISZERO PUSH2 0x2AFB JUMPI DUP1 PUSH1 0x1F LT PUSH2 0x2AD0 JUMPI PUSH2 0x100 DUP1 DUP4 SLOAD DIV MUL DUP4 MSTORE SWAP2 PUSH1 0x20 ADD SWAP2 PUSH2 0x2AFB JUMP JUMPDEST DUP3 ADD SWAP2 SWAP1 PUSH1 0x0 MSTORE PUSH1 0x20 PUSH1 0x0 KECCAK256 SWAP1 JUMPDEST DUP2 SLOAD DUP2 MSTORE SWAP1 PUSH1 0x1 ADD SWAP1 PUSH1 0x20 ADD DUP1 DUP4 GT PUSH2 0x2ADE JUMPI DUP3 SWAP1 SUB PUSH1 0x1F AND DUP3 ADD SWAP2 JUMPDEST POP POP POP POP POP SWAP1 DUP1 PUSH1 0x3 ADD DUP1 SLOAD PUSH2 0x2B10 SWAP1 PUSH2 0x46EC JUMP JUMPDEST DUP1 PUSH1 0x1F ADD PUSH1 0x20 DUP1 SWAP2 DIV MUL PUSH1 0x20 ADD PUSH1 0x40 MLOAD SWAP1 DUP2 ADD PUSH1 0x40 MSTORE DUP1 SWAP3 SWAP2 SWAP1 DUP2 DUP2 MSTORE PUSH1 0x20 ADD DUP3 DUP1 SLOAD PUSH2 0x2B3C SWAP1 PUSH2 0x46EC JUMP JUMPDEST DUP1 ISZERO PUSH2 0x2B89 JUMPI DUP1 PUSH1 0x1F LT PUSH2 0x2B5E JUMPI PUSH2 0x100 DUP1 DUP4 SLOAD DIV MUL DUP4 MSTORE SWAP2 PUSH1 0x20 ADD SWAP2 PUSH2 0x2B89 JUMP JUMPDEST DUP3 ADD SWAP2 SWAP1 PUSH1 0x0 MSTORE PUSH1 0x20 PUSH1 0x0 KECCAK256 SWAP1 JUMPDEST DUP2 SLOAD DUP2 MSTORE SWAP1 PUSH1 0x1 ADD SWAP1 PUSH1 0x20 ADD DUP1 DUP4 GT PUSH2 0x2B6C JUMPI DUP3 SWAP1 SUB PUSH1 0x1F AND DUP3 ADD SWAP2 JUMPDEST POP POP POP POP POP SWAP1 POP DUP5 JUMP JUMPDEST PUSH1 0x0 DUP1 PUSH1 0x0 SWAP1 POP JUMPDEST PUSH1 0x4 SLOAD DUP2 LT ISZERO PUSH2 0x2C00 JUMPI DUP3 PUSH1 0xD PUSH1 0x0 DUP4 DUP2 MSTORE PUSH1 0x20 ADD SWAP1 DUP2 MSTORE PUSH1 0x20 ADD PUSH1 0x0 KECCAK256 PUSH1 0x1 ADD SLOAD EQ DUP1 ISZERO PUSH2 0x2BDF JUMPI POP DUP4 PUSH1 0xD PUSH1 0x0 DUP4 DUP2 MSTORE PUSH1 0x20 ADD SWAP1 DUP2 MSTORE PUSH1 0x20 ADD PUSH1 0x0 KECCAK256 PUSH1 0x0 ADD SLOAD EQ JUMPDEST ISZERO PUSH2 0x2BED JUMPI DUP1 SWAP2 POP POP PUSH2 0x2C07 JUMP JUMPDEST DUP1 DUP1 PUSH2 0x2BF8 SWAP1 PUSH2 0x4835 JUMP JUMPDEST SWAP2 POP POP PUSH2 0x2B9B JUMP JUMPDEST POP PUSH2 0x270F SWAP1 POP JUMPDEST SWAP3 SWAP2 POP POP JUMP JUMPDEST PUSH1 0x40 MLOAD DUP1 PUSH1 0x80 ADD PUSH1 0x40 MSTORE DUP1 PUSH1 0xA SLOAD DUP2 MSTORE PUSH1 0x20 ADD TIMESTAMP DUP2 MSTORE PUSH1 0x20 ADD DUP3 DUP2 MSTORE PUSH1 0x20 ADD DUP4 DUP2 MSTORE POP PUSH1 0x11 PUSH1 0x0 PUSH1 0xA SLOAD DUP2 MSTORE PUSH1 0x20 ADD SWAP1 DUP2 MSTORE PUSH1 0x20 ADD PUSH1 0x0 KECCAK256 PUSH1 0x0 DUP3 ADD MLOAD DUP2 PUSH1 0x0 ADD SSTORE PUSH1 0x20 DUP3 ADD MLOAD DUP2 PUSH1 0x1 ADD SSTORE PUSH1 0x40 DUP3 ADD MLOAD DUP2 PUSH1 0x2 ADD SWAP1 DUP2 PUSH2 0x2C6E SWAP2 SWAP1 PUSH2 0x4A5D JUMP JUMPDEST POP PUSH1 0x60 DUP3 ADD MLOAD DUP2 PUSH1 0x3 ADD SWAP1 DUP2 PUSH2 0x2C84 SWAP2 SWAP1 PUSH2 0x4A5D JUMP JUMPDEST POP SWAP1 POP POP PUSH1 0xA PUSH1 0x0 DUP2 SLOAD DUP1 SWAP3 SWAP2 SWAP1 PUSH2 0x2C9B SWAP1 PUSH2 0x4835 JUMP JUMPDEST SWAP2 SWAP1 POP SSTORE POP POP POP JUMP JUMPDEST DUP1 PUSH1 0xF PUSH1 0x0 DUP5 DUP2 MSTORE PUSH1 0x20 ADD SWAP1 DUP2 MSTORE PUSH1 0x20 ADD PUSH1 0x0 KECCAK256 PUSH1 0x1 ADD SWAP1 DUP2 PUSH2 0x2CC7 SWAP2 SWAP1 PUSH2 0x4A5D JUMP JUMPDEST POP POP POP JUMP JUMPDEST PUSH1 0x60 PUSH1 0x0 DUP1 SLOAD PUSH8 0xFFFFFFFFFFFFFFFF DUP2 GT ISZERO PUSH2 0x2CEB JUMPI PUSH2 0x2CEA PUSH2 0x36F8 JUMP JUMPDEST JUMPDEST PUSH1 0x40 MLOAD SWAP1 DUP1 DUP3 MSTORE DUP1 PUSH1 0x20 MUL PUSH1 0x20 ADD DUP3 ADD PUSH1 0x40 MSTORE DUP1 ISZERO PUSH2 0x2D1E JUMPI DUP2 PUSH1 0x20 ADD JUMPDEST PUSH1 0x60 DUP2 MSTORE PUSH1 0x20 ADD SWAP1 PUSH1 0x1 SWAP1 SUB SWAP1 DUP2 PUSH2 0x2D09 JUMPI SWAP1 POP JUMPDEST POP SWAP1 POP PUSH1 0x0 JUMPDEST PUSH1 0x0 SLOAD DUP2 LT ISZERO PUSH2 0x2DFE JUMPI PUSH1 0xB PUSH1 0x0 DUP3 DUP2 MSTORE PUSH1 0x20 ADD SWAP1 DUP2 MSTORE PUSH1 0x20 ADD PUSH1 0x0 KECCAK256 PUSH1 0x1 ADD DUP1 SLOAD PUSH2 0x2D4F SWAP1 PUSH2 0x46EC JUMP JUMPDEST DUP1 PUSH1 0x1F ADD PUSH1 0x20 DUP1 SWAP2 DIV MUL PUSH1 0x20 ADD PUSH1 0x40 MLOAD SWAP1 DUP2 ADD PUSH1 0x40 MSTORE DUP1 SWAP3 SWAP2 SWAP1 DUP2 DUP2 MSTORE PUSH1 0x20 ADD DUP3 DUP1 SLOAD PUSH2 0x2D7B SWAP1 PUSH2 0x46EC JUMP JUMPDEST DUP1 ISZERO PUSH2 0x2DC8 JUMPI DUP1 PUSH1 0x1F LT PUSH2 0x2D9D JUMPI PUSH2 0x100 DUP1 DUP4 SLOAD DIV MUL DUP4 MSTORE SWAP2 PUSH1 0x20 ADD SWAP2 PUSH2 0x2DC8 JUMP JUMPDEST DUP3 ADD SWAP2 SWAP1 PUSH1 0x0 MSTORE PUSH1 0x20 PUSH1 0x0 KECCAK256 SWAP1 JUMPDEST DUP2 SLOAD DUP2 MSTORE SWAP1 PUSH1 0x1 ADD SWAP1 PUSH1 0x20 ADD DUP1 DUP4 GT PUSH2 0x2DAB JUMPI DUP3 SWAP1 SUB PUSH1 0x1F AND DUP3 ADD SWAP2 JUMPDEST POP POP POP POP POP DUP3 DUP3 DUP2 MLOAD DUP2 LT PUSH2 0x2DE0 JUMPI PUSH2 0x2DDF PUSH2 0x47D7 JUMP JUMPDEST JUMPDEST PUSH1 0x20 MUL PUSH1 0x20 ADD ADD DUP2 SWAP1 MSTORE POP DUP1 DUP1 PUSH2 0x2DF6 SWAP1 PUSH2 0x4835 JUMP JUMPDEST SWAP2 POP POP PUSH2 0x2D24 JUMP JUMPDEST POP DUP1 SWAP2 POP POP SWAP1 JUMP JUMPDEST DUP1 PUSH1 0xE PUSH1 0x0 DUP5 DUP2 MSTORE PUSH1 0x20 ADD SWAP1 DUP2 MSTORE PUSH1 0x20 ADD PUSH1 0x0 KECCAK256 PUSH1 0x1 ADD SWAP1 DUP2 PUSH2 0x2E29 SWAP2 SWAP1 PUSH2 0x4A5D JUMP JUMPDEST POP POP POP JUMP JUMPDEST PUSH1 0x8 SLOAD DUP2 JUMP JUMPDEST PUSH1 0x16 PUSH1 0x20 MSTORE DUP1 PUSH1 0x0 MSTORE PUSH1 0x40 PUSH1 0x0 KECCAK256 PUSH1 0x0 SWAP2 POP SWAP1 POP DUP1 PUSH1 0x0 ADD SLOAD SWAP1 DUP1 PUSH1 0x1 ADD SLOAD SWAP1 DUP1 PUSH1 0x2 ADD SLOAD SWAP1 DUP1 PUSH1 0x3 ADD DUP1 SLOAD PUSH2 0x2E69 SWAP1 PUSH2 0x46EC JUMP JUMPDEST DUP1 PUSH1 0x1F ADD PUSH1 0x20 DUP1 SWAP2 DIV MUL PUSH1 0x20 ADD PUSH1 0x40 MLOAD SWAP1 DUP2 ADD PUSH1 0x40 MSTORE DUP1 SWAP3 SWAP2 SWAP1 DUP2 DUP2 MSTORE PUSH1 0x20 ADD DUP3 DUP1 SLOAD PUSH2 0x2E95 SWAP1 PUSH2 0x46EC JUMP JUMPDEST DUP1 ISZERO PUSH2 0x2EE2 JUMPI DUP1 PUSH1 0x1F LT PUSH2 0x2EB7 JUMPI PUSH2 0x100 DUP1 DUP4 SLOAD DIV MUL DUP4 MSTORE SWAP2 PUSH1 0x20 ADD SWAP2 PUSH2 0x2EE2 JUMP JUMPDEST DUP3 ADD SWAP2 SWAP1 PUSH1 0x0 MSTORE PUSH1 0x20 PUSH1 0x0 KECCAK256 SWAP1 JUMPDEST DUP2 SLOAD DUP2 MSTORE SWAP1 PUSH1 0x1 ADD SWAP1 PUSH1 0x20 ADD DUP1 DUP4 GT PUSH2 0x2EC5 JUMPI DUP3 SWAP1 SUB PUSH1 0x1F AND DUP3 ADD SWAP2 JUMPDEST POP POP POP POP POP SWAP1 POP DUP5 JUMP JUMPDEST PUSH1 0x0 DUP1 PUSH1 0x0 SWAP1 POP PUSH1 0x0 JUMPDEST PUSH1 0x8 SLOAD DUP2 LT ISZERO PUSH2 0x2F72 JUMPI DUP5 PUSH1 0x16 PUSH1 0x0 DUP4 DUP2 MSTORE PUSH1 0x20 ADD SWAP1 DUP2 MSTORE PUSH1 0x20 ADD PUSH1 0x0 KECCAK256 PUSH1 0x0 ADD SLOAD EQ DUP1 ISZERO PUSH2 0x2F55 JUMPI POP PUSH1 0x16 PUSH1 0x0 DUP3 DUP2 MSTORE PUSH1 0x20 ADD SWAP1 DUP2 MSTORE PUSH1 0x20 ADD PUSH1 0x0 KECCAK256 PUSH1 0x3 ADD PUSH1 0x40 MLOAD PUSH2 0x2F43 SWAP2 SWAP1 PUSH2 0x47C0 JUMP JUMPDEST PUSH1 0x40 MLOAD DUP1 SWAP2 SUB SWAP1 KECCAK256 DUP5 DUP1 MLOAD SWAP1 PUSH1 0x20 ADD KECCAK256 EQ JUMPDEST ISZERO PUSH2 0x2F5F JUMPI PUSH1 0x1 SWAP2 POP JUMPDEST DUP1 DUP1 PUSH2 0x2F6A SWAP1 PUSH2 0x4835 JUMP JUMPDEST SWAP2 POP POP PUSH2 0x2EF6 JUMP JUMPDEST POP DUP1 SWAP2 POP POP SWAP3 SWAP2 POP POP JUMP JUMPDEST PUSH1 0x3 SLOAD DUP2 JUMP JUMPDEST PUSH1 0x0 PUSH1 0x1 PUSH1 0x18 PUSH1 0x0 DUP5 DUP2 MSTORE PUSH1 0x20 ADD SWAP1 DUP2 MSTORE PUSH1 0x20 ADD PUSH1 0x0 KECCAK256 PUSH1 0x1 ADD PUSH1 0x7 PUSH2 0x100 EXP DUP2 SLOAD DUP2 PUSH1 0xFF MUL NOT AND SWAP1 DUP4 ISZERO ISZERO MUL OR SWAP1 SSTORE POP PUSH1 0x40 MLOAD DUP1 PUSH1 0x80 ADD PUSH1 0x40 MSTORE DUP1 PUSH1 0x9 SLOAD DUP2 MSTORE PUSH1 0x20 ADD DUP7 DUP2 MSTORE PUSH1 0x20 ADD DUP5 DUP2 MSTORE PUSH1 0x20 ADD DUP6 DUP2 MSTORE POP PUSH1 0x17 PUSH1 0x0 PUSH1 0x9 SLOAD DUP2 MSTORE PUSH1 0x20 ADD SWAP1 DUP2 MSTORE PUSH1 0x20 ADD PUSH1 0x0 KECCAK256 PUSH1 0x0 DUP3 ADD MLOAD DUP2 PUSH1 0x0 ADD SSTORE PUSH1 0x20 DUP3 ADD MLOAD DUP2 PUSH1 0x1 ADD SSTORE PUSH1 0x40 DUP3 ADD MLOAD DUP2 PUSH1 0x2 ADD SSTORE PUSH1 0x60 DUP3 ADD MLOAD DUP2 PUSH1 0x3 ADD SWAP1 DUP2 PUSH2 0x301F SWAP2 SWAP1 PUSH2 0x4A5D JUMP JUMPDEST POP SWAP1 POP POP PUSH1 0x9 PUSH1 0x0 DUP2 SLOAD DUP1 SWAP3 SWAP2 SWAP1 PUSH2 0x3036 SWAP1 PUSH2 0x4835 JUMP JUMPDEST SWAP2 SWAP1 POP SSTORE POP PUSH1 0x9 SLOAD SWAP1 POP SWAP5 SWAP4 POP POP POP POP JUMP JUMPDEST PUSH1 0x0 PUSH1 0x40 MLOAD DUP1 PUSH1 0x60 ADD PUSH1 0x40 MSTORE DUP1 DUP7 DUP2 MSTORE PUSH1 0x20 ADD DUP8 DUP2 MSTORE PUSH1 0x20 ADD PUSH1 0x0 DUP2 MSTORE POP PUSH1 0xF PUSH1 0x0 PUSH1 0x3 SLOAD DUP2 MSTORE PUSH1 0x20 ADD SWAP1 DUP2 MSTORE PUSH1 0x20 ADD PUSH1 0x0 KECCAK256 PUSH1 0x0 DUP3 ADD MLOAD DUP2 PUSH1 0x0 ADD SSTORE PUSH1 0x20 DUP3 ADD MLOAD DUP2 PUSH1 0x1 ADD SWAP1 DUP2 PUSH2 0x309A SWAP2 SWAP1 PUSH2 0x4A5D JUMP JUMPDEST POP PUSH1 0x40 DUP3 ADD MLOAD DUP2 PUSH1 0x2 ADD SSTORE SWAP1 POP POP PUSH1 0x1 PUSH1 0x18 PUSH1 0x0 DUP6 DUP2 MSTORE PUSH1 0x20 ADD SWAP1 DUP2 MSTORE PUSH1 0x20 ADD PUSH1 0x0 KECCAK256 PUSH1 0x1 ADD PUSH1 0x3 PUSH2 0x100 EXP DUP2 SLOAD DUP2 PUSH1 0xFF MUL NOT AND SWAP1 DUP4 ISZERO ISZERO MUL OR SWAP1 SSTORE POP PUSH1 0x3 PUSH1 0x0 DUP2 SLOAD DUP1 SWAP3 SWAP2 SWAP1 PUSH2 0x30EA SWAP1 PUSH2 0x4835 JUMP JUMPDEST SWAP2 SWAP1 POP SSTORE POP PUSH1 0x0 JUMPDEST DUP5 MLOAD DUP2 LT ISZERO PUSH2 0x314F JUMPI PUSH2 0x3124 PUSH1 0x3 SLOAD PUSH1 0x5 SLOAD DUP8 DUP5 DUP2 MLOAD DUP2 LT PUSH2 0x3117 JUMPI PUSH2 0x3116 PUSH2 0x47D7 JUMP JUMPDEST JUMPDEST PUSH1 0x20 MUL PUSH1 0x20 ADD ADD MLOAD PUSH2 0x34B9 JUMP JUMPDEST PUSH1 0x5 PUSH1 0x0 DUP2 SLOAD DUP1 SWAP3 SWAP2 SWAP1 PUSH2 0x3137 SWAP1 PUSH2 0x4835 JUMP JUMPDEST SWAP2 SWAP1 POP SSTORE POP DUP1 DUP1 PUSH2 0x3147 SWAP1 PUSH2 0x4835 JUMP JUMPDEST SWAP2 POP POP PUSH2 0x30F2 JUMP JUMPDEST POP PUSH2 0x318F DUP3 PUSH1 0x40 MLOAD DUP1 PUSH1 0x40 ADD PUSH1 0x40 MSTORE DUP1 PUSH1 0x4 DUP2 MSTORE PUSH1 0x20 ADD PUSH32 0x6964656100000000000000000000000000000000000000000000000000000000 DUP2 MSTORE POP PUSH2 0x2C0D JUMP JUMPDEST PUSH1 0x3 SLOAD SWAP1 POP SWAP6 SWAP5 POP POP POP POP POP JUMP JUMPDEST PUSH1 0x60 PUSH1 0xE PUSH1 0x0 DUP4 DUP2 MSTORE PUSH1 0x20 ADD SWAP1 DUP2 MSTORE PUSH1 0x20 ADD PUSH1 0x0 KECCAK256 PUSH1 0x1 ADD DUP1 SLOAD PUSH2 0x31C0 SWAP1 PUSH2 0x46EC JUMP JUMPDEST DUP1 PUSH1 0x1F ADD PUSH1 0x20 DUP1 SWAP2 DIV MUL PUSH1 0x20 ADD PUSH1 0x40 MLOAD SWAP1 DUP2 ADD PUSH1 0x40 MSTORE DUP1 SWAP3 SWAP2 SWAP1 DUP2 DUP2 MSTORE PUSH1 0x20 ADD DUP3 DUP1 SLOAD PUSH2 0x31EC SWAP1 PUSH2 0x46EC JUMP JUMPDEST DUP1 ISZERO PUSH2 0x3239 JUMPI DUP1 PUSH1 0x1F LT PUSH2 0x320E JUMPI PUSH2 0x100 DUP1 DUP4 SLOAD DIV MUL DUP4 MSTORE SWAP2 PUSH1 0x20 ADD SWAP2 PUSH2 0x3239 JUMP JUMPDEST DUP3 ADD SWAP2 SWAP1 PUSH1 0x0 MSTORE PUSH1 0x20 PUSH1 0x0 KECCAK256 SWAP1 JUMPDEST DUP2 SLOAD DUP2 MSTORE SWAP1 PUSH1 0x1 ADD SWAP1 PUSH1 0x20 ADD DUP1 DUP4 GT PUSH2 0x321C JUMPI DUP3 SWAP1 SUB PUSH1 0x1F AND DUP3 ADD SWAP2 JUMPDEST POP POP POP POP POP SWAP1 POP SWAP2 SWAP1 POP JUMP JUMPDEST PUSH1 0x1 SLOAD DUP2 JUMP JUMPDEST PUSH1 0x0 PUSH1 0x1 PUSH1 0x18 PUSH1 0x0 DUP7 DUP2 MSTORE PUSH1 0x20 ADD SWAP1 DUP2 MSTORE PUSH1 0x20 ADD PUSH1 0x0 KECCAK256 PUSH1 0x1 ADD PUSH1 0x4 PUSH2 0x100 EXP DUP2 SLOAD DUP2 PUSH1 0xFF MUL NOT AND SWAP1 DUP4 ISZERO ISZERO MUL OR SWAP1 SSTORE POP PUSH1 0x40 MLOAD DUP1 PUSH1 0x60 ADD PUSH1 0x40 MSTORE DUP1 DUP8 DUP2 MSTORE PUSH1 0x20 ADD DUP7 DUP2 MSTORE PUSH1 0x20 ADD DUP6 DUP2 MSTORE POP PUSH1 0x14 PUSH1 0x0 PUSH1 0x6 SLOAD DUP2 MSTORE PUSH1 0x20 ADD SWAP1 DUP2 MSTORE PUSH1 0x20 ADD PUSH1 0x0 KECCAK256 PUSH1 0x0 DUP3 ADD MLOAD DUP2 PUSH1 0x0 ADD SSTORE PUSH1 0x20 DUP3 ADD MLOAD DUP2 PUSH1 0x1 ADD SSTORE PUSH1 0x40 DUP3 ADD MLOAD DUP2 PUSH1 0x2 ADD SSTORE SWAP1 POP POP PUSH1 0x6 PUSH1 0x0 DUP2 SLOAD DUP1 SWAP3 SWAP2 SWAP1 PUSH2 0x32E0 SWAP1 PUSH2 0x4835 JUMP JUMPDEST SWAP2 SWAP1 POP SSTORE POP DUP2 ISZERO PUSH2 0x332B JUMPI PUSH2 0x332A DUP4 PUSH1 0x40 MLOAD DUP1 PUSH1 0x40 ADD PUSH1 0x40 MSTORE DUP1 PUSH1 0x4 DUP2 MSTORE PUSH1 0x20 ADD PUSH32 0x766F746500000000000000000000000000000000000000000000000000000000 DUP2 MSTORE POP PUSH2 0x2C0D JUMP JUMPDEST JUMPDEST PUSH1 0x6 SLOAD SWAP1 POP SWAP6 SWAP5 POP POP POP POP POP JUMP JUMPDEST PUSH1 0x13 PUSH1 0x20 MSTORE DUP1 PUSH1 0x0 MSTORE PUSH1 0x40 PUSH1 0x0 KECCAK256 PUSH1 0x0 SWAP2 POP SWAP1 POP DUP1 PUSH1 0x0 ADD SLOAD SWAP1 DUP1 PUSH1 0x1 ADD SLOAD SWAP1 DUP1 PUSH1 0x2 ADD DUP1 SLOAD PUSH2 0x3368 SWAP1 PUSH2 0x46EC JUMP JUMPDEST DUP1 PUSH1 0x1F ADD PUSH1 0x20 DUP1 SWAP2 DIV MUL PUSH1 0x20 ADD PUSH1 0x40 MLOAD SWAP1 DUP2 ADD PUSH1 0x40 MSTORE DUP1 SWAP3 SWAP2 SWAP1 DUP2 DUP2 MSTORE PUSH1 0x20 ADD DUP3 DUP1 SLOAD PUSH2 0x3394 SWAP1 PUSH2 0x46EC JUMP JUMPDEST DUP1 ISZERO PUSH2 0x33E1 JUMPI DUP1 PUSH1 0x1F LT PUSH2 0x33B6 JUMPI PUSH2 0x100 DUP1 DUP4 SLOAD DIV MUL DUP4 MSTORE SWAP2 PUSH1 0x20 ADD SWAP2 PUSH2 0x33E1 JUMP JUMPDEST DUP3 ADD SWAP2 SWAP1 PUSH1 0x0 MSTORE PUSH1 0x20 PUSH1 0x0 KECCAK256 SWAP1 JUMPDEST DUP2 SLOAD DUP2 MSTORE SWAP1 PUSH1 0x1 ADD SWAP1 PUSH1 0x20 ADD DUP1 DUP4 GT PUSH2 0x33C4 JUMPI DUP3 SWAP1 SUB PUSH1 0x1F AND DUP3 ADD SWAP2 JUMPDEST POP POP POP POP POP SWAP1 POP DUP4 JUMP JUMPDEST PUSH1 0x60 PUSH1 0x0 PUSH1 0x1 PUSH2 0x33FA DUP5 PUSH2 0x3519 JUMP JUMPDEST ADD SWAP1 POP PUSH1 0x0 DUP2 PUSH8 0xFFFFFFFFFFFFFFFF DUP2 GT ISZERO PUSH2 0x3419 JUMPI PUSH2 0x3418 PUSH2 0x36F8 JUMP JUMPDEST JUMPDEST PUSH1 0x40 MLOAD SWAP1 DUP1 DUP3 MSTORE DUP1 PUSH1 0x1F ADD PUSH1 0x1F NOT AND PUSH1 0x20 ADD DUP3 ADD PUSH1 0x40 MSTORE DUP1 ISZERO PUSH2 0x344B JUMPI DUP2 PUSH1 0x20 ADD PUSH1 0x1 DUP3 MUL DUP1 CALLDATASIZE DUP4 CALLDATACOPY DUP1 DUP3 ADD SWAP2 POP POP SWAP1 POP JUMPDEST POP SWAP1 POP PUSH1 0x0 DUP3 PUSH1 0x20 ADD DUP3 ADD SWAP1 POP JUMPDEST PUSH1 0x1 ISZERO PUSH2 0x34AE JUMPI DUP1 DUP1 PUSH1 0x1 SWAP1 SUB SWAP2 POP POP PUSH32 0x3031323334353637383961626364656600000000000000000000000000000000 PUSH1 0xA DUP7 MOD BYTE DUP2 MSTORE8 PUSH1 0xA DUP6 DUP2 PUSH2 0x34A2 JUMPI PUSH2 0x34A1 PUSH2 0x4B2F JUMP JUMPDEST JUMPDEST DIV SWAP5 POP PUSH1 0x0 DUP6 SUB PUSH2 0x3459 JUMPI JUMPDEST DUP2 SWAP4 POP POP POP POP SWAP2 SWAP1 POP JUMP JUMPDEST PUSH1 0x40 MLOAD DUP1 PUSH1 0x60 ADD PUSH1 0x40 MSTORE DUP1 DUP5 DUP2 MSTORE PUSH1 0x20 ADD DUP4 DUP2 MSTORE PUSH1 0x20 ADD DUP3 DUP2 MSTORE POP PUSH1 0x13 PUSH1 0x0 DUP5 DUP2 MSTORE PUSH1 0x20 ADD SWAP1 DUP2 MSTORE PUSH1 0x20 ADD PUSH1 0x0 KECCAK256 PUSH1 0x0 DUP3 ADD MLOAD DUP2 PUSH1 0x0 ADD SSTORE PUSH1 0x20 DUP3 ADD MLOAD DUP2 PUSH1 0x1 ADD SSTORE PUSH1 0x40 DUP3 ADD MLOAD DUP2 PUSH1 0x2 ADD SWAP1 DUP2 PUSH2 0x3510 SWAP2 SWAP1 PUSH2 0x4A5D JUMP JUMPDEST POP SWAP1 POP POP POP POP POP JUMP JUMPDEST PUSH1 0x0 DUP1 PUSH1 0x0 SWAP1 POP PUSH27 0x184F03E93FF9F4DAA797ED6E38ED64BF6A1F010000000000000000 DUP4 LT PUSH2 0x3577 JUMPI PUSH27 0x184F03E93FF9F4DAA797ED6E38ED64BF6A1F010000000000000000 DUP4 DUP2 PUSH2 0x356D JUMPI PUSH2 0x356C PUSH2 0x4B2F JUMP JUMPDEST JUMPDEST DIV SWAP3 POP PUSH1 0x40 DUP2 ADD SWAP1 POP JUMPDEST PUSH14 0x4EE2D6D415B85ACEF8100000000 DUP4 LT PUSH2 0x35B4 JUMPI PUSH14 0x4EE2D6D415B85ACEF8100000000 DUP4 DUP2 PUSH2 0x35AA JUMPI PUSH2 0x35A9 PUSH2 0x4B2F JUMP JUMPDEST JUMPDEST DIV SWAP3 POP PUSH1 0x20 DUP2 ADD SWAP1 POP JUMPDEST PUSH7 0x2386F26FC10000 DUP4 LT PUSH2 0x35E3 JUMPI PUSH7 0x2386F26FC10000 DUP4 DUP2 PUSH2 0x35D9 JUMPI PUSH2 0x35D8 PUSH2 0x4B2F JUMP JUMPDEST JUMPDEST DIV SWAP3 POP PUSH1 0x10 DUP2 ADD SWAP1 POP JUMPDEST PUSH4 0x5F5E100 DUP4 LT PUSH2 0x360C JUMPI PUSH4 0x5F5E100 DUP4 DUP2 PUSH2 0x3602 JUMPI PUSH2 0x3601 PUSH2 0x4B2F JUMP JUMPDEST JUMPDEST DIV SWAP3 POP PUSH1 0x8 DUP2 ADD SWAP1 POP JUMPDEST PUSH2 0x2710 DUP4 LT PUSH2 0x3631 JUMPI PUSH2 0x2710 DUP4 DUP2 PUSH2 0x3627 JUMPI PUSH2 0x3626 PUSH2 0x4B2F JUMP JUMPDEST JUMPDEST DIV SWAP3 POP PUSH1 0x4 DUP2 ADD SWAP1 POP JUMPDEST PUSH1 0x64 DUP4 LT PUSH2 0x3654 JUMPI PUSH1 0x64 DUP4 DUP2 PUSH2 0x364A JUMPI PUSH2 0x3649 PUSH2 0x4B2F JUMP JUMPDEST JUMPDEST DIV SWAP3 POP PUSH1 0x2 DUP2 ADD SWAP1 POP JUMPDEST PUSH1 0xA DUP4 LT PUSH2 0x3663 JUMPI PUSH1 0x1 DUP2 ADD SWAP1 POP JUMPDEST DUP1 SWAP2 POP POP SWAP2 SWAP1 POP JUMP JUMPDEST POP DUP1 SLOAD PUSH2 0x3678 SWAP1 PUSH2 0x46EC JUMP JUMPDEST PUSH1 0x0 DUP3 SSTORE DUP1 PUSH1 0x1F LT PUSH2 0x368A JUMPI POP PUSH2 0x36A9 JUMP JUMPDEST PUSH1 0x1F ADD PUSH1 0x20 SWAP1 DIV SWAP1 PUSH1 0x0 MSTORE PUSH1 0x20 PUSH1 0x0 KECCAK256 SWAP1 DUP2 ADD SWAP1 PUSH2 0x36A8 SWAP2 SWAP1 PUSH2 0x36AC JUMP JUMPDEST JUMPDEST POP JUMP JUMPDEST JUMPDEST DUP1 DUP3 GT ISZERO PUSH2 0x36C5 JUMPI PUSH1 0x0 DUP2 PUSH1 0x0 SWAP1 SSTORE POP PUSH1 0x1 ADD PUSH2 0x36AD JUMP JUMPDEST POP SWAP1 JUMP JUMPDEST PUSH1 0x0 PUSH1 0x40 MLOAD SWAP1 POP SWAP1 JUMP JUMPDEST PUSH1 0x0 DUP1 REVERT JUMPDEST PUSH1 0x0 DUP1 REVERT JUMPDEST PUSH1 0x0 DUP1 REVERT JUMPDEST PUSH1 0x0 DUP1 REVERT JUMPDEST PUSH1 0x0 PUSH1 0x1F NOT PUSH1 0x1F DUP4 ADD AND SWAP1 POP SWAP2 SWAP1 POP JUMP JUMPDEST PUSH32 0x4E487B7100000000000000000000000000000000000000000000000000000000 PUSH1 0x0 MSTORE PUSH1 0x41 PUSH1 0x4 MSTORE PUSH1 0x24 PUSH1 0x0 REVERT JUMPDEST PUSH2 0x3730 DUP3 PUSH2 0x36E7 JUMP JUMPDEST DUP2 ADD DUP2 DUP2 LT PUSH8 0xFFFFFFFFFFFFFFFF DUP3 GT OR ISZERO PUSH2 0x374F JUMPI PUSH2 0x374E PUSH2 0x36F8 JUMP JUMPDEST JUMPDEST DUP1 PUSH1 0x40 MSTORE POP POP POP JUMP JUMPDEST PUSH1 0x0 PUSH2 0x3762 PUSH2 0x36C9 JUMP JUMPDEST SWAP1 POP PUSH2 0x376E DUP3 DUP3 PUSH2 0x3727 JUMP JUMPDEST SWAP2 SWAP1 POP JUMP JUMPDEST PUSH1 0x0 PUSH8 0xFFFFFFFFFFFFFFFF DUP3 GT ISZERO PUSH2 0x378E JUMPI PUSH2 0x378D PUSH2 0x36F8 JUMP JUMPDEST JUMPDEST PUSH2 0x3797 DUP3 PUSH2 0x36E7 JUMP JUMPDEST SWAP1 POP PUSH1 0x20 DUP2 ADD SWAP1 POP SWAP2 SWAP1 POP JUMP JUMPDEST DUP3 DUP2 DUP4 CALLDATACOPY PUSH1 0x0 DUP4 DUP4 ADD MSTORE POP POP POP JUMP JUMPDEST PUSH1 0x0 PUSH2 0x37C6 PUSH2 0x37C1 DUP5 PUSH2 0x3773 JUMP JUMPDEST PUSH2 0x3758 JUMP JUMPDEST SWAP1 POP DUP3 DUP2 MSTORE PUSH1 0x20 DUP2 ADD DUP5 DUP5 DUP5 ADD GT ISZERO PUSH2 0x37E2 JUMPI PUSH2 0x37E1 PUSH2 0x36E2 JUMP JUMPDEST JUMPDEST PUSH2 0x37ED DUP5 DUP3 DUP6 PUSH2 0x37A4 JUMP JUMPDEST POP SWAP4 SWAP3 POP POP POP JUMP JUMPDEST PUSH1 0x0 DUP3 PUSH1 0x1F DUP4 ADD SLT PUSH2 0x380A JUMPI PUSH2 0x3809 PUSH2 0x36DD JUMP JUMPDEST JUMPDEST DUP2 CALLDATALOAD PUSH2 0x381A DUP5 DUP3 PUSH1 0x20 DUP7 ADD PUSH2 0x37B3 JUMP JUMPDEST SWAP2 POP POP SWAP3 SWAP2 POP POP JUMP JUMPDEST PUSH1 0x0 PUSH1 0x20 DUP3 DUP5 SUB SLT ISZERO PUSH2 0x3839 JUMPI PUSH2 0x3838 PUSH2 0x36D3 JUMP JUMPDEST JUMPDEST PUSH1 0x0 DUP3 ADD CALLDATALOAD PUSH8 0xFFFFFFFFFFFFFFFF DUP2 GT ISZERO PUSH2 0x3857 JUMPI PUSH2 0x3856 PUSH2 0x36D8 JUMP JUMPDEST JUMPDEST PUSH2 0x3863 DUP5 DUP3 DUP6 ADD PUSH2 0x37F5 JUMP JUMPDEST SWAP2 POP POP SWAP3 SWAP2 POP POP JUMP JUMPDEST PUSH1 0x0 DUP2 MLOAD SWAP1 POP SWAP2 SWAP1 POP JUMP JUMPDEST PUSH1 0x0 DUP3 DUP3 MSTORE PUSH1 0x20 DUP3 ADD SWAP1 POP SWAP3 SWAP2 POP POP JUMP JUMPDEST PUSH1 0x0 DUP2 SWAP1 POP PUSH1 0x20 DUP3 ADD SWAP1 POP SWAP2 SWAP1 POP JUMP JUMPDEST PUSH1 0x0 DUP2 MLOAD SWAP1 POP SWAP2 SWAP1 POP JUMP JUMPDEST PUSH1 0x0 DUP3 DUP3 MSTORE PUSH1 0x20 DUP3 ADD SWAP1 POP SWAP3 SWAP2 POP POP JUMP JUMPDEST PUSH1 0x0 JUMPDEST DUP4 DUP2 LT ISZERO PUSH2 0x38D2 JUMPI DUP1 DUP3 ADD MLOAD DUP2 DUP5 ADD MSTORE PUSH1 0x20 DUP2 ADD SWAP1 POP PUSH2 0x38B7 JUMP JUMPDEST PUSH1 0x0 DUP5 DUP5 ADD MSTORE POP POP POP POP JUMP JUMPDEST PUSH1 0x0 PUSH2 0x38E9 DUP3 PUSH2 0x3898 JUMP JUMPDEST PUSH2 0x38F3 DUP2 DUP6 PUSH2 0x38A3 JUMP JUMPDEST SWAP4 POP PUSH2 0x3903 DUP2 DUP6 PUSH1 0x20 DUP7 ADD PUSH2 0x38B4 JUMP JUMPDEST PUSH2 0x390C DUP2 PUSH2 0x36E7 JUMP JUMPDEST DUP5 ADD SWAP2 POP POP SWAP3 SWAP2 POP POP JUMP JUMPDEST PUSH1 0x0 PUSH2 0x3923 DUP4 DUP4 PUSH2 0x38DE JUMP JUMPDEST SWAP1 POP SWAP3 SWAP2 POP POP JUMP JUMPDEST PUSH1 0x0 PUSH1 0x20 DUP3 ADD SWAP1 POP SWAP2 SWAP1 POP JUMP JUMPDEST PUSH1 0x0 PUSH2 0x3943 DUP3 PUSH2 0x386C JUMP JUMPDEST PUSH2 0x394D DUP2 DUP6 PUSH2 0x3877 JUMP JUMPDEST SWAP4 POP DUP4 PUSH1 0x20 DUP3 MUL DUP6 ADD PUSH2 0x395F DUP6 PUSH2 0x3888 JUMP JUMPDEST DUP1 PUSH1 0x0 JUMPDEST DUP6 DUP2 LT ISZERO PUSH2 0x399B JUMPI DUP5 DUP5 SUB DUP10 MSTORE DUP2 MLOAD PUSH2 0x397C DUP6 DUP3 PUSH2 0x3917 JUMP JUMPDEST SWAP5 POP PUSH2 0x3987 DUP4 PUSH2 0x392B JUMP JUMPDEST SWAP3 POP PUSH1 0x20 DUP11 ADD SWAP10 POP POP PUSH1 0x1 DUP2 ADD SWAP1 POP PUSH2 0x3963 JUMP JUMPDEST POP DUP3 SWAP8 POP DUP8 SWAP6 POP POP POP POP POP POP SWAP3 SWAP2 POP POP JUMP JUMPDEST PUSH1 0x0 PUSH1 0x20 DUP3 ADD SWAP1 POP DUP2 DUP2 SUB PUSH1 0x0 DUP4 ADD MSTORE PUSH2 0x39C7 DUP2 DUP5 PUSH2 0x3938 JUMP JUMPDEST SWAP1 POP SWAP3 SWAP2 POP POP JUMP JUMPDEST PUSH1 0x0 DUP2 SWAP1 POP SWAP2 SWAP1 POP JUMP JUMPDEST PUSH2 0x39E2 DUP2 PUSH2 0x39CF JUMP JUMPDEST DUP3 MSTORE POP POP JUMP JUMPDEST PUSH1 0x0 PUSH1 0x20 DUP3 ADD SWAP1 POP PUSH2 0x39FD PUSH1 0x0 DUP4 ADD DUP5 PUSH2 0x39D9 JUMP JUMPDEST SWAP3 SWAP2 POP POP JUMP JUMPDEST PUSH2 0x3A0C DUP2 PUSH2 0x39CF JUMP JUMPDEST DUP2 EQ PUSH2 0x3A17 JUMPI PUSH1 0x0 DUP1 REVERT JUMPDEST POP JUMP JUMPDEST PUSH1 0x0 DUP2 CALLDATALOAD SWAP1 POP PUSH2 0x3A29 DUP2 PUSH2 0x3A03 JUMP JUMPDEST SWAP3 SWAP2 POP POP JUMP JUMPDEST PUSH1 0x0 PUSH1 0x20 DUP3 DUP5 SUB SLT ISZERO PUSH2 0x3A45 JUMPI PUSH2 0x3A44 PUSH2 0x36D3 JUMP JUMPDEST JUMPDEST PUSH1 0x0 PUSH2 0x3A53 DUP5 DUP3 DUP6 ADD PUSH2 0x3A1A JUMP JUMPDEST SWAP2 POP POP SWAP3 SWAP2 POP POP JUMP JUMPDEST PUSH1 0x0 PUSH1 0x60 DUP3 ADD SWAP1 POP PUSH2 0x3A71 PUSH1 0x0 DUP4 ADD DUP7 PUSH2 0x39D9 JUMP JUMPDEST PUSH2 0x3A7E PUSH1 0x20 DUP4 ADD DUP6 PUSH2 0x39D9 JUMP JUMPDEST PUSH2 0x3A8B PUSH1 0x40 DUP4 ADD DUP5 PUSH2 0x39D9 JUMP JUMPDEST SWAP5 SWAP4 POP POP POP POP JUMP JUMPDEST PUSH1 0x0 DUP3 DUP3 MSTORE PUSH1 0x20 DUP3 ADD SWAP1 POP SWAP3 SWAP2 POP POP JUMP JUMPDEST PUSH1 0x0 PUSH2 0x3AAF DUP3 PUSH2 0x3898 JUMP JUMPDEST PUSH2 0x3AB9 DUP2 DUP6 PUSH2 0x3A93 JUMP JUMPDEST SWAP4 POP PUSH2 0x3AC9 DUP2 DUP6 PUSH1 0x20 DUP7 ADD PUSH2 0x38B4 JUMP JUMPDEST PUSH2 0x3AD2 DUP2 PUSH2 0x36E7 JUMP JUMPDEST DUP5 ADD SWAP2 POP POP SWAP3 SWAP2 POP POP JUMP JUMPDEST PUSH1 0x0 PUSH1 0x60 DUP3 ADD SWAP1 POP DUP2 DUP2 SUB PUSH1 0x0 DUP4 ADD MSTORE PUSH2 0x3AF7 DUP2 DUP7 PUSH2 0x3AA4 JUMP JUMPDEST SWAP1 POP DUP2 DUP2 SUB PUSH1 0x20 DUP4 ADD MSTORE PUSH2 0x3B0B DUP2 DUP6 PUSH2 0x3AA4 JUMP JUMPDEST SWAP1 POP DUP2 DUP2 SUB PUSH1 0x40 DUP4 ADD MSTORE PUSH2 0x3B1F DUP2 DUP5 PUSH2 0x3AA4 JUMP JUMPDEST SWAP1 POP SWAP5 SWAP4 POP POP POP POP JUMP JUMPDEST PUSH1 0x0 PUSH1 0x40 DUP3 ADD SWAP1 POP PUSH2 0x3B3E PUSH1 0x0 DUP4 ADD DUP6 PUSH2 0x39D9 JUMP JUMPDEST PUSH2 0x3B4B PUSH1 0x20 DUP4 ADD DUP5 PUSH2 0x39D9 JUMP JUMPDEST SWAP4 SWAP3 POP POP POP JUMP JUMPDEST PUSH1 0x0 PUSH1 0x20 DUP3 ADD SWAP1 POP DUP2 DUP2 SUB PUSH1 0x0 DUP4 ADD MSTORE PUSH2 0x3B6C DUP2 DUP5 PUSH2 0x3AA4 JUMP JUMPDEST SWAP1 POP SWAP3 SWAP2 POP POP JUMP JUMPDEST PUSH1 0x0 PUSH1 0x80 DUP3 ADD SWAP1 POP PUSH2 0x3B89 PUSH1 0x0 DUP4 ADD DUP8 PUSH2 0x39D9 JUMP JUMPDEST PUSH2 0x3B96 PUSH1 0x20 DUP4 ADD DUP7 PUSH2 0x39D9 JUMP JUMPDEST PUSH2 0x3BA3 PUSH1 0x40 DUP4 ADD DUP6 PUSH2 0x39D9 JUMP JUMPDEST DUP2 DUP2 SUB PUSH1 0x60 DUP4 ADD MSTORE PUSH2 0x3BB5 DUP2 DUP5 PUSH2 0x3AA4 JUMP JUMPDEST SWAP1 POP SWAP6 SWAP5 POP POP POP POP POP JUMP JUMPDEST PUSH1 0x0 PUSH1 0x60 DUP3 ADD SWAP1 POP PUSH2 0x3BD5 PUSH1 0x0 DUP4 ADD DUP7 PUSH2 0x39D9 JUMP JUMPDEST DUP2 DUP2 SUB PUSH1 0x20 DUP4 ADD MSTORE PUSH2 0x3BE7 DUP2 DUP6 PUSH2 0x3AA4 JUMP JUMPDEST SWAP1 POP PUSH2 0x3BF6 PUSH1 0x40 DUP4 ADD DUP5 PUSH2 0x39D9 JUMP JUMPDEST SWAP5 SWAP4 POP POP POP POP JUMP JUMPDEST PUSH1 0x0 DUP1 PUSH1 0x40 DUP4 DUP6 SUB SLT ISZERO PUSH2 0x3C15 JUMPI PUSH2 0x3C14 PUSH2 0x36D3 JUMP JUMPDEST JUMPDEST PUSH1 0x0 PUSH2 0x3C23 DUP6 DUP3 DUP7 ADD PUSH2 0x3A1A JUMP JUMPDEST SWAP3 POP POP PUSH1 0x20 PUSH2 0x3C34 DUP6 DUP3 DUP7 ADD PUSH2 0x3A1A JUMP JUMPDEST SWAP2 POP POP SWAP3 POP SWAP3 SWAP1 POP JUMP JUMPDEST PUSH1 0x0 PUSH1 0x80 DUP3 ADD SWAP1 POP PUSH2 0x3C53 PUSH1 0x0 DUP4 ADD DUP8 PUSH2 0x39D9 JUMP JUMPDEST PUSH2 0x3C60 PUSH1 0x20 DUP4 ADD DUP7 PUSH2 0x39D9 JUMP JUMPDEST DUP2 DUP2 SUB PUSH1 0x40 DUP4 ADD MSTORE PUSH2 0x3C72 DUP2 DUP6 PUSH2 0x3AA4 JUMP JUMPDEST SWAP1 POP DUP2 DUP2 SUB PUSH1 0x60 DUP4 ADD MSTORE PUSH2 0x3C86 DUP2 DUP5 PUSH2 0x3AA4 JUMP JUMPDEST SWAP1 POP SWAP6 SWAP5 POP POP POP POP POP JUMP JUMPDEST PUSH1 0x0 DUP1 PUSH1 0x0 DUP1 PUSH1 0x0 PUSH1 0xA0 DUP7 DUP9 SUB SLT ISZERO PUSH2 0x3CAD JUMPI PUSH2 0x3CAC PUSH2 0x36D3 JUMP JUMPDEST JUMPDEST PUSH1 0x0 PUSH2 0x3CBB DUP9 DUP3 DUP10 ADD PUSH2 0x3A1A JUMP JUMPDEST SWAP6 POP POP PUSH1 0x20 PUSH2 0x3CCC DUP9 DUP3 DUP10 ADD PUSH2 0x3A1A JUMP JUMPDEST SWAP5 POP POP PUSH1 0x40 PUSH2 0x3CDD DUP9 DUP3 DUP10 ADD PUSH2 0x3A1A JUMP JUMPDEST SWAP4 POP POP PUSH1 0x60 DUP7 ADD CALLDATALOAD PUSH8 0xFFFFFFFFFFFFFFFF DUP2 GT ISZERO PUSH2 0x3CFE JUMPI PUSH2 0x3CFD PUSH2 0x36D8 JUMP JUMPDEST JUMPDEST PUSH2 0x3D0A DUP9 DUP3 DUP10 ADD PUSH2 0x37F5 JUMP JUMPDEST SWAP3 POP POP PUSH1 0x80 DUP7 ADD CALLDATALOAD PUSH8 0xFFFFFFFFFFFFFFFF DUP2 GT ISZERO PUSH2 0x3D2B JUMPI PUSH2 0x3D2A PUSH2 0x36D8 JUMP JUMPDEST JUMPDEST PUSH2 0x3D37 DUP9 DUP3 DUP10 ADD PUSH2 0x37F5 JUMP JUMPDEST SWAP2 POP POP SWAP3 SWAP6 POP SWAP3 SWAP6 SWAP1 SWAP4 POP JUMP JUMPDEST PUSH1 0x0 DUP1 PUSH1 0x0 DUP1 PUSH1 0x80 DUP6 DUP8 SUB SLT ISZERO PUSH2 0x3D5E JUMPI PUSH2 0x3D5D PUSH2 0x36D3 JUMP JUMPDEST JUMPDEST PUSH1 0x0 PUSH2 0x3D6C DUP8 DUP3 DUP9 ADD PUSH2 0x3A1A JUMP JUMPDEST SWAP5 POP POP PUSH1 0x20 DUP6 ADD CALLDATALOAD PUSH8 0xFFFFFFFFFFFFFFFF DUP2 GT ISZERO PUSH2 0x3D8D JUMPI PUSH2 0x3D8C PUSH2 0x36D8 JUMP JUMPDEST JUMPDEST PUSH2 0x3D99 DUP8 DUP3 DUP9 ADD PUSH2 0x37F5 JUMP JUMPDEST SWAP4 POP POP PUSH1 0x40 DUP6 ADD CALLDATALOAD PUSH8 0xFFFFFFFFFFFFFFFF DUP2 GT ISZERO PUSH2 0x3DBA JUMPI PUSH2 0x3DB9 PUSH2 0x36D8 JUMP JUMPDEST JUMPDEST PUSH2 0x3DC6 DUP8 DUP3 DUP9 ADD PUSH2 0x37F5 JUMP JUMPDEST SWAP3 POP POP PUSH1 0x60 PUSH2 0x3DD7 DUP8 DUP3 DUP9 ADD PUSH2 0x3A1A JUMP JUMPDEST SWAP2 POP POP SWAP3 SWAP6 SWAP2 SWAP5 POP SWAP3 POP JUMP JUMPDEST PUSH1 0x0 DUP2 ISZERO ISZERO SWAP1 POP SWAP2 SWAP1 POP JUMP JUMPDEST PUSH2 0x3DF8 DUP2 PUSH2 0x3DE3 JUMP JUMPDEST DUP3 MSTORE POP POP JUMP JUMPDEST PUSH1 0x0 PUSH1 0x20 DUP3 ADD SWAP1 POP PUSH2 0x3E13 PUSH1 0x0 DUP4 ADD DUP5 PUSH2 0x3DEF JUMP JUMPDEST SWAP3 SWAP2 POP POP JUMP JUMPDEST PUSH1 0x0 PUSH1 0x40 DUP3 ADD SWAP1 POP DUP2 DUP2 SUB PUSH1 0x0 DUP4 ADD MSTORE PUSH2 0x3E33 DUP2 DUP6 PUSH2 0x3AA4 JUMP JUMPDEST SWAP1 POP DUP2 DUP2 SUB PUSH1 0x20 DUP4 ADD MSTORE PUSH2 0x3E47 DUP2 DUP5 PUSH2 0x3AA4 JUMP JUMPDEST SWAP1 POP SWAP4 SWAP3 POP POP POP JUMP JUMPDEST PUSH1 0x0 DUP2 MLOAD SWAP1 POP SWAP2 SWAP1 POP JUMP JUMPDEST PUSH1 0x0 DUP3 DUP3 MSTORE PUSH1 0x20 DUP3 ADD SWAP1 POP SWAP3 SWAP2 POP POP JUMP JUMPDEST PUSH1 0x0 DUP2 SWAP1 POP PUSH1 0x20 DUP3 ADD SWAP1 POP SWAP2 SWAP1 POP JUMP JUMPDEST PUSH2 0x3E85 DUP2 PUSH2 0x39CF JUMP JUMPDEST DUP3 MSTORE POP POP JUMP JUMPDEST PUSH1 0x0 PUSH2 0x3E97 DUP4 DUP4 PUSH2 0x3E7C JUMP JUMPDEST PUSH1 0x20 DUP4 ADD SWAP1 POP SWAP3 SWAP2 POP POP JUMP JUMPDEST PUSH1 0x0 PUSH1 0x20 DUP3 ADD SWAP1 POP SWAP2 SWAP1 POP JUMP JUMPDEST PUSH1 0x0 PUSH2 0x3EBB DUP3 PUSH2 0x3E50 JUMP JUMPDEST PUSH2 0x3EC5 DUP2 DUP6 PUSH2 0x3E5B JUMP JUMPDEST SWAP4 POP PUSH2 0x3ED0 DUP4 PUSH2 0x3E6C JUMP JUMPDEST DUP1 PUSH1 0x0 JUMPDEST DUP4 DUP2 LT ISZERO PUSH2 0x3F01 JUMPI DUP2 MLOAD PUSH2 0x3EE8 DUP9 DUP3 PUSH2 0x3E8B JUMP JUMPDEST SWAP8 POP PUSH2 0x3EF3 DUP4 PUSH2 0x3EA3 JUMP JUMPDEST SWAP3 POP POP PUSH1 0x1 DUP2 ADD SWAP1 POP PUSH2 0x3ED4 JUMP JUMPDEST POP DUP6 SWAP4 POP POP POP POP SWAP3 SWAP2 POP POP JUMP JUMPDEST PUSH1 0x0 PUSH1 0x20 DUP3 ADD SWAP1 POP DUP2 DUP2 SUB PUSH1 0x0 DUP4 ADD MSTORE PUSH2 0x3F28 DUP2 DUP5 PUSH2 0x3EB0 JUMP JUMPDEST SWAP1 POP SWAP3 SWAP2 POP POP JUMP JUMPDEST PUSH1 0x0 DUP1 PUSH1 0x0 DUP1 PUSH1 0x80 DUP6 DUP8 SUB SLT ISZERO PUSH2 0x3F4A JUMPI PUSH2 0x3F49 PUSH2 0x36D3 JUMP JUMPDEST JUMPDEST PUSH1 0x0 DUP6 ADD CALLDATALOAD PUSH8 0xFFFFFFFFFFFFFFFF DUP2 GT ISZERO PUSH2 0x3F68 JUMPI PUSH2 0x3F67 PUSH2 0x36D8 JUMP JUMPDEST JUMPDEST PUSH2 0x3F74 DUP8 DUP3 DUP9 ADD PUSH2 0x37F5 JUMP JUMPDEST SWAP5 POP POP PUSH1 0x20 DUP6 ADD CALLDATALOAD PUSH8 0xFFFFFFFFFFFFFFFF DUP2 GT ISZERO PUSH2 0x3F95 JUMPI PUSH2 0x3F94 PUSH2 0x36D8 JUMP JUMPDEST JUMPDEST PUSH2 0x3FA1 DUP8 DUP3 DUP9 ADD PUSH2 0x37F5 JUMP JUMPDEST SWAP4 POP POP PUSH1 0x40 DUP6 ADD CALLDATALOAD PUSH8 0xFFFFFFFFFFFFFFFF DUP2 GT ISZERO PUSH2 0x3FC2 JUMPI PUSH2 0x3FC1 PUSH2 0x36D8 JUMP JUMPDEST JUMPDEST PUSH2 0x3FCE DUP8 DUP3 DUP9 ADD PUSH2 0x37F5 JUMP JUMPDEST SWAP3 POP POP PUSH1 0x60 PUSH2 0x3FDF DUP8 DUP3 DUP9 ADD PUSH2 0x3A1A JUMP JUMPDEST SWAP2 POP POP SWAP3 SWAP6 SWAP2 SWAP5 POP SWAP3 POP JUMP JUMPDEST PUSH1 0x0 DUP1 PUSH1 0x40 DUP4 DUP6 SUB SLT ISZERO PUSH2 0x4002 JUMPI PUSH2 0x4001 PUSH2 0x36D3 JUMP JUMPDEST JUMPDEST PUSH1 0x0 PUSH2 0x4010 DUP6 DUP3 DUP7 ADD PUSH2 0x3A1A JUMP JUMPDEST SWAP3 POP POP PUSH1 0x20 DUP4 ADD CALLDATALOAD PUSH8 0xFFFFFFFFFFFFFFFF DUP2 GT ISZERO PUSH2 0x4031 JUMPI PUSH2 0x4030 PUSH2 0x36D8 JUMP JUMPDEST JUMPDEST PUSH2 0x403D DUP6 DUP3 DUP7 ADD PUSH2 0x37F5 JUMP JUMPDEST SWAP2 POP POP SWAP3 POP SWAP3 SWAP1 POP JUMP JUMPDEST PUSH1 0x0 DUP1 PUSH1 0x0 PUSH1 0x60 DUP5 DUP7 SUB SLT ISZERO PUSH2 0x4060 JUMPI PUSH2 0x405F PUSH2 0x36D3 JUMP JUMPDEST JUMPDEST PUSH1 0x0 PUSH2 0x406E DUP7 DUP3 DUP8 ADD PUSH2 0x3A1A JUMP JUMPDEST SWAP4 POP POP PUSH1 0x20 DUP5 ADD CALLDATALOAD PUSH8 0xFFFFFFFFFFFFFFFF DUP2 GT ISZERO PUSH2 0x408F JUMPI PUSH2 0x408E PUSH2 0x36D8 JUMP JUMPDEST JUMPDEST PUSH2 0x409B DUP7 DUP3 DUP8 ADD PUSH2 0x37F5 JUMP JUMPDEST SWAP3 POP POP PUSH1 0x40 DUP5 ADD CALLDATALOAD PUSH8 0xFFFFFFFFFFFFFFFF DUP2 GT ISZERO PUSH2 0x40BC JUMPI PUSH2 0x40BB PUSH2 0x36D8 JUMP JUMPDEST JUMPDEST PUSH2 0x40C8 DUP7 DUP3 DUP8 ADD PUSH2 0x37F5 JUMP JUMPDEST SWAP2 POP POP SWAP3 POP SWAP3 POP SWAP3 JUMP JUMPDEST PUSH1 0x0 DUP1 PUSH1 0x0 PUSH1 0x60 DUP5 DUP7 SUB SLT ISZERO PUSH2 0x40EB JUMPI PUSH2 0x40EA PUSH2 0x36D3 JUMP JUMPDEST JUMPDEST PUSH1 0x0 PUSH2 0x40F9 DUP7 DUP3 DUP8 ADD PUSH2 0x3A1A JUMP JUMPDEST SWAP4 POP POP PUSH1 0x20 PUSH2 0x410A DUP7 DUP3 DUP8 ADD PUSH2 0x3A1A JUMP JUMPDEST SWAP3 POP POP PUSH1 0x40 DUP5 ADD CALLDATALOAD PUSH8 0xFFFFFFFFFFFFFFFF DUP2 GT ISZERO PUSH2 0x412B JUMPI PUSH2 0x412A PUSH2 0x36D8 JUMP JUMPDEST JUMPDEST PUSH2 0x4137 DUP7 DUP3 DUP8 ADD PUSH2 0x37F5 JUMP JUMPDEST SWAP2 POP POP SWAP3 POP SWAP3 POP SWAP3 JUMP JUMPDEST PUSH1 0x0 DUP1 PUSH1 0x0 DUP1 PUSH1 0x80 DUP6 DUP8 SUB SLT ISZERO PUSH2 0x415B JUMPI PUSH2 0x415A PUSH2 0x36D3 JUMP JUMPDEST JUMPDEST PUSH1 0x0 PUSH2 0x4169 DUP8 DUP3 DUP9 ADD PUSH2 0x3A1A JUMP JUMPDEST SWAP5 POP POP PUSH1 0x20 PUSH2 0x417A DUP8 DUP3 DUP9 ADD PUSH2 0x3A1A JUMP JUMPDEST SWAP4 POP POP PUSH1 0x40 PUSH2 0x418B DUP8 DUP3 DUP9 ADD PUSH2 0x3A1A JUMP JUMPDEST SWAP3 POP POP PUSH1 0x60 DUP6 ADD CALLDATALOAD PUSH8 0xFFFFFFFFFFFFFFFF DUP2 GT ISZERO PUSH2 0x41AC JUMPI PUSH2 0x41AB PUSH2 0x36D8 JUMP JUMPDEST JUMPDEST PUSH2 0x41B8 DUP8 DUP3 DUP9 ADD PUSH2 0x37F5 JUMP JUMPDEST SWAP2 POP POP SWAP3 SWAP6 SWAP2 SWAP5 POP SWAP3 POP JUMP JUMPDEST PUSH1 0x0 PUSH2 0x120 DUP3 ADD SWAP1 POP PUSH2 0x41DA PUSH1 0x0 DUP4 ADD DUP13 PUSH2 0x39D9 JUMP JUMPDEST PUSH2 0x41E7 PUSH1 0x20 DUP4 ADD DUP12 PUSH2 0x3DEF JUMP JUMPDEST PUSH2 0x41F4 PUSH1 0x40 DUP4 ADD DUP11 PUSH2 0x3DEF JUMP JUMPDEST PUSH2 0x4201 PUSH1 0x60 DUP4 ADD DUP10 PUSH2 0x3DEF JUMP JUMPDEST PUSH2 0x420E PUSH1 0x80 DUP4 ADD DUP9 PUSH2 0x3DEF JUMP JUMPDEST PUSH2 0x421B PUSH1 0xA0 DUP4 ADD DUP8 PUSH2 0x3DEF JUMP JUMPDEST PUSH2 0x4228 PUSH1 0xC0 DUP4 ADD DUP7 PUSH2 0x3DEF JUMP JUMPDEST PUSH2 0x4235 PUSH1 0xE0 DUP4 ADD DUP6 PUSH2 0x3DEF JUMP JUMPDEST PUSH2 0x4243 PUSH2 0x100 DUP4 ADD DUP5 PUSH2 0x3DEF JUMP JUMPDEST SWAP11 SWAP10 POP POP POP POP POP POP POP POP POP POP JUMP JUMPDEST PUSH1 0x0 DUP1 PUSH1 0x0 DUP1 PUSH1 0x80 DUP6 DUP8 SUB SLT ISZERO PUSH2 0x426B JUMPI PUSH2 0x426A PUSH2 0x36D3 JUMP JUMPDEST JUMPDEST PUSH1 0x0 DUP6 ADD CALLDATALOAD PUSH8 0xFFFFFFFFFFFFFFFF DUP2 GT ISZERO PUSH2 0x4289 JUMPI PUSH2 0x4288 PUSH2 0x36D8 JUMP JUMPDEST JUMPDEST PUSH2 0x4295 DUP8 DUP3 DUP9 ADD PUSH2 0x37F5 JUMP JUMPDEST SWAP5 POP POP PUSH1 0x20 DUP6 ADD CALLDATALOAD PUSH8 0xFFFFFFFFFFFFFFFF DUP2 GT ISZERO PUSH2 0x42B6 JUMPI PUSH2 0x42B5 PUSH2 0x36D8 JUMP JUMPDEST JUMPDEST PUSH2 0x42C2 DUP8 DUP3 DUP9 ADD PUSH2 0x37F5 JUMP JUMPDEST SWAP4 POP POP PUSH1 0x40 PUSH2 0x42D3 DUP8 DUP3 DUP9 ADD PUSH2 0x3A1A JUMP JUMPDEST SWAP3 POP POP PUSH1 0x60 DUP6 ADD CALLDATALOAD PUSH8 0xFFFFFFFFFFFFFFFF DUP2 GT ISZERO PUSH2 0x42F4 JUMPI PUSH2 0x42F3 PUSH2 0x36D8 JUMP JUMPDEST JUMPDEST PUSH2 0x4300 DUP8 DUP3 DUP9 ADD PUSH2 0x37F5 JUMP JUMPDEST SWAP2 POP POP SWAP3 SWAP6 SWAP2 SWAP5 POP SWAP3 POP JUMP JUMPDEST PUSH1 0x0 DUP1 PUSH1 0x40 DUP4 DUP6 SUB SLT ISZERO PUSH2 0x4323 JUMPI PUSH2 0x4322 PUSH2 0x36D3 JUMP JUMPDEST JUMPDEST PUSH1 0x0 DUP4 ADD CALLDATALOAD PUSH8 0xFFFFFFFFFFFFFFFF DUP2 GT ISZERO PUSH2 0x4341 JUMPI PUSH2 0x4340 PUSH2 0x36D8 JUMP JUMPDEST JUMPDEST PUSH2 0x434D DUP6 DUP3 DUP7 ADD PUSH2 0x37F5 JUMP JUMPDEST SWAP3 POP POP PUSH1 0x20 DUP4 ADD CALLDATALOAD PUSH8 0xFFFFFFFFFFFFFFFF DUP2 GT ISZERO PUSH2 0x436E JUMPI PUSH2 0x436D PUSH2 0x36D8 JUMP JUMPDEST JUMPDEST PUSH2 0x437A DUP6 DUP3 DUP7 ADD PUSH2 0x37F5 JUMP JUMPDEST SWAP2 POP POP SWAP3 POP SWAP3 SWAP1 POP JUMP JUMPDEST PUSH1 0x0 DUP1 PUSH1 0x0 DUP1 PUSH1 0x80 DUP6 DUP8 SUB SLT ISZERO PUSH2 0x439E JUMPI PUSH2 0x439D PUSH2 0x36D3 JUMP JUMPDEST JUMPDEST PUSH1 0x0 PUSH2 0x43AC DUP8 DUP3 DUP9 ADD PUSH2 0x3A1A JUMP JUMPDEST SWAP5 POP POP PUSH1 0x20 DUP6 ADD CALLDATALOAD PUSH8 0xFFFFFFFFFFFFFFFF DUP2 GT ISZERO PUSH2 0x43CD JUMPI PUSH2 0x43CC PUSH2 0x36D8 JUMP JUMPDEST JUMPDEST PUSH2 0x43D9 DUP8 DUP3 DUP9 ADD PUSH2 0x37F5 JUMP JUMPDEST SWAP4 POP POP PUSH1 0x40 PUSH2 0x43EA DUP8 DUP3 DUP9 ADD PUSH2 0x3A1A JUMP JUMPDEST SWAP3 POP POP PUSH1 0x60 PUSH2 0x43FB DUP8 DUP3 DUP9 ADD PUSH2 0x3A1A JUMP JUMPDEST SWAP2 POP POP SWAP3 SWAP6 SWAP2 SWAP5 POP SWAP3 POP JUMP JUMPDEST PUSH1 0x0 PUSH8 0xFFFFFFFFFFFFFFFF DUP3 GT ISZERO PUSH2 0x4422 JUMPI PUSH2 0x4421 PUSH2 0x36F8 JUMP JUMPDEST JUMPDEST PUSH1 0x20 DUP3 MUL SWAP1 POP PUSH1 0x20 DUP2 ADD SWAP1 POP SWAP2 SWAP1 POP JUMP JUMPDEST PUSH1 0x0 DUP1 REVERT JUMPDEST PUSH1 0x0 PUSH2 0x444B PUSH2 0x4446 DUP5 PUSH2 0x4407 JUMP JUMPDEST PUSH2 0x3758 JUMP JUMPDEST SWAP1 POP DUP1 DUP4 DUP3 MSTORE PUSH1 0x20 DUP3 ADD SWAP1 POP PUSH1 0x20 DUP5 MUL DUP4 ADD DUP6 DUP2 GT ISZERO PUSH2 0x446E JUMPI PUSH2 0x446D PUSH2 0x4433 JUMP JUMPDEST JUMPDEST DUP4 JUMPDEST DUP2 DUP2 LT ISZERO PUSH2 0x44B5 JUMPI DUP1 CALLDATALOAD PUSH8 0xFFFFFFFFFFFFFFFF DUP2 GT ISZERO PUSH2 0x4493 JUMPI PUSH2 0x4492 PUSH2 0x36DD JUMP JUMPDEST JUMPDEST DUP1 DUP7 ADD PUSH2 0x44A0 DUP10 DUP3 PUSH2 0x37F5 JUMP JUMPDEST DUP6 MSTORE PUSH1 0x20 DUP6 ADD SWAP5 POP POP POP PUSH1 0x20 DUP2 ADD SWAP1 POP PUSH2 0x4470 JUMP JUMPDEST POP POP POP SWAP4 SWAP3 POP POP POP JUMP JUMPDEST PUSH1 0x0 DUP3 PUSH1 0x1F DUP4 ADD SLT PUSH2 0x44D4 JUMPI PUSH2 0x44D3 PUSH2 0x36DD JUMP JUMPDEST JUMPDEST DUP2 CALLDATALOAD PUSH2 0x44E4 DUP5 DUP3 PUSH1 0x20 DUP7 ADD PUSH2 0x4438 JUMP JUMPDEST SWAP2 POP POP SWAP3 SWAP2 POP POP JUMP JUMPDEST PUSH1 0x0 DUP1 PUSH1 0x0 DUP1 PUSH1 0x0 PUSH1 0xA0 DUP7 DUP9 SUB SLT ISZERO PUSH2 0x4509 JUMPI PUSH2 0x4508 PUSH2 0x36D3 JUMP JUMPDEST JUMPDEST PUSH1 0x0 DUP7 ADD CALLDATALOAD PUSH8 0xFFFFFFFFFFFFFFFF DUP2 GT ISZERO PUSH2 0x4527 JUMPI PUSH2 0x4526 PUSH2 0x36D8 JUMP JUMPDEST JUMPDEST PUSH2 0x4533 DUP9 DUP3 DUP10 ADD PUSH2 0x37F5 JUMP JUMPDEST SWAP6 POP POP PUSH1 0x20 PUSH2 0x4544 DUP9 DUP3 DUP10 ADD PUSH2 0x3A1A JUMP JUMPDEST SWAP5 POP POP PUSH1 0x40 DUP7 ADD CALLDATALOAD PUSH8 0xFFFFFFFFFFFFFFFF DUP2 GT ISZERO PUSH2 0x4565 JUMPI PUSH2 0x4564 PUSH2 0x36D8 JUMP JUMPDEST JUMPDEST PUSH2 0x4571 DUP9 DUP3 DUP10 ADD PUSH2 0x44BF JUMP JUMPDEST SWAP4 POP POP PUSH1 0x60 PUSH2 0x4582 DUP9 DUP3 DUP10 ADD PUSH2 0x3A1A JUMP JUMPDEST SWAP3 POP POP PUSH1 0x80 DUP7 ADD CALLDATALOAD PUSH8 0xFFFFFFFFFFFFFFFF DUP2 GT ISZERO PUSH2 0x45A3 JUMPI PUSH2 0x45A2 PUSH2 0x36D8 JUMP JUMPDEST JUMPDEST PUSH2 0x45AF DUP9 DUP3 DUP10 ADD PUSH2 0x37F5 JUMP JUMPDEST SWAP2 POP POP SWAP3 SWAP6 POP SWAP3 SWAP6 SWAP1 SWAP4 POP JUMP JUMPDEST PUSH2 0x45C5 DUP2 PUSH2 0x3DE3 JUMP JUMPDEST DUP2 EQ PUSH2 0x45D0 JUMPI PUSH1 0x0 DUP1 REVERT JUMPDEST POP JUMP JUMPDEST PUSH1 0x0 DUP2 CALLDATALOAD SWAP1 POP PUSH2 0x45E2 DUP2 PUSH2 0x45BC JUMP JUMPDEST SWAP3 SWAP2 POP POP JUMP JUMPDEST PUSH1 0x0 DUP1 PUSH1 0x0 DUP1 PUSH1 0x0 PUSH1 0xA0 DUP7 DUP9 SUB SLT ISZERO PUSH2 0x4604 JUMPI PUSH2 0x4603 PUSH2 0x36D3 JUMP JUMPDEST JUMPDEST PUSH1 0x0 PUSH2 0x4612 DUP9 DUP3 DUP10 ADD PUSH2 0x3A1A JUMP JUMPDEST SWAP6 POP POP PUSH1 0x20 PUSH2 0x4623 DUP9 DUP3 DUP10 ADD PUSH2 0x3A1A JUMP JUMPDEST SWAP5 POP POP PUSH1 0x40 PUSH2 0x4634 DUP9 DUP3 DUP10 ADD PUSH2 0x3A1A JUMP JUMPDEST SWAP4 POP POP PUSH1 0x60 DUP7 ADD CALLDATALOAD PUSH8 0xFFFFFFFFFFFFFFFF DUP2 GT ISZERO PUSH2 0x4655 JUMPI PUSH2 0x4654 PUSH2 0x36D8 JUMP JUMPDEST JUMPDEST PUSH2 0x4661 DUP9 DUP3 DUP10 ADD PUSH2 0x37F5 JUMP JUMPDEST SWAP3 POP POP PUSH1 0x80 PUSH2 0x4672 DUP9 DUP3 DUP10 ADD PUSH2 0x45D3 JUMP JUMPDEST SWAP2 POP POP SWAP3 SWAP6 POP SWAP3 SWAP6 SWAP1 SWAP4 POP JUMP JUMPDEST PUSH1 0x0 PUSH1 0x60 DUP3 ADD SWAP1 POP PUSH2 0x4694 PUSH1 0x0 DUP4 ADD DUP7 PUSH2 0x39D9 JUMP JUMPDEST PUSH2 0x46A1 PUSH1 0x20 DUP4 ADD DUP6 PUSH2 0x39D9 JUMP JUMPDEST DUP2 DUP2 SUB PUSH1 0x40 DUP4 ADD MSTORE PUSH2 0x46B3 DUP2 DUP5 PUSH2 0x3AA4 JUMP JUMPDEST SWAP1 POP SWAP5 SWAP4 POP POP POP POP JUMP JUMPDEST PUSH32 0x4E487B7100000000000000000000000000000000000000000000000000000000 PUSH1 0x0 MSTORE PUSH1 0x22 PUSH1 0x4 MSTORE PUSH1 0x24 PUSH1 0x0 REVERT JUMPDEST PUSH1 0x0 PUSH1 0x2 DUP3 DIV SWAP1 POP PUSH1 0x1 DUP3 AND DUP1 PUSH2 0x4704 JUMPI PUSH1 0x7F DUP3 AND SWAP2 POP JUMPDEST PUSH1 0x20 DUP3 LT DUP2 SUB PUSH2 0x4717 JUMPI PUSH2 0x4716 PUSH2 0x46BD JUMP JUMPDEST JUMPDEST POP SWAP2 SWAP1 POP JUMP JUMPDEST PUSH1 0x0 DUP2 SWAP1 POP SWAP3 SWAP2 POP POP JUMP JUMPDEST PUSH1 0x0 DUP2 SWAP1 POP DUP2 PUSH1 0x0 MSTORE PUSH1 0x20 PUSH1 0x0 KECCAK256 SWAP1 POP SWAP2 SWAP1 POP JUMP JUMPDEST PUSH1 0x0 DUP2 SLOAD PUSH2 0x474A DUP2 PUSH2 0x46EC JUMP JUMPDEST PUSH2 0x4754 DUP2 DUP7 PUSH2 0x471D JUMP JUMPDEST SWAP5 POP PUSH1 0x1 DUP3 AND PUSH1 0x0 DUP2 EQ PUSH2 0x476F JUMPI PUSH1 0x1 DUP2 EQ PUSH2 0x4784 JUMPI PUSH2 0x47B7 JUMP JUMPDEST PUSH1 0xFF NOT DUP4 AND DUP7 MSTORE DUP2 ISZERO ISZERO DUP3 MUL DUP7 ADD SWAP4 POP PUSH2 0x47B7 JUMP JUMPDEST PUSH2 0x478D DUP6 PUSH2 0x4728 JUMP JUMPDEST PUSH1 0x0 JUMPDEST DUP4 DUP2 LT ISZERO PUSH2 0x47AF JUMPI DUP2 SLOAD DUP2 DUP10 ADD MSTORE PUSH1 0x1 DUP3 ADD SWAP2 POP PUSH1 0x20 DUP2 ADD SWAP1 POP PUSH2 0x4790 JUMP JUMPDEST DUP4 DUP9 ADD SWAP6 POP POP POP JUMPDEST POP POP POP SWAP3 SWAP2 POP POP JUMP JUMPDEST PUSH1 0x0 PUSH2 0x47CC DUP3 DUP5 PUSH2 0x473D JUMP JUMPDEST SWAP2 POP DUP2 SWAP1 POP SWAP3 SWAP2 POP POP JUMP JUMPDEST PUSH32 0x4E487B7100000000000000000000000000000000000000000000000000000000 PUSH1 0x0 MSTORE PUSH1 0x32 PUSH1 0x4 MSTORE PUSH1 0x24 PUSH1 0x0 REVERT JUMPDEST PUSH32 0x4E487B7100000000000000000000000000000000000000000000000000000000 PUSH1 0x0 MSTORE PUSH1 0x11 PUSH1 0x4 MSTORE PUSH1 0x24 PUSH1 0x0 REVERT JUMPDEST PUSH1 0x0 PUSH2 0x4840 DUP3 PUSH2 0x39CF JUMP JUMPDEST SWAP2 POP PUSH32 0xFFFFFFFFFFFFFFFFFFFFFFFFFFFFFFFFFFFFFFFFFFFFFFFFFFFFFFFFFFFFFFFF DUP3 SUB PUSH2 0x4872 JUMPI PUSH2 0x4871 PUSH2 0x4806 JUMP JUMPDEST JUMPDEST PUSH1 0x1 DUP3 ADD SWAP1 POP SWAP2 SWAP1 POP JUMP JUMPDEST PUSH1 0x0 PUSH2 0x4888 DUP3 PUSH2 0x39CF JUMP JUMPDEST SWAP2 POP PUSH2 0x4893 DUP4 PUSH2 0x39CF JUMP JUMPDEST SWAP3 POP DUP3 DUP3 ADD SWAP1 POP DUP1 DUP3 GT ISZERO PUSH2 0x48AB JUMPI PUSH2 0x48AA PUSH2 0x4806 JUMP JUMPDEST JUMPDEST SWAP3 SWAP2 POP POP JUMP JUMPDEST PUSH1 0x0 DUP2 SWAP1 POP DUP2 PUSH1 0x0 MSTORE PUSH1 0x20 PUSH1 0x0 KECCAK256 SWAP1 POP SWAP2 SWAP1 POP JUMP JUMPDEST PUSH1 0x0 PUSH1 0x20 PUSH1 0x1F DUP4 ADD DIV SWAP1 POP SWAP2 SWAP1 POP JUMP JUMPDEST PUSH1 0x0 DUP3 DUP3 SHL SWAP1 POP SWAP3 SWAP2 POP POP JUMP JUMPDEST PUSH1 0x0 PUSH1 0x8 DUP4 MUL PUSH2 0x4913 PUSH32 0xFFFFFFFFFFFFFFFFFFFFFFFFFFFFFFFFFFFFFFFFFFFFFFFFFFFFFFFFFFFFFFFF DUP3 PUSH2 0x48D6 JUMP JUMPDEST PUSH2 0x491D DUP7 DUP4 PUSH2 0x48D6 JUMP JUMPDEST SWAP6 POP DUP1 NOT DUP5 AND SWAP4 POP DUP1 DUP7 AND DUP5 OR SWAP3 POP POP POP SWAP4 SWAP3 POP POP POP JUMP JUMPDEST PUSH1 0x0 DUP2 SWAP1 POP SWAP2 SWAP1 POP JUMP JUMPDEST PUSH1 0x0 PUSH2 0x495A PUSH2 0x4955 PUSH2 0x4950 DUP5 PUSH2 0x39CF JUMP JUMPDEST PUSH2 0x4935 JUMP JUMPDEST PUSH2 0x39CF JUMP JUMPDEST SWAP1 POP SWAP2 SWAP1 POP JUMP JUMPDEST PUSH1 0x0 DUP2 SWAP1 POP SWAP2 SWAP1 POP JUMP JUMPDEST PUSH2 0x4974 DUP4 PUSH2 0x493F JUMP JUMPDEST PUSH2 0x4988 PUSH2 0x4980 DUP3 PUSH2 0x4961 JUMP JUMPDEST DUP5 DUP5 SLOAD PUSH2 0x48E3 JUMP JUMPDEST DUP3 SSTORE POP POP POP POP JUMP JUMPDEST PUSH1 0x0 SWAP1 JUMP JUMPDEST PUSH2 0x499D PUSH2 0x4990 JUMP JUMPDEST PUSH2 0x49A8 DUP2 DUP5 DUP5 PUSH2 0x496B JUMP JUMPDEST POP POP POP JUMP JUMPDEST JUMPDEST DUP2 DUP2 LT ISZERO PUSH2 0x49CC JUMPI PUSH2 0x49C1 PUSH1 0x0 DUP3 PUSH2 0x4995 JUMP JUMPDEST PUSH1 0x1 DUP2 ADD SWAP1 POP PUSH2 0x49AE JUMP JUMPDEST POP POP JUMP JUMPDEST PUSH1 0x1F DUP3 GT ISZERO PUSH2 0x4A11 JUMPI PUSH2 0x49E2 DUP2 PUSH2 0x48B1 JUMP JUMPDEST PUSH2 0x49EB DUP5 PUSH2 0x48C6 JUMP JUMPDEST DUP2 ADD PUSH1 0x20 DUP6 LT ISZERO PUSH2 0x49FA JUMPI DUP2 SWAP1 POP JUMPDEST PUSH2 0x4A0E PUSH2 0x4A06 DUP6 PUSH2 0x48C6 JUMP JUMPDEST DUP4 ADD DUP3 PUSH2 0x49AD JUMP JUMPDEST POP POP JUMPDEST POP POP POP JUMP JUMPDEST PUSH1 0x0 DUP3 DUP3 SHR SWAP1 POP SWAP3 SWAP2 POP POP JUMP JUMPDEST PUSH1 0x0 PUSH2 0x4A34 PUSH1 0x0 NOT DUP5 PUSH1 0x8 MUL PUSH2 0x4A16 JUMP JUMPDEST NOT DUP1 DUP4 AND SWAP2 POP POP SWAP3 SWAP2 POP POP JUMP JUMPDEST PUSH1 0x0 PUSH2 0x4A4D DUP4 DUP4 PUSH2 0x4A23 JUMP JUMPDEST SWAP2 POP DUP3 PUSH1 0x2 MUL DUP3 OR SWAP1 POP SWAP3 SWAP2 POP POP JUMP JUMPDEST PUSH2 0x4A66 DUP3 PUSH2 0x3898 JUMP JUMPDEST PUSH8 0xFFFFFFFFFFFFFFFF DUP2 GT ISZERO PUSH2 0x4A7F JUMPI PUSH2 0x4A7E PUSH2 0x36F8 JUMP JUMPDEST JUMPDEST PUSH2 0x4A89 DUP3 SLOAD PUSH2 0x46EC JUMP JUMPDEST PUSH2 0x4A94 DUP3 DUP3 DUP6 PUSH2 0x49D0 JUMP JUMPDEST PUSH1 0x0 PUSH1 0x20 SWAP1 POP PUSH1 0x1F DUP4 GT PUSH1 0x1 DUP2 EQ PUSH2 0x4AC7 JUMPI PUSH1 0x0 DUP5 ISZERO PUSH2 0x4AB5 JUMPI DUP3 DUP8 ADD MLOAD SWAP1 POP JUMPDEST PUSH2 0x4ABF DUP6 DUP3 PUSH2 0x4A41 JUMP JUMPDEST DUP7 SSTORE POP PUSH2 0x4B27 JUMP JUMPDEST PUSH1 0x1F NOT DUP5 AND PUSH2 0x4AD5 DUP7 PUSH2 0x48B1 JUMP JUMPDEST PUSH1 0x0 JUMPDEST DUP3 DUP2 LT ISZERO PUSH2 0x4AFD JUMPI DUP5 DUP10 ADD MLOAD DUP3 SSTORE PUSH1 0x1 DUP3 ADD SWAP2 POP PUSH1 0x20 DUP6 ADD SWAP5 POP PUSH1 0x20 DUP2 ADD SWAP1 POP PUSH2 0x4AD8 JUMP JUMPDEST DUP7 DUP4 LT ISZERO PUSH2 0x4B1A JUMPI DUP5 DUP10 ADD MLOAD PUSH2 0x4B16 PUSH1 0x1F DUP10 AND DUP3 PUSH2 0x4A23 JUMP JUMPDEST DUP4 SSTORE POP JUMPDEST PUSH1 0x1 PUSH1 0x2 DUP9 MUL ADD DUP9 SSTORE POP POP POP JUMPDEST POP POP POP POP POP POP JUMP JUMPDEST PUSH32 0x4E487B7100000000000000000000000000000000000000000000000000000000 PUSH1 0x0 MSTORE PUSH1 0x12 PUSH1 0x4 MSTORE PUSH1 0x24 PUSH1 0x0 REVERT INVALID LOG2 PUSH5 0x6970667358 0x22 SLT KECCAK256 GT JUMP PUSH12 0x5C8EF08A9838007266A3F1D7 SWAP10 0x4D 0xA7 0x2A 0xAF 0xD5 PUSH23 0x4C44DD81E76377F03CCC64736F6C634300081100330000 "},"gasEstimates":{"creation":{"codeDepositCost":"3869600","executionCost":"4395","totalCost":"3873995"},"external":{"_dao_ids()":"2519","_dao_uris(uint256)":"infinite","_donated(uint256)":"infinite","_donations(uint256)":"infinite","_donations_ids()":"2517","_feed_ids()":"2542","_feeds(uint256)":"infinite","_goal_ids()":"2498","_goal_uris(uint256)":"infinite","_ideas_ids()":"2518","_ideas_uris(uint256)":"infinite","_ideas_vote_ids()":"2498","_join_ids()":"2521","_joined_person(uint256)":"infinite","_message_ids()":"2541","_message_read_ids()":"2540","_reply_ids()":"2563","_smart_contract_ids()":"2520","_smart_contracts_uris(uint256)":"infinite","_template_uris(uint256)":"infinite","_user_badges(uint256)":"infinite","add_Feed(string,string)":"infinite","add_donation(uint256,uint256,uint256,string,string)":"infinite","all_goal_ideas_votes(uint256)":"infinite","all_messages(uint256)":"infinite","all_read_messages(uint256)":"infinite","all_replies(uint256)":"infinite","create_dao(string,string,string,uint256)":"infinite","create_goal(string,string,uint256,string)":"infinite","create_goal_ideas_vote(uint256,uint256,uint256,string,bool)":"infinite","create_ideas(string,uint256,string[],uint256,string)":"infinite","dao_uri(uint256)":"infinite","getMsgIDs(uint256)":"infinite","getReadMsg(uint256,string)":"infinite","getReplyIDs(uint256)":"infinite","get_all_daos()":"infinite","get_all_goals()":"infinite","get_all_goals_by_dao_id(string)":"infinite","get_all_ideas()":"infinite","get_all_ideas_by_goal_id(uint256)":"infinite","get_dao_id_by_ideas_id(uint256)":"infinite","get_goal_id_by_goal_uri(string)":"infinite","get_goal_id_from_ideas_uri(string)":"infinite","get_ideas_id_by_ideas_uri(string)":"infinite","get_ideas_votes_from_goal(uint256,uint256)":"infinite","get_person_joinedID(uint256,uint256)":"infinite","goal_uri(uint256)":"infinite","ideas_uri(uint256)":"infinite","is_person_joined(uint256,uint256)":"infinite","join_community(uint256,uint256,string)":"infinite","leave_community(uint256)":"44906","reset_all()":"infinite","sendMsg(uint256,string,string,uint256)":"infinite","sendReadMsg(uint256,uint256,uint256,string)":"infinite","sendReply(uint256,string,uint256,uint256)":"infinite","set_dao(uint256,string,string)":"infinite","set_goal(uint256,string)":"infinite","set_ideas(uint256,string)":"infinite","update_template(uint256,string)":"infinite"},"internal":{"create_ideas_smart_contract(uint256,uint256,string memory)":"infinite"}},"methodIdentifiers":{"_dao_ids()":"7bbd582d","_dao_uris(uint256)":"27a568b9","_donated(uint256)":"20959ed0","_donations(uint256)":"7fc543ec","_donations_ids()":"ec245802","_feed_ids()":"8ac4110c","_feeds(uint256)":"54a9fb18","_goal_ids()":"13bf4cea","_goal_uris(uint256)":"7f2035d4","_ideas_ids()":"d3791b20","_ideas_uris(uint256)":"468d0c80","_ideas_vote_ids()":"4a797bd7","_join_ids()":"1171b621","_joined_person(uint256)":"330b8f26","_message_ids()":"9077007d","_message_read_ids()":"ca013f17","_reply_ids()":"aa2bf5d3","_smart_contract_ids()":"1b592aeb","_smart_contracts_uris(uint256)":"ff4a37ef","_template_uris(uint256)":"6ecda4ee","_user_badges(uint256)":"a428a47f","add_Feed(string,string)":"bda00335","add_donation(uint256,uint256,uint256,string,string)":"5996278f","all_goal_ideas_votes(uint256)":"1ba44c4c","all_messages(uint256)":"b527d45e","all_read_messages(uint256)":"cace8d46","all_replies(uint256)":"3f87a2f4","create_dao(string,string,string,uint256)":"86ffa45b","create_goal(string,string,uint256,string)":"b39a38bd","create_goal_ideas_vote(uint256,uint256,uint256,string,bool)":"ecde3243","create_ideas(string,uint256,string[],uint256,string)":"e1b011a0","dao_uri(uint256)":"5d907da1","getMsgIDs(uint256)":"803f5b9f","getReadMsg(uint256,string)":"cd230809","getReplyIDs(uint256)":"812fae1f","get_all_daos()":"c04fe978","get_all_goals()":"29b56f60","get_all_goals_by_dao_id(string)":"0377d44a","get_all_ideas()":"97ee7606","get_all_ideas_by_goal_id(uint256)":"131d44f2","get_dao_id_by_ideas_id(uint256)":"38a512d9","get_goal_id_by_goal_uri(string)":"1e9ac9f5","get_goal_id_from_ideas_uri(string)":"aa4cdf2a","get_ideas_id_by_ideas_uri(string)":"a1ca9178","get_ideas_votes_from_goal(uint256,uint256)":"4be7adb5","get_person_joinedID(uint256,uint256)":"b604efaa","goal_uri(uint256)":"e32acc1a","ideas_uri(uint256)":"8d3d2595","is_person_joined(uint256,uint256)":"7a82b1d6","join_community(uint256,uint256,string)":"8c70034a","leave_community(uint256)":"826eeefe","reset_all()":"b16060a6","sendMsg(uint256,string,string,uint256)":"787f19c7","sendReadMsg(uint256,uint256,uint256,string)":"934c5f00","sendReply(uint256,string,uint256,uint256)":"d9fc52db","set_dao(uint256,string,string)":"881de858","set_goal(uint256,string)":"c29595c5","set_ideas(uint256,string)":"c04e7430","update_template(uint256,string)":"87633eb2"}},"storageLayout":{"storage":[{"astId":2030,"contract":"contracts/PlanetDAO.sol:PlanetDAO","label":"_dao_ids","offset":0,"slot":"0","type":"t_uint256"},{"astId":2032,"contract":"contracts/PlanetDAO.sol:PlanetDAO","label":"_donations_ids","offset":0,"slot":"1","type":"t_uint256"},{"astId":2034,"contract":"contracts/PlanetDAO.sol:PlanetDAO","label":"_goal_ids","offset":0,"slot":"2","type":"t_uint256"},{"astId":2036,"contract":"contracts/PlanetDAO.sol:PlanetDAO","label":"_ideas_ids","offset":0,"slot":"3","type":"t_uint256"},{"astId":2038,"contract":"contracts/PlanetDAO.sol:PlanetDAO","label":"_join_ids","offset":0,"slot":"4","type":"t_uint256"},{"astId":2040,"contract":"contracts/PlanetDAO.sol:PlanetDAO","label":"_smart_contract_ids","offset":0,"slot":"5","type":"t_uint256"},{"astId":2042,"contract":"contracts/PlanetDAO.sol:PlanetDAO","label":"_ideas_vote_ids","offset":0,"slot":"6","type":"t_uint256"},{"astId":2044,"contract":"contracts/PlanetDAO.sol:PlanetDAO","label":"_message_ids","offset":0,"slot":"7","type":"t_uint256"},{"astId":2046,"contract":"contracts/PlanetDAO.sol:PlanetDAO","label":"_message_read_ids","offset":0,"slot":"8","type":"t_uint256"},{"astId":2048,"contract":"contracts/PlanetDAO.sol:PlanetDAO","label":"_reply_ids","offset":0,"slot":"9","type":"t_uint256"},{"astId":2050,"contract":"contracts/PlanetDAO.sol:PlanetDAO","label":"_feed_ids","offset":0,"slot":"10","type":"t_uint256"},{"astId":2055,"contract":"contracts/PlanetDAO.sol:PlanetDAO","label":"_dao_uris","offset":0,"slot":"11","type":"t_mapping(t_uint256,t_struct(dao_uri_struct)1930_storage)"},{"astId":2059,"contract":"contracts/PlanetDAO.sol:PlanetDAO","label":"_template_uris","offset":0,"slot":"12","type":"t_mapping(t_uint256,t_string_storage)"},{"astId":2064,"contract":"contracts/PlanetDAO.sol:PlanetDAO","label":"_joined_person","offset":0,"slot":"13","type":"t_mapping(t_uint256,t_struct(join_struct)2000_storage)"},{"astId":2069,"contract":"contracts/PlanetDAO.sol:PlanetDAO","label":"_goal_uris","offset":0,"slot":"14","type":"t_mapping(t_uint256,t_struct(goal_uri_struct)1935_storage)"},{"astId":2074,"contract":"contracts/PlanetDAO.sol:PlanetDAO","label":"_ideas_uris","offset":0,"slot":"15","type":"t_mapping(t_uint256,t_struct(ideas_uri_struct)1942_storage)"},{"astId":2078,"contract":"contracts/PlanetDAO.sol:PlanetDAO","label":"_donated","offset":0,"slot":"16","type":"t_mapping(t_uint256,t_uint256)"},{"astId":2083,"contract":"contracts/PlanetDAO.sol:PlanetDAO","label":"_feeds","offset":0,"slot":"17","type":"t_mapping(t_uint256,t_struct(feed_struct)2028_storage)"},{"astId":2088,"contract":"contracts/PlanetDAO.sol:PlanetDAO","label":"_donations","offset":0,"slot":"18","type":"t_mapping(t_uint256,t_struct(donation_struct)1949_storage)"},{"astId":2093,"contract":"contracts/PlanetDAO.sol:PlanetDAO","label":"_smart_contracts_uris","offset":0,"slot":"19","type":"t_mapping(t_uint256,t_struct(smart_contract_uri_struct)1956_storage)"},{"astId":2098,"contract":"contracts/PlanetDAO.sol:PlanetDAO","label":"all_goal_ideas_votes","offset":0,"slot":"20","type":"t_mapping(t_uint256,t_struct(goal_ideas_votes_struct)1963_storage)"},{"astId":2103,"contract":"contracts/PlanetDAO.sol:PlanetDAO","label":"all_messages","offset":0,"slot":"21","type":"t_mapping(t_uint256,t_struct(message_struct)1972_storage)"},{"astId":2108,"contract":"contracts/PlanetDAO.sol:PlanetDAO","label":"all_read_messages","offset":0,"slot":"22","type":"t_mapping(t_uint256,t_struct(message_read_struct)1981_storage)"},{"astId":2113,"contract":"contracts/PlanetDAO.sol:PlanetDAO","label":"all_replies","offset":0,"slot":"23","type":"t_mapping(t_uint256,t_struct(reply_struct)1990_storage)"},{"astId":2118,"contract":"contracts/PlanetDAO.sol:PlanetDAO","label":"_user_badges","offset":0,"slot":"24","type":"t_mapping(t_uint256,t_struct(user_badge_struct)2019_storage)"}],"types":{"t_bool":{"encoding":"inplace","label":"bool","numberOfBytes":"1"},"t_mapping(t_uint256,t_string_storage)":{"encoding":"mapping","key":"t_uint256","label":"mapping(uint256 => string)","numberOfBytes":"32","value":"t_string_storage"},"t_mapping(t_uint256,t_struct(dao_uri_struct)1930_storage)":{"encoding":"mapping","key":"t_uint256","label":"mapping(uint256 => struct PlanetDAO.dao_uri_struct)","numberOfBytes":"32","value":"t_struct(dao_uri_struct)1930_storage"},"t_mapping(t_uint256,t_struct(donation_struct)1949_storage)":{"encoding":"mapping","key":"t_uint256","label":"mapping(uint256 => struct PlanetDAO.donation_struct)","numberOfBytes":"32","value":"t_struct(donation_struct)1949_storage"},"t_mapping(t_uint256,t_struct(feed_struct)2028_storage)":{"encoding":"mapping","key":"t_uint256","label":"mapping(uint256 => struct PlanetDAO.feed_struct)","numberOfBytes":"32","value":"t_struct(feed_struct)2028_storage"},"t_mapping(t_uint256,t_struct(goal_ideas_votes_struct)1963_storage)":{"encoding":"mapping","key":"t_uint256","label":"mapping(uint256 => struct PlanetDAO.goal_ideas_votes_struct)","numberOfBytes":"32","value":"t_struct(goal_ideas_votes_struct)1963_storage"},"t_mapping(t_uint256,t_struct(goal_uri_struct)1935_storage)":{"encoding":"mapping","key":"t_uint256","label":"mapping(uint256 => struct PlanetDAO.goal_uri_struct)","numberOfBytes":"32","value":"t_struct(goal_uri_struct)1935_storage"},"t_mapping(t_uint256,t_struct(ideas_uri_struct)1942_storage)":{"encoding":"mapping","key":"t_uint256","label":"mapping(uint256 => struct PlanetDAO.ideas_uri_struct)","numberOfBytes":"32","value":"t_struct(ideas_uri_struct)1942_storage"},"t_mapping(t_uint256,t_struct(join_struct)2000_storage)":{"encoding":"mapping","key":"t_uint256","label":"mapping(uint256 => struct PlanetDAO.join_struct)","numberOfBytes":"32","value":"t_struct(join_struct)2000_storage"},"t_mapping(t_uint256,t_struct(message_read_struct)1981_storage)":{"encoding":"mapping","key":"t_uint256","label":"mapping(uint256 => struct PlanetDAO.message_read_struct)","numberOfBytes":"32","value":"t_struct(message_read_struct)1981_storage"},"t_mapping(t_uint256,t_struct(message_struct)1972_storage)":{"encoding":"mapping","key":"t_uint256","label":"mapping(uint256 => struct PlanetDAO.message_struct)","numberOfBytes":"32","value":"t_struct(message_struct)1972_storage"},"t_mapping(t_uint256,t_struct(reply_struct)1990_storage)":{"encoding":"mapping","key":"t_uint256","label":"mapping(uint256 => struct PlanetDAO.reply_struct)","numberOfBytes":"32","value":"t_struct(reply_struct)1990_storage"},"t_mapping(t_uint256,t_struct(smart_contract_uri_struct)1956_storage)":{"encoding":"mapping","key":"t_uint256","label":"mapping(uint256 => struct PlanetDAO.smart_contract_uri_struct)","numberOfBytes":"32","value":"t_struct(smart_contract_uri_struct)1956_storage"},"t_mapping(t_uint256,t_struct(user_badge_struct)2019_storage)":{"encoding":"mapping","key":"t_uint256","label":"mapping(uint256 => struct PlanetDAO.user_badge_struct)","numberOfBytes":"32","value":"t_struct(user_badge_struct)2019_storage"},"t_mapping(t_uint256,t_uint256)":{"encoding":"mapping","key":"t_uint256","label":"mapping(uint256 => uint256)","numberOfBytes":"32","value":"t_uint256"},"t_string_storage":{"encoding":"bytes","label":"string","numberOfBytes":"32"},"t_struct(dao_uri_struct)1930_storage":{"encoding":"inplace","label":"struct PlanetDAO.dao_uri_struct","members":[{"astId":1925,"contract":"contracts/PlanetDAO.sol:PlanetDAO","label":"dao_wallet","offset":0,"slot":"0","type":"t_string_storage"},{"astId":1927,"contract":"contracts/PlanetDAO.sol:PlanetDAO","label":"dao_uri","offset":0,"slot":"1","type":"t_string_storage"},{"astId":1929,"contract":"contracts/PlanetDAO.sol:PlanetDAO","label":"finished","offset":0,"slot":"2","type":"t_string_storage"}],"numberOfBytes":"96"},"t_struct(donation_struct)1949_storage":{"encoding":"inplace","label":"struct PlanetDAO.donation_struct","members":[{"astId":1944,"contract":"contracts/PlanetDAO.sol:PlanetDAO","label":"ideas_id","offset":0,"slot":"0","type":"t_uint256"},{"astId":1946,"contract":"contracts/PlanetDAO.sol:PlanetDAO","label":"userid","offset":0,"slot":"1","type":"t_uint256"},{"astId":1948,"contract":"contracts/PlanetDAO.sol:PlanetDAO","label":"donation","offset":0,"slot":"2","type":"t_uint256"}],"numberOfBytes":"96"},"t_struct(feed_struct)2028_storage":{"encoding":"inplace","label":"struct PlanetDAO.feed_struct","members":[{"astId":2021,"contract":"contracts/PlanetDAO.sol:PlanetDAO","label":"feed_id","offset":0,"slot":"0","type":"t_uint256"},{"astId":2023,"contract":"contracts/PlanetDAO.sol:PlanetDAO","label":"date","offset":0,"slot":"1","type":"t_uint256"},{"astId":2025,"contract":"contracts/PlanetDAO.sol:PlanetDAO","label":"Type","offset":0,"slot":"2","type":"t_string_storage"},{"astId":2027,"contract":"contracts/PlanetDAO.sol:PlanetDAO","label":"data","offset":0,"slot":"3","type":"t_string_storage"}],"numberOfBytes":"128"},"t_struct(goal_ideas_votes_struct)1963_storage":{"encoding":"inplace","label":"struct PlanetDAO.goal_ideas_votes_struct","members":[{"astId":1958,"contract":"contracts/PlanetDAO.sol:PlanetDAO","label":"goal_id","offset":0,"slot":"0","type":"t_uint256"},{"astId":1960,"contract":"contracts/PlanetDAO.sol:PlanetDAO","label":"ideas_id","offset":0,"slot":"1","type":"t_uint256"},{"astId":1962,"contract":"contracts/PlanetDAO.sol:PlanetDAO","label":"user_id","offset":0,"slot":"2","type":"t_uint256"}],"numberOfBytes":"96"},"t_struct(goal_uri_struct)1935_storage":{"encoding":"inplace","label":"struct PlanetDAO.goal_uri_struct","members":[{"astId":1932,"contract":"contracts/PlanetDAO.sol:PlanetDAO","label":"dao_id","offset":0,"slot":"0","type":"t_string_storage"},{"astId":1934,"contract":"contracts/PlanetDAO.sol:PlanetDAO","label":"goal_uri","offset":0,"slot":"1","type":"t_string_storage"}],"numberOfBytes":"64"},"t_struct(ideas_uri_struct)1942_storage":{"encoding":"inplace","label":"struct PlanetDAO.ideas_uri_struct","members":[{"astId":1937,"contract":"contracts/PlanetDAO.sol:PlanetDAO","label":"goal_id","offset":0,"slot":"0","type":"t_uint256"},{"astId":1939,"contract":"contracts/PlanetDAO.sol:PlanetDAO","label":"ideas_uri","offset":0,"slot":"1","type":"t_string_storage"},{"astId":1941,"contract":"contracts/PlanetDAO.sol:PlanetDAO","label":"donation","offset":0,"slot":"2","type":"t_uint256"}],"numberOfBytes":"96"},"t_struct(join_struct)2000_storage":{"encoding":"inplace","label":"struct PlanetDAO.join_struct","members":[{"astId":1997,"contract":"contracts/PlanetDAO.sol:PlanetDAO","label":"daoid","offset":0,"slot":"0","type":"t_uint256"},{"astId":1999,"contract":"contracts/PlanetDAO.sol:PlanetDAO","label":"user_id","offset":0,"slot":"1","type":"t_uint256"}],"numberOfBytes":"64"},"t_struct(message_read_struct)1981_storage":{"encoding":"inplace","label":"struct PlanetDAO.message_read_struct","members":[{"astId":1974,"contract":"contracts/PlanetDAO.sol:PlanetDAO","label":"message_id","offset":0,"slot":"0","type":"t_uint256"},{"astId":1976,"contract":"contracts/PlanetDAO.sol:PlanetDAO","label":"ideas_id","offset":0,"slot":"1","type":"t_uint256"},{"astId":1978,"contract":"contracts/PlanetDAO.sol:PlanetDAO","label":"user_id","offset":0,"slot":"2","type":"t_uint256"},{"astId":1980,"contract":"contracts/PlanetDAO.sol:PlanetDAO","label":"msg_type","offset":0,"slot":"3","type":"t_string_storage"}],"numberOfBytes":"128"},"t_struct(message_struct)1972_storage":{"encoding":"inplace","label":"struct PlanetDAO.message_struct","members":[{"astId":1965,"contract":"contracts/PlanetDAO.sol:PlanetDAO","label":"message_id","offset":0,"slot":"0","type":"t_uint256"},{"astId":1967,"contract":"contracts/PlanetDAO.sol:PlanetDAO","label":"ideas_id","offset":0,"slot":"1","type":"t_uint256"},{"astId":1969,"contract":"contracts/PlanetDAO.sol:PlanetDAO","label":"message","offset":0,"slot":"2","type":"t_string_storage"},{"astId":1971,"contract":"contracts/PlanetDAO.sol:PlanetDAO","label":"sender","offset":0,"slot":"3","type":"t_string_storage"}],"numberOfBytes":"128"},"t_struct(reply_struct)1990_storage":{"encoding":"inplace","label":"struct PlanetDAO.reply_struct","members":[{"astId":1983,"contract":"contracts/PlanetDAO.sol:PlanetDAO","label":"reply_id","offset":0,"slot":"0","type":"t_uint256"},{"astId":1985,"contract":"contracts/PlanetDAO.sol:PlanetDAO","label":"message_id","offset":0,"slot":"1","type":"t_uint256"},{"astId":1987,"contract":"contracts/PlanetDAO.sol:PlanetDAO","label":"ideas_id","offset":0,"slot":"2","type":"t_uint256"},{"astId":1989,"contract":"contracts/PlanetDAO.sol:PlanetDAO","label":"message","offset":0,"slot":"3","type":"t_string_storage"}],"numberOfBytes":"128"},"t_struct(smart_contract_uri_struct)1956_storage":{"encoding":"inplace","label":"struct PlanetDAO.smart_contract_uri_struct","members":[{"astId":1951,"contract":"contracts/PlanetDAO.sol:PlanetDAO","label":"smart_contract_id","offset":0,"slot":"0","type":"t_uint256"},{"astId":1953,"contract":"contracts/PlanetDAO.sol:PlanetDAO","label":"ideas_id","offset":0,"slot":"1","type":"t_uint256"},{"astId":1955,"contract":"contracts/PlanetDAO.sol:PlanetDAO","label":"smart_contract_uri","offset":0,"slot":"2","type":"t_string_storage"}],"numberOfBytes":"96"},"t_struct(user_badge_struct)2019_storage":{"encoding":"inplace","label":"struct PlanetDAO.user_badge_struct","members":[{"astId":2002,"contract":"contracts/PlanetDAO.sol:PlanetDAO","label":"user_id","offset":0,"slot":"0","type":"t_uint256"},{"astId":2004,"contract":"contracts/PlanetDAO.sol:PlanetDAO","label":"dao","offset":0,"slot":"1","type":"t_bool"},{"astId":2006,"contract":"contracts/PlanetDAO.sol:PlanetDAO","label":"joined","offset":1,"slot":"1","type":"t_bool"},{"astId":2008,"contract":"contracts/PlanetDAO.sol:PlanetDAO","label":"goal","offset":2,"slot":"1","type":"t_bool"},{"astId":2010,"contract":"contracts/PlanetDAO.sol:PlanetDAO","label":"ideas","offset":3,"slot":"1","type":"t_bool"},{"astId":2012,"contract":"contracts/PlanetDAO.sol:PlanetDAO","label":"vote","offset":4,"slot":"1","type":"t_bool"},{"astId":2014,"contract":"contracts/PlanetDAO.sol:PlanetDAO","label":"donation","offset":5,"slot":"1","type":"t_bool"},{"astId":2016,"contract":"contracts/PlanetDAO.sol:PlanetDAO","label":"comment","offset":6,"slot":"1","type":"t_bool"},{"astId":2018,"contract":"contracts/PlanetDAO.sol:PlanetDAO","label":"reply","offset":7,"slot":"1","type":"t_bool"}],"numberOfBytes":"64"},"t_uint256":{"encoding":"inplace","label":"uint256","numberOfBytes":"32"}}},"userdoc":{"kind":"user","methods":{},"version":1}}}}