{"contracts/PlanetDAO.sol":{"PlanetDAO":{"abi":[{"inputs":[],"name":"_dao_ids","outputs":[{"internalType":"uint256","name":"","type":"uint256"}],"stateMutability":"view","type":"function"},{"inputs":[{"internalType":"uint256","name":"","type":"uint256"}],"name":"_dao_uris","outputs":[{"internalType":"string","name":"dao_wallet","type":"string"},{"internalType":"string","name":"dao_uri","type":"string"},{"internalType":"string","name":"finished","type":"string"}],"stateMutability":"view","type":"function"},{"inputs":[{"internalType":"string","name":"","type":"string"}],"name":"_donated","outputs":[{"internalType":"uint256","name":"","type":"uint256"}],"stateMutability":"view","type":"function"},{"inputs":[{"internalType":"uint256","name":"","type":"uint256"}],"name":"_donations","outputs":[{"internalType":"uint256","name":"ideas_id","type":"uint256"},{"internalType":"string","name":"wallet","type":"string"},{"internalType":"uint256","name":"donation","type":"uint256"}],"stateMutability":"view","type":"function"},{"inputs":[],"name":"_donations_ids","outputs":[{"internalType":"uint256","name":"","type":"uint256"}],"stateMutability":"view","type":"function"},{"inputs":[],"name":"_goal_ids","outputs":[{"internalType":"uint256","name":"","type":"uint256"}],"stateMutability":"view","type":"function"},{"inputs":[{"internalType":"uint256","name":"","type":"uint256"}],"name":"_goal_uris","outputs":[{"internalType":"uint256","name":"dao_id","type":"uint256"},{"internalType":"string","name":"goal_uri","type":"string"}],"stateMutability":"view","type":"function"},{"inputs":[],"name":"_ideas_ids","outputs":[{"internalType":"uint256","name":"","type":"uint256"}],"stateMutability":"view","type":"function"},{"inputs":[{"internalType":"uint256","name":"","type":"uint256"}],"name":"_ideas_uris","outputs":[{"internalType":"uint256","name":"goal_id","type":"uint256"},{"internalType":"string","name":"ideas_uri","type":"string"},{"internalType":"uint256","name":"donation","type":"uint256"}],"stateMutability":"view","type":"function"},{"inputs":[],"name":"_ideas_vote_ids","outputs":[{"internalType":"uint256","name":"","type":"uint256"}],"stateMutability":"view","type":"function"},{"inputs":[],"name":"_join_ids","outputs":[{"internalType":"uint256","name":"","type":"uint256"}],"stateMutability":"view","type":"function"},{"inputs":[{"internalType":"uint256","name":"","type":"uint256"}],"name":"_joined_person","outputs":[{"internalType":"uint256","name":"daoid","type":"uint256"},{"internalType":"string","name":"wallet","type":"string"}],"stateMutability":"view","type":"function"},{"inputs":[],"name":"_message_ids","outputs":[{"internalType":"uint256","name":"","type":"uint256"}],"stateMutability":"view","type":"function"},{"inputs":[],"name":"_message_read_ids","outputs":[{"internalType":"uint256","name":"","type":"uint256"}],"stateMutability":"view","type":"function"},{"inputs":[],"name":"_reply_ids","outputs":[{"internalType":"uint256","name":"","type":"uint256"}],"stateMutability":"view","type":"function"},{"inputs":[],"name":"_smart_contract_ids","outputs":[{"internalType":"uint256","name":"","type":"uint256"}],"stateMutability":"view","type":"function"},{"inputs":[{"internalType":"uint256","name":"","type":"uint256"}],"name":"_smart_contracts_uris","outputs":[{"internalType":"uint256","name":"smart_contract_id","type":"uint256"},{"internalType":"uint256","name":"ideas_id","type":"uint256"},{"internalType":"string","name":"smart_contract_uri","type":"string"}],"stateMutability":"view","type":"function"},{"inputs":[{"internalType":"uint256","name":"","type":"uint256"}],"name":"_template_uris","outputs":[{"internalType":"string","name":"","type":"string"}],"stateMutability":"view","type":"function"},{"inputs":[{"internalType":"string","name":"","type":"string"}],"name":"_user_badges","outputs":[{"internalType":"string","name":"wallet","type":"string"},{"internalType":"bool","name":"dao","type":"bool"},{"internalType":"bool","name":"joined","type":"bool"},{"internalType":"bool","name":"goal","type":"bool"},{"internalType":"bool","name":"ideas","type":"bool"},{"internalType":"bool","name":"vote","type":"bool"},{"internalType":"bool","name":"donation","type":"bool"},{"internalType":"bool","name":"comment","type":"bool"},{"internalType":"bool","name":"reply","type":"bool"}],"stateMutability":"view","type":"function"},{"inputs":[],"name":"addTempData","outputs":[],"stateMutability":"nonpayable","type":"function"},{"inputs":[{"internalType":"uint256","name":"_ideas_id","type":"uint256"},{"internalType":"uint256","name":"_doantion","type":"uint256"},{"internalType":"string","name":"_donator","type":"string"}],"name":"add_donation","outputs":[],"stateMutability":"nonpayable","type":"function"},{"inputs":[{"internalType":"uint256","name":"","type":"uint256"}],"name":"all_goal_ideas_votes","outputs":[{"internalType":"uint256","name":"goal_id","type":"uint256"},{"internalType":"uint256","name":"ideas_id","type":"uint256"},{"internalType":"string","name":"wallet","type":"string"}],"stateMutability":"view","type":"function"},{"inputs":[{"internalType":"uint256","name":"","type":"uint256"}],"name":"all_messages","outputs":[{"internalType":"uint256","name":"message_id","type":"uint256"},{"internalType":"uint256","name":"ideas_id","type":"uint256"},{"internalType":"string","name":"message","type":"string"},{"internalType":"string","name":"sender","type":"string"}],"stateMutability":"view","type":"function"},{"inputs":[{"internalType":"uint256","name":"","type":"uint256"}],"name":"all_read_messages","outputs":[{"internalType":"uint256","name":"message_id","type":"uint256"},{"internalType":"uint256","name":"ideas_id","type":"uint256"},{"internalType":"string","name":"wallet","type":"string"},{"internalType":"string","name":"msg_type","type":"string"}],"stateMutability":"view","type":"function"},{"inputs":[{"internalType":"uint256","name":"","type":"uint256"}],"name":"all_replies","outputs":[{"internalType":"uint256","name":"reply_id","type":"uint256"},{"internalType":"uint256","name":"message_id","type":"uint256"},{"internalType":"uint256","name":"ideas_id","type":"uint256"},{"internalType":"string","name":"message","type":"string"}],"stateMutability":"view","type":"function"},{"inputs":[{"internalType":"string","name":"_dao_wallet","type":"string"},{"internalType":"string","name":"_dao_uri","type":"string"},{"internalType":"string","name":"_template","type":"string"}],"name":"create_dao","outputs":[{"internalType":"uint256","name":"","type":"uint256"}],"stateMutability":"nonpayable","type":"function"},{"inputs":[{"internalType":"string","name":"_goal_uri","type":"string"},{"internalType":"uint256","name":"_dao_id","type":"uint256"},{"internalType":"string","name":"_wallet","type":"string"}],"name":"create_goal","outputs":[{"internalType":"uint256","name":"","type":"uint256"}],"stateMutability":"nonpayable","type":"function"},{"inputs":[{"internalType":"uint256","name":"_goal_id","type":"uint256"},{"internalType":"uint256","name":"_ideas_id","type":"uint256"},{"internalType":"string","name":"_wallet","type":"string"}],"name":"create_goal_ideas_vote","outputs":[{"internalType":"uint256","name":"","type":"uint256"}],"stateMutability":"nonpayable","type":"function"},{"inputs":[{"internalType":"string","name":"_ideas_uri","type":"string"},{"internalType":"uint256","name":"_goal_id","type":"uint256"},{"internalType":"string[]","name":"_smart_contracts","type":"string[]"},{"internalType":"string","name":"_wallet","type":"string"}],"name":"create_ideas","outputs":[{"internalType":"uint256","name":"","type":"uint256"}],"stateMutability":"nonpayable","type":"function"},{"inputs":[{"internalType":"uint256","name":"_dao_id","type":"uint256"}],"name":"dao_uri","outputs":[{"internalType":"string","name":"","type":"string"}],"stateMutability":"view","type":"function"},{"inputs":[{"internalType":"uint256","name":"ideas_id","type":"uint256"}],"name":"getMsgIDs","outputs":[{"internalType":"uint256[]","name":"","type":"uint256[]"}],"stateMutability":"view","type":"function"},{"inputs":[{"internalType":"uint256","name":"_message_id","type":"uint256"},{"internalType":"string","name":"msg_type","type":"string"}],"name":"getReadMsg","outputs":[{"internalType":"bool","name":"","type":"bool"}],"stateMutability":"view","type":"function"},{"inputs":[{"internalType":"uint256","name":"message_id","type":"uint256"}],"name":"getReplyIDs","outputs":[{"internalType":"uint256[]","name":"","type":"uint256[]"}],"stateMutability":"view","type":"function"},{"inputs":[],"name":"get_all_daos","outputs":[{"internalType":"string[]","name":"","type":"string[]"}],"stateMutability":"view","type":"function"},{"inputs":[],"name":"get_all_goals","outputs":[{"internalType":"string[]","name":"","type":"string[]"}],"stateMutability":"view","type":"function"},{"inputs":[{"internalType":"uint256","name":"_dao_id","type":"uint256"}],"name":"get_all_goals_by_dao_id","outputs":[{"internalType":"string[]","name":"","type":"string[]"}],"stateMutability":"view","type":"function"},{"inputs":[],"name":"get_all_ideas","outputs":[{"internalType":"string[]","name":"","type":"string[]"}],"stateMutability":"view","type":"function"},{"inputs":[{"internalType":"uint256","name":"_goal_id","type":"uint256"}],"name":"get_all_ideas_by_goal_id","outputs":[{"internalType":"string[]","name":"","type":"string[]"}],"stateMutability":"view","type":"function"},{"inputs":[{"internalType":"string","name":"_goal_uri","type":"string"}],"name":"get_goal_id_by_goal_uri","outputs":[{"internalType":"uint256","name":"","type":"uint256"}],"stateMutability":"view","type":"function"},{"inputs":[{"internalType":"string","name":"_ideas_uri","type":"string"}],"name":"get_goal_id_from_ideas_uri","outputs":[{"internalType":"uint256","name":"","type":"uint256"}],"stateMutability":"view","type":"function"},{"inputs":[{"internalType":"string","name":"_ideas_uri","type":"string"}],"name":"get_ideas_id_by_ideas_uri","outputs":[{"internalType":"uint256","name":"","type":"uint256"}],"stateMutability":"view","type":"function"},{"inputs":[{"internalType":"uint256","name":"_goal_id","type":"uint256"},{"internalType":"uint256","name":"_ideas_id","type":"uint256"}],"name":"get_ideas_votes_from_goal","outputs":[{"internalType":"string[]","name":"","type":"string[]"}],"stateMutability":"view","type":"function"},{"inputs":[{"internalType":"uint256","name":"_goal_id","type":"uint256"}],"name":"goal_uri","outputs":[{"internalType":"string","name":"","type":"string"}],"stateMutability":"view","type":"function"},{"inputs":[{"internalType":"uint256","name":"_ideas_id","type":"uint256"}],"name":"ideas_uri","outputs":[{"internalType":"string","name":"","type":"string"}],"stateMutability":"view","type":"function"},{"inputs":[{"internalType":"string","name":"wallet","type":"string"}],"name":"is_person_joined","outputs":[{"internalType":"bool","name":"","type":"bool"}],"stateMutability":"view","type":"function"},{"inputs":[{"internalType":"uint256","name":"dao_id","type":"uint256"},{"internalType":"string","name":"person","type":"string"}],"name":"join_community","outputs":[],"stateMutability":"nonpayable","type":"function"},{"inputs":[],"name":"reset_all","outputs":[],"stateMutability":"nonpayable","type":"function"},{"inputs":[{"internalType":"uint256","name":"_ideas_id","type":"uint256"},{"internalType":"string","name":"_message","type":"string"},{"internalType":"string","name":"_sender","type":"string"}],"name":"sendMsg","outputs":[{"internalType":"uint256","name":"","type":"uint256"}],"stateMutability":"nonpayable","type":"function"},{"inputs":[{"internalType":"uint256","name":"_message_id","type":"uint256"},{"internalType":"uint256","name":"_ideas_id","type":"uint256"},{"internalType":"string","name":"_wallet","type":"string"},{"internalType":"string","name":"msg_type","type":"string"}],"name":"sendReadMsg","outputs":[{"internalType":"uint256","name":"","type":"uint256"}],"stateMutability":"nonpayable","type":"function"},{"inputs":[{"internalType":"uint256","name":"_message_id","type":"uint256"},{"internalType":"string","name":"_reply","type":"string"},{"internalType":"uint256","name":"ideas_id","type":"uint256"},{"internalType":"string","name":"_wallet","type":"string"}],"name":"sendReply","outputs":[{"internalType":"uint256","name":"","type":"uint256"}],"stateMutability":"nonpayable","type":"function"},{"inputs":[{"internalType":"uint256","name":"_dao_id","type":"uint256"},{"internalType":"string","name":"_dao_wallet","type":"string"},{"internalType":"string","name":"_dao_uri","type":"string"}],"name":"set_dao","outputs":[],"stateMutability":"nonpayable","type":"function"},{"inputs":[{"internalType":"uint256","name":"_goal_id","type":"uint256"},{"internalType":"string","name":"_goal_uri","type":"string"}],"name":"set_goal","outputs":[],"stateMutability":"nonpayable","type":"function"},{"inputs":[{"internalType":"uint256","name":"_ideas_id","type":"uint256"},{"internalType":"string","name":"_ideas_uri","type":"string"}],"name":"set_ideas","outputs":[],"stateMutability":"nonpayable","type":"function"},{"inputs":[{"internalType":"uint256","name":"_dao_id","type":"uint256"},{"internalType":"string","name":"_template","type":"string"}],"name":"update_template","outputs":[],"stateMutability":"nonpayable","type":"function"}],"devdoc":{"kind":"dev","methods":{},"version":1},"evm":{"bytecode":{"linkReferences":{},"object":"608060405234801561001057600080fd5b50615166806100206000396000f3fe608060405234801561001057600080fd5b50600436106103425760003560e01c8063812fae1f116101b8578063b527d45e11610104578063d3791b20116100a2578063ec2458021161007c578063ec24580214610b26578063ec39925514610b44578063eca7f5fe14610b74578063ff4a37ef14610ba457610342565b8063d3791b2014610abc578063e32acc1a14610ada578063e3863cef14610b0a57610342565b8063c29595c5116100de578063c29595c514610a1f578063ca013f1714610a3b578063cace8d4614610a59578063cd23080914610a8c57610342565b8063b527d45e146109b2578063c04e7430146109e5578063c04fe97814610a0157610342565b80639077007d11610171578063a1ca91781161014b578063a1ca91781461092a578063aa2bf5d31461095a578063aa4cdf2a14610978578063b16060a6146109a857610342565b80639077007d146108b657806397ee7606146108d45780639f9ff54b146108f257610342565b8063812fae1f146107be57806382fcc732146107ee57806387633eb21461081e578063881de8581461083a5780638c59143d146108565780638d3d25951461088657610342565b80633f87a2f4116102925780636ecda4ee116102305780637bbd582d1161020a5780637bbd582d1461070d5780637f2035d41461072b5780637fc543ec1461075c578063803f5b9f1461078e57610342565b80636ecda4ee1461067d57806377935be7146106ad57806377b2ec23146106dd57610342565b80634a797bd71161026c5780634a797bd7146105e35780634be7adb5146106015780635132f0c7146106315780635d907da11461064d57610342565b80633f87a2f41461054e578063468d0c8014610581578063494ce295146105b357610342565b80631b592aeb116102ff57806327a568b9116102d957806327a568b91461049d57806329b56f60146104cf578063330b8f26146104ed5780633f50602f1461051e57610342565b80631b592aeb1461041d5780631ba44c4c1461043b5780631e9ac9f51461046d57610342565b80630c90f09d14610347578063109ac970146103515780631171b62114610381578063131d44f21461039f57806313bf4cea146103cf57806318426b46146103ed575b600080fd5b61034f610bd6565b005b61036b600480360381019061036691906132ab565b610cb6565b604051610378919061342a565b60405180910390f35b610389610e25565b604051610396919061345b565b60405180910390f35b6103b960048036038101906103b491906132ab565b610e2b565b6040516103c6919061342a565b60405180910390f35b6103d7610f9a565b6040516103e4919061345b565b60405180910390f35b61040760048036038101906104029190613691565b610fa0565b604051610414919061345b565b60405180910390f35b6104256110c0565b604051610432919061345b565b60405180910390f35b610455600480360381019061045091906132ab565b6110c6565b60405161046493929190613796565b60405180910390f35b610487600480360381019061048291906137d4565b611178565b604051610494919061345b565b60405180910390f35b6104b760048036038101906104b291906132ab565b6111e9565b6040516104c69392919061381d565b60405180910390f35b6104d76113ab565b6040516104e4919061342a565b60405180910390f35b610507600480360381019061050291906132ab565b6114e6565b604051610515929190613869565b60405180910390f35b61053860048036038101906105339190613899565b611592565b604051610545919061345b565b60405180910390f35b610568600480360381019061056391906132ab565b61166d565b6040516105789493929190613924565b60405180910390f35b61059b600480360381019061059691906132ab565b611725565b6040516105aa93929190613970565b60405180910390f35b6105cd60048036038101906105c891906139ae565b6117d7565b6040516105da919061345b565b60405180910390f35b6105eb6118a7565b6040516105f8919061345b565b60405180910390f35b61061b60048036038101906106169190613a4d565b6118ad565b604051610628919061342a565b60405180910390f35b61064b60048036038101906106469190613a8d565b611a3f565b005b610667600480360381019061066291906132ab565b611ae2565b6040516106749190613ae9565b60405180910390f35b610697600480360381019061069291906132ab565b611b8a565b6040516106a49190613ae9565b60405180910390f35b6106c760048036038101906106c291906137d4565b611c2a565b6040516106d4919061345b565b60405180910390f35b6106f760048036038101906106f29190613b0b565b611c58565b604051610704919061345b565b60405180910390f35b610715611d05565b604051610722919061345b565b60405180910390f35b610745600480360381019061074091906132ab565b611d0b565b604051610753929190613869565b60405180910390f35b610776600480360381019061077191906132ab565b611db7565b60405161078593929190613970565b60405180910390f35b6107a860048036038101906107a391906132ab565b611e69565b6040516107b59190613c54565b60405180910390f35b6107d860048036038101906107d391906132ab565b611f4c565b6040516107e59190613c54565b60405180910390f35b61080860048036038101906108039190613c76565b61202f565b604051610815919061345b565b60405180910390f35b61083860048036038101906108339190613a8d565b6120ec565b005b610854600480360381019061084f9190613899565b612111565b005b610870600480360381019061086b9190613ce5565b61215e565b60405161087d919061345b565b60405180910390f35b6108a0600480360381019061089b91906132ab565b6121fe565b6040516108ad9190613ae9565b60405180910390f35b6108be6122a6565b6040516108cb919061345b565b60405180910390f35b6108dc6122ac565b6040516108e9919061342a565b60405180910390f35b61090c600480360381019061090791906137d4565b6123e7565b60405161092199989796959493929190613d9f565b60405180910390f35b610944600480360381019061093f91906137d4565b61253b565b604051610951919061345b565b60405180910390f35b6109626125ac565b60405161096f919061345b565b60405180910390f35b610992600480360381019061098d91906137d4565b6125b2565b60405161099f919061345b565b60405180910390f35b6109b0612639565b005b6109cc60048036038101906109c791906132ab565b6128eb565b6040516109dc9493929190613e33565b60405180910390f35b6109ff60048036038101906109fa9190613a8d565b612a2b565b005b610a09612a53565b604051610a16919061342a565b60405180910390f35b610a396004803603810190610a349190613a8d565b612b8d565b005b610a43612bb5565b604051610a50919061345b565b60405180910390f35b610a736004803603810190610a6e91906132ab565b612bbb565b604051610a839493929190613e33565b60405180910390f35b610aa66004803603810190610aa19190613a8d565b612cfb565b604051610ab39190613e86565b60405180910390f35b610ac4612d8c565b604051610ad1919061345b565b60405180910390f35b610af46004803603810190610aef91906132ab565b612d92565b604051610b019190613ae9565b60405180910390f35b610b246004803603810190610b1f9190613c76565b612e3a565b005b610b2e612f50565b604051610b3b919061345b565b60405180910390f35b610b5e6004803603810190610b599190613ea1565b612f56565b604051610b6b919061345b565b60405180910390f35b610b8e6004803603810190610b8991906137d4565b613080565b604051610b9b9190613e86565b60405180910390f35b610bbe6004803603810190610bb991906132ab565b6130f2565b604051610bcd93929190613796565b60405180910390f35b610c2f6040518060600160405280602a815260200161440e602a91396040518061030001604052806102c381526020016147b16102c391396040518061040001604052806103ca8152602001614a746103ca9139612f56565b50610c6f6040518061032001604052806102f38152602001614e3e6102f3913960006040518060600160405280602a815260200161440e602a9139611c58565b506060610cb2604051806103a00160405280610379815260200161443861037991396000836040518060600160405280602a815260200161440e602a9139610fa0565b5050565b6060600060025467ffffffffffffffff811115610cd657610cd5613480565b5b604051908082528060200260200182016040528015610d0957816020015b6060815260200190600190039081610cf45790505b509050600080600090505b600254811015610e1a5784600d60008381526020019081526020016000206000015403610e0757600d60008281526020019081526020016000206001018054610d5c90613f77565b80601f0160208091040260200160405190810160405280929190818152602001828054610d8890613f77565b8015610dd55780601f10610daa57610100808354040283529160200191610dd5565b820191906000526020600020905b815481529060010190602001808311610db857829003601f168201915b5050505050838381518110610ded57610dec613fa8565b5b60200260200101819052508180610e0390614006565b9250505b8080610e1290614006565b915050610d14565b508192505050919050565b60045481565b6060600060035467ffffffffffffffff811115610e4b57610e4a613480565b5b604051908082528060200260200182016040528015610e7e57816020015b6060815260200190600190039081610e695790505b509050600080600090505b600354811015610f8f5784600e60008381526020019081526020016000206000015403610f6e57600e60008281526020019081526020016000206001018054610ed190613f77565b80601f0160208091040260200160405190810160405280929190818152602001828054610efd90613f77565b8015610f4a5780601f10610f1f57610100808354040283529160200191610f4a565b820191906000526020600020905b815481529060010190602001808311610f2d57829003601f168201915b5050505050838381518110610f6257610f61613fa8565b5b60200260200101819052505b8180610f7990614006565b9250508080610f8790614006565b915050610e89565b508192505050919050565b60025481565b600060405180606001604052808581526020018681526020016000815250600e60006003548152602001908152602001600020600082015181600001556020820151816001019081610ff291906141fa565b506040820151816002015590505060016016836040516110129190614308565b908152602001604051809103902060010160036101000a81548160ff0219169083151502179055506003600081548092919061104d90614006565b919050555060005b83518110156110b25761108760035460055486848151811061107a57611079613fa8565b5b60200260200101516131a4565b6005600081548092919061109a90614006565b919050555080806110aa90614006565b915050611055565b506003549050949350505050565b60055481565b60126020528060005260406000206000915090508060000154908060010154908060020180546110f590613f77565b80601f016020809104026020016040519081016040528092919081815260200182805461112190613f77565b801561116e5780601f106111435761010080835404028352916020019161116e565b820191906000526020600020905b81548152906001019060200180831161115157829003601f168201915b5050505050905083565b600080600090505b6002548110156111de578280519060200120600d60008381526020019081526020016000206001016040516111b591906143c2565b6040518091039020036111cb57809150506111e4565b80806111d690614006565b915050611180565b50600090505b919050565b600a60205280600052604060002060009150905080600001805461120c90613f77565b80601f016020809104026020016040519081016040528092919081815260200182805461123890613f77565b80156112855780601f1061125a57610100808354040283529160200191611285565b820191906000526020600020905b81548152906001019060200180831161126857829003601f168201915b50505050509080600101805461129a90613f77565b80601f01602080910402602001604051908101604052809291908181526020018280546112c690613f77565b80156113135780601f106112e857610100808354040283529160200191611313565b820191906000526020600020905b8154815290600101906020018083116112f657829003601f168201915b50505050509080600201805461132890613f77565b80601f016020809104026020016040519081016040528092919081815260200182805461135490613f77565b80156113a15780601f10611376576101008083540402835291602001916113a1565b820191906000526020600020905b81548152906001019060200180831161138457829003601f168201915b5050505050905083565b6060600060025467ffffffffffffffff8111156113cb576113ca613480565b5b6040519080825280602002602001820160405280156113fe57816020015b60608152602001906001900390816113e95790505b50905060005b6002548110156114de57600d6000828152602001908152602001600020600101805461142f90613f77565b80601f016020809104026020016040519081016040528092919081815260200182805461145b90613f77565b80156114a85780601f1061147d576101008083540402835291602001916114a8565b820191906000526020600020905b81548152906001019060200180831161148b57829003601f168201915b50505050508282815181106114c0576114bf613fa8565b5b602002602001018190525080806114d690614006565b915050611404565b508091505090565b600c60205280600052604060002060009150905080600001549080600101805461150f90613f77565b80601f016020809104026020016040519081016040528092919081815260200182805461153b90613f77565b80156115885780601f1061155d57610100808354040283529160200191611588565b820191906000526020600020905b81548152906001019060200180831161156b57829003601f168201915b5050505050905082565b600060016016836040516115a69190614308565b908152602001604051809103902060010160066101000a81548160ff02191690831515021790555060405180608001604052806007548152602001858152602001848152602001838152506013600060075481526020019081526020016000206000820151816000015560208201518160010155604082015181600201908161162f91906141fa565b50606082015181600301908161164591906141fa565b509050506007600081548092919061165c90614006565b919050555060075490509392505050565b60156020528060005260406000206000915090508060000154908060010154908060020154908060030180546116a290613f77565b80601f01602080910402602001604051908101604052809291908181526020018280546116ce90613f77565b801561171b5780601f106116f05761010080835404028352916020019161171b565b820191906000526020600020905b8154815290600101906020018083116116fe57829003601f168201915b5050505050905084565b600e60205280600052604060002060009150905080600001549080600101805461174e90613f77565b80601f016020809104026020016040519081016040528092919081815260200182805461177a90613f77565b80156117c75780601f1061179c576101008083540402835291602001916117c7565b820191906000526020600020905b8154815290600101906020018083116117aa57829003601f168201915b5050505050908060020154905083565b600060016016836040516117eb9190614308565b908152602001604051809103902060010160076101000a81548160ff0219169083151502179055506040518060800160405280600954815260200186815260200184815260200185815250601560006009548152602001908152602001600020600082015181600001556020820151816001015560408201518160020155606082015181600301908161187e91906141fa565b509050506009600081548092919061189590614006565b91905055506009549050949350505050565b60065481565b6060600060065467ffffffffffffffff8111156118cd576118cc613480565b5b60405190808252806020026020018201604052801561190057816020015b60608152602001906001900390816118eb5790505b509050600080600090505b600654811015611a335785601260008381526020019081526020016000206000015414801561194f5750846012600083815260200190815260200160002060010154145b15611a125760126000828152602001908152602001600020600201805461197590613f77565b80601f01602080910402602001604051908101604052809291908181526020018280546119a190613f77565b80156119ee5780601f106119c3576101008083540402835291602001916119ee565b820191906000526020600020905b8154815290600101906020018083116119d157829003601f168201915b5050505050838381518110611a0657611a05613fa8565b5b60200260200101819052505b8180611a1d90614006565b9250508080611a2b90614006565b91505061190b565b50819250505092915050565b6001601682604051611a519190614308565b908152602001604051809103902060010160016101000a81548160ff021916908315150217905550604051806040016040528083815260200182815250600c60006004548152602001908152602001600020600082015181600001556020820151816001019081611ac291906141fa565b5090505060046000815480929190611ad990614006565b91905055505050565b6060600a60008381526020019081526020016000206001018054611b0590613f77565b80601f0160208091040260200160405190810160405280929190818152602001828054611b3190613f77565b8015611b7e5780601f10611b5357610100808354040283529160200191611b7e565b820191906000526020600020905b815481529060010190602001808311611b6157829003601f168201915b50505050509050919050565b600b6020528060005260406000206000915090508054611ba990613f77565b80601f0160208091040260200160405190810160405280929190818152602001828054611bd590613f77565b8015611c225780601f10611bf757610100808354040283529160200191611c22565b820191906000526020600020905b815481529060010190602001808311611c0557829003601f168201915b505050505081565b600f818051602081018201805184825260208301602085012081835280955050505050506000915090505481565b6000604051806040016040528084815260200185815250600d60006002548152602001908152602001600020600082015181600001556020820151816001019081611ca391906141fa565b509050506001601683604051611cb99190614308565b908152602001604051809103902060010160026101000a81548160ff02191690831515021790555060026000815480929190611cf490614006565b919050555060025490509392505050565b60005481565b600d602052806000526040600020600091509050806000015490806001018054611d3490613f77565b80601f0160208091040260200160405190810160405280929190818152602001828054611d6090613f77565b8015611dad5780601f10611d8257610100808354040283529160200191611dad565b820191906000526020600020905b815481529060010190602001808311611d9057829003601f168201915b5050505050905082565b6010602052806000526040600020600091509050806000015490806001018054611de090613f77565b80601f0160208091040260200160405190810160405280929190818152602001828054611e0c90613f77565b8015611e595780601f10611e2e57610100808354040283529160200191611e59565b820191906000526020600020905b815481529060010190602001808311611e3c57829003601f168201915b5050505050908060020154905083565b6060600060075467ffffffffffffffff811115611e8957611e88613480565b5b604051908082528060200260200182016040528015611eb75781602001602082028036833780820191505090505b509050600080600090505b600754811015611f415784601360008381526020019081526020016000206001015403611f2e576013600082815260200190815260200160002060000154838381518110611f1357611f12613fa8565b5b6020026020010181815250508180611f2a90614006565b9250505b8080611f3990614006565b915050611ec2565b508192505050919050565b6060600060095467ffffffffffffffff811115611f6c57611f6b613480565b5b604051908082528060200260200182016040528015611f9a5781602001602082028036833780820191505090505b509050600080600090505b6009548110156120245784601560008381526020019081526020016000206001015403612011576015600082815260200190815260200160002060000154838381518110611ff657611ff5613fa8565b5b602002602001018181525050818061200d90614006565b9250505b808061201c90614006565b915050611fa5565b508192505050919050565b600060016016836040516120439190614308565b908152602001604051809103902060010160046101000a81548160ff021916908315150217905550604051806060016040528085815260200184815260200183815250601260006006548152602001908152602001600020600082015181600001556020820151816001015560408201518160020190816120c491906141fa565b50905050600660008154809291906120db90614006565b919050555060065490509392505050565b80600b6000848152602001908152602001600020908161210c91906141fa565b505050565b81600a6000858152602001908152602001600020600001908161213491906141fa565b5080600a6000858152602001908152602001600020600101908161215891906141fa565b50505050565b6000604051806080016040528086815260200185815260200184815260200183815250601460006008548152602001908152602001600020600082015181600001556020820151816001015560408201518160020190816121bf91906141fa565b5060608201518160030190816121d591906141fa565b50905050600860008154809291906121ec90614006565b91905055506008549050949350505050565b6060600e6000838152602001908152602001600020600101805461222190613f77565b80601f016020809104026020016040519081016040528092919081815260200182805461224d90613f77565b801561229a5780601f1061226f5761010080835404028352916020019161229a565b820191906000526020600020905b81548152906001019060200180831161227d57829003601f168201915b50505050509050919050565b60075481565b6060600060035467ffffffffffffffff8111156122cc576122cb613480565b5b6040519080825280602002602001820160405280156122ff57816020015b60608152602001906001900390816122ea5790505b50905060005b6003548110156123df57600e6000828152602001908152602001600020600101805461233090613f77565b80601f016020809104026020016040519081016040528092919081815260200182805461235c90613f77565b80156123a95780601f1061237e576101008083540402835291602001916123a9565b820191906000526020600020905b81548152906001019060200180831161238c57829003601f168201915b50505050508282815181106123c1576123c0613fa8565b5b602002602001018190525080806123d790614006565b915050612305565b508091505090565b60168180516020810182018051848252602083016020850120818352809550505050505060009150905080600001805461242090613f77565b80601f016020809104026020016040519081016040528092919081815260200182805461244c90613f77565b80156124995780601f1061246e57610100808354040283529160200191612499565b820191906000526020600020905b81548152906001019060200180831161247c57829003601f168201915b5050505050908060010160009054906101000a900460ff16908060010160019054906101000a900460ff16908060010160029054906101000a900460ff16908060010160039054906101000a900460ff16908060010160049054906101000a900460ff16908060010160059054906101000a900460ff16908060010160069054906101000a900460ff16908060010160079054906101000a900460ff16905089565b600080600090505b6003548110156125a1578280519060200120600e600083815260200190815260200160002060010160405161257891906143c2565b60405180910390200361258e57809150506125a7565b808061259990614006565b915050612543565b50600090505b919050565b60095481565b600080600090505b60035481101561262e578280519060200120600e60008381526020019081526020016000206001016040516125ef91906143c2565b60405180910390200361261b57600e600082815260200190815260200160002060000154915050612634565b808061262690614006565b9150506125ba565b50600090505b919050565b60005b60005481101561269f57600a60008281526020019081526020016000206000808201600061266a9190613204565b60018201600061267a9190613204565b60028201600061268a9190613204565b5050808061269790614006565b91505061263c565b5060005b6002548110156126ee57600d60008281526020019081526020016000206000808201600090556001820160006126d99190613204565b505080806126e690614006565b9150506126a3565b5060005b60035481101561274557600e60008281526020019081526020016000206000808201600090556001820160006127289190613204565b60028201600090555050808061273d90614006565b9150506126f2565b5060005b60025481101561279c576011600082815260200190815260200160002060008082016000905560018201600090556002820160006127879190613204565b5050808061279490614006565b915050612749565b5060005b600754811015612803576013600082815260200190815260200160002060008082016000905560018201600090556002820160006127de9190613204565b6003820160006127ee9190613204565b505080806127fb90614006565b9150506127a0565b5060005b60095481101561286257601560008281526020019081526020016000206000808201600090556001820160009055600282016000905560038201600061284d9190613204565b5050808061285a90614006565b915050612807565b5060005b6006548110156128b9576012600082815260200190815260200160002060008082016000905560018201600090556002820160006128a49190613204565b505080806128b190614006565b915050612866565b506000808190555060006002819055506000600381905550600060078190555060006009819055506000600681905550565b601360205280600052604060002060009150905080600001549080600101549080600201805461291a90613f77565b80601f016020809104026020016040519081016040528092919081815260200182805461294690613f77565b80156129935780601f1061296857610100808354040283529160200191612993565b820191906000526020600020905b81548152906001019060200180831161297657829003601f168201915b5050505050908060030180546129a890613f77565b80601f01602080910402602001604051908101604052809291908181526020018280546129d490613f77565b8015612a215780601f106129f657610100808354040283529160200191612a21565b820191906000526020600020905b815481529060010190602001808311612a0457829003601f168201915b5050505050905084565b80600e60008481526020019081526020016000206001019081612a4e91906141fa565b505050565b60606000805467ffffffffffffffff811115612a7257612a71613480565b5b604051908082528060200260200182016040528015612aa557816020015b6060815260200190600190039081612a905790505b50905060005b600054811015612b8557600a60008281526020019081526020016000206001018054612ad690613f77565b80601f0160208091040260200160405190810160405280929190818152602001828054612b0290613f77565b8015612b4f5780601f10612b2457610100808354040283529160200191612b4f565b820191906000526020600020905b815481529060010190602001808311612b3257829003601f168201915b5050505050828281518110612b6757612b66613fa8565b5b60200260200101819052508080612b7d90614006565b915050612aab565b508091505090565b80600d60008481526020019081526020016000206001019081612bb091906141fa565b505050565b60085481565b6014602052806000526040600020600091509050806000015490806001015490806002018054612bea90613f77565b80601f0160208091040260200160405190810160405280929190818152602001828054612c1690613f77565b8015612c635780601f10612c3857610100808354040283529160200191612c63565b820191906000526020600020905b815481529060010190602001808311612c4657829003601f168201915b505050505090806003018054612c7890613f77565b80601f0160208091040260200160405190810160405280929190818152602001828054612ca490613f77565b8015612cf15780601f10612cc657610100808354040283529160200191612cf1565b820191906000526020600020905b815481529060010190602001808311612cd457829003601f168201915b5050505050905084565b6000806000905060005b600854811015612d8157846014600083815260200190815260200160002060000154148015612d64575060146000828152602001908152602001600020600301604051612d5291906143c2565b60405180910390208480519060200120145b15612d6e57600191505b8080612d7990614006565b915050612d05565b508091505092915050565b60035481565b6060600d60008381526020019081526020016000206001018054612db590613f77565b80601f0160208091040260200160405190810160405280929190818152602001828054612de190613f77565b8015612e2e5780601f10612e0357610100808354040283529160200191612e2e565b820191906000526020600020905b815481529060010190602001808311612e1157829003601f168201915b50505050509050919050565b6001601682604051612e4c9190614308565b908152602001604051809103902060010160056101000a81548160ff02191690831515021790555081600e60008581526020019081526020016000206002016000828254612e9a91906143d9565b9250508190555081600f82604051612eb29190614308565b90815260200160405180910390206000828254612ecf91906143d9565b92505081905550604051806060016040528084815260200182815260200183815250601060006001548152602001908152602001600020600082015181600001556020820151816001019081612f2591906141fa565b506040820151816002015590505060016000815480929190612f4690614006565b9190505550505050565b60015481565b600060405180606001604052808581526020018481526020016040518060400160405280600581526020017f46616c7365000000000000000000000000000000000000000000000000000000815250815250600a6000805481526020019081526020016000206000820151816000019081612fd191906141fa565b506020820151816001019081612fe791906141fa565b506040820151816002019081612ffd91906141fa565b5090505081600b600080548152602001908152602001600020908161302291906141fa565b5060016016856040516130359190614308565b908152602001604051809103902060010160006101000a81548160ff02191690831515021790555060008081548092919061306f90614006565b919050555060005490509392505050565b600080600090505b6004548110156130e7578280519060200120600c60008381526020019081526020016000206001016040516130bd91906143c2565b6040518091039020036130d45760019150506130ed565b80806130df90614006565b915050613088565b50600090505b919050565b601160205280600052604060002060009150905080600001549080600101549080600201805461312190613f77565b80601f016020809104026020016040519081016040528092919081815260200182805461314d90613f77565b801561319a5780601f1061316f5761010080835404028352916020019161319a565b820191906000526020600020905b81548152906001019060200180831161317d57829003601f168201915b5050505050905083565b60405180606001604052808481526020018381526020018281525060116000848152602001908152602001600020600082015181600001556020820151816001015560408201518160020190816131fb91906141fa565b50905050505050565b50805461321090613f77565b6000825580601f106132225750613241565b601f0160209004906000526020600020908101906132409190613244565b5b50565b5b8082111561325d576000816000905550600101613245565b5090565b6000604051905090565b600080fd5b600080fd5b6000819050919050565b61328881613275565b811461329357600080fd5b50565b6000813590506132a58161327f565b92915050565b6000602082840312156132c1576132c061326b565b5b60006132cf84828501613296565b91505092915050565b600081519050919050565b600082825260208201905092915050565b6000819050602082019050919050565b600081519050919050565b600082825260208201905092915050565b60005b8381101561333e578082015181840152602081019050613323565b60008484015250505050565b6000601f19601f8301169050919050565b600061336682613304565b613370818561330f565b9350613380818560208601613320565b6133898161334a565b840191505092915050565b60006133a0838361335b565b905092915050565b6000602082019050919050565b60006133c0826132d8565b6133ca81856132e3565b9350836020820285016133dc856132f4565b8060005b8581101561341857848403895281516133f98582613394565b9450613404836133a8565b925060208a019950506001810190506133e0565b50829750879550505050505092915050565b6000602082019050818103600083015261344481846133b5565b905092915050565b61345581613275565b82525050565b6000602082019050613470600083018461344c565b92915050565b600080fd5b600080fd5b7f4e487b7100000000000000000000000000000000000000000000000000000000600052604160045260246000fd5b6134b88261334a565b810181811067ffffffffffffffff821117156134d7576134d6613480565b5b80604052505050565b60006134ea613261565b90506134f682826134af565b919050565b600067ffffffffffffffff82111561351657613515613480565b5b61351f8261334a565b9050602081019050919050565b82818337600083830152505050565b600061354e613549846134fb565b6134e0565b90508281526020810184848401111561356a5761356961347b565b5b61357584828561352c565b509392505050565b600082601f83011261359257613591613476565b5b81356135a284826020860161353b565b91505092915050565b600067ffffffffffffffff8211156135c6576135c5613480565b5b602082029050602081019050919050565b600080fd5b60006135ef6135ea846135ab565b6134e0565b90508083825260208201905060208402830185811115613612576136116135d7565b5b835b8181101561365957803567ffffffffffffffff81111561363757613636613476565b5b808601613644898261357d565b85526020850194505050602081019050613614565b5050509392505050565b600082601f83011261367857613677613476565b5b81356136888482602086016135dc565b91505092915050565b600080600080608085870312156136ab576136aa61326b565b5b600085013567ffffffffffffffff8111156136c9576136c8613270565b5b6136d58782880161357d565b94505060206136e687828801613296565b935050604085013567ffffffffffffffff81111561370757613706613270565b5b61371387828801613663565b925050606085013567ffffffffffffffff81111561373457613733613270565b5b6137408782880161357d565b91505092959194509250565b600082825260208201905092915050565b600061376882613304565b613772818561374c565b9350613782818560208601613320565b61378b8161334a565b840191505092915050565b60006060820190506137ab600083018661344c565b6137b8602083018561344c565b81810360408301526137ca818461375d565b9050949350505050565b6000602082840312156137ea576137e961326b565b5b600082013567ffffffffffffffff81111561380857613807613270565b5b6138148482850161357d565b91505092915050565b60006060820190508181036000830152613837818661375d565b9050818103602083015261384b818561375d565b9050818103604083015261385f818461375d565b9050949350505050565b600060408201905061387e600083018561344c565b8181036020830152613890818461375d565b90509392505050565b6000806000606084860312156138b2576138b161326b565b5b60006138c086828701613296565b935050602084013567ffffffffffffffff8111156138e1576138e0613270565b5b6138ed8682870161357d565b925050604084013567ffffffffffffffff81111561390e5761390d613270565b5b61391a8682870161357d565b9150509250925092565b6000608082019050613939600083018761344c565b613946602083018661344c565b613953604083018561344c565b8181036060830152613965818461375d565b905095945050505050565b6000606082019050613985600083018661344c565b8181036020830152613997818561375d565b90506139a6604083018461344c565b949350505050565b600080600080608085870312156139c8576139c761326b565b5b60006139d687828801613296565b945050602085013567ffffffffffffffff8111156139f7576139f6613270565b5b613a038782880161357d565b9350506040613a1487828801613296565b925050606085013567ffffffffffffffff811115613a3557613a34613270565b5b613a418782880161357d565b91505092959194509250565b60008060408385031215613a6457613a6361326b565b5b6000613a7285828601613296565b9250506020613a8385828601613296565b9150509250929050565b60008060408385031215613aa457613aa361326b565b5b6000613ab285828601613296565b925050602083013567ffffffffffffffff811115613ad357613ad2613270565b5b613adf8582860161357d565b9150509250929050565b60006020820190508181036000830152613b03818461375d565b905092915050565b600080600060608486031215613b2457613b2361326b565b5b600084013567ffffffffffffffff811115613b4257613b41613270565b5b613b4e8682870161357d565b9350506020613b5f86828701613296565b925050604084013567ffffffffffffffff811115613b8057613b7f613270565b5b613b8c8682870161357d565b9150509250925092565b600081519050919050565b600082825260208201905092915050565b6000819050602082019050919050565b613bcb81613275565b82525050565b6000613bdd8383613bc2565b60208301905092915050565b6000602082019050919050565b6000613c0182613b96565b613c0b8185613ba1565b9350613c1683613bb2565b8060005b83811015613c47578151613c2e8882613bd1565b9750613c3983613be9565b925050600181019050613c1a565b5085935050505092915050565b60006020820190508181036000830152613c6e8184613bf6565b905092915050565b600080600060608486031215613c8f57613c8e61326b565b5b6000613c9d86828701613296565b9350506020613cae86828701613296565b925050604084013567ffffffffffffffff811115613ccf57613cce613270565b5b613cdb8682870161357d565b9150509250925092565b60008060008060808587031215613cff57613cfe61326b565b5b6000613d0d87828801613296565b9450506020613d1e87828801613296565b935050604085013567ffffffffffffffff811115613d3f57613d3e613270565b5b613d4b8782880161357d565b925050606085013567ffffffffffffffff811115613d6c57613d6b613270565b5b613d788782880161357d565b91505092959194509250565b60008115159050919050565b613d9981613d84565b82525050565b6000610120820190508181036000830152613dba818c61375d565b9050613dc9602083018b613d90565b613dd6604083018a613d90565b613de36060830189613d90565b613df06080830188613d90565b613dfd60a0830187613d90565b613e0a60c0830186613d90565b613e1760e0830185613d90565b613e25610100830184613d90565b9a9950505050505050505050565b6000608082019050613e48600083018761344c565b613e55602083018661344c565b8181036040830152613e67818561375d565b90508181036060830152613e7b818461375d565b905095945050505050565b6000602082019050613e9b6000830184613d90565b92915050565b600080600060608486031215613eba57613eb961326b565b5b600084013567ffffffffffffffff811115613ed857613ed7613270565b5b613ee48682870161357d565b935050602084013567ffffffffffffffff811115613f0557613f04613270565b5b613f118682870161357d565b925050604084013567ffffffffffffffff811115613f3257613f31613270565b5b613f3e8682870161357d565b9150509250925092565b7f4e487b7100000000000000000000000000000000000000000000000000000000600052602260045260246000fd5b60006002820490506001821680613f8f57607f821691505b602082108103613fa257613fa1613f48565b5b50919050565b7f4e487b7100000000000000000000000000000000000000000000000000000000600052603260045260246000fd5b7f4e487b7100000000000000000000000000000000000000000000000000000000600052601160045260246000fd5b600061401182613275565b91507fffffffffffffffffffffffffffffffffffffffffffffffffffffffffffffffff820361404357614042613fd7565b5b600182019050919050565b60008190508160005260206000209050919050565b60006020601f8301049050919050565b600082821b905092915050565b6000600883026140b07fffffffffffffffffffffffffffffffffffffffffffffffffffffffffffffffff82614073565b6140ba8683614073565b95508019841693508086168417925050509392505050565b6000819050919050565b60006140f76140f26140ed84613275565b6140d2565b613275565b9050919050565b6000819050919050565b614111836140dc565b61412561411d826140fe565b848454614080565b825550505050565b600090565b61413a61412d565b614145818484614108565b505050565b5b818110156141695761415e600082614132565b60018101905061414b565b5050565b601f8211156141ae5761417f8161404e565b61418884614063565b81016020851015614197578190505b6141ab6141a385614063565b83018261414a565b50505b505050565b600082821c905092915050565b60006141d1600019846008026141b3565b1980831691505092915050565b60006141ea83836141c0565b9150826002028217905092915050565b61420382613304565b67ffffffffffffffff81111561421c5761421b613480565b5b6142268254613f77565b61423182828561416d565b600060209050601f8311600181146142645760008415614252578287015190505b61425c85826141de565b8655506142c4565b601f1984166142728661404e565b60005b8281101561429a57848901518255600182019150602085019450602081019050614275565b868310156142b757848901516142b3601f8916826141c0565b8355505b6001600288020188555050505b505050505050565b600081905092915050565b60006142e282613304565b6142ec81856142cc565b93506142fc818560208601613320565b80840191505092915050565b600061431482846142d7565b915081905092915050565b600081905092915050565b60008190508160005260206000209050919050565b6000815461434c81613f77565b614356818661431f565b945060018216600081146143715760018114614386576143b9565b60ff19831686528115158202860193506143b9565b61438f8561432a565b60005b838110156143b157815481890152600182019150602081019050614392565b838801955050505b50505092915050565b60006143ce828461433f565b915081905092915050565b60006143e482613275565b91506143ef83613275565b925082820190508082111561440757614406613fd7565b5b9291505056fe3078383662623664366531386335656561636131653833633165363136326363343333646363373061347b227469746c65223a224173736574204d65746164617461222c2274797065223a226f626a656374222c2270726f70657274696573223a7b225469746c65223a7b2274797065223a22737472696e67222c226465736372697074696f6e223a22536f6c61722070616e656c73206f6e2074686520436f6e73657175656e636573204e6f6e6120636f6d6d756e6974792063656e74657220227d2c224465736372697074696f6e223a7b2274797065223a22737472696e67222c226465736372697074696f6e223a2257652063616e20696e735c6e227d2c225374727563747572654c656674223a7b2274797065223a22737472696e67222c226465736372697074696f6e223a5b22526570726573656e74617469766573204265726c696e222c22436f6d6d756e697479222c224368696c6472656e225d7d2c225374727563747572655269676874223a7b2274797065223a22737472696e67222c226465736372697074696f6e223a5b22323025222c22373025222c22313025225d7d2c22516f75746174696f6e223a7b226c696e6b223a2268747470733a2f2f75706c6f61646966792e6e65742f353237336433353064666430303164312f71756f746174696f6e5f436f6e73657175656e6365735f4e6f6e615f636f6d6d756e6974795f63656e7465722e706466222c227072697a65223a222434382c3037312e3535227d2c2277616c6c6574223a7b2274797065223a22737472696e67222c226465736372697074696f6e223a22307844363062433062303063314438613731384642366644654463343436366337413131383038363863227d2c226c6f676f223a7b2274797065223a22737472696e67222c226465736372697074696f6e223a7b2275726c223a2268747470733a2f2f626166796265696634666b367477696b6b63796f70676c687070646f376464336c3334626d367165646a65336d78667465633565376234686535342e697066732e6e667473746f726167652e6c696e6b222c2274797065223a22696d6167652f706e67227d7d2c22616c6c46696c6573223a5b7b2275726c223a2268747470733a2f2f626166796265696634666b367477696b6b63796f70676c687070646f376464336c3334626d367165646a65336d78667465633565376234686535342e697066732e6e667473746f726167652e6c696e6b222c2274797065223a22696d6167652f706e67227d5d7d7d7b227469746c65223a224173736574204d65746164617461222c2274797065223a226f626a656374222c2270726f70657274696573223a7b225469746c65223a7b2274797065223a22737472696e67222c226465736372697074696f6e223a224c616b65204e6f6e612c204f726c616e646f205553227d2c224465736372697074696f6e223a7b2274797065223a22737472696e67222c226465736372697074696f6e223a22227d2c2253746172745f44617465223a7b2274797065223a22737472696e67222c226465736372697074696f6e223a22323032332d30382d31365431313a3134227d2c226c6f676f223a7b2274797065223a22737472696e67222c226465736372697074696f6e223a7b2275726c223a2268747470733a2f2f62616679626569636235797933366f63733479756c7068367a707837676773796567696e736a776e6674376d6c3763786f6a79777062736a7571342e697066732e6e667473746f726167652e6c696e6b222c2274797065223a22696d6167652f706e67227d7d2c2277616c6c6574223a7b2274797065223a22737472696e67222c226465736372697074696f6e223a22307838366262366436653138633565656163613165383363316536313632636334333364636337306134227d2c22537562735072696365223a7b2274797065223a226e756d626572222c226465736372697074696f6e223a22302e3035227d2c2274797065696d67223a7b2274797065223a22737472696e67222c226465736372697074696f6e223a2244616f227d2c22616c6c46696c6573223a5b7b2275726c223a2268747470733a2f2f62616679626569636235797933366f63733479756c7068367a707837676773796567696e736a776e6674376d6c3763786f6a79777062736a7571342e697066732e6e667473746f726167652e6c696e6b222c2274797065223a22696d6167652f706e67227d5d7d7d3c626f64793e3c6469762069643d2264616f2d636f6e7461696e6572223e203c64697620636c6173733d22666c657820666c65782d636f6c206761702d38223e3c696d672069643d2264616f2d696d61676522207372633d2268747470733a2f2f62616679626569636235797933366f63733479756c7068367a707837676773796567696e736a776e6674376d6c3763786f6a79777062736a7571342e697066732e6e667473746f726167652e6c696e6b222f3e3c2f6469763e3c6469762069643d22676f616c2d636f6e7461696e65722220636c6173733d22666c657820666c65782d636f6c206761702d38223e0a0a20203c2f6469763e3c2f6469763e3c2f6469763e3c2f626f64793e3c7374796c653e2a207b20626f782d73697a696e673a20626f726465722d626f783b207d20626f6479207b6d617267696e3a20303b7d2364616f2d7469746c657b77696474683a3738253b7d2369716f6b6a7b666c65782d646972656374696f6e3a726f772d726576657273653b646973706c61793a666c65783b7d2e70792d322e70782d342e6761702d322e746578742d6d6f6f6e2d31342e726f756e6465642d6d6f6f6e2d692d736d2e72656c61746976652e7a2d302e666c65782e6a7573746966792d63656e7465722e6974656d732d63656e7465722e666f6e742d6d656469756d2e6e6f2d756e6465726c696e652e6f766572666c6f772d68696464656e2e73656c6563742d6e6f6e652e6f75746c696e652d6e6f6e652e7472616e736974696f6e2e6475726174696f6e2d3230302e6163746976655c3a7363616c652d39302e666f6375732d76697369626c655c3a736861646f772d666f6375732e62746e2d7072696d6172792e6372656174652d676f616c2d626c6f636b2e7b706f736974696f6e3a72656c61746976653b72696768743a3070783b7d2e70792d322e70782d342e6761702d322e746578742d6d6f6f6e2d31342e726f756e6465642d6d6f6f6e2d692d736d2e7a2d302e666c65782e6a7573746966792d63656e7465722e6974656d732d63656e7465722e666f6e742d6d656469756d2e6e6f2d756e6465726c696e652e6f766572666c6f772d68696464656e2e73656c6563742d6e6f6e652e6f75746c696e652d6e6f6e652e7472616e736974696f6e2e6475726174696f6e2d3230302e6163746976655c3a7363616c652d39302e666f6375732d76697369626c655c3a736861646f772d666f6375732e62746e2d7072696d6172792e6372656174652d676f616c2d626c6f636b2e7b72696768743a313070783b706f736974696f6e3a6162736f6c7574653b7d3c2f7374796c653e7b227469746c65223a224173736574204d65746164617461222c2274797065223a226f626a656374222c2270726f70657274696573223a7b225469746c65223a7b2274797065223a22737472696e67222c226465736372697074696f6e223a2252656e657761626c6520656e65726779227d2c224465736372697074696f6e223a7b2274797065223a22737472696e67222c226465736372697074696f6e223a224f75722044414f206973207374617274696e672069742773206f776e2072656e657761626c6520656e6572677920636f6d70616e7920746861742064656c697665727320656e6572677920666f72207468652077686f6c6520636f6d6d756e697479227d2c22427564676574223a7b2274797065223a22737472696e67222c226465736372697074696f6e223a2224312c3030302c303030227d2c22456e645f44617465223a7b2274797065223a22737472696e67222c226465736372697074696f6e223a22323032332d30382d33315432323a3430227d2c2277616c6c6574223a7b2274797065223a22737472696e67222c226465736372697074696f6e223a22307838366262366436653138633565656163613165383363316536313632636334333364636337306134227d2c226c6f676f223a7b2274797065223a22737472696e67222c226465736372697074696f6e223a7b2275726c223a2268747470733a2f2f626166796265696335673478766a376d7972676b6236326c656e6c64376f72706c32687273706d7a6c7a6364627a70796f746333337471796770652e697066732e6e667473746f726167652e6c696e6b222c2274797065223a22696d6167652f6a706567227d7d2c22616c6c46696c6573223a5b7b2275726c223a2268747470733a2f2f626166796265696335673478766a376d7972676b6236326c656e6c64376f72706c32687273706d7a6c7a6364627a70796f746333337471796770652e697066732e6e667473746f726167652e6c696e6b222c2274797065223a22696d6167652f6a706567227d5d7d7da26469706673582212208f11e91535d2313c78817d4aec718593ca7d621721adbb15eba0c1567725920864736f6c63430008110033","opcodes":"PUSH1 0x80 PUSH1 0x40 MSTORE CALLVALUE DUP1 ISZERO PUSH2 0x10 JUMPI PUSH1 0x0 DUP1 REVERT JUMPDEST POP PUSH2 0x5166 DUP1 PUSH2 0x20 PUSH1 0x0 CODECOPY PUSH1 0x0 RETURN INVALID PUSH1 0x80 PUSH1 0x40 MSTORE CALLVALUE DUP1 ISZERO PUSH2 0x10 JUMPI PUSH1 0x0 DUP1 REVERT JUMPDEST POP PUSH1 0x4 CALLDATASIZE LT PUSH2 0x342 JUMPI PUSH1 0x0 CALLDATALOAD PUSH1 0xE0 SHR DUP1 PUSH4 0x812FAE1F GT PUSH2 0x1B8 JUMPI DUP1 PUSH4 0xB527D45E GT PUSH2 0x104 JUMPI DUP1 PUSH4 0xD3791B20 GT PUSH2 0xA2 JUMPI DUP1 PUSH4 0xEC245802 GT PUSH2 0x7C JUMPI DUP1 PUSH4 0xEC245802 EQ PUSH2 0xB26 JUMPI DUP1 PUSH4 0xEC399255 EQ PUSH2 0xB44 JUMPI DUP1 PUSH4 0xECA7F5FE EQ PUSH2 0xB74 JUMPI DUP1 PUSH4 0xFF4A37EF EQ PUSH2 0xBA4 JUMPI PUSH2 0x342 JUMP JUMPDEST DUP1 PUSH4 0xD3791B20 EQ PUSH2 0xABC JUMPI DUP1 PUSH4 0xE32ACC1A EQ PUSH2 0xADA JUMPI DUP1 PUSH4 0xE3863CEF EQ PUSH2 0xB0A JUMPI PUSH2 0x342 JUMP JUMPDEST DUP1 PUSH4 0xC29595C5 GT PUSH2 0xDE JUMPI DUP1 PUSH4 0xC29595C5 EQ PUSH2 0xA1F JUMPI DUP1 PUSH4 0xCA013F17 EQ PUSH2 0xA3B JUMPI DUP1 PUSH4 0xCACE8D46 EQ PUSH2 0xA59 JUMPI DUP1 PUSH4 0xCD230809 EQ PUSH2 0xA8C JUMPI PUSH2 0x342 JUMP JUMPDEST DUP1 PUSH4 0xB527D45E EQ PUSH2 0x9B2 JUMPI DUP1 PUSH4 0xC04E7430 EQ PUSH2 0x9E5 JUMPI DUP1 PUSH4 0xC04FE978 EQ PUSH2 0xA01 JUMPI PUSH2 0x342 JUMP JUMPDEST DUP1 PUSH4 0x9077007D GT PUSH2 0x171 JUMPI DUP1 PUSH4 0xA1CA9178 GT PUSH2 0x14B JUMPI DUP1 PUSH4 0xA1CA9178 EQ PUSH2 0x92A JUMPI DUP1 PUSH4 0xAA2BF5D3 EQ PUSH2 0x95A JUMPI DUP1 PUSH4 0xAA4CDF2A EQ PUSH2 0x978 JUMPI DUP1 PUSH4 0xB16060A6 EQ PUSH2 0x9A8 JUMPI PUSH2 0x342 JUMP JUMPDEST DUP1 PUSH4 0x9077007D EQ PUSH2 0x8B6 JUMPI DUP1 PUSH4 0x97EE7606 EQ PUSH2 0x8D4 JUMPI DUP1 PUSH4 0x9F9FF54B EQ PUSH2 0x8F2 JUMPI PUSH2 0x342 JUMP JUMPDEST DUP1 PUSH4 0x812FAE1F EQ PUSH2 0x7BE JUMPI DUP1 PUSH4 0x82FCC732 EQ PUSH2 0x7EE JUMPI DUP1 PUSH4 0x87633EB2 EQ PUSH2 0x81E JUMPI DUP1 PUSH4 0x881DE858 EQ PUSH2 0x83A JUMPI DUP1 PUSH4 0x8C59143D EQ PUSH2 0x856 JUMPI DUP1 PUSH4 0x8D3D2595 EQ PUSH2 0x886 JUMPI PUSH2 0x342 JUMP JUMPDEST DUP1 PUSH4 0x3F87A2F4 GT PUSH2 0x292 JUMPI DUP1 PUSH4 0x6ECDA4EE GT PUSH2 0x230 JUMPI DUP1 PUSH4 0x7BBD582D GT PUSH2 0x20A JUMPI DUP1 PUSH4 0x7BBD582D EQ PUSH2 0x70D JUMPI DUP1 PUSH4 0x7F2035D4 EQ PUSH2 0x72B JUMPI DUP1 PUSH4 0x7FC543EC EQ PUSH2 0x75C JUMPI DUP1 PUSH4 0x803F5B9F EQ PUSH2 0x78E JUMPI PUSH2 0x342 JUMP JUMPDEST DUP1 PUSH4 0x6ECDA4EE EQ PUSH2 0x67D JUMPI DUP1 PUSH4 0x77935BE7 EQ PUSH2 0x6AD JUMPI DUP1 PUSH4 0x77B2EC23 EQ PUSH2 0x6DD JUMPI PUSH2 0x342 JUMP JUMPDEST DUP1 PUSH4 0x4A797BD7 GT PUSH2 0x26C JUMPI DUP1 PUSH4 0x4A797BD7 EQ PUSH2 0x5E3 JUMPI DUP1 PUSH4 0x4BE7ADB5 EQ PUSH2 0x601 JUMPI DUP1 PUSH4 0x5132F0C7 EQ PUSH2 0x631 JUMPI DUP1 PUSH4 0x5D907DA1 EQ PUSH2 0x64D JUMPI PUSH2 0x342 JUMP JUMPDEST DUP1 PUSH4 0x3F87A2F4 EQ PUSH2 0x54E JUMPI DUP1 PUSH4 0x468D0C80 EQ PUSH2 0x581 JUMPI DUP1 PUSH4 0x494CE295 EQ PUSH2 0x5B3 JUMPI PUSH2 0x342 JUMP JUMPDEST DUP1 PUSH4 0x1B592AEB GT PUSH2 0x2FF JUMPI DUP1 PUSH4 0x27A568B9 GT PUSH2 0x2D9 JUMPI DUP1 PUSH4 0x27A568B9 EQ PUSH2 0x49D JUMPI DUP1 PUSH4 0x29B56F60 EQ PUSH2 0x4CF JUMPI DUP1 PUSH4 0x330B8F26 EQ PUSH2 0x4ED JUMPI DUP1 PUSH4 0x3F50602F EQ PUSH2 0x51E JUMPI PUSH2 0x342 JUMP JUMPDEST DUP1 PUSH4 0x1B592AEB EQ PUSH2 0x41D JUMPI DUP1 PUSH4 0x1BA44C4C EQ PUSH2 0x43B JUMPI DUP1 PUSH4 0x1E9AC9F5 EQ PUSH2 0x46D JUMPI PUSH2 0x342 JUMP JUMPDEST DUP1 PUSH4 0xC90F09D EQ PUSH2 0x347 JUMPI DUP1 PUSH4 0x109AC970 EQ PUSH2 0x351 JUMPI DUP1 PUSH4 0x1171B621 EQ PUSH2 0x381 JUMPI DUP1 PUSH4 0x131D44F2 EQ PUSH2 0x39F JUMPI DUP1 PUSH4 0x13BF4CEA EQ PUSH2 0x3CF JUMPI DUP1 PUSH4 0x18426B46 EQ PUSH2 0x3ED JUMPI JUMPDEST PUSH1 0x0 DUP1 REVERT JUMPDEST PUSH2 0x34F PUSH2 0xBD6 JUMP JUMPDEST STOP JUMPDEST PUSH2 0x36B PUSH1 0x4 DUP1 CALLDATASIZE SUB DUP2 ADD SWAP1 PUSH2 0x366 SWAP2 SWAP1 PUSH2 0x32AB JUMP JUMPDEST PUSH2 0xCB6 JUMP JUMPDEST PUSH1 0x40 MLOAD PUSH2 0x378 SWAP2 SWAP1 PUSH2 0x342A JUMP JUMPDEST PUSH1 0x40 MLOAD DUP1 SWAP2 SUB SWAP1 RETURN JUMPDEST PUSH2 0x389 PUSH2 0xE25 JUMP JUMPDEST PUSH1 0x40 MLOAD PUSH2 0x396 SWAP2 SWAP1 PUSH2 0x345B JUMP JUMPDEST PUSH1 0x40 MLOAD DUP1 SWAP2 SUB SWAP1 RETURN JUMPDEST PUSH2 0x3B9 PUSH1 0x4 DUP1 CALLDATASIZE SUB DUP2 ADD SWAP1 PUSH2 0x3B4 SWAP2 SWAP1 PUSH2 0x32AB JUMP JUMPDEST PUSH2 0xE2B JUMP JUMPDEST PUSH1 0x40 MLOAD PUSH2 0x3C6 SWAP2 SWAP1 PUSH2 0x342A JUMP JUMPDEST PUSH1 0x40 MLOAD DUP1 SWAP2 SUB SWAP1 RETURN JUMPDEST PUSH2 0x3D7 PUSH2 0xF9A JUMP JUMPDEST PUSH1 0x40 MLOAD PUSH2 0x3E4 SWAP2 SWAP1 PUSH2 0x345B JUMP JUMPDEST PUSH1 0x40 MLOAD DUP1 SWAP2 SUB SWAP1 RETURN JUMPDEST PUSH2 0x407 PUSH1 0x4 DUP1 CALLDATASIZE SUB DUP2 ADD SWAP1 PUSH2 0x402 SWAP2 SWAP1 PUSH2 0x3691 JUMP JUMPDEST PUSH2 0xFA0 JUMP JUMPDEST PUSH1 0x40 MLOAD PUSH2 0x414 SWAP2 SWAP1 PUSH2 0x345B JUMP JUMPDEST PUSH1 0x40 MLOAD DUP1 SWAP2 SUB SWAP1 RETURN JUMPDEST PUSH2 0x425 PUSH2 0x10C0 JUMP JUMPDEST PUSH1 0x40 MLOAD PUSH2 0x432 SWAP2 SWAP1 PUSH2 0x345B JUMP JUMPDEST PUSH1 0x40 MLOAD DUP1 SWAP2 SUB SWAP1 RETURN JUMPDEST PUSH2 0x455 PUSH1 0x4 DUP1 CALLDATASIZE SUB DUP2 ADD SWAP1 PUSH2 0x450 SWAP2 SWAP1 PUSH2 0x32AB JUMP JUMPDEST PUSH2 0x10C6 JUMP JUMPDEST PUSH1 0x40 MLOAD PUSH2 0x464 SWAP4 SWAP3 SWAP2 SWAP1 PUSH2 0x3796 JUMP JUMPDEST PUSH1 0x40 MLOAD DUP1 SWAP2 SUB SWAP1 RETURN JUMPDEST PUSH2 0x487 PUSH1 0x4 DUP1 CALLDATASIZE SUB DUP2 ADD SWAP1 PUSH2 0x482 SWAP2 SWAP1 PUSH2 0x37D4 JUMP JUMPDEST PUSH2 0x1178 JUMP JUMPDEST PUSH1 0x40 MLOAD PUSH2 0x494 SWAP2 SWAP1 PUSH2 0x345B JUMP JUMPDEST PUSH1 0x40 MLOAD DUP1 SWAP2 SUB SWAP1 RETURN JUMPDEST PUSH2 0x4B7 PUSH1 0x4 DUP1 CALLDATASIZE SUB DUP2 ADD SWAP1 PUSH2 0x4B2 SWAP2 SWAP1 PUSH2 0x32AB JUMP JUMPDEST PUSH2 0x11E9 JUMP JUMPDEST PUSH1 0x40 MLOAD PUSH2 0x4C6 SWAP4 SWAP3 SWAP2 SWAP1 PUSH2 0x381D JUMP JUMPDEST PUSH1 0x40 MLOAD DUP1 SWAP2 SUB SWAP1 RETURN JUMPDEST PUSH2 0x4D7 PUSH2 0x13AB JUMP JUMPDEST PUSH1 0x40 MLOAD PUSH2 0x4E4 SWAP2 SWAP1 PUSH2 0x342A JUMP JUMPDEST PUSH1 0x40 MLOAD DUP1 SWAP2 SUB SWAP1 RETURN JUMPDEST PUSH2 0x507 PUSH1 0x4 DUP1 CALLDATASIZE SUB DUP2 ADD SWAP1 PUSH2 0x502 SWAP2 SWAP1 PUSH2 0x32AB JUMP JUMPDEST PUSH2 0x14E6 JUMP JUMPDEST PUSH1 0x40 MLOAD PUSH2 0x515 SWAP3 SWAP2 SWAP1 PUSH2 0x3869 JUMP JUMPDEST PUSH1 0x40 MLOAD DUP1 SWAP2 SUB SWAP1 RETURN JUMPDEST PUSH2 0x538 PUSH1 0x4 DUP1 CALLDATASIZE SUB DUP2 ADD SWAP1 PUSH2 0x533 SWAP2 SWAP1 PUSH2 0x3899 JUMP JUMPDEST PUSH2 0x1592 JUMP JUMPDEST PUSH1 0x40 MLOAD PUSH2 0x545 SWAP2 SWAP1 PUSH2 0x345B JUMP JUMPDEST PUSH1 0x40 MLOAD DUP1 SWAP2 SUB SWAP1 RETURN JUMPDEST PUSH2 0x568 PUSH1 0x4 DUP1 CALLDATASIZE SUB DUP2 ADD SWAP1 PUSH2 0x563 SWAP2 SWAP1 PUSH2 0x32AB JUMP JUMPDEST PUSH2 0x166D JUMP JUMPDEST PUSH1 0x40 MLOAD PUSH2 0x578 SWAP5 SWAP4 SWAP3 SWAP2 SWAP1 PUSH2 0x3924 JUMP JUMPDEST PUSH1 0x40 MLOAD DUP1 SWAP2 SUB SWAP1 RETURN JUMPDEST PUSH2 0x59B PUSH1 0x4 DUP1 CALLDATASIZE SUB DUP2 ADD SWAP1 PUSH2 0x596 SWAP2 SWAP1 PUSH2 0x32AB JUMP JUMPDEST PUSH2 0x1725 JUMP JUMPDEST PUSH1 0x40 MLOAD PUSH2 0x5AA SWAP4 SWAP3 SWAP2 SWAP1 PUSH2 0x3970 JUMP JUMPDEST PUSH1 0x40 MLOAD DUP1 SWAP2 SUB SWAP1 RETURN JUMPDEST PUSH2 0x5CD PUSH1 0x4 DUP1 CALLDATASIZE SUB DUP2 ADD SWAP1 PUSH2 0x5C8 SWAP2 SWAP1 PUSH2 0x39AE JUMP JUMPDEST PUSH2 0x17D7 JUMP JUMPDEST PUSH1 0x40 MLOAD PUSH2 0x5DA SWAP2 SWAP1 PUSH2 0x345B JUMP JUMPDEST PUSH1 0x40 MLOAD DUP1 SWAP2 SUB SWAP1 RETURN JUMPDEST PUSH2 0x5EB PUSH2 0x18A7 JUMP JUMPDEST PUSH1 0x40 MLOAD PUSH2 0x5F8 SWAP2 SWAP1 PUSH2 0x345B JUMP JUMPDEST PUSH1 0x40 MLOAD DUP1 SWAP2 SUB SWAP1 RETURN JUMPDEST PUSH2 0x61B PUSH1 0x4 DUP1 CALLDATASIZE SUB DUP2 ADD SWAP1 PUSH2 0x616 SWAP2 SWAP1 PUSH2 0x3A4D JUMP JUMPDEST PUSH2 0x18AD JUMP JUMPDEST PUSH1 0x40 MLOAD PUSH2 0x628 SWAP2 SWAP1 PUSH2 0x342A JUMP JUMPDEST PUSH1 0x40 MLOAD DUP1 SWAP2 SUB SWAP1 RETURN JUMPDEST PUSH2 0x64B PUSH1 0x4 DUP1 CALLDATASIZE SUB DUP2 ADD SWAP1 PUSH2 0x646 SWAP2 SWAP1 PUSH2 0x3A8D JUMP JUMPDEST PUSH2 0x1A3F JUMP JUMPDEST STOP JUMPDEST PUSH2 0x667 PUSH1 0x4 DUP1 CALLDATASIZE SUB DUP2 ADD SWAP1 PUSH2 0x662 SWAP2 SWAP1 PUSH2 0x32AB JUMP JUMPDEST PUSH2 0x1AE2 JUMP JUMPDEST PUSH1 0x40 MLOAD PUSH2 0x674 SWAP2 SWAP1 PUSH2 0x3AE9 JUMP JUMPDEST PUSH1 0x40 MLOAD DUP1 SWAP2 SUB SWAP1 RETURN JUMPDEST PUSH2 0x697 PUSH1 0x4 DUP1 CALLDATASIZE SUB DUP2 ADD SWAP1 PUSH2 0x692 SWAP2 SWAP1 PUSH2 0x32AB JUMP JUMPDEST PUSH2 0x1B8A JUMP JUMPDEST PUSH1 0x40 MLOAD PUSH2 0x6A4 SWAP2 SWAP1 PUSH2 0x3AE9 JUMP JUMPDEST PUSH1 0x40 MLOAD DUP1 SWAP2 SUB SWAP1 RETURN JUMPDEST PUSH2 0x6C7 PUSH1 0x4 DUP1 CALLDATASIZE SUB DUP2 ADD SWAP1 PUSH2 0x6C2 SWAP2 SWAP1 PUSH2 0x37D4 JUMP JUMPDEST PUSH2 0x1C2A JUMP JUMPDEST PUSH1 0x40 MLOAD PUSH2 0x6D4 SWAP2 SWAP1 PUSH2 0x345B JUMP JUMPDEST PUSH1 0x40 MLOAD DUP1 SWAP2 SUB SWAP1 RETURN JUMPDEST PUSH2 0x6F7 PUSH1 0x4 DUP1 CALLDATASIZE SUB DUP2 ADD SWAP1 PUSH2 0x6F2 SWAP2 SWAP1 PUSH2 0x3B0B JUMP JUMPDEST PUSH2 0x1C58 JUMP JUMPDEST PUSH1 0x40 MLOAD PUSH2 0x704 SWAP2 SWAP1 PUSH2 0x345B JUMP JUMPDEST PUSH1 0x40 MLOAD DUP1 SWAP2 SUB SWAP1 RETURN JUMPDEST PUSH2 0x715 PUSH2 0x1D05 JUMP JUMPDEST PUSH1 0x40 MLOAD PUSH2 0x722 SWAP2 SWAP1 PUSH2 0x345B JUMP JUMPDEST PUSH1 0x40 MLOAD DUP1 SWAP2 SUB SWAP1 RETURN JUMPDEST PUSH2 0x745 PUSH1 0x4 DUP1 CALLDATASIZE SUB DUP2 ADD SWAP1 PUSH2 0x740 SWAP2 SWAP1 PUSH2 0x32AB JUMP JUMPDEST PUSH2 0x1D0B JUMP JUMPDEST PUSH1 0x40 MLOAD PUSH2 0x753 SWAP3 SWAP2 SWAP1 PUSH2 0x3869 JUMP JUMPDEST PUSH1 0x40 MLOAD DUP1 SWAP2 SUB SWAP1 RETURN JUMPDEST PUSH2 0x776 PUSH1 0x4 DUP1 CALLDATASIZE SUB DUP2 ADD SWAP1 PUSH2 0x771 SWAP2 SWAP1 PUSH2 0x32AB JUMP JUMPDEST PUSH2 0x1DB7 JUMP JUMPDEST PUSH1 0x40 MLOAD PUSH2 0x785 SWAP4 SWAP3 SWAP2 SWAP1 PUSH2 0x3970 JUMP JUMPDEST PUSH1 0x40 MLOAD DUP1 SWAP2 SUB SWAP1 RETURN JUMPDEST PUSH2 0x7A8 PUSH1 0x4 DUP1 CALLDATASIZE SUB DUP2 ADD SWAP1 PUSH2 0x7A3 SWAP2 SWAP1 PUSH2 0x32AB JUMP JUMPDEST PUSH2 0x1E69 JUMP JUMPDEST PUSH1 0x40 MLOAD PUSH2 0x7B5 SWAP2 SWAP1 PUSH2 0x3C54 JUMP JUMPDEST PUSH1 0x40 MLOAD DUP1 SWAP2 SUB SWAP1 RETURN JUMPDEST PUSH2 0x7D8 PUSH1 0x4 DUP1 CALLDATASIZE SUB DUP2 ADD SWAP1 PUSH2 0x7D3 SWAP2 SWAP1 PUSH2 0x32AB JUMP JUMPDEST PUSH2 0x1F4C JUMP JUMPDEST PUSH1 0x40 MLOAD PUSH2 0x7E5 SWAP2 SWAP1 PUSH2 0x3C54 JUMP JUMPDEST PUSH1 0x40 MLOAD DUP1 SWAP2 SUB SWAP1 RETURN JUMPDEST PUSH2 0x808 PUSH1 0x4 DUP1 CALLDATASIZE SUB DUP2 ADD SWAP1 PUSH2 0x803 SWAP2 SWAP1 PUSH2 0x3C76 JUMP JUMPDEST PUSH2 0x202F JUMP JUMPDEST PUSH1 0x40 MLOAD PUSH2 0x815 SWAP2 SWAP1 PUSH2 0x345B JUMP JUMPDEST PUSH1 0x40 MLOAD DUP1 SWAP2 SUB SWAP1 RETURN JUMPDEST PUSH2 0x838 PUSH1 0x4 DUP1 CALLDATASIZE SUB DUP2 ADD SWAP1 PUSH2 0x833 SWAP2 SWAP1 PUSH2 0x3A8D JUMP JUMPDEST PUSH2 0x20EC JUMP JUMPDEST STOP JUMPDEST PUSH2 0x854 PUSH1 0x4 DUP1 CALLDATASIZE SUB DUP2 ADD SWAP1 PUSH2 0x84F SWAP2 SWAP1 PUSH2 0x3899 JUMP JUMPDEST PUSH2 0x2111 JUMP JUMPDEST STOP JUMPDEST PUSH2 0x870 PUSH1 0x4 DUP1 CALLDATASIZE SUB DUP2 ADD SWAP1 PUSH2 0x86B SWAP2 SWAP1 PUSH2 0x3CE5 JUMP JUMPDEST PUSH2 0x215E JUMP JUMPDEST PUSH1 0x40 MLOAD PUSH2 0x87D SWAP2 SWAP1 PUSH2 0x345B JUMP JUMPDEST PUSH1 0x40 MLOAD DUP1 SWAP2 SUB SWAP1 RETURN JUMPDEST PUSH2 0x8A0 PUSH1 0x4 DUP1 CALLDATASIZE SUB DUP2 ADD SWAP1 PUSH2 0x89B SWAP2 SWAP1 PUSH2 0x32AB JUMP JUMPDEST PUSH2 0x21FE JUMP JUMPDEST PUSH1 0x40 MLOAD PUSH2 0x8AD SWAP2 SWAP1 PUSH2 0x3AE9 JUMP JUMPDEST PUSH1 0x40 MLOAD DUP1 SWAP2 SUB SWAP1 RETURN JUMPDEST PUSH2 0x8BE PUSH2 0x22A6 JUMP JUMPDEST PUSH1 0x40 MLOAD PUSH2 0x8CB SWAP2 SWAP1 PUSH2 0x345B JUMP JUMPDEST PUSH1 0x40 MLOAD DUP1 SWAP2 SUB SWAP1 RETURN JUMPDEST PUSH2 0x8DC PUSH2 0x22AC JUMP JUMPDEST PUSH1 0x40 MLOAD PUSH2 0x8E9 SWAP2 SWAP1 PUSH2 0x342A JUMP JUMPDEST PUSH1 0x40 MLOAD DUP1 SWAP2 SUB SWAP1 RETURN JUMPDEST PUSH2 0x90C PUSH1 0x4 DUP1 CALLDATASIZE SUB DUP2 ADD SWAP1 PUSH2 0x907 SWAP2 SWAP1 PUSH2 0x37D4 JUMP JUMPDEST PUSH2 0x23E7 JUMP JUMPDEST PUSH1 0x40 MLOAD PUSH2 0x921 SWAP10 SWAP9 SWAP8 SWAP7 SWAP6 SWAP5 SWAP4 SWAP3 SWAP2 SWAP1 PUSH2 0x3D9F JUMP JUMPDEST PUSH1 0x40 MLOAD DUP1 SWAP2 SUB SWAP1 RETURN JUMPDEST PUSH2 0x944 PUSH1 0x4 DUP1 CALLDATASIZE SUB DUP2 ADD SWAP1 PUSH2 0x93F SWAP2 SWAP1 PUSH2 0x37D4 JUMP JUMPDEST PUSH2 0x253B JUMP JUMPDEST PUSH1 0x40 MLOAD PUSH2 0x951 SWAP2 SWAP1 PUSH2 0x345B JUMP JUMPDEST PUSH1 0x40 MLOAD DUP1 SWAP2 SUB SWAP1 RETURN JUMPDEST PUSH2 0x962 PUSH2 0x25AC JUMP JUMPDEST PUSH1 0x40 MLOAD PUSH2 0x96F SWAP2 SWAP1 PUSH2 0x345B JUMP JUMPDEST PUSH1 0x40 MLOAD DUP1 SWAP2 SUB SWAP1 RETURN JUMPDEST PUSH2 0x992 PUSH1 0x4 DUP1 CALLDATASIZE SUB DUP2 ADD SWAP1 PUSH2 0x98D SWAP2 SWAP1 PUSH2 0x37D4 JUMP JUMPDEST PUSH2 0x25B2 JUMP JUMPDEST PUSH1 0x40 MLOAD PUSH2 0x99F SWAP2 SWAP1 PUSH2 0x345B JUMP JUMPDEST PUSH1 0x40 MLOAD DUP1 SWAP2 SUB SWAP1 RETURN JUMPDEST PUSH2 0x9B0 PUSH2 0x2639 JUMP JUMPDEST STOP JUMPDEST PUSH2 0x9CC PUSH1 0x4 DUP1 CALLDATASIZE SUB DUP2 ADD SWAP1 PUSH2 0x9C7 SWAP2 SWAP1 PUSH2 0x32AB JUMP JUMPDEST PUSH2 0x28EB JUMP JUMPDEST PUSH1 0x40 MLOAD PUSH2 0x9DC SWAP5 SWAP4 SWAP3 SWAP2 SWAP1 PUSH2 0x3E33 JUMP JUMPDEST PUSH1 0x40 MLOAD DUP1 SWAP2 SUB SWAP1 RETURN JUMPDEST PUSH2 0x9FF PUSH1 0x4 DUP1 CALLDATASIZE SUB DUP2 ADD SWAP1 PUSH2 0x9FA SWAP2 SWAP1 PUSH2 0x3A8D JUMP JUMPDEST PUSH2 0x2A2B JUMP JUMPDEST STOP JUMPDEST PUSH2 0xA09 PUSH2 0x2A53 JUMP JUMPDEST PUSH1 0x40 MLOAD PUSH2 0xA16 SWAP2 SWAP1 PUSH2 0x342A JUMP JUMPDEST PUSH1 0x40 MLOAD DUP1 SWAP2 SUB SWAP1 RETURN JUMPDEST PUSH2 0xA39 PUSH1 0x4 DUP1 CALLDATASIZE SUB DUP2 ADD SWAP1 PUSH2 0xA34 SWAP2 SWAP1 PUSH2 0x3A8D JUMP JUMPDEST PUSH2 0x2B8D JUMP JUMPDEST STOP JUMPDEST PUSH2 0xA43 PUSH2 0x2BB5 JUMP JUMPDEST PUSH1 0x40 MLOAD PUSH2 0xA50 SWAP2 SWAP1 PUSH2 0x345B JUMP JUMPDEST PUSH1 0x40 MLOAD DUP1 SWAP2 SUB SWAP1 RETURN JUMPDEST PUSH2 0xA73 PUSH1 0x4 DUP1 CALLDATASIZE SUB DUP2 ADD SWAP1 PUSH2 0xA6E SWAP2 SWAP1 PUSH2 0x32AB JUMP JUMPDEST PUSH2 0x2BBB JUMP JUMPDEST PUSH1 0x40 MLOAD PUSH2 0xA83 SWAP5 SWAP4 SWAP3 SWAP2 SWAP1 PUSH2 0x3E33 JUMP JUMPDEST PUSH1 0x40 MLOAD DUP1 SWAP2 SUB SWAP1 RETURN JUMPDEST PUSH2 0xAA6 PUSH1 0x4 DUP1 CALLDATASIZE SUB DUP2 ADD SWAP1 PUSH2 0xAA1 SWAP2 SWAP1 PUSH2 0x3A8D JUMP JUMPDEST PUSH2 0x2CFB JUMP JUMPDEST PUSH1 0x40 MLOAD PUSH2 0xAB3 SWAP2 SWAP1 PUSH2 0x3E86 JUMP JUMPDEST PUSH1 0x40 MLOAD DUP1 SWAP2 SUB SWAP1 RETURN JUMPDEST PUSH2 0xAC4 PUSH2 0x2D8C JUMP JUMPDEST PUSH1 0x40 MLOAD PUSH2 0xAD1 SWAP2 SWAP1 PUSH2 0x345B JUMP JUMPDEST PUSH1 0x40 MLOAD DUP1 SWAP2 SUB SWAP1 RETURN JUMPDEST PUSH2 0xAF4 PUSH1 0x4 DUP1 CALLDATASIZE SUB DUP2 ADD SWAP1 PUSH2 0xAEF SWAP2 SWAP1 PUSH2 0x32AB JUMP JUMPDEST PUSH2 0x2D92 JUMP JUMPDEST PUSH1 0x40 MLOAD PUSH2 0xB01 SWAP2 SWAP1 PUSH2 0x3AE9 JUMP JUMPDEST PUSH1 0x40 MLOAD DUP1 SWAP2 SUB SWAP1 RETURN JUMPDEST PUSH2 0xB24 PUSH1 0x4 DUP1 CALLDATASIZE SUB DUP2 ADD SWAP1 PUSH2 0xB1F SWAP2 SWAP1 PUSH2 0x3C76 JUMP JUMPDEST PUSH2 0x2E3A JUMP JUMPDEST STOP JUMPDEST PUSH2 0xB2E PUSH2 0x2F50 JUMP JUMPDEST PUSH1 0x40 MLOAD PUSH2 0xB3B SWAP2 SWAP1 PUSH2 0x345B JUMP JUMPDEST PUSH1 0x40 MLOAD DUP1 SWAP2 SUB SWAP1 RETURN JUMPDEST PUSH2 0xB5E PUSH1 0x4 DUP1 CALLDATASIZE SUB DUP2 ADD SWAP1 PUSH2 0xB59 SWAP2 SWAP1 PUSH2 0x3EA1 JUMP JUMPDEST PUSH2 0x2F56 JUMP JUMPDEST PUSH1 0x40 MLOAD PUSH2 0xB6B SWAP2 SWAP1 PUSH2 0x345B JUMP JUMPDEST PUSH1 0x40 MLOAD DUP1 SWAP2 SUB SWAP1 RETURN JUMPDEST PUSH2 0xB8E PUSH1 0x4 DUP1 CALLDATASIZE SUB DUP2 ADD SWAP1 PUSH2 0xB89 SWAP2 SWAP1 PUSH2 0x37D4 JUMP JUMPDEST PUSH2 0x3080 JUMP JUMPDEST PUSH1 0x40 MLOAD PUSH2 0xB9B SWAP2 SWAP1 PUSH2 0x3E86 JUMP JUMPDEST PUSH1 0x40 MLOAD DUP1 SWAP2 SUB SWAP1 RETURN JUMPDEST PUSH2 0xBBE PUSH1 0x4 DUP1 CALLDATASIZE SUB DUP2 ADD SWAP1 PUSH2 0xBB9 SWAP2 SWAP1 PUSH2 0x32AB JUMP JUMPDEST PUSH2 0x30F2 JUMP JUMPDEST PUSH1 0x40 MLOAD PUSH2 0xBCD SWAP4 SWAP3 SWAP2 SWAP1 PUSH2 0x3796 JUMP JUMPDEST PUSH1 0x40 MLOAD DUP1 SWAP2 SUB SWAP1 RETURN JUMPDEST PUSH2 0xC2F PUSH1 0x40 MLOAD DUP1 PUSH1 0x60 ADD PUSH1 0x40 MSTORE DUP1 PUSH1 0x2A DUP2 MSTORE PUSH1 0x20 ADD PUSH2 0x440E PUSH1 0x2A SWAP2 CODECOPY PUSH1 0x40 MLOAD DUP1 PUSH2 0x300 ADD PUSH1 0x40 MSTORE DUP1 PUSH2 0x2C3 DUP2 MSTORE PUSH1 0x20 ADD PUSH2 0x47B1 PUSH2 0x2C3 SWAP2 CODECOPY PUSH1 0x40 MLOAD DUP1 PUSH2 0x400 ADD PUSH1 0x40 MSTORE DUP1 PUSH2 0x3CA DUP2 MSTORE PUSH1 0x20 ADD PUSH2 0x4A74 PUSH2 0x3CA SWAP2 CODECOPY PUSH2 0x2F56 JUMP JUMPDEST POP PUSH2 0xC6F PUSH1 0x40 MLOAD DUP1 PUSH2 0x320 ADD PUSH1 0x40 MSTORE DUP1 PUSH2 0x2F3 DUP2 MSTORE PUSH1 0x20 ADD PUSH2 0x4E3E PUSH2 0x2F3 SWAP2 CODECOPY PUSH1 0x0 PUSH1 0x40 MLOAD DUP1 PUSH1 0x60 ADD PUSH1 0x40 MSTORE DUP1 PUSH1 0x2A DUP2 MSTORE PUSH1 0x20 ADD PUSH2 0x440E PUSH1 0x2A SWAP2 CODECOPY PUSH2 0x1C58 JUMP JUMPDEST POP PUSH1 0x60 PUSH2 0xCB2 PUSH1 0x40 MLOAD DUP1 PUSH2 0x3A0 ADD PUSH1 0x40 MSTORE DUP1 PUSH2 0x379 DUP2 MSTORE PUSH1 0x20 ADD PUSH2 0x4438 PUSH2 0x379 SWAP2 CODECOPY PUSH1 0x0 DUP4 PUSH1 0x40 MLOAD DUP1 PUSH1 0x60 ADD PUSH1 0x40 MSTORE DUP1 PUSH1 0x2A DUP2 MSTORE PUSH1 0x20 ADD PUSH2 0x440E PUSH1 0x2A SWAP2 CODECOPY PUSH2 0xFA0 JUMP JUMPDEST POP POP JUMP JUMPDEST PUSH1 0x60 PUSH1 0x0 PUSH1 0x2 SLOAD PUSH8 0xFFFFFFFFFFFFFFFF DUP2 GT ISZERO PUSH2 0xCD6 JUMPI PUSH2 0xCD5 PUSH2 0x3480 JUMP JUMPDEST JUMPDEST PUSH1 0x40 MLOAD SWAP1 DUP1 DUP3 MSTORE DUP1 PUSH1 0x20 MUL PUSH1 0x20 ADD DUP3 ADD PUSH1 0x40 MSTORE DUP1 ISZERO PUSH2 0xD09 JUMPI DUP2 PUSH1 0x20 ADD JUMPDEST PUSH1 0x60 DUP2 MSTORE PUSH1 0x20 ADD SWAP1 PUSH1 0x1 SWAP1 SUB SWAP1 DUP2 PUSH2 0xCF4 JUMPI SWAP1 POP JUMPDEST POP SWAP1 POP PUSH1 0x0 DUP1 PUSH1 0x0 SWAP1 POP JUMPDEST PUSH1 0x2 SLOAD DUP2 LT ISZERO PUSH2 0xE1A JUMPI DUP5 PUSH1 0xD PUSH1 0x0 DUP4 DUP2 MSTORE PUSH1 0x20 ADD SWAP1 DUP2 MSTORE PUSH1 0x20 ADD PUSH1 0x0 KECCAK256 PUSH1 0x0 ADD SLOAD SUB PUSH2 0xE07 JUMPI PUSH1 0xD PUSH1 0x0 DUP3 DUP2 MSTORE PUSH1 0x20 ADD SWAP1 DUP2 MSTORE PUSH1 0x20 ADD PUSH1 0x0 KECCAK256 PUSH1 0x1 ADD DUP1 SLOAD PUSH2 0xD5C SWAP1 PUSH2 0x3F77 JUMP JUMPDEST DUP1 PUSH1 0x1F ADD PUSH1 0x20 DUP1 SWAP2 DIV MUL PUSH1 0x20 ADD PUSH1 0x40 MLOAD SWAP1 DUP2 ADD PUSH1 0x40 MSTORE DUP1 SWAP3 SWAP2 SWAP1 DUP2 DUP2 MSTORE PUSH1 0x20 ADD DUP3 DUP1 SLOAD PUSH2 0xD88 SWAP1 PUSH2 0x3F77 JUMP JUMPDEST DUP1 ISZERO PUSH2 0xDD5 JUMPI DUP1 PUSH1 0x1F LT PUSH2 0xDAA JUMPI PUSH2 0x100 DUP1 DUP4 SLOAD DIV MUL DUP4 MSTORE SWAP2 PUSH1 0x20 ADD SWAP2 PUSH2 0xDD5 JUMP JUMPDEST DUP3 ADD SWAP2 SWAP1 PUSH1 0x0 MSTORE PUSH1 0x20 PUSH1 0x0 KECCAK256 SWAP1 JUMPDEST DUP2 SLOAD DUP2 MSTORE SWAP1 PUSH1 0x1 ADD SWAP1 PUSH1 0x20 ADD DUP1 DUP4 GT PUSH2 0xDB8 JUMPI DUP3 SWAP1 SUB PUSH1 0x1F AND DUP3 ADD SWAP2 JUMPDEST POP POP POP POP POP DUP4 DUP4 DUP2 MLOAD DUP2 LT PUSH2 0xDED JUMPI PUSH2 0xDEC PUSH2 0x3FA8 JUMP JUMPDEST JUMPDEST PUSH1 0x20 MUL PUSH1 0x20 ADD ADD DUP2 SWAP1 MSTORE POP DUP2 DUP1 PUSH2 0xE03 SWAP1 PUSH2 0x4006 JUMP JUMPDEST SWAP3 POP POP JUMPDEST DUP1 DUP1 PUSH2 0xE12 SWAP1 PUSH2 0x4006 JUMP JUMPDEST SWAP2 POP POP PUSH2 0xD14 JUMP JUMPDEST POP DUP2 SWAP3 POP POP POP SWAP2 SWAP1 POP JUMP JUMPDEST PUSH1 0x4 SLOAD DUP2 JUMP JUMPDEST PUSH1 0x60 PUSH1 0x0 PUSH1 0x3 SLOAD PUSH8 0xFFFFFFFFFFFFFFFF DUP2 GT ISZERO PUSH2 0xE4B JUMPI PUSH2 0xE4A PUSH2 0x3480 JUMP JUMPDEST JUMPDEST PUSH1 0x40 MLOAD SWAP1 DUP1 DUP3 MSTORE DUP1 PUSH1 0x20 MUL PUSH1 0x20 ADD DUP3 ADD PUSH1 0x40 MSTORE DUP1 ISZERO PUSH2 0xE7E JUMPI DUP2 PUSH1 0x20 ADD JUMPDEST PUSH1 0x60 DUP2 MSTORE PUSH1 0x20 ADD SWAP1 PUSH1 0x1 SWAP1 SUB SWAP1 DUP2 PUSH2 0xE69 JUMPI SWAP1 POP JUMPDEST POP SWAP1 POP PUSH1 0x0 DUP1 PUSH1 0x0 SWAP1 POP JUMPDEST PUSH1 0x3 SLOAD DUP2 LT ISZERO PUSH2 0xF8F JUMPI DUP5 PUSH1 0xE PUSH1 0x0 DUP4 DUP2 MSTORE PUSH1 0x20 ADD SWAP1 DUP2 MSTORE PUSH1 0x20 ADD PUSH1 0x0 KECCAK256 PUSH1 0x0 ADD SLOAD SUB PUSH2 0xF6E JUMPI PUSH1 0xE PUSH1 0x0 DUP3 DUP2 MSTORE PUSH1 0x20 ADD SWAP1 DUP2 MSTORE PUSH1 0x20 ADD PUSH1 0x0 KECCAK256 PUSH1 0x1 ADD DUP1 SLOAD PUSH2 0xED1 SWAP1 PUSH2 0x3F77 JUMP JUMPDEST DUP1 PUSH1 0x1F ADD PUSH1 0x20 DUP1 SWAP2 DIV MUL PUSH1 0x20 ADD PUSH1 0x40 MLOAD SWAP1 DUP2 ADD PUSH1 0x40 MSTORE DUP1 SWAP3 SWAP2 SWAP1 DUP2 DUP2 MSTORE PUSH1 0x20 ADD DUP3 DUP1 SLOAD PUSH2 0xEFD SWAP1 PUSH2 0x3F77 JUMP JUMPDEST DUP1 ISZERO PUSH2 0xF4A JUMPI DUP1 PUSH1 0x1F LT PUSH2 0xF1F JUMPI PUSH2 0x100 DUP1 DUP4 SLOAD DIV MUL DUP4 MSTORE SWAP2 PUSH1 0x20 ADD SWAP2 PUSH2 0xF4A JUMP JUMPDEST DUP3 ADD SWAP2 SWAP1 PUSH1 0x0 MSTORE PUSH1 0x20 PUSH1 0x0 KECCAK256 SWAP1 JUMPDEST DUP2 SLOAD DUP2 MSTORE SWAP1 PUSH1 0x1 ADD SWAP1 PUSH1 0x20 ADD DUP1 DUP4 GT PUSH2 0xF2D JUMPI DUP3 SWAP1 SUB PUSH1 0x1F AND DUP3 ADD SWAP2 JUMPDEST POP POP POP POP POP DUP4 DUP4 DUP2 MLOAD DUP2 LT PUSH2 0xF62 JUMPI PUSH2 0xF61 PUSH2 0x3FA8 JUMP JUMPDEST JUMPDEST PUSH1 0x20 MUL PUSH1 0x20 ADD ADD DUP2 SWAP1 MSTORE POP JUMPDEST DUP2 DUP1 PUSH2 0xF79 SWAP1 PUSH2 0x4006 JUMP JUMPDEST SWAP3 POP POP DUP1 DUP1 PUSH2 0xF87 SWAP1 PUSH2 0x4006 JUMP JUMPDEST SWAP2 POP POP PUSH2 0xE89 JUMP JUMPDEST POP DUP2 SWAP3 POP POP POP SWAP2 SWAP1 POP JUMP JUMPDEST PUSH1 0x2 SLOAD DUP2 JUMP JUMPDEST PUSH1 0x0 PUSH1 0x40 MLOAD DUP1 PUSH1 0x60 ADD PUSH1 0x40 MSTORE DUP1 DUP6 DUP2 MSTORE PUSH1 0x20 ADD DUP7 DUP2 MSTORE PUSH1 0x20 ADD PUSH1 0x0 DUP2 MSTORE POP PUSH1 0xE PUSH1 0x0 PUSH1 0x3 SLOAD DUP2 MSTORE PUSH1 0x20 ADD SWAP1 DUP2 MSTORE PUSH1 0x20 ADD PUSH1 0x0 KECCAK256 PUSH1 0x0 DUP3 ADD MLOAD DUP2 PUSH1 0x0 ADD SSTORE PUSH1 0x20 DUP3 ADD MLOAD DUP2 PUSH1 0x1 ADD SWAP1 DUP2 PUSH2 0xFF2 SWAP2 SWAP1 PUSH2 0x41FA JUMP JUMPDEST POP PUSH1 0x40 DUP3 ADD MLOAD DUP2 PUSH1 0x2 ADD SSTORE SWAP1 POP POP PUSH1 0x1 PUSH1 0x16 DUP4 PUSH1 0x40 MLOAD PUSH2 0x1012 SWAP2 SWAP1 PUSH2 0x4308 JUMP JUMPDEST SWAP1 DUP2 MSTORE PUSH1 0x20 ADD PUSH1 0x40 MLOAD DUP1 SWAP2 SUB SWAP1 KECCAK256 PUSH1 0x1 ADD PUSH1 0x3 PUSH2 0x100 EXP DUP2 SLOAD DUP2 PUSH1 0xFF MUL NOT AND SWAP1 DUP4 ISZERO ISZERO MUL OR SWAP1 SSTORE POP PUSH1 0x3 PUSH1 0x0 DUP2 SLOAD DUP1 SWAP3 SWAP2 SWAP1 PUSH2 0x104D SWAP1 PUSH2 0x4006 JUMP JUMPDEST SWAP2 SWAP1 POP SSTORE POP PUSH1 0x0 JUMPDEST DUP4 MLOAD DUP2 LT ISZERO PUSH2 0x10B2 JUMPI PUSH2 0x1087 PUSH1 0x3 SLOAD PUSH1 0x5 SLOAD DUP7 DUP5 DUP2 MLOAD DUP2 LT PUSH2 0x107A JUMPI PUSH2 0x1079 PUSH2 0x3FA8 JUMP JUMPDEST JUMPDEST PUSH1 0x20 MUL PUSH1 0x20 ADD ADD MLOAD PUSH2 0x31A4 JUMP JUMPDEST PUSH1 0x5 PUSH1 0x0 DUP2 SLOAD DUP1 SWAP3 SWAP2 SWAP1 PUSH2 0x109A SWAP1 PUSH2 0x4006 JUMP JUMPDEST SWAP2 SWAP1 POP SSTORE POP DUP1 DUP1 PUSH2 0x10AA SWAP1 PUSH2 0x4006 JUMP JUMPDEST SWAP2 POP POP PUSH2 0x1055 JUMP JUMPDEST POP PUSH1 0x3 SLOAD SWAP1 POP SWAP5 SWAP4 POP POP POP POP JUMP JUMPDEST PUSH1 0x5 SLOAD DUP2 JUMP JUMPDEST PUSH1 0x12 PUSH1 0x20 MSTORE DUP1 PUSH1 0x0 MSTORE PUSH1 0x40 PUSH1 0x0 KECCAK256 PUSH1 0x0 SWAP2 POP SWAP1 POP DUP1 PUSH1 0x0 ADD SLOAD SWAP1 DUP1 PUSH1 0x1 ADD SLOAD SWAP1 DUP1 PUSH1 0x2 ADD DUP1 SLOAD PUSH2 0x10F5 SWAP1 PUSH2 0x3F77 JUMP JUMPDEST DUP1 PUSH1 0x1F ADD PUSH1 0x20 DUP1 SWAP2 DIV MUL PUSH1 0x20 ADD PUSH1 0x40 MLOAD SWAP1 DUP2 ADD PUSH1 0x40 MSTORE DUP1 SWAP3 SWAP2 SWAP1 DUP2 DUP2 MSTORE PUSH1 0x20 ADD DUP3 DUP1 SLOAD PUSH2 0x1121 SWAP1 PUSH2 0x3F77 JUMP JUMPDEST DUP1 ISZERO PUSH2 0x116E JUMPI DUP1 PUSH1 0x1F LT PUSH2 0x1143 JUMPI PUSH2 0x100 DUP1 DUP4 SLOAD DIV MUL DUP4 MSTORE SWAP2 PUSH1 0x20 ADD SWAP2 PUSH2 0x116E JUMP JUMPDEST DUP3 ADD SWAP2 SWAP1 PUSH1 0x0 MSTORE PUSH1 0x20 PUSH1 0x0 KECCAK256 SWAP1 JUMPDEST DUP2 SLOAD DUP2 MSTORE SWAP1 PUSH1 0x1 ADD SWAP1 PUSH1 0x20 ADD DUP1 DUP4 GT PUSH2 0x1151 JUMPI DUP3 SWAP1 SUB PUSH1 0x1F AND DUP3 ADD SWAP2 JUMPDEST POP POP POP POP POP SWAP1 POP DUP4 JUMP JUMPDEST PUSH1 0x0 DUP1 PUSH1 0x0 SWAP1 POP JUMPDEST PUSH1 0x2 SLOAD DUP2 LT ISZERO PUSH2 0x11DE JUMPI DUP3 DUP1 MLOAD SWAP1 PUSH1 0x20 ADD KECCAK256 PUSH1 0xD PUSH1 0x0 DUP4 DUP2 MSTORE PUSH1 0x20 ADD SWAP1 DUP2 MSTORE PUSH1 0x20 ADD PUSH1 0x0 KECCAK256 PUSH1 0x1 ADD PUSH1 0x40 MLOAD PUSH2 0x11B5 SWAP2 SWAP1 PUSH2 0x43C2 JUMP JUMPDEST PUSH1 0x40 MLOAD DUP1 SWAP2 SUB SWAP1 KECCAK256 SUB PUSH2 0x11CB JUMPI DUP1 SWAP2 POP POP PUSH2 0x11E4 JUMP JUMPDEST DUP1 DUP1 PUSH2 0x11D6 SWAP1 PUSH2 0x4006 JUMP JUMPDEST SWAP2 POP POP PUSH2 0x1180 JUMP JUMPDEST POP PUSH1 0x0 SWAP1 POP JUMPDEST SWAP2 SWAP1 POP JUMP JUMPDEST PUSH1 0xA PUSH1 0x20 MSTORE DUP1 PUSH1 0x0 MSTORE PUSH1 0x40 PUSH1 0x0 KECCAK256 PUSH1 0x0 SWAP2 POP SWAP1 POP DUP1 PUSH1 0x0 ADD DUP1 SLOAD PUSH2 0x120C SWAP1 PUSH2 0x3F77 JUMP JUMPDEST DUP1 PUSH1 0x1F ADD PUSH1 0x20 DUP1 SWAP2 DIV MUL PUSH1 0x20 ADD PUSH1 0x40 MLOAD SWAP1 DUP2 ADD PUSH1 0x40 MSTORE DUP1 SWAP3 SWAP2 SWAP1 DUP2 DUP2 MSTORE PUSH1 0x20 ADD DUP3 DUP1 SLOAD PUSH2 0x1238 SWAP1 PUSH2 0x3F77 JUMP JUMPDEST DUP1 ISZERO PUSH2 0x1285 JUMPI DUP1 PUSH1 0x1F LT PUSH2 0x125A JUMPI PUSH2 0x100 DUP1 DUP4 SLOAD DIV MUL DUP4 MSTORE SWAP2 PUSH1 0x20 ADD SWAP2 PUSH2 0x1285 JUMP JUMPDEST DUP3 ADD SWAP2 SWAP1 PUSH1 0x0 MSTORE PUSH1 0x20 PUSH1 0x0 KECCAK256 SWAP1 JUMPDEST DUP2 SLOAD DUP2 MSTORE SWAP1 PUSH1 0x1 ADD SWAP1 PUSH1 0x20 ADD DUP1 DUP4 GT PUSH2 0x1268 JUMPI DUP3 SWAP1 SUB PUSH1 0x1F AND DUP3 ADD SWAP2 JUMPDEST POP POP POP POP POP SWAP1 DUP1 PUSH1 0x1 ADD DUP1 SLOAD PUSH2 0x129A SWAP1 PUSH2 0x3F77 JUMP JUMPDEST DUP1 PUSH1 0x1F ADD PUSH1 0x20 DUP1 SWAP2 DIV MUL PUSH1 0x20 ADD PUSH1 0x40 MLOAD SWAP1 DUP2 ADD PUSH1 0x40 MSTORE DUP1 SWAP3 SWAP2 SWAP1 DUP2 DUP2 MSTORE PUSH1 0x20 ADD DUP3 DUP1 SLOAD PUSH2 0x12C6 SWAP1 PUSH2 0x3F77 JUMP JUMPDEST DUP1 ISZERO PUSH2 0x1313 JUMPI DUP1 PUSH1 0x1F LT PUSH2 0x12E8 JUMPI PUSH2 0x100 DUP1 DUP4 SLOAD DIV MUL DUP4 MSTORE SWAP2 PUSH1 0x20 ADD SWAP2 PUSH2 0x1313 JUMP JUMPDEST DUP3 ADD SWAP2 SWAP1 PUSH1 0x0 MSTORE PUSH1 0x20 PUSH1 0x0 KECCAK256 SWAP1 JUMPDEST DUP2 SLOAD DUP2 MSTORE SWAP1 PUSH1 0x1 ADD SWAP1 PUSH1 0x20 ADD DUP1 DUP4 GT PUSH2 0x12F6 JUMPI DUP3 SWAP1 SUB PUSH1 0x1F AND DUP3 ADD SWAP2 JUMPDEST POP POP POP POP POP SWAP1 DUP1 PUSH1 0x2 ADD DUP1 SLOAD PUSH2 0x1328 SWAP1 PUSH2 0x3F77 JUMP JUMPDEST DUP1 PUSH1 0x1F ADD PUSH1 0x20 DUP1 SWAP2 DIV MUL PUSH1 0x20 ADD PUSH1 0x40 MLOAD SWAP1 DUP2 ADD PUSH1 0x40 MSTORE DUP1 SWAP3 SWAP2 SWAP1 DUP2 DUP2 MSTORE PUSH1 0x20 ADD DUP3 DUP1 SLOAD PUSH2 0x1354 SWAP1 PUSH2 0x3F77 JUMP JUMPDEST DUP1 ISZERO PUSH2 0x13A1 JUMPI DUP1 PUSH1 0x1F LT PUSH2 0x1376 JUMPI PUSH2 0x100 DUP1 DUP4 SLOAD DIV MUL DUP4 MSTORE SWAP2 PUSH1 0x20 ADD SWAP2 PUSH2 0x13A1 JUMP JUMPDEST DUP3 ADD SWAP2 SWAP1 PUSH1 0x0 MSTORE PUSH1 0x20 PUSH1 0x0 KECCAK256 SWAP1 JUMPDEST DUP2 SLOAD DUP2 MSTORE SWAP1 PUSH1 0x1 ADD SWAP1 PUSH1 0x20 ADD DUP1 DUP4 GT PUSH2 0x1384 JUMPI DUP3 SWAP1 SUB PUSH1 0x1F AND DUP3 ADD SWAP2 JUMPDEST POP POP POP POP POP SWAP1 POP DUP4 JUMP JUMPDEST PUSH1 0x60 PUSH1 0x0 PUSH1 0x2 SLOAD PUSH8 0xFFFFFFFFFFFFFFFF DUP2 GT ISZERO PUSH2 0x13CB JUMPI PUSH2 0x13CA PUSH2 0x3480 JUMP JUMPDEST JUMPDEST PUSH1 0x40 MLOAD SWAP1 DUP1 DUP3 MSTORE DUP1 PUSH1 0x20 MUL PUSH1 0x20 ADD DUP3 ADD PUSH1 0x40 MSTORE DUP1 ISZERO PUSH2 0x13FE JUMPI DUP2 PUSH1 0x20 ADD JUMPDEST PUSH1 0x60 DUP2 MSTORE PUSH1 0x20 ADD SWAP1 PUSH1 0x1 SWAP1 SUB SWAP1 DUP2 PUSH2 0x13E9 JUMPI SWAP1 POP JUMPDEST POP SWAP1 POP PUSH1 0x0 JUMPDEST PUSH1 0x2 SLOAD DUP2 LT ISZERO PUSH2 0x14DE JUMPI PUSH1 0xD PUSH1 0x0 DUP3 DUP2 MSTORE PUSH1 0x20 ADD SWAP1 DUP2 MSTORE PUSH1 0x20 ADD PUSH1 0x0 KECCAK256 PUSH1 0x1 ADD DUP1 SLOAD PUSH2 0x142F SWAP1 PUSH2 0x3F77 JUMP JUMPDEST DUP1 PUSH1 0x1F ADD PUSH1 0x20 DUP1 SWAP2 DIV MUL PUSH1 0x20 ADD PUSH1 0x40 MLOAD SWAP1 DUP2 ADD PUSH1 0x40 MSTORE DUP1 SWAP3 SWAP2 SWAP1 DUP2 DUP2 MSTORE PUSH1 0x20 ADD DUP3 DUP1 SLOAD PUSH2 0x145B SWAP1 PUSH2 0x3F77 JUMP JUMPDEST DUP1 ISZERO PUSH2 0x14A8 JUMPI DUP1 PUSH1 0x1F LT PUSH2 0x147D JUMPI PUSH2 0x100 DUP1 DUP4 SLOAD DIV MUL DUP4 MSTORE SWAP2 PUSH1 0x20 ADD SWAP2 PUSH2 0x14A8 JUMP JUMPDEST DUP3 ADD SWAP2 SWAP1 PUSH1 0x0 MSTORE PUSH1 0x20 PUSH1 0x0 KECCAK256 SWAP1 JUMPDEST DUP2 SLOAD DUP2 MSTORE SWAP1 PUSH1 0x1 ADD SWAP1 PUSH1 0x20 ADD DUP1 DUP4 GT PUSH2 0x148B JUMPI DUP3 SWAP1 SUB PUSH1 0x1F AND DUP3 ADD SWAP2 JUMPDEST POP POP POP POP POP DUP3 DUP3 DUP2 MLOAD DUP2 LT PUSH2 0x14C0 JUMPI PUSH2 0x14BF PUSH2 0x3FA8 JUMP JUMPDEST JUMPDEST PUSH1 0x20 MUL PUSH1 0x20 ADD ADD DUP2 SWAP1 MSTORE POP DUP1 DUP1 PUSH2 0x14D6 SWAP1 PUSH2 0x4006 JUMP JUMPDEST SWAP2 POP POP PUSH2 0x1404 JUMP JUMPDEST POP DUP1 SWAP2 POP POP SWAP1 JUMP JUMPDEST PUSH1 0xC PUSH1 0x20 MSTORE DUP1 PUSH1 0x0 MSTORE PUSH1 0x40 PUSH1 0x0 KECCAK256 PUSH1 0x0 SWAP2 POP SWAP1 POP DUP1 PUSH1 0x0 ADD SLOAD SWAP1 DUP1 PUSH1 0x1 ADD DUP1 SLOAD PUSH2 0x150F SWAP1 PUSH2 0x3F77 JUMP JUMPDEST DUP1 PUSH1 0x1F ADD PUSH1 0x20 DUP1 SWAP2 DIV MUL PUSH1 0x20 ADD PUSH1 0x40 MLOAD SWAP1 DUP2 ADD PUSH1 0x40 MSTORE DUP1 SWAP3 SWAP2 SWAP1 DUP2 DUP2 MSTORE PUSH1 0x20 ADD DUP3 DUP1 SLOAD PUSH2 0x153B SWAP1 PUSH2 0x3F77 JUMP JUMPDEST DUP1 ISZERO PUSH2 0x1588 JUMPI DUP1 PUSH1 0x1F LT PUSH2 0x155D JUMPI PUSH2 0x100 DUP1 DUP4 SLOAD DIV MUL DUP4 MSTORE SWAP2 PUSH1 0x20 ADD SWAP2 PUSH2 0x1588 JUMP JUMPDEST DUP3 ADD SWAP2 SWAP1 PUSH1 0x0 MSTORE PUSH1 0x20 PUSH1 0x0 KECCAK256 SWAP1 JUMPDEST DUP2 SLOAD DUP2 MSTORE SWAP1 PUSH1 0x1 ADD SWAP1 PUSH1 0x20 ADD DUP1 DUP4 GT PUSH2 0x156B JUMPI DUP3 SWAP1 SUB PUSH1 0x1F AND DUP3 ADD SWAP2 JUMPDEST POP POP POP POP POP SWAP1 POP DUP3 JUMP JUMPDEST PUSH1 0x0 PUSH1 0x1 PUSH1 0x16 DUP4 PUSH1 0x40 MLOAD PUSH2 0x15A6 SWAP2 SWAP1 PUSH2 0x4308 JUMP JUMPDEST SWAP1 DUP2 MSTORE PUSH1 0x20 ADD PUSH1 0x40 MLOAD DUP1 SWAP2 SUB SWAP1 KECCAK256 PUSH1 0x1 ADD PUSH1 0x6 PUSH2 0x100 EXP DUP2 SLOAD DUP2 PUSH1 0xFF MUL NOT AND SWAP1 DUP4 ISZERO ISZERO MUL OR SWAP1 SSTORE POP PUSH1 0x40 MLOAD DUP1 PUSH1 0x80 ADD PUSH1 0x40 MSTORE DUP1 PUSH1 0x7 SLOAD DUP2 MSTORE PUSH1 0x20 ADD DUP6 DUP2 MSTORE PUSH1 0x20 ADD DUP5 DUP2 MSTORE PUSH1 0x20 ADD DUP4 DUP2 MSTORE POP PUSH1 0x13 PUSH1 0x0 PUSH1 0x7 SLOAD DUP2 MSTORE PUSH1 0x20 ADD SWAP1 DUP2 MSTORE PUSH1 0x20 ADD PUSH1 0x0 KECCAK256 PUSH1 0x0 DUP3 ADD MLOAD DUP2 PUSH1 0x0 ADD SSTORE PUSH1 0x20 DUP3 ADD MLOAD DUP2 PUSH1 0x1 ADD SSTORE PUSH1 0x40 DUP3 ADD MLOAD DUP2 PUSH1 0x2 ADD SWAP1 DUP2 PUSH2 0x162F SWAP2 SWAP1 PUSH2 0x41FA JUMP JUMPDEST POP PUSH1 0x60 DUP3 ADD MLOAD DUP2 PUSH1 0x3 ADD SWAP1 DUP2 PUSH2 0x1645 SWAP2 SWAP1 PUSH2 0x41FA JUMP JUMPDEST POP SWAP1 POP POP PUSH1 0x7 PUSH1 0x0 DUP2 SLOAD DUP1 SWAP3 SWAP2 SWAP1 PUSH2 0x165C SWAP1 PUSH2 0x4006 JUMP JUMPDEST SWAP2 SWAP1 POP SSTORE POP PUSH1 0x7 SLOAD SWAP1 POP SWAP4 SWAP3 POP POP POP JUMP JUMPDEST PUSH1 0x15 PUSH1 0x20 MSTORE DUP1 PUSH1 0x0 MSTORE PUSH1 0x40 PUSH1 0x0 KECCAK256 PUSH1 0x0 SWAP2 POP SWAP1 POP DUP1 PUSH1 0x0 ADD SLOAD SWAP1 DUP1 PUSH1 0x1 ADD SLOAD SWAP1 DUP1 PUSH1 0x2 ADD SLOAD SWAP1 DUP1 PUSH1 0x3 ADD DUP1 SLOAD PUSH2 0x16A2 SWAP1 PUSH2 0x3F77 JUMP JUMPDEST DUP1 PUSH1 0x1F ADD PUSH1 0x20 DUP1 SWAP2 DIV MUL PUSH1 0x20 ADD PUSH1 0x40 MLOAD SWAP1 DUP2 ADD PUSH1 0x40 MSTORE DUP1 SWAP3 SWAP2 SWAP1 DUP2 DUP2 MSTORE PUSH1 0x20 ADD DUP3 DUP1 SLOAD PUSH2 0x16CE SWAP1 PUSH2 0x3F77 JUMP JUMPDEST DUP1 ISZERO PUSH2 0x171B JUMPI DUP1 PUSH1 0x1F LT PUSH2 0x16F0 JUMPI PUSH2 0x100 DUP1 DUP4 SLOAD DIV MUL DUP4 MSTORE SWAP2 PUSH1 0x20 ADD SWAP2 PUSH2 0x171B JUMP JUMPDEST DUP3 ADD SWAP2 SWAP1 PUSH1 0x0 MSTORE PUSH1 0x20 PUSH1 0x0 KECCAK256 SWAP1 JUMPDEST DUP2 SLOAD DUP2 MSTORE SWAP1 PUSH1 0x1 ADD SWAP1 PUSH1 0x20 ADD DUP1 DUP4 GT PUSH2 0x16FE JUMPI DUP3 SWAP1 SUB PUSH1 0x1F AND DUP3 ADD SWAP2 JUMPDEST POP POP POP POP POP SWAP1 POP DUP5 JUMP JUMPDEST PUSH1 0xE PUSH1 0x20 MSTORE DUP1 PUSH1 0x0 MSTORE PUSH1 0x40 PUSH1 0x0 KECCAK256 PUSH1 0x0 SWAP2 POP SWAP1 POP DUP1 PUSH1 0x0 ADD SLOAD SWAP1 DUP1 PUSH1 0x1 ADD DUP1 SLOAD PUSH2 0x174E SWAP1 PUSH2 0x3F77 JUMP JUMPDEST DUP1 PUSH1 0x1F ADD PUSH1 0x20 DUP1 SWAP2 DIV MUL PUSH1 0x20 ADD PUSH1 0x40 MLOAD SWAP1 DUP2 ADD PUSH1 0x40 MSTORE DUP1 SWAP3 SWAP2 SWAP1 DUP2 DUP2 MSTORE PUSH1 0x20 ADD DUP3 DUP1 SLOAD PUSH2 0x177A SWAP1 PUSH2 0x3F77 JUMP JUMPDEST DUP1 ISZERO PUSH2 0x17C7 JUMPI DUP1 PUSH1 0x1F LT PUSH2 0x179C JUMPI PUSH2 0x100 DUP1 DUP4 SLOAD DIV MUL DUP4 MSTORE SWAP2 PUSH1 0x20 ADD SWAP2 PUSH2 0x17C7 JUMP JUMPDEST DUP3 ADD SWAP2 SWAP1 PUSH1 0x0 MSTORE PUSH1 0x20 PUSH1 0x0 KECCAK256 SWAP1 JUMPDEST DUP2 SLOAD DUP2 MSTORE SWAP1 PUSH1 0x1 ADD SWAP1 PUSH1 0x20 ADD DUP1 DUP4 GT PUSH2 0x17AA JUMPI DUP3 SWAP1 SUB PUSH1 0x1F AND DUP3 ADD SWAP2 JUMPDEST POP POP POP POP POP SWAP1 DUP1 PUSH1 0x2 ADD SLOAD SWAP1 POP DUP4 JUMP JUMPDEST PUSH1 0x0 PUSH1 0x1 PUSH1 0x16 DUP4 PUSH1 0x40 MLOAD PUSH2 0x17EB SWAP2 SWAP1 PUSH2 0x4308 JUMP JUMPDEST SWAP1 DUP2 MSTORE PUSH1 0x20 ADD PUSH1 0x40 MLOAD DUP1 SWAP2 SUB SWAP1 KECCAK256 PUSH1 0x1 ADD PUSH1 0x7 PUSH2 0x100 EXP DUP2 SLOAD DUP2 PUSH1 0xFF MUL NOT AND SWAP1 DUP4 ISZERO ISZERO MUL OR SWAP1 SSTORE POP PUSH1 0x40 MLOAD DUP1 PUSH1 0x80 ADD PUSH1 0x40 MSTORE DUP1 PUSH1 0x9 SLOAD DUP2 MSTORE PUSH1 0x20 ADD DUP7 DUP2 MSTORE PUSH1 0x20 ADD DUP5 DUP2 MSTORE PUSH1 0x20 ADD DUP6 DUP2 MSTORE POP PUSH1 0x15 PUSH1 0x0 PUSH1 0x9 SLOAD DUP2 MSTORE PUSH1 0x20 ADD SWAP1 DUP2 MSTORE PUSH1 0x20 ADD PUSH1 0x0 KECCAK256 PUSH1 0x0 DUP3 ADD MLOAD DUP2 PUSH1 0x0 ADD SSTORE PUSH1 0x20 DUP3 ADD MLOAD DUP2 PUSH1 0x1 ADD SSTORE PUSH1 0x40 DUP3 ADD MLOAD DUP2 PUSH1 0x2 ADD SSTORE PUSH1 0x60 DUP3 ADD MLOAD DUP2 PUSH1 0x3 ADD SWAP1 DUP2 PUSH2 0x187E SWAP2 SWAP1 PUSH2 0x41FA JUMP JUMPDEST POP SWAP1 POP POP PUSH1 0x9 PUSH1 0x0 DUP2 SLOAD DUP1 SWAP3 SWAP2 SWAP1 PUSH2 0x1895 SWAP1 PUSH2 0x4006 JUMP JUMPDEST SWAP2 SWAP1 POP SSTORE POP PUSH1 0x9 SLOAD SWAP1 POP SWAP5 SWAP4 POP POP POP POP JUMP JUMPDEST PUSH1 0x6 SLOAD DUP2 JUMP JUMPDEST PUSH1 0x60 PUSH1 0x0 PUSH1 0x6 SLOAD PUSH8 0xFFFFFFFFFFFFFFFF DUP2 GT ISZERO PUSH2 0x18CD JUMPI PUSH2 0x18CC PUSH2 0x3480 JUMP JUMPDEST JUMPDEST PUSH1 0x40 MLOAD SWAP1 DUP1 DUP3 MSTORE DUP1 PUSH1 0x20 MUL PUSH1 0x20 ADD DUP3 ADD PUSH1 0x40 MSTORE DUP1 ISZERO PUSH2 0x1900 JUMPI DUP2 PUSH1 0x20 ADD JUMPDEST PUSH1 0x60 DUP2 MSTORE PUSH1 0x20 ADD SWAP1 PUSH1 0x1 SWAP1 SUB SWAP1 DUP2 PUSH2 0x18EB JUMPI SWAP1 POP JUMPDEST POP SWAP1 POP PUSH1 0x0 DUP1 PUSH1 0x0 SWAP1 POP JUMPDEST PUSH1 0x6 SLOAD DUP2 LT ISZERO PUSH2 0x1A33 JUMPI DUP6 PUSH1 0x12 PUSH1 0x0 DUP4 DUP2 MSTORE PUSH1 0x20 ADD SWAP1 DUP2 MSTORE PUSH1 0x20 ADD PUSH1 0x0 KECCAK256 PUSH1 0x0 ADD SLOAD EQ DUP1 ISZERO PUSH2 0x194F JUMPI POP DUP5 PUSH1 0x12 PUSH1 0x0 DUP4 DUP2 MSTORE PUSH1 0x20 ADD SWAP1 DUP2 MSTORE PUSH1 0x20 ADD PUSH1 0x0 KECCAK256 PUSH1 0x1 ADD SLOAD EQ JUMPDEST ISZERO PUSH2 0x1A12 JUMPI PUSH1 0x12 PUSH1 0x0 DUP3 DUP2 MSTORE PUSH1 0x20 ADD SWAP1 DUP2 MSTORE PUSH1 0x20 ADD PUSH1 0x0 KECCAK256 PUSH1 0x2 ADD DUP1 SLOAD PUSH2 0x1975 SWAP1 PUSH2 0x3F77 JUMP JUMPDEST DUP1 PUSH1 0x1F ADD PUSH1 0x20 DUP1 SWAP2 DIV MUL PUSH1 0x20 ADD PUSH1 0x40 MLOAD SWAP1 DUP2 ADD PUSH1 0x40 MSTORE DUP1 SWAP3 SWAP2 SWAP1 DUP2 DUP2 MSTORE PUSH1 0x20 ADD DUP3 DUP1 SLOAD PUSH2 0x19A1 SWAP1 PUSH2 0x3F77 JUMP JUMPDEST DUP1 ISZERO PUSH2 0x19EE JUMPI DUP1 PUSH1 0x1F LT PUSH2 0x19C3 JUMPI PUSH2 0x100 DUP1 DUP4 SLOAD DIV MUL DUP4 MSTORE SWAP2 PUSH1 0x20 ADD SWAP2 PUSH2 0x19EE JUMP JUMPDEST DUP3 ADD SWAP2 SWAP1 PUSH1 0x0 MSTORE PUSH1 0x20 PUSH1 0x0 KECCAK256 SWAP1 JUMPDEST DUP2 SLOAD DUP2 MSTORE SWAP1 PUSH1 0x1 ADD SWAP1 PUSH1 0x20 ADD DUP1 DUP4 GT PUSH2 0x19D1 JUMPI DUP3 SWAP1 SUB PUSH1 0x1F AND DUP3 ADD SWAP2 JUMPDEST POP POP POP POP POP DUP4 DUP4 DUP2 MLOAD DUP2 LT PUSH2 0x1A06 JUMPI PUSH2 0x1A05 PUSH2 0x3FA8 JUMP JUMPDEST JUMPDEST PUSH1 0x20 MUL PUSH1 0x20 ADD ADD DUP2 SWAP1 MSTORE POP JUMPDEST DUP2 DUP1 PUSH2 0x1A1D SWAP1 PUSH2 0x4006 JUMP JUMPDEST SWAP3 POP POP DUP1 DUP1 PUSH2 0x1A2B SWAP1 PUSH2 0x4006 JUMP JUMPDEST SWAP2 POP POP PUSH2 0x190B JUMP JUMPDEST POP DUP2 SWAP3 POP POP POP SWAP3 SWAP2 POP POP JUMP JUMPDEST PUSH1 0x1 PUSH1 0x16 DUP3 PUSH1 0x40 MLOAD PUSH2 0x1A51 SWAP2 SWAP1 PUSH2 0x4308 JUMP JUMPDEST SWAP1 DUP2 MSTORE PUSH1 0x20 ADD PUSH1 0x40 MLOAD DUP1 SWAP2 SUB SWAP1 KECCAK256 PUSH1 0x1 ADD PUSH1 0x1 PUSH2 0x100 EXP DUP2 SLOAD DUP2 PUSH1 0xFF MUL NOT AND SWAP1 DUP4 ISZERO ISZERO MUL OR SWAP1 SSTORE POP PUSH1 0x40 MLOAD DUP1 PUSH1 0x40 ADD PUSH1 0x40 MSTORE DUP1 DUP4 DUP2 MSTORE PUSH1 0x20 ADD DUP3 DUP2 MSTORE POP PUSH1 0xC PUSH1 0x0 PUSH1 0x4 SLOAD DUP2 MSTORE PUSH1 0x20 ADD SWAP1 DUP2 MSTORE PUSH1 0x20 ADD PUSH1 0x0 KECCAK256 PUSH1 0x0 DUP3 ADD MLOAD DUP2 PUSH1 0x0 ADD SSTORE PUSH1 0x20 DUP3 ADD MLOAD DUP2 PUSH1 0x1 ADD SWAP1 DUP2 PUSH2 0x1AC2 SWAP2 SWAP1 PUSH2 0x41FA JUMP JUMPDEST POP SWAP1 POP POP PUSH1 0x4 PUSH1 0x0 DUP2 SLOAD DUP1 SWAP3 SWAP2 SWAP1 PUSH2 0x1AD9 SWAP1 PUSH2 0x4006 JUMP JUMPDEST SWAP2 SWAP1 POP SSTORE POP POP POP JUMP JUMPDEST PUSH1 0x60 PUSH1 0xA PUSH1 0x0 DUP4 DUP2 MSTORE PUSH1 0x20 ADD SWAP1 DUP2 MSTORE PUSH1 0x20 ADD PUSH1 0x0 KECCAK256 PUSH1 0x1 ADD DUP1 SLOAD PUSH2 0x1B05 SWAP1 PUSH2 0x3F77 JUMP JUMPDEST DUP1 PUSH1 0x1F ADD PUSH1 0x20 DUP1 SWAP2 DIV MUL PUSH1 0x20 ADD PUSH1 0x40 MLOAD SWAP1 DUP2 ADD PUSH1 0x40 MSTORE DUP1 SWAP3 SWAP2 SWAP1 DUP2 DUP2 MSTORE PUSH1 0x20 ADD DUP3 DUP1 SLOAD PUSH2 0x1B31 SWAP1 PUSH2 0x3F77 JUMP JUMPDEST DUP1 ISZERO PUSH2 0x1B7E JUMPI DUP1 PUSH1 0x1F LT PUSH2 0x1B53 JUMPI PUSH2 0x100 DUP1 DUP4 SLOAD DIV MUL DUP4 MSTORE SWAP2 PUSH1 0x20 ADD SWAP2 PUSH2 0x1B7E JUMP JUMPDEST DUP3 ADD SWAP2 SWAP1 PUSH1 0x0 MSTORE PUSH1 0x20 PUSH1 0x0 KECCAK256 SWAP1 JUMPDEST DUP2 SLOAD DUP2 MSTORE SWAP1 PUSH1 0x1 ADD SWAP1 PUSH1 0x20 ADD DUP1 DUP4 GT PUSH2 0x1B61 JUMPI DUP3 SWAP1 SUB PUSH1 0x1F AND DUP3 ADD SWAP2 JUMPDEST POP POP POP POP POP SWAP1 POP SWAP2 SWAP1 POP JUMP JUMPDEST PUSH1 0xB PUSH1 0x20 MSTORE DUP1 PUSH1 0x0 MSTORE PUSH1 0x40 PUSH1 0x0 KECCAK256 PUSH1 0x0 SWAP2 POP SWAP1 POP DUP1 SLOAD PUSH2 0x1BA9 SWAP1 PUSH2 0x3F77 JUMP JUMPDEST DUP1 PUSH1 0x1F ADD PUSH1 0x20 DUP1 SWAP2 DIV MUL PUSH1 0x20 ADD PUSH1 0x40 MLOAD SWAP1 DUP2 ADD PUSH1 0x40 MSTORE DUP1 SWAP3 SWAP2 SWAP1 DUP2 DUP2 MSTORE PUSH1 0x20 ADD DUP3 DUP1 SLOAD PUSH2 0x1BD5 SWAP1 PUSH2 0x3F77 JUMP JUMPDEST DUP1 ISZERO PUSH2 0x1C22 JUMPI DUP1 PUSH1 0x1F LT PUSH2 0x1BF7 JUMPI PUSH2 0x100 DUP1 DUP4 SLOAD DIV MUL DUP4 MSTORE SWAP2 PUSH1 0x20 ADD SWAP2 PUSH2 0x1C22 JUMP JUMPDEST DUP3 ADD SWAP2 SWAP1 PUSH1 0x0 MSTORE PUSH1 0x20 PUSH1 0x0 KECCAK256 SWAP1 JUMPDEST DUP2 SLOAD DUP2 MSTORE SWAP1 PUSH1 0x1 ADD SWAP1 PUSH1 0x20 ADD DUP1 DUP4 GT PUSH2 0x1C05 JUMPI DUP3 SWAP1 SUB PUSH1 0x1F AND DUP3 ADD SWAP2 JUMPDEST POP POP POP POP POP DUP2 JUMP JUMPDEST PUSH1 0xF DUP2 DUP1 MLOAD PUSH1 0x20 DUP2 ADD DUP3 ADD DUP1 MLOAD DUP5 DUP3 MSTORE PUSH1 0x20 DUP4 ADD PUSH1 0x20 DUP6 ADD KECCAK256 DUP2 DUP4 MSTORE DUP1 SWAP6 POP POP POP POP POP POP PUSH1 0x0 SWAP2 POP SWAP1 POP SLOAD DUP2 JUMP JUMPDEST PUSH1 0x0 PUSH1 0x40 MLOAD DUP1 PUSH1 0x40 ADD PUSH1 0x40 MSTORE DUP1 DUP5 DUP2 MSTORE PUSH1 0x20 ADD DUP6 DUP2 MSTORE POP PUSH1 0xD PUSH1 0x0 PUSH1 0x2 SLOAD DUP2 MSTORE PUSH1 0x20 ADD SWAP1 DUP2 MSTORE PUSH1 0x20 ADD PUSH1 0x0 KECCAK256 PUSH1 0x0 DUP3 ADD MLOAD DUP2 PUSH1 0x0 ADD SSTORE PUSH1 0x20 DUP3 ADD MLOAD DUP2 PUSH1 0x1 ADD SWAP1 DUP2 PUSH2 0x1CA3 SWAP2 SWAP1 PUSH2 0x41FA JUMP JUMPDEST POP SWAP1 POP POP PUSH1 0x1 PUSH1 0x16 DUP4 PUSH1 0x40 MLOAD PUSH2 0x1CB9 SWAP2 SWAP1 PUSH2 0x4308 JUMP JUMPDEST SWAP1 DUP2 MSTORE PUSH1 0x20 ADD PUSH1 0x40 MLOAD DUP1 SWAP2 SUB SWAP1 KECCAK256 PUSH1 0x1 ADD PUSH1 0x2 PUSH2 0x100 EXP DUP2 SLOAD DUP2 PUSH1 0xFF MUL NOT AND SWAP1 DUP4 ISZERO ISZERO MUL OR SWAP1 SSTORE POP PUSH1 0x2 PUSH1 0x0 DUP2 SLOAD DUP1 SWAP3 SWAP2 SWAP1 PUSH2 0x1CF4 SWAP1 PUSH2 0x4006 JUMP JUMPDEST SWAP2 SWAP1 POP SSTORE POP PUSH1 0x2 SLOAD SWAP1 POP SWAP4 SWAP3 POP POP POP JUMP JUMPDEST PUSH1 0x0 SLOAD DUP2 JUMP JUMPDEST PUSH1 0xD PUSH1 0x20 MSTORE DUP1 PUSH1 0x0 MSTORE PUSH1 0x40 PUSH1 0x0 KECCAK256 PUSH1 0x0 SWAP2 POP SWAP1 POP DUP1 PUSH1 0x0 ADD SLOAD SWAP1 DUP1 PUSH1 0x1 ADD DUP1 SLOAD PUSH2 0x1D34 SWAP1 PUSH2 0x3F77 JUMP JUMPDEST DUP1 PUSH1 0x1F ADD PUSH1 0x20 DUP1 SWAP2 DIV MUL PUSH1 0x20 ADD PUSH1 0x40 MLOAD SWAP1 DUP2 ADD PUSH1 0x40 MSTORE DUP1 SWAP3 SWAP2 SWAP1 DUP2 DUP2 MSTORE PUSH1 0x20 ADD DUP3 DUP1 SLOAD PUSH2 0x1D60 SWAP1 PUSH2 0x3F77 JUMP JUMPDEST DUP1 ISZERO PUSH2 0x1DAD JUMPI DUP1 PUSH1 0x1F LT PUSH2 0x1D82 JUMPI PUSH2 0x100 DUP1 DUP4 SLOAD DIV MUL DUP4 MSTORE SWAP2 PUSH1 0x20 ADD SWAP2 PUSH2 0x1DAD JUMP JUMPDEST DUP3 ADD SWAP2 SWAP1 PUSH1 0x0 MSTORE PUSH1 0x20 PUSH1 0x0 KECCAK256 SWAP1 JUMPDEST DUP2 SLOAD DUP2 MSTORE SWAP1 PUSH1 0x1 ADD SWAP1 PUSH1 0x20 ADD DUP1 DUP4 GT PUSH2 0x1D90 JUMPI DUP3 SWAP1 SUB PUSH1 0x1F AND DUP3 ADD SWAP2 JUMPDEST POP POP POP POP POP SWAP1 POP DUP3 JUMP JUMPDEST PUSH1 0x10 PUSH1 0x20 MSTORE DUP1 PUSH1 0x0 MSTORE PUSH1 0x40 PUSH1 0x0 KECCAK256 PUSH1 0x0 SWAP2 POP SWAP1 POP DUP1 PUSH1 0x0 ADD SLOAD SWAP1 DUP1 PUSH1 0x1 ADD DUP1 SLOAD PUSH2 0x1DE0 SWAP1 PUSH2 0x3F77 JUMP JUMPDEST DUP1 PUSH1 0x1F ADD PUSH1 0x20 DUP1 SWAP2 DIV MUL PUSH1 0x20 ADD PUSH1 0x40 MLOAD SWAP1 DUP2 ADD PUSH1 0x40 MSTORE DUP1 SWAP3 SWAP2 SWAP1 DUP2 DUP2 MSTORE PUSH1 0x20 ADD DUP3 DUP1 SLOAD PUSH2 0x1E0C SWAP1 PUSH2 0x3F77 JUMP JUMPDEST DUP1 ISZERO PUSH2 0x1E59 JUMPI DUP1 PUSH1 0x1F LT PUSH2 0x1E2E JUMPI PUSH2 0x100 DUP1 DUP4 SLOAD DIV MUL DUP4 MSTORE SWAP2 PUSH1 0x20 ADD SWAP2 PUSH2 0x1E59 JUMP JUMPDEST DUP3 ADD SWAP2 SWAP1 PUSH1 0x0 MSTORE PUSH1 0x20 PUSH1 0x0 KECCAK256 SWAP1 JUMPDEST DUP2 SLOAD DUP2 MSTORE SWAP1 PUSH1 0x1 ADD SWAP1 PUSH1 0x20 ADD DUP1 DUP4 GT PUSH2 0x1E3C JUMPI DUP3 SWAP1 SUB PUSH1 0x1F AND DUP3 ADD SWAP2 JUMPDEST POP POP POP POP POP SWAP1 DUP1 PUSH1 0x2 ADD SLOAD SWAP1 POP DUP4 JUMP JUMPDEST PUSH1 0x60 PUSH1 0x0 PUSH1 0x7 SLOAD PUSH8 0xFFFFFFFFFFFFFFFF DUP2 GT ISZERO PUSH2 0x1E89 JUMPI PUSH2 0x1E88 PUSH2 0x3480 JUMP JUMPDEST JUMPDEST PUSH1 0x40 MLOAD SWAP1 DUP1 DUP3 MSTORE DUP1 PUSH1 0x20 MUL PUSH1 0x20 ADD DUP3 ADD PUSH1 0x40 MSTORE DUP1 ISZERO PUSH2 0x1EB7 JUMPI DUP2 PUSH1 0x20 ADD PUSH1 0x20 DUP3 MUL DUP1 CALLDATASIZE DUP4 CALLDATACOPY DUP1 DUP3 ADD SWAP2 POP POP SWAP1 POP JUMPDEST POP SWAP1 POP PUSH1 0x0 DUP1 PUSH1 0x0 SWAP1 POP JUMPDEST PUSH1 0x7 SLOAD DUP2 LT ISZERO PUSH2 0x1F41 JUMPI DUP5 PUSH1 0x13 PUSH1 0x0 DUP4 DUP2 MSTORE PUSH1 0x20 ADD SWAP1 DUP2 MSTORE PUSH1 0x20 ADD PUSH1 0x0 KECCAK256 PUSH1 0x1 ADD SLOAD SUB PUSH2 0x1F2E JUMPI PUSH1 0x13 PUSH1 0x0 DUP3 DUP2 MSTORE PUSH1 0x20 ADD SWAP1 DUP2 MSTORE PUSH1 0x20 ADD PUSH1 0x0 KECCAK256 PUSH1 0x0 ADD SLOAD DUP4 DUP4 DUP2 MLOAD DUP2 LT PUSH2 0x1F13 JUMPI PUSH2 0x1F12 PUSH2 0x3FA8 JUMP JUMPDEST JUMPDEST PUSH1 0x20 MUL PUSH1 0x20 ADD ADD DUP2 DUP2 MSTORE POP POP DUP2 DUP1 PUSH2 0x1F2A SWAP1 PUSH2 0x4006 JUMP JUMPDEST SWAP3 POP POP JUMPDEST DUP1 DUP1 PUSH2 0x1F39 SWAP1 PUSH2 0x4006 JUMP JUMPDEST SWAP2 POP POP PUSH2 0x1EC2 JUMP JUMPDEST POP DUP2 SWAP3 POP POP POP SWAP2 SWAP1 POP JUMP JUMPDEST PUSH1 0x60 PUSH1 0x0 PUSH1 0x9 SLOAD PUSH8 0xFFFFFFFFFFFFFFFF DUP2 GT ISZERO PUSH2 0x1F6C JUMPI PUSH2 0x1F6B PUSH2 0x3480 JUMP JUMPDEST JUMPDEST PUSH1 0x40 MLOAD SWAP1 DUP1 DUP3 MSTORE DUP1 PUSH1 0x20 MUL PUSH1 0x20 ADD DUP3 ADD PUSH1 0x40 MSTORE DUP1 ISZERO PUSH2 0x1F9A JUMPI DUP2 PUSH1 0x20 ADD PUSH1 0x20 DUP3 MUL DUP1 CALLDATASIZE DUP4 CALLDATACOPY DUP1 DUP3 ADD SWAP2 POP POP SWAP1 POP JUMPDEST POP SWAP1 POP PUSH1 0x0 DUP1 PUSH1 0x0 SWAP1 POP JUMPDEST PUSH1 0x9 SLOAD DUP2 LT ISZERO PUSH2 0x2024 JUMPI DUP5 PUSH1 0x15 PUSH1 0x0 DUP4 DUP2 MSTORE PUSH1 0x20 ADD SWAP1 DUP2 MSTORE PUSH1 0x20 ADD PUSH1 0x0 KECCAK256 PUSH1 0x1 ADD SLOAD SUB PUSH2 0x2011 JUMPI PUSH1 0x15 PUSH1 0x0 DUP3 DUP2 MSTORE PUSH1 0x20 ADD SWAP1 DUP2 MSTORE PUSH1 0x20 ADD PUSH1 0x0 KECCAK256 PUSH1 0x0 ADD SLOAD DUP4 DUP4 DUP2 MLOAD DUP2 LT PUSH2 0x1FF6 JUMPI PUSH2 0x1FF5 PUSH2 0x3FA8 JUMP JUMPDEST JUMPDEST PUSH1 0x20 MUL PUSH1 0x20 ADD ADD DUP2 DUP2 MSTORE POP POP DUP2 DUP1 PUSH2 0x200D SWAP1 PUSH2 0x4006 JUMP JUMPDEST SWAP3 POP POP JUMPDEST DUP1 DUP1 PUSH2 0x201C SWAP1 PUSH2 0x4006 JUMP JUMPDEST SWAP2 POP POP PUSH2 0x1FA5 JUMP JUMPDEST POP DUP2 SWAP3 POP POP POP SWAP2 SWAP1 POP JUMP JUMPDEST PUSH1 0x0 PUSH1 0x1 PUSH1 0x16 DUP4 PUSH1 0x40 MLOAD PUSH2 0x2043 SWAP2 SWAP1 PUSH2 0x4308 JUMP JUMPDEST SWAP1 DUP2 MSTORE PUSH1 0x20 ADD PUSH1 0x40 MLOAD DUP1 SWAP2 SUB SWAP1 KECCAK256 PUSH1 0x1 ADD PUSH1 0x4 PUSH2 0x100 EXP DUP2 SLOAD DUP2 PUSH1 0xFF MUL NOT AND SWAP1 DUP4 ISZERO ISZERO MUL OR SWAP1 SSTORE POP PUSH1 0x40 MLOAD DUP1 PUSH1 0x60 ADD PUSH1 0x40 MSTORE DUP1 DUP6 DUP2 MSTORE PUSH1 0x20 ADD DUP5 DUP2 MSTORE PUSH1 0x20 ADD DUP4 DUP2 MSTORE POP PUSH1 0x12 PUSH1 0x0 PUSH1 0x6 SLOAD DUP2 MSTORE PUSH1 0x20 ADD SWAP1 DUP2 MSTORE PUSH1 0x20 ADD PUSH1 0x0 KECCAK256 PUSH1 0x0 DUP3 ADD MLOAD DUP2 PUSH1 0x0 ADD SSTORE PUSH1 0x20 DUP3 ADD MLOAD DUP2 PUSH1 0x1 ADD SSTORE PUSH1 0x40 DUP3 ADD MLOAD DUP2 PUSH1 0x2 ADD SWAP1 DUP2 PUSH2 0x20C4 SWAP2 SWAP1 PUSH2 0x41FA JUMP JUMPDEST POP SWAP1 POP POP PUSH1 0x6 PUSH1 0x0 DUP2 SLOAD DUP1 SWAP3 SWAP2 SWAP1 PUSH2 0x20DB SWAP1 PUSH2 0x4006 JUMP JUMPDEST SWAP2 SWAP1 POP SSTORE POP PUSH1 0x6 SLOAD SWAP1 POP SWAP4 SWAP3 POP POP POP JUMP JUMPDEST DUP1 PUSH1 0xB PUSH1 0x0 DUP5 DUP2 MSTORE PUSH1 0x20 ADD SWAP1 DUP2 MSTORE PUSH1 0x20 ADD PUSH1 0x0 KECCAK256 SWAP1 DUP2 PUSH2 0x210C SWAP2 SWAP1 PUSH2 0x41FA JUMP JUMPDEST POP POP POP JUMP JUMPDEST DUP2 PUSH1 0xA PUSH1 0x0 DUP6 DUP2 MSTORE PUSH1 0x20 ADD SWAP1 DUP2 MSTORE PUSH1 0x20 ADD PUSH1 0x0 KECCAK256 PUSH1 0x0 ADD SWAP1 DUP2 PUSH2 0x2134 SWAP2 SWAP1 PUSH2 0x41FA JUMP JUMPDEST POP DUP1 PUSH1 0xA PUSH1 0x0 DUP6 DUP2 MSTORE PUSH1 0x20 ADD SWAP1 DUP2 MSTORE PUSH1 0x20 ADD PUSH1 0x0 KECCAK256 PUSH1 0x1 ADD SWAP1 DUP2 PUSH2 0x2158 SWAP2 SWAP1 PUSH2 0x41FA JUMP JUMPDEST POP POP POP POP JUMP JUMPDEST PUSH1 0x0 PUSH1 0x40 MLOAD DUP1 PUSH1 0x80 ADD PUSH1 0x40 MSTORE DUP1 DUP7 DUP2 MSTORE PUSH1 0x20 ADD DUP6 DUP2 MSTORE PUSH1 0x20 ADD DUP5 DUP2 MSTORE PUSH1 0x20 ADD DUP4 DUP2 MSTORE POP PUSH1 0x14 PUSH1 0x0 PUSH1 0x8 SLOAD DUP2 MSTORE PUSH1 0x20 ADD SWAP1 DUP2 MSTORE PUSH1 0x20 ADD PUSH1 0x0 KECCAK256 PUSH1 0x0 DUP3 ADD MLOAD DUP2 PUSH1 0x0 ADD SSTORE PUSH1 0x20 DUP3 ADD MLOAD DUP2 PUSH1 0x1 ADD SSTORE PUSH1 0x40 DUP3 ADD MLOAD DUP2 PUSH1 0x2 ADD SWAP1 DUP2 PUSH2 0x21BF SWAP2 SWAP1 PUSH2 0x41FA JUMP JUMPDEST POP PUSH1 0x60 DUP3 ADD MLOAD DUP2 PUSH1 0x3 ADD SWAP1 DUP2 PUSH2 0x21D5 SWAP2 SWAP1 PUSH2 0x41FA JUMP JUMPDEST POP SWAP1 POP POP PUSH1 0x8 PUSH1 0x0 DUP2 SLOAD DUP1 SWAP3 SWAP2 SWAP1 PUSH2 0x21EC SWAP1 PUSH2 0x4006 JUMP JUMPDEST SWAP2 SWAP1 POP SSTORE POP PUSH1 0x8 SLOAD SWAP1 POP SWAP5 SWAP4 POP POP POP POP JUMP JUMPDEST PUSH1 0x60 PUSH1 0xE PUSH1 0x0 DUP4 DUP2 MSTORE PUSH1 0x20 ADD SWAP1 DUP2 MSTORE PUSH1 0x20 ADD PUSH1 0x0 KECCAK256 PUSH1 0x1 ADD DUP1 SLOAD PUSH2 0x2221 SWAP1 PUSH2 0x3F77 JUMP JUMPDEST DUP1 PUSH1 0x1F ADD PUSH1 0x20 DUP1 SWAP2 DIV MUL PUSH1 0x20 ADD PUSH1 0x40 MLOAD SWAP1 DUP2 ADD PUSH1 0x40 MSTORE DUP1 SWAP3 SWAP2 SWAP1 DUP2 DUP2 MSTORE PUSH1 0x20 ADD DUP3 DUP1 SLOAD PUSH2 0x224D SWAP1 PUSH2 0x3F77 JUMP JUMPDEST DUP1 ISZERO PUSH2 0x229A JUMPI DUP1 PUSH1 0x1F LT PUSH2 0x226F JUMPI PUSH2 0x100 DUP1 DUP4 SLOAD DIV MUL DUP4 MSTORE SWAP2 PUSH1 0x20 ADD SWAP2 PUSH2 0x229A JUMP JUMPDEST DUP3 ADD SWAP2 SWAP1 PUSH1 0x0 MSTORE PUSH1 0x20 PUSH1 0x0 KECCAK256 SWAP1 JUMPDEST DUP2 SLOAD DUP2 MSTORE SWAP1 PUSH1 0x1 ADD SWAP1 PUSH1 0x20 ADD DUP1 DUP4 GT PUSH2 0x227D JUMPI DUP3 SWAP1 SUB PUSH1 0x1F AND DUP3 ADD SWAP2 JUMPDEST POP POP POP POP POP SWAP1 POP SWAP2 SWAP1 POP JUMP JUMPDEST PUSH1 0x7 SLOAD DUP2 JUMP JUMPDEST PUSH1 0x60 PUSH1 0x0 PUSH1 0x3 SLOAD PUSH8 0xFFFFFFFFFFFFFFFF DUP2 GT ISZERO PUSH2 0x22CC JUMPI PUSH2 0x22CB PUSH2 0x3480 JUMP JUMPDEST JUMPDEST PUSH1 0x40 MLOAD SWAP1 DUP1 DUP3 MSTORE DUP1 PUSH1 0x20 MUL PUSH1 0x20 ADD DUP3 ADD PUSH1 0x40 MSTORE DUP1 ISZERO PUSH2 0x22FF JUMPI DUP2 PUSH1 0x20 ADD JUMPDEST PUSH1 0x60 DUP2 MSTORE PUSH1 0x20 ADD SWAP1 PUSH1 0x1 SWAP1 SUB SWAP1 DUP2 PUSH2 0x22EA JUMPI SWAP1 POP JUMPDEST POP SWAP1 POP PUSH1 0x0 JUMPDEST PUSH1 0x3 SLOAD DUP2 LT ISZERO PUSH2 0x23DF JUMPI PUSH1 0xE PUSH1 0x0 DUP3 DUP2 MSTORE PUSH1 0x20 ADD SWAP1 DUP2 MSTORE PUSH1 0x20 ADD PUSH1 0x0 KECCAK256 PUSH1 0x1 ADD DUP1 SLOAD PUSH2 0x2330 SWAP1 PUSH2 0x3F77 JUMP JUMPDEST DUP1 PUSH1 0x1F ADD PUSH1 0x20 DUP1 SWAP2 DIV MUL PUSH1 0x20 ADD PUSH1 0x40 MLOAD SWAP1 DUP2 ADD PUSH1 0x40 MSTORE DUP1 SWAP3 SWAP2 SWAP1 DUP2 DUP2 MSTORE PUSH1 0x20 ADD DUP3 DUP1 SLOAD PUSH2 0x235C SWAP1 PUSH2 0x3F77 JUMP JUMPDEST DUP1 ISZERO PUSH2 0x23A9 JUMPI DUP1 PUSH1 0x1F LT PUSH2 0x237E JUMPI PUSH2 0x100 DUP1 DUP4 SLOAD DIV MUL DUP4 MSTORE SWAP2 PUSH1 0x20 ADD SWAP2 PUSH2 0x23A9 JUMP JUMPDEST DUP3 ADD SWAP2 SWAP1 PUSH1 0x0 MSTORE PUSH1 0x20 PUSH1 0x0 KECCAK256 SWAP1 JUMPDEST DUP2 SLOAD DUP2 MSTORE SWAP1 PUSH1 0x1 ADD SWAP1 PUSH1 0x20 ADD DUP1 DUP4 GT PUSH2 0x238C JUMPI DUP3 SWAP1 SUB PUSH1 0x1F AND DUP3 ADD SWAP2 JUMPDEST POP POP POP POP POP DUP3 DUP3 DUP2 MLOAD DUP2 LT PUSH2 0x23C1 JUMPI PUSH2 0x23C0 PUSH2 0x3FA8 JUMP JUMPDEST JUMPDEST PUSH1 0x20 MUL PUSH1 0x20 ADD ADD DUP2 SWAP1 MSTORE POP DUP1 DUP1 PUSH2 0x23D7 SWAP1 PUSH2 0x4006 JUMP JUMPDEST SWAP2 POP POP PUSH2 0x2305 JUMP JUMPDEST POP DUP1 SWAP2 POP POP SWAP1 JUMP JUMPDEST PUSH1 0x16 DUP2 DUP1 MLOAD PUSH1 0x20 DUP2 ADD DUP3 ADD DUP1 MLOAD DUP5 DUP3 MSTORE PUSH1 0x20 DUP4 ADD PUSH1 0x20 DUP6 ADD KECCAK256 DUP2 DUP4 MSTORE DUP1 SWAP6 POP POP POP POP POP POP PUSH1 0x0 SWAP2 POP SWAP1 POP DUP1 PUSH1 0x0 ADD DUP1 SLOAD PUSH2 0x2420 SWAP1 PUSH2 0x3F77 JUMP JUMPDEST DUP1 PUSH1 0x1F ADD PUSH1 0x20 DUP1 SWAP2 DIV MUL PUSH1 0x20 ADD PUSH1 0x40 MLOAD SWAP1 DUP2 ADD PUSH1 0x40 MSTORE DUP1 SWAP3 SWAP2 SWAP1 DUP2 DUP2 MSTORE PUSH1 0x20 ADD DUP3 DUP1 SLOAD PUSH2 0x244C SWAP1 PUSH2 0x3F77 JUMP JUMPDEST DUP1 ISZERO PUSH2 0x2499 JUMPI DUP1 PUSH1 0x1F LT PUSH2 0x246E JUMPI PUSH2 0x100 DUP1 DUP4 SLOAD DIV MUL DUP4 MSTORE SWAP2 PUSH1 0x20 ADD SWAP2 PUSH2 0x2499 JUMP JUMPDEST DUP3 ADD SWAP2 SWAP1 PUSH1 0x0 MSTORE PUSH1 0x20 PUSH1 0x0 KECCAK256 SWAP1 JUMPDEST DUP2 SLOAD DUP2 MSTORE SWAP1 PUSH1 0x1 ADD SWAP1 PUSH1 0x20 ADD DUP1 DUP4 GT PUSH2 0x247C JUMPI DUP3 SWAP1 SUB PUSH1 0x1F AND DUP3 ADD SWAP2 JUMPDEST POP POP POP POP POP SWAP1 DUP1 PUSH1 0x1 ADD PUSH1 0x0 SWAP1 SLOAD SWAP1 PUSH2 0x100 EXP SWAP1 DIV PUSH1 0xFF AND SWAP1 DUP1 PUSH1 0x1 ADD PUSH1 0x1 SWAP1 SLOAD SWAP1 PUSH2 0x100 EXP SWAP1 DIV PUSH1 0xFF AND SWAP1 DUP1 PUSH1 0x1 ADD PUSH1 0x2 SWAP1 SLOAD SWAP1 PUSH2 0x100 EXP SWAP1 DIV PUSH1 0xFF AND SWAP1 DUP1 PUSH1 0x1 ADD PUSH1 0x3 SWAP1 SLOAD SWAP1 PUSH2 0x100 EXP SWAP1 DIV PUSH1 0xFF AND SWAP1 DUP1 PUSH1 0x1 ADD PUSH1 0x4 SWAP1 SLOAD SWAP1 PUSH2 0x100 EXP SWAP1 DIV PUSH1 0xFF AND SWAP1 DUP1 PUSH1 0x1 ADD PUSH1 0x5 SWAP1 SLOAD SWAP1 PUSH2 0x100 EXP SWAP1 DIV PUSH1 0xFF AND SWAP1 DUP1 PUSH1 0x1 ADD PUSH1 0x6 SWAP1 SLOAD SWAP1 PUSH2 0x100 EXP SWAP1 DIV PUSH1 0xFF AND SWAP1 DUP1 PUSH1 0x1 ADD PUSH1 0x7 SWAP1 SLOAD SWAP1 PUSH2 0x100 EXP SWAP1 DIV PUSH1 0xFF AND SWAP1 POP DUP10 JUMP JUMPDEST PUSH1 0x0 DUP1 PUSH1 0x0 SWAP1 POP JUMPDEST PUSH1 0x3 SLOAD DUP2 LT ISZERO PUSH2 0x25A1 JUMPI DUP3 DUP1 MLOAD SWAP1 PUSH1 0x20 ADD KECCAK256 PUSH1 0xE PUSH1 0x0 DUP4 DUP2 MSTORE PUSH1 0x20 ADD SWAP1 DUP2 MSTORE PUSH1 0x20 ADD PUSH1 0x0 KECCAK256 PUSH1 0x1 ADD PUSH1 0x40 MLOAD PUSH2 0x2578 SWAP2 SWAP1 PUSH2 0x43C2 JUMP JUMPDEST PUSH1 0x40 MLOAD DUP1 SWAP2 SUB SWAP1 KECCAK256 SUB PUSH2 0x258E JUMPI DUP1 SWAP2 POP POP PUSH2 0x25A7 JUMP JUMPDEST DUP1 DUP1 PUSH2 0x2599 SWAP1 PUSH2 0x4006 JUMP JUMPDEST SWAP2 POP POP PUSH2 0x2543 JUMP JUMPDEST POP PUSH1 0x0 SWAP1 POP JUMPDEST SWAP2 SWAP1 POP JUMP JUMPDEST PUSH1 0x9 SLOAD DUP2 JUMP JUMPDEST PUSH1 0x0 DUP1 PUSH1 0x0 SWAP1 POP JUMPDEST PUSH1 0x3 SLOAD DUP2 LT ISZERO PUSH2 0x262E JUMPI DUP3 DUP1 MLOAD SWAP1 PUSH1 0x20 ADD KECCAK256 PUSH1 0xE PUSH1 0x0 DUP4 DUP2 MSTORE PUSH1 0x20 ADD SWAP1 DUP2 MSTORE PUSH1 0x20 ADD PUSH1 0x0 KECCAK256 PUSH1 0x1 ADD PUSH1 0x40 MLOAD PUSH2 0x25EF SWAP2 SWAP1 PUSH2 0x43C2 JUMP JUMPDEST PUSH1 0x40 MLOAD DUP1 SWAP2 SUB SWAP1 KECCAK256 SUB PUSH2 0x261B JUMPI PUSH1 0xE PUSH1 0x0 DUP3 DUP2 MSTORE PUSH1 0x20 ADD SWAP1 DUP2 MSTORE PUSH1 0x20 ADD PUSH1 0x0 KECCAK256 PUSH1 0x0 ADD SLOAD SWAP2 POP POP PUSH2 0x2634 JUMP JUMPDEST DUP1 DUP1 PUSH2 0x2626 SWAP1 PUSH2 0x4006 JUMP JUMPDEST SWAP2 POP POP PUSH2 0x25BA JUMP JUMPDEST POP PUSH1 0x0 SWAP1 POP JUMPDEST SWAP2 SWAP1 POP JUMP JUMPDEST PUSH1 0x0 JUMPDEST PUSH1 0x0 SLOAD DUP2 LT ISZERO PUSH2 0x269F JUMPI PUSH1 0xA PUSH1 0x0 DUP3 DUP2 MSTORE PUSH1 0x20 ADD SWAP1 DUP2 MSTORE PUSH1 0x20 ADD PUSH1 0x0 KECCAK256 PUSH1 0x0 DUP1 DUP3 ADD PUSH1 0x0 PUSH2 0x266A SWAP2 SWAP1 PUSH2 0x3204 JUMP JUMPDEST PUSH1 0x1 DUP3 ADD PUSH1 0x0 PUSH2 0x267A SWAP2 SWAP1 PUSH2 0x3204 JUMP JUMPDEST PUSH1 0x2 DUP3 ADD PUSH1 0x0 PUSH2 0x268A SWAP2 SWAP1 PUSH2 0x3204 JUMP JUMPDEST POP POP DUP1 DUP1 PUSH2 0x2697 SWAP1 PUSH2 0x4006 JUMP JUMPDEST SWAP2 POP POP PUSH2 0x263C JUMP JUMPDEST POP PUSH1 0x0 JUMPDEST PUSH1 0x2 SLOAD DUP2 LT ISZERO PUSH2 0x26EE JUMPI PUSH1 0xD PUSH1 0x0 DUP3 DUP2 MSTORE PUSH1 0x20 ADD SWAP1 DUP2 MSTORE PUSH1 0x20 ADD PUSH1 0x0 KECCAK256 PUSH1 0x0 DUP1 DUP3 ADD PUSH1 0x0 SWAP1 SSTORE PUSH1 0x1 DUP3 ADD PUSH1 0x0 PUSH2 0x26D9 SWAP2 SWAP1 PUSH2 0x3204 JUMP JUMPDEST POP POP DUP1 DUP1 PUSH2 0x26E6 SWAP1 PUSH2 0x4006 JUMP JUMPDEST SWAP2 POP POP PUSH2 0x26A3 JUMP JUMPDEST POP PUSH1 0x0 JUMPDEST PUSH1 0x3 SLOAD DUP2 LT ISZERO PUSH2 0x2745 JUMPI PUSH1 0xE PUSH1 0x0 DUP3 DUP2 MSTORE PUSH1 0x20 ADD SWAP1 DUP2 MSTORE PUSH1 0x20 ADD PUSH1 0x0 KECCAK256 PUSH1 0x0 DUP1 DUP3 ADD PUSH1 0x0 SWAP1 SSTORE PUSH1 0x1 DUP3 ADD PUSH1 0x0 PUSH2 0x2728 SWAP2 SWAP1 PUSH2 0x3204 JUMP JUMPDEST PUSH1 0x2 DUP3 ADD PUSH1 0x0 SWAP1 SSTORE POP POP DUP1 DUP1 PUSH2 0x273D SWAP1 PUSH2 0x4006 JUMP JUMPDEST SWAP2 POP POP PUSH2 0x26F2 JUMP JUMPDEST POP PUSH1 0x0 JUMPDEST PUSH1 0x2 SLOAD DUP2 LT ISZERO PUSH2 0x279C JUMPI PUSH1 0x11 PUSH1 0x0 DUP3 DUP2 MSTORE PUSH1 0x20 ADD SWAP1 DUP2 MSTORE PUSH1 0x20 ADD PUSH1 0x0 KECCAK256 PUSH1 0x0 DUP1 DUP3 ADD PUSH1 0x0 SWAP1 SSTORE PUSH1 0x1 DUP3 ADD PUSH1 0x0 SWAP1 SSTORE PUSH1 0x2 DUP3 ADD PUSH1 0x0 PUSH2 0x2787 SWAP2 SWAP1 PUSH2 0x3204 JUMP JUMPDEST POP POP DUP1 DUP1 PUSH2 0x2794 SWAP1 PUSH2 0x4006 JUMP JUMPDEST SWAP2 POP POP PUSH2 0x2749 JUMP JUMPDEST POP PUSH1 0x0 JUMPDEST PUSH1 0x7 SLOAD DUP2 LT ISZERO PUSH2 0x2803 JUMPI PUSH1 0x13 PUSH1 0x0 DUP3 DUP2 MSTORE PUSH1 0x20 ADD SWAP1 DUP2 MSTORE PUSH1 0x20 ADD PUSH1 0x0 KECCAK256 PUSH1 0x0 DUP1 DUP3 ADD PUSH1 0x0 SWAP1 SSTORE PUSH1 0x1 DUP3 ADD PUSH1 0x0 SWAP1 SSTORE PUSH1 0x2 DUP3 ADD PUSH1 0x0 PUSH2 0x27DE SWAP2 SWAP1 PUSH2 0x3204 JUMP JUMPDEST PUSH1 0x3 DUP3 ADD PUSH1 0x0 PUSH2 0x27EE SWAP2 SWAP1 PUSH2 0x3204 JUMP JUMPDEST POP POP DUP1 DUP1 PUSH2 0x27FB SWAP1 PUSH2 0x4006 JUMP JUMPDEST SWAP2 POP POP PUSH2 0x27A0 JUMP JUMPDEST POP PUSH1 0x0 JUMPDEST PUSH1 0x9 SLOAD DUP2 LT ISZERO PUSH2 0x2862 JUMPI PUSH1 0x15 PUSH1 0x0 DUP3 DUP2 MSTORE PUSH1 0x20 ADD SWAP1 DUP2 MSTORE PUSH1 0x20 ADD PUSH1 0x0 KECCAK256 PUSH1 0x0 DUP1 DUP3 ADD PUSH1 0x0 SWAP1 SSTORE PUSH1 0x1 DUP3 ADD PUSH1 0x0 SWAP1 SSTORE PUSH1 0x2 DUP3 ADD PUSH1 0x0 SWAP1 SSTORE PUSH1 0x3 DUP3 ADD PUSH1 0x0 PUSH2 0x284D SWAP2 SWAP1 PUSH2 0x3204 JUMP JUMPDEST POP POP DUP1 DUP1 PUSH2 0x285A SWAP1 PUSH2 0x4006 JUMP JUMPDEST SWAP2 POP POP PUSH2 0x2807 JUMP JUMPDEST POP PUSH1 0x0 JUMPDEST PUSH1 0x6 SLOAD DUP2 LT ISZERO PUSH2 0x28B9 JUMPI PUSH1 0x12 PUSH1 0x0 DUP3 DUP2 MSTORE PUSH1 0x20 ADD SWAP1 DUP2 MSTORE PUSH1 0x20 ADD PUSH1 0x0 KECCAK256 PUSH1 0x0 DUP1 DUP3 ADD PUSH1 0x0 SWAP1 SSTORE PUSH1 0x1 DUP3 ADD PUSH1 0x0 SWAP1 SSTORE PUSH1 0x2 DUP3 ADD PUSH1 0x0 PUSH2 0x28A4 SWAP2 SWAP1 PUSH2 0x3204 JUMP JUMPDEST POP POP DUP1 DUP1 PUSH2 0x28B1 SWAP1 PUSH2 0x4006 JUMP JUMPDEST SWAP2 POP POP PUSH2 0x2866 JUMP JUMPDEST POP PUSH1 0x0 DUP1 DUP2 SWAP1 SSTORE POP PUSH1 0x0 PUSH1 0x2 DUP2 SWAP1 SSTORE POP PUSH1 0x0 PUSH1 0x3 DUP2 SWAP1 SSTORE POP PUSH1 0x0 PUSH1 0x7 DUP2 SWAP1 SSTORE POP PUSH1 0x0 PUSH1 0x9 DUP2 SWAP1 SSTORE POP PUSH1 0x0 PUSH1 0x6 DUP2 SWAP1 SSTORE POP JUMP JUMPDEST PUSH1 0x13 PUSH1 0x20 MSTORE DUP1 PUSH1 0x0 MSTORE PUSH1 0x40 PUSH1 0x0 KECCAK256 PUSH1 0x0 SWAP2 POP SWAP1 POP DUP1 PUSH1 0x0 ADD SLOAD SWAP1 DUP1 PUSH1 0x1 ADD SLOAD SWAP1 DUP1 PUSH1 0x2 ADD DUP1 SLOAD PUSH2 0x291A SWAP1 PUSH2 0x3F77 JUMP JUMPDEST DUP1 PUSH1 0x1F ADD PUSH1 0x20 DUP1 SWAP2 DIV MUL PUSH1 0x20 ADD PUSH1 0x40 MLOAD SWAP1 DUP2 ADD PUSH1 0x40 MSTORE DUP1 SWAP3 SWAP2 SWAP1 DUP2 DUP2 MSTORE PUSH1 0x20 ADD DUP3 DUP1 SLOAD PUSH2 0x2946 SWAP1 PUSH2 0x3F77 JUMP JUMPDEST DUP1 ISZERO PUSH2 0x2993 JUMPI DUP1 PUSH1 0x1F LT PUSH2 0x2968 JUMPI PUSH2 0x100 DUP1 DUP4 SLOAD DIV MUL DUP4 MSTORE SWAP2 PUSH1 0x20 ADD SWAP2 PUSH2 0x2993 JUMP JUMPDEST DUP3 ADD SWAP2 SWAP1 PUSH1 0x0 MSTORE PUSH1 0x20 PUSH1 0x0 KECCAK256 SWAP1 JUMPDEST DUP2 SLOAD DUP2 MSTORE SWAP1 PUSH1 0x1 ADD SWAP1 PUSH1 0x20 ADD DUP1 DUP4 GT PUSH2 0x2976 JUMPI DUP3 SWAP1 SUB PUSH1 0x1F AND DUP3 ADD SWAP2 JUMPDEST POP POP POP POP POP SWAP1 DUP1 PUSH1 0x3 ADD DUP1 SLOAD PUSH2 0x29A8 SWAP1 PUSH2 0x3F77 JUMP JUMPDEST DUP1 PUSH1 0x1F ADD PUSH1 0x20 DUP1 SWAP2 DIV MUL PUSH1 0x20 ADD PUSH1 0x40 MLOAD SWAP1 DUP2 ADD PUSH1 0x40 MSTORE DUP1 SWAP3 SWAP2 SWAP1 DUP2 DUP2 MSTORE PUSH1 0x20 ADD DUP3 DUP1 SLOAD PUSH2 0x29D4 SWAP1 PUSH2 0x3F77 JUMP JUMPDEST DUP1 ISZERO PUSH2 0x2A21 JUMPI DUP1 PUSH1 0x1F LT PUSH2 0x29F6 JUMPI PUSH2 0x100 DUP1 DUP4 SLOAD DIV MUL DUP4 MSTORE SWAP2 PUSH1 0x20 ADD SWAP2 PUSH2 0x2A21 JUMP JUMPDEST DUP3 ADD SWAP2 SWAP1 PUSH1 0x0 MSTORE PUSH1 0x20 PUSH1 0x0 KECCAK256 SWAP1 JUMPDEST DUP2 SLOAD DUP2 MSTORE SWAP1 PUSH1 0x1 ADD SWAP1 PUSH1 0x20 ADD DUP1 DUP4 GT PUSH2 0x2A04 JUMPI DUP3 SWAP1 SUB PUSH1 0x1F AND DUP3 ADD SWAP2 JUMPDEST POP POP POP POP POP SWAP1 POP DUP5 JUMP JUMPDEST DUP1 PUSH1 0xE PUSH1 0x0 DUP5 DUP2 MSTORE PUSH1 0x20 ADD SWAP1 DUP2 MSTORE PUSH1 0x20 ADD PUSH1 0x0 KECCAK256 PUSH1 0x1 ADD SWAP1 DUP2 PUSH2 0x2A4E SWAP2 SWAP1 PUSH2 0x41FA JUMP JUMPDEST POP POP POP JUMP JUMPDEST PUSH1 0x60 PUSH1 0x0 DUP1 SLOAD PUSH8 0xFFFFFFFFFFFFFFFF DUP2 GT ISZERO PUSH2 0x2A72 JUMPI PUSH2 0x2A71 PUSH2 0x3480 JUMP JUMPDEST JUMPDEST PUSH1 0x40 MLOAD SWAP1 DUP1 DUP3 MSTORE DUP1 PUSH1 0x20 MUL PUSH1 0x20 ADD DUP3 ADD PUSH1 0x40 MSTORE DUP1 ISZERO PUSH2 0x2AA5 JUMPI DUP2 PUSH1 0x20 ADD JUMPDEST PUSH1 0x60 DUP2 MSTORE PUSH1 0x20 ADD SWAP1 PUSH1 0x1 SWAP1 SUB SWAP1 DUP2 PUSH2 0x2A90 JUMPI SWAP1 POP JUMPDEST POP SWAP1 POP PUSH1 0x0 JUMPDEST PUSH1 0x0 SLOAD DUP2 LT ISZERO PUSH2 0x2B85 JUMPI PUSH1 0xA PUSH1 0x0 DUP3 DUP2 MSTORE PUSH1 0x20 ADD SWAP1 DUP2 MSTORE PUSH1 0x20 ADD PUSH1 0x0 KECCAK256 PUSH1 0x1 ADD DUP1 SLOAD PUSH2 0x2AD6 SWAP1 PUSH2 0x3F77 JUMP JUMPDEST DUP1 PUSH1 0x1F ADD PUSH1 0x20 DUP1 SWAP2 DIV MUL PUSH1 0x20 ADD PUSH1 0x40 MLOAD SWAP1 DUP2 ADD PUSH1 0x40 MSTORE DUP1 SWAP3 SWAP2 SWAP1 DUP2 DUP2 MSTORE PUSH1 0x20 ADD DUP3 DUP1 SLOAD PUSH2 0x2B02 SWAP1 PUSH2 0x3F77 JUMP JUMPDEST DUP1 ISZERO PUSH2 0x2B4F JUMPI DUP1 PUSH1 0x1F LT PUSH2 0x2B24 JUMPI PUSH2 0x100 DUP1 DUP4 SLOAD DIV MUL DUP4 MSTORE SWAP2 PUSH1 0x20 ADD SWAP2 PUSH2 0x2B4F JUMP JUMPDEST DUP3 ADD SWAP2 SWAP1 PUSH1 0x0 MSTORE PUSH1 0x20 PUSH1 0x0 KECCAK256 SWAP1 JUMPDEST DUP2 SLOAD DUP2 MSTORE SWAP1 PUSH1 0x1 ADD SWAP1 PUSH1 0x20 ADD DUP1 DUP4 GT PUSH2 0x2B32 JUMPI DUP3 SWAP1 SUB PUSH1 0x1F AND DUP3 ADD SWAP2 JUMPDEST POP POP POP POP POP DUP3 DUP3 DUP2 MLOAD DUP2 LT PUSH2 0x2B67 JUMPI PUSH2 0x2B66 PUSH2 0x3FA8 JUMP JUMPDEST JUMPDEST PUSH1 0x20 MUL PUSH1 0x20 ADD ADD DUP2 SWAP1 MSTORE POP DUP1 DUP1 PUSH2 0x2B7D SWAP1 PUSH2 0x4006 JUMP JUMPDEST SWAP2 POP POP PUSH2 0x2AAB JUMP JUMPDEST POP DUP1 SWAP2 POP POP SWAP1 JUMP JUMPDEST DUP1 PUSH1 0xD PUSH1 0x0 DUP5 DUP2 MSTORE PUSH1 0x20 ADD SWAP1 DUP2 MSTORE PUSH1 0x20 ADD PUSH1 0x0 KECCAK256 PUSH1 0x1 ADD SWAP1 DUP2 PUSH2 0x2BB0 SWAP2 SWAP1 PUSH2 0x41FA JUMP JUMPDEST POP POP POP JUMP JUMPDEST PUSH1 0x8 SLOAD DUP2 JUMP JUMPDEST PUSH1 0x14 PUSH1 0x20 MSTORE DUP1 PUSH1 0x0 MSTORE PUSH1 0x40 PUSH1 0x0 KECCAK256 PUSH1 0x0 SWAP2 POP SWAP1 POP DUP1 PUSH1 0x0 ADD SLOAD SWAP1 DUP1 PUSH1 0x1 ADD SLOAD SWAP1 DUP1 PUSH1 0x2 ADD DUP1 SLOAD PUSH2 0x2BEA SWAP1 PUSH2 0x3F77 JUMP JUMPDEST DUP1 PUSH1 0x1F ADD PUSH1 0x20 DUP1 SWAP2 DIV MUL PUSH1 0x20 ADD PUSH1 0x40 MLOAD SWAP1 DUP2 ADD PUSH1 0x40 MSTORE DUP1 SWAP3 SWAP2 SWAP1 DUP2 DUP2 MSTORE PUSH1 0x20 ADD DUP3 DUP1 SLOAD PUSH2 0x2C16 SWAP1 PUSH2 0x3F77 JUMP JUMPDEST DUP1 ISZERO PUSH2 0x2C63 JUMPI DUP1 PUSH1 0x1F LT PUSH2 0x2C38 JUMPI PUSH2 0x100 DUP1 DUP4 SLOAD DIV MUL DUP4 MSTORE SWAP2 PUSH1 0x20 ADD SWAP2 PUSH2 0x2C63 JUMP JUMPDEST DUP3 ADD SWAP2 SWAP1 PUSH1 0x0 MSTORE PUSH1 0x20 PUSH1 0x0 KECCAK256 SWAP1 JUMPDEST DUP2 SLOAD DUP2 MSTORE SWAP1 PUSH1 0x1 ADD SWAP1 PUSH1 0x20 ADD DUP1 DUP4 GT PUSH2 0x2C46 JUMPI DUP3 SWAP1 SUB PUSH1 0x1F AND DUP3 ADD SWAP2 JUMPDEST POP POP POP POP POP SWAP1 DUP1 PUSH1 0x3 ADD DUP1 SLOAD PUSH2 0x2C78 SWAP1 PUSH2 0x3F77 JUMP JUMPDEST DUP1 PUSH1 0x1F ADD PUSH1 0x20 DUP1 SWAP2 DIV MUL PUSH1 0x20 ADD PUSH1 0x40 MLOAD SWAP1 DUP2 ADD PUSH1 0x40 MSTORE DUP1 SWAP3 SWAP2 SWAP1 DUP2 DUP2 MSTORE PUSH1 0x20 ADD DUP3 DUP1 SLOAD PUSH2 0x2CA4 SWAP1 PUSH2 0x3F77 JUMP JUMPDEST DUP1 ISZERO PUSH2 0x2CF1 JUMPI DUP1 PUSH1 0x1F LT PUSH2 0x2CC6 JUMPI PUSH2 0x100 DUP1 DUP4 SLOAD DIV MUL DUP4 MSTORE SWAP2 PUSH1 0x20 ADD SWAP2 PUSH2 0x2CF1 JUMP JUMPDEST DUP3 ADD SWAP2 SWAP1 PUSH1 0x0 MSTORE PUSH1 0x20 PUSH1 0x0 KECCAK256 SWAP1 JUMPDEST DUP2 SLOAD DUP2 MSTORE SWAP1 PUSH1 0x1 ADD SWAP1 PUSH1 0x20 ADD DUP1 DUP4 GT PUSH2 0x2CD4 JUMPI DUP3 SWAP1 SUB PUSH1 0x1F AND DUP3 ADD SWAP2 JUMPDEST POP POP POP POP POP SWAP1 POP DUP5 JUMP JUMPDEST PUSH1 0x0 DUP1 PUSH1 0x0 SWAP1 POP PUSH1 0x0 JUMPDEST PUSH1 0x8 SLOAD DUP2 LT ISZERO PUSH2 0x2D81 JUMPI DUP5 PUSH1 0x14 PUSH1 0x0 DUP4 DUP2 MSTORE PUSH1 0x20 ADD SWAP1 DUP2 MSTORE PUSH1 0x20 ADD PUSH1 0x0 KECCAK256 PUSH1 0x0 ADD SLOAD EQ DUP1 ISZERO PUSH2 0x2D64 JUMPI POP PUSH1 0x14 PUSH1 0x0 DUP3 DUP2 MSTORE PUSH1 0x20 ADD SWAP1 DUP2 MSTORE PUSH1 0x20 ADD PUSH1 0x0 KECCAK256 PUSH1 0x3 ADD PUSH1 0x40 MLOAD PUSH2 0x2D52 SWAP2 SWAP1 PUSH2 0x43C2 JUMP JUMPDEST PUSH1 0x40 MLOAD DUP1 SWAP2 SUB SWAP1 KECCAK256 DUP5 DUP1 MLOAD SWAP1 PUSH1 0x20 ADD KECCAK256 EQ JUMPDEST ISZERO PUSH2 0x2D6E JUMPI PUSH1 0x1 SWAP2 POP JUMPDEST DUP1 DUP1 PUSH2 0x2D79 SWAP1 PUSH2 0x4006 JUMP JUMPDEST SWAP2 POP POP PUSH2 0x2D05 JUMP JUMPDEST POP DUP1 SWAP2 POP POP SWAP3 SWAP2 POP POP JUMP JUMPDEST PUSH1 0x3 SLOAD DUP2 JUMP JUMPDEST PUSH1 0x60 PUSH1 0xD PUSH1 0x0 DUP4 DUP2 MSTORE PUSH1 0x20 ADD SWAP1 DUP2 MSTORE PUSH1 0x20 ADD PUSH1 0x0 KECCAK256 PUSH1 0x1 ADD DUP1 SLOAD PUSH2 0x2DB5 SWAP1 PUSH2 0x3F77 JUMP JUMPDEST DUP1 PUSH1 0x1F ADD PUSH1 0x20 DUP1 SWAP2 DIV MUL PUSH1 0x20 ADD PUSH1 0x40 MLOAD SWAP1 DUP2 ADD PUSH1 0x40 MSTORE DUP1 SWAP3 SWAP2 SWAP1 DUP2 DUP2 MSTORE PUSH1 0x20 ADD DUP3 DUP1 SLOAD PUSH2 0x2DE1 SWAP1 PUSH2 0x3F77 JUMP JUMPDEST DUP1 ISZERO PUSH2 0x2E2E JUMPI DUP1 PUSH1 0x1F LT PUSH2 0x2E03 JUMPI PUSH2 0x100 DUP1 DUP4 SLOAD DIV MUL DUP4 MSTORE SWAP2 PUSH1 0x20 ADD SWAP2 PUSH2 0x2E2E JUMP JUMPDEST DUP3 ADD SWAP2 SWAP1 PUSH1 0x0 MSTORE PUSH1 0x20 PUSH1 0x0 KECCAK256 SWAP1 JUMPDEST DUP2 SLOAD DUP2 MSTORE SWAP1 PUSH1 0x1 ADD SWAP1 PUSH1 0x20 ADD DUP1 DUP4 GT PUSH2 0x2E11 JUMPI DUP3 SWAP1 SUB PUSH1 0x1F AND DUP3 ADD SWAP2 JUMPDEST POP POP POP POP POP SWAP1 POP SWAP2 SWAP1 POP JUMP JUMPDEST PUSH1 0x1 PUSH1 0x16 DUP3 PUSH1 0x40 MLOAD PUSH2 0x2E4C SWAP2 SWAP1 PUSH2 0x4308 JUMP JUMPDEST SWAP1 DUP2 MSTORE PUSH1 0x20 ADD PUSH1 0x40 MLOAD DUP1 SWAP2 SUB SWAP1 KECCAK256 PUSH1 0x1 ADD PUSH1 0x5 PUSH2 0x100 EXP DUP2 SLOAD DUP2 PUSH1 0xFF MUL NOT AND SWAP1 DUP4 ISZERO ISZERO MUL OR SWAP1 SSTORE POP DUP2 PUSH1 0xE PUSH1 0x0 DUP6 DUP2 MSTORE PUSH1 0x20 ADD SWAP1 DUP2 MSTORE PUSH1 0x20 ADD PUSH1 0x0 KECCAK256 PUSH1 0x2 ADD PUSH1 0x0 DUP3 DUP3 SLOAD PUSH2 0x2E9A SWAP2 SWAP1 PUSH2 0x43D9 JUMP JUMPDEST SWAP3 POP POP DUP2 SWAP1 SSTORE POP DUP2 PUSH1 0xF DUP3 PUSH1 0x40 MLOAD PUSH2 0x2EB2 SWAP2 SWAP1 PUSH2 0x4308 JUMP JUMPDEST SWAP1 DUP2 MSTORE PUSH1 0x20 ADD PUSH1 0x40 MLOAD DUP1 SWAP2 SUB SWAP1 KECCAK256 PUSH1 0x0 DUP3 DUP3 SLOAD PUSH2 0x2ECF SWAP2 SWAP1 PUSH2 0x43D9 JUMP JUMPDEST SWAP3 POP POP DUP2 SWAP1 SSTORE POP PUSH1 0x40 MLOAD DUP1 PUSH1 0x60 ADD PUSH1 0x40 MSTORE DUP1 DUP5 DUP2 MSTORE PUSH1 0x20 ADD DUP3 DUP2 MSTORE PUSH1 0x20 ADD DUP4 DUP2 MSTORE POP PUSH1 0x10 PUSH1 0x0 PUSH1 0x1 SLOAD DUP2 MSTORE PUSH1 0x20 ADD SWAP1 DUP2 MSTORE PUSH1 0x20 ADD PUSH1 0x0 KECCAK256 PUSH1 0x0 DUP3 ADD MLOAD DUP2 PUSH1 0x0 ADD SSTORE PUSH1 0x20 DUP3 ADD MLOAD DUP2 PUSH1 0x1 ADD SWAP1 DUP2 PUSH2 0x2F25 SWAP2 SWAP1 PUSH2 0x41FA JUMP JUMPDEST POP PUSH1 0x40 DUP3 ADD MLOAD DUP2 PUSH1 0x2 ADD SSTORE SWAP1 POP POP PUSH1 0x1 PUSH1 0x0 DUP2 SLOAD DUP1 SWAP3 SWAP2 SWAP1 PUSH2 0x2F46 SWAP1 PUSH2 0x4006 JUMP JUMPDEST SWAP2 SWAP1 POP SSTORE POP POP POP POP JUMP JUMPDEST PUSH1 0x1 SLOAD DUP2 JUMP JUMPDEST PUSH1 0x0 PUSH1 0x40 MLOAD DUP1 PUSH1 0x60 ADD PUSH1 0x40 MSTORE DUP1 DUP6 DUP2 MSTORE PUSH1 0x20 ADD DUP5 DUP2 MSTORE PUSH1 0x20 ADD PUSH1 0x40 MLOAD DUP1 PUSH1 0x40 ADD PUSH1 0x40 MSTORE DUP1 PUSH1 0x5 DUP2 MSTORE PUSH1 0x20 ADD PUSH32 0x46616C7365000000000000000000000000000000000000000000000000000000 DUP2 MSTORE POP DUP2 MSTORE POP PUSH1 0xA PUSH1 0x0 DUP1 SLOAD DUP2 MSTORE PUSH1 0x20 ADD SWAP1 DUP2 MSTORE PUSH1 0x20 ADD PUSH1 0x0 KECCAK256 PUSH1 0x0 DUP3 ADD MLOAD DUP2 PUSH1 0x0 ADD SWAP1 DUP2 PUSH2 0x2FD1 SWAP2 SWAP1 PUSH2 0x41FA JUMP JUMPDEST POP PUSH1 0x20 DUP3 ADD MLOAD DUP2 PUSH1 0x1 ADD SWAP1 DUP2 PUSH2 0x2FE7 SWAP2 SWAP1 PUSH2 0x41FA JUMP JUMPDEST POP PUSH1 0x40 DUP3 ADD MLOAD DUP2 PUSH1 0x2 ADD SWAP1 DUP2 PUSH2 0x2FFD SWAP2 SWAP1 PUSH2 0x41FA JUMP JUMPDEST POP SWAP1 POP POP DUP2 PUSH1 0xB PUSH1 0x0 DUP1 SLOAD DUP2 MSTORE PUSH1 0x20 ADD SWAP1 DUP2 MSTORE PUSH1 0x20 ADD PUSH1 0x0 KECCAK256 SWAP1 DUP2 PUSH2 0x3022 SWAP2 SWAP1 PUSH2 0x41FA JUMP JUMPDEST POP PUSH1 0x1 PUSH1 0x16 DUP6 PUSH1 0x40 MLOAD PUSH2 0x3035 SWAP2 SWAP1 PUSH2 0x4308 JUMP JUMPDEST SWAP1 DUP2 MSTORE PUSH1 0x20 ADD PUSH1 0x40 MLOAD DUP1 SWAP2 SUB SWAP1 KECCAK256 PUSH1 0x1 ADD PUSH1 0x0 PUSH2 0x100 EXP DUP2 SLOAD DUP2 PUSH1 0xFF MUL NOT AND SWAP1 DUP4 ISZERO ISZERO MUL OR SWAP1 SSTORE POP PUSH1 0x0 DUP1 DUP2 SLOAD DUP1 SWAP3 SWAP2 SWAP1 PUSH2 0x306F SWAP1 PUSH2 0x4006 JUMP JUMPDEST SWAP2 SWAP1 POP SSTORE POP PUSH1 0x0 SLOAD SWAP1 POP SWAP4 SWAP3 POP POP POP JUMP JUMPDEST PUSH1 0x0 DUP1 PUSH1 0x0 SWAP1 POP JUMPDEST PUSH1 0x4 SLOAD DUP2 LT ISZERO PUSH2 0x30E7 JUMPI DUP3 DUP1 MLOAD SWAP1 PUSH1 0x20 ADD KECCAK256 PUSH1 0xC PUSH1 0x0 DUP4 DUP2 MSTORE PUSH1 0x20 ADD SWAP1 DUP2 MSTORE PUSH1 0x20 ADD PUSH1 0x0 KECCAK256 PUSH1 0x1 ADD PUSH1 0x40 MLOAD PUSH2 0x30BD SWAP2 SWAP1 PUSH2 0x43C2 JUMP JUMPDEST PUSH1 0x40 MLOAD DUP1 SWAP2 SUB SWAP1 KECCAK256 SUB PUSH2 0x30D4 JUMPI PUSH1 0x1 SWAP2 POP POP PUSH2 0x30ED JUMP JUMPDEST DUP1 DUP1 PUSH2 0x30DF SWAP1 PUSH2 0x4006 JUMP JUMPDEST SWAP2 POP POP PUSH2 0x3088 JUMP JUMPDEST POP PUSH1 0x0 SWAP1 POP JUMPDEST SWAP2 SWAP1 POP JUMP JUMPDEST PUSH1 0x11 PUSH1 0x20 MSTORE DUP1 PUSH1 0x0 MSTORE PUSH1 0x40 PUSH1 0x0 KECCAK256 PUSH1 0x0 SWAP2 POP SWAP1 POP DUP1 PUSH1 0x0 ADD SLOAD SWAP1 DUP1 PUSH1 0x1 ADD SLOAD SWAP1 DUP1 PUSH1 0x2 ADD DUP1 SLOAD PUSH2 0x3121 SWAP1 PUSH2 0x3F77 JUMP JUMPDEST DUP1 PUSH1 0x1F ADD PUSH1 0x20 DUP1 SWAP2 DIV MUL PUSH1 0x20 ADD PUSH1 0x40 MLOAD SWAP1 DUP2 ADD PUSH1 0x40 MSTORE DUP1 SWAP3 SWAP2 SWAP1 DUP2 DUP2 MSTORE PUSH1 0x20 ADD DUP3 DUP1 SLOAD PUSH2 0x314D SWAP1 PUSH2 0x3F77 JUMP JUMPDEST DUP1 ISZERO PUSH2 0x319A JUMPI DUP1 PUSH1 0x1F LT PUSH2 0x316F JUMPI PUSH2 0x100 DUP1 DUP4 SLOAD DIV MUL DUP4 MSTORE SWAP2 PUSH1 0x20 ADD SWAP2 PUSH2 0x319A JUMP JUMPDEST DUP3 ADD SWAP2 SWAP1 PUSH1 0x0 MSTORE PUSH1 0x20 PUSH1 0x0 KECCAK256 SWAP1 JUMPDEST DUP2 SLOAD DUP2 MSTORE SWAP1 PUSH1 0x1 ADD SWAP1 PUSH1 0x20 ADD DUP1 DUP4 GT PUSH2 0x317D JUMPI DUP3 SWAP1 SUB PUSH1 0x1F AND DUP3 ADD SWAP2 JUMPDEST POP POP POP POP POP SWAP1 POP DUP4 JUMP JUMPDEST PUSH1 0x40 MLOAD DUP1 PUSH1 0x60 ADD PUSH1 0x40 MSTORE DUP1 DUP5 DUP2 MSTORE PUSH1 0x20 ADD DUP4 DUP2 MSTORE PUSH1 0x20 ADD DUP3 DUP2 MSTORE POP PUSH1 0x11 PUSH1 0x0 DUP5 DUP2 MSTORE PUSH1 0x20 ADD SWAP1 DUP2 MSTORE PUSH1 0x20 ADD PUSH1 0x0 KECCAK256 PUSH1 0x0 DUP3 ADD MLOAD DUP2 PUSH1 0x0 ADD SSTORE PUSH1 0x20 DUP3 ADD MLOAD DUP2 PUSH1 0x1 ADD SSTORE PUSH1 0x40 DUP3 ADD MLOAD DUP2 PUSH1 0x2 ADD SWAP1 DUP2 PUSH2 0x31FB SWAP2 SWAP1 PUSH2 0x41FA JUMP JUMPDEST POP SWAP1 POP POP POP POP POP JUMP JUMPDEST POP DUP1 SLOAD PUSH2 0x3210 SWAP1 PUSH2 0x3F77 JUMP JUMPDEST PUSH1 0x0 DUP3 SSTORE DUP1 PUSH1 0x1F LT PUSH2 0x3222 JUMPI POP PUSH2 0x3241 JUMP JUMPDEST PUSH1 0x1F ADD PUSH1 0x20 SWAP1 DIV SWAP1 PUSH1 0x0 MSTORE PUSH1 0x20 PUSH1 0x0 KECCAK256 SWAP1 DUP2 ADD SWAP1 PUSH2 0x3240 SWAP2 SWAP1 PUSH2 0x3244 JUMP JUMPDEST JUMPDEST POP JUMP JUMPDEST JUMPDEST DUP1 DUP3 GT ISZERO PUSH2 0x325D JUMPI PUSH1 0x0 DUP2 PUSH1 0x0 SWAP1 SSTORE POP PUSH1 0x1 ADD PUSH2 0x3245 JUMP JUMPDEST POP SWAP1 JUMP JUMPDEST PUSH1 0x0 PUSH1 0x40 MLOAD SWAP1 POP SWAP1 JUMP JUMPDEST PUSH1 0x0 DUP1 REVERT JUMPDEST PUSH1 0x0 DUP1 REVERT JUMPDEST PUSH1 0x0 DUP2 SWAP1 POP SWAP2 SWAP1 POP JUMP JUMPDEST PUSH2 0x3288 DUP2 PUSH2 0x3275 JUMP JUMPDEST DUP2 EQ PUSH2 0x3293 JUMPI PUSH1 0x0 DUP1 REVERT JUMPDEST POP JUMP JUMPDEST PUSH1 0x0 DUP2 CALLDATALOAD SWAP1 POP PUSH2 0x32A5 DUP2 PUSH2 0x327F JUMP JUMPDEST SWAP3 SWAP2 POP POP JUMP JUMPDEST PUSH1 0x0 PUSH1 0x20 DUP3 DUP5 SUB SLT ISZERO PUSH2 0x32C1 JUMPI PUSH2 0x32C0 PUSH2 0x326B JUMP JUMPDEST JUMPDEST PUSH1 0x0 PUSH2 0x32CF DUP5 DUP3 DUP6 ADD PUSH2 0x3296 JUMP JUMPDEST SWAP2 POP POP SWAP3 SWAP2 POP POP JUMP JUMPDEST PUSH1 0x0 DUP2 MLOAD SWAP1 POP SWAP2 SWAP1 POP JUMP JUMPDEST PUSH1 0x0 DUP3 DUP3 MSTORE PUSH1 0x20 DUP3 ADD SWAP1 POP SWAP3 SWAP2 POP POP JUMP JUMPDEST PUSH1 0x0 DUP2 SWAP1 POP PUSH1 0x20 DUP3 ADD SWAP1 POP SWAP2 SWAP1 POP JUMP JUMPDEST PUSH1 0x0 DUP2 MLOAD SWAP1 POP SWAP2 SWAP1 POP JUMP JUMPDEST PUSH1 0x0 DUP3 DUP3 MSTORE PUSH1 0x20 DUP3 ADD SWAP1 POP SWAP3 SWAP2 POP POP JUMP JUMPDEST PUSH1 0x0 JUMPDEST DUP4 DUP2 LT ISZERO PUSH2 0x333E JUMPI DUP1 DUP3 ADD MLOAD DUP2 DUP5 ADD MSTORE PUSH1 0x20 DUP2 ADD SWAP1 POP PUSH2 0x3323 JUMP JUMPDEST PUSH1 0x0 DUP5 DUP5 ADD MSTORE POP POP POP POP JUMP JUMPDEST PUSH1 0x0 PUSH1 0x1F NOT PUSH1 0x1F DUP4 ADD AND SWAP1 POP SWAP2 SWAP1 POP JUMP JUMPDEST PUSH1 0x0 PUSH2 0x3366 DUP3 PUSH2 0x3304 JUMP JUMPDEST PUSH2 0x3370 DUP2 DUP6 PUSH2 0x330F JUMP JUMPDEST SWAP4 POP PUSH2 0x3380 DUP2 DUP6 PUSH1 0x20 DUP7 ADD PUSH2 0x3320 JUMP JUMPDEST PUSH2 0x3389 DUP2 PUSH2 0x334A JUMP JUMPDEST DUP5 ADD SWAP2 POP POP SWAP3 SWAP2 POP POP JUMP JUMPDEST PUSH1 0x0 PUSH2 0x33A0 DUP4 DUP4 PUSH2 0x335B JUMP JUMPDEST SWAP1 POP SWAP3 SWAP2 POP POP JUMP JUMPDEST PUSH1 0x0 PUSH1 0x20 DUP3 ADD SWAP1 POP SWAP2 SWAP1 POP JUMP JUMPDEST PUSH1 0x0 PUSH2 0x33C0 DUP3 PUSH2 0x32D8 JUMP JUMPDEST PUSH2 0x33CA DUP2 DUP6 PUSH2 0x32E3 JUMP JUMPDEST SWAP4 POP DUP4 PUSH1 0x20 DUP3 MUL DUP6 ADD PUSH2 0x33DC DUP6 PUSH2 0x32F4 JUMP JUMPDEST DUP1 PUSH1 0x0 JUMPDEST DUP6 DUP2 LT ISZERO PUSH2 0x3418 JUMPI DUP5 DUP5 SUB DUP10 MSTORE DUP2 MLOAD PUSH2 0x33F9 DUP6 DUP3 PUSH2 0x3394 JUMP JUMPDEST SWAP5 POP PUSH2 0x3404 DUP4 PUSH2 0x33A8 JUMP JUMPDEST SWAP3 POP PUSH1 0x20 DUP11 ADD SWAP10 POP POP PUSH1 0x1 DUP2 ADD SWAP1 POP PUSH2 0x33E0 JUMP JUMPDEST POP DUP3 SWAP8 POP DUP8 SWAP6 POP POP POP POP POP POP SWAP3 SWAP2 POP POP JUMP JUMPDEST PUSH1 0x0 PUSH1 0x20 DUP3 ADD SWAP1 POP DUP2 DUP2 SUB PUSH1 0x0 DUP4 ADD MSTORE PUSH2 0x3444 DUP2 DUP5 PUSH2 0x33B5 JUMP JUMPDEST SWAP1 POP SWAP3 SWAP2 POP POP JUMP JUMPDEST PUSH2 0x3455 DUP2 PUSH2 0x3275 JUMP JUMPDEST DUP3 MSTORE POP POP JUMP JUMPDEST PUSH1 0x0 PUSH1 0x20 DUP3 ADD SWAP1 POP PUSH2 0x3470 PUSH1 0x0 DUP4 ADD DUP5 PUSH2 0x344C JUMP JUMPDEST SWAP3 SWAP2 POP POP JUMP JUMPDEST PUSH1 0x0 DUP1 REVERT JUMPDEST PUSH1 0x0 DUP1 REVERT JUMPDEST PUSH32 0x4E487B7100000000000000000000000000000000000000000000000000000000 PUSH1 0x0 MSTORE PUSH1 0x41 PUSH1 0x4 MSTORE PUSH1 0x24 PUSH1 0x0 REVERT JUMPDEST PUSH2 0x34B8 DUP3 PUSH2 0x334A JUMP JUMPDEST DUP2 ADD DUP2 DUP2 LT PUSH8 0xFFFFFFFFFFFFFFFF DUP3 GT OR ISZERO PUSH2 0x34D7 JUMPI PUSH2 0x34D6 PUSH2 0x3480 JUMP JUMPDEST JUMPDEST DUP1 PUSH1 0x40 MSTORE POP POP POP JUMP JUMPDEST PUSH1 0x0 PUSH2 0x34EA PUSH2 0x3261 JUMP JUMPDEST SWAP1 POP PUSH2 0x34F6 DUP3 DUP3 PUSH2 0x34AF JUMP JUMPDEST SWAP2 SWAP1 POP JUMP JUMPDEST PUSH1 0x0 PUSH8 0xFFFFFFFFFFFFFFFF DUP3 GT ISZERO PUSH2 0x3516 JUMPI PUSH2 0x3515 PUSH2 0x3480 JUMP JUMPDEST JUMPDEST PUSH2 0x351F DUP3 PUSH2 0x334A JUMP JUMPDEST SWAP1 POP PUSH1 0x20 DUP2 ADD SWAP1 POP SWAP2 SWAP1 POP JUMP JUMPDEST DUP3 DUP2 DUP4 CALLDATACOPY PUSH1 0x0 DUP4 DUP4 ADD MSTORE POP POP POP JUMP JUMPDEST PUSH1 0x0 PUSH2 0x354E PUSH2 0x3549 DUP5 PUSH2 0x34FB JUMP JUMPDEST PUSH2 0x34E0 JUMP JUMPDEST SWAP1 POP DUP3 DUP2 MSTORE PUSH1 0x20 DUP2 ADD DUP5 DUP5 DUP5 ADD GT ISZERO PUSH2 0x356A JUMPI PUSH2 0x3569 PUSH2 0x347B JUMP JUMPDEST JUMPDEST PUSH2 0x3575 DUP5 DUP3 DUP6 PUSH2 0x352C JUMP JUMPDEST POP SWAP4 SWAP3 POP POP POP JUMP JUMPDEST PUSH1 0x0 DUP3 PUSH1 0x1F DUP4 ADD SLT PUSH2 0x3592 JUMPI PUSH2 0x3591 PUSH2 0x3476 JUMP JUMPDEST JUMPDEST DUP2 CALLDATALOAD PUSH2 0x35A2 DUP5 DUP3 PUSH1 0x20 DUP7 ADD PUSH2 0x353B JUMP JUMPDEST SWAP2 POP POP SWAP3 SWAP2 POP POP JUMP JUMPDEST PUSH1 0x0 PUSH8 0xFFFFFFFFFFFFFFFF DUP3 GT ISZERO PUSH2 0x35C6 JUMPI PUSH2 0x35C5 PUSH2 0x3480 JUMP JUMPDEST JUMPDEST PUSH1 0x20 DUP3 MUL SWAP1 POP PUSH1 0x20 DUP2 ADD SWAP1 POP SWAP2 SWAP1 POP JUMP JUMPDEST PUSH1 0x0 DUP1 REVERT JUMPDEST PUSH1 0x0 PUSH2 0x35EF PUSH2 0x35EA DUP5 PUSH2 0x35AB JUMP JUMPDEST PUSH2 0x34E0 JUMP JUMPDEST SWAP1 POP DUP1 DUP4 DUP3 MSTORE PUSH1 0x20 DUP3 ADD SWAP1 POP PUSH1 0x20 DUP5 MUL DUP4 ADD DUP6 DUP2 GT ISZERO PUSH2 0x3612 JUMPI PUSH2 0x3611 PUSH2 0x35D7 JUMP JUMPDEST JUMPDEST DUP4 JUMPDEST DUP2 DUP2 LT ISZERO PUSH2 0x3659 JUMPI DUP1 CALLDATALOAD PUSH8 0xFFFFFFFFFFFFFFFF DUP2 GT ISZERO PUSH2 0x3637 JUMPI PUSH2 0x3636 PUSH2 0x3476 JUMP JUMPDEST JUMPDEST DUP1 DUP7 ADD PUSH2 0x3644 DUP10 DUP3 PUSH2 0x357D JUMP JUMPDEST DUP6 MSTORE PUSH1 0x20 DUP6 ADD SWAP5 POP POP POP PUSH1 0x20 DUP2 ADD SWAP1 POP PUSH2 0x3614 JUMP JUMPDEST POP POP POP SWAP4 SWAP3 POP POP POP JUMP JUMPDEST PUSH1 0x0 DUP3 PUSH1 0x1F DUP4 ADD SLT PUSH2 0x3678 JUMPI PUSH2 0x3677 PUSH2 0x3476 JUMP JUMPDEST JUMPDEST DUP2 CALLDATALOAD PUSH2 0x3688 DUP5 DUP3 PUSH1 0x20 DUP7 ADD PUSH2 0x35DC JUMP JUMPDEST SWAP2 POP POP SWAP3 SWAP2 POP POP JUMP JUMPDEST PUSH1 0x0 DUP1 PUSH1 0x0 DUP1 PUSH1 0x80 DUP6 DUP8 SUB SLT ISZERO PUSH2 0x36AB JUMPI PUSH2 0x36AA PUSH2 0x326B JUMP JUMPDEST JUMPDEST PUSH1 0x0 DUP6 ADD CALLDATALOAD PUSH8 0xFFFFFFFFFFFFFFFF DUP2 GT ISZERO PUSH2 0x36C9 JUMPI PUSH2 0x36C8 PUSH2 0x3270 JUMP JUMPDEST JUMPDEST PUSH2 0x36D5 DUP8 DUP3 DUP9 ADD PUSH2 0x357D JUMP JUMPDEST SWAP5 POP POP PUSH1 0x20 PUSH2 0x36E6 DUP8 DUP3 DUP9 ADD PUSH2 0x3296 JUMP JUMPDEST SWAP4 POP POP PUSH1 0x40 DUP6 ADD CALLDATALOAD PUSH8 0xFFFFFFFFFFFFFFFF DUP2 GT ISZERO PUSH2 0x3707 JUMPI PUSH2 0x3706 PUSH2 0x3270 JUMP JUMPDEST JUMPDEST PUSH2 0x3713 DUP8 DUP3 DUP9 ADD PUSH2 0x3663 JUMP JUMPDEST SWAP3 POP POP PUSH1 0x60 DUP6 ADD CALLDATALOAD PUSH8 0xFFFFFFFFFFFFFFFF DUP2 GT ISZERO PUSH2 0x3734 JUMPI PUSH2 0x3733 PUSH2 0x3270 JUMP JUMPDEST JUMPDEST PUSH2 0x3740 DUP8 DUP3 DUP9 ADD PUSH2 0x357D JUMP JUMPDEST SWAP2 POP POP SWAP3 SWAP6 SWAP2 SWAP5 POP SWAP3 POP JUMP JUMPDEST PUSH1 0x0 DUP3 DUP3 MSTORE PUSH1 0x20 DUP3 ADD SWAP1 POP SWAP3 SWAP2 POP POP JUMP JUMPDEST PUSH1 0x0 PUSH2 0x3768 DUP3 PUSH2 0x3304 JUMP JUMPDEST PUSH2 0x3772 DUP2 DUP6 PUSH2 0x374C JUMP JUMPDEST SWAP4 POP PUSH2 0x3782 DUP2 DUP6 PUSH1 0x20 DUP7 ADD PUSH2 0x3320 JUMP JUMPDEST PUSH2 0x378B DUP2 PUSH2 0x334A JUMP JUMPDEST DUP5 ADD SWAP2 POP POP SWAP3 SWAP2 POP POP JUMP JUMPDEST PUSH1 0x0 PUSH1 0x60 DUP3 ADD SWAP1 POP PUSH2 0x37AB PUSH1 0x0 DUP4 ADD DUP7 PUSH2 0x344C JUMP JUMPDEST PUSH2 0x37B8 PUSH1 0x20 DUP4 ADD DUP6 PUSH2 0x344C JUMP JUMPDEST DUP2 DUP2 SUB PUSH1 0x40 DUP4 ADD MSTORE PUSH2 0x37CA DUP2 DUP5 PUSH2 0x375D JUMP JUMPDEST SWAP1 POP SWAP5 SWAP4 POP POP POP POP JUMP JUMPDEST PUSH1 0x0 PUSH1 0x20 DUP3 DUP5 SUB SLT ISZERO PUSH2 0x37EA JUMPI PUSH2 0x37E9 PUSH2 0x326B JUMP JUMPDEST JUMPDEST PUSH1 0x0 DUP3 ADD CALLDATALOAD PUSH8 0xFFFFFFFFFFFFFFFF DUP2 GT ISZERO PUSH2 0x3808 JUMPI PUSH2 0x3807 PUSH2 0x3270 JUMP JUMPDEST JUMPDEST PUSH2 0x3814 DUP5 DUP3 DUP6 ADD PUSH2 0x357D JUMP JUMPDEST SWAP2 POP POP SWAP3 SWAP2 POP POP JUMP JUMPDEST PUSH1 0x0 PUSH1 0x60 DUP3 ADD SWAP1 POP DUP2 DUP2 SUB PUSH1 0x0 DUP4 ADD MSTORE PUSH2 0x3837 DUP2 DUP7 PUSH2 0x375D JUMP JUMPDEST SWAP1 POP DUP2 DUP2 SUB PUSH1 0x20 DUP4 ADD MSTORE PUSH2 0x384B DUP2 DUP6 PUSH2 0x375D JUMP JUMPDEST SWAP1 POP DUP2 DUP2 SUB PUSH1 0x40 DUP4 ADD MSTORE PUSH2 0x385F DUP2 DUP5 PUSH2 0x375D JUMP JUMPDEST SWAP1 POP SWAP5 SWAP4 POP POP POP POP JUMP JUMPDEST PUSH1 0x0 PUSH1 0x40 DUP3 ADD SWAP1 POP PUSH2 0x387E PUSH1 0x0 DUP4 ADD DUP6 PUSH2 0x344C JUMP JUMPDEST DUP2 DUP2 SUB PUSH1 0x20 DUP4 ADD MSTORE PUSH2 0x3890 DUP2 DUP5 PUSH2 0x375D JUMP JUMPDEST SWAP1 POP SWAP4 SWAP3 POP POP POP JUMP JUMPDEST PUSH1 0x0 DUP1 PUSH1 0x0 PUSH1 0x60 DUP5 DUP7 SUB SLT ISZERO PUSH2 0x38B2 JUMPI PUSH2 0x38B1 PUSH2 0x326B JUMP JUMPDEST JUMPDEST PUSH1 0x0 PUSH2 0x38C0 DUP7 DUP3 DUP8 ADD PUSH2 0x3296 JUMP JUMPDEST SWAP4 POP POP PUSH1 0x20 DUP5 ADD CALLDATALOAD PUSH8 0xFFFFFFFFFFFFFFFF DUP2 GT ISZERO PUSH2 0x38E1 JUMPI PUSH2 0x38E0 PUSH2 0x3270 JUMP JUMPDEST JUMPDEST PUSH2 0x38ED DUP7 DUP3 DUP8 ADD PUSH2 0x357D JUMP JUMPDEST SWAP3 POP POP PUSH1 0x40 DUP5 ADD CALLDATALOAD PUSH8 0xFFFFFFFFFFFFFFFF DUP2 GT ISZERO PUSH2 0x390E JUMPI PUSH2 0x390D PUSH2 0x3270 JUMP JUMPDEST JUMPDEST PUSH2 0x391A DUP7 DUP3 DUP8 ADD PUSH2 0x357D JUMP JUMPDEST SWAP2 POP POP SWAP3 POP SWAP3 POP SWAP3 JUMP JUMPDEST PUSH1 0x0 PUSH1 0x80 DUP3 ADD SWAP1 POP PUSH2 0x3939 PUSH1 0x0 DUP4 ADD DUP8 PUSH2 0x344C JUMP JUMPDEST PUSH2 0x3946 PUSH1 0x20 DUP4 ADD DUP7 PUSH2 0x344C JUMP JUMPDEST PUSH2 0x3953 PUSH1 0x40 DUP4 ADD DUP6 PUSH2 0x344C JUMP JUMPDEST DUP2 DUP2 SUB PUSH1 0x60 DUP4 ADD MSTORE PUSH2 0x3965 DUP2 DUP5 PUSH2 0x375D JUMP JUMPDEST SWAP1 POP SWAP6 SWAP5 POP POP POP POP POP JUMP JUMPDEST PUSH1 0x0 PUSH1 0x60 DUP3 ADD SWAP1 POP PUSH2 0x3985 PUSH1 0x0 DUP4 ADD DUP7 PUSH2 0x344C JUMP JUMPDEST DUP2 DUP2 SUB PUSH1 0x20 DUP4 ADD MSTORE PUSH2 0x3997 DUP2 DUP6 PUSH2 0x375D JUMP JUMPDEST SWAP1 POP PUSH2 0x39A6 PUSH1 0x40 DUP4 ADD DUP5 PUSH2 0x344C JUMP JUMPDEST SWAP5 SWAP4 POP POP POP POP JUMP JUMPDEST PUSH1 0x0 DUP1 PUSH1 0x0 DUP1 PUSH1 0x80 DUP6 DUP8 SUB SLT ISZERO PUSH2 0x39C8 JUMPI PUSH2 0x39C7 PUSH2 0x326B JUMP JUMPDEST JUMPDEST PUSH1 0x0 PUSH2 0x39D6 DUP8 DUP3 DUP9 ADD PUSH2 0x3296 JUMP JUMPDEST SWAP5 POP POP PUSH1 0x20 DUP6 ADD CALLDATALOAD PUSH8 0xFFFFFFFFFFFFFFFF DUP2 GT ISZERO PUSH2 0x39F7 JUMPI PUSH2 0x39F6 PUSH2 0x3270 JUMP JUMPDEST JUMPDEST PUSH2 0x3A03 DUP8 DUP3 DUP9 ADD PUSH2 0x357D JUMP JUMPDEST SWAP4 POP POP PUSH1 0x40 PUSH2 0x3A14 DUP8 DUP3 DUP9 ADD PUSH2 0x3296 JUMP JUMPDEST SWAP3 POP POP PUSH1 0x60 DUP6 ADD CALLDATALOAD PUSH8 0xFFFFFFFFFFFFFFFF DUP2 GT ISZERO PUSH2 0x3A35 JUMPI PUSH2 0x3A34 PUSH2 0x3270 JUMP JUMPDEST JUMPDEST PUSH2 0x3A41 DUP8 DUP3 DUP9 ADD PUSH2 0x357D JUMP JUMPDEST SWAP2 POP POP SWAP3 SWAP6 SWAP2 SWAP5 POP SWAP3 POP JUMP JUMPDEST PUSH1 0x0 DUP1 PUSH1 0x40 DUP4 DUP6 SUB SLT ISZERO PUSH2 0x3A64 JUMPI PUSH2 0x3A63 PUSH2 0x326B JUMP JUMPDEST JUMPDEST PUSH1 0x0 PUSH2 0x3A72 DUP6 DUP3 DUP7 ADD PUSH2 0x3296 JUMP JUMPDEST SWAP3 POP POP PUSH1 0x20 PUSH2 0x3A83 DUP6 DUP3 DUP7 ADD PUSH2 0x3296 JUMP JUMPDEST SWAP2 POP POP SWAP3 POP SWAP3 SWAP1 POP JUMP JUMPDEST PUSH1 0x0 DUP1 PUSH1 0x40 DUP4 DUP6 SUB SLT ISZERO PUSH2 0x3AA4 JUMPI PUSH2 0x3AA3 PUSH2 0x326B JUMP JUMPDEST JUMPDEST PUSH1 0x0 PUSH2 0x3AB2 DUP6 DUP3 DUP7 ADD PUSH2 0x3296 JUMP JUMPDEST SWAP3 POP POP PUSH1 0x20 DUP4 ADD CALLDATALOAD PUSH8 0xFFFFFFFFFFFFFFFF DUP2 GT ISZERO PUSH2 0x3AD3 JUMPI PUSH2 0x3AD2 PUSH2 0x3270 JUMP JUMPDEST JUMPDEST PUSH2 0x3ADF DUP6 DUP3 DUP7 ADD PUSH2 0x357D JUMP JUMPDEST SWAP2 POP POP SWAP3 POP SWAP3 SWAP1 POP JUMP JUMPDEST PUSH1 0x0 PUSH1 0x20 DUP3 ADD SWAP1 POP DUP2 DUP2 SUB PUSH1 0x0 DUP4 ADD MSTORE PUSH2 0x3B03 DUP2 DUP5 PUSH2 0x375D JUMP JUMPDEST SWAP1 POP SWAP3 SWAP2 POP POP JUMP JUMPDEST PUSH1 0x0 DUP1 PUSH1 0x0 PUSH1 0x60 DUP5 DUP7 SUB SLT ISZERO PUSH2 0x3B24 JUMPI PUSH2 0x3B23 PUSH2 0x326B JUMP JUMPDEST JUMPDEST PUSH1 0x0 DUP5 ADD CALLDATALOAD PUSH8 0xFFFFFFFFFFFFFFFF DUP2 GT ISZERO PUSH2 0x3B42 JUMPI PUSH2 0x3B41 PUSH2 0x3270 JUMP JUMPDEST JUMPDEST PUSH2 0x3B4E DUP7 DUP3 DUP8 ADD PUSH2 0x357D JUMP JUMPDEST SWAP4 POP POP PUSH1 0x20 PUSH2 0x3B5F DUP7 DUP3 DUP8 ADD PUSH2 0x3296 JUMP JUMPDEST SWAP3 POP POP PUSH1 0x40 DUP5 ADD CALLDATALOAD PUSH8 0xFFFFFFFFFFFFFFFF DUP2 GT ISZERO PUSH2 0x3B80 JUMPI PUSH2 0x3B7F PUSH2 0x3270 JUMP JUMPDEST JUMPDEST PUSH2 0x3B8C DUP7 DUP3 DUP8 ADD PUSH2 0x357D JUMP JUMPDEST SWAP2 POP POP SWAP3 POP SWAP3 POP SWAP3 JUMP JUMPDEST PUSH1 0x0 DUP2 MLOAD SWAP1 POP SWAP2 SWAP1 POP JUMP JUMPDEST PUSH1 0x0 DUP3 DUP3 MSTORE PUSH1 0x20 DUP3 ADD SWAP1 POP SWAP3 SWAP2 POP POP JUMP JUMPDEST PUSH1 0x0 DUP2 SWAP1 POP PUSH1 0x20 DUP3 ADD SWAP1 POP SWAP2 SWAP1 POP JUMP JUMPDEST PUSH2 0x3BCB DUP2 PUSH2 0x3275 JUMP JUMPDEST DUP3 MSTORE POP POP JUMP JUMPDEST PUSH1 0x0 PUSH2 0x3BDD DUP4 DUP4 PUSH2 0x3BC2 JUMP JUMPDEST PUSH1 0x20 DUP4 ADD SWAP1 POP SWAP3 SWAP2 POP POP JUMP JUMPDEST PUSH1 0x0 PUSH1 0x20 DUP3 ADD SWAP1 POP SWAP2 SWAP1 POP JUMP JUMPDEST PUSH1 0x0 PUSH2 0x3C01 DUP3 PUSH2 0x3B96 JUMP JUMPDEST PUSH2 0x3C0B DUP2 DUP6 PUSH2 0x3BA1 JUMP JUMPDEST SWAP4 POP PUSH2 0x3C16 DUP4 PUSH2 0x3BB2 JUMP JUMPDEST DUP1 PUSH1 0x0 JUMPDEST DUP4 DUP2 LT ISZERO PUSH2 0x3C47 JUMPI DUP2 MLOAD PUSH2 0x3C2E DUP9 DUP3 PUSH2 0x3BD1 JUMP JUMPDEST SWAP8 POP PUSH2 0x3C39 DUP4 PUSH2 0x3BE9 JUMP JUMPDEST SWAP3 POP POP PUSH1 0x1 DUP2 ADD SWAP1 POP PUSH2 0x3C1A JUMP JUMPDEST POP DUP6 SWAP4 POP POP POP POP SWAP3 SWAP2 POP POP JUMP JUMPDEST PUSH1 0x0 PUSH1 0x20 DUP3 ADD SWAP1 POP DUP2 DUP2 SUB PUSH1 0x0 DUP4 ADD MSTORE PUSH2 0x3C6E DUP2 DUP5 PUSH2 0x3BF6 JUMP JUMPDEST SWAP1 POP SWAP3 SWAP2 POP POP JUMP JUMPDEST PUSH1 0x0 DUP1 PUSH1 0x0 PUSH1 0x60 DUP5 DUP7 SUB SLT ISZERO PUSH2 0x3C8F JUMPI PUSH2 0x3C8E PUSH2 0x326B JUMP JUMPDEST JUMPDEST PUSH1 0x0 PUSH2 0x3C9D DUP7 DUP3 DUP8 ADD PUSH2 0x3296 JUMP JUMPDEST SWAP4 POP POP PUSH1 0x20 PUSH2 0x3CAE DUP7 DUP3 DUP8 ADD PUSH2 0x3296 JUMP JUMPDEST SWAP3 POP POP PUSH1 0x40 DUP5 ADD CALLDATALOAD PUSH8 0xFFFFFFFFFFFFFFFF DUP2 GT ISZERO PUSH2 0x3CCF JUMPI PUSH2 0x3CCE PUSH2 0x3270 JUMP JUMPDEST JUMPDEST PUSH2 0x3CDB DUP7 DUP3 DUP8 ADD PUSH2 0x357D JUMP JUMPDEST SWAP2 POP POP SWAP3 POP SWAP3 POP SWAP3 JUMP JUMPDEST PUSH1 0x0 DUP1 PUSH1 0x0 DUP1 PUSH1 0x80 DUP6 DUP8 SUB SLT ISZERO PUSH2 0x3CFF JUMPI PUSH2 0x3CFE PUSH2 0x326B JUMP JUMPDEST JUMPDEST PUSH1 0x0 PUSH2 0x3D0D DUP8 DUP3 DUP9 ADD PUSH2 0x3296 JUMP JUMPDEST SWAP5 POP POP PUSH1 0x20 PUSH2 0x3D1E DUP8 DUP3 DUP9 ADD PUSH2 0x3296 JUMP JUMPDEST SWAP4 POP POP PUSH1 0x40 DUP6 ADD CALLDATALOAD PUSH8 0xFFFFFFFFFFFFFFFF DUP2 GT ISZERO PUSH2 0x3D3F JUMPI PUSH2 0x3D3E PUSH2 0x3270 JUMP JUMPDEST JUMPDEST PUSH2 0x3D4B DUP8 DUP3 DUP9 ADD PUSH2 0x357D JUMP JUMPDEST SWAP3 POP POP PUSH1 0x60 DUP6 ADD CALLDATALOAD PUSH8 0xFFFFFFFFFFFFFFFF DUP2 GT ISZERO PUSH2 0x3D6C JUMPI PUSH2 0x3D6B PUSH2 0x3270 JUMP JUMPDEST JUMPDEST PUSH2 0x3D78 DUP8 DUP3 DUP9 ADD PUSH2 0x357D JUMP JUMPDEST SWAP2 POP POP SWAP3 SWAP6 SWAP2 SWAP5 POP SWAP3 POP JUMP JUMPDEST PUSH1 0x0 DUP2 ISZERO ISZERO SWAP1 POP SWAP2 SWAP1 POP JUMP JUMPDEST PUSH2 0x3D99 DUP2 PUSH2 0x3D84 JUMP JUMPDEST DUP3 MSTORE POP POP JUMP JUMPDEST PUSH1 0x0 PUSH2 0x120 DUP3 ADD SWAP1 POP DUP2 DUP2 SUB PUSH1 0x0 DUP4 ADD MSTORE PUSH2 0x3DBA DUP2 DUP13 PUSH2 0x375D JUMP JUMPDEST SWAP1 POP PUSH2 0x3DC9 PUSH1 0x20 DUP4 ADD DUP12 PUSH2 0x3D90 JUMP JUMPDEST PUSH2 0x3DD6 PUSH1 0x40 DUP4 ADD DUP11 PUSH2 0x3D90 JUMP JUMPDEST PUSH2 0x3DE3 PUSH1 0x60 DUP4 ADD DUP10 PUSH2 0x3D90 JUMP JUMPDEST PUSH2 0x3DF0 PUSH1 0x80 DUP4 ADD DUP9 PUSH2 0x3D90 JUMP JUMPDEST PUSH2 0x3DFD PUSH1 0xA0 DUP4 ADD DUP8 PUSH2 0x3D90 JUMP JUMPDEST PUSH2 0x3E0A PUSH1 0xC0 DUP4 ADD DUP7 PUSH2 0x3D90 JUMP JUMPDEST PUSH2 0x3E17 PUSH1 0xE0 DUP4 ADD DUP6 PUSH2 0x3D90 JUMP JUMPDEST PUSH2 0x3E25 PUSH2 0x100 DUP4 ADD DUP5 PUSH2 0x3D90 JUMP JUMPDEST SWAP11 SWAP10 POP POP POP POP POP POP POP POP POP POP JUMP JUMPDEST PUSH1 0x0 PUSH1 0x80 DUP3 ADD SWAP1 POP PUSH2 0x3E48 PUSH1 0x0 DUP4 ADD DUP8 PUSH2 0x344C JUMP JUMPDEST PUSH2 0x3E55 PUSH1 0x20 DUP4 ADD DUP7 PUSH2 0x344C JUMP JUMPDEST DUP2 DUP2 SUB PUSH1 0x40 DUP4 ADD MSTORE PUSH2 0x3E67 DUP2 DUP6 PUSH2 0x375D JUMP JUMPDEST SWAP1 POP DUP2 DUP2 SUB PUSH1 0x60 DUP4 ADD MSTORE PUSH2 0x3E7B DUP2 DUP5 PUSH2 0x375D JUMP JUMPDEST SWAP1 POP SWAP6 SWAP5 POP POP POP POP POP JUMP JUMPDEST PUSH1 0x0 PUSH1 0x20 DUP3 ADD SWAP1 POP PUSH2 0x3E9B PUSH1 0x0 DUP4 ADD DUP5 PUSH2 0x3D90 JUMP JUMPDEST SWAP3 SWAP2 POP POP JUMP JUMPDEST PUSH1 0x0 DUP1 PUSH1 0x0 PUSH1 0x60 DUP5 DUP7 SUB SLT ISZERO PUSH2 0x3EBA JUMPI PUSH2 0x3EB9 PUSH2 0x326B JUMP JUMPDEST JUMPDEST PUSH1 0x0 DUP5 ADD CALLDATALOAD PUSH8 0xFFFFFFFFFFFFFFFF DUP2 GT ISZERO PUSH2 0x3ED8 JUMPI PUSH2 0x3ED7 PUSH2 0x3270 JUMP JUMPDEST JUMPDEST PUSH2 0x3EE4 DUP7 DUP3 DUP8 ADD PUSH2 0x357D JUMP JUMPDEST SWAP4 POP POP PUSH1 0x20 DUP5 ADD CALLDATALOAD PUSH8 0xFFFFFFFFFFFFFFFF DUP2 GT ISZERO PUSH2 0x3F05 JUMPI PUSH2 0x3F04 PUSH2 0x3270 JUMP JUMPDEST JUMPDEST PUSH2 0x3F11 DUP7 DUP3 DUP8 ADD PUSH2 0x357D JUMP JUMPDEST SWAP3 POP POP PUSH1 0x40 DUP5 ADD CALLDATALOAD PUSH8 0xFFFFFFFFFFFFFFFF DUP2 GT ISZERO PUSH2 0x3F32 JUMPI PUSH2 0x3F31 PUSH2 0x3270 JUMP JUMPDEST JUMPDEST PUSH2 0x3F3E DUP7 DUP3 DUP8 ADD PUSH2 0x357D JUMP JUMPDEST SWAP2 POP POP SWAP3 POP SWAP3 POP SWAP3 JUMP JUMPDEST PUSH32 0x4E487B7100000000000000000000000000000000000000000000000000000000 PUSH1 0x0 MSTORE PUSH1 0x22 PUSH1 0x4 MSTORE PUSH1 0x24 PUSH1 0x0 REVERT JUMPDEST PUSH1 0x0 PUSH1 0x2 DUP3 DIV SWAP1 POP PUSH1 0x1 DUP3 AND DUP1 PUSH2 0x3F8F JUMPI PUSH1 0x7F DUP3 AND SWAP2 POP JUMPDEST PUSH1 0x20 DUP3 LT DUP2 SUB PUSH2 0x3FA2 JUMPI PUSH2 0x3FA1 PUSH2 0x3F48 JUMP JUMPDEST JUMPDEST POP SWAP2 SWAP1 POP JUMP JUMPDEST PUSH32 0x4E487B7100000000000000000000000000000000000000000000000000000000 PUSH1 0x0 MSTORE PUSH1 0x32 PUSH1 0x4 MSTORE PUSH1 0x24 PUSH1 0x0 REVERT JUMPDEST PUSH32 0x4E487B7100000000000000000000000000000000000000000000000000000000 PUSH1 0x0 MSTORE PUSH1 0x11 PUSH1 0x4 MSTORE PUSH1 0x24 PUSH1 0x0 REVERT JUMPDEST PUSH1 0x0 PUSH2 0x4011 DUP3 PUSH2 0x3275 JUMP JUMPDEST SWAP2 POP PUSH32 0xFFFFFFFFFFFFFFFFFFFFFFFFFFFFFFFFFFFFFFFFFFFFFFFFFFFFFFFFFFFFFFFF DUP3 SUB PUSH2 0x4043 JUMPI PUSH2 0x4042 PUSH2 0x3FD7 JUMP JUMPDEST JUMPDEST PUSH1 0x1 DUP3 ADD SWAP1 POP SWAP2 SWAP1 POP JUMP JUMPDEST PUSH1 0x0 DUP2 SWAP1 POP DUP2 PUSH1 0x0 MSTORE PUSH1 0x20 PUSH1 0x0 KECCAK256 SWAP1 POP SWAP2 SWAP1 POP JUMP JUMPDEST PUSH1 0x0 PUSH1 0x20 PUSH1 0x1F DUP4 ADD DIV SWAP1 POP SWAP2 SWAP1 POP JUMP JUMPDEST PUSH1 0x0 DUP3 DUP3 SHL SWAP1 POP SWAP3 SWAP2 POP POP JUMP JUMPDEST PUSH1 0x0 PUSH1 0x8 DUP4 MUL PUSH2 0x40B0 PUSH32 0xFFFFFFFFFFFFFFFFFFFFFFFFFFFFFFFFFFFFFFFFFFFFFFFFFFFFFFFFFFFFFFFF DUP3 PUSH2 0x4073 JUMP JUMPDEST PUSH2 0x40BA DUP7 DUP4 PUSH2 0x4073 JUMP JUMPDEST SWAP6 POP DUP1 NOT DUP5 AND SWAP4 POP DUP1 DUP7 AND DUP5 OR SWAP3 POP POP POP SWAP4 SWAP3 POP POP POP JUMP JUMPDEST PUSH1 0x0 DUP2 SWAP1 POP SWAP2 SWAP1 POP JUMP JUMPDEST PUSH1 0x0 PUSH2 0x40F7 PUSH2 0x40F2 PUSH2 0x40ED DUP5 PUSH2 0x3275 JUMP JUMPDEST PUSH2 0x40D2 JUMP JUMPDEST PUSH2 0x3275 JUMP JUMPDEST SWAP1 POP SWAP2 SWAP1 POP JUMP JUMPDEST PUSH1 0x0 DUP2 SWAP1 POP SWAP2 SWAP1 POP JUMP JUMPDEST PUSH2 0x4111 DUP4 PUSH2 0x40DC JUMP JUMPDEST PUSH2 0x4125 PUSH2 0x411D DUP3 PUSH2 0x40FE JUMP JUMPDEST DUP5 DUP5 SLOAD PUSH2 0x4080 JUMP JUMPDEST DUP3 SSTORE POP POP POP POP JUMP JUMPDEST PUSH1 0x0 SWAP1 JUMP JUMPDEST PUSH2 0x413A PUSH2 0x412D JUMP JUMPDEST PUSH2 0x4145 DUP2 DUP5 DUP5 PUSH2 0x4108 JUMP JUMPDEST POP POP POP JUMP JUMPDEST JUMPDEST DUP2 DUP2 LT ISZERO PUSH2 0x4169 JUMPI PUSH2 0x415E PUSH1 0x0 DUP3 PUSH2 0x4132 JUMP JUMPDEST PUSH1 0x1 DUP2 ADD SWAP1 POP PUSH2 0x414B JUMP JUMPDEST POP POP JUMP JUMPDEST PUSH1 0x1F DUP3 GT ISZERO PUSH2 0x41AE JUMPI PUSH2 0x417F DUP2 PUSH2 0x404E JUMP JUMPDEST PUSH2 0x4188 DUP5 PUSH2 0x4063 JUMP JUMPDEST DUP2 ADD PUSH1 0x20 DUP6 LT ISZERO PUSH2 0x4197 JUMPI DUP2 SWAP1 POP JUMPDEST PUSH2 0x41AB PUSH2 0x41A3 DUP6 PUSH2 0x4063 JUMP JUMPDEST DUP4 ADD DUP3 PUSH2 0x414A JUMP JUMPDEST POP POP JUMPDEST POP POP POP JUMP JUMPDEST PUSH1 0x0 DUP3 DUP3 SHR SWAP1 POP SWAP3 SWAP2 POP POP JUMP JUMPDEST PUSH1 0x0 PUSH2 0x41D1 PUSH1 0x0 NOT DUP5 PUSH1 0x8 MUL PUSH2 0x41B3 JUMP JUMPDEST NOT DUP1 DUP4 AND SWAP2 POP POP SWAP3 SWAP2 POP POP JUMP JUMPDEST PUSH1 0x0 PUSH2 0x41EA DUP4 DUP4 PUSH2 0x41C0 JUMP JUMPDEST SWAP2 POP DUP3 PUSH1 0x2 MUL DUP3 OR SWAP1 POP SWAP3 SWAP2 POP POP JUMP JUMPDEST PUSH2 0x4203 DUP3 PUSH2 0x3304 JUMP JUMPDEST PUSH8 0xFFFFFFFFFFFFFFFF DUP2 GT ISZERO PUSH2 0x421C JUMPI PUSH2 0x421B PUSH2 0x3480 JUMP JUMPDEST JUMPDEST PUSH2 0x4226 DUP3 SLOAD PUSH2 0x3F77 JUMP JUMPDEST PUSH2 0x4231 DUP3 DUP3 DUP6 PUSH2 0x416D JUMP JUMPDEST PUSH1 0x0 PUSH1 0x20 SWAP1 POP PUSH1 0x1F DUP4 GT PUSH1 0x1 DUP2 EQ PUSH2 0x4264 JUMPI PUSH1 0x0 DUP5 ISZERO PUSH2 0x4252 JUMPI DUP3 DUP8 ADD MLOAD SWAP1 POP JUMPDEST PUSH2 0x425C DUP6 DUP3 PUSH2 0x41DE JUMP JUMPDEST DUP7 SSTORE POP PUSH2 0x42C4 JUMP JUMPDEST PUSH1 0x1F NOT DUP5 AND PUSH2 0x4272 DUP7 PUSH2 0x404E JUMP JUMPDEST PUSH1 0x0 JUMPDEST DUP3 DUP2 LT ISZERO PUSH2 0x429A JUMPI DUP5 DUP10 ADD MLOAD DUP3 SSTORE PUSH1 0x1 DUP3 ADD SWAP2 POP PUSH1 0x20 DUP6 ADD SWAP5 POP PUSH1 0x20 DUP2 ADD SWAP1 POP PUSH2 0x4275 JUMP JUMPDEST DUP7 DUP4 LT ISZERO PUSH2 0x42B7 JUMPI DUP5 DUP10 ADD MLOAD PUSH2 0x42B3 PUSH1 0x1F DUP10 AND DUP3 PUSH2 0x41C0 JUMP JUMPDEST DUP4 SSTORE POP JUMPDEST PUSH1 0x1 PUSH1 0x2 DUP9 MUL ADD DUP9 SSTORE POP POP POP JUMPDEST POP POP POP POP POP POP JUMP JUMPDEST PUSH1 0x0 DUP2 SWAP1 POP SWAP3 SWAP2 POP POP JUMP JUMPDEST PUSH1 0x0 PUSH2 0x42E2 DUP3 PUSH2 0x3304 JUMP JUMPDEST PUSH2 0x42EC DUP2 DUP6 PUSH2 0x42CC JUMP JUMPDEST SWAP4 POP PUSH2 0x42FC DUP2 DUP6 PUSH1 0x20 DUP7 ADD PUSH2 0x3320 JUMP JUMPDEST DUP1 DUP5 ADD SWAP2 POP POP SWAP3 SWAP2 POP POP JUMP JUMPDEST PUSH1 0x0 PUSH2 0x4314 DUP3 DUP5 PUSH2 0x42D7 JUMP JUMPDEST SWAP2 POP DUP2 SWAP1 POP SWAP3 SWAP2 POP POP JUMP JUMPDEST PUSH1 0x0 DUP2 SWAP1 POP SWAP3 SWAP2 POP POP JUMP JUMPDEST PUSH1 0x0 DUP2 SWAP1 POP DUP2 PUSH1 0x0 MSTORE PUSH1 0x20 PUSH1 0x0 KECCAK256 SWAP1 POP SWAP2 SWAP1 POP JUMP JUMPDEST PUSH1 0x0 DUP2 SLOAD PUSH2 0x434C DUP2 PUSH2 0x3F77 JUMP JUMPDEST PUSH2 0x4356 DUP2 DUP7 PUSH2 0x431F JUMP JUMPDEST SWAP5 POP PUSH1 0x1 DUP3 AND PUSH1 0x0 DUP2 EQ PUSH2 0x4371 JUMPI PUSH1 0x1 DUP2 EQ PUSH2 0x4386 JUMPI PUSH2 0x43B9 JUMP JUMPDEST PUSH1 0xFF NOT DUP4 AND DUP7 MSTORE DUP2 ISZERO ISZERO DUP3 MUL DUP7 ADD SWAP4 POP PUSH2 0x43B9 JUMP JUMPDEST PUSH2 0x438F DUP6 PUSH2 0x432A JUMP JUMPDEST PUSH1 0x0 JUMPDEST DUP4 DUP2 LT ISZERO PUSH2 0x43B1 JUMPI DUP2 SLOAD DUP2 DUP10 ADD MSTORE PUSH1 0x1 DUP3 ADD SWAP2 POP PUSH1 0x20 DUP2 ADD SWAP1 POP PUSH2 0x4392 JUMP JUMPDEST DUP4 DUP9 ADD SWAP6 POP POP POP JUMPDEST POP POP POP SWAP3 SWAP2 POP POP JUMP JUMPDEST PUSH1 0x0 PUSH2 0x43CE DUP3 DUP5 PUSH2 0x433F JUMP JUMPDEST SWAP2 POP DUP2 SWAP1 POP SWAP3 SWAP2 POP POP JUMP JUMPDEST PUSH1 0x0 PUSH2 0x43E4 DUP3 PUSH2 0x3275 JUMP JUMPDEST SWAP2 POP PUSH2 0x43EF DUP4 PUSH2 0x3275 JUMP JUMPDEST SWAP3 POP DUP3 DUP3 ADD SWAP1 POP DUP1 DUP3 GT ISZERO PUSH2 0x4407 JUMPI PUSH2 0x4406 PUSH2 0x3FD7 JUMP JUMPDEST JUMPDEST SWAP3 SWAP2 POP POP JUMP INVALID ADDRESS PUSH25 0x38366262366436653138633565656163613165383363316536 BALANCE CALLDATASIZE ORIGIN PUSH4 0x63343333 PUSH5 0x6363373061 CALLVALUE PUSH28 0x227469746C65223A224173736574204D65746164617461222C227479 PUSH17 0x65223A226F626A656374222C2270726F70 PUSH6 0x727469657322 GASPRICE PUSH28 0x225469746C65223A7B2274797065223A22737472696E67222C226465 PUSH20 0x6372697074696F6E223A22536F6C61722070616E PUSH6 0x6C73206F6E20 PUSH21 0x686520436F6E73657175656E636573204E6F6E6120 PUSH4 0x6F6D6D75 PUSH15 0x6974792063656E74657220227D2C22 DIFFICULTY PUSH6 0x736372697074 PUSH10 0x6F6E223A7B2274797065 0x22 GASPRICE 0x22 PUSH20 0x7472696E67222C226465736372697074696F6E22 GASPRICE 0x22 JUMPI PUSH6 0x2063616E2069 PUSH15 0x735C6E227D2C225374727563747572 PUSH6 0x4C656674223A PUSH28 0x2274797065223A22737472696E67222C226465736372697074696F6E 0x22 GASPRICE JUMPDEST 0x22 MSTORE PUSH6 0x70726573656E PUSH21 0x617469766573204265726C696E222C22436F6D6D75 PUSH15 0x697479222C224368696C6472656E22 0x5D PUSH30 0x2C225374727563747572655269676874223A7B2274797065223A22737472 PUSH10 0x6E67222C226465736372 PUSH10 0x7074696F6E223A5B2232 ADDRESS 0x25 0x22 0x2C 0x22 CALLDATACOPY ADDRESS 0x25 0x22 0x2C 0x22 BALANCE ADDRESS 0x25 0x22 0x5D PUSH30 0x2C22516F75746174696F6E223A7B226C696E6B223A2268747470733A2F2F PUSH22 0x706C6F61646966792E6E65742F353237336433353064 PUSH7 0x6430303164312F PUSH18 0x756F746174696F6E5F436F6E73657175656E PUSH4 0x65735F4E PUSH16 0x6E615F636F6D6D756E6974795F63656E PUSH21 0x65722E706466222C227072697A65223A222434382C ADDRESS CALLDATACOPY BALANCE 0x2E CALLDATALOAD CALLDATALOAD 0x22 PUSH30 0x2C2277616C6C6574223A7B2274797065223A22737472696E67222C226465 PUSH20 0x6372697074696F6E223A22307844363062433062 ADDRESS ADDRESS PUSH4 0x31443861 CALLDATACOPY BALANCE CODESIZE CHAINID TIMESTAMP CALLDATASIZE PUSH7 0x44654463343436 CALLDATASIZE PUSH4 0x37413131 CODESIZE ADDRESS CODESIZE CALLDATASIZE CODESIZE PUSH4 0x227D2C22 PUSH13 0x6F676F223A7B2274797065223A 0x22 PUSH20 0x7472696E67222C226465736372697074696F6E22 GASPRICE PUSH28 0x2275726C223A2268747470733A2F2F626166796265696634666B3674 PUSH24 0x696B6B63796F70676C687070646F376464336C3334626D36 PUSH18 0x65646A65336D786674656335653762346865 CALLDATALOAD CALLVALUE 0x2E PUSH10 0x7066732E6E667473746F PUSH19 0x6167652E6C696E6B222C2274797065223A2269 PUSH14 0x6167652F706E67227D7D2C22616C PUSH13 0x46696C6573223A5B7B2275726C 0x22 GASPRICE 0x22 PUSH9 0x747470733A2F2F6261 PUSH7 0x79626569663466 PUSH12 0x367477696B6B63796F70676C PUSH9 0x7070646F376464336C CALLER CALLVALUE PUSH3 0x6D3671 PUSH6 0x646A65336D78 PUSH7 0x74656335653762 CALLVALUE PUSH9 0x6535342E697066732E PUSH15 0x667473746F726167652E6C696E6B22 0x2C 0x22 PUSH21 0x797065223A22696D6167652F706E67227D5D7D7D7B 0x22 PUSH21 0x69746C65223A224173736574204D65746164617461 0x22 0x2C 0x22 PUSH21 0x797065223A226F626A656374222C2270726F706572 PUSH21 0x696573223A7B225469746C65223A7B227479706522 GASPRICE 0x22 PUSH20 0x7472696E67222C226465736372697074696F6E22 GASPRICE 0x22 0x4C PUSH2 0x6B65 KECCAK256 0x4E PUSH16 0x6E612C204F726C616E646F205553227D 0x2C 0x22 DIFFICULTY PUSH6 0x736372697074 PUSH10 0x6F6E223A7B2274797065 0x22 GASPRICE 0x22 PUSH20 0x7472696E67222C226465736372697074696F6E22 GASPRICE 0x22 0x22 PUSH30 0x2C2253746172745F44617465223A7B2274797065223A22737472696E6722 0x2C 0x22 PUSH5 0x6573637269 PUSH17 0x74696F6E223A22323032332D30382D3136 SLOAD BALANCE BALANCE GASPRICE BALANCE CALLVALUE 0x22 PUSH30 0x2C226C6F676F223A7B2274797065223A22737472696E67222C2264657363 PUSH19 0x697074696F6E223A7B2275726C223A22687474 PUSH17 0x733A2F2F62616679626569636235797933 CALLDATASIZE PUSH16 0x63733479756C7068367A707837676773 PUSH26 0x6567696E736A776E6674376D6C3763786F6A79777062736A7571 CALLVALUE 0x2E PUSH10 0x7066732E6E667473746F PUSH19 0x6167652E6C696E6B222C2274797065223A2269 PUSH14 0x6167652F706E67227D7D2C227761 PUSH13 0x6C6574223A7B2274797065223A 0x22 PUSH20 0x7472696E67222C226465736372697074696F6E22 GASPRICE 0x22 ADDRESS PUSH25 0x38366262366436653138633565656163613165383363316536 BALANCE CALLDATASIZE ORIGIN PUSH4 0x63343333 PUSH5 0x6363373061 CALLVALUE 0x22 PUSH30 0x2C22537562735072696365223A7B2274797065223A226E756D626572222C 0x22 PUSH5 0x6573637269 PUSH17 0x74696F6E223A22302E3035227D2C227479 PUSH17 0x65696D67223A7B2274797065223A227374 PUSH19 0x696E67222C226465736372697074696F6E223A 0x22 DIFFICULTY PUSH2 0x6F22 PUSH30 0x2C22616C6C46696C6573223A5B7B2275726C223A2268747470733A2F2F62 PUSH2 0x6679 PUSH3 0x656963 PUSH3 0x357979 CALLER CALLDATASIZE PUSH16 0x63733479756C7068367A707837676773 PUSH26 0x6567696E736A776E6674376D6C3763786F6A79777062736A7571 CALLVALUE 0x2E PUSH10 0x7066732E6E667473746F PUSH19 0x6167652E6C696E6B222C2274797065223A2269 PUSH14 0x6167652F706E67227D5D7D7D3C62 PUSH16 0x64793E3C6469762069643D2264616F2D PUSH4 0x6F6E7461 PUSH10 0x6E6572223E203C646976 KECCAK256 PUSH4 0x6C617373 RETURNDATASIZE 0x22 PUSH7 0x6C657820666C65 PUSH25 0x2D636F6C206761702D38223E3C696D672069643D2264616F2D PUSH10 0x6D61676522207372633D 0x22 PUSH9 0x747470733A2F2F6261 PUSH7 0x79626569636235 PUSH26 0x7933366F63733479756C7068367A707837676773796567696E73 PUSH11 0x776E6674376D6C3763786F PUSH11 0x79777062736A7571342E69 PUSH17 0x66732E6E667473746F726167652E6C696E PUSH12 0x222F3E3C2F6469763E3C6469 PUSH23 0x2069643D22676F616C2D636F6E7461696E65722220636C PUSH2 0x7373 RETURNDATASIZE 0x22 PUSH7 0x6C657820666C65 PUSH25 0x2D636F6C206761702D38223E0A0A20203C2F6469763E3C2F64 PUSH10 0x763E3C2F6469763E3C2F PUSH3 0x6F6479 RETURNDATACOPY EXTCODECOPY PUSH20 0x74796C653E2A207B20626F782D73697A696E673A KECCAK256 PUSH3 0x6F7264 PUSH6 0x722D626F783B KECCAK256 PUSH30 0x20626F6479207B6D617267696E3A20303B7D2364616F2D7469746C657B77 PUSH10 0x6474683A3738253B7D23 PUSH10 0x716F6B6A7B666C65782D PUSH5 0x6972656374 PUSH10 0x6F6E3A726F772D726576 PUSH6 0x7273653B6469 PUSH20 0x706C61793A666C65783B7D2E70792D322E70782D CALLVALUE 0x2E PUSH8 0x61702D322E746578 PUSH21 0x2D6D6F6F6E2D31342E726F756E6465642D6D6F6F6E 0x2D PUSH10 0x2D736D2E72656C617469 PUSH23 0x652E7A2D302E666C65782E6A7573746966792D63656E74 PUSH6 0x722E6974656D PUSH20 0x2D63656E7465722E666F6E742D6D656469756D2E PUSH15 0x6F2D756E6465726C696E652E6F7665 PUSH19 0x666C6F772D68696464656E2E73656C6563742D PUSH15 0x6F6E652E6F75746C696E652D6E6F6E PUSH6 0x2E7472616E73 PUSH10 0x74696F6E2E6475726174 PUSH10 0x6F6E2D3230302E616374 PUSH10 0x76655C3A7363616C652D CODECOPY ADDRESS 0x2E PUSH7 0x6F6375732D7669 PUSH20 0x69626C655C3A736861646F772D666F6375732E62 PUSH21 0x6E2D7072696D6172792E6372656174652D676F616C 0x2D PUSH3 0x6C6F63 PUSH12 0x2E7B706F736974696F6E3A72 PUSH6 0x6C6174697665 EXTCODESIZE PUSH19 0x696768743A3070783B7D2E70792D322E70782D CALLVALUE 0x2E PUSH8 0x61702D322E746578 PUSH21 0x2D6D6F6F6E2D31342E726F756E6465642D6D6F6F6E 0x2D PUSH10 0x2D736D2E7A2D302E666C PUSH6 0x782E6A757374 PUSH10 0x66792D63656E7465722E PUSH10 0x74656D732D63656E7465 PUSH19 0x2E666F6E742D6D656469756D2E6E6F2D756E64 PUSH6 0x726C696E652E PUSH16 0x766572666C6F772D68696464656E2E73 PUSH6 0x6C6563742D6E PUSH16 0x6E652E6F75746C696E652D6E6F6E652E PUSH21 0x72616E736974696F6E2E6475726174696F6E2D3230 ADDRESS 0x2E PUSH2 0x6374 PUSH10 0x76655C3A7363616C652D CODECOPY ADDRESS 0x2E PUSH7 0x6F6375732D7669 PUSH20 0x69626C655C3A736861646F772D666F6375732E62 PUSH21 0x6E2D7072696D6172792E6372656174652D676F616C 0x2D PUSH3 0x6C6F63 PUSH12 0x2E7B72696768743A31307078 EXTCODESIZE PUSH17 0x6F736974696F6E3A6162736F6C7574653B PUSH30 0x3C2F7374796C653E7B227469746C65223A224173736574204D6574616461 PUSH21 0x61222C2274797065223A226F626A656374222C2270 PUSH19 0x6F70657274696573223A7B225469746C65223A PUSH28 0x2274797065223A22737472696E67222C226465736372697074696F6E 0x22 GASPRICE 0x22 MSTORE PUSH6 0x6E657761626C PUSH6 0x20656E657267 PUSH26 0x227D2C224465736372697074696F6E223A7B2274797065223A22 PUSH20 0x7472696E67222C226465736372697074696F6E22 GASPRICE 0x22 0x4F PUSH22 0x722044414F206973207374617274696E672069742773 KECCAK256 PUSH16 0x776E2072656E657761626C6520656E65 PUSH19 0x677920636F6D70616E7920746861742064656C PUSH10 0x7665727320656E657267 PUSH26 0x20666F72207468652077686F6C6520636F6D6D756E697479227D 0x2C 0x22 TIMESTAMP PUSH22 0x64676574223A7B2274797065223A22737472696E6722 0x2C 0x22 PUSH5 0x6573637269 PUSH17 0x74696F6E223A2224312C3030302C303030 0x22 PUSH30 0x2C22456E645F44617465223A7B2274797065223A22737472696E67222C22 PUSH5 0x6573637269 PUSH17 0x74696F6E223A22323032332D30382D3331 SLOAD ORIGIN ORIGIN GASPRICE CALLVALUE ADDRESS 0x22 PUSH30 0x2C2277616C6C6574223A7B2274797065223A22737472696E67222C226465 PUSH20 0x6372697074696F6E223A22307838366262366436 PUSH6 0x313863356565 PUSH2 0x6361 BALANCE PUSH6 0x383363316536 BALANCE CALLDATASIZE ORIGIN PUSH4 0x63343333 PUSH5 0x6363373061 CALLVALUE 0x22 PUSH30 0x2C226C6F676F223A7B2274797065223A22737472696E67222C2264657363 PUSH19 0x697074696F6E223A7B2275726C223A22687474 PUSH17 0x733A2F2F62616679626569633567347876 PUSH11 0x376D7972676B6236326C65 PUSH15 0x6C64376F72706C32687273706D7A6C PUSH27 0x6364627A70796F746333337471796770652E697066732E6E667473 PUSH21 0x6F726167652E6C696E6B222C2274797065223A2269 PUSH14 0x6167652F6A706567227D7D2C2261 PUSH13 0x6C46696C6573223A5B7B227572 PUSH13 0x223A2268747470733A2F2F6261 PUSH7 0x79626569633567 CALLVALUE PUSH25 0x766A376D7972676B6236326C656E6C64376F72706C32687273 PUSH17 0x6D7A6C7A6364627A70796F746333337471 PUSH26 0x6770652E697066732E6E667473746F726167652E6C696E6B222C 0x22 PUSH21 0x797065223A22696D6167652F6A706567227D5D7D7D LOG2 PUSH5 0x6970667358 0x22 SLT KECCAK256 DUP16 GT 0xE9 ISZERO CALLDATALOAD 0xD2 BALANCE EXTCODECOPY PUSH25 0x817D4AEC718593CA7D621721ADBB15EBA0C156772592086473 PUSH16 0x6C634300081100330000000000000000 "},"gasEstimates":{"creation":{"codeDepositCost":"4167600","executionCost":"4793","totalCost":"4172393"},"external":{"_dao_ids()":"2496","_dao_uris(uint256)":"infinite","_donated(string)":"infinite","_donations(uint256)":"infinite","_donations_ids()":"2495","_goal_ids()":"2564","_goal_uris(uint256)":"infinite","_ideas_ids()":"2496","_ideas_uris(uint256)":"infinite","_ideas_vote_ids()":"2497","_join_ids()":"2520","_joined_person(uint256)":"infinite","_message_ids()":"2497","_message_read_ids()":"2518","_reply_ids()":"2518","_smart_contract_ids()":"2498","_smart_contracts_uris(uint256)":"infinite","_template_uris(uint256)":"infinite","_user_badges(string)":"infinite","addTempData()":"infinite","add_donation(uint256,uint256,string)":"infinite","all_goal_ideas_votes(uint256)":"infinite","all_messages(uint256)":"infinite","all_read_messages(uint256)":"infinite","all_replies(uint256)":"infinite","create_dao(string,string,string)":"infinite","create_goal(string,uint256,string)":"infinite","create_goal_ideas_vote(uint256,uint256,string)":"infinite","create_ideas(string,uint256,string[],string)":"infinite","dao_uri(uint256)":"infinite","getMsgIDs(uint256)":"infinite","getReadMsg(uint256,string)":"infinite","getReplyIDs(uint256)":"infinite","get_all_daos()":"infinite","get_all_goals()":"infinite","get_all_goals_by_dao_id(uint256)":"infinite","get_all_ideas()":"infinite","get_all_ideas_by_goal_id(uint256)":"infinite","get_goal_id_by_goal_uri(string)":"infinite","get_goal_id_from_ideas_uri(string)":"infinite","get_ideas_id_by_ideas_uri(string)":"infinite","get_ideas_votes_from_goal(uint256,uint256)":"infinite","goal_uri(uint256)":"infinite","ideas_uri(uint256)":"infinite","is_person_joined(string)":"infinite","join_community(uint256,string)":"infinite","reset_all()":"infinite","sendMsg(uint256,string,string)":"infinite","sendReadMsg(uint256,uint256,string,string)":"infinite","sendReply(uint256,string,uint256,string)":"infinite","set_dao(uint256,string,string)":"infinite","set_goal(uint256,string)":"infinite","set_ideas(uint256,string)":"infinite","update_template(uint256,string)":"infinite"},"internal":{"create_ideas_smart_contract(uint256,uint256,string memory)":"infinite"}},"methodIdentifiers":{"_dao_ids()":"7bbd582d","_dao_uris(uint256)":"27a568b9","_donated(string)":"77935be7","_donations(uint256)":"7fc543ec","_donations_ids()":"ec245802","_goal_ids()":"13bf4cea","_goal_uris(uint256)":"7f2035d4","_ideas_ids()":"d3791b20","_ideas_uris(uint256)":"468d0c80","_ideas_vote_ids()":"4a797bd7","_join_ids()":"1171b621","_joined_person(uint256)":"330b8f26","_message_ids()":"9077007d","_message_read_ids()":"ca013f17","_reply_ids()":"aa2bf5d3","_smart_contract_ids()":"1b592aeb","_smart_contracts_uris(uint256)":"ff4a37ef","_template_uris(uint256)":"6ecda4ee","_user_badges(string)":"9f9ff54b","addTempData()":"0c90f09d","add_donation(uint256,uint256,string)":"e3863cef","all_goal_ideas_votes(uint256)":"1ba44c4c","all_messages(uint256)":"b527d45e","all_read_messages(uint256)":"cace8d46","all_replies(uint256)":"3f87a2f4","create_dao(string,string,string)":"ec399255","create_goal(string,uint256,string)":"77b2ec23","create_goal_ideas_vote(uint256,uint256,string)":"82fcc732","create_ideas(string,uint256,string[],string)":"18426b46","dao_uri(uint256)":"5d907da1","getMsgIDs(uint256)":"803f5b9f","getReadMsg(uint256,string)":"cd230809","getReplyIDs(uint256)":"812fae1f","get_all_daos()":"c04fe978","get_all_goals()":"29b56f60","get_all_goals_by_dao_id(uint256)":"109ac970","get_all_ideas()":"97ee7606","get_all_ideas_by_goal_id(uint256)":"131d44f2","get_goal_id_by_goal_uri(string)":"1e9ac9f5","get_goal_id_from_ideas_uri(string)":"aa4cdf2a","get_ideas_id_by_ideas_uri(string)":"a1ca9178","get_ideas_votes_from_goal(uint256,uint256)":"4be7adb5","goal_uri(uint256)":"e32acc1a","ideas_uri(uint256)":"8d3d2595","is_person_joined(string)":"eca7f5fe","join_community(uint256,string)":"5132f0c7","reset_all()":"b16060a6","sendMsg(uint256,string,string)":"3f50602f","sendReadMsg(uint256,uint256,string,string)":"8c59143d","sendReply(uint256,string,uint256,string)":"494ce295","set_dao(uint256,string,string)":"881de858","set_goal(uint256,string)":"c29595c5","set_ideas(uint256,string)":"c04e7430","update_template(uint256,string)":"87633eb2"}},"storageLayout":{"storage":[{"astId":2422,"contract":"contracts/PlanetDAO.sol:PlanetDAO","label":"_dao_ids","offset":0,"slot":"0","type":"t_uint256"},{"astId":2424,"contract":"contracts/PlanetDAO.sol:PlanetDAO","label":"_donations_ids","offset":0,"slot":"1","type":"t_uint256"},{"astId":2426,"contract":"contracts/PlanetDAO.sol:PlanetDAO","label":"_goal_ids","offset":0,"slot":"2","type":"t_uint256"},{"astId":2428,"contract":"contracts/PlanetDAO.sol:PlanetDAO","label":"_ideas_ids","offset":0,"slot":"3","type":"t_uint256"},{"astId":2430,"contract":"contracts/PlanetDAO.sol:PlanetDAO","label":"_join_ids","offset":0,"slot":"4","type":"t_uint256"},{"astId":2432,"contract":"contracts/PlanetDAO.sol:PlanetDAO","label":"_smart_contract_ids","offset":0,"slot":"5","type":"t_uint256"},{"astId":2434,"contract":"contracts/PlanetDAO.sol:PlanetDAO","label":"_ideas_vote_ids","offset":0,"slot":"6","type":"t_uint256"},{"astId":2436,"contract":"contracts/PlanetDAO.sol:PlanetDAO","label":"_message_ids","offset":0,"slot":"7","type":"t_uint256"},{"astId":2438,"contract":"contracts/PlanetDAO.sol:PlanetDAO","label":"_message_read_ids","offset":0,"slot":"8","type":"t_uint256"},{"astId":2440,"contract":"contracts/PlanetDAO.sol:PlanetDAO","label":"_reply_ids","offset":0,"slot":"9","type":"t_uint256"},{"astId":2445,"contract":"contracts/PlanetDAO.sol:PlanetDAO","label":"_dao_uris","offset":0,"slot":"10","type":"t_mapping(t_uint256,t_struct(dao_uri_struct)2331_storage)"},{"astId":2449,"contract":"contracts/PlanetDAO.sol:PlanetDAO","label":"_template_uris","offset":0,"slot":"11","type":"t_mapping(t_uint256,t_string_storage)"},{"astId":2454,"contract":"contracts/PlanetDAO.sol:PlanetDAO","label":"_joined_person","offset":0,"slot":"12","type":"t_mapping(t_uint256,t_struct(join_struct)2401_storage)"},{"astId":2459,"contract":"contracts/PlanetDAO.sol:PlanetDAO","label":"_goal_uris","offset":0,"slot":"13","type":"t_mapping(t_uint256,t_struct(goal_uri_struct)2336_storage)"},{"astId":2464,"contract":"contracts/PlanetDAO.sol:PlanetDAO","label":"_ideas_uris","offset":0,"slot":"14","type":"t_mapping(t_uint256,t_struct(ideas_uri_struct)2343_storage)"},{"astId":2468,"contract":"contracts/PlanetDAO.sol:PlanetDAO","label":"_donated","offset":0,"slot":"15","type":"t_mapping(t_string_memory_ptr,t_uint256)"},{"astId":2473,"contract":"contracts/PlanetDAO.sol:PlanetDAO","label":"_donations","offset":0,"slot":"16","type":"t_mapping(t_uint256,t_struct(donation_struct)2350_storage)"},{"astId":2478,"contract":"contracts/PlanetDAO.sol:PlanetDAO","label":"_smart_contracts_uris","offset":0,"slot":"17","type":"t_mapping(t_uint256,t_struct(smart_contract_uri_struct)2357_storage)"},{"astId":2483,"contract":"contracts/PlanetDAO.sol:PlanetDAO","label":"all_goal_ideas_votes","offset":0,"slot":"18","type":"t_mapping(t_uint256,t_struct(goal_ideas_votes_struct)2364_storage)"},{"astId":2488,"contract":"contracts/PlanetDAO.sol:PlanetDAO","label":"all_messages","offset":0,"slot":"19","type":"t_mapping(t_uint256,t_struct(message_struct)2373_storage)"},{"astId":2493,"contract":"contracts/PlanetDAO.sol:PlanetDAO","label":"all_read_messages","offset":0,"slot":"20","type":"t_mapping(t_uint256,t_struct(message_read_struct)2382_storage)"},{"astId":2498,"contract":"contracts/PlanetDAO.sol:PlanetDAO","label":"all_replies","offset":0,"slot":"21","type":"t_mapping(t_uint256,t_struct(reply_struct)2391_storage)"},{"astId":2503,"contract":"contracts/PlanetDAO.sol:PlanetDAO","label":"_user_badges","offset":0,"slot":"22","type":"t_mapping(t_string_memory_ptr,t_struct(user_badge_struct)2420_storage)"}],"types":{"t_bool":{"encoding":"inplace","label":"bool","numberOfBytes":"1"},"t_mapping(t_string_memory_ptr,t_struct(user_badge_struct)2420_storage)":{"encoding":"mapping","key":"t_string_memory_ptr","label":"mapping(string => struct PlanetDAO.user_badge_struct)","numberOfBytes":"32","value":"t_struct(user_badge_struct)2420_storage"},"t_mapping(t_string_memory_ptr,t_uint256)":{"encoding":"mapping","key":"t_string_memory_ptr","label":"mapping(string => uint256)","numberOfBytes":"32","value":"t_uint256"},"t_mapping(t_uint256,t_string_storage)":{"encoding":"mapping","key":"t_uint256","label":"mapping(uint256 => string)","numberOfBytes":"32","value":"t_string_storage"},"t_mapping(t_uint256,t_struct(dao_uri_struct)2331_storage)":{"encoding":"mapping","key":"t_uint256","label":"mapping(uint256 => struct PlanetDAO.dao_uri_struct)","numberOfBytes":"32","value":"t_struct(dao_uri_struct)2331_storage"},"t_mapping(t_uint256,t_struct(donation_struct)2350_storage)":{"encoding":"mapping","key":"t_uint256","label":"mapping(uint256 => struct PlanetDAO.donation_struct)","numberOfBytes":"32","value":"t_struct(donation_struct)2350_storage"},"t_mapping(t_uint256,t_struct(goal_ideas_votes_struct)2364_storage)":{"encoding":"mapping","key":"t_uint256","label":"mapping(uint256 => struct PlanetDAO.goal_ideas_votes_struct)","numberOfBytes":"32","value":"t_struct(goal_ideas_votes_struct)2364_storage"},"t_mapping(t_uint256,t_struct(goal_uri_struct)2336_storage)":{"encoding":"mapping","key":"t_uint256","label":"mapping(uint256 => struct PlanetDAO.goal_uri_struct)","numberOfBytes":"32","value":"t_struct(goal_uri_struct)2336_storage"},"t_mapping(t_uint256,t_struct(ideas_uri_struct)2343_storage)":{"encoding":"mapping","key":"t_uint256","label":"mapping(uint256 => struct PlanetDAO.ideas_uri_struct)","numberOfBytes":"32","value":"t_struct(ideas_uri_struct)2343_storage"},"t_mapping(t_uint256,t_struct(join_struct)2401_storage)":{"encoding":"mapping","key":"t_uint256","label":"mapping(uint256 => struct PlanetDAO.join_struct)","numberOfBytes":"32","value":"t_struct(join_struct)2401_storage"},"t_mapping(t_uint256,t_struct(message_read_struct)2382_storage)":{"encoding":"mapping","key":"t_uint256","label":"mapping(uint256 => struct PlanetDAO.message_read_struct)","numberOfBytes":"32","value":"t_struct(message_read_struct)2382_storage"},"t_mapping(t_uint256,t_struct(message_struct)2373_storage)":{"encoding":"mapping","key":"t_uint256","label":"mapping(uint256 => struct PlanetDAO.message_struct)","numberOfBytes":"32","value":"t_struct(message_struct)2373_storage"},"t_mapping(t_uint256,t_struct(reply_struct)2391_storage)":{"encoding":"mapping","key":"t_uint256","label":"mapping(uint256 => struct PlanetDAO.reply_struct)","numberOfBytes":"32","value":"t_struct(reply_struct)2391_storage"},"t_mapping(t_uint256,t_struct(smart_contract_uri_struct)2357_storage)":{"encoding":"mapping","key":"t_uint256","label":"mapping(uint256 => struct PlanetDAO.smart_contract_uri_struct)","numberOfBytes":"32","value":"t_struct(smart_contract_uri_struct)2357_storage"},"t_string_memory_ptr":{"encoding":"bytes","label":"string","numberOfBytes":"32"},"t_string_storage":{"encoding":"bytes","label":"string","numberOfBytes":"32"},"t_struct(dao_uri_struct)2331_storage":{"encoding":"inplace","label":"struct PlanetDAO.dao_uri_struct","members":[{"astId":2326,"contract":"contracts/PlanetDAO.sol:PlanetDAO","label":"dao_wallet","offset":0,"slot":"0","type":"t_string_storage"},{"astId":2328,"contract":"contracts/PlanetDAO.sol:PlanetDAO","label":"dao_uri","offset":0,"slot":"1","type":"t_string_storage"},{"astId":2330,"contract":"contracts/PlanetDAO.sol:PlanetDAO","label":"finished","offset":0,"slot":"2","type":"t_string_storage"}],"numberOfBytes":"96"},"t_struct(donation_struct)2350_storage":{"encoding":"inplace","label":"struct PlanetDAO.donation_struct","members":[{"astId":2345,"contract":"contracts/PlanetDAO.sol:PlanetDAO","label":"ideas_id","offset":0,"slot":"0","type":"t_uint256"},{"astId":2347,"contract":"contracts/PlanetDAO.sol:PlanetDAO","label":"wallet","offset":0,"slot":"1","type":"t_string_storage"},{"astId":2349,"contract":"contracts/PlanetDAO.sol:PlanetDAO","label":"donation","offset":0,"slot":"2","type":"t_uint256"}],"numberOfBytes":"96"},"t_struct(goal_ideas_votes_struct)2364_storage":{"encoding":"inplace","label":"struct PlanetDAO.goal_ideas_votes_struct","members":[{"astId":2359,"contract":"contracts/PlanetDAO.sol:PlanetDAO","label":"goal_id","offset":0,"slot":"0","type":"t_uint256"},{"astId":2361,"contract":"contracts/PlanetDAO.sol:PlanetDAO","label":"ideas_id","offset":0,"slot":"1","type":"t_uint256"},{"astId":2363,"contract":"contracts/PlanetDAO.sol:PlanetDAO","label":"wallet","offset":0,"slot":"2","type":"t_string_storage"}],"numberOfBytes":"96"},"t_struct(goal_uri_struct)2336_storage":{"encoding":"inplace","label":"struct PlanetDAO.goal_uri_struct","members":[{"astId":2333,"contract":"contracts/PlanetDAO.sol:PlanetDAO","label":"dao_id","offset":0,"slot":"0","type":"t_uint256"},{"astId":2335,"contract":"contracts/PlanetDAO.sol:PlanetDAO","label":"goal_uri","offset":0,"slot":"1","type":"t_string_storage"}],"numberOfBytes":"64"},"t_struct(ideas_uri_struct)2343_storage":{"encoding":"inplace","label":"struct PlanetDAO.ideas_uri_struct","members":[{"astId":2338,"contract":"contracts/PlanetDAO.sol:PlanetDAO","label":"goal_id","offset":0,"slot":"0","type":"t_uint256"},{"astId":2340,"contract":"contracts/PlanetDAO.sol:PlanetDAO","label":"ideas_uri","offset":0,"slot":"1","type":"t_string_storage"},{"astId":2342,"contract":"contracts/PlanetDAO.sol:PlanetDAO","label":"donation","offset":0,"slot":"2","type":"t_uint256"}],"numberOfBytes":"96"},"t_struct(join_struct)2401_storage":{"encoding":"inplace","label":"struct PlanetDAO.join_struct","members":[{"astId":2398,"contract":"contracts/PlanetDAO.sol:PlanetDAO","label":"daoid","offset":0,"slot":"0","type":"t_uint256"},{"astId":2400,"contract":"contracts/PlanetDAO.sol:PlanetDAO","label":"wallet","offset":0,"slot":"1","type":"t_string_storage"}],"numberOfBytes":"64"},"t_struct(message_read_struct)2382_storage":{"encoding":"inplace","label":"struct PlanetDAO.message_read_struct","members":[{"astId":2375,"contract":"contracts/PlanetDAO.sol:PlanetDAO","label":"message_id","offset":0,"slot":"0","type":"t_uint256"},{"astId":2377,"contract":"contracts/PlanetDAO.sol:PlanetDAO","label":"ideas_id","offset":0,"slot":"1","type":"t_uint256"},{"astId":2379,"contract":"contracts/PlanetDAO.sol:PlanetDAO","label":"wallet","offset":0,"slot":"2","type":"t_string_storage"},{"astId":2381,"contract":"contracts/PlanetDAO.sol:PlanetDAO","label":"msg_type","offset":0,"slot":"3","type":"t_string_storage"}],"numberOfBytes":"128"},"t_struct(message_struct)2373_storage":{"encoding":"inplace","label":"struct PlanetDAO.message_struct","members":[{"astId":2366,"contract":"contracts/PlanetDAO.sol:PlanetDAO","label":"message_id","offset":0,"slot":"0","type":"t_uint256"},{"astId":2368,"contract":"contracts/PlanetDAO.sol:PlanetDAO","label":"ideas_id","offset":0,"slot":"1","type":"t_uint256"},{"astId":2370,"contract":"contracts/PlanetDAO.sol:PlanetDAO","label":"message","offset":0,"slot":"2","type":"t_string_storage"},{"astId":2372,"contract":"contracts/PlanetDAO.sol:PlanetDAO","label":"sender","offset":0,"slot":"3","type":"t_string_storage"}],"numberOfBytes":"128"},"t_struct(reply_struct)2391_storage":{"encoding":"inplace","label":"struct PlanetDAO.reply_struct","members":[{"astId":2384,"contract":"contracts/PlanetDAO.sol:PlanetDAO","label":"reply_id","offset":0,"slot":"0","type":"t_uint256"},{"astId":2386,"contract":"contracts/PlanetDAO.sol:PlanetDAO","label":"message_id","offset":0,"slot":"1","type":"t_uint256"},{"astId":2388,"contract":"contracts/PlanetDAO.sol:PlanetDAO","label":"ideas_id","offset":0,"slot":"2","type":"t_uint256"},{"astId":2390,"contract":"contracts/PlanetDAO.sol:PlanetDAO","label":"message","offset":0,"slot":"3","type":"t_string_storage"}],"numberOfBytes":"128"},"t_struct(smart_contract_uri_struct)2357_storage":{"encoding":"inplace","label":"struct PlanetDAO.smart_contract_uri_struct","members":[{"astId":2352,"contract":"contracts/PlanetDAO.sol:PlanetDAO","label":"smart_contract_id","offset":0,"slot":"0","type":"t_uint256"},{"astId":2354,"contract":"contracts/PlanetDAO.sol:PlanetDAO","label":"ideas_id","offset":0,"slot":"1","type":"t_uint256"},{"astId":2356,"contract":"contracts/PlanetDAO.sol:PlanetDAO","label":"smart_contract_uri","offset":0,"slot":"2","type":"t_string_storage"}],"numberOfBytes":"96"},"t_struct(user_badge_struct)2420_storage":{"encoding":"inplace","label":"struct PlanetDAO.user_badge_struct","members":[{"astId":2403,"contract":"contracts/PlanetDAO.sol:PlanetDAO","label":"wallet","offset":0,"slot":"0","type":"t_string_storage"},{"astId":2405,"contract":"contracts/PlanetDAO.sol:PlanetDAO","label":"dao","offset":0,"slot":"1","type":"t_bool"},{"astId":2407,"contract":"contracts/PlanetDAO.sol:PlanetDAO","label":"joined","offset":1,"slot":"1","type":"t_bool"},{"astId":2409,"contract":"contracts/PlanetDAO.sol:PlanetDAO","label":"goal","offset":2,"slot":"1","type":"t_bool"},{"astId":2411,"contract":"contracts/PlanetDAO.sol:PlanetDAO","label":"ideas","offset":3,"slot":"1","type":"t_bool"},{"astId":2413,"contract":"contracts/PlanetDAO.sol:PlanetDAO","label":"vote","offset":4,"slot":"1","type":"t_bool"},{"astId":2415,"contract":"contracts/PlanetDAO.sol:PlanetDAO","label":"donation","offset":5,"slot":"1","type":"t_bool"},{"astId":2417,"contract":"contracts/PlanetDAO.sol:PlanetDAO","label":"comment","offset":6,"slot":"1","type":"t_bool"},{"astId":2419,"contract":"contracts/PlanetDAO.sol:PlanetDAO","label":"reply","offset":7,"slot":"1","type":"t_bool"}],"numberOfBytes":"64"},"t_uint256":{"encoding":"inplace","label":"uint256","numberOfBytes":"32"}}},"userdoc":{"kind":"user","methods":{},"version":1}}}}